:100000000C94171C0C94481C0C94481C0C94481C11
:100010000C94481C0C94481C0C94481C0C94481CD0
:100020000C94481C0C94481C0C94481C0C94481CC0
:100030000C94481C0C9452960C94481C0C94481C2C
:100040000C94481C0C9491DC0C94481C0C94481C97
:100050000C94481C0C94481C0C9452990C940896CF
:100060000C94481C0C9403390C94F9380C94481CDB
:100070000C94481C0C94481C0C94481C0C94481C70
:100080000C94481C0C94481C0C94481C0C94481C60
:100090000C94481C0C94481C0C94481C0C94481C50
:1000A0000C94481C0C94481C0C94481C0C94481C40
:1000B0000C94481C0C94481C0C94481C0C94481C30
:1000C0000C94481C0C94481C0C94481C0C94481C20
:1000D0000C94481C0C94481C0C94481C0C94481C10
:1000E0000C94481C75367A367F36893693360C3731
:1000F0009D36A536AD36B736C136CB36DA36E43660
:100100000C37EE36F83602373B3C593A923A773C98
:10011000923A923A923A923A923A923A923A923A7F
:10012000923A923A923A923A923A923A923A923A6F
:10013000923A923A923A923A923A923A923A923A5F
:10014000923A923A713C923A923A923A923A923A6E
:10015000923A923A923A4A3C923A923A923A923A85
:10016000923A923A923A923A923A923A8E3C8F3A34
:1001700054E661E676E683E6A0E6B5E6C2E6D3E6B7
:10018000E4E6FDE616E72FE748E765E782E7AF011B
:100190006B0247023F011F017102F3000F012102B0
:1001A000C301B7013701690165028702D701F10078
:1001B0005102E301BF010D011B0233016301F7008E
:1001C0002D0151028D01BD0169020C943E450C9434
:1001D0009F530C944A450C9418450C9437AC0C94DE
:1001E000B57A0D94CE240D947E1C0C94BD7A0D949A
:1001F000F7240C949F520C94A9530C948F3A0C94AE
:10020000773C0C9432450C94B07B0C94A57A0D94F9
:100210003B040C944A3C0C94D0D40D94E5240D94EA
:100220008A1C0C94D17F0C9435410C94BC740C94B2
:10023000CED40C9452710C9490530C94D2D40D944F
:10024000781C0C94E6390C94B3530C94E9390C9453
:10025000E5520C94856C0C94CA660D94FB240C94A6
:10026000E0770C94F0400D94ED240C94EE360D9450
:10027000871C0C94C2E60C94AE530C94DD400D9494
:10028000721C0C9489360C94CCD40C948A530C9424
:100290004D7D0C9482E70C946D660C94EC450C94A7
:1002A0008E3C0C940CE90C942C6E0C9436430C94FC
:1002B000D3E60C942B460C94593A0C9456400C946B
:1002C00049710C9475360D94F3240C94A5360C9456
:1002D00076540D94D4240D9444070C944C710C94D2
:1002E0000C370C949E520D9442070C9465E70C94C5
:1002F0004D390C9455710C94F1560C9402370C94B2
:1003000093360D94CA020C94713C0C9461E60D94E2
:1003100051050C94888A0C9427430D9401250C9464
:10032000BC520C947A6E0C94DE3C0C9472580C9473
:10033000E8440C94C17A0C94746E0C94FCA00D9457
:10034000F2070C947A360C94AD360C945C450C9400
:100350000D660C941C460C94FE500C94E5A00D9474
:100360008F1C0C9444450C94B17A0C9438450D9430
:10037000841C0C94AD7A0C94E5390D9405250D94EC
:10038000DF240C94AE6E0D949C1C0C94EF720C94B4
:10039000C1660C947D400C9460680C94C1360C943A
:1003A000FDE60C94C7D80C9455460C943A460D942F
:1003B000CA240C94347D0C947D540C94C97A0C940A
:1003C00043490C9440F20D94DB240C9476E60C9493
:1003D0004E660C94C8690C94866E0C94DA360C94B4
:1003E0009D360C9409410C94CD770C94DA660C94EC
:1003F00083E60C94AF400C94DF520C94B97A0C94C1
:100400008AD80C94D5950C94DD480D9440070C9433
:100410007D550C94D57F0C94A97A0C94EC480C94DF
:1004200026450C945C6E0C94477D0C94AB950C9413
:10043000B7360C940D460D94E9240D9446070C94A0
:100440004A390D94811C0C94CA400C94D9520C94D6
:1004500086450C9436820C944E410C94673D0C9466
:10046000287D0C94053D0C9454E60C9446460C945F
:100470003E6E0C948E670C94A4530D94623F0C94C2
:100480009A530C942C450C94F7440C94D2660D941A
:10049000751C0C94EB520C94CD7F0C94C76F0C948C
:1004A0009D780D940E250C9450450D94803F0C942E
:1004B000CEA00C94A8520C94686E0C949ED60C940A
:1004C000AA520C9413A10C947B520D94D7240C9433
:1004D000F9770D9409250D946F1C0C9420450C940C
:1004E000AC520D947B1C0C94506E0C9448E70C9409
:1004F000C57A0C94E4360C94BC8A0C94923A0C9411
:1005000056450C94CD7A0C944F710C94537D0D94F8
:10051000C6240C94E4E60C94E67F0C941C410C94E5
:10052000A0E60C94806E0C94CB360C9496400C9400
:100530009FA60C94CF6E0C9464400C94B86E0C94EF
:100540001E430C9495530C94F8360C9484530C94DD
:10055000F1520C9416E70C94B5E60C9417F20D9436
:1005600021070C943B3C0C94CAD40C947F360C9419
:100570000B660C9467450C942FE70C94A56E4E41C6
:100580004E494E495459494E46CDCCCC3D0AD7230D
:100590003C17B7D13877CC2B329595E6241FB14F55
:1005A0000A000020410000C84200401C4620BCBE9A
:1005B0004CCA1B0E5AAEC59D7400407A10F35A0007
:1005C000A0724E18090010A5D4E80000E87648177C
:1005D0000000E40B54020000CA9A3B000000E1F561
:1005E00005000080969800000040420F000000A027
:1005F0008601000000102700000000E80300000052
:10060000006400000000000A00000000000100007B
:100610000000002C76D888DC674F0823DFC1DFAEEE
:1006200059E1B1B796E5E3E453C63AE651997696B7
:10063000E8E6C28426EB898C9B62ED407C6FFCEF80
:10064000BC9C9F40F2BAA56FA5F490055A2AF75CAE
:10065000936B6CF9676DC11BFCE0E40D47FEF52060
:10066000E6B500D0ED902E03009435770500808428
:100670001E080000204E0A000000C80C333333333C
:100680000F986E12831141EF8D2114893BE65516A8
:10069000CFFEE6DB18D1844B381BF77C1D901DA4E0
:1006A000BBE424203284725E228100C9F124ECA1D3
:1006B000E53D27434F4D4D554E49434154494F4E1B
:1006C0000044525952554E004552524F5253004920
:1006D0004E464F004543484F00536C6565702E2EC3
:1006E0002E004D65736820706F696E74206F75748D
:1006F000206F662072616E67650A00436C69636BE8
:1007000020746F20526573756D652E2E2E004E6F0E
:10071000204D6F76652E00456E642066696C6520FD
:100720006C6973740A00426567696E2066696C655E
:10073000206C6973740A004E6F206D656469610AEC
:1007400000286E6F2066696C6529004375727265BA
:100750006E742066696C653A20005344207072699B
:100760006E74696E67206279746520004E6F742024
:100770005344207072696E74696E670A0025697946
:1007800020256964202569682025696D2025697305
:10079000005072696E742074696D653A20004520BE
:1007A0002553006F66660044454255473A004D3177
:1007B00031322053687574646F776E004D31313378
:1007C0002053005A38545F4D33204F46462E004385
:1007D00048414D4245525F54454D50455241545554
:1007E000524500424142595354455050494E4700EA
:1007F00041524353004D4F54494F4E5F4D4F444576
:100800005300544845524D414C5F50524F5445435C
:1008100054494F4E004C4F4E475F46494C454E4160
:100820004D45004155544F5245504F52545F53442B
:100830005F53544154555300534443415244005074
:10084000524F4D50545F535550504F525400454DE8
:10085000455247454E43595F50415253455200431C
:100860004153455F4C494748545F425249474854B9
:100870004E45535300544F47474C455F4C494748FA
:10088000545300534F4654574152455F504F5745BC
:1008900052004255494C445F50455243454E540026
:1008A0004C4556454C494E475F44415441005A5FC0
:1008B00050524F42450052554E4F555400415554E9
:1008C0004F4C4556454C005052494E545F4A4F429A
:1008D0000050524F4752455353004155544F5245D3
:1008E000504F52545F54454D5000564F4C554D4556
:1008F000545249430042494E4152595F46494C4582
:100900005F5452414E534645520053455249414C63
:100910005F584F4E5F584F4646004649524D57412B
:1009200052455F4E414D453A4D61726C696E206D86
:1009300061726C696E2D322E302E3820284E6F7603
:1009400020203920323032302031363A32363A33B4
:10095000362920534F555243455F434F44455F5519
:10096000524C3A68747470733A2F2F6769746875C3
:10097000622E636F6D2F4D61726C696E4669726D88
:10098000776172652F4D61726C696E2050524F54C1
:100990004F434F4C5F56455253494F4E3A312E30DC
:1009A000204D414348494E455F545950453A5A38C5
:1009B000545F4D332045585452554445525F434F80
:1009C000554E543A3120555549443A636564653271
:1009D0006132662D343161322D343734382D39622D
:1009E00031322D6335356336326633363766660A03
:1009F000002F2F20004D31343520533C696E646543
:100A0000783E206F7574206F662072616E67652076
:100A100028302D31290A00416363656C6572617469
:100A2000696F6E3A20500046523A0020466C6F774C
:100A30003A200020643A0020693A0020703A0049C8
:100A40006E76616C69642065787472756465720A8B
:100A50000046696C616D656E742072756E6F757499
:100A60002064697374616E636520286D6D293A2076
:100A70000046696C616D656E742072756E6F757479
:100A800020004D34323120696E636F727265637479
:100A900020706172616D6574657220757361676540
:100AA0000A004F666673657473204170706C6965E7
:100AB00064004572723A20546F6F206661722100A3
:100AC000546F6F206661722066726F6D207265666A
:100AD0006572656E636520706F696E740A004545C6
:100AE00050524F4D204F4B0A00205A323A00447565
:100AF000616C20456E6473746F702041646A757315
:100B0000746D656E7420286D6D293A2000506F77E2
:100B100065722D6C6F7373207265636F7665727981
:100B20002000446F6E65207072696E74696E672074
:100B300066696C650A004D3737004D333100D406C5
:100B4000CF06C806C106B3064572726F722077726F
:100B50006974696E6720746F20454550524F4D216E
:100B60000A004D323930004D343130004D313132D0
:100B7000004D3130380053544F505045442E200022
:100B80005072696E7465722073746F707065642042
:100B900064756520746F206572726F72732E2046C3
:100BA000697820746865206572726F7220616E6466
:100BB00020757365204D39393920746F2072657343
:100BC000746172742E202854656D7065726174753D
:100BD00072652069732072657365742E2053657485
:100BE0002069742061667465722072657374617225
:100BF00074696E67290A004E6F20436865636B73E2
:100C0000756D2077697468206C696E65206E756DEE
:100C10006265722C204C617374204C696E653A20B9
:100C200000636865636B73756D206D69736D6174C6
:100C300063682C204C617374204C696E653A200007
:100C40004C696E65204E756D626572206973206E09
:100C50006F74204C617374204C696E65204E756D05
:100C60006265722B312C204C617374204C696E6567
:100C70003A20004D313130005344207265616420C8
:100C80006572726F720A002121204B494C4C20631F
:100C90006175736564206279204B494C4C20627504
:100CA00074746F6E2F70696E0A002121204B494CBD
:100CB0004C2063617573656420627920746F6F20C6
:100CC0006D75636820696E61637469766520746907
:100CD0006D65202D2063757272656E7420636F6D73
:100CE0006D616E643A2000627573793A20706175A7
:100CF00073656420666F7220696E7075740A006295
:100D00007573793A2070617573656420666F72201F
:100D1000757365720A00627573793A2070726F6339
:100D2000657373696E670A004D6564696120526579
:100D30006D6F766564004D6564696120496E736509
:100D400072746564004D3130303053004D363030B0
:100D500020543137004572723A2075746638206627
:100D60006F6E74206E6F7420696E697469616C694E
:100D70007A65642E00000C0F00FE07022503BB01FC
:100D80007FFE08FE08FE05080806000040F0C8883F
:100D900088987810050808060000C0F888888888B8
:100DA00088F80505050600012030F8302005080800
:100DB0000600002070F820202020E0050909060028
:100DC000FF2070A8A8B888887020070505070001D3
:100DD000D86C366CD80509090600FFF8A888888801
:100DE0008888A8F8050A0A0600FE2050505050884E
:100DF000A8A8887003030306000340A040FFFFFF7C
:100E0000FFFFFFFFFFFFFFFFFFFFFFFFFFFFFFFFF2
:100E1000FFFFFF0000000605FF0107070602008034
:100E2000808080800080030303060105A0A0A00548
:100E3000060606000050F85050F850050909060053
:100E4000FF2070A8A07028A87020050707060000E2
:100E5000C8C8102040989805070706000040A0A0C9
:100E600040A89068010303060205808080030909F9
:100E70000601FF2040408080804040200309090691
:100E800001FF8040402020204040800507070600E9
:100E90000020A8702070A82005050506000120206C
:100EA000F820200203030601FFC04080050101066F
:100EB0000003F8020202060100C0C0050707060091
:100EC00000081010204040800507070600007088C9
:100ED00098A8C8887003070706010040C04040403A
:100EE00040E0050707060000708808102040F8055C
:100EF0000707060000F80810300888700507070685
:100F0000000010305090F81010050707060000F898
:100F100080F008088870050707060000304080F060
:100F2000888870050707060000F8081010202020A8
:100F30000507070600007088887088887005070715
:100F40000600007088887808106002050506010018
:100F5000C0C000C0C00206060601FFC0C000C040FD
:100F6000800305050601012040804020050303069B
:100F70000002F800F80305050601018040204080CA
:100F800005070706000070881020200020050707CD
:100F90000600007088B8A8B8807005070706000032
:100FA000708888F8888888050707060000F0484898
:100FB000704848F005070706000070888080808828
:100FC00070050707060000F04848484848F0050744
:100FD00007060000F88080F08080F805070706000B
:100FE00000F88080F0808080050707060000708888
:100FF0008080988870050707060000888888F88830
:101000008888030707060100E04040404040E005B3
:10101000070706000038101010109060050707063B
:1010200000008890A0C0A0908805070706000080F7
:101030008080808080F805070706000088D8A8888F
:101040008888880507070600008888C8A8988888C7
:1010500005070706000070888888888870050707DC
:10106000060000F08888F0808080050707060000F1
:1010700070888888A89068050707060000F08888AF
:10108000F0A0908805070706000070888070088827
:1010900070050707060000F8202020202020050703
:1010A000070600008888888888887005070706007A
:1010B0000088888888505020050707060000888827
:1010C0008888A8A850050707060000888850205087
:1010D0008888050707060000888850202020200502
:1010E0000707060000F80810204080F803090906E9
:1010F00001FFE080808080808080E0050707060097
:1011000000804040201010080309090601FFE0207C
:10111000202020202020E005030306000520508821
:101120000501010600FEF8030303060105804020C7
:101130000505050600007008788878050707060091
:10114000008080F0888888F0050505060000708022
:101150008088700507070600000808788888887866
:101160000505050600007088F08070050707060079
:1011700000304840E04040400507070600FE708808
:1011800088887808700507070600008080F0888846
:1011900088880307070601004000C0404040E00483
:1011A00009090601FE1000301010101090600507AC
:1011B0000706000080808890E090880307070601FA
:1011C00000C04040404040E0050505060000D0A8B2
:1011D000A8A8A8050505060000B0C88888880505E8
:1011E0000506000070888888700507070600FEF075
:1011F000888888F080800507070600FE7888888840
:10120000780808050505060000B0C880808005053F
:101210000506000078807008F0050707060000202A
:1012200020F82020201805050506000088888898E9
:101230006805050506000088888850200505050614
:1012400000008888A8A850050505060000885020E1
:1012500050880507070600FE8888885020408005D2
:101260000505060000F8102040F80309090601FFF3
:101270002040404080404040200109090602FF8094
:1012800080808080808080800309090601FF804083
:101290004040204040408005030306000248A890DB
:1012A000FF4E65787420436F726E657200446F6EF6
:1012B00065004E65787400486F6D696E67205859F7
:1012C0005A004661646520486569676874004C652A
:1012D00076656C20426564004732380A473239002F
:1012E0004361746368205A204F66667365740047D3
:1012F0003239204E004C6576656C20436F726E6506
:10130000727300556E726574726163742056005575
:101310006E726574722E206D6D00486F70206D6D59
:101320000052657472616374205600526574726174
:101330006374206D6D004175746F2D526574726118
:101340006374004261627973746570205A0046616B
:101350006E205370656564004E6F7A7A6C65004D3F
:1013600061696E00466C6F77002568753A253032EA
:10137000687500256875642025303268753A253017
:101380003268750020202020202020001FE020103F
:101390002010201010201020201020103030084085
:1013A000048003001FE03FF03FF03FF01FE01FE02C
:1013B0003FF03FF03FF00FC0078003003FFFF038E1
:1013C000007030FC3020FC102078102030102C00F1
:1013D000D02E31D02F7BD02F7BD02E31D02C00D0EF
:1013E00020301020781020FC1030FC303800703F86
:1013F000FFF03FFFF03800703186302387102787D9
:10140000902F87D02F03D020301020781020781014
:101410002030102F03D02F87D027879023871031BB
:1014200086303800703FFFF01FFFF81FFFF80410F0
:1014300040020820020820041040082080104100CB
:101440001041000820800410400000001FFFF81F1A
:10145000FFF83300CC00CC120048004812004800CE
:1014600048120048004813FFCFFFC81000000008D2
:101470001FFF83FFF8000FC7E000000FEFE0000040
:1014800003EF80000001EF000000006C000000008E
:1014900000000041637469766520562D746F6F6C8F
:1014A000004D6F74696F6E004D3834004175746F74
:1014B00020486F6D650054656D706572617475725A
:1014C000650041425300504C410044697361626CB5
:1014D0006520537465707065727300486F6D652088
:1014E0005A004732385A00486F6D6520590047321C
:1014F000385900486F6D652058004732385800470A
:1015000032380050726568656174202420456E642D
:101510000050726568656174202420426564004350
:101520006F6F6C646F776E005072656865617420D0
:101530002400546F74616C00C614C2140000A0C172
:10154000000000000000000000009B4300009B43DF
:101550000000C84353657474696E67732053746FD9
:10156000726564002062797465733B206372632046
:101570000053657474696E67732053746F72656489
:10158000202800454550524F4D20646174617369B5
:101590007A65206572726F722E0A002073746F7202
:1015A00065642073657474696E6773207265747204
:1015B0006965766564202800202863616C63756C1A
:1015C0006174656429210A0020213D2000454550B1
:1015D000524F4D20435243206D69736D61746368AF
:1015E000202D202873746F726564292000496E6471
:1015F00065783A200044494749504F5453204C6F76
:10160000616465640A0044494749504F5453204C73
:101610006F6164696E670A00204D61726C696E3D8E
:10162000563833290A00454550524F4D2076657291
:1016300073696F6E206D69736D61746368202845EE
:101640004550524F4D3D00506F776572204F757475
:1016500061676500436F6E66696775726174696F73
:101660006E004475616C205A20454E4453544F50CF
:10167000004455414C205A2044524956455200548A
:101680004954414E204558545255444552004269F0
:101690006C696E656172204C6576656C696E670079
:1016A000457874727564657273007777772E7A6FF8
:1016B0006E657374617233642E636F6D005A3854B3
:1016C0005F4D3300323032302D31312D3039006DE5
:1016D00061726C696E2D322E302E380056312E37E5
:1016E0002E3300546865726D6973746F72730042B3
:1016F0006F61726420496E666F005072696E746526
:101700007220496E666F004D313030300053746F77
:1017100070205072696E7400526573756D6520504B
:1017200072696E74004261636B0053746F70004E97
:101730006F204D65646961004368616E6765204D87
:1017400065646961004D32310053776974636820C4
:10175000506F776572204F6666004D3831004368E0
:10176000616E67652046696C616D656E74004162EB
:101770006F7574205072696E7465720054756E6571
:10178000005061757365205072696E7400496E6611
:101790006F2053637265656E0053746172742050DC
:1017A00072696E740043616E6E6F7420656E74654D
:1017B00072207375626469723A2000022E2E004D09
:1017C00069786572003F0043616E63656C00526525
:1017D0007665727365204772616469656E74002076
:1017E00020456E6420562D746F6F6C0053746172C7
:1017F0007420562D746F6F6C002020456E64205A43
:101800003A002534642E2564206D6D005374617296
:1018100074205A3A004379636C65204D697800431F
:101820006F6D6D697420562D746F6F6C204D6978E3
:1018300000436F6D706F6E656E74203D00562D74A1
:101840006F6F6C7320576572652052657365740005
:1018500052616E646F6D204D6978003A64697361FE
:10186000626C65003A20656E61626C65004772616A
:101870006469656E744D69780052657365742056AD
:101880002D746F6F6C73004C6F61642053657474BA
:10189000696E67730053746F726520536574746961
:1018A0006E67730050726F6265205A204F666673D0
:1018B000657400416476616E636564205365747479
:1018C000696E6773004F6E00554E4C4F4144204681
:1018D000494C414D454E540046494C414D454E54AE
:1018E000204348414E474500526573746F7265202E
:1018F00044656661756C74730050726568656174E7
:10190000202420436F6E660052756E6F75742053ED
:10191000656E736F72004D36303020423020542592
:1019200069004D37303120542569004D3730322061
:1019300054256900556E6C6F61642046696C616D59
:10194000656E74202A00556E6C6F616420416C6C6A
:10195000004D373032004C6F61642046696C616D18
:10196000656E74202A004368616E67652046696C65
:10197000616D656E74202A005075726765206D6F09
:10198000726500436F6E74696E75650052455355FC
:101990004D45204F5054494F4E533A005052494EF6
:1019A00054205041555345440020204E6F7A7A6CA4
:1019B000653A200052756E617761792057617463D2
:1019C000683A204F464600313330004245443A20C1
:1019D0003130306B207769746820342E376B20707B
:1019E000756C6C2D75700052756E6177617920573A
:1019F000617463683A204F4E004D61782054656DE4
:101A00007000323735004D696E2054656D700045A9
:101A1000313A203130306B207769746820342E37AA
:101A20006B2070756C6C2D757000505355004765B8
:101A30006E657269630050726F746F636F6C003112
:101A40002E3000426175640031313532303000682B
:101A5000747470733A2F2F7777772E616C6965787D
:101A600070726573732E636F6D2F6974656D2F339C
:101A7000323936353430363339362E68746D6C0071
:101A80005A4F4E4553544152205A5249425F56369E
:101A9000005061726B696E672E2E2E000000576138
:101AA000697420666F720066696C616D656E742082
:101AB0006368616E676500746F207374617274008F
:101AC0005761697420666F720066696C616D656E3E
:101AD0007420756E6C6F616400004E6F7A7A6C656D
:101AE0002068656174696E6700506C65617365207C
:101AF000776169742E2E2E00005072657373206218
:101B00007574746F6E00746F2068656174206E6FF9
:101B10007A7A6C650000496E736572742066696C30
:101B2000616D656E7400616E642070726573732000
:101B3000627574746F6E00746F20636F6E74696E7B
:101B40007565005761697420666F720066696C6123
:101B50006D656E74206C6F61640000507265737304
:101B600020427574746F6E00746F20726573756DAA
:101B700065207072696E7400005761697420666F29
:101B800072207072696E7400746F20726573756D67
:101B9000652E2E2E00005761697420666F720066F4
:101BA000696C616D656E74207075726765000050B8
:101BB00072696E742041626F72746564004D3235D3
:101BC00020500A4D32340050617573696E672E2EB5
:101BD0002E006F70656E0054524947474552454488
:101BE0000066696C616D656E74007A5F70726F6219
:101BF00065007A325F6D696E007A5F6D696E00799B
:101C00005F6D696E00785F6D696E005265706F720E
:101C100074696E6720656E6473746F70207374618D
:101C20007475730A007C3C3E5E2B3D3F2F5B5D3B31
:101C30002C2A225C000200000000000000000000CE
:101C40000000000000000000000000000000000094
:101C50000000000000000000000000000000000084
:101C600000000000000007FFC3FF870187FF0FFC93
:101C7000FFFC1E01FF8007FFC3FF87018FFF1FFCD2
:101C8000FFFC1E03FFC00000C600C7018C00180047
:101C90000300618300C00001C600C7C18C001800AA
:101CA0000300618300C000038600C6C18C001800D9
:101CB0000301806300C000070600C6618C001800A5
:101CC0000301806300C0000E0600C6618C0018008E
:101CD0000301806300C0001C0600C6318FFE1FF8A0
:101CE00003018063FFC000380600C6318FFE0FFC81
:101CF00003018063FF8000700600C6198C00000C91
:101D00000301FFE30C0000E00600C6198C00000C84
:101D10000301FFE3070001C00600C60D8C00000CA4
:101D200003018063018003800600C60D8C00000C57
:101D300003018063018007000600C6078C00000CC9
:101D400003018063018006000600C6078C00000CBA
:101D500003018063018007FFC3FF86038FFF1FFC21
:101D600003018063018007FFC3FF860387FF1FF81D
:101D700003018063018000000000000000000000FB
:101D80000000000000000000000000000000000053
:101D90000000000000000000000000000000000043
:101DA0000000000000000000000000000000000033
:101DB000000000000000F0004A0110013B0130016A
:101DC0002C01400127015001220170011D019001E9
:101DD0001801B0011301C0010E01F0010901100248
:101DE00004013002FF006002FA009002F500C00218
:101DF000F0000003EB004003E6008003E100D003A5
:101E0000DC002004D700E004D200C005CD0040066D
:101E1000C800D006C3008007BE00F008B900400922
:101E2000B400C009AF00B00AAA00B00BA500D00CE6
:101E3000A000000E9B00C0109600501291000014EC
:101E40008C00C0158700B0178200B0197D00D01B30
:101E50007800001E730040206E0090226900F0247C
:101E6000640040275F0090295A00E02B5500102E97
:101E7000500020304B0010324600E03341009035D6
:101E80003C001037370070383200A0392D00B03ACE
:101E90002800A03B2300603C1E00103D1900903D2F
:101EA0001400103E0F00703E0A00C03E0500003FC7
:101EB0000000403FFBFF803FF6FFC03FF1FF2020C6
:101EC000506C616E6E6572427566666572427974B9
:101ED00065733A20002046726565204D656D6F720E
:101EE000793A2000436F6D70696C65643A204E6FDB
:101EF0007620203920323032300A00204C61737451
:101F000020557064617465643A20323032302D316E
:101F1000312D3039207C20417574686F723A202849
:101F20005A4F4E45535441522C2048616C6C7929CC
:101F30000A006D61726C696E2D322E302E380A00E7
:101F40004D61726C696E0020536F667477617265C3
:101F50002052657365740A00205761746368646F6A
:101F6000672052657365740A002042726F776E2095
:101F70006F75742052657365740A00204578746526
:101F8000726E616C2052657365740A00506F7765DC
:101F90007255700A006175746F25632E67004732B1
:101FA000385859004D31303031006572726F7220EF
:101FB00077726974696E6720746F2066696C650A50
:101FC00000446F6E6520736176696E672066696C88
:101FD000652E0A004D323900456E6473746F70735C
:101FE00000255320256320256320256320256300D9
:101FF00020503A00656E6473746F70732068697462
:102000003A200020436F756E7420583A0045310025
:10201000626564002C2073797374656D2073746F2E
:102020007070656421204865617465725F49443A47
:102030002000544845524D414C2052554E41574185
:102040005900546865726D616C2052756E617761DC
:10205000790048656174696E67204661696C6564E2
:102060000048656174696E67206661696C6564002B
:10207000202D20496E76616C6964206578747275D4
:10208000646572206E756D62657220210A0045726A
:10209000723A204D415854454D50004D41585445D9
:1020A0004D5020747269676765726564004572728D
:1020B0003A204D494E54454D50004D494E54454DE2
:1020C000502074726967676572656400202F002074
:1020D00042403A0020403A00001000AA038000402D
:1020E0000100012C01B001220140021001F00202A6
:1020F000018003F8004004F500E004ED009005E4E1
:10210000003006DD00E006D7008007D1003008CCA3
:1021100000D008C7007009C300100ABE00B00ABB97
:1021200000500BB700900CB300D00DAA00B00FA563
:10213000005010A000101496009016900010198CFA
:1021400000501A8500301C820070227800B0237580
:102150000040256E0020276900A0296400502A5FF6
:1021600000902B5A00D02C5500702D4F00E02E48C7
:10217000005031450030334100D0353900603637EA
:102180000010373300F0382D00A0392700803C1CA8
:1021900000403D1700F03D1100703E0A00C03E05B2
:1021A00000003F0000403FFBFF803FF6FFC03FF1D3
:1021B000FF456E636C6F737572650052756E6F7557
:1021C000742044697374206D6D004C6F6164206DE0
:1021D0006D00556E6C6F6164206D6D0046696C2EEC
:1021E000204469612E004520696E206D6DC2B300E8
:1021F0005761726E696E673A20486F6D696E67202D
:1022000042756D702044697669736F72203C20318D
:102210000A00206C696D6974656420746F20002069
:102220004D617820000000484200004842000080D4
:10223000400202040000A0400000A0400000004056
:102240000000A54300009B430000C843FFFFFF437D
:1022500061703A003F5A206F7574206F662072617A
:102260006E67652028003F59206F7574206F6620C7
:1022700072616E676520282D003F58206F757420AD
:102280006F662072616E676520282D0050726F6244
:1022900065204F6666736574205800656E717565BC
:1022A0007565696E672022006F6B00526573656EFD
:1022B000643A200042656420436F6F6C696E672E3C
:1022C0002E2E004265642048656174696E672E2E6B
:1022D0002E0023646566696E652044454641554C71
:1022E000545F004B6420004B6920004B702000506D
:1022F0004944204175746F74756E652066696E6916
:1023000073686564212050757420746865206C6161
:102310007374204B702C204B6920616E64204B64D9
:1023200020636F6E7374616E74732066726F6D20BC
:1023300062656C6F7720696E746F20436F6E66699B
:102340006775726174696F6E2E680A005049442087
:102350004175746F74756E65206661696C65642182
:102360002074696D656F75740A000A20436C61738F
:1023700073696320504944200A00204B643A2000CE
:10238000204B693A2000204B703A20002054753AC7
:102390002000204B753A2000206D61783A20002003
:1023A0006D696E3A200020643A20002062696173F2
:1023B0003A2000504944204175746F74756E652051
:1023C00073746172740A00504944204175746F74CB
:1023D000756E65206661696C6564212054656D7059
:1023E0006572617475726520746F6F2068696768C3
:1023F0000A00504944204175746F74756E65005031
:102400004944204175746F74756E65206661696C0E
:102410006564212042616420657874727564657218
:10242000206E756D6265720A0020746F6F206C6F8C
:102430006E6720657874727573696F6E207072654F
:1024400076656E7465640A004D3330332055312053
:102450004525692053256900504944204175746F12
:1024600074756E65202A005049442D44202A00507E
:1024700049442D49202A005049442D50202A005615
:1024800054726176204D696E00566D696E00566D0E
:102490006178204500566D6178205A00566D61784C
:1024A000205900566D6178205800416D61782045B3
:1024B00000416D6178205A00416D617820590041DA
:1024C0006D6178205800412D54726176656C004131
:1024D0002D5265747261637400416363656C0024FE
:1024E000F4D43050C38E20C2A24017828B701112D8
:1024F0007A910D816CD90AA861E108C75866076115
:102500005143061E4B5D05C145A7041A411104093C
:102510003D9803713931034036DB0265339102D4B3
:10252000305402802E1D02632CEE01752AC501B0C5
:1025300028A001102781018F2564012B244B01E085
:10254000223401AC211F018D200D01801FFC00846D
:102550001EED00971DDF00B81CD200E61BC6002050
:102560001BBC00641AB200B219A8000A19A0006AC4
:10257000189900D117910040178B00B516840031CF
:10258000167E00B31579003A157300C7146F005812
:10259000146A00EE1366008813630025135E00C7FB
:1025A000125B006C12570015125400C111510070DB
:1025B000114F0021114B00D61049008D10470046E5
:1025C00010440002104200C00F4000800F3E004245
:1025D0000F3C00060F3B00CB0E3800930E37005C1B
:1025E0000E3500270E3400F30D3200C10D3100907E
:1025F0000D3000600D2E00320D2D00050D2C00D980
:102600000C2B00AE0C2900850C29005C0C27003532
:102610000C27000E0C2600E80B2400C40B2400A09D
:102620000B23007D0B23005A0B2100390B210018CE
:102630000B2000F80A1F00D90A1E00BB0A1E009DCD
:102640000A1D00800A1D00630A1C00470A1B002C9B
:102650000A1B00110A1A00F7091A00DD091900C443
:10266000091900AB091900920917007B09180063CA
:102670000917004C09160036091600200916000A31
:10268000091500F5081500E0081400CC081400B87E
:10269000081400A4081400900813007D0812006BB1
:1026A00008130058081200460812003408110023CD
:1026B0000811001208110001081100F0071000E0D5
:1026C000071000D0071000C0071000B0070F00A1CE
:1026D00007100091070E0083070F0074070F0065B5
:1026E000070E0057070E0049070E003B070D002E8E
:1026F000070E0020070D0013070D0006070D00F957
:10270000060C00ED060D00E0060C00D4060C00C817
:10271000060C00BC060C00B0060C00A4060B0099C9
:10272000060C008D060B0082060B0077060B006C72
:10273000060B0061060A0057060B004C060A004211
:10274000060A0038060A002E060A0024060A001AA5
:10275000060A001006090007060A00FD050900F434
:10276000050900EB050900E2050900D9050900D0BB
:10277000050900C7050900BE050900B5050800AD3B
:10278000050800A50509009C050800940508008CB3
:10279000050800840508007C050800740508006C25
:1027A000050700650508005D050700560508004E91
:1027B00005070047050700400508003805070031F8
:1027C0000507002A050700230507001C050600165B
:1027D0000507000F0507000805060002050700FBB6
:1027E000040600F5040700EE040600E8040600E213
:1027F000040700DB040600D5040600CF040600C968
:10280000040600C3040600BD040600B7040600B1B8
:10281000040500AC040600A6040600A00405009B05
:1028200004060095040500900406008A040500854E
:10283000040500800406007A040500750405007094
:102840000405006B04050066040500610405005CD6
:1028500004050057040500520405004D0405004816
:10286000040500430405003E0404003A0405003555
:10287000040500300404002C040500270404002390
:102880000405001E0404001A0404001604050011C7
:102890000404000D040400090405000404040000FD
:1028A000040400FC030400F8030400F4030400F033
:1028B000030400EC030400E8030400E4030400E064
:1028C000030400DC030400D8030400D4030400D094
:1028D000030400CC030400C8030300C50303002461
:1028E000F404D9201BC40C5C0E9804C4095F026573
:1028F000077101F405F900FB04B30048048700C127
:102900000369005803550003034500BE023A0084E2
:1029100002310053022A002902250004022000E4AB
:10292000011C00C8011900AF0117009801140084B0
:10293000011300710110006101100051010E0043EC
:10294000010D0036010B002B010B0020010B0015BF
:102950000109000C01090003010800FB000800F355
:10296000000800EB000700E4000600DE000600D8C7
:10297000000600D2000600CC000500C7000500C21A
:10298000000500BD000400B9000400B5000400B15A
:10299000000400AD000400A9000400A5000300A28B
:1029A0000003009F0004009B0003009800030095B3
:1029B00000020093000300900003008D0002008BD2
:1029C00000030088000200860002008400030081EA
:1029D0000002007F0002007D0002007B00020079FF
:1029E000000200770001007600020074000200720D
:1029F000000100710002006F0002006D0001006C18
:102A00000002006A00010069000200670001006620
:102A10000001006500010064000200620001006125
:102A2000000100600001005F0002005D0001005C29
:102A30000001005B0001005A00010059000100582C
:102A4000000100570001005600010055000100542C
:102A5000000100530000005300010052000100512A
:102A6000000100500001004F0001004E0000004E28
:102A70000001004D0001004C0001004B0000004B24
:102A80000001004A00010049000100480000004820
:102A9000000100470001004600000046000100451B
:102AA0000000004500010044000100430000004315
:102AB000000100420000004200010041000000410E
:102AC000000100400001003F0000003F0001003E07
:102AD0000000003E0001003D0000003D0001003C00
:102AE0000000003C0000003C0001003B0000003BF7
:102AF0000001003A0000003A0001003900000039EE
:102B000000010038000000380000003800010037E4
:102B100000000037000100360000003600000036DB
:102B200000010035000000350000003500010034D0
:102B300000000034000000340001003300000033C6
:102B400000000033000100320000003200000032BB
:102B500000010031000000310000003100010030B0
:102B600000000030000000300001002F0000002FA6
:102B70000000002F0000002F0001002E0000002E9A
:102B80000000002E0001002D0000002D0000002D8F
:102B90000000002D0001002C0000002C0000002C83
:102BA0000000002C0001002B0000002B0000002B77
:102BB0000000002B0001002A0000002A0000002A6B
:102BC0000000002A0001002900000029000000295F
:102BD0000000002900000029000100280000002852
:102BE0000000002800000028000000280001002745
:102BF0000000002700000027000000270000002739
:102C0000000100260000002600000026000000262B
:102C1000000000260001002500000025000000251E
:102C20000000002500000025000000250001002410
:102C30000000002400000024000000240000002404
:102C400000010023000000230000002300000023F7
:102C500000000023000000230000002300010022E8
:102C600000000022000000220000002200000022DC
:102C700000000022000100210000002100000021CE
:102C800000000021000000210000002100000021C0
:102C900000010020000000200000002000000020B3
:102CA00000000020000000200000002000000020A4
:102CB0000001001F0000001F0000001F0000001F97
:102CC0000000001F0000001F0000001F0001001E88
:102CD0000000001E0000001E0000001E000000A4F6
:102CE0002C0000841E0000B0120000870A00009E25
:102CF000050000E90200007B010000BF0000005059
:102D00006C65617365205265736574005052494E5D
:102D10005445522048414C5445440025533A2025FF
:102D200053004B494C4C45442E20005072696E7440
:102D300065722068616C7465642E206B696C6C2808
:102D4000292063616C6C6564210A006563686F3AD1
:102D5000004572726F723A0042696C696E65617209
:102D6000204C6576656C696E6720477269643A0A23
:102D7000002053697A653A200043616E6E6F7420BB
:102D80006F70656E20737562646972200053442011
:102D9000496E6974204661696C0053442063617216
:102DA00064206F6B0A006F70656E526F6F742066DF
:102DB00061696C65640A00766F6C756D652E696E6D
:102DC0006974206661696C65640A004E6F20534423
:102DD00020636172640A004D323320257300466916
:102DE0006C652073656C65637465640A0046696C84
:102DF00065206F70656E65643A2000454E4420532F
:102E00005542524F5554494E450A002220706F7367
:102E1000002220706172656E743A2200535542524E
:102E20004F5554494E452043414C4C2074617267C4
:102E300065743A220053756263616C6C204F76654D
:102E400072666C6F77004578636565646564206DB4
:102E5000617820535542524F5554494E4520646580
:102E60007074683A310A0044656C6574696F6E204D
:102E70006661696C65642C2046696C653A20004681
:102E8000696C652064656C657465643A006F706593
:102E90006E206661696C65642C2046696C653A2019
:102EA0000057726974696E6720746F2066696C657B
:102EB0003A2000667265736800646F696E67004E41
:102EC0006F772000252900257C00203B2043757268
:102ED00072656E74205A00203B20456E6400203BD2
:102EE000205374617274004772616469656E742066
:102EF0004D6978200052616E646F6D204D697820B5
:102F0000004D32342053256C642054256C640047F6
:102F100039322E392045257300473120462564007B
:102F20004739322E39205A2573004731205A302034
:102F30004632303000473120582573205925732000
:102F4000463330303000473120452564204632304A
:102F500030004D3130362050256920532569004D11
:102F600031303920532569004D31393020532569DE
:102F7000004D3230302044257300473238523058EB
:102F800059004739322E39204530205A300A47310E
:102F90005A2573004D343230205330205A300020EF
:102FA000496E76616C6964206578747275646572C7
:102FB000200020496E76616C696420452073746539
:102FC00070706572200020452073746570706572A2
:102FD000206E6F74207370656369666965640A00AA
:102FE00056652D4A65726B00565A2D4A65726B0004
:102FF00056592D4A65726B0056582D4A65726B0002
:1030000050726F62652059204F6666736574005078
:10301000726F62652058204F6666736574004520A4
:1030200073746570732F6D6D005A205374657073DF
:103030002F6D6D00592053746570732F6D6D00589E
:103040002053746570732F6D6D00496E6974004D67
:1030500034323800496E697469616C697A6520455B
:103060004550524F4D0050726F6265204F66667337
:1030700065747300416363656C65726174696F6E3A
:103080000056656C6F636974790053657420486FEE
:103090006D65204F66667365747300507265737357
:1030A00020627574746F6E20746F20726573756D15
:1030B000650A00507265737320627574746F6E20B8
:1030C000746F2068656174206E6F7A7A6C650A008F
:1030D0004F46460A00466164652048656967687422
:1030E0002000426564204C6576656C696E6720003F
:1030F0004661696C656420746F20656E61626C6501
:1031000020426564204C6576656C696E670A0049EB
:103110006E76616C6964206D6573682E0A0050726A
:103120006F62696E6720506F696E740025532025A9
:10313000692F25690050726F62696E67206D657333
:103140006820706F696E7420004F66667365742026
:10315000636174636865642021006661696C2C207A
:103160006D616E75616C206C6576656C0046616999
:103170006C21204D6F766520646F776E2050726FE2
:1031800062652E00546F206361746368206F666609
:1031900073657400202844525952554E2900473215
:1031A00039204175746F20426564204C6576656CEA
:1031B000696E67003F20284C2C522C462C42292057
:1031C0006F7574206F6620626F756E64732E0A00CF
:1031D0003F2856296572626F7365206C6576656C51
:1031E00020696D706C61757369626C652028302D83
:1031F00034292E0A00426164205A2076616C75657C
:103200000A004E6F2062696C696E65617220677298
:1032100069640A00204D393220580020204D617821
:103220003A200020204D696E3A2000536F667420CA
:10323000656E6473746F70733A2000205A3A2000F0
:1032400020593A200042656420583A2000507269A3
:103250006E74205061757365640050726F62696EA0
:1032600067204661696C65640A0050726F62696E1E
:1032700067204661696C656400486F6D6520257341
:103280002573257320466972737400496E736572E5
:10329000742066696C616D656E7420616E64207067
:1032A0007265737320627574746F6E0A0020573AEA
:1032B000005A38545F4D332052656164792E0050B6
:1032C00072696E74696E672E2E2E00220A00556E8A
:1032D0006B6E6F776E20636F6D6D616E643A202246
:1032E000005072696E742066726F6D204D6564695E
:1032F00061004D6F76652025736D6D004D6F7665AD
:1033000020302E316D6D004D6F766520316D6D0072
:103310004D6F76652031306D6D004D6F76652041C3
:10332000786973004578747275646572004D6F76C4
:1033300065205A004D6F76652059004D6F766520E7
:10334000580000000A0B02090C0D0E0807030401C7
:10335000000000000000000000000000000000006D
:10336000000000000000000000000000000012113A
:10337000100000000000000000000000000000003D
:1033800000000000000000000000220025002800CE
:103390002B002E003100340002010000050108015D
:1033A0000B0100002100240027002A002D0030001E
:1033B000330001010000040107010A0105050505AC
:1033C000070508080808020202020A0A080804049D
:1033D00004040101010101010101030303030303CB
:1033E0000303040707070C0C0C0C0C0C0C0C02025A
:1033F000020206060606060606060B0B0B0B0B0B57
:103400000B0B0102102020080810204010204080E3
:103410000201020108040201010204081020408098
:103420008040201008040201800402018040201026
:10343000080402010804020101020408102040806F
:10344000010204081020408020453A0020593A002B
:10345000205200454550524F4D20496E69746961B4
:103460006C697A65640A0048617264636F646564BC
:103470002044656661756C742053657474696E6769
:1034800073204C6F616465640A003B200020204D6E
:10349000363033200020204D34313220530046692D
:1034A0006C616D656E742072756E6F7574207365D6
:1034B0006E736F723A0020550046696C616D656EDF
:1034C00074206C6F61642F756E6C6F6164206C6525
:1034D0006E677468733A0020204D383531205800EB
:1034E0005A2D50726F6265204F66667365740020B6
:1034F000204D3230392053004175746F2D52657460
:10350000726163743A20533D3020746F2064697394
:1035100061626C652C203120746F20696E74657255
:103520007072657420452D6F6E6C79206D6F7665B5
:103530007320617320726574726163742F726563A6
:103540006F7665720020204D32303820530052656E
:10355000636F7665723A20533C6C656E6774683EA3
:1035600020463C756E6974732F6D3E002057002015
:10357000204D323037205300526574726163743AC3
:1035800020533C6C656E6774683E20463C756E69DE
:1035900074732F6D3E205A3C6C6966743E00202087
:1035A0004D343133205300506F7765722D4C6F735B
:1035B00073205265636F766572793A0020204D332F
:1035C00030312050005049442073657474696E672F
:1035D000733A0020460020480020204D3134352029
:1035E00053004D6174657269616C20686561747522
:1035F0007020706172616D65746572733A0020208D
:103600004D36363600456E6473746F702061646A9F
:103610007573746D656E743A00204A00202047323D
:1036200039205720490020204D34323020530041AA
:1036300075746F20426564204C6576656C696E67B1
:103640003A0020204D323036205800486F6D6520FA
:103650006F66667365743A0020204D323035204223
:1036600000416476616E6365643A20423C6D696E28
:103670005F7365676D656E745F74696D655F7573A3
:103680003E20533C6D696E5F66656564726174656A
:103690003E20543C6D696E5F74726176656C5F6646
:1036A000656564726174653E20583C6D61785F7831
:1036B0005F6A65726B3E20593C6D61785F795F6A25
:1036C00065726B3E205A3C6D61785F7A5F6A657205
:1036D0006B3E20453C6D61785F655F6A65726B3E4D
:1036E0000020540020204D323034205000416363CC
:1036F000656C65726174696F6E2028756E6974738C
:103700002F7332293A20503C7072696E745F616386
:1037100063656C3E20523C726574726163745F61D4
:103720006363656C3E20543C74726176656C5F61C6
:103730006363656C3E0020204D3230312058004DCF
:103740006178696D756D20416363656C6572617444
:10375000696F6E2028756E6974732F7332293A0071
:1037600020204D3230332058004D6178696D756DE1
:10377000206665656472617465732028756E69746E
:10378000732F73293A00537465707320706572202B
:10379000756E69743A0020440020204D323030208C
:1037A00053002044697361626C65640A0046696C69
:1037B000616D656E742073657474696E67733A0029
:1037C00020204D3134392043203B20556E697473DD
:1037D00020696E2043656C736975730A0020286D3B
:1037E0006D29002020473231202020203B20556EBB
:1037F00069747320696E206D6D000000FA4300004B
:10380000FA430000A0400000C8420000A0420000AF
:10381000A0420000C8430000C843B80B0000B80B2A
:103820000000640000001027000055023D02112432
:103830001FBECFEFD1E2DEBFCDBF00E00CBF13E073
:10384000A0E0B2E0EEE1FFE902E00BBF02C00790AA
:103850000D92AE34B107D9F726E1AEE4B3E001C072
:103860001D92AC3FB207E1F71CE1C6E1DCE100E0EC
:1038700006C021970109802FFE010F94E54CC53148
:10388000D10780E00807A9F70F9476370D947D4F94
:103890000C9400002F923F924F925F926F927F9212
:1038A0008F929F92AF92BF92CF92DF92EF92FF9250
:1038B0000F931F93CF93DF93CDB7DEB7A7970FB6C4
:1038C000F894DEBF0FBECDBF8FA32091300F2EA383
:1038D00021E02093300F809143078D3409F4D0C349
:1038E000843511F40C94E02D873411F00C940B2ED8
:1038F00080914107909142078B31910509F463C192
:10390000F4F488309105D1F14CF497FDB5C38230C1
:103910009105A4F1049709F412C1AEC38B3091054F
:1039200009F44CC18531910511F40C940D2E0A97C0
:1039300009F0A2C381E00E94E3E90C940D2E8A32C3
:10394000910509F4B9C254F48D31910509F465C1AA
:103950000CF453C14E9709F47EC18EC38B3591058B
:1039600009F4F4C18C35910509F4F5C18A35910546
:1039700009F082C31092600F0C940D2E8091760690
:10398000813011F00C940D2E19821A821B821C8238
:10399000CE0101965C012AE0E22E27E0F22E04E738
:1039A00012E033E9C32E32E1D32E912C88E5890D44
:1039B0000F94DF0BF50181935F01882311F10F94C0
:1039C00084092B013C01892D0E9486FA882351F03D
:1039D000F8012081318142815381C301B2010F94EA
:1039E000EE4C09C0F6012081318142815381C3012F
:1039F000B2010F94ED4CF70160837183828393834E
:103A00000AC0F80180819181A281B381F70180838E
:103A10009183A283B3839394F4E0EF0EF11C0C5FC7
:103A20001F4F24E0C20ED11C33E09312BFCF85E4B8
:103A30000F94DF0B8C83882301F10F9484096B01B1
:103A40007C0183E00E9486FA882371F02091800235
:103A5000309181024091820250918302C701B601E8
:103A60000F94EE4C6B017C01C0921607D0921707A1
:103A7000E0921807F092190710C08091800290918F
:103A80008102A0918202B0918302809316079093E5
:103A90001707A0931807B093190780916116882320
:103AA00081F08091671382FF0CC08C81882349F0DC
:103AB0008981811103C08A81882319F080E00F94E5
:103AC000301B40E050E0BA0186E40E9454BA20E086
:103AD00030E0A9010F94714E181684F40F948409F4
:103AE00020E030E040E752E40F94714D60936702AC
:103AF000709368028093690290936A0280914016E5
:103B0000882311F40C94482E85E40F94BB09882374
:103B100011F40C94482E88E50F94BB0981110C9484
:103B2000482E89E50F94BB0981110C94482E8AE533
:103B30000F94BB0981110C94482E0C94162E80E52D
:103B40000F94DF0B882329F00F9434136B017C0151
:103B500003C0C12CD12C760183E50F94DF0B8823A1
:103B600061F00F94840920E030E04AE754E40F94B8
:103B700050460F94EA4D6B017C010E9409AE809182
:103B80002004811105C060E089ED96E00E94518A11
:103B90000F945D25C60ED71EE81EF91E0F945D25F5
:103BA000DC01CB018C199D09AE09BF09B7FD02C02C
:103BB0000C940D2E80E00E943733F0CF80E00E94FD
:103BC000E3E90C940D2E0F942C1F81110C940D2EF3
:103BD0008CE0ECE9F2E0DE01119601900D928A95FD
:103BE000E1F760E070E080E50F941E01BE016F5FB9
:103BF0007F4F0E94AC850C940D2E80912E0F877004
:103C0000873011F00C94732E60E08FE40F94EC0B6E
:103C100081110C940D2E0C94732E0F945D256093DE
:103C2000B2167093B3168093B4169093B5160F9492
:103C30002C1F81110C940D2E8091650F882311F497
:103C40000C94E32E60E08FE40F94EC0B81110C9444
:103C50000D2E0C94E32E2091220F3091230F4091D2
:103C6000240F5091250F609174027091750280911C
:103C70007602909177020F94EE4CAB01BC0188E57F
:103C80000E9454BA69837A838B839C832091260F88
:103C90003091270F4091280F5091290F60917802A1
:103CA0007091790280917A0290917B020F94EE4C90
:103CB000AB01BC0189E50E9454BA6D837E838F837A
:103CC0009887BE016B5F7F4FCE0101960F94AF13B3
:103CD000882311F40C940D2E80E00E940DED0E94BB
:103CE000E7B761E085E40F94EC0B01E021E0482F99
:103CF000BE016B5F7F4FCE0101960F94E41F6B01F5
:103D00007C019B01AC010F94EF4E811119C04981D8
:103D10005A816B817C8185E492E30E9452F14D814E
:103D20005E816F81788580E492E30E9452F1B70151
:103D3000A6018BE392E30E9452F18AE00E940B32CB
:103D40000E94CEB70E949C800C940D2E8FE0809331
:103D5000600F0C940D2E80914007882349F1893023
:103D600009F0A6C08FEDA82E82E0B82E94E7E92EC8
:103D700092E0F92ED12C00E010E0F50181915F0175
:103D80000F94DF0B882369F00F948409F701608397
:103D9000718382839383133011F401E002C0DD2428
:103DA000D3941F5FF4E0EF0EF11C143031F775C0AF
:103DB000BFED2B2EB2E03B2E16E7E12E1FE0F12ED9
:103DC00024E732E03DA32CA303E9C02E02E1D02E6C
:103DD00000E010E0F10181911F010F94DF0B8823B7
:103DE00009F44AC00F9484092B013C01133049F0B7
:103DF000F60120813181428153810F94ED4C2B01DA
:103E00003C01ECA1FDA12081318142815381C3019C
:103E1000B2010F94ED4C4B015C012DEB37E346E80A
:103E200055EB0F94714E87FD0AC02DEB37E346E842
:103E300055E3C501B4010F94EA451816ECF41330AC
:103E400051F44092800250928102609282027092FC
:103E5000830201E011C0A5019401F7016081718125
:103E6000828193810F94EE4CF7016083718382838A
:103E70009383812F0E94FAB21F5FF4E0EF0EF11CD2
:103E80002CA13DA12C5F3F4F3DA32CA334E0C30EDA
:103E9000D11C143009F09ECF05C0DD2019F00E941E
:103EA0009A8006C0002321F080E892E00E94ACB026
:103EB0000E949C800C940D2E80917606813011F02A
:103EC0000C940D2E89E40F94DF0BE82E882321F04B
:103ED0000F948009082F01C000E08AE40F94DF0BE3
:103EE000F82E882321F00F948009182F01C010E0CC
:103EF000EE2011F0043020F4FF2041F0143030F0B7
:103F000082EE96E00E9491F00C940D2E80E1E4E7A1
:103F1000F2E0AAE0B7E001900D928A95E1F7EE2079
:103F200019F1602F000F770B880B990B0F94F14557
:103F3000209130163091311640913216509133163F
:103F40000F945046209104043091050440910604DA
:103F5000509107040F94EE4C60930A0770930B077F
:103F600080930C0790930D07FF2019F1612F110F1B
:103F7000770B880B990B0F94F145209134163091F3
:103F8000351640913616509137160F9450462091B1
:103F900008043091090440910A0450910B040F94D5
:103FA000EE4C60930E0770930F0780931007909369
:103FB000110760E080E50F94EC0B8823C1F1EE203F
:103FC000D1F02091220F3091230F4091240F509176
:103FD000250F60910A0770910B0780910C07909153
:103FE0000D070F94ED4C60930A0770930B078093B5
:103FF0000C0790930D07FF20D1F02091260F3091F0
:10400000270F4091280F5091290F60910E07709152
:104010000F0780911007909111070F94ED4C60935A
:104020000E0770930F07809310079093110740E0DD
:1040300050E0BA0186E40E9454BA6B017C0120E092
:1040400030E0A9010F94714E18164CF420E030E0D6
:1040500040E752E4C701B6010F94714D03C060E020
:1040600070E0CB0169837A838B839C83CE010196B8
:104070000E9406B80C940D2E0F944D1C0C940D2E1E
:1040800080914107909142078B39910509F4F0C561
:104090000CF015C18335910509F429C60CF082C0D6
:1040A0008A31910509F446C3BCF58431910509F4C0
:1040B00099C27CF48131910509F480C22CF40297F5
:1040C00008F444C20C94DD2D429709F417C60C94F1
:1040D000DD2D8731910509F4BAC294F4853191053B
:1040E00009F4B1C2469711F00C94DD2D0E9496F4AC
:1040F00080916713877F8062809367130C940D2EE5
:104100008831910509F4B8C2499711F00C94DD2D5E
:104110000F9444000C940D2E8032910509F482C353
:10412000F4F48D31910509F466C384F48B31910563
:1041300009F40EC34C9711F00C94DD2D80913E07CD
:1041400090913F070E94FBF50C940D2E8E31910546
:1041500009F458C34F9709F48EC30C94DD2D8D34A8
:10416000910509F437C46CF48B34910509F42EC41D
:104170008C34910511F00C94DD2D0E944C820C942E
:104180000D2E8135910509F49CC58235910511F0FC
:104190000C94DD2D8091600F8F7D80618093600F86
:1041A0000C940D2E8037910509F410C5E4F58A367C
:1041B000910509F46AC4CCF48C35910509F4F7C56E
:1041C00054F48435910509F499C58535910509F4B0
:1041D000CBC50C94DD2D8836910509F4FFC38936D3
:1041E000910509F43EC40C94DD2D8D36910509F43A
:1041F00016C47CF48B36910509F485C48C36910580
:1042000011F00C94DD2D10922F0F109265020C947A
:104210000D2E8E36910509F481C48F36910509F46F
:1042200090C40C94DD2D8737910509F423C73CF524
:104230008337910509F459C68CF48137910509F447
:10424000CEC48237910511F00C94DD2D0F94942784
:1042500084EF92E10E9466A00C940D2E85379105A3
:1042600009F4C5C68637910511F00C94DD2D009137
:104270003E0710913F0794E0F12C40E0DFC68D37F8
:10428000910509F41BC58CF48837910509F4F5C62E
:104290008937910511F00C94DD2D1092A204109233
:1042A000A1040E94B4810C940D2E8C38910509F460
:1042B000BBC48139910509F4E8C60C94DD2D813920
:1042C000E1E09E0711F40C94D82B0CF087C08E3CD3
:1042D000910511F40C94C129D4F58E3B910509F494
:1042E000C4C4C4F4843A910509F45FC734F4833A32
:1042F000910509F43EC70C94DD2D863A910509F429
:1043000067C7873A910511F00C94DD2D0F943101A8
:104310000C940D2E8B3C910509F4E3C754F4883CB2
:10432000910509F458C7893C910509F499C70C9483
:10433000DD2D8C3C910511F40C9490298D3C910558
:1043400011F00C94DD2D0F9444130C940D2E8D3D23
:10435000910511F40C94A42AF4F4813D910511F413
:104360000C946D2A64F48F3C910511F40C94DF29B0
:10437000803D910511F40C94232A0C94DD2D833D8E
:10438000910511F40C947A2A8C3D910511F40C944A
:104390007D2A0C94DD2D8D3221E0920711F40C94CE
:1043A000552B6CF48232E1E09E0711F40C94F92A4B
:1043B0008C32914011F40C94402B0C94DD2D8F32F3
:1043C00021E0920711F40C94D52B8039914011F023
:1043D0000C94DD2D0E9409AE0C940D2E883FE1E077
:1043E0009E0711F40C94E02C0CF057C0853A21E0A4
:1043F000920711F40C940A2C2CF58C39E1E09E07FD
:1044000011F40C94E42B7CF4823921E0920711F42E
:104410000C94DE2B8A39914011F00C94DD2D0E9412
:104420002B310C940D2E8D39E1E09E0711F40C9484
:10443000A22D843A914011F00C94DD2D0F94090ABD
:104440000C940D2E853F21E0920711F40C94DA2C88
:104450007CF48C3AE1E09E0711F40C947D2C843FAF
:10446000914011F00C94DD2D0E94A8590C940D2E52
:10447000863F21E0920711F40C94DD2C873F914098
:1044800011F00C94DD2D61E083E50F94EC0B91E0CD
:1044900089270F94062D0C940D2E8E3BE2E09E078B
:1044A00011F40C948E2D2CF58B3522E0920711F42B
:1044B0000C94FD2C7CF48C30E2E09E0711F40C94FB
:1044C000F02C8835924011F00C94DD2D0E9432FFC3
:1044D0000C940D2E8A3922E0920711F40C94752D5C
:1044E0008D3B924011F00C94DD2D0E94E1FD0C9467
:1044F0000D2E873EE3E09E0711F40C94942DCCF42E
:10450000833523E0920711F40C94912D803A934067
:1045100011F00C94DD2D20913E0730913F079091D2
:104520006713926090936713C9010E94FBF50C9486
:104530000D2E883EE3E09E0711F40C94BC2D893EBD
:10454000934011F40C94BF2D0C94DD2D80E50F9455
:10455000DF0B882329F00F9434136B017C0103C017
:10456000C12CD12C760183E50F94DF0B882361F0F9
:104570000F94840920E030E04AE754E40F94504659
:104580000F94EA4D6B017C010E9409AE80913E07B9
:1045900090913F07009721F061E00E94E78A05C0F3
:1045A00060E08BEF96E00E94518A40E0C701B601BF
:1045B0000E94BB380F949E1C0C940D2E80914407D2
:1045C00084FF02C00C94E62E8091460787FF02C04C
:1045D0000C94E62E80914707837011F00C94E62E20
:1045E0000C94042F8091671383FF25C086E297E027
:1045F0000E9491F08091671383FF17C086E893E1D2
:104600000E94C6928BE1E6E8F3E1DE01119601908B
:104610000D928A95E1F760E070E0CE0101960E946C
:10462000FCF8CE0101960F94190C87E197E00E94E7
:1046300091F00C940D2E0E9487F187E397E00E9481
:1046400091F00C940D2E0E9497F80C940D2EE09191
:104650003E07F0913F078081882329F0803209F4DA
:1046600010823196F8CF60E080913E0790913F072D
:104670000E9443F60C940D2E83E50F94DF0B8823E4
:1046800021F00F944C090E9482C084E50F94DF0B47
:104690008823A9F00F944C096B017C010E94F781DB
:1046A000C0925604D0925704E0925804F0925904F4
:1046B000CD28CE28CF2819F081E08093590F809122
:1046C0006B0E8823F9F080E090E0A8E4B2E488A3C0
:1046D00099A3AAA3BBA31C8E1D8E1E8E1F8E1982AA
:1046E0001A821B821C8200E010E020E0AE01405ED6
:1046F0005F4FBE01645E7F4FCE0101960F94C00CE8
:104700000C940D2E0E945031882381F00E94A7F452
:104710000E94128285EF9FE00E944CF4109248079D
:104720001092490710924A0710924B070F949E1C53
:104730000C940D2E8091671383FD02C00C940D2EF6
:1047400083E50F94DF0B81110C94142F0C940D2E24
:1047500083E40F94BB09882319F18BE497E00E944E
:1047600091F08091CD14882391F0BE016F5F7F4F4F
:104770008AEC94E10E9492928E010F5F1F4FF80124
:1047800081918F01882339F00E940B32F8CF81E4A8
:1047900097E00E9491F08AE00E940B320C940D2E5B
:1047A0008091671382FF21C08AE597E00E9491F013
:1047B00060916313709164138091651390916613F7
:1047C0004AE00E9412328FE20E940B3260915F1326
:1047D0007091601380916113909162134AE00E947E
:1047E00012320E9410330C940D2E8CE697E00E943A
:1047F00091F00C940D2E809167138E7F8093671338
:104800000C940D2E8091671383FD02C00C940D2E25
:104810000F94361C80913E0790913F070E9421F82B
:104820000C940D2E8091671382FD0E9409AE809139
:10483000671383FD02C00C940D2E60E080E50F9499
:10484000EC0B182F682F80913E0790913F070E9434
:1048500043F683E50F94DF0B882321F00F944C0976
:104860000E9482C00E94A7F411110C940D2E0E9488
:1048700012820C940D2E0E94C3817B018C0120E8D2
:1048800031E541E050E00F94404CC9016DE671E024
:104890000F94BD4C4B015C01C801B70120E13EE023
:1048A00040E050E00F94404CCA01B90128E130E0EB
:1048B00040E050E00F94404C762E672EC62ED72E47
:1048C000ACE32A2E312C412C512CC801B701A20196
:1048D00091010F94404CF62EE72ECA01B901A201B6
:1048E00091010F94404CCB018E010F5F1F4F81143B
:1048F000910499F0EF92FF927F936F936F927F9262
:10490000BF92AF929F928F928DE797E09F938F9384
:104910001F930F930F94824513C0A114B104B1F0FB
:10492000EF92FF927F936F936F927F92BF92AF92BD
:1049300081E897E09F938F931F930F930F94824585
:104940000FB6F894DEBF0FBECDBF30C0CD2879F0D2
:10495000EF92FF927F936F936F927F9285E897E03B
:104960009F938F931F930F930F948245E9CF892BC9
:1049700069F0EF92FF927F936F9389E897E09F939E
:104980008F931F930F930F948245DACFEF92FF928C
:104990008DE897E09F938F931F930F930F94824519
:1049A0000F900F900F900F900F900F9060E0C80144
:1049B0000E94E78A0E9487F1B80181E997E00E948E
:1049C00070F18AE00E940B320C940D2E0E9412822C
:1049D0000C940D2E0E9461820C940D2E80918F0DEF
:1049E00083FF02C00C940D2E89E40F94DF0B882303
:1049F00011F40C94192F0F945C0990E01816190605
:104A000014F481E090E026E0289FF001299FF00D4A
:104A10001124EE59F94E808191810C94242F8091BC
:104A20008F0D83FF02C00C940D2E89E40F94DF0BD1
:104A3000882311F40C942B2F0F945C0990E0181626
:104A4000190614F481E090E026E0289FF001299FE8
:104A5000F00D1124EE59F94E8081918110E00C94F3
:104A60003C2F0E945DFA182F87FD0AC088EA92E267
:104A70000E9491F0812F0E94E0988AE00E940B3200
:104A80003EA13093300F0C94C83060E080E50F9465
:104A90006E1581110C940D2E81E40F94BB098823AF
:104AA00029F060912508062F10E002C00FEF10E0FA
:104AB00089E40F94DF0B882399F00F945C0990E050
:104AC0001816190614F481E090E026E0289FF00102
:104AD000299FF00D1124EE59F94E0481158108C06B
:104AE00083E50F94DF0B882319F00F944C098B0199
:104AF000B8010F3F110519F010F06FEF70E06093EF
:104B000025080C940D2E60E080E50F946E15811140
:104B10000C940D2E109225080C940D2E8EE40F94FB
:104B2000DF0B882311F40C940D2E0F944C09609325
:104B3000D0077093D1078093D2079093D3070C943A
:104B40000D2E83E50F94BB09882331F060E083E5E7
:104B50000F946E1580938F0D0E9487F187EA97E07E
:104B60000E9491F080918F0D882369F1FEE3EF2E72
:104B7000FBE0FF2E00E010E020E080918F0D90E040
:104B8000A0E0B0E0002E04C0B695A7959795879554
:104B90000A94D2F780FF0EC0DD24D394D20E2223D4
:104BA00019F08CE20E940B32F701859194910E94DA
:104BB00091F02D2D0F5F1F4F82E0E80EF11C0530A4
:104BC0001105D9F6E8CD83EA97E0E3CD41E060E056
:104BD00070E08EEA97E00E948BF10C940D2E83E535
:104BE0000F94DF0B882381F00F945C09282F30E0AD
:104BF0002D33310524F4809300020C940D2E8CE3A8
:104C0000809300020C940D2E0E9487F140910002C7
:104C100050E060E070E08CEB97E00E9434F18AE0B5
:104C20000E940B320C940D2E80918F0D83FF02C0D9
:104C30000C940D2E89E40F94DF0B882311F40C944F
:104C40007D2F0F945C0990E01816190614F481E08A
:104C500090E026E0289FF001299FF00D1124EE59E5
:104C6000F94E628173810C94872F0E948CBED5C748
:104C700083E50F94DF0B882309F4CFC70F945C09F9
:104C8000182F90E0CD970CF01CE3109353030F9472
:104C90005D256B017C01212F30E0A8EEB3E00F947D
:104CA000944CC60ED71EE81EF91EC0924F03D09238
:104CB0005003E0925103F0925203AFC70F944400A7
:104CC000ACC70E94A3990E9461820E941AAE0E9402
:104CD000743168EE73E080E090E00E946DF00E9415
:104CE000773160E083EC97E00E94518A96C780910B
:104CF000600F8F7E80628093600F8FC783E50F9473
:104D0000DF0B8823E9F00F945D256093B216709352
:104D1000B3168093B4169093B5160F94840920E0CF
:104D200030E04AE754E40F9450460F94EA4D609304
:104D300001027093020280930302909304026DC7F4
:104D40008091440784FF02C00C94982F80914607FD
:104D500087FF02C00C94982F80914707837011F051
:104D60000C94982F0C94CA2F83E50F94BB098823C9
:104D700009F453C70F945D256093B2167093B31670
:104D80008093B4169093B5160F94840920E030E018
:104D90004AE754E40F9450460F94EA4D609354034D
:104DA00070935503809356039093570336C70E9420
:104DB0005DFA87FD32C79091440794FD04C090913D
:104DC000460797FF0AC07FEDC72E72E0D72EE0E9B5
:104DD000EE2EEDE0FE2E10E009C090914707937093
:104DE00091F7682F81E00F94F91217C7F6018191AE
:104DF0006F010F94DF0B882309F46DC0133009F0A5
:104E000063C00F9484094B015C0120E030E040EA6C
:104E100051E40F94EA4587FF4EC0A50194016091CB
:104E2000B00D7091B10D8091B20D9091B30D0F94B2
:104E3000714D2B013C019B01AC01609109087091FF
:104E40000A0880910B0890910C080F9450466093CB
:104E5000090870930A0880930B0890930C08A3012B
:104E600092016091C00D7091C10D8091C20D909121
:104E7000C30D0F9450466093C00D7093C10D809385
:104E8000C20D9093C30D6091190870911A0880911A
:104E90001B0890911C080F94EF45A30192010F94F9
:104EA00050460F94EA4D6093190870931A08809346
:104EB0001B0890931C088092B00D9092B10DA092A7
:104EC000B20DB092B30D07C00F948409F701648B43
:104ED000758B868B978B1F5FF4E0EF0EF11C1430FF
:104EE00009F084CF0E94E5AD98C68AE199E00E945E
:104EF00091F060E08AE099E00E945DC460E085EF97
:104F000098E00E945DC461E08FE590E30E945DC47B
:104F100061E08AEE98E00E945DC461E08AED98E06D
:104F20000E945DC460E081ED98E00E945DC461E094
:104F300087EC98E00E945DC461E08DEB98E00E94F0
:104F40005DC461E086EB98E00E945DC461E08EEA9A
:104F500098E00E945DC461E080EA98E00E945DC430
:104F600060E082E998E00E945DC460E083E898E038
:104F70000E945DC460E085E798E00E945DC460E047
:104F80008FE598E00E945DC460E08EE498E00E94A6
:104F90005DC460E08FE398E00E945DC461E088E357
:104FA00098E00E945DC460E083E298E00E945DC4E6
:104FB00060E085E198E00E945DC460E082E098E0F6
:104FC0000E945DC460E085EF97E00E945DC460E0F0
:104FD00080EF97E00E945DC461E083EE97E00E945D
:104FE0005DC460E08FEC97E00E945DC416C68091BE
:104FF0003E0790913F07009709F498CBFC01208170
:10500000222309F493CB60E00E94E78A06C6F801E8
:105010008081282F2B7F2134A1F08035F1F4F80115
:10502000818180538A30C8F498012E5F3F4F8901F7
:105030002F5F3F4FF80180818032C9F3915039F7DB
:105040000CC02181213349F4813421F0853461F78A
:1050500041E0EACFFF24F394E7CF41110E9487F1AA
:10506000FF2021F081EF99E00E9491F0C8010E9499
:105070001633D3C50E947981D0C581E08093A20404
:105080008093A1040E94B481C8C560E070E083E50C
:105090000F945F15823038F00E9483F185EF99E01C
:1050A0000E9491F0BAC58C01112788E40F94DF0BA0
:1050B0008823E1F00F9480098A3A910544F00F9417
:1050C00080098530914034F40F94800905C08AEA44
:1050D00090E002C084E091E026E0209FF001219F53
:1050E000F00D1124EE59F94E9183808382E40F94E0
:1050F000DF0B8823D9F00F948009059744F00F94B3
:1051000080098937910534F40F94800905C085E042
:1051100090E002C088E790E026E0209FF001219F08
:10512000F00D1124EE59F94E9383828386E40F9497
:10513000DF0B882309F471C50F94800997FD09C01E
:105140000F9480098F3F910509F034F40F94800982
:1051500005C080E090E002C08FEF90E026E0209F45
:10516000F001219FF00D1124EE59F94E95838483AF
:1051700054C560E070E083E50F945F158C018330C7
:1051800091056CF460E070E080E50F945F151127E5
:10519000F801E253FC4F80830F946A113EC541979A
:1051A0000CF43BC50F94021238C56FEF7FEF83E517
:1051B0000F945F1597FD07C0803191050CF02DC548
:1051C0000E9486E92AC580916C080E9486E925C55F
:1051D0000F94EA0122C50E945DFA182F87FD1DC5B4
:1051E0000091750F84E40F94DF0B882309F4D5C672
:1051F0000F9484096B017C0120E030E0A9010F9439
:10520000EA45882339F124E01202F0011124EF5815
:10521000F04FC082D182E282F38220E030E0A90127
:105220006091710F7091720F8091730F9091740F54
:105230000F94EA4581110CC080E090E0A0EEBFE33E
:105240008093710F9093720FA093730FB093740FAC
:1052500001E0A3C680E08093750F0E9437ACDDC4E7
:105260000E945DFA87FDD9C45FEDC52E52E0D52EB0
:1052700060E9E62E6DE0F62E10E0F60181916F01F7
:105280000F94BB09882331F10F9484096C8F7D8FB3
:105290008E8F9F8F80E1E8EAF2E0DE0111960190A7
:1052A0000D928A95E1F79E012F5F3F4F44E750E34F
:1052B000612FCE014C960E94D5AC6C8D7D8D8E8D6C
:1052C0009F8D0F94EA4DF7016083718382839383EE
:1052D0000E949EAD1F5FF4E0EF0EF11C143069F6E2
:1052E0009CC40E945DFA87FD98C44FEDE42E42E015
:1052F000F42E00E91DE0F70181917F010F94BB09B5
:10530000882339F00F948409F80164A375A386A358
:1053100097A30C5F1F4FFDE0003A1F0761F77DC4A4
:105320008091450787FD3EC6809146078E7009F043
:1053300039C64091C40D5091C50D6091C60D709154
:10534000C70D87E19AE00E9452F14091C80D50913B
:10535000C90D6091CA0D7091CB0D80E594E30E9458
:1053600052F14091CC0D5091CD0D6091CE0D7091C8
:10537000CF0D81EE96E30E9452F18AE00E940B323B
:105380004CC432E8E32E3FE0F32E10E088E5810FB5
:105390000F94BB09882351F00F948409F7016083AF
:1053A000718382839383812F0E94FAB21F5FF4E09E
:1053B000EF0EF11C133051F70E949C802EC483E540
:1053C0000F94BB09882351F00F9484096093411610
:1053D00070934216809343169093441686E40F947C
:1053E000BB09882381F00F94840920E030E040E776
:1053F00052E40F94714D6093451670934616809356
:105400004716909348168AE50F94BB09882351F0FC
:105410000F9484096093491670934A1680934B1633
:1054200090934C1687E50F94BB09882309F4F5C3C4
:105430000F948409609355167093561680935716EF
:1054400090935816EAC383E50F94BB09882351F063
:105450000F94840960934D1670934E1680934F16E7
:105460009093501686E40F94BB09882381F00F9423
:10547000840920E030E040E752E40F94714D6093DE
:10548000511670935216809353169093541682E5DA
:105490000F94BB09882381F00F94840920E030E049
:1054A00040E752E40F94714D60935D1670935E1661
:1054B00080935F169093601687E50F94BB0988234D
:1054C00009F4ABC30F9484096093591670935A166C
:1054D00080935B1690935C16A0C383E50F94BB0981
:1054E000882309F49AC30F947009809340160E9490
:1054F000F0F993C30F94111290C383E50F94DF0B5F
:10550000882331F00F948009909331028093300208
:105510008091440790914507A0914607B0914707B5
:10552000892B8A2B8B2B09F078C360913002709104
:10553000310287E29AE00E9463F185E20E940B3219
:105540008AE00E940B3269C30E945DFAF82E87FD43
:1055500064C383E50F94DF0B0F2D0F2C000C110B90
:10556000882361F10F948009F801EE0FFF1FEE5CB4
:10557000FD4F91838083000F111F000F111F9801B1
:10558000285B3D4F7901BC01990F880B990B0F9453
:10559000F1452AE037ED43E25CE30F945046F80111
:1055A000E65EF84F20813181428153810F9450464D
:1055B000F70160837183828393832FC30E9487F1F5
:1055C00085E40E940B3280E38F0D0E940B32000FA6
:1055D000111FF801EE5CFD4F608171818BE29AE052
:1055E0000E9463F185E20E940B328AE00E940B3236
:1055F00014C38AE50F94DF0B811105C083E50F9476
:10560000DF0B882331F10F94840920E030E040E083
:1056100050EC0F94EA4587FD10C50F94840920E0F3
:1056200030E040E050E40F94714E18160CF400C5C1
:105630000F9484092091AC0D3091AD0D4091AE0DC9
:105640005091AF0D0F9450460F94E34DCB010F9442
:1056500002348091460787FDF5C480914707837027
:1056600009F0F0C40E9487F16091B6167091B716E8
:1056700083E493E10E9463F18AE00E940B32CDC281
:1056800064E071E083E50F941E018C0168EE73E025
:1056900080E50F941E018938F3E19F0710F088E838
:1056A00093E1B8010E94248AB8C260E085E40F94B7
:1056B0006E15811173C080E50F94BB09882351F0EA
:1056C0000F9484096093D1167093D2168093D316E9
:1056D0009093D41689E40F94BB09882381F00F942A
:1056E00084092CEA35EC47E25EE30F945046609360
:1056F000D5167093D6168093D7169093D81684E457
:105700000F94BB09882381F00F9484092CEA35ECAF
:1057100047E25EE30F94714D6093D9167093DA16E9
:105720008093DB169093DC160E9487F14091D1168E
:105730005091D2166091D3167091D4168BE39AE0F3
:105740000E9452F12CEA35EC47E25EE36091D516F7
:105750007091D6168091D7169091D8160F94714DEE
:10576000AB01BC0187E39AE00E9452F12CEA35ECD0
:1057700047E25EE36091D9167091DA168091DB16EC
:105780009091DC160F945046AB01BC0183E39AE084
:105790000E9452F18AE00E940B323FC20E9483F1C4
:1057A0008FE39AE00E9491F038C20E946BBA35C232
:1057B00081E00E9466650E949C802FC280E00E946A
:1057C00066650E949C8029C28091440783FD40C485
:1057D00080914607867009F03BC40E9487F181E7FB
:1057E0009AE00E9491F080914E020E942BF18AE093
:1057F0000E940B3240918A0250918B0260918C0280
:1058000070918D0281E59AE00E9452F18AE00E9437
:105810000B3203C26FEF7FEF89E40F945F15082FFF
:105820006FEF7FEF8AE40F945F15182F8AE50F94CE
:10583000DF0B811108C081E50F94DF0BD82E882380
:1058400009F42BC401C0D12CC02E81E0800F85301B
:1058500008F04CC0912E81E0810F853008F046C0E1
:105860000F9484092B013C01F02E07FDF12C07FF5A
:1058700002C0F3E0CF2E812E17FD812C17FF02C04E
:10588000E3E09E2ECF1408F4C8C1E82C24E0F29E79
:10589000500111249E1440F10E2D10E0DD2071F016
:1058A000F501E00FF11FEE0FFF1FEE0FFF1FEE5887
:1058B000F94E208131814281538103C020E030E0E4
:1058C000A9010A0D1B1D000F111F000F111F0E58FB
:1058D000194EC301B2010F94EE4CF801608371833D
:1058E00082839383E394D6CFF394CCCF0E9483F149
:1058F00082EE96E00E9491F090C10F942C1F8111CE
:105900008CC10CE315E124E732E03DA32CA3CE01CA
:1059100001961C014CE4C42E42E2D42E7C01F80115
:105920006591759185919491ECA1FDA181909190E3
:10593000A190B190FDA3ECA3A50194010F94ED4CAF
:105940002B013C01F701608371838283938320E004
:1059500030E040EA51EC0F94714E87FD0AC020E020
:1059600030E040EA51E4C301B2010F94EA45181651
:105970002CF4F601849118160CF496C3F70181906B
:105980009190A190B1907F0120E030E040EA51EC8D
:10599000C501B4010F94714E87FDC5C320E030E00E
:1059A00040EA51E4C501B4010F94EA4518160CF021
:1059B00085C3B9C30F94F02C30C10F94602B2DC157
:1059C00020932B160E94EC5E10922B16882309F46C
:1059D00024C10E9487F18EED9AE00E9491F01DC1D2
:1059E0008091671382FF04C080648093671315C1A0
:1059F00083FF13C10F94361C10C10E945DFA082F5B
:105A000087FD0BC185E50F94BB098823A9F1E02E22
:105A1000002E000CFF080F9484094B015C0120E06C
:105A200030E0A9010F94714E87FF04C0B7FAB0941B
:105A3000B7F8B094C70123E0880F991F2A95E1F7C2
:105A40009C01285C394E7901F90180829182A28201
:105A5000B38220E030E048E453E4C501B4010F9480
:105A6000714E18164CF480E090E0A8E4B3E4F7011E
:105A700080839183A283B3838CE40F94BB09882332
:105A800009F4CBC0002E000C110B0F9484096B019C
:105A90007C0120E030E0A9010F94714E87FF04C023
:105AA000F7FAF094F7F8F09420E030E048E453E49B
:105AB000C701B6010F94714E980193E0220F331F76
:105AC0009A95E1F7F901E85CF94E18162CF0C482BA
:105AD000D582E682F782A1C080E090E0A8E4B3E43A
