:100000000C9477250C94A8250C94A8250C94A8256D
:100010000C94A8250C94A8250C94A8250C94A8252C
:100020000C94A8250C94A8250C94A8250C94A8251C
:100030000C94A8250C94A17D0C94A8250C94A825BB
:100040000C94A8250D94FA390C94A8250C94A82595
:100050000C94A8250C94A8250C9405B10C94577DFC
:100060000C94A8250C9437420C942D420C94A8258E
:100070000C94A8250C94A8250C94A8250C94A825CC
:100080000C94A8250C94A8250C94A8250C94A825BC
:100090000C94A8250C94A8250C94A8250C94A825AC
:1000A0000C94A8250C94A8250C94A8250C94A8259C
:1000B0000C94A8250C94A8250C94A8250C94A8258C
:1000C0000C94A8250C94A8250C94A8250C94A8257C
:1000D0000C94A8250C94A8250C94A8250C94A8256C
:1000E0000C94A825D53FDA3FDF3FE93FF33F6C4052
:1000F000FD3F05400D40174021402B403A40444011
:100100006C404E40584062406F458D43C643AB45FE
:10011000C643C643C643C643C643C643C643C64397
:10012000C643C643C643C643C643C643C643C64387
:10013000C643C643C643C643C643C643C643C64377
:10014000C643C643A545C643C643C643C643C64386
:10015000C643C643C6437E45C643C643C643C6439D
:10016000C643C643C643C643C643C643C245C3434C
:100170009BE0A8E0BDE0CAE0E7E0FCE009E11AE1AD
:100180002BE144E15DE176E18FE1ACE1C9E11F02E1
:100190005702750139020B0271029D0123017D0294
:1001A000150155018302FB01530207027F0277010B
:1001B0005B010B01EB00230241023D02F700EB0162
:1001C00009015B01BB02110147010C94CAE00C94C8
:1001D0006CDA0D94B4450D942D370C941A430C949D
:1001E000498E0C9439460C9432DB0C940A520D94CF
:1001F00041370C94E89F0C9497540D943B150D9443
:10020000611A0C9421400C94C4490C94DE960C9411
:1002100004520D9449370D9429370C945DE10C94E8
:1002200033560D9453370C94269B0D9432200C9426
:1002300039960C9492540C9498F50C9408600C9494
:10024000E49F0C9417400D9420200C945ADA0C94DF
:1002500066DA0C9403920C944EDA0C94A5450D9436
:1002600034060C942B400D948E080C94438E0C9401
:1002700037520C944E5A0C948A490C94F33F0C94C8
:100280001D430C94B6490C94A1D90C941F4C0D94A9
:1002900057370C9469570C940B960C9403590C9493
:1002A00041DB0C94039F0C9415DC0D941A200C94E4
:1002B00009E10C9453E30D945C370C94EE550C94C7
:1002C00042DA0D9496450C94DF3F0C949BE00C941D
:1002D000C6A20C94E7510C9404A00C94F09F0C94CB
:1002E0009D490D94942D0C9488D90D940B200D9458
:1002F0001C370C9415D90C94F6540C942D520C9474
:10030000B2990C94AD540C949CDA0C94375A0C941A
:100310003CDA0C9422520C944B8E0C943A400C9480
:1003200044400C948FE10D9478070C94DF540C94A6
:1003300036DA0C949C540C94DC9F0D9414200C948D
:1003400072DA0C942ED90D94850A0C94FED90C9473
:10035000AB450C94C3430C94F89F0D943A280D942C
:100360005E0A0D947F0A0C944A4C0C9445B80C9488
:10037000DB510D94D9290D941E150D94810A0C940E
:100380006F450D9426150C9437960C947C5A0C945A
:100390005CDB0C94A8E00C94D19C0C94FD7C0C9438
:1003A0002B4C0C9448DA0C9432520C9460DA0C9476
:1003B00000A00C940D400D9491280C94D53F0C9402
:1003C0009B460C9476E10C94EFD90C946C400C9401
:1003D000A74A0D943D280D9445370C9405400D9483
:1003E000F9260D94830A0C947DDA0C94B4D90C94FC
:1003F00035970C940A960D9422370C94A99C0C9472
:10040000FD3F0C94C89C0C94277D0C9417900D9480
:1004100014370C942E970D940E200C9481420C945A
:100420008D9D0C941A4E0C945F9E0C942E960C94F9
:10043000AB510C945EE00C94FCD80C94DA3F0D9414
:1004400025200C944E400D9433370C9440920C941C
:1004500047D90C940DDA0C94478E0C9450DB0D9414
:10046000ED260C942BE10C9419430C94EC9F0C9406
:100470002EDA0D9408200C94444C0D943B370D94C7
:100480007D0A0D9437370C9416520D942D1A0C9446
:10049000CC540C94E09F0C9430560C947E420C94F7
:1004A000F49F0C9435980D9425370C94E6D90D944F
:1004B00005200C9419B80C94A1540C94C2450C94CA
:1004C000CF510C9412460C9475D90C9423DB0C94E8
:1004D000458E0C94E1510C94BDE00C94FC9F0C945F
:1004E0001C520D9411200D9422150C9462D90D9478
:1004F000DC290D94A92B0C94D5540D9417200D9440
:1005000018370C94C6430D941D200C9458400C943D
:100510004FE00C9444E10C94ACE10C9402DB0C949D
:10052000FCE00C9428520D9437150C94CDD90C9402
:100530003B960C94D99C0C94BD510D9437280C9487
:10054000E93F0C94A79C0C9410520C94E7E00C9497
:1005500062400C943C520C943E4C0C947E450C949E
:100560001AE10C94655A0C94C7DD0C948D430C94DD
:100570004B960C9454DA0D944F370C94C9E14E41CC
:100580004E494E495459494E46CDCCCC3D0AD7230D
:100590003C17B7D13877CC2B329595E6241FB14F55
:1005A0000A000020410000C84200401C4620BCBE9A
:1005B0004CCA1B0E5AAEC59D7400407A10F35A0007
:1005C000A0724E18090010A5D4E80000E87648177C
:1005D0000000E40B54020000CA9A3B000000E1F561
:1005E00005000080969800000040420F000000A027
:1005F0008601000000102700000000E80300000052
:10060000006400000000000A00000000000100007B
:100610000000002C76D888DC674F0823DFC1DFAEEE
:1006200059E1B1B796E5E3E453C63AE651997696B7
:10063000E8E6C28426EB898C9B62ED407C6FFCEF80
:10064000BC9C9F40F2BAA56FA5F490055A2AF75CAE
:10065000936B6CF9676DC11BFCE0E40D47FEF52060
:10066000E6B500D0ED902E03009435770500808428
:100670001E080000204E0A000000C80C333333333C
:100680000F986E12831141EF8D2114893BE65516A8
:10069000CFFEE6DB18D1844B381BF77C1D901DA4E0
:1006A000BBE424203284725E228100C9F124ECA1D3
:1006B000E53D27434F4D4D554E49434154494F4E1B
:1006C0000044525952554E004552524F5253004920
:1006D0004E464F004543484F00D0A1D0BED0BD2E5E
:1006E0002E2E004D65736820706F696E74206F75D3
:1006F00074206F662072616E67650A00D09FD1809A
:10070000D0BED0B4D0BED0BBD0B6D0B8D182D18C00
:100710002E2E2E00D09DD0B5D18220D0B4D0B2D014
:10072000B8D0B6D0B5D0BDD0B8D18F2E00456E644C
:100730002066696C65206C6973740A00426567699C
:100740006E2066696C65206C6973740A004E6F20B8
:100750006D656469610A00286E6F2066696C6529A1
:100760000043757272656E742066696C653A20008C
:100770005344207072696E74696E67206279746583
:1007800020004E6F74205344207072696E74696E3D
:10079000670A002569792025696420256968202574
:1007A000696D20256973005072696E742074696DDB
:1007B000653A2000D09ED185D0BBD0B0D0B6D0B4A1
:1007C000D0B5D0BDD0B8D0B52E2E2E00D09DD0B093
:1007D000D0B3D180D0B5D0B22E2E2E0045202553D7
:1007E000006F66660044454255473A004D3131324C
:1007F0002053687574646F776E004D313133205328
:10080000005A38545F4D33204F46462E004348412E
:100810004D4245525F54454D504552415455524505
:1008200000424142595354455050494E47004152AD
:100830004353004D4F54494F4E5F4D4F4445530075
:10084000544845524D414C5F50524F5445435449D2
:100850004F4E004C4F4E475F46494C454E414D452B
:10086000004155544F5245504F52545F53445F53CB
:100870005441545553005344434152440050524F45
:100880004D50545F535550504F525400454D4552B2
:1008900047454E43595F50415253455200434153DF
:1008A000455F4C494748545F4252494748544E457A
:1008B000535300544F47474C455F4C4947485453A6
:1008C00000534F4654574152455F504F57455200D1
:1008D0004255494C445F50455243454E54004C45A7
:1008E00056454C494E475F44415441005A5F50526F
:1008F0004F42450052554E4F5554004155544F4CB0
:100900004556454C005052494E545F4A4F420050A4
:10091000524F4752455353004155544F5245504F43
:1009200052545F54454D5000564F4C554D4554520E
:1009300049430042494E4152595F46494C455F5434
:1009400052414E534645520053455249414C5F581F
:100950004F4E5F584F4646004649524D574152450B
:100960005F4E414D453A4D61726C696E206D61720A
:100970006C696E2D322E302E3820284F6374203350
:100980003120323032302032303A35353A3238295F
:1009900020534F555243455F434F44455F55524C9A
:1009A0003A68747470733A2F2F6769746875622E91
:1009B000636F6D2F4D61726C696E4669726D776100
:1009C00072652F4D61726C696E2050524F544F43C7
:1009D0004F4C5F56455253494F4E3A312E30204DC1
:1009E000414348494E455F545950453A5A38545F3F
:1009F0004D332045585452554445525F434F554E50
:100A0000543A3120555549443A6365646532613240
:100A1000662D343161322D343734382D396231321C
:100A20002D6335356336326633363766660A002FF6
:100A30002F20004D31343520533C696E6465783E7B
:100A4000206F7574206F662072616E676520283094
:100A50002D31290A00416363656C65726174696FA9
:100A60006E00416363656C65726174696F6E3A20F4
:100A7000500046523A0020466C6F773A200042619F
:100A8000627973746570205A0020643A0020693AD4
:100A90000020703A00496E76616C69642065787454
:100AA00072756465720A0046696C616D656E7420CA
:100AB00072756E6F75742064697374616E636520FE
:100AC000286D6D293A200046696C616D656E742051
:100AD00072756E6F757420004D34323120696E630B
:100AE0006F727265637420706172616D6574657296
:100AF0002075736167650A00D0A1D0BCD0B5D189DB
:100B0000D0B5D0BDD0B8D18F20D0BFD180D0B8D093
:100B1000BCD0B5D0BDD0B5D0BDD18B004572723A36
:100B200020546F6F206661722100546F6F206661E0
:100B3000722066726F6D207265666572656E6365A0
:100B400020706F696E740A00454550524F4D204F1A
:100B50004B0A00205A323A004475616C20456E649D
:100B600073746F702041646A7573746D656E742060
:100B7000286D6D293A2000506F7765722D6C6F7368
:100B800073207265636F766572792000446F6E65BD
:100B9000207072696E74696E672066696C650A0000
:100BA0004D3737004D333100D406CF06C806C10695
:100BB000B3064572726F722077726974696E67202E
:100BC000746F20454550524F4D210A004D32393047
:100BD000004D343130004D313132004D313038006C
:100BE000D09ED0A1D0A2D090D09DD09ED092D09BAC
:100BF000D095D09DD09E2E20005072696E74657283
:100C00002073746F707065642064756520746F2044
:100C10006572726F72732E20466978207468652041
:100C20006572726F7220616E6420757365204D3934
:100C3000393920746F20726573746172742E2028A4
:100C400054656D7065726174757265206973207288
:100C5000657365742E205365742069742061667411
:100C600065722072657374617274696E67290A0017
:100C70004E6F20436865636B73756D207769746888
:100C8000206C696E65206E756D6265722C204C61FA
:100C90007374204C696E653A2000636865636B73FA
:100CA000756D206D69736D617463682C204C617380
:100CB00074204C696E653A20004C696E65204E7553
:100CC0006D626572206973206E6F74204C6173745D
:100CD000204C696E65204E756D6265722B312C203B
:100CE0004C617374204C696E653A20004D3131308F
:100CF0000053442072656164206572726F720A004D
:100D00002121204B494C4C2063617573656420623E
:100D100079204B494C4C20627574746F6E2F70694A
:100D20006E0A002121204B494C4C2063617573658C
:100D30006420627920746F6F206D75636820696E1E
:100D40006163746976652074696D65202D20637513
:100D50007272656E7420636F6D6D616E643A20000F
:100D6000627573793A2070617573656420666F727D
:100D700020696E7075740A00627573793A2070612B
:100D80007573656420666F7220757365720A006200
:100D90007573793A2070726F63657373696E670A51
:100DA000004D31303030530053442DD0BAD0B0D143
:100DB00080D182D0B020D0B2D181D182D0B0D0B297
:100DC000D0BBD0B5D0BDD0B0004D3630302054317E
:100DD00037004572723A207574663820666F6E74FB
:100DE000206E6F7420696E697469616C697A6564DC
:100DF0002E00000C0F00FE07022503BB01FFFE0AB8
:100E0000FE08FE05080806000040F0C888889878AB
:100E100010050808060000C0F88888888888F8054A
:100E200005050600012030F83020050808060000FE
:100E30002070F820202020E00509090600FF20701E
:100E4000A8A8B888887020070505070001D86C3667
:100E50006CD80509090600FFF8A88888888888A842
:100E6000F8050A0A0600FE205050505088A8A888AD
:100E70007003030306000340A040FFFFFFFFFFFFD6
:100E8000FFFFFFFFFFFFFFFFFFFFFFFFFFFFFFFF72
:100E90000000000605FF0107070602008080808031
:100EA000800080030303060105A0A0A00506060636
:100EB000000050F85050F8500509090600FF207056
:100EC000A8A07028A87020050707060000C8C81051
:100ED0002040989805070706000040A0A040A89071
:100EE000680103030602058080800309090601FFEB
:100EF0002040408080804040200309090601FF8097
:100F0000404020202040408005070706000020A820
:100F1000702070A8200505050600012020F820207B
:100F20000203030601FFC04080050101060003F82B
:100F3000020202060100C0C00507070600000810F3
:100F40001020404080050707060000708898A8C858
:100F5000887003070706010040C040404040E0059C
:100F60000707060000708808102040F805070706EC
:100F70000000F80810300888700507070600001008
:100F8000305090F81010050707060000F880F008B0
:100F9000088870050707060000304080F0888870D8
:100FA000050707060000F808101020202005070795
:100FB00006000070888870888870050707060000A2
:100FC00070888878081060020505060100C0C0001E
:100FD000C0C00206060601FFC0C000C04080030575
:100FE000050601012040804020050303060002F8A9
:100FF00000F8030505060101804020408005070731
:101000000600007088102020002005070706000059
:101010007088B8A8B8807005070706000070888837
:10102000F8888888050707060000F0484870484897
:10103000F00507070600007088808080887005072B
:1010400007060000F04848484848F0050707060032
:1010500000F88080F08080F8050707060000F8801F
:1010600080F08080800507070600007088808098E7
:101070008870050707060000888888F88888880334
:101080000707060100E04040404040E00507070632
:101090000000381010101090600507070600008847
:1010A00090A0C0A09088050707060000808080807F
:1010B0008080F805070706000088D8A888888888F7
:1010C0000507070600008888C8A8988888050707CC
:1010D0000600007088888888887005070706000069
:1010E000F08888F0808080050707060000708888F7
:1010F00088A89068050707060000F08888F0A0908F
:10110000880507070600007088807008887005074A
:1011100007060000F82020202020200507070600F1
:1011200000888888888888700507070600008888F6
:10113000888850502005070706000088888888A8FE
:10114000A8500507070600008888502050888805A9
:101150000707060000888850202020200507070682
:101160000000F80810204080F80309090601FFE09C
:1011700080808080808080E0050707060000804036
:1011800040201010080309090601FFE0202020205C
:10119000202020E0050303060005205088050101FA
:1011A0000600FEF80303030601058040200505053F
:1011B0000600007008788878050707060000808020
:1011C000F0888888F005050506000070808088702A
:1011D000050707060000080878888888780505054F
:1011E0000600007088F08070050707060000304890
:1011F00040E04040400507070600FE708888887878
:1012000008700507070600008080F088888888033A
:1012100007070601004000C0404040E004090906FD
:1012200001FE100030101010109060050707060036
:101230000080808890E09088030707060100C04086
:1012400040404040E0050505060000D0A8A8A8A839
:10125000050505060000B0C8888888050505060054
:101260000070888888700507070600FEF088888867
:10127000F080800507070600FE78888888780808CF
:10128000050505060000B0C880808005050506003C
:101290000078807008F00507070600002020F8207D
:1012A000202018050505060000888888986805052F
:1012B000050600008888885020050505060000887E
:1012C00088A8A8500505050600008850205088050C
:1012D00007070600FE88888850204080050505061F
:1012E0000000F8102040F80309090601FF204040E3
:1012F0004080404040200109090602FF8080808034
:1013000080808080800309090601FF8040404020E2
:101310004040408005030306000248A890FFFFFFFD
:10132000FFFFFFFFFFFFFFFFFFFFFFFFFFFFFFFFCD
:10133000FFFFFFFFFFFFFFFFFFFFFFFFFFFF0000BB
:10134000000605FF010707060200800080808080FC
:10135000800507070600FF2070A8A0A870200507D9
:1013600007060000304840E04048B005050506008B
:1013700000A8508850A80507070600008850F820EC
:10138000F82020010707060200808080008080800E
:1013900004080806010070806090906010E003016E
:1013A00001060107A00607070600007884B4A4B46C
:1013B000847803050506010460A06000E0050505CA
:1013C0000600002850A05028050303060001F80875
:1013D00008030101060103E0060707060000788400
:1013E000B4A4A48478050101060007F804040406E7
:1013F0000105609090600507070600002020F82096
:101400002000F803050506010440A02040E0030584
:1014100005060104C0204020C00303030601052087
:1014200040800507070600FE88888898E8808005C8
:10143000080806000078E8E8E86828282802020280
:10144000060203C0C00302020601FE20C003050518
:1014500006010440C04040E003050506010540A028
:101460004000E0050505060000A0502850A0050A30
:101470000A06000040C048506050B0507810050A7D
:101480000A06000040C048506050A8081038050AFD
:101490000A060000C0204830E050B0507810050720
:1014A0000706000020002020408870050A0A060078
:1014B00000402000708888F8888888050A0A06009D
:1014C00000102000708888F8888888050A0A0600BD
:1014D00000205000708888F8888888050A0A06006D
:1014E0000068B000708888F88888880509090600B7
:1014F000005000708888F8888888050A0A0600006D
:10150000205020708888F888888805070706000022
:1015100078A0A0F0A0A0B80509090600FE70888098
:10152000808088701060050A0A060000402000F8DC
:101530008080F08080F8050A0A060000102000F87C
:101540008080F08080F8050A0A060000205000F82C
:101550008080F08080F80509090600005000F880BE
:1015600080F08080F8030A0A060100804000E04015
:1015700040404040E0030A0A060100204000E040ED
:1015800040404040E0030A0A06010040A000E0405D
:1015900040404040E0030909060100A000E040404F
:1015A000404040E0050707060000704848E848480A
:1015B00070050A0A06000068B0008888C8A89888E4
:1015C00088050A0A060000402000708888888888FC
:1015D00070050A0A06000010200070888888888834
:1015E00070050A0A060000205000708888888888E4
:1015F00070050A0A06000068B0007088888888882C
:101600007005090906000050007088888888887075
:1016100005050506000188502050880509090600C7
:10162000FF087098A8A8A8C87080050A0A060000DC
:1016300040200088888888888870050A0A0600008B
:1016400010200088888888888870050A0A060000AB
:10165000205000888888888888700509090600005D
:10166000500088888888888870050A0A060000105B
:1016700020008888502020202004070706010080D1
:10168000E0909090E080050707060000708890A029
:101690009088B0050808060000402000700878888F
:1016A0007805080806000010200070087888780582
:1016B000080806000020500070087888780508089F
:1016C00006000068B00070087888780507070600F3
:1016D000005000700878887805080806000020503F
:1016E000207008788878050505060000702870A02D
:1016F000780507070600FE7088808870106005086E
:10170000080600004020007088F080700508080678
:1017100000001020007088F08070050808060000A6
:101720002050007088F08070050707060000500008
:101730007088F08070030808060100804000C040F7
:101740004040E0030808060100204000C04040403F
:10175000E003080806010040A000C0404040E0034C
:101760000707060100A000C0404040E00509090647
:101770000000502050087888888870050808060006
:101780000068B000B0C888888805080806000040D6
:101790002000708888887005080806000010200066
:1017A000708888887005080806000020500070883E
:1017B00088887005080806000068B000708888886E
:1017C00070050707060000500070888888700505BE
:1017D000050600012000F800200505050600007838
:1017E00098A8C8F0050808060000402000888888EE
:1017F0008870050808060000102000888888887016
:1018000005080806000020500088888888700507B1
:101810000706000050008888888870050A0A0600BC
:10182000FE102000888888502040800509090600A5
:10183000FE8080F0888888F080800509090600FE17
:10184000500088888850204080D097D0B0D0B3D145
:1018500080D183D0B7D0B8D182D18C20D0BDD0B0C8
:10186000D181D182D180D0BED0B9D0BAD0B800D089
:10187000A1D0BED185D180D0B0D0BDD0B8D182D1D9
:101880008C20D0BDD0B0D181D182D180D0BED0B992
:10189000D0BAD0B800D0A1D0BCD0B5D189D0B5D005
:1018A000BDD0B8D0B5205A00D094D180D183D0B368
:1018B000D0B8D0B520D0BDD0B0D181D182D180D028
:1018C000BED0B9D0BAD0B800D092D0ABD093D0A00F
:1018D000D0A3D097D09AD09020D0A4D098D09BD02D
:1018E00090D09CD095D09DD0A2D09000D097D09091
:1018F000D093D0A0D0A3D097D09AD09020D0A4D00D
:1019000098D09BD090D09CD095D09DD0A2D0900064
:10191000D097D090D09CD095D09DD09020D0A4D0FE
:1019200098D09BD090D09CD095D09DD0A2D0900044
:10193000D09DD0B020D0B1D0B0D0B7D0BED0B2D131
:101940008BD0B520D0BFD0B0D180D0B0D0BCD0B576
:10195000D182D180D18B00D09DD0B0D0B3D180D0F6
:10196000B5D0B2202420D0BFD180D0B0D0B2D0BA70
:10197000D0B000D094D0B0D182D187D0B8D0BA2026
:10198000D0BED0BAD0BED0BDD1872ED184D0B8D0F1
:10199000BBD0B0D0BC2E00D092D182D18FD0B3D0EA
:1019A000B8D0B2D0B0D0BDD0B8D0B5004D36303000
:1019B00020423020542569004D37303120542569AC
:1019C000004D3730322054256900D0A3D0B1D180EA
:1019D000D0B0D182D18C20D184D0B8D0BBD0B0D0FF
:1019E000BCD0B5D0BDD182202A00D092D18BD0B34B
:1019F000D180D183D0B7D0B8D182D18C20D0B2D110
:101A000081D191004D37303200D09FD0BED0B4D0BC
:101A1000B0D182D18C20D184D0B8D0BBD0B0D0BCD2
:101A2000D0B5D0BDD182202A00D0A1D0BCD0B5D0B5
:101A3000BDD0B020D184D0B8D0BBD0B0D0BCD0B550
:101A4000D0BDD182D0B0202A00D092D0BED0B7D0A5
:101A5000BED0B1D0BDD0BED0B2D0B8D182D18C2052
:101A6000D0BFD0B5D187D0B0D182D18C00D092D1A7
:101A70008BD0B4D0B0D0B2D0B8D182D18C20D0B578
:101A8000D189D19100D09ED09FD0A6D098D0982057
:101A9000D09FD0A0D09ED094D09ED09BD096D095F1
:101AA000D09DD098D0AF3A00D09FD095D0A7D090FD
:101AB000D0A2D0AC20D09DD09020D09FD090D0A3E9
:101AC000D097D095002020D0A1D0BED0BFD0BBD021
:101AD000B03A2000D0A1D0BCD0B5D181D0B8D1824D
:101AE000D0B5D0BBD18C003F00D09ED182D0BCD02D
:101AF000B5D0BDD0B000D094D0B2D0B8D0B6D0B5AB
:101B0000D0BDD0B8D0B50020D09AD0BED0BDD0B511
:101B1000D186205A002534642E2564206D6D00D0B6
:101B20009DD0B0D187D0B0D0BBD0BE205A00D0A6B7
:101B3000D0B8D0BAD0BBD0B8D187D0BDD0BED0B588
:101B400020D181D0BCD0B5D188D0B8D0B2D0B0D05F
:101B5000BDD0B8D0B500D0A1D0BCD0B5D188D0B060
:101B6000D182D18C20D0922DD0B8D0BDD181D1825C
:101B7000D180D183D0BC2E00D09AD0BED0BCD0BFF3
:101B8000D0BED0BDD0B5D0BDD182203D00D0922DE9
:101B9000D0B8D0BDD181D182D180D183D0BC2E200C
:101BA000D181D0B1D180D0BED188D0B5D0BDD18BBC
:101BB00000D0A1D0B1D180D0BED1810052616E647D
:101BC0006F6D204D6978003A64697361626C6500DD
:101BD0003A20656E61626C6500D093D180D0B0D040
:101BE000B4D0B8D0B5D0BDD18200D0A1D0B1D18011
:101BF000D0BED18120D0922DD0B8D0BDD181D1829C
:101C0000D180D183D0BC2E00D0A1D0BCD0B5D1889A
:101C1000D0B8D0B22E00D090D0BAD182D0B8D0B245
:101C20002ED0922DD0B8D0BDD181D182D180D18398
:101C3000D0BC2E00D09AD0B0D0BCD0B5D180D0B01E
:101C40002C094300D094D0BE20D0BAD0BED0BDD194
:101C500086D0B02C20D0BCD0BC00D092D18BD0B3D9
:101C6000D180D183D0B7D0BAD0B02C20D0BCD0BCDA
:101C700000D097D0B0D0B3D180D183D0B7D0BAD074
:101C8000B02C20D0BCD0BC00D094D0B8D0B0D0BC48
:101C90002E20D184D0B8D0BBD0B0D0BC2E004520EF
:101CA000D0B220D0BCD0BCC2B3004361703A003F78
:101CB0005A206F7574206F662072616E67652028E8
:101CC000003F59206F7574206F662072616E6765E2
:101CD00020282D003F58206F7574206F6620726198
:101CE0006E676520282D0050726F6265204F666612
:101CF000736574205800656E7175657565696E67EA
:101D00002022006F6B00526573656E643A2000D02C
:101D10009ED185D0BBD0B0D0B6D0B4D0B5D0BDD0D8
:101D2000B8D0B520D181D182D0BED0BBD0B02E2EBC
:101D30002E00D09DD0B0D0B3D180D0B5D0B220D1BC
:101D400081D182D0BED0BBD0B02E2E2E00236465B0
:101D500066696E652044454641554C545F004B64AE
:101D600020004B6920004B702000504944204175F1
:101D7000746F74756E652066696E69736865642139
:101D80002050757420746865206C617374204B70EA
:101D90002C204B6920616E64204B6420636F6E734E
:101DA00074616E74732066726F6D2062656C6F77FC
:101DB00020696E746F20436F6E6669677572617417
:101DC000696F6E2E680A00504944204175746F7423
:101DD000756E65206661696C6564212074696D6546
:101DE0006F75740A000A20436C6173736963205035
:101DF0004944200A00204B643A2000204B693A20D5
:101E000000204B703A20002054753A2000204B757A
:101E10003A2000206D61783A2000206D696E3A20EA
:101E20000020643A200020626961733A2000504922
:101E300044204175746F74756E652073746172749B
:101E40000A00504944204175746F74756E652066B0
:101E500061696C6564212054656D7065726174758B
:101E6000726520746F6F20686967680A00D090D02F
:101E7000B2D182D0BED0BFD0BED0B4D0B1D0BED14E
:101E8000802050494400504944204175746F747556
:101E90006E65206661696C6564212042616420651D
:101EA00078747275646572206E756D6265720A0071
:101EB0000000A0C1000000000000000000009B43E3
:101EC00000009B430000C843D09FD0B0D180D0B069
:101ED000D0BCD0B5D182D180D18B20D181D0BED120
:101EE00085D180D0B0D0BDD0B5D0BDD18B0020621F
:101EF000797465733B206372632000536574746961
:101F00006E67732053746F726564202800454550D6
:101F1000524F4D206461746173697A6520657272F5
:101F20006F722E0A002073746F726564207365747B
:101F300074696E6773207265747269657665642072
:101F40002800202863616C63756C617465642921C5
:101F50000A0020213D2000454550524F4D2043525C
:101F600043206D69736D61746368202D202873743C
:101F70006F726564292000496E6465783A200044D8
:101F8000494749504F5453204C6F616465640A00BF
:101F900044494749504F5453204C6F6164696E6700
:101FA0000A00204D61726C696E3D563832290A0074
:101FB000454550524F4D2076657273696F6E206DA6
:101FC00069736D617463682028454550524F4D3DDB
:101FD00000020000000000000000000000000000FF
:101FE00000000000000000000000000000000000F1
:101FF00000000000000000000000000000000000E1
:10200000000007FFC3FF870187FF0FFCFFFC1E01D5
:10201000FF8007FFC3FF87018FFF1FFCFFFC1E032C
:10202000FFC00000C600C7018C00180003006183D8
:1020300000C00001C600C7C18C0018000300618306
:1020400000C000038600C6C18C0018000301806335
:1020500000C000070600C6618C0018000301806301
:1020600000C0000E0600C6618C00180003018063EA
:1020700000C0001C0600C6318FFE1FF803018063FC
:10208000FFC000380600C6318FFE0FFC03018063DD
:10209000FF8000700600C6198C00000C0301FFE3EE
:1020A0000C0000E00600C6198C00000C0301FFE3E1
:1020B000070001C00600C60D8C00000C0301806300
:1020C000018003800600C60D8C00000C03018063B4
:1020D000018007000600C6078C00000C0301806326
:1020E000018006000600C6078C00000C0301806317
:1020F000018007FFC3FF86038FFF1FFC030180637E
:10210000018007FFC3FF860387FF1FF80301806379
:10211000018000000000000000000000000000003E
:1021200000000000000000000000000000000000AF
:10213000000000000000000000000000000000009F
:10214000000000000000000000000000000000008F
:102150000000F0004A0110013B0130012C01400158
:1021600027015001220170011D0190011801B001E9
:102170001301C0010E01F001090110020401300237
:10218000FF006002FA009002F500C002F0000003B8
:10219000EB004003E6008003E100D003DC002004F4
:1021A000D700E004D200C005CD004006C800D0062C
:1021B000C3008007BE00F008B9004009B400C009A0
:1021C000AF00B00AAA00B00BA500D00CA000000E12
:1021D0009B00C01096005012910000148C00C01596
:1021E0008700B0178200B0197D00D01B7800001E58
:1021F000730040206E0090226900F02464004027A4
:102200005F0090295A00E02B5500102E500020301E
:102210004B0010324600E033410090353C0010374F
:10222000370070383200A0392D00B03A2800A03BAA
:102230002300603C1E00103D1900903D1400103E2C
:102240000F00703E0A00C03E0500003F0000403F06
:10225000FBFF803FF6FFC03FF1FF2020506C616E16
:102260006E657242756666657242797465733A206E
:10227000002046726565204D656D6F72793A2000C9
:10228000436F6D70696C65643A204F63742033311D
:1022900020323032300A00204C6173742055706453
:1022A000617465643A20323032302D31302D333054
:1022B000207C20417574686F723A20285A4F4E4531
:1022C000535441522C2048616C6C79290A006D618D
:1022D000726C696E2D322E302E380A004D61726C90
:1022E000696E0020536F6674776172652052657362
:1022F00065740A00205761746368646F67205265D3
:102300007365740A002042726F776E206F757420B7
:1023100052657365740A002045787465726E616C4D
:102320002052657365740A00506F77657255700AA4
:10233000006175746F25632E670047323858590065
:102340004D31303031006572726F7220777269746E
:10235000696E6720746F2066696C650A00446F6E51
:102360006520736176696E672066696C652E0A0068
:102370004D323900D0ADD0BDD0B4D181D182D0BEE4
:10238000D0BFD18B002553202563202563202563F2
:102390002025630020503A00656E6473746F70737B
:1023A000206869743A200020746F6F206C6F6E672C
:1023B00020657874727573696F6E207072657665CA
:1023C0006E7465640A004D33303320553120452545
:1023D000692053256900D090D0B2D182D0BED0BF41
:1023E000D0BED0B4D0B1D0BED18020504944202A34
:1023F000005049442D44202A005049442D49202AA8
:10240000005049442D50202A00D09FD0B5D180D013
:10241000B5D0BCD0B5D189D0B5D0BDD0B8D0B5205D
:10242000D0BCD0B8D0BD00D0A1D0BAD0BED1802E03
:10243000D0BCD0B8D0BD00D0A1D0BAD0BED1802EF3
:10244000D0BCD0B0D0BAD181204500D0A1D0BAD074
:10245000BED1802ED0BCD0B0D0BAD181205A00D00D
:10246000A1D0BAD0BED1802ED0BCD0B0D0BAD1814C
:10247000205900D0A1D0BAD0BED1802ED0BCD0B0CF
:10248000D0BAD181205800D0A3D181D0BAD0BED14A
:10249000802ED0BCD0B0D0BAD181204500D0A3D1FD
:1024A00081D0BAD0BED1802ED0BCD0B0D0BAD1812C
:1024B000205A00D0A3D181D0BAD0BED1802ED0BCBA
:1024C000D0B0D0BAD181205900D0A3D181D0BAD018
:1024D000BED1802ED0BCD0B0D0BAD181205800D08F
:1024E000A3D181D0BAD0BED1802ED0BFD183D1822A
:1024F000D0B5D1882E00D0A3D181D0BAD0BED180A2
:102500002ED0B2D182D18FD0B3D0B8D0B22E00D0DD
:10251000A3D181D0BAD0BED180D0B5D0BDD0B8D0F3
:10252000B5004D383400D092D18BD180D0B0D0B22C
:10253000D0BDD0B8D0B2D0B0D0BDD0B8D0B520D1F9
:1025400081D182D0BED0BBD0B000D09FD0B0D180DE
:10255000D0BAD0BED0B2D0BAD0B02058595A00D0DC
:10256000A2D0B5D0BCD0BFD0B5D180D0B0D182D1AF
:1025700083D180D0B00041425300504C4100D09AEA
:10258000D183D0BBD0B5D18000D0A1D0BED0BFD038
:10259000BBD0BE2C20094300D09ED181D0BDD0BE7F
:1025A000D0B2D0BDD0BED0B520D0BCD0B5D0BDD17A
:1025B0008E00D092D18BD0BAD0BBD18ED187D0B87B
:1025C000D182D18C20D0B4D0B2D0B8D0B3D0B0D1D9
:1025D00082D0B5D0BBD0B800D09FD0B0D180D0BA17
:1025E000D0BED0B2D0BAD0B0205A004732385A004C
:1025F000D09FD0B0D180D0BAD0BED0B2D0BAD0B0F7
:102600002059004732385900D09FD0B0D180D0BA7D
:10261000D0BED0B2D0BAD0B020580047323858001F
:1026200047323800D09DD0B0D0B3D180D0B5D0B231
:10263000202420D181D0BED0BFD0BBD0BE00D09D41
:10264000D0B0D0B3D180D0B5D0B2202420D181D1A8
:1026500082D0BED0BB00D09ED185D0BBD0B0D0B68A
:10266000D0B4D0B5D0BDD0B8D0B500D09FD180D037
:10267000B5D0B4D0BDD0B0D0B3D180D0B5D0B22019
:102680002400D0A1D183D0BCD0B0D180D0BDD0BEE9
:1026900000D09CD0B8D0BAD180D0BED188D0B0D034
:1026A000B3205A00D09FD0BED182D0BED0BA00D0C5
:1026B000A1D0BAD0BED180D0BED181D182D18C0080
:1026C0007A257625D092D0BED181D181D182D0B069
:1026D000D0BDD0BED0B2D0B5D0BDD0B8D0B520D14D
:1026E00081D0B1D0BED18F00D09AD0BED0BDD18420
:1026F000D0B8D0B3D183D180D0B0D186D0B8D18F6B
:1027000000D09AD0BED0BDD182D1802ED183D182CB
:10271000D0B5D187D0BAD0B820D0A23AD092D18B40
:10272000D0BAD0BB00313330004245443A2031307A
:10273000306B207769746820342E376B2070756C8D
:102740006C2D757000D09AD0BED0BDD182D1802EB4
:10275000D183D182D0B5D187D0BAD0B820D0A23A17
:10276000D092D0BAD0BB00D09CD0B0D0BAD1812EFC
:1027700020080032373500D09CD0B8D0BD2E2020A4
:10278000080045313A203130306B20776974682079
:10279000342E376B2070756C6C2D757000D091D015
:1027A0009F0047656E6572696300D09FD180D0BE7F
:1027B000D182D0BED0BAD0BED0BB00312E3000D036
:1027C000A1D0BAD0BED180D0BED181D182D18C2C43
:1027D000D091D09ED09400313135323030006874C1
:1027E0007470733A2F2F7777772E616C69657870E4
:1027F000726573732E636F6D2F6974656D2F33323D
:102800003936353430363339362E68746D6C005AAB
:102810004F4E4553544152205A5249425F5636005A
:102820004475616C205A20454E4453544F50004427
:1028300055414C205A20445249564552005449545F
:10284000414E20455854525544455200D091D0B87D
:10285000D0BBD0B8D0BD2E20D0B2D18BD180D0B0DB
:10286000D0B2D0BDD0B8D0B22E00D0ADD0BAD181C8
:10287000D182D180D183D0B4D0B5D180D18B007733
:1028800077772E7A6F6E657374617233642E636F1F
:102890006D005A38545F4D3300323032302D3130B4
:1028A0002D3330006D61726C696E2D322E302E38F2
:1028B0000056312E372E3000D0A2D0B5D180D0BCFA
:1028C000D0B8D181D182D0BED180D18B00D094D06C
:1028D000B0D0BDD0BDD18BD0B520D0BFD0BBD0B093
:1028E000D182D18B00D094D0B0D0BDD0BDD18BD00F
:1028F000B520D0BFD180D0B8D0BDD182D0B5D180E5
:10290000D0B0004D3130303000D09ED181D182D056
:10291000B0D0BDD0BED0B2D0B8D182D18C20D0BF83
:10292000D0B5D187D0B0D182D18C00D09FD180D00A
:10293000BED0B4D0BED0BBD0B6D0B8D182D18C205E
:10294000D0BFD0B5D187D0B0D182D18C00D09DD0AE
:10295000B0D0B7D0B0D0B400D0A1D182D0BED0BF5B
:1029600000D0A3D181D182D0B0D0BDD0BED0B2D062
:10297000B8D182D18C20534420D0BAD0B0D180D1EC
:1029800082D183004D323100D09ED181D0B2D0BEF1
:10299000D0B1D0BED0B4D0B8D182D18C2053442095
:1029A000D0BAD0B0D180D182D183004D323200D0A4
:1029B00092D18BD0BAD0BBD18ED187D0B8D182D1B1
:1029C0008C20D0BFD0B8D182D0B0D0BDD0B8D0B5D7
:1029D000004D383100D0A1D0BCD0B5D0BDD0B02092
:1029E000D184D0B8D0BBD0B0D0BCD0B5D0BDD1820E
:1029F000D0B000D09E20D0BFD180D0B8D0BDD18281
:102A0000D0B5D180D0B500D09DD0B0D181D182D108
:102A100080D0BED0B8D182D18C00D09FD0B0D1832D
:102A2000D0B7D0B020D0BFD0B5D187D0B0D182D070
:102A3000B800D093D0BBD0B0D0B2D0BDD18BD0B97C
:102A400020D18DD0BAD180D0B0D0BD00D09FD0B031
:102A5000D180D0BAD0BED0B2D0BAD0B02E2E2E00F7
:102A60000000D09ED0B6D0B8D0B4D0B0D0B9D1820A
:102A7000D0B520D0BDD0B0D187D0B0D0BBD0B000C1
:102A8000D181D0BCD0B5D0BDD18B20D184D0B8D02D
:102A9000BBD0B0D0BCD0B5D0BDD182D0B00000D0BA
:102AA0009ED0B6D0B8D0B4D0B0D0B9D182D0B50015
:102AB000D0B2D18BD0B3D180D183D0B7D0BAD0B877
:102AC00000D184D0B8D0BBD0B0D0BCD0B5D0BDD1AF
:102AD00082D0B000D09DD0B0D0B3D180D0B5D0B22C
:102AE00020D181D0BED0BFD0BBD0B000D096D0B462
:102AF000D0B8D182D0B52E2E2E0000D09DD0B0D02F
:102B0000B6D0BCD0B8D182D0B520D0BAD0BDD0BE5E
:102B1000D0BFD0BAD18300D0B4D0BBD18F20D0BD2C
:102B2000D0B0D0B3D180D0B5D0B2D0B000D181D0A8
:102B3000BED0BFD0BBD0B02E2E2E00D092D181D12E
:102B400082D0B0D0B2D18CD182D0B520D184D0B8CF
:102B5000D0BBD0B0D0BCD0B5D0BDD18200D0B820D1
:102B6000D0BDD0B0D0B6D0BCD0B8D182D0B520D0F6
:102B7000BAD0BDD0BED0BFD0BAD18300D0B4D0BB04
:102B8000D18F20D0BFD180D0BED0B4D0BED0BBD0EA
:102B9000B6D0B5D0BDD0B8D18F00D09ED0B6D0B809
:102BA000D0B4D0B0D0B9D182D0B500D0B7D0B0D0E9
:102BB000B3D180D183D0B7D0BAD0B800D184D0B847
:102BC000D0BBD0B0D0BCD0B5D0BDD182D0B000D0B9
:102BD0009DD0B0D0B6D0BCD0B8D182D0B520D0BABC
:102BE000D0BDD0BED0BFD0BAD18300D0B4D0BBD17D
:102BF0008F20D0BFD180D0BED0B4D0BED0BBD0B695
:102C0000D0B5D0BDD0B8D18F00D0BFD0B5D187D08E
:102C1000B0D182D0B800D09ED0B6D0B8D0B4D0B0A9
:102C2000D0B9D182D0B500D0B2D0BED0B7D0BED04E
:102C3000B1D0BDD0BED0B2D0BBD0B5D0BDD0B8D150
:102C40008F00D0BFD0B5D187D0B0D182D0B800D05E
:102C50009ED0B6D0B8D0B4D0B0D0B9D182D0B50063
:102C6000D18DD0BAD181D182D180D183D0B7D0B823
:102C7000D0B800D184D0B8D0BBD0B0D0BCD0B5D003
:102C8000BDD182D0B0006F70656E00545249474785
:102C9000455245440066696C616D656E74007A5FEB
:102CA00070726F6265007A325F6D696E007A5F6D77
:102CB000696E00795F6D696E00785F6D696E0052B4
:102CC00065706F7274696E6720656E6473746F707F
:102CD000207374617475730A00D0A1D182D0BED004
:102CE000BB2C2020094300453100626564002C2084
:102CF00073797374656D2073746F707065642120CF
:102D00004865617465725F49443A2000D0A3D0A23F
:102D1000D095D0A7D09AD09020D0A2D095D09FD0D7
:102D20009BD09000546865726D616C2052756E6125
:102D300077617900D0A0D0B0D0B7D0BED0B3D18069
:102D4000D0B5D0B220D0BDD0B520D183D0B4D0B0D2
:102D5000D0BBD181D18F0048656174696E672066F0
:102D600061696C656400202D20496E76616C696430
:102D7000206578747275646572206E756D62657217
:102D800020210A00D09ED188D0B8D0B1D0BAD0B01E
:102D90003A20D0A220D0BCD0B0D0BAD1812E004DE4
:102DA000415854454D502074726967676572656477
:102DB00000D09ED188D0B8D0B1D0BAD0B03A20D00F
:102DC000A220D0BCD0B8D0BD2E004D494E54454DA8
:102DD000502074726967676572656400202F002057
:102DE00042403A0020403A00001000AA0380004010
:102DF0000100012C01B001220140021001F0020289
:102E0000018003F8004004F500E004ED009005E4C3
:102E1000003006DD00E006D7008007D1003008CC86
:102E200000D008C7007009C300100ABE00B00ABB7A
:102E300000500BB700900CB300D00DAA00B00FA546
:102E4000005010A000101496009016900010198CDD
:102E500000501A8500301C820070227800B0237563
:102E60000040256E0020276900A0296400502A5FD9
:102E700000902B5A00D02C5500702D4F00E02E48AA
:102E8000005031450030334100D0353900603637CD
:102E90000010373300F0382D00A0392700803C1C8B
:102EA00000403D1700F03D1100703E0A00C03E0595
:102EB00000003F0000403FFBFF803FF6FFC03FF1B6
:102EC000FF2053697A653A200043616E6E6F74206B
:102ED0006F70656E207375626469722000534420C0
:102EE00063617264206F6B0A006F70656E526F6F62
:102EF00074206661696C65640A00766F6C756D6537
:102F00002E696E6974206661696C65640A004E6F93
:102F100020534420636172640A004D3233202573CC
:102F20000046696C652073656C65637465640A00AE
:102F300046696C65206F70656E65643A2000454E89
:102F40004420535542524F5554494E450A002220C1
:102F5000706F73002220706172656E743A220053A4
:102F60005542524F5554494E452043414C4C2074D4
:102F700061726765743A2200D09FD0B5D180D0B518
:102F8000D0BFD0BED0BBD0BD2E20D0B2D18BD0B759
:102F9000D0BED0B2D0B0004578636565646564206A
:102FA0006D617820535542524F5554494E45206427
:102FB000657074683A310A0044656C6574696F6EB7
:102FC000206661696C65642C2046696C653A200056
:102FD00046696C652064656C657465643A006F7061
:102FE000656E206661696C65642C2046696C653A83
:102FF000200057726974696E6720746F2066696C6F
:10300000653A2000667265736800646F696E6700D8
:103010004E6F7720007C3C3E5E2B3D3F2F5B5D3B3F
:103020002C2A225C0000002200250028002B002E04
:10303000003100340002010000050108010B01000D
:10304000002100240027002A002D00300033000159
:10305000010000040107010A01050505050705082F
:10306000080808020202020A0A080804040404010B
:10307000010101010101010303030303030303042D
:103080000707070C0C0C0C0C0C0C0C0202020206BD
:10309000060606060606060B0B0B0B0B0B0B0B01AD
:1030A0000210202008081020401020408002010259
:1030B0000108040201010204081020408080402021
:1030C000100804020180040201804020100804025C
:1030D00001080402010102040810204080010204DA
:1030E000081020408020453A00205A3A0020593AE2
:1030F0000024F4D43050C38E20C2A24017828B70BB
:1031000011127A910D816CD90AA861E108C758663D
:1031100007615143061E4B5D05C145A7041A4111C5
:1031200004093D9803713931034036DB0265339160
:1031300002D4305402802E1D02632CEE01752AC584
:1031400001B028A001102781018F2564012B244B99
:1031500001E0223401AC211F018D200D01801FFCF4
:1031600000841EED00971DDF00B81CD200E61BC6D0
:1031700000201BBC00641AB200B219A8000A19A0F2
:10318000006A189900D117910040178B00B516847A
:103190000031167E00B31579003A157300C7146F1D
:1031A0000058146A00EE1366008813630025135E4E
:1031B00000C7125B006C12570015125400C1115168
:1031C0000070114F0021114B00D61049008D10479F
:1031D000004610440002104200C00F4000800F3E25
:1031E00000420F3C00060F3B00CB0E3800930E3719
:1031F000005C0E3500270E3400F30D3200C10D3196
:1032000000900D3000600D2E00320D2D00050D2CAC
:1032100000D90C2B00AE0C2900850C29005C0C2772
:1032200000350C27000E0C2600E80B2400C40B24EC
:1032300000A00B23007D0B23005A0B2100390B212A
:1032400000180B2000F80A1F00D90A1E00BB0A1E36
:10325000009D0A1D00800A1D00630A1C00470A1B0E
:10326000002C0A1B00110A1A00F7091A00DD0919BF
:1032700000C4091900AB091900920917007B09184D
:1032800000630917004C09160036091600200916BC
:10329000000A091500F5081500E0081400CC081410
:1032A00000B8081400A4081400900813007D081248
:1032B000006B081300580812004608120034081169
:1032C00000230811001208110001081100F0071076
:1032D00000E0071000D0071000C0071000B0070F73
:1032E00000A107100091070E0083070F0074070F5D
:1032F0000065070E0057070E0049070E003B070D3B
:10330000002E070E0020070D0013070D0006070D05
:1033100000F9060C00ED060D00E0060C00D4060CCA
:1033200000C8060C00BC060C00B0060C00A4060B7E
:103330000099060C008D060B0082060B0077060B29
:10334000006C060B0061060A0057060B004C060ACB
:103350000042060A0038060A002E060A0024060A61
:10336000001A060A001006090007060A00FD0509F2
:1033700000F4050900EB050900E2050900D905097B
:1033800000D0050900C7050900BE050900B50508FC
:1033900000AD050800A50509009C05080094050876
:1033A000008C050800840508007C050800740508E9
:1033B000006C050700650508005D05070056050857
:1033C000004E0507004705070040050800380507BF
:1033D00000310507002A050700230507001C050624
:1033E00000160507000F050700080506000205077F
:1033F00000FB040600F5040700EE040600E80406DE
:1034000000E2040700DB040600D5040600CF040632
:1034100000C9040600C3040600BD040600B7040684
:1034200000B1040500AC040600A6040600A00405D3
:10343000009B04060095040500900406008A04051C
:103440000085040500800406007A04050075040563
:1034500000700405006B04050066040500610405A6
:10346000005C04050057040500520405004D0405E6
:103470000048040500430405003E0404003A040526
:103480000035040500300404002C04050027040462
:1034900000230405001E0404001A04040016040599
:1034A00000110404000D04040009040500040404D0
:1034B0000000040400FC030400F8030400F4030407
:1034C00000F0030400EC030400E8030400E4030438
:1034D00000E0030400DC030400D8030400D4030468
:1034E00000D0030400CC030400C8030300C5030399
:1034F0000024F404D9201BC40C5C0E9804C4095F9A
:103500000265077101F405F900FB04B30048048764
:1035100000C10369005803550003034500BE023A89
:10352000008402310053022A0029022500040220EF
:1035300000E4011C00C8011900AF01170098011434
:103540000084011300710110006101100051010E8F
:103550000043010D0036010B002B010B0020010B75
:1035600000150109000C01090003010800FB000817
:1035700000F3000800EB000700E4000600DE000690
:1035800000D8000600D2000600CC000500C70005E8
:1035900000C2000500BD000400B9000400B500042D
:1035A00000B1000400AD000400A9000400A5000360
:1035B00000A20003009F0004009B0003009800038A
:1035C000009500020093000300900003008D0002AC
:1035D000008B0003008800020086000200840003C4
:1035E00000810002007F0002007D0002007B0002DB
:1035F00000790002007700010076000200740002EA
:103600000072000100710002006F0002006D0001F5
:10361000006C0002006A00010069000200670001FE
:103620000066000100650001006400020062000104
:103630000061000100600001005F0002005D000108
:10364000005C0001005B0001005A0001005900010C
:10365000005800010057000100560001005500010C
:10366000005400010053000000530001005200010B
:103670000051000100500001004F0001004E000009
:10368000004E0001004D0001004C0001004B000005
:10369000004B0001004A0001004900010048000001
:1036A00000480001004700010046000000460001FC
:1036B00000450000004500010044000100430000F7
:1036C00000430001004200000042000100410000F0
:1036D0000041000100400001003F0000003F0001E8
:1036E000003E0000003E0001003D0000003D0001E2
:1036F000003C0000003C0000003C0001003B0000DA
:10370000003B0001003A0000003A000100390000CF
:1037100000390001003800000038000000380001C6
:1037200000370000003700010036000000360000BE
:1037300000360001003500000035000000350001B2
:1037400000340000003400000034000100330000A9
:10375000003300000033000100320000003200009E
:103760000032000100310000003100000031000192
:10377000003000000030000000300001002F000089
:10378000002F0000002F0000002F0001002E00007D
:10379000002E0000002E0001002D0000002D000072
:1037A000002D0000002D0001002C0000002C000066
:1037B000002C0000002C0001002B0000002B00005A
:1037C000002B0000002B0001002A0000002A00004E
:1037D000002A0000002A0001002900000029000042
:1037E0000029000000290000002900010028000035
:1037F0000028000000280000002800000028000128
:10380000002700000027000000270000002700001C
:10381000002700010026000000260000002600000E
:103820000026000000260001002500000025000001
:1038300000250000002500000025000000250001F3
:1038400000240000002400000024000000240000E8
:1038500000240001002300000023000000230000DA
:1038600000230000002300000023000000230001CB
:1038700000220000002200000022000000220000C0
:1038800000220000002200010021000000210000B1
:1038900000210000002100000021000000210000A4
:1038A0000021000100200000002000000020000096
:1038B0000020000000200000002000000020000088
:1038C00000200001001F0000001F0000001F00007A
:1038D000001F0000001F0000001F0000001F00016B
:1038E000001E0000001E0000001E0000001E000060
:1038F00000A42C0000841E0000B0120000870A0003
:10390000009E050000E90200007B010000BF0000EE
:103910000020436F756E7420583A00D0A1D0BBD000
:10392000B5D0B4D183D18ED189D0B8D0B920D183CC
:10393000D0B3D0BED0BB00D093D0BED182D0BED049
:10394000B2D0BE00D094D0B0D0BBD18CD188D0B58D
:1039500000D09DD183D0BBD0B5D0B2D0BED0B520E1
:10396000D0BFD0BED0BBD0BED0B6D0B5D0BDD0B801
:10397000D0B500D092D18BD181D0BED182D0B02031
:10398000D181D0BFD0B0D0B4D0B000D092D18BD143
:1039900080D0BED0B2D0BDD18FD182D18C20D18188
:1039A000D182D0BED0BB004732380A4732390043FB
:1039B00061746368205A204F6666736574004732ED
:1039C00039204E00D092D18BD180D0BED0B2D0BDA4
:1039D000D18FD182D18C20D183D0B3D0BBD18B00F9
:1039E000D092D0BED0B7D0B2D180D0B0D182205644
:1039F00000D092D0BED0B7D0B2D180D0B0D1822C7E
:103A000020D0BCD0BC00D09FD0BED0B4D181D0BA21
:103A1000D0BED0BA2C20D0BCD0BC00D092D182D1A4
:103A20008FD0B3D0B8D0B2D0B0D0BDD0B8D0B52040
:103A30005600D092D182D18FD0B3D0B8D0B22E2C34
:103A400020D0BCD0BC00D090D0B2D182D0BED0B2F9
:103A5000D182D18FD0B3D0B8D0B22E00D0A1D0B403
:103A6000D0B5D0BBD0B0D0B9D182D0B520D181D023
:103A7000B1D180D0BED18100D09FD0A0D098D09DB0
:103A8000D0A2D095D0A020D09ED0A1D0A2D090D04E
:103A90009DD09ED092D09BD095D09D0025533A20AA
:103AA000255300D0A3D091D098D0A2D09E2E200034
:103AB0005072696E7465722068616C7465642E2042
:103AC0006B696C6C28292063616C6C6564210A0049
:103AD0006563686F3A004572726F723A0042696CB2
:103AE000696E656172204C6576656C696E6720470A
:103AF0007269643A0A00252900257C00203B204396
:103B0000757272656E74205A00203B20456E640009
:103B1000203B205374617274004772616469656E62
:103B200074204D6978200052616E646F6D204D697C
:103B30007820004D32342053256C642054256C6469
:103B4000004739322E39204525730047312046255C
:103B500064004739322E39205A2573004731205AE4
:103B60003020463230300047312058257320592507
:103B700073204633303030004D34323020532569C5
:103B8000205A2573004D31303620502569205325A9
:103B900069004D31303920532569004D31393020CD
:103BA000532569004D3230302044257300473238A8
:103BB00052305859004739322E39204530205A307A
:103BC0000A47315A2573004D343230205330205A81
:103BD000300020496E76616C696420657874727576
:103BE000646572200020496E76616C69642045200E
:103BF0007374657070657220002045207374657061
:103C0000706572206E6F7420737065636966696594
:103C1000640A00000C0F00FE0000000000D1D1007B
:103C20000700000005070706000050007088F080BC
:103C300070000C0F00FE0000000000AFCF0008FE77
:103C4000000005070706000078888878284888055E
:103C5000050506000070087888780507070600004B
:103C60007080F088888870050505060000F088F0EF
:103C700088F0050505060000F880808080050606AE
:103C80000600FF30505050F888050505060000700A
:103C900088F08070050505060000A8702070A80552
:103CA00005050600007088308870050505060000CF
:103CB0008898A8C8880508080600008870008898B9
:103CC000A8C88804050506010090A0C0A0900505BD
:103CD00005060000384848488805050506000088A4
:103CE000D8A888880505050600008888F888880512
:103CF0000505060000708888887005050506000027
:103D0000F8888888880507070600FEF0888888F00C
:103D1000808005050506000070888088700505050F
:103D2000060000F8202020200507070600FE8888EE
:103D300088887808700509090600FE202070A8A868
:103D4000A870202005050506000088502050880531
:103D500007070600FE90909090F8080805050506F4
:103D600000008888780808050505060000A8A8A8AE
:103D7000A8F80507070600FEA8A8A8A8F8080805DF
:103D80000505060000C040704870050505060000E6
:103D90008888C8A8C80405050601008080E090E076
:103DA000040505060100E0107010E0050505060099
:103DB0000090A8E8A89004050506010070907050D6
:103DC00090000C0F00FE0000000000ABAD000700EB
:103DD0000000050707060000888888C8A8A8C8044E
:103DE0000707060100808080E09090E00507070645
:103DF000000070880878088870000C0F00FE000032
:103E000000000090A8000AFE000005070706000059
:103E1000708888F8888888050707060000F0808089
:103E2000F08888F0050707060000F08888F0888889
:103E3000F0050707060000F8808080808080050874
:103E4000080600FF305050505050F888050707060C
:103E50000000F88080F08080F8050707060000A8C1
:103E6000A8702070A8A805070706000070880870D1
:103E7000088870050707060000888898A8C8888801
:103E8000050A0A060000887000888898A8C88888F3
:103E90000507070600008890A0C0A09088050707C6
:103EA00006000038484848484888050707060000CB
:103EB00088D8A88888888805070706000088888829
:103EC000F888888805070706000070888888888831
:103ED00070050707060000F8888888888888050725
:103EE00007060000F08888F080808005070706003C
:103EF0000070888080808870050707060000F82021
:103F00002020202020050707060000888888887860
:103F100008700507070600002070A8A8A8702005F3
:103F20000707060000888850205088880509090680
:103F300000FE909090909090F80808050707060002
:103F40000088888878080808050707060000A8A8E0
:103F5000A8A8A8A8F8080090A85C01F93D0800AB43
:103F6000AD3800C13D0800AFCF9001313C0800D111
:103F7000D11E00133C1FE020102010201010201034
:103F8000202010201030300840048003001FE03F44
:103F9000F03FF03FF01FE01FE03FF03FF03FF00F39
:103FA000C0078003003FFFF038007030FC3020FC79
:103FB000102078102030102C00D02E31D02F7BD044
:103FC0002F7BD02E31D02C00D02030102078102024
:103FD000FC1030FC303800703FFFF03FFFF038003D
:103FE000703186302387102787902F87D02F03D0FA
:103FF0002030102078102078102030102F03D02F80
:1040000087D02787902387103186303800703FFF94
:10401000F01FFFF81FFFF8041040020820020820DC
:104020000410400820801041001041000820800446
:1040300010400000001FFFF81FFFF83300CC00CC39
:104040001200480048120048004812004800481377
:10405000FFCFFFC810000000081FFF83FFF8000F0C
:10406000C7E000000FEFE0000003EF80000001EF69
:10407000000000006C000000000000002568753A98
:1040800025303268750025687564202530326875E2
:104090003A25303268750020202020202020005052
:1040A0007265737320627574746F6E20746F207202
:1040B0006573756D650A005072657373206275745F
:1040C000746F6E20746F2068656174206E6F7A7AE9
:1040D0006C650A004F46460A0046616465204865E3
:1040E000696768742000426564204C6576656C6978
:1040F0006E6720004661696C656420746F20656E90
:1041000061626C6520426564204C6576656C696E01
:10411000670A00496E76616C6964206D6573682E6C
:104120000A0056652DD180D18BD0B2D0BED0BA0056
:10413000565A2DD180D18BD0B2D0BED0BA005659AC
:104140002DD180D18BD0B2D0BED0BA0056582DD14F
:1041500080D18BD0B2D0BED0BA00D0A1D0BCD0B567
:10416000D189D0B5D0BDD0B8D0B5205900D0A1D01C
:10417000BCD0B5D189D0B5D0BDD0B8D0B52058000D
:104180004520D188D0B0D0B32FD0BCD0BC005A20AD
:10419000D188D0B0D0B32FD0BCD0BC005920D188AA
:1041A000D0B0D0B32FD0BCD0BC005820D188D0B074
:1041B000D0B32FD0BCD0BC00D098D0BDD0B8D18661
:1041C0002DD18F004D34323800D098D0BDD0B8D129
:1041D00086D0B8D0B0D0BBD0B8D0B72E204545508F
:1041E000524F4D00D0A4D0B8D0BBD0B0D0BCD0B5C9
:1041F000D0BDD18200D0A8D0B0D0B3D0BED0B22F25
:10420000D0BCD0BC00D0A1D0BCD0B5D189D0B5D065
:10421000BDD0B8D18F205A2DD0B7D0BED0BDD0B42C
:10422000D0B000D0A0D18BD0B2D0BED0BA00D0A335
:10423000D181D0BAD0BED180D0B5D0BDD0B8D0B5A4
:104240002C20D0BCD0BC2FD1813200D0A1D0BAD08C
:10425000BED180D0BED181D182D18C2C20D0BCD017
:10426000BC2FD18100D0A3D181D182D0B0D0BDD01C
:10427000BED0B22ED181D0BCD0B5D1892ED0B4D091
:10428000BED0BCD0B000D0A2D0BED187D0BAD0B002
:1042900020D181D0B5D182D0BAD0B8002553202505
:1042A000692F25690050726F62696E67206D6573B2
:1042B0006820706F696E7420004F666673657420A5
:1042C000636174636865642021006661696C2C20F9
:1042D0006D616E75616C206C6576656C0046616918
:1042E0006C21204D6F766520646F776E2050726F61
:1042F00062652E00546F206361746368206F666688
:1043000073657400202844525952554E2900473293
:1043100039204175746F20426564204C6576656C68
:10432000696E67003F20284C2C522C462C422920D5
:104330006F7574206F6620626F756E64732E0A004D
:104340003F2856296572626F7365206C6576656CCF
:1043500020696D706C61757369626C652028302D01
:1043600034292E0A00426164205A2076616C7565FA
:104370000A004E6F2062696C696E65617220677217
:1043800069640A00204D393220580020204D6178A0
:104390003A200020204D696E3A2000536F66742049
:1043A000656E6473746F70733A2000D09FD0B5D17E
:1043B00087D0B0D182D18C20D0BED182D0BCD0B534
:1043C000D0BDD0B5D0BDD0B0004D323520500A4D53
:1043D00032340050617573696E672E2E2E00205A9C
:1043E0003A200020593A200042656420583A2000C3
:1043F000D09FD0B5D187D0B0D182D18C20D0BDD0C4
:10440000B020D0BFD0B0D183D0B7D0B50050726F3C
:1044100062696E67204661696C65640A00D09ED14E
:1044200088D0B8D0B1D0BAD0B020D0B7D0BED0BD2F
:10443000D0B4D0B8D180D0BED0B2D0B0D0BDD0B87A
:10444000D18F00D0A1D0BDD0B0D187D0B0D0BBD05B
:10445000B020D0BFD0B0D180D0BAD183D0B9202580
:10446000732573257300496E736572742066696CD9
:10447000616D656E7420616E642070726573732067
:10448000627574746F6E0A0020573A005A38545F90
:104490004D3320D093D0BED182D0BED0B22E00D02A
:1044A0009FD0B5D187D0B0D182D18C2E2E2E0022B4
:1044B0000A00556E6B6E6F776E20636F6D6D616E67
:1044C000643A202200D09DD0B0D187D0B0D0BBD0EC
:1044D000BE20D0BFD0B5D187D0B0D182D0B800D067
:1044E0009FD0B5D187D0B0D182D18C0043616E6EA0
:1044F0006F7420656E746572207375626469723AB8
:104500002000022E2E000120D09ED0B1D0BDD0BE02
:10451000D0B2D0B8D182D18C00D0A1D0BCD0B5D08F
:10452000BDD0B8D182D18C20D0B3D180D0B0D0B49E
:10453000D0B8D0B5D0BDD18200D0922DD0B8D0BDEA
:10454000D181D182D180D183D0BC2ED0BAD0BED07F
:10455000BD2E00D0922DD0B8D0BDD181D182D180D6
:10456000D183D0BC2ED0BDD0B0D1872E0000004862
:104570004200004842000080400202040000A040C7
:104580000000A040000000400000A54300009B4345
:104590000000C843FFFFFF5761726E696E673A20E3
:1045A000486F6D696E672042756D70204469766949
:1045B000736F72203C20310A00206C696D6974654C
:1045C0006420746F2000204D617820004A65726B72
:1045D00000D09FD0B5D187D0B0D182D18C20D181ED
:1045E00020534420D0BAD0B0D180D182D18B00D01A
:1045F00094D0B2D0B8D0B6D0B5D0BDD0B8D0B52058
:104600002573D0BCD0BC00D094D0B2D0B8D0B6D036
:10461000B5D0BDD0B8D0B520302E31D0BCD0BC0084
:10462000D094D0B2D0B8D0B6D0B5D0BDD0B8D0B577
:104630002031D0BCD0BC00D094D0B2D0B8D0B6D04D
:10464000B5D0BDD0B8D0B5203130D0BCD0BC00D0B2
:1046500094D0B2D0B8D0B6D0B5D0BDD0B8D0B520F7
:10466000D0BFD0BE20D0BED181D18FD0BC00D0ADC4
:10467000D0BAD181D182D180D183D0B4D0B5D1800C
:1046800000D094D0B2D0B8D0B6D0B5D0BDD0B8D0CC
:10469000B520D0BFD0BE205A00D094D0B2D0B8D070
:1046A000B6D0B5D0BDD0B8D0B520D0BFD0BE20597F
:1046B00000D094D0B2D0B8D0B6D0B5D0BDD0B8D09C
:1046C000B520D0BFD0BE20580000000A0B02090C54
:1046D0000D0E0807030401000000000000000000A8
:1046E00000000000000000000000000000000000CA
:1046F0000000000000121110000000000000000087
:104700000000000000000000000000000000002089
:104710005200454550524F4D20496E697469616C95
:10472000697A65640A0048617264636F6465642035
:1047300044656661756C742053657474696E677343
:10474000204C6F616465640A003B200020204D36D8
:104750003033200020204D34313220530046696C24
:10476000616D656E742072756E6F75742073656E01
:10477000736F723A0020550046696C616D656E7406
:10478000206C6F61642F756E6C6F6164206C656E58
:10479000677468733A0020204D3835312058005A2C
:1047A0002D50726F6265204F66667365740020201D
:1047B0004D3230392053004175746F2D526574723B
:1047C0006163743A20533D3020746F2064697361D3
:1047D000626C652C203120746F20696E7465727074
:1047E00072657420452D6F6E6C79206D6F766573E0
:1047F00020617320726574726163742F7265636FD8
:104800007665720020204D323038205300526563A7
:104810006F7665723A20533C6C656E6774683E2013
:10482000463C756E6974732F6D3E00205700202042
:104830004D323037205300526574726163743A20F0
:10484000533C6C656E6774683E20463C756E6974B7
:10485000732F6D3E205A3C6C6966743E0020204DDB
:10486000343133205300506F7765722D4C6F737362
:10487000205265636F766572793A0020204D33309F
:10488000312050005049442073657474696E677319
:104890003A0020460020480020204D313435205376
:1048A000004D6174657269616C2068656174757032
:1048B00020706172616D65746572733A0020204DDD
:1048C00036363600456E6473746F702061646A75A5
:1048D00073746D656E743A00204A002020473239A7
:1048E000205720490020204D34323020530041759C
:1048F000746F20426564204C6576656C696E673A1A
:104900000020204D323036205800486F6D65206FF2
:1049100066667365743A0020204D323035204200BF
:10492000416476616E6365643A20423C6D696E5FF6
:104930007365676D656E745F74696D655F75733EF1
:1049400020533C6D696E5F66656564726174653E97
:1049500020543C6D696E5F74726176656C5F66654C
:104960006564726174653E20583C6D61785F785F64
:104970006A65726B3E20593C6D61785F795F6A654C
:10498000726B3E205A3C6D61785F7A5F6A65726B2C
:104990003E20453C6D61785F655F6A65726B3E00E5
:1049A00020540020204D3230342050004163636594
:1049B0006C65726174696F6E2028756E6974732FEF
:1049C0007332293A20503C7072696E745F61636380
:1049D000656C3E20523C726574726163745F616302
:1049E00063656C3E20543C74726176656C5F6163F4
:1049F00063656C3E0020204D3230312058004D61FF
:104A000078696D756D20416363656C657261746969
:104A10006F6E2028756E6974732F7332293A0020E7
:104A2000204D3230332058004D6178696D756D200E
:104A30006665656472617465732028756E69747348
:104A40002F73293A00537465707320706572207556
:104A50006E69743A0020440020204D3230302053DB
:104A6000002044697361626C65640A0046696C6188
:104A70006D656E742073657474696E67733A002097
:104A8000204D3134392043203B20556E697473200A
:104A9000696E2043656C736975730A0020286D6D1B
:104AA00029002020473231202020203B20556E69EC
:104AB000747320696E206D6D000000FA430000FAE7
:104AC000430000A0400000C8420000A0420000A037
:104AD000420000C8430000C843B80B0000B80B00F8
:104AE00000640000001027000000E90061011124AB
:104AF0001FBECFEFD1E2DEBFCDBF00E00CBF13E0A1
:104B0000A0E0B2E0E0E2F0EB02E00BBF02C00790F1
:104B10000D92A434B107D9F726E1A4E4B3E001C0B3
:104B20001D92AC3BB207E1F715E2C6E7D5E200E023
:104B300006C021970109802FFE010F946655C537E5
:104B4000D10780E00807A9F70F9406400D94FE579F
:104B50000C9400002F923F924F925F926F927F923F
:104B60008F929F92AF92BF92CF92DF92EF92FF927D
:104B70000F931F93CF93DF93CDB7DEB7A7970FB6F1
:104B8000F894DEBF0FBECDBF8FA32091C5142EA316
:104B900021E02093C514809127048D3409F4D0C3FB
:104BA000843511F40C944037873411F00C946B3732
:104BB00080912504909126048B31910509F463C1FD
:104BC000F4F488309105D1F14CF497FDB5C38230EF
:104BD0009105A4F1049709F412C1AEC38B3091057D
:104BE00009F44CC18531910511F40C946D370A9785
:104BF00009F0A2C381E00E942AE40C946D378A3246
:104C0000910509F4B9C254F48D31910509F465C1D7
:104C10000CF453C14E9709F47EC18EC38B359105B8
:104C200009F4F4C18C35910509F4F5C18A35910573
:104C300009F082C31092F5140C946D378091B4067C
:104C4000813011F00C946D3719821A821B821C82FC
:104C5000CE0101965C012BEFE22E25E1F22E06E556
:104C600012E033E0C32E30E1D32E912C88E5890D7C
:104C70000F940400F50181935F01882311F10E94D4
:104C8000A9FD2B013C01892D0E94F4EC882351F0F1
:104C9000F8012081318142815381C301B2010F9417
:104CA0006F5509C0F6012081318142815381C301D2
:104CB000B2010F946E55F7016083718382839383F1
:104CC0000AC0F80180819181A281B381F7018083BC
:104CD0009183A283B3839394F4E0EF0EF11C0C5FF5
:104CE0001F4F24E0C20ED11C33E09312BFCF85E4E6
:104CF0000F9404008C83882301F10E94A9FD6B01AD
:104D00007C0183E00E94F4EC882371F02091620220
:104D1000309163024091640250916502C701B6016F
:104D20000F946F556B017C01C0920716D092081644
:104D3000E0920916F0920A1610C0809162029091DA
:104D40006302A0916402B09165028093071690936C
:104D50000816A0930916B0930A1680916516882349
:104D600081F08091D71082FF0CC08C81882349F09C
:104D70008981811103C08A81882319F080E00F9412
:104D8000CF1E40E050E0BA0186E40E945C6620E05D
:104D900030E0A9010F94F256181684F40E94A9FD80
:104DA00020E030E040E752E40F94F25560938D022A
:104DB00070938E0280938F0290939002809144169C
:104DC000882311F40C94A83785E40E94E0FD882321
:104DD00011F40C94A83788E50E94E0FD81110C9431
:104DE000A83789E50E94E0FD81110C94A8378AE577
:104DF0000E94E0FD81110C94A8370C94763780E571
:104E00000F940400882329F00F94190D6B017C0185
:104E100003C0C12CD12C760183E50F9404008823B4
:104E200061F00E94A9FD20E030E04AE754E40F94CD
:104E3000D14E0F946B566B017C010F940B30809117
:104E40005414811105C060E089ED96E00F94F619C5
:104E50000F94AB37C60ED71EE81EF91E0F94AB3762
:104E6000DC01CB018C199D09AE09BF09B7FD02C059
:104E70000C946D3780E00E94973CF0CF80E00E9458
:104E80002AE40C946D370F94C22281110C946D3773
:104E90008CE0ECE9F2E0DE01119601900D928A952A
:104EA000E1F760E070E080E50E949EF3BE016F5F75
:104EB0007F4F0F9451150C946D378091C3148770F8
:104EC000873011F00C94D33760E08FE40F94110019
:104ED00081110C946D370C94D3370F94AB376093DA
:104EE000B40C7093B50C8093B60C9093B70C0F94E0
:104EF000C22281110C946D378091FA14882311F429
:104F00000C94433860E08FE40F94110081110C94ED
:104F10006D370C9443382091B7143091B8144091F8
:104F2000B9145091BA146091560270915702809151
:104F30005802909159020F946F55AB01BC0188E55E
:104F40000E945C6669837A838B839C832091BB1467
:104F50003091BC144091BD145091BE1460915A021E
:104F600070915B0280915C0290915D020F946F558D
:104F7000AB01BC0189E50E945C666D837E838F83F3
:104F80009887BE016B5F7F4FCE0101960F94940D01
:104F9000882311F40C946D3780E00E9454E70E943E
:104FA000D6A761E085E40F94110001E021E0482FCD
:104FB000BE016B5F7F4FCE0101960F9486236B017C
:104FC0007C019B01AC010F947057811119C049817C
:104FD0005A816B817C8188EE93E40E9499EB4D812C
:104FE0005E816F81788583EE93E40E9499EBB7012F
:104FF000A6018EED93E40E9499EB8AE00E946B3B40
:105000000E94BDA70E9439AA0C946D378FE080934F
:10501000F5140C946D3780912404882349F189306C
:1050200009F0A6C083E1A82E83E0B82E96E5E92E0C
:1050300092E0F92ED12C00E010E0F50181915F01A2
:105040000F940400882369F00E94A9FDF701608392
:10505000718382839383133011F401E002C0DD2455
:10506000D3941F5FF4E0EF0EF11C143031F775C0DC
:10507000B3E12B2EB3E03B2E1BE0E12E15E1F12E28
:1050800026E532E03DA32CA303E0C02E00E1D02EA4
:1050900000E010E0F10181911F010F9404008823CA
:1050A00009F44AC00E94A9FD2B013C01133049F0CC
:1050B000F60120813181428153810F946E552B017D
:1050C0003C01ECA1FDA12081318142815381C301CA
:1050D000B2010F946E554B015C012DEB37E346E8AE
:1050E00055EB0F94F25687FD0AC02DEB37E346E8E7
:1050F00055E3C501B4010F946B4E1816ECF4133050
:1051000051F4409262025092630260926402709283
:10511000650201E011C0A5019401F7016081718170
:10512000828193810F946F55F7016083718382832D
:105130009383812F0F9441341F5FF4E0EF0EF11C35
:105140002CA13DA12C5F3F4F3DA32CA334E0C30E07
:10515000D11C143009F09ECF05C0DD2019F00E944B
:1051600037AA06C0002321F082E692E00F94AE3207
:105170000E9439AA0C946D378091B406813011F0E9
:105180000C946D3789E40F940400E82E882321F0F5
:105190000E94A5FD082F01C000E08AE40F940400DE
:1051A000F82E882321F00E94A5FD182F01C010E0E1
:1051B000EE2011F0043020F4FF2041F0143030F0E4
:1051C00083EE96E00E94D8EA0C946D3780E1E6E524
:1051D000F2E0ABEFB5E101900D928A95E1F7EE2098
:1051E00019F1602F000F770B880B990B0F94724EFB
:1051F000209134163091351640913616509137165D
:105200000F94D14E2091B8043091B9044091BA0462
:105210005091BB040F946F556093FB157093FC1570
:105220008093FD159093FE15FF2019F1612F110F4A
:10523000770B880B990B0F94724E20913816309192
:10524000391640913A1650913B160F94D14E209149
:10525000BC043091BD044091BE045091BF040F9432
:105260006F556093FF15709300168093011690930D
:10527000021660E080E50F9411008823C1F1EE2052
:10528000D1F02091B7143091B8144091B9145091D5
:10529000BA146091FB157091FC158091FD159091E9
:1052A000FE150F946E556093FB157093FC1580935B
:1052B000FD159093FE15FF20D1F02091BB14309185
:1052C000BC144091BD145091BE146091FF157091B3
:1052D000001680910116909102160F946E556093FE
:1052E000FF1570930016809301169093021640E00C
:1052F00050E0BA0186E40E945C666B017C0120E00C
:1053000030E0A9010F94F25618164CF420E030E07A
:1053100040E752E4C701B6010F94F25503C060E0C4
:1053200070E0CB0169837A838B839C83CE010196E5
:105330000E94F5A70C946D370F94E31F0C946D3702
:1053400080912504909126048B39910509F4F0C5CC
:105350000CF015C18335910509F429C60CF082C003
:105360008A31910509F446C3BCF58431910509F4ED
:1053700099C27CF48131910509F480C22CF4029722
:1053800008F444C20C943D37429709F417C60C94B4
:105390003D378731910509F4BAC294F485319105FE
:1053A00009F4B1C2469711F00C943D370E94F3BA4C
:1053B0008091D710877F80628093D7100C946D37CF
:1053C0008831910509F4B8C2499711F00C943D3722
:1053D0000E94C4F20C946D378032910509F482C3A7
:1053E000F4F48D31910509F466C384F48B31910591
:1053F00009F40EC34C9711F00C943D3780912204B0
:10540000909123040E942CBE0C946D378E3191052F
:1054100009F458C34F9709F48EC30C943D378D346B
:10542000910509F437C46CF48B34910509F42EC44A
:105430008C34910511F00C943D370E94D3AB0C9441
:105440006D378135910509F49CC58235910511F0C0
:105450000C943D378091F5148F7D80618093F51415
:105460000C946D378037910509F410C5E4F58A3640
:10547000910509F46AC4CCF48C35910509F4F7C59B
:1054800054F48435910509F499C58535910509F4DD
:10549000CBC50C943D378836910509F4FFC3893696
:1054A000910509F43EC40C943D378D36910509F4FD
:1054B00016C47CF48B36910509F485C48C369105AD
:1054C00011F00C943D371092C41410928B020C947E
:1054D0006D378E36910509F481C48F36910509F434
:1054E00090C40C943D378737910509F423C73CF5E8
:1054F0008337910509F459C68CF48137910509F475
:10550000CEC48237910511F00C943D370E9420CA19
:1055100084E690E10E9480CF0C946D378537910529
:1055200009F4C5C68637910511F00C943D370091FA
:1055300022041091230494E0F12C40E0DFC68D3763
:10554000910509F41BC58CF48837910509F4F5C65B
:105550008937910511F00C943D371092E0041092B8
:10556000DF040E9451AB0C946D378C38910509F41F
:10557000BBC48139910509F4E8C60C943D378139E3
:10558000E1E09E0711F40C9438350CF087C08E3C96
:10559000910511F40C942133D4F58E3B910509F457
:1055A000C4C4C4F4843A910509F45FC734F4833A5F
:1055B000910509F43EC70C943D37863A910509F4EC
:1055C00067C7873A910511F00C943D370E94B1F3FB
:1055D0000C946D378B3C910509F4E3C754F4883C77
:1055E000910509F458C7893C910509F499C70C94B1
:1055F0003D378C3C910511F40C94F0328D3C9105B3
:1056000011F00C943D370F94290D0C946D378D3D9E
:10561000910511F40C940434F4F4813D910511F4D6
:105620000C94CD3364F48F3C910511F40C943F330A
:10563000803D910511F40C9483330C943D37833DE8
:10564000910511F40C94DA338C3D910511F40C940E
:10565000DD330C943D378D3221E0920711F40C9428
:10566000B5346CF48232E1E09E0711F40C945934A5
:105670008C32914011F40C94A0340C943D378F324D
:1056800021E0920711F40C9435358039914011F0E6
:105690000C943D370F940B300C946D37883FE1E04C
:1056A0009E0711F40C9440360CF057C0853A21E067
:1056B000920711F40C946A352CF58C39E1E09E07C1
:1056C00011F40C9444357CF4823921E0920711F4F2
:1056D0000C943E358A39914011F00C943D370E946C
:1056E0008B3A0C946D378D39E1E09E0711F40C94E0
:1056F0000237843A914011F00C943D370E942EFEFF
:105700000C946D37853F21E0920711F40C943A36E2
:105710007CF48C3AE1E09E0711F40C94DD35843F73
:10572000914011F00C943D370E943F710C946D37FD
:10573000863F21E0920711F40C943D36873F91405B
:1057400011F00C943D3761E083E50F94110091E076
:1057500089270F942B3C0C946D378E3BE2E09E071B
:1057600011F40C94EE362CF58B3522E0920711F4EF
:105770000C945D367CF48C30E2E09E0711F40C94BE
:1057800050368835924011F00C943D370E94B2F1AA
:105790000C946D378A3922E0920711F40C94D536B7
:1057A0008D3B924011F00C943D370E9461F00C94B7
:1057B0006D37873EE3E09E0711F40C94F436CCF489
:1057C000833523E0920711F40C94F136803A93402C
:1057D00011F00C943D3720912204309123049091D4
:1057E000D71092609093D710C9010E942CBE0C94E0
:1057F0006D37883EE3E09E0711F40C941C37893E18
:10580000934011F40C941F370C943D3780E50F94AE
:105810000400882329F00F94190D6B017C0103C04B
:10582000C12CD12C760183E50F940400882361F00C
:105830000E94A9FD20E030E04AE754E40F94D14EE5
:105840000F946B566B017C010F940B3080912204F6
:1058500090912304009721F061E00F948C1A05C009
:1058600060E08CEF96E00F94F61940E0C701B601B6
:105870000E94EF410F9434200C946D3780912804DE
:1058800084FF02C00C94463880912A0487FF02C02E
:105890000C94463880912B04837011F00C94463898
:1058A0000C9464388091D71083FF25C08CE397E077
:1058B0000E94D8EA8091D71083FF17C084EF90E14F
:1058C0000E94BCC68BE1E4EFF0E1DE01119601908D
:1058D0000D928A95E1F760E070E0CE0101960E949A
:1058E00050BFCE0101960F943E008DE297E00E94DA
:1058F000D8EA0C946D370E94CEEB8DE497E00E94BD
:10590000D8EA0C946D370E94B2BB0C946D37E091CD
:105910002204F09123048081882329F0803209F445
:1059200010823196F8CF60E0809122049091230498
:105930000E9474BE0C946D3783E50F940400882395
:1059400021F00E9471FD0E948A6C84E50F9404008E
:105950008823A9F00E9471FD6B017C010E9494AB29
:10596000C0921E0DD0921F0DE092200DF092210DDD
:10597000CD28CE28CF2819F081E08093EE148091B5
:10598000690D8823F9F080E090E0A8E4B2E488A3F0
:1059900099A3AAA3BBA31C8E1D8E1E8E1F8E1982D7
:1059A0001A821B821C8200E010E020E0AE01405E03
:1059B0005F4FBE01645E7F4FCE0101960F94E500FC
:1059C0000C946D370E94B03A882381F00E9404BB8A
:1059D0000E94AFAB8EE795E10E94A9BA10922C0409
:1059E00010922D0410922E0410922F040F94342044
:1059F0000C946D378091D71083FD02C00C946D37E5
:105A000083E50F94040081110C9474380C946D3765
:105A100083E40E94E0FD882319F181E697E00E946B
:105A2000D8EA80913B12882391F0BE016F5F7F4FCF
:105A300088E392E10E9488C68E010F5F1F4FF80134
:105A400081918F01882339F00E946B3BF8CF87E565
:105A500097E00E94D8EA8AE00E946B3B0C946D3775
:105A60008091D71082FF21C080E797E00E94D8EA9A
:105A70006091D3107091D4108091D5109091D61070
:105A80004AE00E94723B8FE20E946B3B6091CF1014
:105A90007091D0108091D1109091D2104AE00E9464
:105AA000723B0E94703C0C946D3782E897E00E9434
:105AB000D8EA0C946D378091D7108E7F8093D710E1
:105AC0000C946D378091D71083FD02C00C946D3714
:105AD0000F94CC1F80912204909123040E948ABDD0
