:100000000C946E1F0C949F1F0C949F1F0C949F1FA9
:100010000C949F1F0C949F1F0C949F1F0C949F1F68
:100020000C949F1F0C949F1F0C949F1F0C949F1F58
:100030000C949F1F0C94B5990C949F1F0C949F1FB8
:100040000C949F1F0C94F4DF0C949F1F0C949F1F23
:100050000C949F1F0C949F1F0C94B59C0C946B994F
:100060000C949F1F0C945A3C0C94503C0C949F1F72
:100070000C949F1F0C949F1F0C949F1F0C949F1F08
:100080000C949F1F0C949F1F0C949F1F0C949F1FF8
:100090000C949F1F0C949F1F0C949F1F0C949F1FE8
:1000A0000C949F1F0C949F1F0C949F1F0C949F1FD8
:1000B0000C949F1F0C949F1F0C949F1F0C949F1FC8
:1000C0000C949F1F0C949F1F0C949F1F0C949F1FB8
:1000D0000C949F1F0C949F1F0C949F1F0C949F1FA8
:1000E0000C949F1FCC39D139D639E039EA39633ABB
:1000F000F439FC39043A0E3A183A223A313A3B3A8A
:10010000633A453A4F3A593A923FB03DE93DCE3FC6
:10011000E93DE93DE93DE93DE93DE93DE93DE93DAF
:10012000E93DE93DE93DE93DE93DE93DE93DE93D9F
:10013000E93DE93DE93DE93DE93DE93DE93DE93D8F
:10014000E93DE93DC83FE93DE93DE93DE93DE93D9E
:10015000E93DE93DE93DA13FE93DE93DE93DE93DB5
:10016000E93DE93DE93DE93DE93DE93DE53FE63D64
:10017000B7E9C4E9D9E9E6E903EA18EA25EA36EA83
:1001800047EA60EA79EA92EAABEAC8EAE5EAA90155
:1001900065023D0239011F016D02F3000D011702D6
:1001A000BF01B30133015F015F028502D301EF009C
:1001B0004902DD01BB010B0111022D015B01F900B8
:1001C000250149028701B90163020C9495480C94FA
:1001D000A1480C946F480C949AAF0C94187E0D941F
:1001E00031280C94635E0D94E11F0C94207E0C94D6
:1001F000FF5D0D945A280C94E63D0C94CE3F0C9470
:1002000089480C94137F0C94087E0D949E070C94DF
:10021000A13F0C9433D80D9448280D94ED1F0C94F5
:1002200034830C948C440C9401610C941F780C94CE
:1002300031D80C94B5740C9455570C9435D80D9452
:10024000DB1F0C943D3D0C94403D0D945E280C94B6
:10025000437B0C94FA5F0C9447440D9450280C9403
:10026000453A0C94405E0D94EA1F0C9425EA0C94D8
:1002700034440D94D51F0C94E0390C942FD80C9471
:10028000375F0C94B0800C94E5EA0C9443490C94CD
:10029000E53F0C946FEC0C948F710C948D460C948C
:1002A00036EA0C9482490C94B03D0C94AD430C9406
:1002B000AC740C94CC390D9456280C94FC390D94E4
:1002C00037280D94A70A0C942C5E0C94AF740C94F0
:1002D00075620C94633A0D94A50A0C94C8EA0C94C8
:1002E0001E5F0C94A43C0C94B8740C94593A0C9472
:1002F000EA390C9491560D942D060C94C83F0C9439
:10030000C4E90D94B4080C94EB8D0C947E460D94C6
:1003100064280C94DD710C945D5E0C9435400C9453
:100320003F480C94695E0C94247E0C94D7710C9415
:100330005FA40D94550B0C94D1390C9499560C94E0
:10034000043A0C94B3480C9473490C9455540C948F
:1003500048A40D94F21F0C949B480C94147E0C94AA
:10036000235F0C948F480D94E71F0C94107E0C941F
:100370003C3D0D9468280D9442280C9411720D9404
:10038000FF1F0C9452760C942D5F0C94D4430C9464
:1003900033580C94183A0C9460EA0C942ADC0C94B0
:1003A000AC490C9491490D942D280C9497800C9491
:1003B0002C7E0C949A4C0C94A3F50D943E280C942E
:1003C000D9E90C94285F0C94E9710C94313A0C949F
:1003D000F4390C9460440C94307B0C94E6E90C9452
:1003E00006440C941C7E0C94EDDB0C9488560C9403
:1003F00038990C94344C0D94A30A0C9438830C94C3
:100400000C7E0C94434C0C947D480C94BF710C945E
:10041000AA800C940E990C940E3A0C9464490C9496
:10042000235E0D944C280D94A90A0C94A13C0D94C4
:10043000E41F0C9421440C94DD480C9499850C9491
:10044000A5440C94BE400C948B800C94325F0C94A9
:100450005C400C94B7E90C942E5E0C949D490C946E
:10046000A1710C94A1560D94C6420C9483480C942F
:100470004E480C9401600C94585C0D94D81F0C9459
:10048000145F0C94195F0C9430830C942A730C94B1
:10049000007C0D9471280C94F6630C94A7480C947E
:1004A00015560D94E4420C9431A40C94CB710C9429
:1004B00001DA0C949B590C9476A40C94D2550D94AB
:1004C0003A280C945C7B0D946C280D94D21F0C94EC
:1004D00077480C940E5F0C9434560D94DE1F0C94E8
:1004E000B3710C94305E0C94ABEA0C94287E0C949F
:1004F0003B3A0C941F8E0C94E93D0C94AD480C943F
:10050000307E0C94B2740C94B6800D9429280C940F
:1005100047EA0C9449830C94085F0C9473440C9440
:1005200003EA0C94E3710C94223A0C94ED430C947E
:1005300002AA0C94D4550C9432720C94BB430C94C4
:100540006F5E0C941B720C9475460C944F3A0C948D
:1005500079EA0C9418EA0C947AF50C94225E0D94C6
:10056000840A0C94923F0C942DD80C94D6390C9498
:10057000BE480C94755E0C9492EA0C9408724E413D
:100580004E494E495459494E46CDCCCC3D0AD7230D
:100590003C17B7D13877CC2B329595E6241FB14F55
:1005A0000A000020410000C84200401C4620BCBE9A
:1005B0004CCA1B0E5AAEC59D7400407A10F35A0007
:1005C000A0724E18090010A5D4E80000E87648177C
:1005D0000000E40B54020000CA9A3B000000E1F561
:1005E00005000080969800000040420F000000A027
:1005F0008601000000102700000000E80300000052
:10060000006400000000000A00000000000100007B
:100610000000002C76D888DC674F0823DFC1DFAEEE
:1006200059E1B1B796E5E3E453C63AE651997696B7
:10063000E8E6C28426EB898C9B62ED407C6FFCEF80
:10064000BC9C9F40F2BAA56FA5F490055A2AF75CAE
:10065000936B6CF9676DC11BFCE0E40D47FEF52060
:10066000E6B500D0ED902E03009435770500808428
:100670001E080000204E0A000000C80C333333333C
:100680000F986E12831141EF8D2114893BE65516A8
:10069000CFFEE6DB18D1844B381BF77C1D901DA4E0
:1006A000BBE424203284725E228100C9F124ECA1D3
:1006B000E53D27434F4D4D554E49434154494F4E1B
:1006C0000044525952554E004552524F5253004920
:1006D0004E464F004543484F005265706F732E2EB3
:1006E0002E004D65736820706F696E74206F75748D
:1006F000206F662072616E67650A00417474656ED2
:100700007465207574696C69732E004D6F7465751E
:10071000727320626C6F7175C3A97300456E64209B
:1007200066696C65206C6973740A00426567696E5E
:100730002066696C65206C6973740A004E6F206DC9
:10074000656469610A00286E6F2066696C6529001E
:1007500043757272656E742066696C653A20005349
:1007600044207072696E74696E67206279746520C6
:10077000004E6F74205344207072696E74696E6706
:100780000A00256979202569642025696820256982
:100790006D20256973005072696E742074696D65EF
:1007A0003A2000526566726F6964697373656D659E
:1007B0006E740045202553006F666600444542551F
:1007C000473A004D3131322053687574646F776E4B
:1007D000004D3131332053005A38545F4D33204F90
:1007E00046462E004348414D4245525F54454D50C8
:1007F0004552415455524500424142595354455087
:1008000050494E470041524353004D4F54494F4EBB
:100810005F4D4F44455300544845524D414C5F5045
:10082000524F54454354494F4E004C4F4E475F463C
:10083000494C454E414D45004155544F5245504F4E
:1008400052545F53445F53544154555300534443EF
:100850004152440050524F4D50545F535550504FE9
:10086000525400454D455247454E43595F50415201
:1008700053455200434153455F4C494748545F42FA
:1008800052494748544E45535300544F47474C45EF
:100890005F4C494748545300534F465457415245C3
:1008A0005F504F574552004255494C445F504552A6
:1008B00043454E54004C4556454C494E475F4441D4
:1008C0005441005A5F50524F42450052554E4F55C9
:1008D00054004155544F4C4556454C005052494EDA
:1008E000545F4A4F420050524F47524553530041C4
:1008F00055544F5245504F52545F54454D50005639
:100900004F4C554D45545249430042494E4152596E
:100910005F46494C455F5452414E53464552005341
:10092000455249414C5F584F4E5F584F464600462E
:1009300049524D574152455F4E414D453A4D6172C6
:100940006C696E206D61726C696E2D322E302E389E
:1009500020284E6F76203130203230323020313036
:100960003A32323A33332920534F555243455F438D
:100970004F44455F55524C3A68747470733A2F2F48
:100980006769746875622E636F6D2F4D61726C6953
:100990006E4669726D776172652F4D61726C696E1A
:1009A0002050524F544F434F4C5F56455253494F7E
:1009B0004E3A312E30204D414348494E455F5459FF
:1009C00050453A5A38545F4D332045585452554497
:1009D00045525F434F554E543A3120555549443A9C
:1009E00063656465326132662D343161322D34378E
:1009F00034382D396231322D633535633632663302
:100A0000363766660A002F2F20004D3134352053CB
:100A10003C696E6465783E206F7574206F66207245
:100A2000616E67652028302D31290A0041636365B6
:100A30006C65726174696F6E00416363656C6572A9
:100A40006174696F6E3A20500046523A0020466C3D
:100A50006F773A200020643A0020693A0020703A0B
:100A600000496E76616C696420657874727564659E
:100A7000720A0046696C616D656E742072756E6FE6
:100A800075742064697374616E636520286D6D29C7
:100A90003A200046696C616D656E742072756E6FE8
:100AA000757420004D34323120696E636F72726547
:100AB000637420706172616D657465722075736115
:100AC00067650A0044C3A963616C6167657320614F
:100AD00070706C697175C3A973004572723A2054C5
:100AE0006F6F206661722100546F6F206661722003
:100AF00066726F6D207265666572656E63652070E3
:100B00006F696E740A00454550524F4D204F4B0A95
:100B100000205A323A004475616C20456E6473744B
:100B20006F702041646A7573746D656E7420286DF2
:100B30006D293A2000506F7765722D6C6F737320AA
:100B40007265636F766572792000446F6E65207000
:100B500072696E74696E672066696C650A004D374C
:100B600037004D333100D406CF06C806C106B306A0
:100B70004572726F722077726974696E6720746F44
:100B800020454550524F4D210A004D323930004D1D
:100B9000343130004D313132004D31303800535452
:100BA0004F5050C389005072696E7465722073741F
:100BB0006F707065642064756520746F2065727253
:100BC0006F72732E20466978207468652065727292
:100BD0006F7220616E6420757365204D393939203C
:100BE000746F20726573746172742E202854656D61
:100BF00070657261747572652069732072657365C2
:100C0000742E2053657420697420616674657220A7
:100C100072657374617274696E67290A004E6F2081
:100C2000436865636B73756D2077697468206C69C0
:100C30006E65206E756D6265722C204C6173742038
:100C40004C696E653A2000636865636B73756D204F
:100C50006D69736D617463682C204C617374204CF2
:100C6000696E653A20004C696E65204E756D62654F
:100C700072206973206E6F74204C617374204C690C
:100C80006E65204E756D6265722B312C204C617340
:100C900074204C696E653A20004D31313000534468
:100CA0002072656164206572726F720A00212120D2
:100CB0004B494C4C20636175736564206279204B0D
:100CC000494C4C20627574746F6E2F70696E0A0007
:100CD0002121204B494C4C2063617573656420626F
:100CE0007920746F6F206D75636820696E6163741D
:100CF0006976652074696D65202D20637572726553
:100D00006E7420636F6D6D616E643A20006275735E
:100D1000793A2070617573656420666F7220696E20
:100D20007075740A00627573793A20706175736525
:100D30006420666F7220757365720A00627573793C
:100D40003A2070726F63657373696E670A004DC3F2
:100D5000A9646961207265746972C3A9004DC3A951
:100D600064696120696E73C3A972C3A9004D3130F3
:100D7000303053004D3630302054313700457272D8
:100D80003A207574663820666F6E74206E6F74201A
:100D9000696E697469616C697A65642E00000C0F74
:100DA00000FE07022503BB01FFFE0AFE08FE050840
:100DB0000806000040F0C8888898781005080806E2
:100DC0000000C0F88888888888F8050505060001B5
:100DD0002030F830200508080600002070F8202098
:100DE0002020E00509090600FF2070A8A8B888881F
:100DF0007020070505070001D86C366CD805090975
:100E00000600FFF8A88888888888A8F8050A0A06D6
:100E100000FE205050505088A8A888700303030695
:100E2000000340A040FFFFFFFFFFFFFFFFFFFFFFAA
:100E3000FFFFFFFFFFFFFFFFFFFFFF0000000605B2
:100E4000FF01070706020080808080800080030386
:100E500003060105A0A0A005060606000050F850F4
:100E600050F8500509090600FF2070A8A07028A8B6
:100E70007020050707060000C8C810204098980594
:100E8000070706000040A0A040A8906801030306E1
:100E900002058080800309090601FF204040808010
:100EA000804040200309090601FF804040202020A7
:100EB00040408005070706000020A8702070A82089
:100EC0000505050600012020F82020020303060185
:100ED000FFC04080050101060003F802020206017E
:100EE00000C0C00507070600000810102040408021
:100EF000050707060000708898A8C88870030707D0
:100F000006010040C040404040E0050707060000E1
:100F1000708808102040F8050707060000F8081040
:100F20003008887005070706000010305090F81050
:100F300010050707060000F880F00808887005070C
:100F400007060000304080F088887005070706001B
:100F500000F8081010202020050707060000708800
:100F600088708888700507070600007088887808F0
:100F70001060020505060100C0C000C0C0020606E0
:100F80000601FFC0C000C040800305050601012026
:100F900040804020050303060002F800F803050521
:100FA0000601018040204080050707060000708888
:100FB00010202000200507070600007088B8A8B898
:100FC0008070050707060000708888F88888880503
:100FD0000707060000F04848704848F00507070674
:100FE000000070888080808870050707060000F088
:100FF0004848484848F0050707060000F88080F098
:101000008080F8050707060000F88080F080808067
:10101000050707060000708880809888700507071C
:10102000060000888888F88888880307070601007A
:10103000E04040404040E00507070600003810103F
:10104000101090600507070600008890A0C0A090CF
:1010500088050707060000808080808080F80507EB
:101060000706000088D8A888888888050707060032
:10107000008888C8A8988888050707060000708837
:101080008888888870050707060000F08888F08047
:10109000808005070706000070888888A89068058A
:1010A0000707060000F08888F0A09088050707066B
:1010B000000070888070088870050707060000F837
:1010C0002020202020200507070600008888888827
:1010D0008888700507070600008888888850502097
:1010E00005070706000088888888A8A85005070714
:1010F00006000088885020508888050707060000F1
:1011000088885020202020050707060000F80810D6
:10111000204080F80309090601FFE080808080807C
:101120008080E0050707060000804040201010087E
:101130000309090601FFE020202020202020E005EF
:1011400003030600052050880501010600FEF80390
:101150000303060105804020050505060000700810
:101160007888780507070600008080F0888888F076
:1011700005050506000070808088700507070600D9
:1011800000080878888888780505050600007088BA
:10119000F08070050707060000304840E0404040FE
:1011A0000507070600FE708888887808700507071D
:1011B0000600008080F08888888803070706010001
:1011C0004000C0404040E00409090601FE10003024
:1011D00010101010906005070706000080808890AE
:1011E000E09088030707060100C04040404040E00F
:1011F000050505060000D0A8A8A8A8050505060055
:1012000000B0C888888805050506000070888888B1
:10121000700507070600FEF0888888F080800507C3
:10122000070600FE78888888780808050505060006
:1012300000B0C88080800505050600007880700831
:10124000F00507070600002020F8202020180505DB
:10125000050600008888889868050505060000884E
:10126000888850200505050600008888A8A8500534
:10127000050506000088502050880507070600FE77
:1012800088888850204080050505060000F8102059
:1012900040F80309090601FF2040404080404040DB
:1012A000200109090602FF80808080808080808084
:1012B0000309090601FF804040402040404080056E
:1012C000030306000248A890FFFFFFFFFFFFFFFF98
:1012D000FFFFFFFFFFFFFFFFFFFFFFFFFFFFFFFF1E
:1012E000FFFFFFFFFFFFFFFFFF0000000605FF01FC
:1012F00007070602008000808080808005070706BF
:1013000000FF2070A8A0A870200507070600003085
:101310004840E04048B0050505060000A850885048
:10132000A80507070600008850F820F820200107CC
:101330000706020080808000808080040808060183
:101340000070806090906010E0030101060107A02A
:101350000607070600007884B4A4B4847803050562
:1013600006010460A06000E00505050600002850A5
:10137000A05028050303060001F808080301010630
:101380000103E00607070600007884B4A4A484786B
:10139000050101060007F8040404060105609090A9
:1013A000600507070600002020F8202000F803054C
:1013B0000506010440A02040E0030505060104C025
:1013C000204020C0030303060105204080050707D5
:1013D0000600FE88888898E88080050808060000D6
:1013E00078E8E8E868282828020202060203C0C05C
:1013F0000302020601FE20C003050506010440C0E9
:101400004040E003050506010540A04000E0050559
:1014100005060000A0502850A0050A0A060000405A
:10142000C048506050B0507810050A0A06000040CD
:10143000C048506050A8081038050A0A060000C0CD
:10144000204830E050B05078100507070600002013
:10145000002020408870050A0A0600004020007025
:101460008888F8888888050A0A060000102000701D
:101470008888F8888888050A0A06000020500070CD
:101480008888F8888888050A0A06000068B0007015
:101490008888F88888880509090600005000708847
:1014A00088F8888888050A0A06000020502070887D
:1014B00088F888888805070706000078A0A0F0A0B3
:1014C000A0B80509090600FE708880808088701029
:1014D00060050A0A060000402000F88080F0808045
:1014E000F8050A0A060000102000F88080F08080CD
:1014F000F8050A0A060000205000F88080F080807D
:10150000F80509090600005000F88080F08080F896
:10151000030A0A060100804000E04040404040E0ED
:10152000030A0A060100204000E04040404040E03D
:10153000030A0A06010040A000E04040404040E0AD
:10154000030909060100A000E04040404040E005DA
:101550000707060000704848E8484870050A0A0670
:10156000000068B0008888C8A8988888050A0A061C
:10157000000040200070888888888870050A0A0664
:10158000000010200070888888888870050A0A0684
:10159000000020500070888888888870050A0A0634
:1015A000000068B00070888888888870050909067E
:1015B000000050007088888888887005050506003E
:1015C0000188502050880509090600FF087098A876
:1015D000A8A8C87080050A0A060000402000888874
:1015E0008888888870050A0A06000010200088880C
:1015F0008888888870050A0A0600002050008888BC
:101600008888888870050909060000500088888845
:1016100088888870050A0A06000010200088885013
:101620002020202004070706010080E0909090E031
:1016300080050707060000708890A09088B0050814
:101640000806000040200070087888780508080621
:10165000000010200070087888780508080600004F
:10166000205000700878887805080806000068B0E7
:101670000070087888780507070600005000700899
:1016800078887805080806000020502070087888BF
:1016900078050505060000702870A0780507070684
:1016A00000FE708880887010600508080600004001
:1016B00020007088F08070050808060000102000E7
:1016C0007088F080700508080600002050007088BF
:1016D000F0807005070706000050007088F08070E9
:1016E000030808060100804000C0404040E00308B5
:1016F00008060100204000C0404040E00308080602
:10170000010040A000C0404040E003070706010080
:10171000A000C0404040E0050909060000502050EC
:1017200008788888887005080806000068B000B04E
:10173000C88888880508080600004020007088884E
:1017400088700508080600001020007088888870DE
:101750000508080600002050007088888870050879
:101760000806000068B000708888887005070706C2
:10177000000050007088888870050505060001206B
:1017800000F800200505050600007898A8C8F005B7
:10179000080806000040200088888888700508082E
:1017A0000600001020008888888870050808060058
:1017B00000205000888888887005070706000050C0
:1017C000008888888870050A0A0600FE10200088B4
:1017D0008888502040800509090600FE8080F08836
:1017E0008888F080800509090600FE5000888888F6
:1017F00050204080436F696E2073756976616E7406
:10180000005465726D696EC3A90053756976616E87
:1018100074004F726967696E652058595A2E2E2ED2
:101820000048617574657572206C697373C3A9652E
:10183000004E6976656175206475206C6974004797
:1018400032380A473239004361746368205A204FA6
:10185000666673657400473239204E004E697665BE
:1018600061752064657320636F696E7300562E7214
:10187000C3A9742E20726570726973650052C3A982
:10188000742E72657072697365206D6D0053617599
:1018900074205A206D6D005669742E2072C3A9748D
:1018A00072616374C2B00052C3A9747261637461DF
:1018B00074696F6E206D6D0052C3A9747261637498
:1018C000696F6E206175746F00426162797374652F
:1018D00070205A005669742E202076656E74696CEB
:1018E0002E20200042757365004D656E7520707264
:1018F000696E636970616C00466C75780056697436
:1019000065737365002568753A2530326875002562
:101910006875642025303268753A25303268750064
:1019200020202020202020001FE020102010201048
:1019300010201020201020103030084004800300B8
:101940001FE03FF03FF03FF01FE01FE03FF03FF0AF
:101950003FF00FC0078003003FFFF038007030FCFD
:101960003020FC102078102030102C00D02E31D0E8
:101970002F7BD02F7BD02E31D02C00D020301020C8
:10198000781020FC1030FC303800703FFFF03FFF33
:10199000F03800703186302387102787902F87D04A
:1019A0002F03D02030102078102078102030102FF6
:1019B00003D02F87D02787902387103186303800B7
:1019C000703FFFF01FFFF81FFFF8041040020820CF
:1019D0000208200410400820801041001041000837
:1019E00020800410400000001FFFF81FFFF83300A4
:1019F000CC00CC12004800481200480048120048B1
:101A0000004813FFCFFFC810000000081FFF83FF2E
:101A1000F8000FC7E000000FEFE0000003EF8000C8
:101A20000001EF000000006C000000000000005208
:101A3000C3A96375702E20636F75702E00436F6E9F
:101A400066696775726174696F6E00526570726560
:101A50006E64726520696D70722E004475616C2031
:101A60005A20454E4453544F50004455414C205A3F
:101A70002044524956455200544D4332323058208A
:101A80004150504C4945442058595A0054495441FA
:101A90004E204558545255444552004E6976656172
:101AA000752062696C696EC3A961697265004578C9
:101AB0007472756465757273007777772E7A6F6EBE
:101AC000657374617233642E636F6D005A38545FAE
:101AD0004D3300323032302D31312D3039006D61CF
:101AE000726C696E2D322E302E380056312E372E04
:101AF0003300546865726D697374616E6365730059
:101B0000496E666F7320636172746500496E666F1B
:101B10007320696D7072696D616E7465004D31304E
:101B2000303000417272C3AA74657220696D7072A0
:101B30002E005265746F75720053746F700050619F
:101B400073206465206DC3A9646961004163747585
:101B5000616C69736572206DC3A9646961004D325F
:101B60003100457465696E64726520616C696D2E23
:101B7000004D3831004368616E6765722066696C9C
:101B8000616D656E740052C3A9676C657200506127
:101B900075736520696D7072657373696F6E00533C
:101BA00075727665696C6C65720044C3A96D61726B
:101BB00072657220696D7072657373696F6E00492A
:101BC0006D7072696D65720043616E6E6F74206531
:101BD0006E746572207375626469723A2000022E19
:101BE0002E0041637469766520562D746F6F6C000A
:101BF0004D6F7576656D656E74004D38340052C357
:101C0000A9676C6572204E69762E206C6974004F4E
:101C1000726967696E65206175746F0054656D70D7
:101C2000C3A97261747572650041425300504C4102
:101C300000417272C3AA746572206D6F746575720B
:101C400073004F726967696E65205A206175746F01
:101C5000004732385A004F726967696E6520592013
:101C60006175746F0047323859004F726967696E49
:101C7000652058206175746F00473238580047322C
:101C800038005072C3A963682E20242062757365E2
:101C9000005072C3A963682E2024206C697400521E
:101CA0006566726F69646972005072C3A963686186
:101CB000756666616765202400546F74616C002D41
:101CC0001C291C0000A0C100000000000000000052
:101CD000009B4300009B430000C843436F6E66694E
:101CE000672E20656E72656769737472C3A965009B
:101CF0002062797465733B206372632000536574BE
:101D000074696E67732053746F7265642028004590
:101D10004550524F4D206461746173697A65206546
:101D200072726F722E0A002073746F726564207372
:101D3000657474696E67732072657472696576651F
:101D400064202800202863616C63756C617465648D
:101D500029210A0020213D2000454550524F4D20A9
:101D6000435243206D69736D61746368202D202890
:101D700073746F726564292000496E6465783A2037
:101D80000044494749504F5453204C6F6164656487
:101D90000A0044494749504F5453204C6F616469CD
:101DA0006E670A00204D61726C696E3D56383329AA
:101DB0000A00454550524F4D2076657273696F6E2B
:101DC000206D69736D617463682028454550524FDA
:101DD0004D3D004D6978657572003F00416E6E752E
:101DE0006C657200496E7665727365722064C3A972
:101DF00067726164C3A900202046696E20562D7465
:101E00006F6F6C0044C3A962757420562D746F6F98
:101E10006C00202046696E205A3A002534642E2535
:101E200064206D6D0044C3A9627574205A3A004362
:101E300079636C65206D69780056616C69646572C0
:101E4000204D697820562D746F6F6C00436F6D7054
:101E50006F73616E7465203D00562D746F6F6C73E7
:101E60002072C3A9696E69742E206F6B005265736E
:101E700065740052616E646F6D204D6978003A643C
:101E8000697361626C65003A20656E61626C650021
:101E900044C3A967726164C3A90052C3A9696E698A
:101EA000742E20562D746F6F6C73004368617267D7
:101EB000657220636F6E6669672E00456E72656796
:101EC00069737472657220636F6E6669672E004471
:101ED000C3A963616C616765205A00436F6E6669D0
:101EE000672E206176616E63C3A96500417272C37B
:101EF000AA74004D617263686500444543484152CD
:101F00004745522046494C004348414E47455220E0
:101F100046494C414D454E5400526573746175728B
:101F200065722064C3A966617574730052C3A967A2
:101F30006C6572207072C3A963682E20240043610F
:101F400070746575722066696C2E0052C3A9747234
:101F50006163746174696F6E004D363030204230B9
:101F600020542569004D37303120542569004D3704
:101F7000303220542569005265747261697420669C
:101F8000696C616D656E74202A00526574697265B2
:101F90007220746F7574004D37303200436861727F
:101FA0006765722066696C616D656E74202A0043F6
:101FB00068616E6765722066696C616D656E74201C
:101FC0002A0050757267657220656E636F726500D6
:101FD0004F5054494F4E5320524550524953453A61
:101FE00000494D50522E205041555345002020426B
:101FF0007573653A200050726F74656374696F6E13
:1020000020696E6163746976650031333000424542
:10201000443A203130306B207769746820342E3791
:102020006B2070756C6C2D75700050726F746563E9
:1020300074696F6E206163746976650054656D70B4
:10204000204D6178003237350054656D70204D6940
:102050006E0045313A203130306B2077697468204A
:10206000342E376B2070756C6C2D757000416C6967
:102070006D2E0047656E657269630050726F746FF4
:10208000636F6C6500312E300042617564730031FE
:1020900031353230300068747470733A2F2F77778F
:1020A000772E616C69657870726573732E636F6DDE
:1020B0002F6974656D2F3332393635343036333904
:1020C000362E68746D6C005A4F4E45535441522061
:1020D0005A5249425F5636005061726B696E672EE4
:1020E0002E2E000000417474656E74652066696C64
:1020F000616D656E7400706F75722064C3A96D6147
:10210000727265720000417474656E746500726568
:1021100074726169742064752066696C616D656EA6
:102120007400004275736520656E20636861756692
:1021300066650050617469656E746572205356500F
:102140002E2E2E000050726573736572206C652010
:10215000626F75746F6E00706F7572206368617561
:10216000666665722E2E2E0000496E73C3A97265D5
:10217000722066696C616D656E74006574206170B3
:10218000702E20626F75746F6E00706F75722063B1
:102190006F6E74696E7565722E2E2E0041747465B3
:1021A0006E7465006368617267656D656E74206644
:1021B000696C616D656E7400005072657373657251
:1021C00020626F75746F6E00706F7572207265702B
:1021D00072656E6472650000417474656E7465208A
:1021E0007265707269736500696D70726573736989
:1021F0006F6E0000417474656E746500507572678F
:10220000652066696C616D656E740000496D707261
:102210002E20616E6E756CC3A965004D323520505D
:102220000A4D3234004D69736520656E207061750A
:1022300073652E2E2E006F70656E0054524947470D
:1022400045524544007A5F70726F6265007A325F72
:102250006D696E007A5F6D696E00795F6D696E0001
:10226000785F6D696E005265706F7274696E672079
:10227000656E6473746F70207374617475730A0093
:102280007C3C3E5E2B3D3F2F5B5D3B2C2A225C005D
:10229000020000000000000000000000000000003C
:1022A000000000000000000000000000000000002E
:1022B000000000000000000000000000000000001E
:1022C0000007FFC3FF870187FF0FFCFFFC1E01FF14
:1022D0008007FFC3FF87018FFF1FFCFFFC1E03FF6A
:1022E000C00000C600C7018C001800030061830015
:1022F000C00001C600C7C18C001800030061830044
:10230000C000038600C6C18C001800030180630072
:10231000C000070600C6618C00180003018063003E
:10232000C0000E0600C6618C001800030180630027
:10233000C0001C0600C6318FFE1FF803018063FF3A
:10234000C000380600C6318FFE0FFC03018063FF1A
:102350008000700600C6198C00000C0301FFE30C1E
:102360000000E00600C6198C00000C0301FFE30723
:102370000001C00600C60D8C00000C030180630143
:102380008003800600C60D8C00000C0301806301F1
:102390008007000600C6078C00000C030180630163
:1023A0008006000600C6078C00000C030180630154
:1023B0008007FFC3FF86038FFF1FFC0301806301BB
:1023C0008007FFC3FF860387FF1FF80301806301B7
:1023D000800000000000000000000000000000007D
:1023E00000000000000000000000000000000000ED
:1023F00000000000000000000000000000000000DD
:1024000000000000000000000000000000000000CC
:1024100000F0004A0110013B0130012C014001276E
:10242000015001220170011D0190011801B001133A
:1024300001C0010E01F0010901100204013002FF88
:10244000006002FA009002F500C002F0000003EB09
:10245000004003E6008003E100D003DC002004D745
:1024600000E004D200C005CD004006C800D006C37D
:10247000008007BE00F008B9004009B400C009AFF1
:1024800000B00AAA00B00BA500D00CA000000E9B63
:1024900000C01096005012910000148C00C01587E7
:1024A00000B0178200B0197D00D01B7800001E73A9
:1024B0000040206E0090226900F024640040275FF5
:1024C0000090295A00E02B5500102E500020304B70
:1024D0000010324600E033410090353C00103737A1
:1024E0000070383200A0392D00B03A2800A03B23FC
:1024F00000603C1E00103D1900903D1400103E0F7E
:1025000000703E0A00C03E0500003F0000403FFB57
:10251000FF803FF6FFC03FF1FF2020506C616E6EE0
:10252000657242756666657242797465733A200019
:102530002046726565204D656D6F72793A200043C3
:102540006F6D70696C65643A204E6F762031302073
:10255000323032300A00204C61737420557064614F
:102560007465643A20323032302D31312D303920CB
:102570007C20417574686F723A20285A4F4E45533B
:102580005441522C2048616C6C79290A006D6172AB
:102590006C696E2D322E302E380A004D61726C69D6
:1025A0006E0020536F6674776172652052657365A3
:1025B000740A00205761746368646F672052657302
:1025C00065740A002042726F776E206F7574205216
:1025D000657365740A002045787465726E616C20BD
:1025E00052657365740A00506F77657255700A0002
:1025F0006175746F25632E67004732385859004D56
:1026000031303031006572726F722077726974698F
:102610006E6720746F2066696C650A00446F6E6592
:1026200020736176696E672066696C652E0A004DBD
:10263000323900427574C3A96573002553202563A0
:102640002025632025632025630020503A00656E15
:102650006473746F7073206869743A20004C6974F5
:102660000020436F756E7420583A00453100626552
:1026700064002C2073797374656D2073746F7070AF
:10268000656421204865617465725F49443A2000A1
:1026900045727220544845524D4951554500546881
:1026A00065726D616C2052756E617761790045725B
:1026B00072206465206368617566666500486561BF
:1026C00074696E67206661696C656400202D20491D
:1026D0006E76616C696420657874727564657220C9
:1026E0006E756D62657220210A0045727220544534
:1026F0004D502E204D4158004D415854454D5020CD
:10270000747269676765726564004572722054452A
:102710004D502E204D494E004D494E54454D5020B0
:1027200074726967676572656400202F00204240FB
:102730003A0020403A00001000AA03800040010047
:10274000012C01B001220140021001F002020180BF
:1027500003F8004004F500E004ED009005E40030CB
:1027600006DD00E006D7008007D1003008CC00D09D
:1027700008C7007009C300100ABE00B00ABB0050B1
:102780000BB700900CB300D00DAA00B00FA50050FD
:1027900010A000101496009016900010198C005094
:1027A0001A8500301C820070227800B0237500402A
:1027B000256E0020276900A0296400502A5F009040
:1027C0002B5A00D02C5500702D4F00E02E480050A1
:1027D00031450030334100D03539006036370010C4
:1027E000373300F0382D00A0392700803C1C004012
:1027F0003D1700F03D1100703E0A00C03E0500008C
:102800003F0000403FFBFF803FF6FFC03FF1FF432A
:10281000616973736F6E0052756E6F7574204469D1
:102820007374206D6D0043686172676572206D6D11
:102830000052657472616974206D6D004469616D48
:10284000C3A87472652066696C2E004520656E20F1
:102850006D6DC2B3004A65726B005761726E696E2E
:10286000673A20486F6D696E672042756D7020442D
:10287000697669736F72203C20310A00206C696DA3
:102880006974656420746F2000204D617820000019
:10289000004842000048420000804002020400005C
:1028A000A0400000A040000000400000A543000040
:1028B0009B430000C843FFFFFF4361703A003F5A4B
:1028C000206F7574206F662072616E676520280026
:1028D0003F59206F7574206F662072616E676520A6
:1028E000282D003F58206F7574206F662072616E2E
:1028F000676520282D0050726F6265204F666673F1
:102900006574205800656E7175657565696E672020
:102910002200526573656E643A2000526566726FDC
:1029200069642E206475206C69742E2E2E004C690B
:102930007420656E20636861756666652E2E2E00B4
:1029400023646566696E652044454641554C545F75
:10295000004B6420004B6920004B7020005049441C
:10296000204175746F74756E652066696E69736851
:102970006564212050757420746865206C617374DF
:10298000204B702C204B6920616E64204B642063C7
:102990006F6E7374616E74732066726F6D20626502
:1029A0006C6F7720696E746F20436F6E6669677510
:1029B000726174696F6E2E680A0050494420417537
:1029C000746F74756E65206661696C65642120742E
:1029D000696D656F75740A000A20436C61737369D1
:1029E0006320504944200A00204B643A2000204BC9
:1029F000693A2000204B703A20002054753A20009C
:102A0000204B753A2000206D61783A2000206D69D6
:102A10006E3A200020643A200020626961733A20F7
:102A200000504944204175746F74756E652073744D
:102A30006172740A00504944204175746F74756E58
:102A400065206661696C6564212054656D706572EE
:102A5000617475726520746F6F20686967680A0019
:102A6000504944204175746F74756E650050494437
:102A7000204175746F74756E65206661696C65645C
:102A80002120426164206578747275646572206EDD
:102A9000756D6265720A0020746F6F206C6F6E67CF
:102AA00020657874727573696F6E207072657665D3
:102AB0006E7465640A004D3330332055312045254E
:102AC000692053256900504944204175746F74751D
:102AD0006E65202A005049442D44202A0050494464
:102AE0002D49202A005049442D50202A00566D6956
:102AF0006E20636F7572736500566D696E00566D5A
:102B00006178204500566D6178205A00566D6178D5
:102B1000205900566D6178205800416D617820453C
:102B200000416D6178205A00416D61782059004163
:102B30006D61782058004163632E636F7572736511
:102B4000004163632E72C3A97472616374696F6E0E
:102B50000024F4D43050C38E20C2A24017828B7060
:102B600011127A910D816CD90AA861E108C75866E3
:102B700007615143061E4B5D05C145A7041A41116B
:102B800004093D9803713931034036DB0265339106
:102B900002D4305402802E1D02632CEE01752AC52A
:102BA00001B028A001102781018F2564012B244B3F
:102BB00001E0223401AC211F018D200D01801FFC9A
:102BC00000841EED00971DDF00B81CD200E61BC676
:102BD00000201BBC00641AB200B219A8000A19A098
:102BE000006A189900D117910040178B00B5168420
:102BF0000031167E00B31579003A157300C7146FC3
:102C00000058146A00EE1366008813630025135EF3
:102C100000C7125B006C12570015125400C111510D
:102C20000070114F0021114B00D61049008D104744
:102C3000004610440002104200C00F4000800F3ECA
:102C400000420F3C00060F3B00CB0E3800930E37BE
:102C5000005C0E3500270E3400F30D3200C10D313B
:102C600000900D3000600D2E00320D2D00050D2C52
:102C700000D90C2B00AE0C2900850C29005C0C2718
:102C800000350C27000E0C2600E80B2400C40B2492
:102C900000A00B23007D0B23005A0B2100390B21D0
:102CA00000180B2000F80A1F00D90A1E00BB0A1EDC
:102CB000009D0A1D00800A1D00630A1C00470A1BB4
:102CC000002C0A1B00110A1A00F7091A00DD091965
:102CD00000C4091900AB091900920917007B0918F3
:102CE00000630917004C0916003609160020091662
:102CF000000A091500F5081500E0081400CC0814B6
:102D000000B8081400A4081400900813007D0812ED
:102D1000006B08130058081200460812003408110E
:102D200000230811001208110001081100F007101B
:102D300000E0071000D0071000C0071000B0070F18
:102D400000A107100091070E0083070F0074070F02
:102D50000065070E0057070E0049070E003B070DE0
:102D6000002E070E0020070D0013070D0006070DAB
:102D700000F9060C00ED060D00E0060C00D4060C70
:102D800000C8060C00BC060C00B0060C00A4060B24
:102D90000099060C008D060B0082060B0077060BCF
:102DA000006C060B0061060A0057060B004C060A71
:102DB0000042060A0038060A002E060A0024060A07
:102DC000001A060A001006090007060A00FD050998
:102DD00000F4050900EB050900E2050900D9050921
:102DE00000D0050900C7050900BE050900B50508A2
:102DF00000AD050800A50509009C0508009405081C
:102E0000008C050800840508007C0508007405088E
:102E1000006C050700650508005D050700560508FC
:102E2000004E050700470507004005080038050764
:102E300000310507002A050700230507001C0506C9
:102E400000160507000F0507000805060002050724
:102E500000FB040600F5040700EE040600E8040683
:102E600000E2040700DB040600D5040600CF0406D8
:102E700000C9040600C3040600BD040600B704062A
:102E800000B1040500AC040600A6040600A0040579
:102E9000009B04060095040500900406008A0405C2
:102EA0000085040500800406007A04050075040509
:102EB00000700405006B040500660405006104054C
:102EC000005C04050057040500520405004D04058C
:102ED0000048040500430405003E0404003A0405CC
:102EE0000035040500300404002C04050027040408
:102EF00000230405001E0404001A0404001604053F
:102F000000110404000D0404000904050004040475
:102F10000000040400FC030400F8030400F40304AC
:102F200000F0030400EC030400E8030400E40304DD
:102F300000E0030400DC030400D8030400D403040D
:102F400000D0030400CC030400C8030300C503033E
:102F50000024F404D9201BC40C5C0E9804C4095F3F
:102F60000265077101F405F900FB04B3004804870A
:102F700000C10369005803550003034500BE023A2F
:102F8000008402310053022A002902250004022095
:102F900000E4011C00C8011900AF011700980114DA
:102FA0000084011300710110006101100051010E35
:102FB0000043010D0036010B002B010B0020010B1B
:102FC00000150109000C01090003010800FB0008BD
:102FD00000F3000800EB000700E4000600DE000636
:102FE00000D8000600D2000600CC000500C700058E
:102FF00000C2000500BD000400B9000400B50004D3
:1030000000B1000400AD000400A9000400A5000305
:1030100000A20003009F0004009B0003009800032F
:10302000009500020093000300900003008D000251
:10303000008B000300880002008600020084000369
:1030400000810002007F0002007D0002007B000280
:10305000007900020077000100760002007400028F
:103060000072000100710002006F0002006D00019B
:10307000006C0002006A00010069000200670001A4
:1030800000660001006500010064000200620001AA
:103090000061000100600001005F0002005D0001AE
:1030A000005C0001005B0001005A000100590001B2
:1030B00000580001005700010056000100550001B2
:1030C00000540001005300000053000100520001B1
:1030D0000051000100500001004F0001004E0000AF
:1030E000004E0001004D0001004C0001004B0000AB
:1030F000004B0001004A00010049000100480000A7
:1031000000480001004700010046000000460001A1
:10311000004500000045000100440001004300009C
:103120000043000100420000004200010041000095
:103130000041000100400001003F0000003F00018D
:10314000003E0000003E0001003D0000003D000187
:10315000003C0000003C0000003C0001003B00007F
:10316000003B0001003A0000003A00010039000075
:10317000003900010038000000380000003800016C
:103180000037000000370001003600000036000064
:103190000036000100350000003500000035000158
:1031A000003400000034000000340001003300004F
:1031B0000033000000330001003200000032000044
:1031C0000032000100310000003100000031000138
:1031D000003000000030000000300001002F00002F
:1031E000002F0000002F0000002F0001002E000023
:1031F000002E0000002E0001002D0000002D000018
:10320000002D0000002D0001002C0000002C00000B
:10321000002C0000002C0001002B0000002B0000FF
:10322000002B0000002B0001002A0000002A0000F3
:10323000002A0000002A00010029000000290000E7
:1032400000290000002900000029000100280000DA
:1032500000280000002800000028000000280001CD
:1032600000270000002700000027000000270000C2
:1032700000270001002600000026000000260000B4
:1032800000260000002600010025000000250000A7
:103290000025000000250000002500000025000199
:1032A000002400000024000000240000002400008E
:1032B0000024000100230000002300000023000080
:1032C0000023000000230000002300000023000171
:1032D0000022000000220000002200000022000066
:1032E0000022000000220001002100000021000057
:1032F000002100000021000000210000002100004A
:10330000002100010020000000200000002000003B
:10331000002000000020000000200000002000002D
:1033200000200001001F0000001F0000001F00001F
:10333000001F0000001F0000001F0000001F000110
:10334000001E0000001E0000001E0000001E000005
:1033500000A42C0000841E0000B0120000870A00A8
:10336000009E050000E90200007B010000BF000094
:1033700000526564C3A96D61727265722053565024
:1033800000494D50522E2053544F5050C389450090
:1033900025533A202553004B494C4C45440050726C
:1033A000696E7465722068616C7465642E206B6947
:1033B0006C6C28292063616C6C6564210A0065636C
:1033C000686F3A004572726F723A0042696C696EBA
:1033D000656172204C6576656C696E67204772691D
:1033E000643A0A002053697A653A200043616E6EA0
:1033F0006F74206F70656E2073756264697220004F
:10340000534420496E6974204661696C005344201E
:1034100063617264206F6B0A006F70656E526F6F2C
:1034200074206661696C65640A00766F6C756D6501
:103430002E696E6974206661696C65640A004E6F5E
:1034400020534420636172640A004D323320257397
:103450000046696C652073656C65637465640A0079
:1034600046696C65206F70656E65643A2000454E54
:103470004420535542524F5554494E450A0022208C
:10348000706F73002220706172656E743A2200536F
:103490005542524F5554494E452043414C4C20749F
:1034A00061726765743A220053756263616C6C20C7
:1034B0004F766572666C6F77004578636565646505
:1034C00064206D617820535542524F5554494E4502
:1034D0002064657074683A310A0044656C657469EB
:1034E0006F6E206661696C65642C2046696C653A74
:1034F000200046696C652064656C657465643A00FB
:103500006F70656E206661696C65642C2046696C1D
:10351000653A200057726974696E6720746F20667F
:10352000696C653A2000667265736800646F696E45
:1035300067004E6F772000252900257C00203B2066
:1035400043757272656E74205A00203B20456E648C
:1035500000203B2053746172740047726164696596
:103560006E74204D6978200052616E646F6D204D3D
:10357000697820004D32342053256C642054256C2A
:1035800064004739322E39204525730047312046E3
:103590002564004739322E39205A257300473120DF
:1035A0005A30204632303000473120582573205998
:1035B00025732046333030300047312045256420C4
:1035C00046323030004D31303620502569205325A9
:1035D00069004D31303920532569004D3139302093
:1035E000532569004D32303020442573004732386E
:1035F00052305859004739322E39204530205A3040
:103600000A47315A2573004D343230205330205A46
:10361000300020496E76616C69642065787472753B
:10362000646572200020496E76616C6964204520D3
:103630007374657070657220002045207374657026
:10364000706572206E6F742073706563696669655A
:10365000640A005665206A65726B00565A206A65D6
:10366000726B005659206A65726B005658206A6565
:10367000726B0044C3A963616C61676520590044A3
:10368000C3A963616C616765205800452070617350
:103690002F6D6D005A207061732F6D6D0059207071
:1036A00061732F6D6D0058207061732F6D6D00492F
:1036B0006E69742E004D34323800496E6974696148
:1036C0006C6973657220454550524F4D0046696CD8
:1036D000616D656E74005061732F6D6D00506F7376
:1036E0006974696F6E20736F6E6465205A00416360
:1036F00063C3A96CC3A9726174696F6E0056C3A9D4
:103700006C6F636974C3A90052C3A9676C2E2064EF
:10371000C3A963616C206F726967696E650050723E
:1037200065737320627574746F6E20746F20726598
:1037300073756D650A0050726573732062757474D9
:103740006F6E20746F2068656174206E6F7A7A6C7A
:10375000650A004F46460A0046616465204865696F
:103760006768742000426564204C6576656C696EFC
:103770006720004661696C656420746F20656E6126
:10378000626C6520426564204C6576656C696E6785
:103790000A00496E76616C6964206D6573682E0A53
:1037A000004D657375726520706F696E74002553E6
:1037B0002025692F25690050726F62696E67206D40
:1037C00065736820706F696E7420004F666673655C
:1037D0007420636174636865642021006661696CAC
:1037E0002C206D616E75616C206C6576656C004691
:1037F00061696C21204D6F766520646F776E205073
:10380000726F62652E00546F206361746368206F6D
:10381000666673657400202844525952554E29003B
:10382000473239204175746F20426564204C6576BB
:10383000656C696E67003F20284C2C522C462C4248
:1038400029206F7574206F6620626F756E64732E09
:103850000A003F2856296572626F7365206C657691
:10386000656C20696D706C61757369626C65202888
:10387000302D34292E0A00426164205A2076616C72
:1038800075650A004E6F2062696C696E6561722011
:10389000677269640A00204D393220580020204D9B
:1038A00061783A200020204D696E3A2000536F66FF
:1038B0007420656E6473746F70733A2000205A3AF6
:1038C000200020593A200042656420583A200049DF
:1038D0006D70722E20656E20706175736500507278
:1038E0006F62696E67204661696C65640A004563B2
:1038F00068656320736F6E6465004F726967696EF7
:103900006520257325732573205072656D69657276
:1039100000496E736572742066696C616D656E74C2
:1039200020616E6420707265737320627574746FA9
:103930006E0A0020573A005A38545F4D3320707297
:10394000C3AA74652E00496D7072657373696F6EDA
:1039500000220A00556E6B6E6F776E20636F6D6D7F
:10396000616E643A202200496D7072657373696FED
:103970006E2053440044C3A9706C616365722025B6
:10398000736D6D0044C3A9706C6163657220302E45
:10399000316D6D0044C3A9706C6163657220316D37
:1039A0006D0044C3A9706C616365722031306D6D28
:1039B0000044C3A9706C6163657220756E206178E4
:1039C00065004578747275646575720044C3A970AA
:1039D0006C61636572205A0044C3A9706C616365B1
:1039E0007220590044C3A9706C616365722058004D
:1039F00000000A0B02090C0D0E0807030401000069
:103A000000000000000000000000000000000000B6
:103A10000000000000000000000000001211100073
:103A20000000000000000000000000000000000096
:103A300000000000000000002200250028002B00EC
:103A40002E003100340002010000050108010B01C5
:103A500000002100240027002A002D003000330040
:103A600001010000040107010A010505050507051C
:103A700008080808020202020A0A080804040404EA
:103A80000101010101010101030303030303030316
:103A9000040707070C0C0C0C0C0C0C0C02020202A5
:103AA00006060606060606060B0B0B0B0B0B0B0B8E
:103AB0000102102020080810204010204080020140
:103AC0000201080402010102040810204080804025
:103AD0002010080402018004020180402010080424
:103AE00002010804020101020408102040800102C2
:103AF00004081020408020453A0020593A00205206
:103B000000454550524F4D20496E697469616C699A
:103B10007A65640A0048617264636F646564204476
:103B2000656661756C742053657474696E67732083
:103B30004C6F616465640A003B200020204D3630E4
:103B400033200020204D34313220530046696C610F
:103B50006D656E742072756E6F75742073656E730B
:103B60006F723A0020550046696C616D656E742075
:103B70006C6F61642F756E6C6F6164206C656E672D
:103B80007468733A0020204D3835312058005A2D82
:103B900050726F6265204F66667365740020204D19
:103BA0003230392053004175746F2D526574726143
:103BB00063743A20533D3020746F206469736162EE
:103BC0006C652C203120746F20696E746572707280
:103BD000657420452D6F6E6C79206D6F766573204E
:103BE000617320726574726163742F7265636F769E
:103BF00065720020204D3230382053005265636FCB
:103C00007665723A20533C6C656E6774683E204658
:103C10003C756E6974732F6D3E0020570020204D57
:103C2000323037205300526574726163743A205306
:103C30003C6C656E6774683E20463C756E697473B3
:103C40002F6D3E205A3C6C6966743E0020204D3436
:103C50003133205300506F7765722D4C6F73732092
:103C60005265636F766572793A0020204D333031AA
:103C70002050005049442073657474696E67733A2C
:103C80000020460020480020204D313435205300CC
:103C90004D6174657269616C20686561747570202E
:103CA000706172616D65746572733A0020204D36E3
:103CB000363600456E6473746F702061646A757384
:103CC000746D656E743A00204A0020204732392016
:103CD0005720490020204D34323020530041757464
:103CE0006F20426564204C6576656C696E673A00AA
:103CF00020204D323036205800486F6D65206F66A9
:103D0000667365743A0020204D3230352042004100
:103D10006476616E6365643A20423C6D696E5F73E0
:103D200065676D656E745F74696D655F75733E2060
:103D3000533C6D696E5F66656564726174653E20B3
:103D4000543C6D696E5F74726176656C5F66656523
:103D500064726174653E20583C6D61785F785F6A7B
:103D600065726B3E20593C6D61785F795F6A657260
:103D70006B3E205A3C6D61785F7A5F6A65726B3E7C
:103D800020453C6D61785F655F6A65726B3E00201F
:103D9000540020204D323034205000416363656C64
:103DA00065726174696F6E2028756E6974732F7304
:103DB00032293A20503C7072696E745F61636365AA
:103DC0006C3E20523C726574726163745F61636320
:103DD000656C3E20543C74726176656C5F61636310
:103DE000656C3E0020204D3230312058004D617806
:103DF000696D756D20416363656C65726174696F8F
:103E00006E2028756E6974732F7332293A00202052
:103E10004D3230332058004D6178696D756D2066E4
:103E200065656472617465732028756E6974732F9B
:103E300073293A0053746570732070657220756E33
:103E400069743A0020440020204D32303020530065
:103E50002044697361626C65640A0046696C616D37
:103E6000656E742073657474696E67733A00202000
:103E70004D3134392043203B20556E6974732069DD
:103E80006E2043656C736975730A0020286D6D2977
:103E9000002020473231202020203B20556E6974BD
:103EA0007320696E206D6D000000FA430000FA4334
:103EB0000000A0400000C8420000A0420000A04254
:103EC0000000C8430000C843B80B0000B80B000056
:103ED00064000000102700005102330211241FBEAD
:103EE000CFEFD1E2DEBFCDBF00E00CBF13E0A0E01A
:103EF000B2E0E6EEF5EA02E00BBF02C007900D92D9
:103F0000AE34B107D9F726E1AEE4B3E001C01D92AB
:103F1000AC3FB207E1F71FE1CDE6DFE100E006C00C
:103F200021970109802FFE010F944950CC36D1070B
:103F300080E00807A9F70F94D93A0D94E1520C9448
:103F400000002F923F924F925F926F927F928F92DA
:103F50009F92AF92BF92CF92DF92EF92FF920F9318
:103F60001F93CF93DF93CDB7DEB7A7970FB6F89423
:103F7000DEBF0FBECDBF8FA32091300F2EA321E057
:103F80002093300F809143078D3409F4D0C38435DA
:103F900011F40C943731873411F00C946231809114
:103FA0004107909142078B31910509F463C1F4F404
:103FB00088309105D1F14CF497FDB5C3823091055D
:103FC000A4F1049709F412C1AEC38B30910509F432
:103FD0004CC18531910511F40C9464310A9709F0B4
:103FE000A2C381E00E9446ED0C9464318A329105AF
:103FF00009F4B9C254F48D31910509F465C10CF48A
:1040000053C14E9709F47EC18EC38B35910509F4D7
:10401000F4C18C35910509F4F5C18A35910509F093
:1040200082C31092600F0C946431809176068130C7
:1040300011F00C94643119821A821B821C82CE0109
:1040400001965C012AE0E22E27E0F22E04E712E05E
:1040500033E9C32E32E1D32E912C88E5890D0F94DC
:10406000420FF50181935F01882311F10F94E70C52
:104070002B013C01892D0E94E9FD882351F0F801B4
:104080002081318142815381C301B2010F9452508A
:1040900009C0F6012081318142815381C301B201FF
:1040A0000F945150F70160837183828393830AC018
:1040B000F80180819181A281B381F701808391838E
:1040C000A283B3839394F4E0EF0EF11C0C5F1F4FB7
:1040D00024E0C20ED11C33E09312BFCF85E40F94CD
:1040E000420F8C83882301F10F94E70C6B017C0154
:1040F00083E00E94E9FD882371F0209180023091D5
:1041000081024091820250918302C701B6010F944F
:1041100052506B017C01C0921607D0921707E092B3
:104120001807F092190710C08091800290918102C7
:10413000A0918202B0918302809316079093170793
:10414000A0931807B093190780916116882381F016
:104150008091671382FF0CC08C81882349F089818C
:10416000811103C08A81882319F080E00F94931E87
:1041700040E050E0BA0186E40E94B7BD20E030E0A4
:10418000A9010F94D551181684F40F94E70C20E080
:1041900030E040E752E40F94D5506093670270938B
:1041A00068028093690290936A0280914016882386
:1041B00011F40C949F3185E40F941E0D882311F4A3
:1041C0000C949F3188E50F941E0D81110C949F3142
:1041D00089E50F941E0D81110C949F318AE50F948F
:1041E0001E0D81110C949F310C946D3180E50F945C
:1041F000420F882329F00F9497166B017C0103C0AE
:10420000C12CD12C760183E50F94420F882361F0F5
:104210000F94E70C20E030E04AE754E40F94B449EF
:104220000F944E516B017C010E946CB1809120046F
:10423000811105C060E089ED96E00E94B48D0F9475
:10424000C028C60ED71EE81EF91E0F94C028DC0138
:10425000CB018C199D09AE09BF09B7FD02C00C94B2
:10426000643180E00E948E36F0CF80E00E9446EDFF
:104270000C9464310F948F2281110C9464318CE082
:10428000ECE9F2E0DE01119601900D928A95E1F7DA
:1042900060E070E080E50F948104BE016F5F7F4FA6
:1042A0000E940F890C94643180912E0F87708730A3
:1042B00011F00C94CA3160E08FE40F944F0F81111C
:1042C0000C9464310C94CA310F94C0286093B216D8
:1042D0007093B3168093B4169093B5160F948F22F3
:1042E00081110C9464318091650F882311F40C9432
:1042F0003A3260E08FE40F944F0F81110C946431D7
:104300000C943A322091220F3091230F4091240FC8
:104310005091250F60917402709175028091760220
:10432000909177020F945250AB01BC0188E50E9436
:10433000B7BD69837A838B839C832091260F30914C
:10434000270F4091280F5091290F609178027091AA
:10435000790280917A0290917B020F945250AB01C6
:10436000BC0189E50E94B7BD6D837E838F839887EA
:10437000BE016B5F7F4FCE0101960F941217882309
:1043800011F40C94643180E00E9470F00E944ABBEA
:1043900061E085E40F944F0F01E021E0482FBE015A
:1043A0006B5F7F4FCE0101960F9447236B017C0119
:1043B0009B01AC010F945352811119C049815A815C
:1043C0006B817C8187EC98E30E94B5F44D815E811E
:1043D0006F81788582EC98E30E94B5F4B701A6015D
:1043E0008DEB98E30E94B5F48AE00E9462350E944A
:1043F00031BB0E94FF830C9464318FE08093600F87
:104400000C94643180914007882349F1893009F088
:10441000A6C08FEDA82E82E0B82E94E7E92E92E098
:10442000F92ED12C00E010E0F50181915F010F948D
:10443000420F882369F00F94E70CF70160837183C2
:1044400082839383133011F401E002C0DD24D394FE
:104450001F5FF4E0EF0EF11C143031F775C0BFEDB3
:104460002B2EB2E03B2E16E7E12E1FE0F12E24E7C3
:1044700032E03DA32CA303E9C02E02E1D02E00E0E0
:1044800010E0F10181911F010F94420F882309F47C
:104490004AC00F94E70C2B013C01133049F0F601A0
:1044A00020813181428153810F9451502B013C0175
:1044B000ECA1FDA12081318142815381C301B20170
:1044C0000F9451504B015C012DEB37E346E855EB5F
:1044D0000F94D55187FD0AC02DEB37E346E855E32D
:1044E000C501B4010F944E491816ECF4133051F481
:1044F0004092800250928102609282027092830206
:1045000001E011C0A5019401F701608171818281F0
:1045100093810F945250F701608371838283938358
:10452000812F0E945DB61F5FF4E0EF0EF11C2CA1FD
:104530003DA12C5F3F4F3DA32CA334E0C30ED11C03
:10454000143009F09ECF05C0DD2019F00E94FD83D4
:1045500006C0002321F080E892E00E940FB40E9480
:10456000FF830C94643180917606813011F00C94B5
:10457000643189E40F94420FE82E882321F00F94D0
:10458000E30C082F01C000E08AE40F94420FF82EDC
:10459000882321F00F94E30C182F01C010E0EE20C7
:1045A00011F0043020F4FF2041F0143030F082EE9E
:1045B00096E00E94F4F30C94643180E1E4E7F2E0C9
:1045C000AAE0B7E001900D928A95E1F7EE2019F18B
:1045D000602F000F770B880B990B0F945549209192
:1045E00030163091311640913216509133160F9497
:1045F000B449209106043091070440910804509179
:1046000009040F94525060930A0770930B0780932C
:104610000C0790930D07FF2019F1612F110F770BF5
:10462000880B990B0F94554920913416309135160B
:1046300040913616509137160F94B44920910A04D0
:1046400030910B0440910C0450910D040F94525082
:1046500060930E0770930F078093100790931107D4
:1046600060E080E50F944F0F8823C1F1EE20D1F078
:104670002091220F3091230F4091240F5091250F4C
:1046800060910A0770910B0780910C0790910D07BC
:104690000F94515060930A0770930B0780930C0797
:1046A00090930D07FF20D1F02091260F3091270F16
:1046B0004091280F5091290F60910E0770910F07BC
:1046C00080911007909111070F94515060930E073D
:1046D00070930F07809310079093110740E050E00C
:1046E000BA0186E40E94B7BD6B017C0120E030E096
:1046F000A9010F94D55118164CF420E030E040E7A2
:1047000052E4C701B6010F94D55003C060E070E0D9
:10471000CB0169837A838B839C83CE0101960E94AF
:1047200069BB0C9464310F94B01F0C946431809178
:104730004107909142078B39910509F4F0C50CF0BF
:1047400015C18335910509F429C60CF082C08A3160
:10475000910509F446C3BCF58431910509F499C269
:104760007CF48131910509F480C22CF4029708F49D
:1047700044C20C943431429709F417C60C94343176
:104780008731910509F4BAC294F48531910509F491
:10479000B1C2469711F00C9434310E94F9F7809120
:1047A0006713877F8062809367130C94643188312C
:1047B000910509F4B8C2499711F00C9434310F9463
:1047C000A7030C9464318032910509F482C3F4F498
:1047D0008D31910509F466C384F48B31910509F498
:1047E0000EC34C9711F00C94343180913E07909198
:1047F0003F070E945EF90C9464318E31910509F4F3
:1048000058C34F9709F48EC30C9434318D349105FD
:1048100009F437C46CF48B34910509F42EC48C343C
:10482000910511F00C9434310E94AF850C946431E1
:104830008135910509F49CC58235910511F00C94E0
:1048400034318091600F8F7D80618093600F0C9474
:1048500064318037910509F410C5E4F58A36910575
:1048600009F46AC4CCF48C35910509F4F7C554F405
:104870008435910509F499C58535910509F4CBC5B1
:104880000C9434318836910509F4FFC389369105BB
:1048900009F43EC40C9434318D36910509F416C4E4
:1048A0007CF48B36910509F485C48C36910511F0A2
:1048B0000C94343110922F0F109265020C946431D5
:1048C0008E36910509F481C48F36910509F490C4A0
:1048D0000C9434318737910509F423C73CF58337AD
:1048E000910509F459C68CF48137910509F4CEC4B9
:1048F0008237910511F00C9434310F94F72A84EF2C
:1049000092E10E94C9A30C9464318537910509F4A2
:10491000C5C68637910511F00C94343100913E07DD
:1049200010913F0794E0F12C40E0DFC68D379105F0
:1049300009F41BC58CF48837910509F4F5C689374D
:10494000910511F00C9434311092A2041092A1043C
:104950000E9417850C9464318C38910509F4BBC40E
:104960008139910509F4E8C60C9434318139E1E0CC
:104970009E0711F40C942F2F0CF087C08E3C9105EC
:1049800011F40C94182DD4F58E3B910509F4C4C490
:10499000C4F4843A910509F45FC734F4833A91056D
:1049A00009F43EC70C943431863A910509F467C77F
:1049B000873A910511F00C9434310F9494040C94BF
:1049C00064318B3C910509F4E3C754F4883C9105AC
:1049D00009F458C7893C910509F499C70C943431FE
:1049E0008C3C910511F40C94E72C8D3C910511F051
:1049F0000C9434310F94A7160C9464318D3D9105BD
:104A000011F40C94FB2DF4F4813D910511F40C94F8
:104A1000C42D64F48F3C910511F40C94362D803D27
:104A2000910511F40C947A2D0C943431833D910549
:104A300011F40C94D12D8C3D910511F40C94D42DCE
:104A40000C9434318D3221E0920711F40C94AC2E89
:104A50006CF48232E1E09E0711F40C94502E8C32FB
:104A6000914011F40C94972E0C9434318F3221E044
:104A7000920711F40C942C2F8039914011F00C9472
:104A800034310E946CB10C946431883FE1E09E07A0
:104A900011F40C9437300CF057C0853A21E092079E
:104AA00011F40C94612F2CF58C39E1E09E0711F480
:104AB0000C943B2F7CF4823921E0920711F40C9482
:104AC000352F8A39914011F00C9434310E94823490
:104AD0000C9464318D39E1E09E0711F40C94F930A7
:104AE000843A914011F00C9434310F946C0D0C9475
:104AF0006431853F21E0920711F40C9431307CF44D
:104B00008C3AE1E09E0711F40C94D42F843F91403D
:104B100011F00C9434310E942C650C946431863F62
:104B200021E0920711F40C943430873F914011F04A
:104B30000C94343161E083E50F944F0F91E08927A5
:104B40000F9469300C9464318E3BE2E09E0711F4BF
:104B50000C94E5302CF58B3522E0920711F40C947F
:104B600054307CF48C30E2E09E0711F40C94473012
:104B70008835924011F00C9434310F9495020C94C6
:104B800064318A3922E0920711F40C94CC308D3BC9
:104B9000924011F00C9434310F9444010C94643120
:104BA000873EE3E09E0711F40C94EB30CCF48335A0
:104BB00023E0920711F40C94E830803A934011F00E
:104BC0000C94343120913E0730913F079091671348
:104BD000926090936713C9010E945EF90C9464314E
:104BE000883EE3E09E0711F40C941331893E934014
:104BF00011F40C9416310C94343180E50F94420F6B
:104C0000882329F00F9497166B017C0103C0C12CF7
:104C1000D12C760183E50F94420F882361F00F9425
:104C2000E70C20E030E04AE754E40F94B4490F94D5
:104C30004E516B017C010E946CB180913E079091B6
:104C40003F07009721F061E00E944A8E05C060E0B6
:104C50008BEF96E00E94B48D40E0C701B6010E9440
:104C6000123C0F9401200C9464318091440784FF1E
:104C700002C00C943D328091460787FF02C00C941D
:104C80003D3280914707837011F00C943D320C94B3
:104C90005B328091671383FF25C08BE297E00E940F
:104CA000F4F38091671383FF17C086E893E10E94B5
:104CB00029968BE1E6E8F3E1DE01119601900D9271
:104CC0008A95E1F760E070E0CE0101960E945FFCFA
:104CD000CE0101960F947C0F8CE197E00E94F4F3D3
:104CE0000C9464310E94EAF48CE397E00E94F4F3A0
:104CF0000C9464310E94FAFB0C946431E0913E07FD
:104D0000F0913F078081882329F0803209F41082D6
:104D10003196F8CF60E080913E0790913F070E9466
:104D2000A6F90C94643183E50F94420F882321F097
:104D30000F94AF0C0E94E5C384E50F94420F8823C3
:104D4000A9F00F94AF0C6B017C010E945A85C092B0
:104D50005604D0925704E0925804F0925904CD289A
:104D6000CE28CF2819F081E08093590F80916B0EE7
:104D70008823F9F080E090E0A8E4B2E488A399A346
:104D8000AAA3BBA31C8E1D8E1E8E1F8E19821A8293
:104D90001B821C8200E010E020E0AE01405E5F4F0D
:104DA000BE01645E7F4FCE0101960F9423100C94D8
:104DB00064310E94A734882381F00E940AF80E947F
:104DC000758585EF9FE00E94AFF71092480710921B
:104DD000490710924A0710924B070F9401200C9438
:104DE00064318091671383FD02C00C94643183E5C4
:104DF0000F94420F81110C946B320C94643183E454
:104E00000F941E0D882319F180E597E00E94F4F3BA
:104E10008091CD14882391F0BE016F5F7F4F8AECA3
:104E200094E10E94F5958E010F5F1F4FF80181916B
:104E30008F01882339F00E946235F8CF86E497E02D
:104E40000E94F4F38AE00E9462350C9464318091F0
:104E5000671382FF21C08FE597E00E94F4F3609111
:104E600063137091641380916513909166134AE007
:104E70000E9469358FE20E94623560915F137091E4
:104E8000601380916113909162134AE00E9469352A
:104E90000E9467360C94643181E797E00E94F4F336
:104EA0000C946431809167138E7F809367130C9408
:104EB00064318091671383FD02C00C9464310F94B8
:104EC000991F80913E0790913F070E9484FB0C94AC
:104ED00064318091671382FD0E946CB180916713E9
:104EE00083FD02C00C94643160E080E50F944F0FA5
:104EF000182F682F80913E0790913F070E94A6F9D6
:104F000083E50F94420F882321F00F94AF0C0E9489
:104F1000E5C30E940AF811110C9464310E94758552
:104F20000C9464310E9426857B018C0120E831E5D8
:104F300041E050E00F94A44FC9016DE671E00F9479
:104F400021504B015C01C801B70120E13EE040E087
:104F500050E00F94A44FCA01B90128E130E040E0CD
:104F600050E00F94A44F762E672EC62ED72EACE3BA
:104F70002A2E312C412C512CC801B701A2019101DC
:104F80000F94A44FF62EE72ECA01B901A201910198
:104F90000F94A44FCB018E010F5F1F4F811491041A
:104FA00099F0EF92FF927F936F936F927F92BF92EF
:104FB000AF929F928F9282E897E09F938F931F9377
:104FC0000F930F94E64813C0A114B104B1F0EF920F
:104FD000FF927F936F936F927F92BF92AF9286E81A
:104FE00097E09F938F931F930F930F94E6480FB60C
:104FF000F894DEBF0FBECDBF30C0CD2879F0EF9260
:10500000FF927F936F936F927F928AE897E09F93CE
:105010008F931F930F930F94E648E9CF892B69F084
:10502000EF92FF927F936F938EE897E09F938F9319
:105030001F930F930F94E648DACFEF92FF9282E925
:1050400097E09F938F931F930F930F94E6480F90D1
:105050000F900F900F900F900F9060E0C8010E948A
:105060004A8E0E94EAF4B80186E997E00E94D3F4E0
:105070008AE00E9462350C9464310E9475850C941C
:1050800064310E94C4850C94643180918F0D83FF3C
:1050900002C00C94643189E40F94420F882311F408
:1050A0000C9470320F94BF0C90E01816190614F48B
:1050B00081E090E026E0289FF001299FF00D112467
:1050C000EE59F94E808191810C947B3280918F0D45
:1050D00083FF02C00C94643189E40F94420F88234B
:1050E00011F40C9482320F94BF0C90E0181619063C
:1050F00014F481E090E026E0289FF001299FF00D54
:105100001124EE59F94E8081918110E00C94933274
:105110000E94C0FD182F87FD0AC08AE69EE10E940A
:10512000F4F3812F0E94439C8AE00E9462353EA1E5
:105130003093300F0C941F3460E080E50F94D11849
:1051400081110C94643181E40F941E0D882329F0A1
:1051500060912508062F10E002C00FEF10E089E4EF
:105160000F94420F882399F00F94BF0C90E018160B
:10517000190614F481E090E026E0289FF001299FB1
:10518000F00D1124EE59F94E0481158108C083E514
:105190000F94420F882319F00F94AF0C8B01B801C4
:1051A0000F3F110519F010F06FEF70E060932508C4
:1051B0000C94643160E080E50F94D11881110C9457
:1051C0006431109225080C9464318EE40F94420FE0
:1051D000882311F40C9464310F94AF0C6093D007C2
:1051E0007093D1078093D2079093D3070C946431C6
:1051F00083E50F941E0D882331F060E083E50F9462
:10520000D11880938F0D0E94EAF48CEB97E00E94F6
:10521000F4F380918F0D882369F1F6E6EF2EFBE021
:10522000FF2E00E010E020E080918F0D90E0A0E0E4
:10523000B0E0002E04C0B695A795979587950A947F
:10524000D2F780FF0EC0DD24D394D20E222319F0B2
:105250008CE20E946235F701859194910E94F4F3EB
:105260002D2D0F5F1F4F82E0E80EF11C0530110558
:10527000D9F6E8CD88EB97E0E3CD41E060E070E05F
:1052800083EC97E00E94EEF40C94643183E50F9474
:10529000420F882381F00F94BF0C282F30E02D336C
:1052A000310524F4809300020C9464318CE38093E4
:1052B00000020C9464310E94EAF44091000250E034
:1052C00060E070E081ED97E00E9497F48AE00E9430
:1052D00062350C94643180918F0D83FF02C00C9471
:1052E000643189E40F94420F882311F40C94D43272
:1052F0000F94BF0C90E01816190614F481E090E0AA
:1053000026E0289FF001299FF00D1124EE59F94E57
:10531000628173810C94DE320E94EFC1D5C783E5B0
:105320000F94420F882309F4CFC70F94BF0C182F96
:1053300090E0CD970CF01CE3109353030F94C0281A
:105340006B017C01212F30E0A8EEB3E00F94F84F01
:10535000C60ED71EE81EF91EC0924F03D09250030E
:10536000E0925103F0925203AFC70F94A703ACC76A
:105370000E94069D0E94C4850E947DB10E94CB348C
:1053800068EE73E080E090E00E94D0F30E94CE349B
:1053900060E088ED97E00E94B48D96C78091600F21
:1053A0008F7E80628093600F8FC783E50F94420FDA
:1053B0008823E9F00F94C0286093B2167093B31657
:1053C0008093B4169093B5160F94E70C20E030E06C
:1053D0004AE754E40F94B4490F944E51609301028C
:1053E0007093020280930302909304026DC7809130
:1053F000440784FF02C00C94EF328091460787FF78
:1054000002C00C94EF3280914707837011F00C9426
:10541000EF320C94213383E50F941E0D882309F499
:1054200053C70F94C0286093B2167093B31680933D
:10543000B4169093B5160F94E70C20E030E04AE7DD
:1054400054E40F94B4490F944E51609354037093F5
:105450005503809356039093570336C70E94C0FDAF
:1054600087FD32C79091440794FD04C09091460790
:1054700097FF0AC07FEDC72E72E0D72EE0E9EE2E2F
:10548000EDE0FE2E10E009C090914707937091F770
:10549000682F81E00F945C1617C7F60181916F01A8
:1054A0000F94420F882309F46DC0133009F063C0D4
:1054B0000F94E70C4B015C0120E030E040EA51E43E
:1054C0000F944E4987FF4EC0A50194016091B00D25
:1054D0007091B10D8091B20D9091B30D0F94D55094
:1054E0002B013C019B01AC016091090870910A08F5
:1054F00080910B0890910C080F94B44960930908AF
:1055000070930A0880930B0890930C08A3019201F2
:105510006091C00D7091C10D8091C20D9091C30D2D
:105520000F94B4496093C00D7093C10D8093C20D68
:105530009093C30D6091190870911A0880911B080F
:1055400090911C080F945349A30192010F94B44900
:105550000F944E516093190870931A0880931B089A
:1055600090931C088092B00D9092B10DA092B20D54
:10557000B092B30D07C00F94E70CF701648B758BE5
:10558000868B978B1F5FF4E0EF0EF11C143009F04F
:1055900084CF0E9448B198C68FE299E00E94F4F34C
:1055A00060E08FE199E00E94C0C760E08AE099E086
:1055B0000E94C0C761E086EC96E30E94C0C761E02C
:1055C0008FEF98E00E94C0C761E08FEE98E00E94E4
:1055D000C0C760E086EE98E00E94C0C761E08CED35
:1055E00098E00E94C0C761E082ED98E00E94C0C7C9
:1055F00061E08BEC98E00E94C0C761E083EC98E02A
:105600000E94C0C761E085EB98E00E94C0C760E0DF
:1056100087EA98E00E94C0C760E088E998E00E94AD
:10562000C0C760E08AE898E00E94C0C760E084E7F5
:1056300098E00E94C0C760E083E698E00E94C0C77F
:1056400060E084E598E00E94C0C761E08DE498E0E6
:105650000E94C0C760E088E398E00E94C0C760E095
:105660008AE298E00E94C0C760E087E198E00E946B
:10567000C0C760E08AE098E00E94C0C760E085E0B3
:1056800098E00E94C0C761E088EF97E00E94C0C721
:1056900060E084EE97E00E94C0C716C680913E0786
:1056A00090913F07009709F498CBFC0120812223B9
:1056B00009F493CB60E00E944A8E06C6F80180810F
:1056C000282F2B7F2134A1F08035F1F4F80181815E
:1056D00080538A30C8F498012E5F3F4F89012F5FB5
:1056E0003F4FF80180818032C9F3915039F70CC0E7
:1056F0002181213349F4813421F0853461F741E07F
:10570000EACFFF24F394E7CF41110E94EAF4FF208F
:1057100021F086E09AE00E94F4F3C8010E946D3601
:10572000D3C50E94DC84D0C581E08093A20480931D
:10573000A1040E941785C8C560E070E083E50F945E
:10574000C218823038F00E94E6F48AE09AE00E94A3
:10575000F4F3BAC58C01112788E40F94420F882313
:10576000E1F00F94E30C8A3A910544F00F94E30CB6
:105770008530914034F40F94E30C05C08AEA90E040
:1057800002C084E091E026E0209FF001219FF00D0F
:105790001124EE59F94E9183808382E40F94420FD5
:1057A0008823D9F00F94E30C059744F00F94E30C91
:1057B0008937910534F40F94E30C05C085E090E03F
:1057C00002C088E790E026E0209FF001219FF00DC5
:1057D0001124EE59F94E9383828386E40F94420F8D
:1057E000882309F471C50F94E30C97FD09C00F9449
:1057F000E30C8F3F910509F034F40F94E30C05C0DE
:1058000080E090E002C08FEF90E026E0209FF00162
:10581000219FF00D1124EE59F94E9583848354C5D0
:1058200060E070E083E50F94C2188C01833091052D
:105830006CF460E070E080E50F94C2181127F80165
:10584000E253FC4F80830F94CD143EC541970CF476
:105850003BC50F94651538C56FEF7FEF83E50F9457
:10586000C21897FD07C0803191050CF02DC50E942C
:10587000E9EC2AC580916C080E94E9EC25C50F94DB
:105880004D0522C50E94C0FD182F87FD1DC5009142
:10589000750F84E40F94420F882309F4D5C60F9442
:1058A000E70C6B017C0120E030E0A9010F944E4928
:1058B000882339F124E01202F0011124EF58F04F4F
:1058C000C082D182E282F38220E030E0A9016091BF
:1058D000710F7091720F8091730F9091740F0F94EC
:1058E0004E4981110CC080E090E0A0EEBFE38093B0
:1058F000710F9093720FA093730FB093740F01E028
:10590000A3C680E08093750F0E949AAFDDC40E9409
:10591000C0FD87FDD9C45FEDC52E52E0D52E60E9EC
:10592000E62E6DE0F62E10E0F60181916F010F94E6
:105930001E0D882331F10F94E70C6C8F7D8F8E8FB5
:105940009F8F80E1E8EAF2E0DE01119601900D926E
:105950008A95E1F79E012F5F3F4F4CE25AE0612F9D
:10596000CE014C960E9438B06C8D7D8D8E8D9F8DB2
:105970000F944E51F70160837183828393830E9459
:1059800001B11F5FF4E0EF0EF11C143069F69CC406
:105990000E94C0FD87FD98C44FEDE42E42E0F42E36
:1059A00000E91DE0F70181917F010F941E0D88230E
:1059B00039F00F94E70CF80164A375A386A397A3AD
:1059C0000C5F1F4FFDE0003A1F0761F77DC4809117
:1059D000450787FD3EC6809146078E7009F039C69F
:1059E0004091C40D5091C50D6091C60D7091C70DC9
:1059F00089E39AE00E94B5F44091C80D5091C90D19
:105A00006091CA0D7091CB0D8EEF9AE30E94B5F4B0
:105A10004091CC0D5091CD0D6091CE0D7091CF0D78
:105A20008FE89DE30E94B5F48AE00E9462354CC481
:105A300032E8E32E3FE0F32E10E088E5810F0F946B
:105A40001E0D882351F00F94E70CF70160837183DA
:105A500082839383812F0E945DB61F5FF4E0EF0E77
:105A6000F11C133051F70E94FF832EC483E50F947D
:105A70001E0D882351F00F94E70C6093411670932C
:105A80004216809343169093441686E40F941E0D9D
:105A9000882381F00F94E70C20E030E040E752E4E7
:105AA0000F94D55060934516709346168093471611
:105AB000909348168AE50F941E0D882351F00F9499
:105AC000E70C6093491670934A1680934B16909397
:105AD0004C1687E50F941E0D882309F4F5C30F9427
