:100000000C94101C0C94411C0C94411C0C94411C2D
:100010000C94411C0C94411C0C94411C0C94411CEC
:100020000C94411C0C94411C0C94411C0C94411CDC
:100030000C94411C0C943A740C94411C0C94411C7B
:100040000C94411C0D94402C0C94411C0C94411CAC
:100050000C94411C0C94411C0C949EA70C94F073BE
:100060000C94411C0C94D0380C94C6380C94411C50
:100070000C94411C0C94411C0C94411C0C94411C8C
:100080000C94411C0C94411C0C94411C0C94411C7C
:100090000C94411C0C94411C0C94411C0C94411C6C
:1000A0000C94411C0C94411C0C94411C0C94411C5C
:1000B0000C94411C0C94411C0C94411C0C94411C4C
:1000C0000C94411C0C94411C0C94411C0C94411C3C
:1000D0000C94411C0C94411C0C94411C0C94411C2C
:1000E0000C94411C6E367336783682368C36053762
:1000F00096369E36A636B036BA36C436D336DD3698
:100100000537E736F136FB36083C263A5F3A443C81
:100110005F3A5F3A5F3A5F3A5F3A5F3A5F3A5F3A17
:100120005F3A5F3A5F3A5F3A5F3A5F3A5F3A5F3A07
:100130005F3A5F3A5F3A5F3A5F3A5F3A5F3A5F3AF7
:100140005F3A5F3A3E3C5F3A5F3A5F3A5F3A5F3A06
:100150005F3A5F3A5F3A173C5F3A5F3A5F3A5F3A1D
:100160005F3A5F3A5F3A5F3A5F3A5F3A5B3C5C3ACC
:1001700034D741D756D763D780D795D7A2D7B3D72F
:10018000C4D7DDD7F6D70FD828D845D862D89D0177
:10019000EF017902770223010B022F01FF01090110
:1001A0002B013D02AB01BD01ED00010151024702EF
:1001B000CD01A1016D0169019101B702FF00A50206
:1001C0009501CD015301E901E5010C94D28C0C9409
:1001D000E8D60C947FD00C94EDD00D94D7330C94CA
:1001E0006E360C94C4360C94DBD00D94841D0C94A4
:1001F000DD360C940ED00C94CC4C0C949D480D9490
:10020000F3330D94C6330D941C010C9456480C9492
:10021000C78C0D94AE160C945B3C0C94F8940C9423
:10022000E0840C94E7360C94F1360C94784B0C94E3
:1002300096730C9416D10C9473360C9480D70C944E
:10024000D9880C94DAD10D94A5160C94BCD10C94D9
:1002500066D00C94B2390D94C9160C947D960D9409
:10026000AB160C9444480C94DDD70C9478360C945F
:100270000FD80C9434D70C94CE8D0C94E0CF0C9402
:10028000083C0C9485960C9479960C9415510C941A
:1002900041D70C94E7D00C949C950C94CFD00C943F
:1002A00075960C9405D10D9401340D9416010C949F
:1002B000778D0C94A38C0C94F6D70C941A390C946B
:1002C00045D80C94C1480C94A1560C94024E0C9441
:1002D000A6360D94E5330D941A010D94DF330C947A
:1002E000A6D00C94E9D10C948F4B0C9460D40C9450
:1002F000E3420C94464B0C94AF480C94A2D70C9458
:10030000FB360C94C7D00C9463D70C9425FF0C9447
:100310008C360C940BD10C94E7500C9436400C9412
:100320006A930D94E9330C9440930D94FB330C9431
:1003300095960C94354B0D9467200D94BC160C9437
:100340004F400D94DB330C94D08C0D94C21E0D9451
:10035000CE0B0C94BA360D94B4160C94654B0C94D9
:10036000B6390D94C81E0C94E1D00C9456D70C9459
:1003700074480D94D20B0D94781D0D94D4330C94C5
:10038000CB480D94B50B0C94D7420C9495CF0C949C
:10039000BF910C940FFE0C94F9D00D940E340D9473
:1003A000BD0B0C94D0480C94443C0C945C3A0C94D7
:1003B00097D00C94E4840C94FBCF0C94DE840C94C2
:1003C000FE500D9434220C94B3D70D9409340C9440
:1003D000B8420D9405340C9481960C947A480D948F
:1003E0009C160C94263A0C94B0360C94FFD00C94C6
:1003F0003AD00C9489960C944B900C94B0860D9442
:10040000B7160C9488D00C94B3440C94A48C0C9420
:100410005F990C94C94C0D94A8160D9464200C940B
:1004200028D80C94F5D10C9423400C94C4420C941D
:10043000A9480C949D960C945F3A0C94ECD90C94BA
:1004400080480D942A3C0D94C4100C9499960C94F9
:100450004DD00C94DC840C94E48C0C94DEAE0C94A3
:10046000C0730C94AECF0C949C4F0C948D960C944E
:10047000D48C0D940C3C0C94DD420D94B1160C946C
:10048000343D0C94F7D60C94A3480C949E360D94EE
:10049000CE330C94D23C0D94F8100C9426940C940A
:1004A000C7CF0D94CA330C94B3390C94173C0C94F9
:1004B000304B0C94E2840D941C1F0C94D5480C9482
:1004C0009C880C9417390C94C6480D9418010C9410
:1004D000B5480C94AED20C9461930C942B4B0D94B4
:1004E000F5000C94D3360C94F3D00C9405370D948E
:1004F0009F160D94A2160C94B2AE0C949BD10C9442
:10050000CE8E0C9482360D9414010C943E3C0C94C7
:10051000BB480C945D400C9442930C946E4B0C942D
:1005200040410C9495D70C9462D80C94D5D00C947F
:1005300068480C943A4B0D94C51E0C94C78D0C94CE
:1005400096360C9431EC0C94CBD10D94F7330D947A
:10055000B90B0C94D0500C94CBFC0C9435D10C946A
:10056000AB3C0D941F240C94874C0C9472930D9407
:10057000ED330C94C4D70C9491960C9421D04E4139
:100580004E494E495459494E46CDCCCC3D0AD7230D
:100590003C17B7D13877CC2B329595E6241FB14F55
:1005A0000A000020410000C84200401C4620BCBE9A
:1005B0004CCA1B0E5AAEC59D7400407A10F35A0007
:1005C000A0724E18090010A5D4E80000E87648177C
:1005D0000000E40B54020000CA9A3B000000E1F561
:1005E00005000080969800000040420F000000A027
:1005F0008601000000102700000000E80300000052
:10060000006400000000000A00000000000100007B
:100610000000002C76D888DC674F0823DFC1DFAEEE
:1006200059E1B1B796E5E3E453C63AE651997696B7
:10063000E8E6C28426EB898C9B62ED407C6FFCEF80
:10064000BC9C9F40F2BAA56FA5F490055A2AF75CAE
:10065000936B6CF9676DC11BFCE0E40D47FEF52060
:10066000E6B500D0ED902E03009435770500808428
:100670001E080000204E0A000000C80C333333333C
:100680000F986E12831141EF8D2114893BE65516A8
:10069000CFFEE6DB18D1844B381BF77C1D901DA4E0
:1006A000BBE424203284725E228100C9F124ECA1D3
:1006B000E53D27434F4D4D554E49434154494F4E1B
:1006C0000044525952554E004552524F5253004920
:1006D0004E464F004543484F00536C6565702E2EC3
:1006E0002E004D65736820706F696E74206F75748D
:1006F000206F662072616E67650A00436C69636BE8
:1007000020746F20526573756D652E2E2E004E6F0E
:10071000204D6F76652E00456E642066696C6520FD
:100720006C6973740A00426567696E2066696C655E
:10073000206C6973740A004E6F206D656469610AEC
:1007400000286E6F2066696C6529004375727265BA
:100750006E742066696C653A20005344207072699B
:100760006E74696E67206279746520004E6F742024
:100770005344207072696E74696E670A0025697946
:1007800020256964202569682025696D2025697305
:10079000005072696E742074696D653A20004520BE
:1007A0002553006F66660044454255473A004D3177
:1007B00031322053687574646F776E004D31313378
:1007C0002053005A38545F4D33204F46462E004385
:1007D00048414D4245525F54454D50455241545554
:1007E000524500424142595354455050494E4700EA
:1007F00041524353004D4F54494F4E5F4D4F444576
:100800005300544845524D414C5F50524F5445435C
:1008100054494F4E004C4F4E475F46494C454E4160
:100820004D45004155544F5245504F52545F53442B
:100830005F53544154555300534443415244005074
:10084000524F4D50545F535550504F525400454DE8
:10085000455247454E43595F50415253455200431C
:100860004153455F4C494748545F425249474854B9
:100870004E45535300544F47474C455F4C494748FA
:10088000545300534F4654574152455F504F5745BC
:1008900052004255494C445F50455243454E540026
:1008A0004C4556454C494E475F44415441005A5FC0
:1008B00050524F42450052554E4F555400415554E9
:1008C0004F4C4556454C005052494E545F4A4F429A
:1008D0000050524F4752455353004155544F5245D3
:1008E000504F52545F54454D5000564F4C554D4556
:1008F000545249430042494E4152595F46494C4582
:100900005F5452414E534645520053455249414C63
:100910005F584F4E5F584F4646004649524D57412B
:1009200052455F4E414D453A4D61726C696E206D86
:1009300061726C696E2D322E302E3820284E6F7603
:1009400020203220323032302032313A35333A33BF
:10095000332920534F555243455F434F44455F551C
:10096000524C3A68747470733A2F2F6769746875C3
:10097000622E636F6D2F4D61726C696E4669726D88
:10098000776172652F4D61726C696E2050524F54C1
:100990004F434F4C5F56455253494F4E3A312E30DC
:1009A000204D414348494E455F545950453A5A38C5
:1009B000545F4D332045585452554445525F434F80
:1009C000554E543A3120555549443A636564653271
:1009D0006132662D343161322D343734382D39622D
:1009E00031322D6335356336326633363766660A03
:1009F000002F2F20004D31343520533C696E646543
:100A0000783E206F7574206F662072616E67652076
:100A100028302D31290A00416363656C6572617469
:100A2000696F6E3A20500046523A0020466C6F774C
:100A30003A200020643A0020693A0020703A0049C8
:100A40006E76616C69642065787472756465720A8B
:100A50000046696C616D656E742072756E6F757499
:100A60002064697374616E636520286D6D293A2076
:100A70000046696C616D656E742072756E6F757479
:100A800020004D34323120696E636F727265637479
:100A900020706172616D6574657220757361676540
:100AA0000A004F666673657473204170706C6965E7
:100AB00064004572723A20546F6F206661722100A3
:100AC000546F6F206661722066726F6D207265666A
:100AD0006572656E636520706F696E740A004545C6
:100AE00050524F4D204F4B0A00205A323A00447565
:100AF000616C20456E6473746F702041646A757315
:100B0000746D656E7420286D6D293A2000506F77E2
:100B100065722D6C6F7373207265636F7665727981
:100B20002000446F6E65207072696E74696E672074
:100B300066696C650A004D3737004D333100D406C5
:100B4000CF06C806C106B3064572726F722077726F
:100B50006974696E6720746F20454550524F4D216E
:100B60000A004D323930004D343130004D313132D0
:100B7000004D3130380053544F505045442E200022
:100B80005072696E7465722073746F707065642042
:100B900064756520746F206572726F72732E2046C3
:100BA000697820746865206572726F7220616E6466
:100BB00020757365204D39393920746F2072657343
:100BC000746172742E202854656D7065726174753D
:100BD00072652069732072657365742E2053657485
:100BE0002069742061667465722072657374617225
:100BF00074696E67290A004E6F20436865636B73E2
:100C0000756D2077697468206C696E65206E756DEE
:100C10006265722C204C617374204C696E653A20B9
:100C200000636865636B73756D206D69736D6174C6
:100C300063682C204C617374204C696E653A200007
:100C40004C696E65204E756D626572206973206E09
:100C50006F74204C617374204C696E65204E756D05
:100C60006265722B312C204C617374204C696E6567
:100C70003A20004D313130005344207265616420C8
:100C80006572726F720A002121204B494C4C20631F
:100C90006175736564206279204B494C4C20627504
:100CA00074746F6E2F70696E0A002121204B494CBD
:100CB0004C2063617573656420627920746F6F20C6
:100CC0006D75636820696E61637469766520746907
:100CD0006D65202D2063757272656E7420636F6D73
:100CE0006D616E643A2000627573793A20706175A7
:100CF00073656420666F7220696E7075740A006295
:100D00007573793A2070617573656420666F72201F
:100D1000757365720A00627573793A2070726F6339
:100D2000657373696E670A004D3130303053004D82
:100D30006564696120496E736572746564004D363F
:100D4000303020543137004572723A20757466385D
:100D500020666F6E74206E6F7420696E69746961AD
:100D60006C697A65642E00000C0F00FE07022503F3
:100D7000BB017FFE08FE08FE05080806000040F0E3
:100D8000C88888987810050808060000C0F8888888
:100D9000888888F80505050600012030F830200510
:100DA00008080600002070F820202020E00509092E
:100DB0000600FF2070A8A8B88888702007050507DE
:100DC0000001D86C366CD80509090600FFF8A88820
:100DD00088888888A8F8050A0A0600FE2050505026
:100DE0005088A8A8887003030306000340A040FFB2
:100DF000FFFFFFFFFFFFFFFFFFFFFFFFFFFFFFFF03
:100E0000FFFFFFFFFF0000000605FF0107070602C6
:100E10000080808080800080030303060105A0A07D
:100E2000A005060606000050F85050F850050909C4
:100E30000600FF2070A8A07028A8702005070706EC
:100E40000000C8C810204098980507070600004019
:100E5000A0A040A8906801030306020580808003DB
:100E600009090601FF20404080808040402003099E
:100E7000090601FF804040202020404080050707F0
:100E800006000020A8702070A820050505060001B6
:100E90002020F820200203030601FFC04080050146
:100EA00001060003F8020202060100C0C0050707A0
:100EB00006000008101020404080050707060000CB
:100EC000708898A8C8887003070706010040C040D2
:100ED000404040E0050707060000708808102040E9
:100EE000F8050707060000F80810300888700507A5
:100EF0000706000010305090F81010050707060094
:100F000000F880F0080888700507070600003040E8
:100F100080F0888870050707060000F80810102088
:100F200020200507070600007088887088887005F3
:100F3000070706000070888878081060020505061B
:100F40000100C0C000C0C00206060601FFC0C0000C
:100F5000C0408003050506010120408040200503B4
:100F600003060002F800F803050506010180402091
:100F7000408005070706000070881020200020052B
:100F800007070600007088B8A8B880700507070634
:100F90000000708888F8888888050707060000F038
:100FA0004848704848F005070706000070888080B0
:100FB000808870050707060000F04848484848F058
:100FC000050707060000F88080F08080F805070715
:100FD000060000F88080F08080800507070600008A
:100FE00070888080988870050707060000888888C8
:100FF000F8888888030707060100E0404040404029
:10100000E005070706000038101010109060050773
:10101000070600008890A0C0A0908805070706007A
:1010200000808080808080F805070706000088D84F
:10103000A8888888880507070600008888C8A898B7
:1010400088880507070600007088888888887005EA
:101050000707060000F08888F080808005070706F3
:10106000000070888888A89068050707060000F0CF
:101070008888F0A0908805070706000070888070B7
:10108000088870050707060000F82020202020208F
:101090000507070600008888888888887005070784
:1010A0000600008888888850502005070706000041
:1010B00088888888A8A850050707060000888850F7
:1010C00020508888050707060000888850202020C7
:1010D00020050707060000F80810204080F80309E3
:1010E000090601FFE080808080808080E00507079E
:1010F000060000804040201010080309090601FF87
:10110000E020202020202020E00503030600052009
:1011100050880501010600FEF8030303060105805F
:101120004020050505060000700878887805070747
:101130000600008080F0888888F00505050600001C
:101140007080808870050707060000080878888886
:1011500088780505050600007088F080700507078F
:10116000060000304840E04040400507070600FE0A
:10117000708888887808700507070600008080F06E
:10118000888888880307070601004000C040404067
:10119000E00409090601FE100030101010109060E4
:1011A00005070706000080808890E0908803070705
:1011B000060100C04040404040E005050506000033
:1011C000D0A8A8A8A8050505060000B0C88888888A
:1011D0000505050600007088888870050707060069
:1011E000FEF0888888F080800507070600FE788872
:1011F0008888780808050505060000B0C88080804A
:1012000005050506000078807008F0050707060050
:10121000002020F8202020180505050600008888F9
:10122000889868050505060000888888502005050F
:10123000050600008888A8A8500505050600008856
:10124000502050880507070600FE888888502040F7
:1012500080050505060000F8102040F8030909067E
:1012600001FF204040408040404020010909060223
:10127000FF8080808080808080800309090601FFD4
:101280008040404020404040800503030600024863
:10129000A890FF4C6F61642053657474696E677326
:1012A0000053746F72652053657474696E677300C0
:1012B00050726F6265205A204F66667365740041F4
:1012C0006476616E6365642053657474696E6773D8
:1012D000004F6E00554E4C4F41442046494C414D05
:1012E000454E540046494C414D454E5420434841DB
:1012F0004E474500526573746F72652044656661A0
:10130000756C7473005072656865617420242043A5
:101310006F6E660052756E6F75742053656E736FD5
:1013200072004D36303020423020542569004D3750
:10133000303120542569004D373032205425690062
:10134000556E6C6F61642046696C616D656E7420CA
:101350002A00556E6C6F616420416C6C004D373013
:1013600032004C6F61642046696C616D656E74205B
:101370002A004368616E67652046696C616D656E21
:1013800074202A00436F6E74696E75650050757223
:101390006765206D6F726500524553554D45204F6E
:1013A0005054494F4E533A005052494E54205041E8
:1013B000555345440020204E6F7A7A6C653A2000E0
:1013C0004D69786572003F0043616E63656C004D46
:1013D0006F74696F6E002020456E64205A3A0025B4
:1013E00034642E2564206D6D005374617274205A2C
:1013F0003A004379636C65204D697800436F6D6DE9
:10140000697420562D746F6F6C204D697800436F9E
:101410006D706F6E656E74203D00562D746F6F6C2D
:101420007320576572652052657365740052616E52
:10143000646F6D204D6978003A64697361626C6510
:10144000003A20656E61626C65004772616469658F
:101450006E744D697800526573657420562D746FF3
:101460006F6C730041637469766520562D746F6FDD
:101470006C00456E636C6F737572650052756E6FAC
:1014800075742044697374206D6D004C6F61642025
:101490006D6D00556E6C6F6164206D6D0046696CFA
:1014A0002E204469612E004520696E206D6DC2B307
:1014B000004361703A003F5A206F7574206F6620B8
:1014C00072616E67652028003F59206F7574206F28
:1014D000662072616E676520282D003F58206F7569
:1014E00074206F662072616E676520282D0050722F
:1014F0006F6265204F6666736574205800656E7173
:1015000075657565696E672022006F6B00526573A3
:10151000656E643A200042656420436F6F6C696EAB
:10152000672E2E2E004265642048656174696E67DF
:101530002E2E2E0023646566696E65204445464163
:10154000554C545F004B6420004B6920004B7020C9
:1015500000504944204175746F74756E652066694A
:101560006E69736865642120507574207468652005
:101570006C617374204B702C204B6920616E642069
:101580004B6420636F6E7374616E74732066726F48
:101590006D2062656C6F7720696E746F20436F6E8B
:1015A00066696775726174696F6E2E680A005049CA
:1015B00044204175746F74756E65206661696C6551
:1015C00064212074696D656F75740A000A20436C8C
:1015D000617373696320504944200A00204B643AC8
:1015E0002000204B693A2000204B703A2000205404
:1015F000753A2000204B753A2000206D61783A2022
:1016000000206D696E3A200020643A200020626953
:1016100061733A2000504944204175746F74756EAF
:10162000652073746172740A0050494420417574D6
:101630006F74756E65206661696C65642120546500
:101640006D706572617475726520746F6F20686962
:1016500067680A00504944204175746F74756E655F
:1016600000504944204175746F74756E6520666141
:10167000696C6564212042616420657874727564C8
:101680006572206E756D6265720A000000A0C1006F
:101690000000000000000000009B4300009B43008E
:1016A00000C84353657474696E67732053746F7216
:1016B0006564002062797465733B20637263200067
:1016C00053657474696E67732053746F7265642018
:1016D0002800454550524F4D206461746173697A0A
:1016E00065206572726F722E0A002073746F7265C6
:1016F000642073657474696E6773207265747269AF
:1017000065766564202800202863616C63756C61D0
:1017100074656429210A0020213D2000454550526E
:101720004F4D20435243206D69736D61746368208F
:101730002D202873746F726564292000496E6465DA
:10174000783A200044494749504F5453204C6F6128
:101750006465640A0044494749504F5453204C6F14
:101760006164696E670A00204D61726C696E3D5656
:101770003832290A00454550524F4D207665727324
:10178000696F6E206D69736D6174636820284545CB
:1017900050524F4D3D0002000000000000000000CC
:1017A0000000000000000000000000000000000039
:1017B0000000000000000000000000000000000029
:1017C0000000000000000007FFC3FF870187FF0F34
:1017D000FCFFFC1E01FF8007FFC3FF87018FFF1F77
:1017E000FCFFFC1E03FFC00000C600C7018C0018F0
:1017F000000300618300C00001C600C7C18C00184F
:10180000000300618300C000038600C6C18C00187D
:10181000000301806300C000070600C6618C001849
:10182000000301806300C0000E0600C6618C001832
:10183000000301806300C0001C0600C6318FFE1F3C
:10184000F803018063FFC000380600C6318FFE0F29
:10185000FC03018063FF8000700600C6198C000045
:101860000C0301FFE30C0000E00600C6198C000029
:101870000C0301FFE3070001C00600C60D8C000049
:101880000C03018063018003800600C60D8C0000FC
:101890000C03018063018007000600C6078C00006E
:1018A0000C03018063018006000600C6078C00005F
:1018B0000C03018063018007FFC3FF86038FFF1FB6
:1018C000FC03018063018007FFC3FF860387FF1FBE
:1018D000F8030180630180000000000000000000A8
:1018E00000000000000000000000000000000000F8
:1018F00000000000000000000000000000000000E8
:1019000000000000000000000000000000000000D7
:1019100000000000000000F0004A0110013B01300F
:10192000012C01400127015001220170011D01908D
:10193000011801B0011301C0010E01F001090110ED
:101940000204013002FF006002FA009002F500C0BC
:1019500002F0000003EB004003E6008003E100D04A
:1019600003DC002004D700E004D200C005CD004015
:1019700006C800D006C3008007BE00F008B90040CA
:1019800009B400C009AF00B00AAA00B00BA500D08E
:101990000CA000000E9B00C0109600501291000099
:1019A000148C00C0158700B0178200B0197D00D0DC
:1019B0001B7800001E730040206E0090226900F02A
:1019C00024640040275F0090295A00E02B55001046
:1019D0002E500020304B0010324600E03341009082
:1019E000353C001037370070383200A0392D00B078
:1019F0003A2800A03B2300603C1E00103D190090D7
:101A00003D1400103E0F00703E0A00C03E0500006D
:101A10003F0000403FFBFF803FF6FFC03FF1FF204B
:101A200020506C616E6E65724275666665724279B1
:101A30007465733A20002046726565204D656D6FB0
:101A400072793A2000436F6D70696C65643A204E7C
:101A50006F7620203220323032300A00204C617301
:101A60007420557064617465643A20323032302DD0
:101A700031312D3032207C20417574686F723A20EC
:101A8000285A4F4E45535441522C2048616C6C7972
:101A9000290A006D61726C696E2D322E302E380A63
:101AA000004D61726C696E0020536F6674776172CD
:101AB000652052657365740A002057617463686419
:101AC0006F672052657365740A002042726F776EEB
:101AD000206F75742052657365740A002045787410
:101AE00065726E616C2052657365740A00506F7781
:101AF000657255700A006175746F25632E67004723
:101B000032385859004D31303031006572726F7281
:101B10002077726974696E6720746F2066696C65DE
:101B20000A00446F6E6520736176696E672066698E
:101B30006C652E0A004D323900456E6473746F7007
:101B4000730025532025632025632025632025630A
:101B50000020503A00656E6473746F70732068697A
:101B6000743A200020746F6F206C6F6E6720657868
:101B700074727573696F6E2070726576656E7465C8
:101B8000640A004D333033205531204525692053F8
:101B9000256900504944204175746F74756E652045
:101BA0002A005049442D44202A005049442D492000
:101BB0002A005049442D50202A0056547261762044
:101BC0004D696E00566D696E00566D617820450056
:101BD000566D6178205A00566D6178205900566D17
:101BE0006178205800416D6178204500416D617831
:101BF000205A00416D6178205900416D617820586C
:101C000000412D54726176656C00412D52657472ED
:101C100061637400416363656C004D383400417545
:101C2000746F20486F6D650054656D7065726174E6
:101C30007572650041425300504C41004261627927
:101C400073746570205A0046616E20537065656438
:101C5000004E6F7A7A6C65004D61696E004469735D
:101C600061626C6520537465707065727300486FB3
:101C70006D65205A004732385A00486F6D6520590B
:101C8000004732385900486F6D6520580047323898
:101C9000580047323800507265686561742024200E
:101CA000456E640050726568656174202420426549
:101CB0006400436F6F6C646F776E00507265686587
:101CC0006174202400546F74616C00466C6F77005F
:101CD000381C341C506F776572204F7574616765CE
:101CE00000436F6E66696775726174696F6E00524A
:101CF000756E617761792057617463683A204F4649
:101D00004600313330004245443A203130306B20B8
:101D10007769746820342E376B2070756C6C2D7564
:101D2000700052756E617761792057617463683A0B
:101D3000204F4E004D61782054656D70003237356C
:101D4000004D696E2054656D700045313A20313088
:101D5000306B207769746820342E376B2070756C77
:101D60006C2D7570005053550047656E6572696340
:101D70000050726F746F636F6C00312E30004261DF
:101D80007564003131353230300068747470733AE4
:101D90002F2F7777772E616C696578707265737312
:101DA0002E636F6D2F6974656D2F3332393635347C
:101DB00030363339362E68746D6C005A4F4E4553A9
:101DC000544152205A5249425F5636004475616C64
:101DD000205A20454E4453544F50004455414C2006
:101DE0005A2044524956455200544954414E2045C8
:101DF000585452554445520042696C696E6561728F
:101E0000204C6576656C696E670045787472756400
:101E1000657273007777772E7A6F6E65737461726F
:101E200033642E636F6D005A38545F4D3300323087
:101E300032302D31312D3032006D61726C696E2D72
:101E4000322E302E380056312E372E310054686530
:101E5000726D6973746F727300426F6172642049AE
:101E60006E666F005072696E74657220496E666F9F
:101E7000004D313030300053746F70205072696EF5
:101E80007400526573756D65205072696E740042FE
:101E900061636B0053746F700041747461636820F8
:101EA0004D65646961004D32310052656C65617346
:101EB00065204D65646961004D3232005377697465
:101EC000636820506F776572204F6666004D383129
:101ED000004368616E67652046696C616D656E746C
:101EE0000041626F7574205072696E74657200549F
:101EF000756E65005061757365205072696E74006F
:101F0000496E666F2053637265656E005061726B37
:101F1000696E672E2E2E0000005761697420666F6F
:101F2000720066696C616D656E74206368616E67CE
:101F30006500746F20737461727400576169742056
:101F4000666F720066696C616D656E7420756E6C8B
:101F50006F616400004E6F7A7A6C65206865617409
:101F6000696E6700506C6561736520776169742ED6
:101F70002E2E0000507265737320627574746F6E3C
:101F800000746F2068656174206E6F7A7A6C6500EA
:101F900000496E736572742066696C616D656E745C
:101FA00000616E6420707265737320627574746F63
:101FB0006E00746F20636F6E74696E756500576193
:101FC000697420666F720066696C616D656E74205D
:101FD0006C6F616400005072657373204275747495
:101FE0006F6E00746F20726573756D652070726915
:101FF0006E7400005761697420666F722070726998
:102000006E7400746F20726573756D652E2E2E00D0
:10201000005761697420666F720066696C616D6556
:102020006E7420707572676500006F70656E005485
:1020300052494747455245440066696C616D656E7B
:1020400074007A5F70726F6265007A325F6D696EDC
:10205000007A5F6D696E00795F6D696E00785F6D03
:10206000696E005265706F7274696E6720656E6488
:1020700073746F70207374617475730A0045310056
:10208000626564002C2073797374656D2073746FBE
:102090007070656421204865617465725F49443AD7
:1020A0002000544845524D414C2052554E41574115
:1020B0005900546865726D616C2052756E6177616C
:1020C000790048656174696E67204661696C656472
:1020D0000048656174696E67206661696C656400BB
:1020E000202D20496E76616C696420657874727564
:1020F000646572206E756D62657220210A004572FA
:10210000723A204D415854454D50004D4158544568
:102110004D5020747269676765726564004572721C
:102120003A204D494E54454D50004D494E54454D71
:10213000502074726967676572656400202F002003
:1021400042403A0020403A00001000AA03800040BC
:102150000100012C01B001220140021001F0020235
:10216000018003F8004004F500E004ED009005E470
:10217000003006DD00E006D7008007D1003008CC33
:1021800000D008C7007009C300100ABE00B00ABB27
:1021900000500BB700900CB300D00DAA00B00FA5F3
:1021A000005010A000101496009016900010198C8A
:1021B00000501A8500301C820070227800B0237510
:1021C0000040256E0020276900A0296400502A5F86
:1021D00000902B5A00D02C5500702D4F00E02E4857
:1021E000005031450030334100D03539006036377A
:1021F0000010373300F0382D00A0392700803C1C38
:1022000000403D1700F03D1100703E0A00C03E0541
:1022100000003F0000403FFBFF803FF6FFC03FF162
:10222000FF2053697A653A200043616E6E6F742017
:102230006F70656E2073756264697220005344206C
:1022400063617264206F6B0A006F70656E526F6F0E
:1022500074206661696C65640A00766F6C756D65E3
:102260002E696E6974206661696C65640A004E6F40
:1022700020534420636172640A004D323320257379
:102280000046696C652073656C65637465640A005B
:1022900046696C65206F70656E65643A2000454E36
:1022A0004420535542524F5554494E450A0022206E
:1022B000706F73002220706172656E743A22005351
:1022C0005542524F5554494E452043414C4C207481
:1022D00061726765743A220053756263616C6C20A9
:1022E0004F766572666C6F770045786365656465E7
:1022F00064206D617820535542524F5554494E45E4
:102300002064657074683A310A0044656C657469CC
:102310006F6E206661696C65642C2046696C653A55
:10232000200046696C652064656C657465643A00DC
:102330006F70656E206661696C65642C2046696CFF
:10234000653A200057726974696E6720746F206661
:10235000696C653A2000646F696E67004E6F772084
:10236000007C3C3E5E2B3D3F2F5B5D3B2C2A225C7C
:102370000000002200250028002B002E0031003430
:102380000002010000050108010B010000210024EA
:102390000027002A002D0030003300010100000456
:1023A0000107010A010505050507050808080802D7
:1023B0000202020A0A0808040404040101010101DE
:1023C0000101010303030303030303040707070CCD
:1023D0000C0C0C0C0C0C0C02020202060606060683
:1023E0000606060B0B0B0B0B0B0B0B010210202030
:1023F0000808102040102040800201020108040259
:1024000001010204081020408080402010080402CE
:102410000180040201804020100804020108040227
:10242000010102040810204080010204081020402D
:102430008020453A0020593A0024F4D43050C38E0D
:1024400020C2A24017828B7011127A910D816CD933
:102450000AA861E108C7586607615143061E4B5D33
:1024600005C145A7041A411104093D98037139318A
:10247000034036DB0265339102D4305402802E1DB6
:1024800002632CEE01752AC501B028A00110278136
:10249000018F2564012B244B01E0223401AC211F64
:1024A000018D200D01801FFC00841EED00971DDFB3
:1024B00000B81CD200E61BC600201BBC00641AB288
:1024C00000B219A8000A19A0006A189900D1179142
:1024D0000040178B00B516840031167E00B31579C5
:1024E000003A157300C7146F0058146A00EE1366A3
:1024F000008813630025135E00C7125B006C12573F
:102500000015125400C111510070114F0021114BE0
:1025100000D61049008D10470046104400021042BA
:1025200000C00F4000800F3E00420F3C00060F3BF2
:1025300000CB0E3800930E37005C0E3500270E34AA
:1025400000F30D3200C10D3100900D3000600D2EF2
:1025500000320D2D00050D2C00D90C2B00AE0C29DE
:1025600000850C29005C0C2700350C27000E0C267A
:1025700000E80B2400C40B2400A00B23007D0B23D8
:10258000005A0B2100390B2100180B2000F80A1FFC
:1025900000D90A1E00BB0A1E009D0A1D00800A1DEC
:1025A00000630A1C00470A1B002C0A1B00110A1AB0
:1025B00000F7091A00DD091900C4091900AB09194F
:1025C00000920917007B091800630917004C0916CF
:1025D0000036091600200916000A091500F508152D
:1025E00000E0081400CC081400B8081400A4081473
:1025F00000900813007D0812006B081300580812A1
:1026000000460812003408110023081100120811B6
:102610000001081100F0071000E0071000D00710BB
:1026200000C0071000B0070F00A107100091070EAF
:102630000083070F0074070F0065070E0057070E91
:102640000049070E003B070D002E070E0020070D66
:102650000013070D0006070D00F9060C00ED060D2E
:1026600000E0060C00D4060C00C8060C00BC060CEA
:1026700000B0060C00A4060B0099060C008D060B9A
:102680000082060B0077060B006C060B0061060A41
:102690000057060B004C060A0042060A0038060ADC
:1026A000002E060A0024060A001A060A001006096F
:1026B0000007060A00FD050900F4050900EB0509FD
:1026C00000E2050900D9050900D0050900C7050980
:1026D00000BE050900B5050800AD050800A50509FF
:1026E000009C050800940508008C05080084050876
:1026F000007C050800740508006C050700650508E6
:10270000005D050700560508004E05070047050750
:10271000004005080038050700310507002A0507B5
:1027200000230507001C050600160507000F050716
:10273000000805060002050700FB040600F5040773
:1027400000EE040600E8040600E2040700DB0406CD
:1027500000D5040600CF040600C9040600C3040621
:1027600000BD040600B7040600B1040500AC040671
:1027700000A6040600A00405009B040600950405BD
:1027800000900406008A0405008504050080040604
:10279000007A04050075040500700405006B04054B
:1027A0000066040500610405005C0405005704058B
:1027B00000520405004D04050048040500430405CB
:1027C000003E0404003A040500350405003004040A
:1027D000002C04050027040400230405001E040443
:1027E000001A04040016040500110404000D04047A
:1027F00000090405000404040000040400FC0304B0
:1028000000F8030400F4030400F0030400EC0304E4
:1028100000E8030400E4030400E0030400DC030414
:1028200000D8030400D4030400D0030400CC030444
:1028300000C8030300C503030024F404D9201BC40B
:102840000C5C0E9804C4095F0265077101F405F978
:1028500000FB04B30048048700C103690058035516
:102860000003034500BE023A008402310053022AED
:10287000002902250004022000E4011C00C80119FF
:1028800000AF0117009801140084011300710110BA
:10289000006101100051010E0043010D0036010BD3
:1028A000002B010B0020010B00150109000C010990
:1028B0000003010800FB000800F3000800EB00071C
:1028C00000E4000600DE000600D8000600D2000684
:1028D00000CC000500C7000500C2000500BD0004D3
:1028E00000B9000400B5000400B1000400AD00040C
:1028F00000A9000400A5000300A20003009F00043B
:10290000009B000300980003009500020093000361
:1029100000900003008D0002008B0003008800027D
:10292000008600020084000300810002007F000294
:10293000007D0002007B00020079000200770001A8
:1029400000760002007400020072000100710002B3
:10295000006F0002006D0001006C0002006A0001BF
:1029600000690002006700010066000100650001C7
:1029700000640002006200010061000100600001CB
:10298000005F0002005D0001005C0001005B0001CF
:10299000005A0001005900010058000100570001D1
:1029A00000560001005500010054000100530000D2
:1029B00000530001005200010051000100500001CD
:1029C000004F0001004E0000004E0001004D0001CC
:1029D000004C0001004B0000004B0001004A0001C8
:1029E00000490001004800000048000100470001C4
:1029F00000460000004600010045000000450001BF
:102A000000440001004300000043000100420000B8
:102A100000420001004100000041000100400001AF
:102A2000003F0000003F0001003E0000003E0001AA
:102A3000003D0000003D0001003C0000003C0000A3
:102A4000003C0001003B0000003B0001003A000098
:102A5000003A000100390000003900010038000090
:102A60000038000000380001003700000037000186
:102A7000003600000036000000360001003500007E
:102A80000035000000350001003400000034000073
:102A90000034000100330000003300000033000167
:102AA000003200000032000000320001003100005E
:102AB0000031000000310001003000000030000053
:102AC00000300001002F0000002F0000002F000048
:102AD000002F0001002E0000002E0000002E00013B
:102AE000002D0000002D0000002D0000002D000131
:102AF000002C0000002C0000002C0000002C000125
:102B0000002B0000002B0000002B0000002B000118
:102B1000002A0000002A0000002A0000002A00010C
:102B20000029000000290000002900000029000001
:102B300000290001002800000028000000280000F3
:102B400000280000002800010027000000270000E6
:102B500000270000002700000027000100260000D9
:102B600000260000002600000026000000260001CC
:102B700000250000002500000025000000250000C1
:102B800000250000002500010024000000240000B2
:102B900000240000002400000024000100230000A5
:102BA0000023000000230000002300000023000099
:102BB000002300000023000100220000002200008A
:102BC000002200000022000000220000002200017C
:102BD0000021000000210000002100000021000071
:102BE0000021000000210000002100010020000061
:102BF0000020000000200000002000000020000055
:102C0000002000000020000000200001001F000044
:102C1000001F0000001F0000001F0000001F000038
:102C2000001F0000001F0001001E0000001E000029
:102C3000001E0000001E000000A42C0000841E00E6
:102C400000B0120000870A00009E050000E90200A3
:102C5000007B010000BF00000020436F756E7420F0
:102C6000583A004E65787420436F726E6572004466
:102C70006F6E65004E65787400486F6D696E6720F1
:102C800058595A0046616465204865696768740050
:102C90004C6576656C20426564004732380A4732DD
:102CA00039004361746368205A204F666673657407
:102CB00000473239204E004C6576656C20436F72B8
:102CC0006E65727300556E7265747261637420561E
:102CD00000556E726574722E206D6D00486F702005
:102CE0006D6D005265747261637420560052657494
:102CF00072616374206D6D004175746F2D5265743F
:102D00007261637400506C65617365205265736510
:102D100074005052494E5445522048414C54454449
:102D20000025533A202553004B494C4C45442E2056
:102D3000005072696E7465722068616C7465642EEF
:102D4000206B696C6C28292063616C6C6564210AB6
:102D5000006563686F3A004572726F723A004269AB
:102D60006C696E656172204C6576656C696E672072
:102D7000477269643A0A00252900257C00203B201F
:102D800043757272656E74205A00203B20456E6454
:102D900000203B205374617274004772616469655E
:102DA0006E74204D6978200052616E646F6D204D05
:102DB000697820004D32342053256C642054256CF2
:102DC00064004739322E39204525730047312046AB
:102DD0002564004739322E39205A257300473120A7
:102DE0005A30204632303000473120582573205960
:102DF0002573204633303030004D34323020532597
:102E000069205A2573004D313036205025692053F2
:102E10002569004D31303920532569004D31393055
:102E200020532569004D323030204425730047324D
:102E30003852305859004739322E39204530205AFF
:102E4000300A47315A2573004D3432302053302038
:102E50005A300020496E76616C696420657874721E
:102E600075646572200020496E76616C6964204546
:102E7000207374657070657220002045207374653E
:102E800070706572206E6F74207370656369666917
:102E900065640A001FE02010201020101020102070
:102EA0002010201030300840048003001FE03FF065
:102EB0003FF03FF01FE01FE03FF03FF03FF00FC05A
:102EC000078003003FFFF038007030FC3020FC101A
:102ED0002078102030102C00D02E31D02F7BD02F16
:102EE0007BD02E31D02C00D020301020781020FC48
:102EF0001030FC303800703FFFF03FFFF0380070BA
:102F00003186302387102787902F87D02F03D0203A
:102F100030102078102078102030102F03D02F8709
:102F2000D02787902387103186303800703FFFF01C
:102F30001FFFF81FFFF804104002082002082004B9
:102F4000104008208010410010410008208004102B
:102F5000400000001FFFF81FFFF83300CC00CC1228
:102F6000004800481200480048120048004813FF7B
:102F7000CFFFC810000000081FFF83FFF8000FC735
:102F8000E000000FEFE0000003EF80000001EF0021
:102F90000000006C000000000000002568753A2564
:102FA0003032687500256875642025303268753ABE
:102FB000253032687500202020202020200050720B
:102FC00065737320627574746F6E20746F20726500
:102FD00073756D650A005072657373206275747441
:102FE0006F6E20746F2068656174206E6F7A7A6CE2
:102FF000650A004F46460A004661646520486569D7
:103000006768742000426564204C6576656C696E63
:103010006720004661696C656420746F20656E618D
:10302000626C6520426564204C6576656C696E67EC
:103030000A00496E76616C6964206D6573682E0ABA
:103040000056652D4A65726B00565A2D4A65726BA3
:103050000056592D4A65726B0056582D4A65726BA1
:103060000050726F62652059204F66667365740068
:1030700050726F62652058204F6666736574004514
:103080002073746570732F6D6D005A2053746570D2
:10309000732F6D6D00592053746570732F6D6D0023
:1030A000582053746570732F6D6D00496E697400FC
:1030B0004D34323800496E697469616C697A6520F3
:1030C000454550524F4D0050726F6265204F666605
:1030D0007365747300416363656C65726174696FD5
:1030E0006E0056656C6F636974790053657420488F
:1030F0006F6D65204F6666736574730050726F6202
:10310000696E6720506F696E740025532025692F02
:1031100025690050726F62696E67206D6573682063
:10312000706F696E7420004F66667365742063610A
:1031300074636865642021006661696C2C206D6190
:103140006E75616C206C6576656C004661696C21FA
:10315000204D6F766520646F776E2050726F6265C8
:103160002E00546F206361746368206F6666736518
:103170007400202844525952554E290047323920B4
:103180004175746F20426564204C6576656C696E8C
:1031900067003F20284C2C522C462C4229206F756A
:1031A00074206F6620626F756E64732E0A003F286C
:1031B00056296572626F7365206C6576656C20694F
:1031C0006D706C61757369626C652028302D3429CF
:1031D0002E0A00426164205A2076616C75650A00EF
:1031E0004E6F2062696C696E6561722067726964F6
:1031F0000A00204D393220580020204D61783A20B5
:103200000020204D696E3A2000536F667420656E71
:103210006473746F70733A20005072696E74204149
:10322000626F72746564004D323520500A4D32343D
:103230000050617573696E672E2E2E00205A3A2059
:103240000020593A200042656420583A200050720C
:10325000696E74205061757365640050726F6269A5
:103260006E67204661696C65640A0050726F62691E
:103270006E67204661696C656400486F6D65202546
:10328000732573257320466972737400496E7365E4
:1032900072742066696C616D656E7420616E642065
:1032A000707265737320627574746F6E0A002057B4
:1032B0003A005A38545F4D332052656164792E00CC
:1032C0005072696E74696E672E2E2E00220A0055A8
:1032D0006E6B6E6F776E20636F6D6D616E643A20FA
:1032E00022005374617274205072696E74004361DD
:1032F0006E6E6F7420656E7465722073756264699A
:10330000723A2000022E2E000152656672657368C3
:103310000052657665727365204772616469656EF7
:1033200074002020456E6420562D746F6F6C00531E
:103330007461727420562D746F6F6C005761726ED9
:10334000696E673A20486F6D696E672042756D70CF
:103350002044697669736F72203C20310A00206C2A
:10336000696D6974656420746F2000204D61782058
:103370000000004842000048420000804002020471
:103380000000A0400000A040000000400000A54355
:1033900000009B430000C843FFFFFF20520045454B
:1033A00050524F4D20496E697469616C697A656449
:1033B0000A0048617264636F6465642044656661F5
:1033C000756C742053657474696E6773204C6F61FB
:1033D0006465640A003B200020204D363033200015
:1033E00020204D34313220530046696C616D656E8A
:1033F000742072756E6F75742073656E736F723A98
:103400000020550046696C616D656E74206C6F61BB
:10341000642F756E6C6F6164206C656E6774687381
:103420003A0020204D3835312058005A2D50726F07
:103430006265204F66667365740020204D32303916
:103440002053004175746F2D526574726163743A34
:1034500020533D3020746F2064697361626C652C69
:10346000203120746F20696E7465727072657420EB
:10347000452D6F6E6C79206D6F76657320617320BA
:10348000726574726163742F7265636F7665720022
:1034900020204D3230382053005265636F766572BC
:1034A0003A20533C6C656E6774683E20463C756EEE
:1034B0006974732F6D3E0020570020204D32303745
:1034C000205300526574726163743A20533C6C65FA
:1034D0006E6774683E20463C756E6974732F6D3E4E
:1034E000205A3C6C6966743E0020204D34313320F4
:1034F0005300506F7765722D4C6F73732052656364
:103500006F766572793A0020204D333031205000BB
:103510005049442073657474696E67733A0020469D
:103520000020480020204D3134352053004D617477
:10353000657269616C206865617475702070617274
:10354000616D65746572733A0020204D3636360021
:10355000456E6473746F702061646A7573746D6511
:103560006E743A00204A0020204732392057204903
:103570000020204D3432302053004175746F2042BA
:103580006564204C6576656C696E673A0020204D55
:10359000323036205800486F6D65206F666673655F
:1035A000743A0020204D323035204200416476616B
:1035B0006E6365643A20423C6D696E5F7365676D4A
:1035C000656E745F74696D655F75733E20533C6D05
:1035D000696E5F66656564726174653E20543C6D1A
:1035E000696E5F74726176656C5F66656564726151
:1035F00074653E20583C6D61785F785F6A65726BD8
:103600003E20593C6D61785F795F6A65726B3E2040
:103610005A3C6D61785F7A5F6A65726B3E20453C0B
:103620006D61785F655F6A65726B3E0020540020B3
:10363000204D323034205000416363656C65726107
:1036400074696F6E2028756E6974732F7332293A0E
:1036500020503C7072696E745F616363656C3E20DC
:10366000523C726574726163745F616363656C3E42
:1036700020543C74726176656C5F616363656C3E77
:103680000020204D3230312058004D6178696D7531
:103690006D20416363656C65726174696F6E20288B
:1036A000756E6974732F7332293A0020204D3230C1
:1036B000332058004D6178696D756D2066656564CD
:1036C00072617465732028756E6974732F73293A5B
:1036D0000053746570732070657220756E69743A5A
:1036E0000020440020204D32303020530020446917
:1036F0007361626C65640A0046696C616D656E7425
:103700002073657474696E67733A0020204D3134FC
:10371000392043203B20556E69747320696E204325
:10372000656C736975730A0020286D6D290020206F
:10373000473231202020203B20556E697473206968
:103740006E206D6D000000FA430000FA430000A0F7
:10375000400000C8420000A0420000A0420000C893
:10376000430000C843B80B0000B80B000064000021
:1037700000102700005072696E742066726F6D2011
:103780004D65646961004D6F76652025736D6D0030
:103790004D6F766520302E316D6D004D6F76652052
:1037A000316D6D004D6F76652031306D6D004D6F60
:1037B0007665204178697300457874727564657226
:1037C000004D6F7665205A004D6F76652059004D8B
:1037D0006F766520580000000A0B02090C0D0E08D8
:1037E00007030401000000000000000000000000CA
:1037F00000000000000000000000000000000000C9
:103800000000121110000000000000000000000085
:10381000000000000000000000000000210239024A
:1038200011241FBECFEFD1E2DEBFCDBF00E00CBF41
:1038300013E0A0E0B2E0ECE0FDE902E00BBF02C063
:1038400007900D92A434B107D9F726E1A4E4B3E0C0
:1038500001C01D92AC3BB207E1F71CE1CFE0DCE117
:1038600000E006C021970109802FFE010F94DC4B78
:10387000CE30D10780E00807A9F70F947C360D946D
:10388000744E0C9400002F923F924F925F926F9271
:103890007F928F929F92AF92BF92CF92DF92EF92E0
:1038A000FF920F931F93CF93DF93CDB7DEB7A79708
:1038B0000FB6F894DEBF0FBECDBF8FA32091C51405
:1038C0002EA321E02093C514809127048D3409F4A0
:1038D000D0C3843511F40C94D92D873411F00C9495
:1038E000042E80912504909126048B31910509F4D2
:1038F00063C1F4F488309105D1F14CF497FDB5C360
:1039000082309105A4F1049709F412C1AEC38B3043
:10391000910509F44CC18531910511F40C94062EE2
:103920000A9709F0A2C381E00E94C3DA0C94062E24
:103930008A32910509F4B9C254F48D31910509F424
:1039400065C10CF453C14E9709F47EC18EC38B350B
:10395000910509F4F4C18C35910509F4F5C18A3556
:10396000910509F082C31092F5140C94062E8091F3
:10397000B406813011F00C94062E19821A821B8233
:103980001C82CE0101965C012BEFE22E25E1F22E86
:1039900006E512E033E0C32E30E1D32E912C88E50A
:1039A000890D0E949BF6F50181935F01882311F137
:1039B0000E9440F42B013C01892D0E948DE3882355
:1039C00051F0F8012081318142815381C301B2015C
:1039D0000F94E54B09C0F60120813181428153816A
:1039E000C301B2010F94E44BF701608371838283BA
:1039F00093830AC0F80180819181A281B381F7018C
:103A000080839183A283B3839394F4E0EF0EF11C3F
:103A10000C5F1F4F24E0C20ED11C33E09312BFCFC6
:103A200085E40E949BF68C83882301F10E9440F478
:103A30006B017C0183E00E948DE3882371F020916B
:103A40006202309163024091640250916502C701A5
:103A5000B6010F94E54B6B017C01C0920716D09222
:103A60000816E0920916F0920A1610C080916202C0
:103A700090916302A0916402B09165028093071651
:103A800090930816A0930916B0930A1680914516D4
:103A9000882381F08091D71082FF0CC08C8188230D
:103AA00049F08981811103C08A81882319F080E05F
:103AB0000F94661540E050E0BA0186E40E94F55C80
:103AC00020E030E0A9010F94684D181684F40E949C
:103AD00040F420E030E040E752E40F94684C6093FB
:103AE0008D0270938E0280938F029093900280914A
:103AF0002416882311F40C94412E85E40E9477F457
:103B0000882311F40C94412E88E50E9477F48111EA
:103B10000C94412E89E50E9477F481110C94412E7A
:103B20008AE50E9477F481110C94412E0C940F2E9B
:103B300080E50E949BF6882329F00F94B0036B0167
:103B40007C0103C0C12CD12C760183E50E949BF639
:103B5000882361F00E9440F420E030E04AE754E41A
:103B60000F9447450F94E14C6B017C010F9496260E
:103B700080915414811105C060E089ED96E00F94A6
:103B80008D100F945D34C60ED71EE81EF91E0F94DB
:103B90005D34DC01CB018C199D09AE09BF09B7FD6D
:103BA00002C00C94062E80E00E943033F0CF80E0FB
:103BB0000E94C3DA0C94062E0F94591981110C94AB
:103BC000062E8CE0ECE9F2E0DE01119601900D92F8
:103BD0008A95E1F760E070E080E50E9437EABE0177
:103BE0006F5F7F4F0F94E80B0C94062E8091C314E7
:103BF0008770873011F00C946C2E60E08FE40E9487
:103C0000A8F681110C94062E0C946C2E0F945D3442
:103C10006093B40C7093B50C8093B60C9093B70C72
:103C20000F94591981110C94062E8091FA1488234F
:103C300011F40C94DC2E60E08FE40E94A8F6811150
:103C40000C94062E0C94DC2E2091B7143091B814ED
:103C50004091B9145091BA14609156027091570274
:103C600080915802909159020F94E54BAB01BC0131
:103C700088E50E94F55C69837A838B839C8320911D
:103C8000BB143091BC144091BD145091BE1460918E
:103C90005A0270915B0280915C0290915D020F94D8
:103CA000E54BAB01BC0189E50E94F55C6D837E8329
:103CB0008F839887BE016B5F7F4FCE0101960F9473
:103CC0002B04882311F40C94062E80E00E94EDDD75
:103CD0000E946F9E61E085E40E94A8F601E021E069
:103CE000482FBE016B5F7F4FCE0101960F94111AD2
:103CF0006B017C019B01AC010F94E64D811119C051
:103D000049815A816B817C8186E492E30E9432E290
:103D10004D815E816F81788581E492E30E9432E279
:103D2000B701A6018CE392E30E9432E28AE00E948E
:103D300004320E94569E0E94D2A00C94062E8FE060
:103D40008093F5140C94062E80912404882349F165
:103D5000893009F0A6C083E1A82E83E0B82E96E54D
:103D6000E92E92E0F92ED12C00E010E0F5018191CE
:103D70005F010E949BF6882369F00E9440F4F701DE
:103D80006083718382839383133011F401E002C056
:103D9000DD24D3941F5FF4E0EF0EF11C143031F7F3
:103DA00075C0B3E12B2EB3E03B2E1BE0E12E15E1F5
:103DB000F12E26E532E03DA32CA303E0C02E00E166
:103DC000D02E00E010E0F10181911F010E949BF6CE
:103DD000882309F44AC00E9440F42B013C011330AF
:103DE00049F0F60120813181428153810F94E44BE7
:103DF0002B013C01ECA1FDA1208131814281538145
:103E0000C301B2010F94E44B4B015C012DEB37E38E
:103E100046E855EB0F94684D87FD0AC02DEB37E35C
:103E200046E855E3C501B4010F94E1441816ECF4DB
:103E3000133051F440926202509263026092640225
:103E40007092650201E011C0A5019401F701608143
:103E50007181828193810F94E54BF70160837183B7
:103E600082839383812F0F94CC2A1F5FF4E0EF0E9F
:103E7000F11C2CA13DA12C5F3F4F3DA32CA334E0AE
:103E8000C30ED11C143009F09ECF05C0DD2019F0FF
:103E90000E94D0A006C0002321F082E692E00F9499
:103EA00039290E94D2A00C94062E8091B40681304C
:103EB00011F00C94062E89E40E949BF6E82E8823CC
:103EC00021F00E943CF4082F01C000E08AE40E9427
:103ED0009BF6F82E882321F00E943CF4182F01C095
:103EE00010E0EE2011F0043020F4FF2041F01430F7
:103EF00030F082EE96E00E9471E10C94062E80E193
:103F0000E6E5F2E0ABEFB5E101900D928A95E1F7BD
:103F1000EE2019F1602F000F770B880B990B0F948F
:103F2000E8442091141630911516409116165091C0
:103F300017160F9447452091B8043091B904409169
:103F4000BA045091BB040F94E54B6093FB1570933A
:103F5000FC158093FD159093FE15FF2019F1612F3C
:103F6000110F770B880B990B0F94E84420911816CA
:103F70003091191640911A1650911B160F9447450F
:103F80002091BC043091BD044091BE045091BF0407
:103F90000F94E54B6093FF15709300168093011604
:103FA0009093021660E080E50E94A8F68823C1F194
:103FB000EE20D1F02091B7143091B8144091B9148B
:103FC0005091BA146091FB157091FC158091FD150C
:103FD0009091FE150F94E44B6093FB157093FC15C4
:103FE0008093FD159093FE15FF20D1F02091BB1416
:103FF0003091BC144091BD145091BE146091FF15D6
:104000007091001680910116909102160F94E44B66
:104010006093FF157093001680930116909302161B
:1040200040E050E0BA0186E40E94F55C6B017C013F
:1040300020E030E0A9010F94684D18164CF420E000
:1040400030E040E752E4C701B6010F94684C03C06A
:1040500060E070E0CB0169837A838B839C83CE011F
:1040600001960E948E9E0C94062E0F947A160C9444
:10407000062E80912504909126048B39910509F430
:10408000F0C50CF015C18335910509F429C60CF073
:1040900082C08A31910509F446C3BCF5843191058B
:1040A00009F499C27CF48131910509F480C22CF4A1
:1040B000029708F444C20C94D62D429709F417C60F
:1040C0000C94D62D8731910509F4BAC294F4853148
:1040D000910509F4B1C2469711F00C94D62D0E94B7
:1040E0008CB18091D710877F80628093D7100C9419
:1040F000062E8831910509F4B8C2499711F00C9445
:10410000D62D0E945DE90C94062E8032910509F4AB
:1041100082C3F4F48D31910509F466C384F48B31C4
:10412000910509F40EC34C9711F00C94D62D809193
:104130002204909123040E94C5B40C94062E8E3163
:10414000910509F458C34F9709F48EC30C94D62DEA
:104150008D34910509F437C46CF48B34910509F45E
:104160002EC48C34910511F00C94D62D0E946CA2B3
:104170000C94062E8135910509F49CC58235910574
:1041800011F00C94D62D8091F5148F7D8061809371
:10419000F5140C94062E8037910509F410C5E4F54A
:1041A0008A36910509F46AC4CCF48C35910509F47A
:1041B000F7C554F48435910509F499C58535910501
:1041C00009F4CBC50C94D62D8836910509F4FFC3AC
:1041D0008936910509F43EC40C94D62D8D3691058F
:1041E00009F416C47CF48B36910509F485C48C3629
:1041F000910511F00C94D62D1092C41410928B02DC
:104200000C94062E8E36910509F481C48F369105E3
:1042100009F490C40C94D62D8737910509F423C76F
:104220003CF58337910509F459C68CF48137910523
:1042300009F4CEC48237910511F00C94D62D0E945A
:10424000B9C084E690E10E9419C60C94062E853709
:10425000910509F4C5C68637910511F00C94D62D49
:10426000009122041091230494E0F12C40E0DFC679
:104270008D37910509F41BC58CF48837910509F435
:10428000F5C68937910511F00C94D62D1092E004F3
:104290001092DF040E94EAA10C94062E8C3891053E
:1042A00009F4BBC48139910509F4E8C60C94D62DF4
:1042B0008139E1E09E0711F40C94D12B0CF087C0FA
:1042C0008E3C910511F40C94BA29D4F58E3B9105DE
:1042D00009F4C4C4C4F4843A910509F45FC734F402
:1042E000833A910509F43EC70C94D62D863A910580
:1042F00009F467C7873A910511F00C94D62D0E94F6
:104300004AEA0C94062E8B3C910509F4E3C754F459
:10431000883C910509F458C7893C910509F499C76F
:104320000C94D62D8C3C910511F40C9489298D3C6C
:10433000910511F00C94D62D0F94C0030C94062E09
:104340008D3D910511F40C949D2AF4F4813D910565
:1043500011F40C94662A64F48F3C910511F40C94CA
:10436000D829803D910511F40C941C2A0C94D62D6B
:10437000833D910511F40C94732A8C3D910511F441
:104380000C94762A0C94D62D8D3221E0920711F4EC
:104390000C944E2B6CF48232E1E09E0711F40C94E5
:1043A000F22A8C32914011F40C94392B0C94D62DB6
:1043B0008F3221E0920711F40C94CE2B803991407A
:1043C00011F00C94D62D0F9496260C94062E883F4F
:1043D000E1E09E0711F40C94D92C0CF057C0853AFB
:1043E00021E0920711F40C94032C2CF58C39E1E0B8
:1043F0009E0711F40C94DD2B7CF4823921E09207A6
:1044000011F40C94D72B8A39914011F00C94D62DCD
:104410000E9424310C94062E8D39E1E09E0711F4A0
:104420000C949B2D843A914011F00C94D62D0E944F
:10443000C5F40C94062E853F21E0920711F40C94EC
:10444000D32C7CF48C3AE1E09E0711F40C94762C8A
:10445000843F914011F00C94D62D0E94D8670C94A3
:10446000062E863F21E0920711F40C94D62C873F4C
:10447000914011F00C94D62D61E083E50E94A8F6DE
:1044800091E089270F94702E0C94062E8E3BE2E06B
:104490009E0711F40C94872D2CF58B3522E09207A2
:1044A00011F40C94F62C7CF48C30E2E09E0711F4AD
:1044B0000C94E92C8835924011F00C94D62D0E9472
:1044C0004BE80C94062E8A3922E0920711F40C94E2
:1044D0006E2D8D3B924011F00C94D62D0E94FAE681
:1044E0000C94062E873EE3E09E0711F40C948D2D6C
:1044F000CCF4833523E0920711F40C948A2D803A92
:10450000934011F00C94D62D209122043091230475
:104510009091D71092609093D710C9010E94C5B4B2
:104520000C94062E883EE3E09E0711F40C94B52D02
:10453000893E934011F40C94B82D0C94D62D80E54F
:104540000E949BF6882329F00F94B0036B017C0135
:1045500003C0C12CD12C760183E50E949BF68823F1
:1045600061F00E9440F420E030E04AE754E40F9408
:1045700047450F94E14C6B017C010F949626809186
:10458000220490912304009721F061E00F942311FD
:1045900005C060E08BEF96E00F948D1040E0C701FE
:1045A000B6010E9488380F94CB160C94062E809189
:1045B000280484FF02C00C94DF2E80912A0487FF18
:1045C00002C00C94DF2E80912B04837011F00C94A8
:1045D000DF2E0C94FD2E8091D71083FF25C086E23C
:1045E00097E00E9471E18091D71083FF17C084EF9C
:1045F00090E10E9455BD8BE1E4EFF0E1DE01119600
:1046000001900D928A95E1F760E070E0CE0101968D
:104610000E94E9B5CE0101960E94D5F687E197E0A8
:104620000E9471E10C94062E0E9467E287E397E0F6
:104630000E9471E10C94062E0E944BB20C94062E3F
:10464000E0912204F09123048081882329F08032B4
:1046500009F410823196F8CF60E0809122049091A5
:1046600023040E940DB50C94062E83E50E949BF650
:10467000882321F00E9408F40E94236384E50E94AD
:104680009BF68823A9F00E9408F46B017C010E942C
:104690002DA2C0921E0DD0921F0DE092200DF0921F
:1046A000210DCD28CE28CF2819F081E08093EE147B
:1046B0008091690D8823F9F080E090E0A8E4B2E4ED
:1046C00088A399A3AAA3BBA31C8E1D8E1E8E1F8E2A
:1046D00019821A821B821C8200E010E020E0AE01E9
:1046E000405E5F4FBE01645E7F4FCE0101960E9427
:1046F0007CF70C94062E0E944931882381F00E9499
:104700009DB10E9448A28EE795E10E9442B11092AD
:104710002C0410922D0410922E0410922F040F944A
:10472000CB160C94062E8091D71083FD02C00C94FA
:10473000062E83E50E949BF681110C940D2F0C949C
:10474000062E83E40E9477F4882319F18BE497E026
:104750000E9471E180913B12882391F0BE016F5F4E
:104760007F4F88E392E10E9421BD8E010F5F1F4FB2
:10477000F80181918F01882339F00E940432F8CF2B
:1047800081E497E00E9471E18AE00E9404320C9477
:10479000062E8091D71082FF21C08AE597E00E9403
:1047A00071E16091D3107091D4108091D5109091E7
:1047B000D6104AE00E940B328FE20E9404326091D0
:1047C000CF107091D0108091D1109091D2104AE00A
:1047D0000E940B320E9409330C94062E8CE697E05F
:1047E0000E9471E10C94062E8091D7108E7F8093E9
:1047F000D7100C94062E8091D71083FD02C00C9424
:10480000062E0F94631680912204909123040E9437
:1048100023B40C94062E8091D71082FD0F94962617
:104820008091D71083FD02C00C94062E60E080E5D5
:104830000E94A8F6182F682F8091220490912304DB
:104840000E940DB583E50E949BF6882321F00E940B
:1048500008F40E9423630E949DB111110C94062E4E
:104860000E9448A20C94062E0E94F9A17B018C01A3
:1048700020E831E541E050E00F94374BC9016DE687
:1048800071E00F94B44B4B015C01C801B70120E10A
:104890003EE040E050E00F94374BCA01B90128E1F7
:1048A00030E040E050E00F94374B762E672EC62E56
:1048B000D72EACE32A2E312C412C512CC801B70144
:1048C000A20191010F94374BF62EE72ECA01B901D0
:1048D000A20191010F94374BCB018E010F5F1F4F47
:1048E0008114910499F0EF92FF927F936F936F92EE
:1048F0007F92BF92AF929F928F928DE797E09F93A6
:104900008F931F930F930F94794413C0A114B10494
:10491000B1F0EF92FF927F936F936F927F92BF926D
:10492000AF9281E897E09F938F931F930F930F941B
:1049300079440FB6F894DEBF0FBECDBF30C0CD288E
:1049400079F0EF92FF927F936F936F927F9285E859
:1049500097E09F938F931F930F930F947944E9CF20
:10496000892B69F0EF92FF927F936F9389E897E02C
:104970009F938F931F930F930F947944DACFEF9205
:10498000FF928DE897E09F938F931F930F930F945F
:1049900079440F900F900F900F900F900F9060E060
:1049A000C8010F9423110E9467E2B80181E997E0E2
:1049B0000E9450E28AE00E9404320C94062E0E946B
:1049C00048A20C94062E0E9481A20C94062E80917F
:1049D0006B0C83FF02C00C94062E89E40E949BF6A8
:1049E000882311F40C94122F0E9418F490E01816EA
:1049F000190614F481E090E026E0289FF001299F39
:104A0000F00D1124EA5BF94E808191810C941D2FE9
:104A100080916B0C83FF02C00C94062E89E40E94E7
:104A20009BF6882311F40C94242F0E9418F490E034
:104A30001816190614F481E090E026E0289FF00192
:104A4000299FF00D1124EA5BF94E8081918110E0DD
:104A50000C94352F0E9464E3182F87FD0AC08AE06A
:104A600095E10E9471E1812F0E942CA78AE00E94AB
:104A700004323EA13093C5140C94C13060E080E54F
:104A80000F94EC0581110C94062E81E40E9477F4BA
:104A9000882329F060910107062F10E002C00FEF74
:104AA00010E089E40E949BF6882399F00E9418F494
:104AB00090E01816190614F481E090E026E0289F93
:104AC000F001299FF00D1124EA5BF94E0481158154
:104AD00008C083E50E949BF6882319F00E9408F421
:104AE0008B01B8010F3F110519F010F06FEF70E066
:104AF000609301070C94062E60E080E50F94EC05AE
:104B000081110C94062E109201070C94062E8EE44F
:104B10000E949BF6882311F40C94062E0E9408F440
:104B20006093B4047093B5048093B6049093B70473
:104B30000C94062E83E50E9477F4882331F060E020
:104B400083E50F94EC0580936B0C0E9467E287EA83
:104B500097E00E9471E180916B0C882369F1FEE37C
:104B6000EF2EFBE0FF2E00E010E020E080916B0CC8
:104B700090E0A0E0B0E0002E04C0B695A795979510
:104B800087950A94D2F780FF0EC0DD24D394D20E0D
:104B9000222319F08CE20E940432F701859194914E
:104BA0000E9471E12D2D0F5F1F4F82E0E80EF11C76
:104BB00005301105D9F6E8CD83EA97E0E3CD41E071
:104BC00060E070E08EEA97E00E946BE20C94062EA3
:104BD00083E50E949BF6882381F00E9418F4282F19
:104BE00030E02D33310524F4809300020C94062E1E
:104BF0008CE3809300020C94062E0E9467E24091A1
:104C0000000250E060E070E08CEB97E00E9414E25C
:104C10008AE00E9404320C94062E80916B0C83FF74
:104C200002C00C94062E89E40E949BF6882311F49E
:104C30000C94762F0E9418F490E01816190614F4BC
:104C400081E090E026E0289FF001299FF00D1124DB
:104C5000EA5BF94E628173810C94802F0E942D6172
:104C6000D5C783E50E949BF6882309F4CFC70E942D
:104C700018F4182F90E0CD970CF01CE31093490323
:104C80000F945D346B017C01212F30E0A8EEB3E07E
:104C90000F948B4BC60ED71EE81EF91EC09245031B
:104CA000D0924603E0924703F0924803AFC70E94B8
:104CB0005DE9ACC70E94EFA70E9481A20F94A726CE
:104CC0000E946D3168EE73E080E090E00E944DE15B
:104CD0000E94703160E083EC97E00F948D1096C7CE
:104CE0008091F5148F7E80628093F5148FC783E5E1
:104CF0000E949BF68823E9F00F945D346093B40C16
:104D00007093B50C8093B60C9093B70C0E9440F44E
:104D100020E030E04AE754E40F9447450F94E14C1B
:104D20006093010270930202809303029093040245
:104D30006DC78091280484FF02C00C94912F80914C
:104D40002A0487FF02C00C94912F80912B0483705A
:104D500011F00C94912F0C94C32F83E50E9477F4EB
:104D6000882309F453C70F945D346093B40C709397
:104D7000B50C8093B60C9093B70C0E9440F420E0E1
:104D800030E04AE754E40F9447450F94E14C6093B8
:104D90004A0370934B0380934C0390934D0336C7A3
:104DA0000E9464E387FD32C79091280494FD04C0FB
:104DB00090912A0497FF0AC073E1C72E73E0D72EA3
:104DC000ECE6EE2EECE0FE2E10E009C090912B04F4
:104DD000937091F7682F81E00F94750317C7F60160
:104DE00081916F010E949BF6882309F46DC01330F6
:104DF00009F063C00E9440F44B015C0120E030E008
:104E000040EA51E40F94E14487FF4EC0A5019401AC
:104E100060918C0C70918D0C80918E0C90918F0C08
:104E20000F94684C2B013C019B01AC016091E5069D
:104E30007091E6068091E7069091E8060F94474549
:104E40006093E5067093E6068093E7069093E80684
:104E5000A301920160919C0C70919D0C80919E0C1D
:104E600090919F0C0F94474560939C0C70939D0C00
:104E700080939E0C90939F0C6091F5067091F606BE
:104E80008091F7069091F8060F94E644A3019201F1
:104E90000F9447450F94E14C6093F5067093F60626
:104EA0008093F7069093F80680928C0C90928D0C6C
:104EB000A0928E0CB0928F0C07C00E9440F4F701B4
:104EC000648B758B868B978B1F5FF4E0EF0EF11C64
:104ED000143009F084CF0F94722698C68AE199E0C5
:104EE0000E9471E160E08AE099E00E94FE6660E065
:104EF00085EF98E00E94FE6661E080EC90E30E94FE
:104F0000FE6661E08AEE98E00E94FE6661E08AED4E
:104F100098E00E94FE6660E081ED98E00E94FE66E7
:104F200061E087EC98E00E94FE6661E08DEB98E01E
:104F30000E94FE6661E086EB98E00E94FE6661E0FA
:104F40008EEA98E00E94FE6661E080EA98E00E94A6
:104F5000FE6660E082E998E00E94FE6660E083E819
:104F600098E00E94FE6660E085E798E00E94FE6699
:104F700060E08FE598E00E94FE6660E08EE498E0D5
:104F80000E94FE6660E08FE398E00E94FE6661E0AA
:104F900088E398E00E94FE6660E083E298E00E9469
:104FA000FE6660E085E198E00E94FE6660E082E0D7
:104FB00098E00E94FE6660E085EF97E00E94FE6642
:104FC00060E080EF97E00E94FE6661E083EE97E08C
:104FD0000E94FE6660E08FEC97E00E94FE6616C6B7
:104FE0008091220490912304009709F498CBFC014E
:104FF0002081222309F493CB60E00F94231106C68D
:10500000F8018081282F2B7F2134A1F08035F1F425
:10501000F801818180538A30C8F498012E5F3F4F98
:1050200089012F5F3F4FF80180818032C9F3915091
:1050300039F70CC02181213349F4813421F08534C2
:1050400061F741E0EACFFF24F394E7CF41110E94DA
:1050500067E2FF2021F081EF99E00E9471E1C80131
:105060000E940F33D3C50E94AFA1D0C581E08093C9
:10507000E0048093DF040E94EAA1C8C560E070E00C
:1050800083E50F94DD05823038F00E9463E285EFFE
:1050900099E00E9471E1BAC58C01112788E40E9451
:1050A0009BF68823E1F00E943CF48A3A910544F093
:1050B0000E943CF48530914034F40E943CF405C0D9
:1050C0008AEA90E002C084E091E026E0209FF001AF
:1050D000219FF00D1124EA5BF94E9183808382E4D5
:1050E0000E949BF68823D9F00E943CF4059744F077
:1050F0000E943CF48937910534F40E943CF405C0C9
:1051000085E090E002C088E790E026E0209FF00173
:10511000219FF00D1124EA5BF94E9383828386E48C
:105120000E949BF6882309F471C50E943CF497FD08
:1051300009C00E943CF48F3F910509F034F40E94AD
:105140003CF405C080E090E002C08FEF90E026E0E4
:10515000209FF001219FF00D1124EA5BF94E958309
:10516000848354C560E070E083E50F94DD058C0115
:10517000833091056CF460E070E080E50F94DD050C
:105180001127F801E450FC4E80830E9424FC3EC5A8
:1051900041970CF43BC50E94BCFC38C56FEF7FEF14
:1051A00083E50F94DD0597FD07C0803191050CF074
:1051B0002DC50E9466DA2AC5809148070E9466DAEA
:1051C00025C50E9403EB22C50E9464E3182F87FDCA
:1051D0001DC500910A1584E40E949BF6882309F4FA
:1051E000D5C60E9440F46B017C0120E030E0A901AB
:1051F0000F94E144882339F124E01202F0011124D4
:10520000EA5FFA4EC082D182E282F38220E030E08F
:10521000A90160910615709107158091081590916C
:1052200009150F94E14481110CC080E090E0A0EEDC
:10523000BFE38093061590930715A0930815B093CC
:10524000091501E0A3C680E080930A150F941F247E
:10525000DDC40E9464E387FDD9C453E1C52E53E049
:10526000D52E6CE6E62E6CE0F62E10E0F60181916C
:105270006F010E9477F4882331F10E9440F46C8F13
:105280007D8F8E8F9F8F80E1E8EAF2E0DE0111963C
:1052900001900D928A95E1F79E012F5F3F4F45EDFA
:1052A00050E3612FCE014C960F9462256C8D7D8D5D
:1052B0008E8D9F8D0F94E14CF70160837183828303
:1052C00093830F942B261F5FF4E0EF0EF11C143034
:1052D00069F69CC40E9464E387FD98C443E1E42E10
:1052E00043E0F42E0CE61CE0F70181917F010E945F
:1052F00077F4882339F00E9440F4F80164A375A381
:1053000086A397A30C5F1F4FFCE00C371F0761F7C4
:105310007DC48091290487FD3EC680912A048E7049
:1053200009F039C64091A00C5091A10C6091A20CDB
:105330007091A30C87E19AE00E9432E24091A40CA4
:105340005091A50C6091A60C7091A70C8BE993E38A
:105350000E9432E24091A80C5091A90C6091AA0CD5
:105360007091AB0C8CE296E30E9432E28AE00E94DC
:1053700004324CC437E1E32E35E1F32E10E088E52A
:10538000810F0E9477F4882351F00E9440F4F701C6
:105390006083718382839383812F0F94CC2A1F5F54
:1053A000F4E0EF0EF11C133051F70E94D2A02EC48E
:1053B00083E50E9477F4882351F00E9440F46093C3
:1053C000251670932616809327169093281686E448
:1053D0000E9477F4882381F00E9440F420E030E0BE
:1053E00040E752E40F94684C6093291670932A1694
:1053F00080932B1690932C168AE50E9477F48823CD
:1054000051F00E9440F460932D1670932E168093F5
:105410002F169093301687E50E9477F4882309F4BD
:10542000F5C30E9440F46093391670933A16809346
:105430003B1690933C16EAC383E50E9477F48823D9
:1054400051F00E9440F460933116709332168093AD
:1054500033169093341686E40E9477F4882381F003
:105460000E9440F420E030E040E752E40F94684CA2
:1054700060933516709336168093371690933816CE
:1054800082E50E9477F4882381F00E9440F420E0B6
:1054900030E040E752E40F94684C609341167093FB
:1054A0004216809343169093441687E50E9477F442
:1054B000882309F4ABC30E9440F460933D167093B7
:1054C0003E1680933F1690934016A0C383E50E943A
:1054D00077F4882309F49AC30E942CF4809324164D
:1054E0000E94F7E293C30F948D0290C383E50E945C
:1054F0009BF6882331F00E943CF490934A028093FB
:1055000049028091280490912904A0912A04B09125
:105510002B04892B8A2B8B2B09F078C360914902CD
:1055200070914A0287E29AE00E9443E285E20E947B
:1055300004328AE00E94043269C30E9464E3F82EB8
:1055400087FD64C383E50E949BF60F2D0F2C000C92
:10555000110B882361F10E943CF4F801EE0FFF1F4C
:10556000EF56FD4F91838083000F111F000F111F15
:105570009801215C3D4F7901BC01990F880B990B73
:105580000F94E8442AE037ED43E25CE30F9447458B
:10559000F801E55FF94E20813181428153810F94FA
:1055A0004745F70160837183828393832FC30E94F1
:1055B00067E285E40E94043280E38F0D0E9404328A
:1055C000000F111FF801EF56FD4F608171818BE2D2
:1055D0009AE00E9443E285E20E9404328AE00E943F
:1055E000043214C38AE50E949BF6811105C083E54D
:1055F0000E949BF6882331F10E9440F420E030E0C5
:1056000040E050EC0F94E14487FD10C50E9440F447
:1056100020E030E040E050E40F94684D18160CF4A0
:1056200000C50E9440F42091880C3091890C409173
:105630008A0C50918B0C0F9447450F94DA4CCB0198
:105640000E94187680912A0487FDF5C480912B046E
:10565000837009F0F0C40E9467E26091B80C709109
:10566000B90C8CE39CE10E9443E28AE00E94043280
:10567000CDC264E071E083E50E9437EA8C0168EEF8
:1056800073E080E50E9437EA8938F3E19F0710F064
:1056900088E893E1B8010F946010B8C260E085E437
:1056A0000F94EC05811173C080E50E9477F4882384
:1056B00051F00E9440F46093F70F7093F80F8093BD
:1056C000F90F9093FA0F89E40E9477F4882381F010
:1056D0000E9440F42CEA35EC47E25EE30F94474524
:1056E0006093FB0F7093FC0F8093FD0F9093FE0F60
:1056F00084E40E9477F4882381F00E9440F42CEA2D
:1057000035EC47E25EE30F94684C6093FF0F7093B3
:10571000001080930110909302100E9467E2409164
:10572000F70F5091F80F6091F90F7091FA0F8BE31A
:105730009AE00E9432E22CEA35EC47E25EE36091A7
:10574000FB0F7091FC0F8091FD0F9091FE0F0F9455
:10575000684CAB01BC0187E39AE00E9432E22CEA7C
:1057600035EC47E25EE36091FF0F7091001080918D
:105770000110909102100F944745AB01BC0183E3E7
:105780009AE00E9432E28AE00E9404323FC20E9404
:1057900063E28FE39AE00E9471E138C20E940C5DDF
:1057A00035C281E00F94BD240E94D2A02FC280E0B8
:1057B0000F94BD240E94D2A029C28091280483FDA9
:1057C00040C480912A04867009F03BC40E9467E2BD
:1057D00081E79AE00E9471E180916C020E940BE2E5
:1057E0008AE00E94043240919302509194026091A9
:1057F00095027091960281E59AE00E9432E28AE079
:105800000E94043203C26FEF7FEF89E40F94DD053D
:10581000082F6FEF7FEF8AE40F94DD05182F8AE5DC
:105820000E949BF6811108C081E50E949BF6D82E4C
:10583000882309F42BC401C0D12CC02E81E0800F35
:10584000853008F04CC0912E81E0810F853008F042
:1058500046C00E9440F42B013C01F02E07FDF12CC4
:1058600007FF02C0F3E0CF2E812E17FD812C17FF1A
:1058700002C0E3E09E2ECF1408F4C8C1E82C24E057
:10588000F29E500111249E1440F10E2D10E0DD20F7
:1058900071F0F501E00FF11FEE0FFF1FEE0FFF1F7C
:1058A000EA5AF94E208131814281538103C020E0C0
:1058B00030E0A9010A0D1B1D000F111F000F111F61
:1058C0000A5A194EC301B2010F94E54BF8016083E7
:1058D000718382839383E394D6CFF394CCCF0E94D9
:1058E00063E282EE96E00E9471E190C10F94591933
:1058F00081118CC10BE816E126E532E03DA32CA313
:10590000CE0101961C0148E9C42E43E3D42E7C014C
:10591000F8016591759185919491ECA1FDA181901B
:105920009190A190B190FDA3ECA3A50194010F94D7
:10593000E44B2B013C01F7016083718382839383E5
:1059400020E030E040EA51EC0F94684D87FD0AC03A
:1059500020E030E040EA51E4C301B2010F94E14499
:1059600018162CF4F601849118160CF496C3F7015E
:1059700081909190A190B1907F0120E030E040EAC9
:1059800051ECC501B4010F94684D87FDC5C320E0FB
:1059900030E040EA51E4C501B4010F94E144181627
:1059A0000CF085C3B9C30F945A2E30C10F94CB2C81
:1059B0002DC120930F160E941C6D10920F16882384
:1059C00009F424C10E9467E28EED9AE00E9471E121
:1059D0001DC18091D71082FF04C080648093D710CE
:1059E00015C183FF13C10F94631610C10E9464E3B5
:1059F000082F87FD0BC185E50E9477F48823A9F164
:105A0000E02E002E000CFF080E9440F44B015C01C8
:105A100020E030E0A9010F94684D87FF04C0B7FA79
:105A2000B094B7F8B094C70123E0880F991F2A9566
:105A3000E1F79C01245E394E7901F901808291825F
:105A4000A282B38220E030E048E453E4C501B4010F
:105A50000F94684D18164CF480E090E0A8E4B3E48D
:105A6000F70180839183A283B3838CE40E9477F44F
:105A7000882309F4CBC0002E000C110B0E9440F4C7
:105A80006B017C0120E030E0A9010F94684D87FF95
:105A900004C0F7FAF094F7F8F09420E030E048E41E
:105AA00053E4C701B6010F94684D980193E0220FAB
:105AB000331F9A95E1F7F901E45EF94E18162CF0C0
:105AC000C482D582E682F782A1C080E090E0A8E49B
:105AD000B3E484839583A683B78398C08AE50E9444
