:100000000C94611F0C94921F0C94921F0C94921FDD
:100010000C94921F0C94921F0C94921F0C94921F9C
:100020000C94921F0C94921F0C94921F0C94921F8C
:100030000C94921F0C948B770C94921F0C94921F2B
:100040000C94921F0D94912F0C94921F0C94921F5C
:100050000C94921F0C94921F0C94EFAA0C9441776D
:100060000C94921F0C94213C0C94173C0C94921FFE
:100070000C94921F0C94921F0C94921F0C94921F3C
:100080000C94921F0C94921F0C94921F0C94921F2C
:100090000C94921F0C94921F0C94921F0C94921F1C
:1000A0000C94921F0C94921F0C94921F0C94921F0C
:1000B0000C94921F0C94921F0C94921F0C94921FFC
:1000C0000C94921F0C94921F0C94921F0C94921FEC
:1000D0000C94921F0C94921F0C94921F0C94921FDC
:1000E0000C94921FBF39C439C939D339DD39563A16
:1000F000E739EF39F739013A0B3A153A243A2E3AF3
:10010000563A383A423A4C3A593F773DB03D953FDE
:10011000B03DB03DB03DB03DB03DB03DB03DB03D77
:10012000B03DB03DB03DB03DB03DB03DB03DB03D67
:10013000B03DB03DB03DB03DB03DB03DB03DB03D57
:10014000B03DB03D8F3FB03DB03DB03DB03DB03D66
:10015000B03DB03DB03D683FB03DB03DB03DB03D7D
:10016000B03DB03DB03DB03DB03DB03DAC3FAD3D2C
:1001700085DA92DAA7DAB4DAD1DAE6DAF3DA04DB8E
:1001800015DB2EDB47DB60DB79DB96DBB3DB9D0128
:10019000EF017902770223010B022F01FF01090110
:1001A0002B013D02AB01BD01ED00010151024702EF
:1001B000CD01A1016D0169019101B702FF00A50206
:1001C0009501CD015301E901E5010C9423900C94B4
:1001D00039DA0C94D0D30C943ED40D9428370C9477
:1001E000BF390C94153A0C942CD40D94D5200C9452
:1001F0002E3A0C945FD30C941D500C94EE4B0D943E
:1002000044370D9417370D946D040C94A74B0C9440
:1002100018900D94FF190C94AC3F0C9449980C94D1
:1002200031880C94383A0C94423A0C94C94E0C9490
:10023000E7760C9467D40C94C4390C94D1DA0C94FE
:100240002A8C0C942BD50D94F6190C940DD50C9486
:10025000B7D30C94033D0D941A1A0C94CE990D94B7
:10026000FC190C94954B0C942EDB0C94C9390C940E
:1002700060DB0C9485DA0C941F910C9431D30C94B0
:10028000593F0C94D6990C94CA990C9466540C94CA
:1002900092DA0C9438D40C94ED980C9420D40C94ED
:1002A000C6990C9456D40D9452370D9467040C944F
:1002B000C8900C94F48F0C9447DB0C946B3C0C941A
:1002C00096DB0C94124C0C94F2590C9453510C94F0
:1002D000F7390D9436370D946B040D9430370C9428
:1002E000F7D30C943AD50C94E04E0C94B1D70C94FF
:1002F00034460C94974E0C94004C0C94F3DA0C9406
:100300004C3A0C9418D40C94B4DA0D9476020C94F4
:10031000DD390C945CD40C9438540C9487430C94C1
:10032000BB960D943A370C9491960D944C370C94DF
:10033000E6990C94864E0D94B8230D940D1A0C94E6
:10034000A0430D942C370C9421900D9413220D94FE
:100350001F0F0C940B3A0D94051A0C94B64E0C9486
:10036000073D0D9419220C9432D40C94A7DA0C9406
:10037000C54B0D94230F0D94C9200D9425370C9473
:100380001C4C0D94060F0C9428460C94E6D20C9449
:1003900010950D9460010C944AD40D945F370D9420
:1003A0000E0F0C94214C0C94953F0C94AD3D0C9485
:1003B000E8D30C9435880C944CD30C942F880C946F
:1003C0004F540D9485250C9404DB0D945A370C94EE
:1003D00009460D9456370C94D2990C94CB4B0D943E
:1003E000ED190C94773D0C94013A0C9450D40C9474
:1003F0008BD30C94DA990C949C930C94018A0D94F1
:10040000081A0C94D9D30C9404480C94F58F0C94CE
:10041000B09C0C941A500D94F9190D94B5230C94BA
:1004200079DB0C9446D50C9474430C9415460C94CB
:10043000FA4B0C94EE990C94B03D0C943DDD0C9469
:10044000D14B0D947B3F0D9415140C94EA990C94A8
:100450009ED30C942D880C9435900C942FB20C9450
:1004600011770C94FFD20C94ED520C94DE990C94FD
:1004700025900D945D3F0C942E460D94021A0C9419
:1004800085400C9448DA0C94F44B0C94EF390D949D
:100490001F370C9423400D9449140C9477970C94B7
:1004A00018D30D941B370C94043D0C94683F0C94A6
:1004B000814E0C9433880D946D220C94264C0C9430
:1004C000ED8B0C94683C0C94174C0D9469040C94BF
:1004D000064C0C94FFD50C94B2960C947C4E0D9463
:1004E00046040C94243A0C9444D40C94563A0D943B
:1004F000F0190D94F3190C9403B20C94ECD40C94F1
:100500001F920C94D3390D9465040C948F3F0C9476
:100510000C4C0C94AE430C9493960C94BF4E0C94DC
:1005200091440C94E6DA0C94B3DB0C9426D40C942E
:10053000B94B0C948B4E0D9416220C9418910C947C
:10054000E7390C9482EF0C941CD50D9448370D9428
:100550000A0F0C9421540D941C000C9486D40C9416
:10056000FC3F0D9470270C94D84F0C94C3960D94B7
:100570003E370C9415DB0C94E2990C9472D34E41E7
:100580004E494E495459494E46CDCCCC3D0AD7230D
:100590003C17B7D13877CC2B329595E6241FB14F55
:1005A0000A000020410000C84200401C4620BCBE9A
:1005B0004CCA1B0E5AAEC59D7400407A10F35A0007
:1005C000A0724E18090010A5D4E80000E87648177C
:1005D0000000E40B54020000CA9A3B000000E1F561
:1005E00005000080969800000040420F000000A027
:1005F0008601000000102700000000E80300000052
:10060000006400000000000A00000000000100007B
:100610000000002C76D888DC674F0823DFC1DFAEEE
:1006200059E1B1B796E5E3E453C63AE651997696B7
:10063000E8E6C28426EB898C9B62ED407C6FFCEF80
:10064000BC9C9F40F2BAA56FA5F490055A2AF75CAE
:10065000936B6CF9676DC11BFCE0E40D47FEF52060
:10066000E6B500D0ED902E03009435770500808428
:100670001E080000204E0A000000C80C333333333C
:100680000F986E12831141EF8D2114893BE65516A8
:10069000CFFEE6DB18D1844B381BF77C1D901DA4E0
:1006A000BBE424203284725E228100C9F124ECA1D3
:1006B000E53D27434F4D4D554E49434154494F4E1B
:1006C0000044525952554E004552524F5253004920
:1006D0004E464F004543484F005265706F732E2EB3
:1006E0002E004D65736820706F696E74206F75748D
:1006F000206F662072616E67650A00417474656ED2
:100700007465207574696C69732E004D6F7465751E
:10071000727320626C6F7175C3A97300456E64209B
:1007200066696C65206C6973740A00426567696E5E
:100730002066696C65206C6973740A004E6F206DC9
:10074000656469610A00286E6F2066696C6529001E
:1007500043757272656E742066696C653A20005349
:1007600044207072696E74696E67206279746520C6
:10077000004E6F74205344207072696E74696E6706
:100780000A00256979202569642025696820256982
:100790006D20256973005072696E742074696D65EF
:1007A0003A2000526566726F6964697373656D659E
:1007B0006E740045202553006F666600444542551F
:1007C000473A004D3131322053687574646F776E4B
:1007D000004D3131332053005A38545F4D33204F90
:1007E00046462E004348414D4245525F54454D50C8
:1007F0004552415455524500424142595354455087
:1008000050494E470041524353004D4F54494F4EBB
:100810005F4D4F44455300544845524D414C5F5045
:10082000524F54454354494F4E004C4F4E475F463C
:10083000494C454E414D45004155544F5245504F4E
:1008400052545F53445F53544154555300534443EF
:100850004152440050524F4D50545F535550504FE9
:10086000525400454D455247454E43595F50415201
:1008700053455200434153455F4C494748545F42FA
:1008800052494748544E45535300544F47474C45EF
:100890005F4C494748545300534F465457415245C3
:1008A0005F504F574552004255494C445F504552A6
:1008B00043454E54004C4556454C494E475F4441D4
:1008C0005441005A5F50524F42450052554E4F55C9
:1008D00054004155544F4C4556454C005052494EDA
:1008E000545F4A4F420050524F47524553530041C4
:1008F00055544F5245504F52545F54454D50005639
:100900004F4C554D45545249430042494E4152596E
:100910005F46494C455F5452414E53464552005341
:10092000455249414C5F584F4E5F584F464600462E
:1009300049524D574152455F4E414D453A4D6172C6
:100940006C696E206D61726C696E2D322E302E389E
:1009500020284E6F76202032203230323020323242
:100960003A30363A35302920534F555243455F438C
:100970004F44455F55524C3A68747470733A2F2F48
:100980006769746875622E636F6D2F4D61726C6953
:100990006E4669726D776172652F4D61726C696E1A
:1009A0002050524F544F434F4C5F56455253494F7E
:1009B0004E3A312E30204D414348494E455F5459FF
:1009C00050453A5A38545F4D332045585452554497
:1009D00045525F434F554E543A3120555549443A9C
:1009E00063656465326132662D343161322D34378E
:1009F00034382D396231322D633535633632663302
:100A0000363766660A002F2F20004D3134352053CB
:100A10003C696E6465783E206F7574206F66207245
:100A2000616E67652028302D31290A0041636365B6
:100A30006C65726174696F6E00416363656C6572A9
:100A40006174696F6E3A20500046523A0020466C3D
:100A50006F773A200020643A0020693A0020703A0B
:100A600000496E76616C696420657874727564659E
:100A7000720A0046696C616D656E742072756E6FE6
:100A800075742064697374616E636520286D6D29C7
:100A90003A200046696C616D656E742072756E6FE8
:100AA000757420004D34323120696E636F72726547
:100AB000637420706172616D657465722075736115
:100AC00067650A0044C3A963616C6167657320614F
:100AD00070706C697175C3A973004572723A2054C5
:100AE0006F6F206661722100546F6F206661722003
:100AF00066726F6D207265666572656E63652070E3
:100B00006F696E740A00454550524F4D204F4B0A95
:100B100000205A323A004475616C20456E6473744B
:100B20006F702041646A7573746D656E7420286DF2
:100B30006D293A2000506F7765722D6C6F737320AA
:100B40007265636F766572792000446F6E65207000
:100B500072696E74696E672066696C650A004D374C
:100B600037004D333100D406CF06C806C106B306A0
:100B70004572726F722077726974696E6720746F44
:100B800020454550524F4D210A004D323930004D1D
:100B9000343130004D313132004D31303800535452
:100BA0004F5050C389005072696E7465722073741F
:100BB0006F707065642064756520746F2065727253
:100BC0006F72732E20466978207468652065727292
:100BD0006F7220616E6420757365204D393939203C
:100BE000746F20726573746172742E202854656D61
:100BF00070657261747572652069732072657365C2
:100C0000742E2053657420697420616674657220A7
:100C100072657374617274696E67290A004E6F2081
:100C2000436865636B73756D2077697468206C69C0
:100C30006E65206E756D6265722C204C6173742038
:100C40004C696E653A2000636865636B73756D204F
:100C50006D69736D617463682C204C617374204CF2
:100C6000696E653A20004C696E65204E756D62654F
:100C700072206973206E6F74204C617374204C690C
:100C80006E65204E756D6265722B312C204C617340
:100C900074204C696E653A20004D31313000534468
:100CA0002072656164206572726F720A00212120D2
:100CB0004B494C4C20636175736564206279204B0D
:100CC000494C4C20627574746F6E2F70696E0A0007
:100CD0002121204B494C4C2063617573656420626F
:100CE0007920746F6F206D75636820696E6163741D
:100CF0006976652074696D65202D20637572726553
:100D00006E7420636F6D6D616E643A20006275735E
:100D1000793A2070617573656420666F7220696E20
:100D20007075740A00627573793A20706175736525
:100D30006420666F7220757365720A00627573793C
:100D40003A2070726F63657373696E670A004D3184
:100D500030303053004DC3A964696120696E73C39C
:100D6000A972C3A9004D3630302054313700457286
:100D7000723A207574663820666F6E74206E6F74D8
:100D800020696E697469616C697A65642E00000C73
:100D90000F00FE07022503BB01FFFE0AFE08FE0549
:100DA000080806000040F0C88888987810050808F0
:100DB000060000C0F88888888888F80505050600C0
:100DC000012030F830200508080600002070F820C7
:100DD000202020E00509090600FF2070A8A8B88897
:100DE000887020070505070001D86C366CD8050906
:100DF000090600FFF8A88888888888A8F8050A0AE4
:100E00000600FE205050505088A8A88870030303A5
:100E100006000340A040FFFFFFFFFFFFFFFFFFFFB3
:100E2000FFFFFFFFFFFFFFFFFFFFFFFF00000006C8
:100E300005FF010707060200808080808000800394
:100E40000303060105A0A0A005060606000050F851
:100E50005050F8500509090600FF2070A8A070281E
:100E6000A87020050707060000C8C8102040989801
:100E700005070706000040A0A040A89068010303F2
:100E80000602058080800309090601FF204040809A
:100E900080804040200309090601FF804040202057
:100EA0002040408005070706000020A8702070A899
:100EB000200505050600012020F820200203030676
:100EC00001FFC04080050101060003F8020202068E
:100ED0000100C0C0050707060000081010204040B0
:100EE00080050707060000708898A8C88870030767
:100EF0000706010040C040404040E00507070600EB
:100F000000708808102040F8050707060000F80860
:100F1000103008887005070706000010305090F860
:100F20001010050707060000F880F0080888700513
:100F30000707060000304080F08888700507070624
:100F40000000F80810102020200507070600007098
:100F50008888708888700507070600007088887880
:100F6000081060020505060100C0C000C0C00206EE
:100F7000060601FFC0C000C0408003050506010150
:100F80002040804020050303060002F800F8030516
:100F9000050601018040204080050707060000701B
:100FA0008810202000200507070600007088B8A8D8
:100FB000B88070050707060000708888F888888860
:100FC000050707060000F04848704848F005070785
:100FD0000600007088808080887005070706000082
:100FE000F04848484848F0050707060000F88080A8
:100FF000F08080F8050707060000F88080F0808008
:1010000080050707060000708880809888700507B3
:1010100007060000888888F8888888030707060183
:1010200000E04040404040E005070706000038105F
:1010300010101090600507070600008890A0C0A05F
:101040009088050707060000808080808080F80572
:10105000070706000088D8A888888888050707063B
:1010600000008888C8A898888805070706000070CF
:10107000888888888870050707060000F08888F04F
:1010800080808005070706000070888888A890681F
:10109000050707060000F08888F0A090880507077C
:1010A0000600007088807008887005070706000039
:1010B000F8202020202020050707060000888888C7
:1010C000888888700507070600008888888850503F
:1010D0002005070706000088888888A8A85005070B
:1010E00007060000888850205088880507070600FA
:1010F0000088885020202020050707060000F808F7
:1011000010204080F80309090601FFE080808080FC
:10111000808080E005070706000080404020101016
:10112000080309090601FFE020202020202020E0FC
:101130000503030600052050880501010600FEF89E
:101140000303030601058040200505050600007025
:10115000087888780507070600008080F08888886E
:10116000F0050505060000708080887005070706F9
:101170000000080878888888780505050600007052
:1011800088F08070050707060000304840E04040C6
:10119000400507070600FE708888887808700507F4
:1011A000070600008080F08888888803070706010A
:1011B000004000C0404040E00409090601FE100064
:1011C000301010101090600507070600008080881E
:1011D00090E09088030707060100C040404040406F
:1011E000E0050505060000D0A8A8A8A80505050685
:1011F0000000B0C88888880505050600007088884A
:1012000088700507070600FEF0888888F080800552
:1012100007070600FE78888888780808050505060F
:101220000000B0C880808005050506000078807049
:1012300008F00507070600002020F82020201805E8
:1012400005050600008888889868050505060000E1
:1012500088888850200505050600008888A8A850C1
:101260000505050600008850205088050707060080
:10127000FE88888850204080050505060000F8108B
:101280002040F80309090601FF204040408040400B
:1012900040200109090602FF8080808080808080D4
:1012A000800309090601FF80404040204040408003
:1012B00005030306000248A890FFFFFFFFFFFFFFA2
:1012C000FFFFFFFFFFFFFFFFFFFFFFFFFFFFFFFF2E
:1012D000FFFFFFFFFFFFFFFFFFFF0000000605FF0E
:1012E00001070706020080008080808080050707D4
:1012F0000600FF2070A8A0A87020050707060000C0
:10130000304840E04048B0050505060000A8508878
:1013100050A80507070600008850F820F820200193
:10132000070706020080808000808080040808068D
:10133000010070806090906010E0030101060107D9
:10134000A00607070600007884B4A4B484780305D7
:101350000506010460A06000E00505050600002800
:1013600050A05028050303060001F80808030101F6
:10137000060103E00607070600007884B4A4A484ED
:1013800078050101060007F80404040601056090D1
:1013900090600507070600002020F8202000F803D1
:1013A000050506010440A02040E0030505060104F0
:1013B000C0204020C003030306010520408005072C
:1013C000070600FE88888898E880800508080600DF
:1013D0000078E8E8E868282828020202060203C02C
:1013E000C00302020601FE20C003050506010440F9
:1013F000C04040E003050506010540A04000E005AF
:101400000505060000A0502850A0050A0A060000A5
:1014100040C048506050B0507810050A0A060000DD
:1014200040C048506050A8081038050A0A0600005D
:10143000C0204830E050B050781005070706000083
:1014400020002020408870050A0A06000040200085
:10145000708888F8888888050A0A0600001020002D
:10146000708888F8888888050A0A060000205000DD
:10147000708888F8888888050A0A06000068B00025
:10148000708888F88888880509090600005000706F
:101490008888F8888888050A0A060000205020708D
:1014A0008888F888888805070706000078A0A0F0DB
:1014B000A0A0B80509090600FE70888080808870A9
:1014C0001060050A0A060000402000F88080F080C5
:1014D00080F8050A0A060000102000F88080F080DD
:1014E00080F8050A0A060000205000F88080F0808D
:1014F00080F80509090600005000F88080F080801F
:10150000F8030A0A060100804000E04040404040E5
:10151000E0030A0A060100204000E040404040404D
:10152000E0030A0A06010040A000E04040404040BD
:10153000E0030909060100A000E04040404040E00F
:10154000050707060000704848E8484870050A0A81
:1015500006000068B0008888C8A8988888050A0A2C
:1015600006000040200070888888888870050A0A74
:1015700006000010200070888888888870050A0A94
:1015800006000020500070888888888870050A0A44
:1015900006000068B000708888888888700509098E
:1015A0000600005000708888888888700505050648
:1015B000000188502050880509090600FF0870982E
:1015C000A8A8A8C87080050A0A0600004020008864
:1015D000888888888870050A0A060000102000881C
:1015E000888888888870050A0A06000020500088CC
:1015F0008888888888700509090600005000888856
:101600008888888870050A0A0600001020008888EB
:10161000502020202004070706010080E0909090D1
:10162000E080050707060000708890A09088B0054C
:10163000080806000040200070087888780508082F
:101640000600001020007008788878050808060059
:1016500000205000700878887805080806000068A7
:10166000B000700878887805070706000050007001
:10167000087888780508080600002050207008784F
:101680008878050505060000702870A07805070712
:101690000600FE708880887010600508080600004B
:1016A0004020007088F080700508080600001020B7
:1016B000007088F080700508080600002050007057
:1016C00088F0807005070706000050007088F080E1
:1016D00070030808060100804000C0404040E0035D
:1016E0000808060100204000C0404040E003080810
:1016F00006010040A000C0404040E003070706018B
:1017000000A000C0404040E005090906000050204C
:101710005008788888887005080806000068B000BE
:10172000B0C8888888050808060000402000708836
:1017300088887005080806000010200070888888D6
:101740007005080806000020500070888888700521
:10175000080806000068B0007088888870050707D0
:101760000600005000708888887005050506000195
:101770002000F800200505050600007898A8C8F0AC
:101780000508080600004020008888888870050841
:101790000806000010200088888888700508080660
:1017A0000000205000888888887005070706000020
:1017B00050008888888870050A0A0600FE102000FC
:1017C000888888502040800509090600FE8080F046
:1017D000888888F080800509090600FE5000888806
:1017E00088502040804368617267657220636F6E25
:1017F0006669672E00456E726567697374726572FB
:1018000020636F6E6669672E0044C3A963616C61D3
:101810006765205A00436F6E6669672E20617661A6
:101820006E63C3A96500417272C3AA74004D6172F0
:101830006368650044454348415247455220464944
:101840004C004348414E4745522046494C414D4586
:101850004E54005265737461757265722064C3A939
:1018600066617574730052C3A9676C6572207072EB
:10187000C3A963682E2024004361707465757220CB
:1018800066696C2E0052C3A97472616374617469D5
:101890006F6E004D36303020423020542569004DA7
:1018A00037303120542569004D37303220542569B6
:1018B00000526574726169742066696C616D656E51
:1018C00074202A005265746972657220746F757491
:1018D000004D373032004368617267657220666977
:1018E0006C616D656E74202A004368616E67657275
:1018F0002066696C616D656E74202A005075726790
:10190000657220656E636F7265004F5054494F4E8B
:101910005320524550524953453A00494D50522E9A
:10192000205041555345002020427573653A2000F0
:101930004D6978657572003F00416E6E756C657219
:10194000004D6F7576656D656E7400202046696E7A
:10195000205A3A002534642E2564206D6D0044C35E
:10196000A9627574205A3A004379636C65206D69E9
:10197000780056616C69646572204D697820562D37
:10198000746F6F6C00436F6D706F73616E74652060
:101990003D00562D746F6F6C732072C3A9696E6918
:1019A000742E206F6B0052657365740052616E6413
:1019B0006F6D204D6978003A64697361626C6500EF
:1019C0003A20656E61626C650044C3A96772616408
:1019D000C3A90052C3A9696E69742E20562D746F75
:1019E0006F6C730041637469766520562D746F6F58
:1019F0006C0043616973736F6E0052756E6F75741E
:101A00002044697374206D6D00436861726765726C
:101A1000206D6D0052657472616974206D6D0044B3
:101A200069616DC3A87472652066696C2E004520DB
:101A3000656E206D6DC2B3004361703A003F5A205D
:101A40006F7574206F662072616E67652028003F95
:101A500059206F7574206F662072616E676520284B
:101A60002D003F58206F7574206F662072616E677D
:101A70006520282D0050726F6265204F6666736581
:101A800074205800656E7175657565696E672022F2
:101A900000526573656E643A2000526566726F6924
:101AA000642E206475206C69742E2E2E004C69748F
:101AB00020656E20636861756666652E2E2E002394
:101AC000646566696E652044454641554C545F0027
:101AD0004B6420004B6920004B702000504944208B
:101AE0004175746F74756E652066696E697368659B
:101AF00064212050757420746865206C61737420B3
:101B00004B702C204B6920616E64204B6420636F06
:101B10006E7374616E74732066726F6D2062656C93
:101B20006F7720696E746F20436F6E666967757298
:101B30006174696F6E2E680A0050494420417574C3
:101B40006F74756E65206661696C656421207469C7
:101B50006D656F75740A000A20436C617373696365
:101B600020504944200A00204B643A2000204B6951
:101B70003A2000204B703A20002054753A20002073
:101B80004B753A2000206D61783A2000206D696E17
:101B90003A200020643A200020626961733A2000F4
:101BA000504944204175746F74756E65207374617B
:101BB00072740A00504944204175746F74756E65E3
:101BC000206661696C6564212054656D7065726181
:101BD0007475726520746F6F20686967680A0050B9
:101BE0004944204175746F74756E650050494420F6
:101BF0004175746F74756E65206661696C656421EA
:101C000020426164206578747275646572206E7517
:101C10006D6265720A000000A0C1000000000000B3
:101C2000000000009B4300009B430000C843436F3B
:101C30006E6669672E20656E72656769737472C31C
:101C4000A965002062797465733B2063726320008C
:101C500053657474696E67732053746F7265642082
:101C60002800454550524F4D206461746173697A74
:101C700065206572726F722E0A002073746F726530
:101C8000642073657474696E677320726574726919
:101C900065766564202800202863616C63756C613B
:101CA00074656429210A0020213D200045455052D9
:101CB0004F4D20435243206D69736D6174636820FA
:101CC0002D202873746F726564292000496E646545
:101CD000783A200044494749504F5453204C6F6193
:101CE0006465640A0044494749504F5453204C6F7F
:101CF0006164696E670A00204D61726C696E3D56C1
:101D00003832290A00454550524F4D20766572738E
:101D1000696F6E206D69736D617463682028454535
:101D200050524F4D3D000200000000000000000036
:101D300000000000000000000000000000000000A3
:101D40000000000000000000000000000000000093
:101D50000000000000000007FFC3FF870187FF0F9E
:101D6000FCFFFC1E01FF8007FFC3FF87018FFF1FE1
:101D7000FCFFFC1E03FFC00000C600C7018C00185A
:101D8000000300618300C00001C600C7C18C0018B9
:101D9000000300618300C000038600C6C18C0018E8
:101DA000000301806300C000070600C6618C0018B4
:101DB000000301806300C0000E0600C6618C00189D
:101DC000000301806300C0001C0600C6318FFE1FA7
:101DD000F803018063FFC000380600C6318FFE0F94
:101DE000FC03018063FF8000700600C6198C0000B0
:101DF0000C0301FFE30C0000E00600C6198C000094
:101E00000C0301FFE3070001C00600C60D8C0000B3
:101E10000C03018063018003800600C60D8C000066
:101E20000C03018063018007000600C6078C0000D8
:101E30000C03018063018006000600C6078C0000C9
:101E40000C03018063018007FFC3FF86038FFF1F20
:101E5000FC03018063018007FFC3FF860387FF1F28
:101E6000F803018063018000000000000000000012
:101E70000000000000000000000000000000000062
:101E80000000000000000000000000000000000052
:101E90000000000000000000000000000000000042
:101EA00000000000000000F0004A0110013B01307A
:101EB000012C01400127015001220170011D0190F8
:101EC000011801B0011301C0010E01F00109011058
:101ED0000204013002FF006002FA009002F500C027
:101EE00002F0000003EB004003E6008003E100D0B5
:101EF00003DC002004D700E004D200C005CD004080
:101F000006C800D006C3008007BE00F008B9004034
:101F100009B400C009AF00B00AAA00B00BA500D0F8
:101F20000CA000000E9B00C0109600501291000003
:101F3000148C00C0158700B0178200B0197D00D046
:101F40001B7800001E730040206E0090226900F094
:101F500024640040275F0090295A00E02B550010B0
:101F60002E500020304B0010324600E033410090EC
:101F7000353C001037370070383200A0392D00B0E2
:101F80003A2800A03B2300603C1E00103D19009041
:101F90003D1400103E0F00703E0A00C03E050000D8
:101FA0003F0000403FFBFF803FF6FFC03FF1FF20B6
:101FB00020506C616E6E657242756666657242791C
:101FC0007465733A20002046726565204D656D6F1B
:101FD00072793A2000436F6D70696C65643A204EE7
:101FE0006F7620203220323032300A00204C61736C
:101FF0007420557064617465643A20323032302D3B
:1020000031312D3032207C20417574686F723A2056
:10201000285A4F4E45535441522C2048616C6C79DC
:10202000290A006D61726C696E2D322E302E380ACD
:10203000004D61726C696E0020536F667477617237
:10204000652052657365740A002057617463686483
:102050006F672052657365740A002042726F776E55
:10206000206F75742052657365740A00204578747A
:1020700065726E616C2052657365740A00506F77EB
:10208000657255700A006175746F25632E6700478D
:1020900032385859004D31303031006572726F72EC
:1020A0002077726974696E6720746F2066696C6549
:1020B0000A00446F6E6520736176696E67206669F9
:1020C0006C652E0A004D323900427574C3A96573E0
:1020D00000255320256320256320256320256300E8
:1020E00020503A00656E6473746F70732068697471
:1020F0003A200020746F6F206C6F6E6720657874D3
:10210000727573696F6E2070726576656E74656442
:102110000A004D33303320553120452569205325A1
:102120006900504944204175746F74756E65202AAA
:10213000005049442D44202A005049442D49202A6A
:10214000005049442D50202A00566D696E20636F5F
:102150007572736500566D696E00566D6178204525
:1021600000566D6178205A00566D617820590056EE
:102170006D6178205800416D6178204500416D61A6
:1021800078205A00416D6178205900416D617820B6
:1021900058004163632E636F75727365004163631A
:1021A0002E72C3A97472616374696F6E004D383406
:1021B0000052C3A9676C6572204E69762E206C6947
:1021C00074004F726967696E65206175746F0054A1
:1021D000656D70C3A97261747572650041425300E8
:1021E000504C41004261627973746570205A005608
:1021F00069742E202076656E74696C2E2020004252
:10220000757365004D656E75207072696E636970D7
:10221000616C00417272C3AA746572206D6F74653F
:10222000757273004F726967696E65205A20617517
:10223000746F004732385A004F726967696E6520C3
:1022400059206175746F0047323859004F726967C1
:10225000696E652058206175746F004732385800E8
:10226000473238005072C3A963682E20242062755B
:102270007365005072C3A963682E2024206C6974B2
:1022800000526566726F69646972005072C3A96317
:102290006861756666616765202400546F74616CBF
:1022A00000466C7578005669746573736500E021AB
:1022B000DC2152C3A96375702E20636F75702E00E8
:1022C000436F6E66696775726174696F6E005265FF
:1022D0007072656E64726520696D70722E00507246
:1022E0006F74656374696F6E20696E61637469767B
:1022F0006500313330004245443A203130306B20A4
:102300007769746820342E376B2070756C6C2D756E
:10231000700050726F74656374696F6E20616374CE
:102320006976650054656D70204D617800323735EF
:102330000054656D70204D696E0045313A20313092
:10234000306B207769746820342E376B2070756C81
:102350006C2D757000416C696D2E0047656E65725D
:1023600069630050726F746F636F6C6500312E305B
:102370000042617564730031313532303000687469
:102380007470733A2F2F7777772E616C6965787048
:10239000726573732E636F6D2F6974656D2F3332A1
:1023A0003936353430363339362E68746D6C005A10
:1023B0004F4E4553544152205A5249425F563600BF
:1023C0004475616C205A20454E4453544F5000448C
:1023D00055414C205A2044524956455200544954C4
:1023E000414E204558545255444552004E69766539
:1023F00061752062696C696EC3A961697265004587
:10240000787472756465757273007777772E7A6F5A
:102410006E657374617233642E636F6D005A385445
:102420005F4D3300323032302D31312D3032006D7E
:1024300061726C696E2D322E302E380056312E3777
:102440002E3100546865726D697374616E636573D3
:1024500000496E666F7320636172746500496E6631
:102460006F7320696D7072696D616E7465004D31B6
:1024700030303000417272C3AA74657220696D7089
:10248000722E005265746F75720053746F70004342
:10249000686172676572206C65206DC3A9646961AB
:1024A000004D32310052657469726572206C65208E
:1024B0006DC3A9646961004D323200457465696E6F
:1024C00064726520616C696D2E004D38310043687F
:1024D000616E6765722066696C616D656E7400522D
:1024E000C3A9676C657200506175736520696D7072
:1024F00072657373696F6E005375727665696C6C83
:102500006572005061726B696E672E2E2E0000009E
:10251000417474656E74652066696C616D656E7476
:1025200000706F75722064C3A96D6172726572006C
:1025300000417474656E74650072657472616974CB
:102540002064752066696C616D656E74000042756B
:10255000736520656E20636861756666650050610D
:102560007469656E746572205356502E2E2E0000CD
:1025700050726573736572206C6520626F75746F3D
:102580006E00706F75722063686175666665722E85
:102590002E2E0000496E73C3A97265722066696CA5
:1025A000616D656E74006574206170702E20626FBD
:1025B00075746F6E00706F757220636F6E74696EE4
:1025C0007565722E2E2E00417474656E74650063FD
:1025D00068617267656D656E742066696C616D65B2
:1025E0006E7400005072657373657220626F75744B
:1025F0006F6E00706F75722072657072656E6472B6
:10260000650000417474656E74652072657072694E
:10261000736500696D7072657373696F6E00004158
:102620007474656E74650050757267652066696CB8
:10263000616D656E7400006F70656E00545249479D
:102640004745524544007A5F70726F6265007A3286
:102650005F6D696E007A5F6D696E00795F6D696E9E
:1026600000785F6D696E005265706F7274696E6795
:1026700020656E6473746F70207374617475730A6F
:10268000004C697400453100626564002C20737948
:102690007374656D2073746F707065642120486574
:1026A000617465725F49443A200045727220544853
:1026B00045524D4951554500546865726D616C2015
:1026C00052756E617761790045727220646520638E
:1026D0006861756666650048656174696E67206645
:1026E00061696C656400202D20496E76616C6964B7
:1026F000206578747275646572206E756D6265729E
:1027000020210A004572722054454D502E204D4123
:1027100058004D415854454D5020747269676765A3
:10272000726564004572722054454D502E204D490B
:102730004E004D494E54454D50207472696767658F
:1027400072656400202F002042403A0020403A0089
:10275000001000AA038000400100012C01B00122FA
:102760000140021001F00202018003F8004004F56C
:1027700000E004ED009005E4003006DD00E006D73F
:10278000008007D1003008CC00D008C7007009C312
:1027900000100ABE00B00ABB00500BB700900CB38B
:1027A00000D00DAA00B00FA5005010A00010149684
:1027B000009016900010198C00501A8500301C8271
:1027C0000070227800B023750040256E0020276934
:1027D00000A0296400502A5F00902B5A00D02C558D
:1027E00000702D4F00E02E4800503145003033413D
:1027F00000D03539006036370010373300F0382DFF
:1028000000A0392700803C1C00403D1700F03D111E
:1028100000703E0A00C03E0500003F0000403FFB44
:10282000FF803FF6FFC03FF1FF2053697A653A20F1
:102830000043616E6E6F74206F70656E20737562F9
:10284000646972200053442063617264206F6B0AD4
:10285000006F70656E526F6F74206661696C65649D
:102860000A00766F6C756D652E696E6974206661FD
:10287000696C65640A004E6F205344206361726482
:102880000A004D32332025730046696C652073655C
:102890006C65637465640A0046696C65206F7065D9
:1028A0006E65643A2000454E4420535542524F55C0
:1028B00054494E450A002220706F73002220706137
:1028C00072656E743A2200535542524F5554494E28
:1028D000452043414C4C207461726765743A220074
:1028E00053756263616C6C204F766572666C6F77AE
:1028F000004578636565646564206D617820535593
:1029000042524F5554494E452064657074683A31BF
:102910000A0044656C6574696F6E206661696C6558
:10292000642C2046696C653A200046696C65206419
:10293000656C657465643A006F70656E20666169E8
:102940006C65642C2046696C653A20005772697486
:10295000696E6720746F2066696C653A2000667244
:1029600065736800646F696E67004E6F7720007C46
:102970003C3E5E2B3D3F2F5B5D3B2C2A225C0000E2
:10298000002200250028002B002E00310034000218
:10299000010000050108010B0100002100240027AF
:1029A000002A002D0030003300010100000401075F
:1029B000010A0105050505070508080808020202C5
:1029C000020A0A08080404040401010101010101CA
:1029D000010303030303030303040707070C0C0CA1
:1029E0000C0C0C0C0C020202020606060606060679
:1029F000060B0B0B0B0B0B0B0B0102102020080816
:102A00001020401020408002010201080402010150
:102A10000204081020408080402010080402018039
:102A20000402018040201008040201080402010190
:102A30000204081020408001020408102040802079
:102A4000453A0020593A0024F4D43050C38E20C2B5
:102A5000A24017828B7011127A910D816CD90AA84D
:102A600061E108C7586607615143061E4B5D05C109
:102A700045A7041A411104093D98037139310340F7
:102A800036DB0265339102D4305402802E1D02637E
:102A90002CEE01752AC501B028A001102781018FF5
:102AA0002564012B244B01E0223401AC211F018D50
:102AB000200D01801FFC00841EED00971DDF00B873
:102AC0001CD200E61BC600201BBC00641AB200B278
:102AD00019A8000A19A0006A189900D1179100409E
:102AE000178B00B516840031167E00B31579003AB5
:102AF000157300C7146F0058146A00EE136600883F
:102B000013630025135E00C7125B006C125700159B
:102B1000125400C111510070114F0021114B00D609
:102B20001049008D1047004610440002104200C0BA
:102B30000F4000800F3E00420F3C00060F3B00CBD1
:102B40000E3800930E37005C0E3500270E3400F36C
:102B50000D3200C10D3100900D3000600D2E00329D
:102B60000D2D00050D2C00D90C2B00AE0C29008575
:102B70000C29005C0C2700350C27000E0C2600E801
:102B80000B2400C40B2400A00B23007D0B23005A50
:102B90000B2100390B2100180B2000F80A1F00D967
:102BA0000A1E00BB0A1E009D0A1D00800A1D00634C
:102BB0000A1C00470A1B002C0A1B00110A1A00F706
:102BC000091A00DD091900C4091900AB091900929E
:102BD0000917007B091800630917004C0916003615
:102BE000091600200916000A091500F5081500E06D
:102BF000081400CC081400B8081400A408140090AD
:102C00000813007D0812006B0813005808120046D4
:102C100008120034081100230811001208110001E5
:102C2000081100F0071000E0071000D0071000C0E6
:102C3000071000B0070F00A107100091070E0083D6
:102C4000070F0074070F0065070E0057070E0049B5
:102C5000070E003B070D002E070E0020070D001386
:102C6000070D0006070D00F9060C00ED060D00E04B
:102C7000060C00D4060C00C8060C00BC060C00B004
:102C8000060C00A4060B0099060C008D060B0082B2
:102C9000060B0077060B006C060B0061060A005756
:102CA000060B004C060A0042060A0038060A002EEF
:102CB000060A0024060A001A060A00100609000780
:102CC000060A00FD050900F4050900EB050900E20C
:102CD000050900D9050900D0050900C7050900BE8E
:102CE000050900B5050800AD050800A50509009C0B
:102CF000050800940508008C050800840508007C80
:102D0000050800740508006C050700650508005DEE
:102D1000050700560508004E050700470507004057
:102D200005080038050700310507002A05070023BC
:102D30000507001C050600160507000F050700081B
:102D400005060002050700FB040600F5040700EE77
:102D5000040600E8040600E2040700DB040600D5D0
:102D6000040600CF040600C9040600C3040600BD23
:102D7000040600B7040600B1040500AC040600A672
:102D8000040600A00405009B0406009504050090BD
:102D90000406008A04050085040500800406007A04
:102DA00004050075040500700405006B0405006649
:102DB000040500610405005C040500570405005289
:102DC0000405004D04050048040500430405003EC9
:102DD0000404003A04050035040500300404002C06
:102DE00004050027040400230405001E0404001A3F
:102DF00004040016040500110404000D0404000975
:102E00000405000404040000040400FC030400F8AA
:102E1000030400F4030400F0030400EC030400E8DE
:102E2000030400E4030400E0030400DC030400D80E
:102E3000030400D4030400D0030400CC030400C83E
:102E4000030300C503030024F404D9201BC40C5C55
:102E50000E9804C4095F0265077101F405F900FBCF
:102E600004B30048048700C10369005803550003F8
:102E7000034500BE023A008402310053022A0029B1
:102E800002250004022000E4011C00C8011900AF63
:102E900001170098011400840113007101100061F2
:102EA00001100051010E0043010D0036010B002BF3
:102EB000010B0020010B00150109000C01090003A2
:102EC000010800FB000800F3000800EB000700E425
:102ED000000600DE000600D8000600D2000600CC86
:102EE000000500C7000500C2000500BD000400B9D0
:102EF000000400B5000400B1000400AD000400A906
:102F0000000400A5000300A20003009F0004009B32
:102F10000003009800030095000200930003009056
:102F20000003008D0002008B000300880002008671
:102F300000020084000300810002007F0002007D87
:102F40000002007B00020079000200770001007699
:102F50000002007400020072000100710002006FA4
:102F60000002006D0001006C0002006A00010069AF
:102F700000020067000100660001006500010064B6
:102F80000002006200010061000100600001005FBA
:102F90000002005D0001005C0001005B0001005ABE
:102FA00000010059000100580001005700010056BF
:102FB00000010055000100540001005300000053BF
:102FC0000001005200010051000100500001004FBB
:102FD0000001004E0000004E0001004D0001004CB9
:102FE0000001004B0000004B0001004A00010049B5
:102FF00000010048000000480001004700010046B1
:1030000000000046000100450000004500010044AA
:1030100000010043000000430001004200000042A4
:103020000001004100000041000100400001003F9C
:103030000000003F0001003E0000003E0001003D96
:103040000000003D0001003C0000003C0000003C8E
:103050000001003B0000003B0001003A0000003A84
:10306000000100390000003900010038000000387C
:103070000000003800010037000000370001003672
:103080000000003600000036000100350000003569
:10309000000000350001003400000034000000345E
:1030A0000001003300000033000000330001003253
:1030B0000000003200000032000100310000003149
:1030C000000000310001003000000030000000303E
:1030D0000001002F0000002F0000002F0000002F33
:1030E0000001002E0000002E0000002E0001002D27
:1030F0000000002D0000002D0000002D0001002C1C
:103100000000002C0000002C0000002C0001002B0F
:103110000000002B0000002B0000002B0001002A03
:103120000000002A0000002A0000002A00010029F7
:1031300000000029000000290000002900000029EB
:1031400000010028000000280000002800000028DE
:1031500000000028000100270000002700000027D1
:1031600000000027000000270001002600000026C4
:1031700000000026000000260000002600010025B7
:1031800000000025000000250000002500000025AB
:10319000000000250001002400000024000000249D
:1031A0000000002400000024000100230000002390
:1031B0000000002300000023000000230000002383
:1031C0000000002300010022000000220000002275
:1031D0000000002200000022000000220001002167
:1031E000000000210000002100000021000000215B
:1031F000000000210000002100010020000000204C
:10320000000000200000002000000020000000203E
:1032100000000020000000200001001F0000001F2F
:103220000000001F0000001F0000001F0000001F22
:103230000000001F0001001E0000001E0000001E14
:103240000000001E000000A42C0000841E0000B03E
:10325000120000870A00009E050000E90200007BC2
:10326000010000BF00000020436F756E7420583AC3
:1032700000436F696E2073756976616E74005465E2
:10328000726D696EC3A90053756976616E74004FE3
:10329000726967696E652058595A2E2E2E00486152
:1032A0007574657572206C697373C3A965004E6986
:1032B00076656175206475206C6974004732380A40
:1032C000473239004361746368205A204F66667341
:1032D000657400473239204E004E6976656175206D
:1032E00064657320636F696E7300562E72C3A97490
:1032F0002E20726570726973650052C3A9742E72B4
:10330000657072697365206D6D0053617574205A24
:10331000206D6D005669742E2072C3A974726163AA
:1033200074C2B00052C3A974726163746174696F2E
:103330006E206D6D0052C3A97472616374696F6E03
:10334000206175746F00526564C3A96D6172726506
:10335000722053565000494D50522E2053544F5016
:1033600050C389450025533A202553004B494C4C06
:103370004544005072696E7465722068616C7465B2
:10338000642E206B696C6C28292063616C6C656409
:10339000210A006563686F3A004572726F723A00E5
:1033A00042696C696E656172204C6576656C696E08
:1033B0006720477269643A0A00252900257C0020AD
:1033C0003B2043757272656E74205A00203B204585
:1033D0006E6400203B205374617274004772616414
:1033E00069656E74204D6978200052616E646F6D5E
:1033F000204D697820004D32342053256C642054D0
:10340000256C64004739322E392045257300473139
:1034100020462564004739322E39205A257300474B
:1034200031205A3020463230300047312058257341
:1034300020592573204633303030004D343230204F
:10344000532569205A2573004D31303620502569A7
:1034500020532569004D31303920532569004D3105
:10346000393020532569004D323030204425730017
:1034700047323852305859004739322E39204530BA
:10348000205A300A47315A2573004D3432302053C8
:1034900030205A300020496E76616C69642065786E
:1034A000747275646572200020496E76616C69647F
:1034B000204520737465707065722000204520736C
:1034C000746570706572206E6F74207370656369C7
:1034D000666965640A001FE020102010201010208B
:1034E00010202010201030300840048003001FE01E
:1034F0003FF03FF03FF01FE01FE03FF03FF03FF0B4
:103500000FC0078003003FFFF038007030FC302010
:10351000FC102078102030102C00D02E31D02F7BC2
:10352000D02F7BD02E31D02C00D02030102078101E
:1035300020FC1030FC303800703FFFF03FFFF038C7
:1035400000703186302387102787902F87D02F0374
:10355000D02030102078102078102030102F03D089
:103560002F87D02787902387103186303800703F0F
:10357000FFF01FFFF81FFFF80410400208200208A8
:1035800020041040082080104100104100082080D5
:103590000410400000001FFFF81FFFF83300CC00AC
:1035A000CC12004800481200480048120048004869
:1035B00013FFCFFFC810000000081FFF83FFF800B3
:1035C0000FC7E000000FEFE0000003EF80000001F4
:1035D000EF000000006C000000000000002568758E
:1035E0003A253032687500256875642025303268C8
:1035F000753A2530326875002020202020202000D8
:10360000507265737320627574746F6E20746F20CE
:10361000726573756D650A0050726573732062750B
:1036200074746F6E20746F2068656174206E6F7A99
:103630007A6C650A004F46460A0046616465204878
:1036400065696768742000426564204C6576656C26
:10365000696E6720004661696C656420746F20653F
:103660006E61626C6520426564204C6576656C69AC
:103670006E670A00496E76616C6964206D657368D7
:103680002E0A005665206A65726B00565A206A65DC
:10369000726B005659206A65726B005658206A6535
:1036A000726B0044C3A963616C6167652059004473
:1036B000C3A963616C616765205800452070617320
:1036C0002F6D6D005A207061732F6D6D0059207041
:1036D00061732F6D6D0058207061732F6D6D0049FF
:1036E0006E69742E004D34323800496E6974696118
:1036F0006C6973657220454550524F4D0046696CA8
:10370000616D656E74005061732F6D6D00506F7345
:103710006974696F6E20736F6E6465205A0041632F
:1037200063C3A96CC3A9726174696F6E0056C3A9A3
:103730006C6F636974C3A90052C3A9676C2E2064BF
:10374000C3A963616C206F726967696E65004D651E
:103750007375726520706F696E740025532025693A
:103760002F25690050726F62696E67206D657368FE
:1037700020706F696E7420004F66667365742063F5
:103780006174636865642021006661696C2C206D3A
:10379000616E75616C206C6576656C004661696C64
:1037A00021204D6F766520646F776E2050726F62B6
:1037B000652E00546F206361746368206F666673C2
:1037C000657400202844525952554E290047323919
:1037D000204175746F20426564204C6576656C6984
:1037E0006E67003F20284C2C522C462C4229206F1B
:1037F0007574206F6620626F756E64732E0A003FC9
:103800002856296572626F7365206C6576656C2039
:10381000696D706C61757369626C652028302D3438
:10382000292E0A00426164205A2076616C75650A6F
:10383000004E6F2062696C696E6561722067726903
:10384000640A00204D393220580020204D61783A1A
:10385000200020204D696E3A2000536F6674206569
:103860006E6473746F70733A2000496D70722E200D
:10387000616E6E756CC3A965004D323520500A4DDE
:103880003234004D69736520656E20706175736513
:103890002E2E2E00205A3A200020593A2000426550
:1038A0006420583A2000496D70722E20656E207099
:1038B000617573650050726F62696E672046616959
:1038C0006C65640A00456368656320736F6E6465A8
:1038D000004F726967696E65202573257325732013
:1038E0005072656D69657200496E73657274206609
:1038F000696C616D656E7420616E642070726573B1
:103900007320627574746F6E0A0020573A005A383B
:10391000545F4D33207072C3AA74652E00496D70D8
:1039200072657373696F6E00220A00556E6B6E6F5D
:10393000776E20636F6D6D616E643A20220044C320
:10394000A96D617272657220696D707265737369B9
:103950006F6E00496D7072696D65720043616E6EC5
:103960006F7420656E746572207375626469723A53
:103970002000022E2E000141637475616C6973652D
:103980007200496E7665727365722064C3A96772AE
:103990006164C3A900202046696E20562D746F6FA4
:1039A0006C0044C3A962757420562D746F6F6C004F
:1039B0004A65726B005761726E696E673A20486F94
:1039C0006D696E672042756D702044697669736F0A
:1039D00072203C20310A00206C696D697465642096
:1039E000746F2000204D61782000000048420000E4
:1039F0004842000080400202040000A0400000A0F5
:103A000040000000400000A54300009B430000C8A8
:103A100043FFFFFF205200454550524F4D20496E55
:103A2000697469616C697A65640A004861726463EB
:103A30006F6465642044656661756C7420536574B9
:103A400074696E6773204C6F616465640A003B2083
:103A50000020204D363033200020204D34313220DC
:103A6000530046696C616D656E742072756E6F757A
:103A7000742073656E736F723A0020550046696C4E
:103A8000616D656E74206C6F61642F756E6C6F6113
:103A900064206C656E677468733A0020204D383579
:103AA000312058005A2D50726F6265204F66667340
:103AB00065740020204D3230392053004175746FF9
:103AC0002D526574726163743A20533D3020746FD7
:103AD0002064697361626C652C203120746F2069E9
:103AE0006E7465727072657420452D6F6E6C7920EE
:103AF0006D6F766573206173207265747261637493
:103B00002F7265636F7665720020204D3230382049
:103B100053005265636F7665723A20533C6C656E54
:103B20006774683E20463C756E6974732F6D3E0065
:103B300020570020204D32303720530052657472D8
:103B40006163743A20533C6C656E6774683E20462E
:103B50003C756E6974732F6D3E205A3C6C696674B7
:103B60003E0020204D343133205300506F77657272
:103B70002D4C6F7373205265636F766572793A00CE
:103B800020204D333031205000504944207365745B
:103B900074696E67733A0020460020480020204D6B
:103BA0003134352053004D6174657269616C206851
:103BB000656174757020706172616D657465727392
:103BC0003A0020204D36363600456E6473746F70AF
:103BD0002061646A7573746D656E743A00204A00E2
:103BE0002020473239205720490020204D343230E0
:103BF0002053004175746F20426564204C657665E2
:103C00006C696E673A0020204D32303620580048EB
:103C10006F6D65206F66667365743A0020204D32C3
:103C20003035204200416476616E6365643A20421B
:103C30003C6D696E5F7365676D656E745F74696D09
:103C4000655F75733E20533C6D696E5F66656564A4
:103C5000726174653E20543C6D696E5F747261766A
:103C6000656C5F66656564726174653E20583C6D85
:103C700061785F785F6A65726B3E20593C6D617850
:103C80005F795F6A65726B3E205A3C6D61785F7A3E
:103C90005F6A65726B3E20453C6D61785F655F6A67
:103CA00065726B3E0020540020204D32303420508D
:103CB00000416363656C65726174696F6E2028757D
:103CC0006E6974732F7332293A20503C7072696E9A
:103CD000745F616363656C3E20523C72657472610F
:103CE00063745F616363656C3E20543C74726176FB
:103CF000656C5F616363656C3E0020204D3230313E
:103D00002058004D6178696D756D20416363656C65
:103D100065726174696F6E2028756E6974732F7394
:103D200032293A0020204D3230332058004D61783E
:103D3000696D756D206665656472617465732028B0
:103D4000756E6974732F73293A005374657073200C
:103D500070657220756E69743A0020440020204D11
:103D60003230302053002044697361626C65640A0C
:103D70000046696C616D656E742073657474696E5C
:103D800067733A0020204D3134392043203B2055C1
:103D90006E69747320696E2043656C736975730A6C
:103DA0000020286D6D29002020473231202020205E
:103DB0003B20556E69747320696E206D6D000000A4
:103DC000FA430000FA430000A0400000C84200008F
:103DD000A0420000A0420000C8430000C843B80B46
:103DE0000000B80B00006400000010270000496DBF
:103DF0007072657373696F6E2053440044C3A97079
:103E00006C616365722025736D6D0044C3A9706C8D
:103E10006163657220302E316D6D0044C3A9706CF2
:103E20006163657220316D6D0044C3A9706C61637C
:103E300065722031306D6D0044C3A9706C6163659B
:103E40007220756E206178650045787472756465BE
:103E500075720044C3A9706C61636572205A004496
:103E6000C3A9706C6163657220590044C3A9706C6A
:103E70006163657220580000000A0B02090C0D0EE8
:103E8000080703040100000000000000000000001B
:103E90000000000000000000000000000000000022
:103EA00000000012111000000000000000000000DF
:103EB00000000000000000000000000000002102DF
:103EC000390211241FBECFEFD1E2DEBFCDBF00E02B
:103ED0000CBF13E0A0E0B2E0EEEAF3EA02E00BBFB1
:103EE00002C007900D92A434B107D9F726E1A4E4EB
:103EF000B3E001C01D92AC3BB207E1F71FE1C0E6A1
:103F0000DFE100E006C021970109802FFE010F9438
:103F10002D4FCF35D10780E00807A9F70F94CD3991
:103F20000D94C5510C9400002F923F924F925F92D6
:103F30006F927F928F929F92AF92BF92CF92DF92B9
:103F4000EF92FF920F931F93CF93DF93CDB7DEB71E
:103F5000A7970FB6F894DEBF0FBECDBF8FA32091F9
:103F6000C5142EA321E02093C514809127048D341D
:103F700009F4D0C3843511F40C942A31873411F03C
:103F80000C94553180912504909126048B31910534
:103F900009F463C1F4F488309105D1F14CF497FD34
:103FA000B5C382309105A4F1049709F412C1AEC3E0
:103FB0008B30910509F44CC18531910511F40C94B5
:103FC00057310A9709F0A2C381E00E9414DE0C94D5
:103FD00057318A32910509F4B9C254F48D319105F3
:103FE00009F465C10CF453C14E9709F47EC18EC328
:103FF0008B35910509F4F4C18C35910509F4F5C1AF
:104000008A35910509F082C31092F5140C9457314A
:104010008091B406813011F00C94573119821A82C4
:104020001B821C82CE0101965C012BEFE22E25E162
:10403000F22E06E512E033E0C32E30E1D32E912CB0
:1040400088E5890D0E94ECF9F50181935F018823D1
:1040500011F10E9491F72B013C01892D0E94DEE6AF
:10406000882351F0F8012081318142815381C301BD
:10407000B2010F94364F09C0F6012081318142818F
:104080005381C301B2010F94354FF70160837183EF
:10409000828393830AC0F80180819181A281B381D8
:1040A000F70180839183A283B3839394F4E0EF0EAE
:1040B000F11C0C5F1F4F24E0C20ED11C33E09312A1
:1040C000BFCF85E40E94ECF98C83882301F10E9424
:1040D00091F76B017C0183E00E94DEE6882371F09A
:1040E0002091620230916302409164025091650216
:1040F000C701B6010F94364F6B017C01C0920716C1
:10410000D0920816E0920916F0920A1610C080911B
:10411000620290916302A0916402B0916502809363
:10412000071690930816A0930916B0930A1680916B
:104130004516882381F08091D71082FF0CC08C81B6
:10414000882349F08981811103C08A81882319F06D
:1041500080E00F94B71840E050E0BA0186E40E9476
:10416000466020E030E0A9010F94B950181684F49D
:104170000E9491F720E030E040E752E40F94B94FFD
:1041800060938D0270938E0280938F0290939002C1
:1041900080912416882311F40C94923185E40E94B6
:1041A000C8F7882311F40C94923188E50E94C8F76F
:1041B00081110C94923189E50E94C8F781110C9409
:1041C00092318AE50E94C8F781110C9492310C94C7
:1041D000603180E50E94ECF9882329F00F940107F3
:1041E0006B017C0103C0C12CD12C760183E50E94B8
:1041F000ECF9882361F00E9491F720E030E04AE773
:1042000054E40F9498480F9432506B017C010F9442
:10421000E72980915414811105C060E089ED96E092
:104220000F94DE130F94AE37C60ED71EE81EF91E8C
:104230000F94AE37DC01CB018C199D09AE09BF0983
:10424000B7FD02C00C94573180E00E948136F0CF58
:1042500080E00E9414DE0C9457310F94AA1C811147
:104260000C9457318CE0ECE9F2E0DE0111960190FC
:104270000D928A95E1F760E070E080E50E9488ED9C
:10428000BE016F5F7F4F0F94390F0C9457318091AF
:10429000C3148770873011F00C94BD3160E08FE457
:1042A0000E94F9F981110C9457310C94BD310F948F
:1042B000AE376093B40C7093B50C8093B60C9093AA
:1042C000B70C0F94AA1C81110C9457318091FA14E9
:1042D000882311F40C942D3260E08FE40E94F9F9E8
:1042E00081110C9457310C942D322091B7143091D8
:1042F000B8144091B9145091BA146091560270915B
:10430000570280915802909159020F94364FAB0199
:10431000BC0188E50E94466069837A838B839C8315
:104320002091BB143091BC144091BD145091BE1427
:1043300060915A0270915B0280915C0290915D02E3
:104340000F94364FAB01BC0189E50E9446606D8336
:104350007E838F839887BE016B5F7F4FCE0101966E
:104360000F947C07882311F40C94573180E00E944D
:104370003EE10E94C0A161E085E40E94F9F901E0FC
:1043800021E0482FBE016B5F7F4FCE0101960F9455
:10439000621D6B017C019B01AC010F9437518111AF
:1043A00019C049815A816B817C818EE998E30E9412
:1043B00083E54D815E816F81788589E998E30E946C
:1043C00083E5B701A60184E998E30E9483E58AE0CA
:1043D0000E9455350E94A7A10E9423A40C94573136
:1043E0008FE08093F5140C94573180912404882336
:1043F00049F1893009F0A6C083E1A82E83E0B82EE8
:1044000096E5E92E92E0F92ED12C00E010E0F501BE
:1044100081915F010E94ECF9882369F00E9491F775
:10442000F7016083718382839383133011F401E079
:1044300002C0DD24D3941F5FF4E0EF0EF11C1430B2
:1044400031F775C0B3E12B2EB3E03B2E1BE0E12E1C
:1044500015E1F12E26E532E03DA32CA303E0C02EAA
:1044600000E1D02E00E010E0F10181911F010E94D7
:10447000ECF9882309F44AC00E9491F72B013C0112
:10448000133049F0F60120813181428153810F942C
:10449000354F2B013C01ECA1FDA1208131814281EE
:1044A0005381C301B2010F94354F4B015C012DEBD9
:1044B00037E346E855EB0F94B95087FD0AC02DEB62
:1044C00037E346E855E3C501B4010F9432481816A6
:1044D000ECF4133051F44092620250926302609205
:1044E00064027092650201E011C0A5019401F70118
:1044F00060817181828193810F94364FF7016083CF
:10450000718382839383812F0F941D2E1F5FF4E0AC
:10451000EF0EF11C2CA13DA12C5F3F4F3DA32CA31E
:1045200034E0C30ED11C143009F09ECF05C0DD204D
:1045300019F00E9421A406C0002321F082E692E037
:104540000F948A2C0E9423A40C9457318091B406B6
:10455000813011F00C94573189E40E94ECF9E82E77
:10456000882321F00E948DF7082F01C000E08AE423
:104570000E94ECF9F82E882321F00E948DF7182F65
:1045800001C010E0EE2011F0043020F4FF2041F0D3
:10459000143030F082EE96E00E94C2E40C94573161
:1045A00080E1E6E5F2E0ABEFB5E101900D928A958E
:1045B000E1F7EE2019F1602F000F770B880B990BB4
:1045C0000F94394820911416309115164091161603
:1045D000509117160F9498482091B8043091B9045F
:1045E0004091BA045091BB040F94364F6093FB1571
:1045F0007093FC158093FD159093FE15FF2019F123
:10460000612F110F770B880B990B0F94394820916C
:1046100018163091191640911A1650911B160F94C6
:1046200098482091BC043091BD044091BE04509143
:10463000BF040F94364F6093FF157093001680935C
:1046400001169093021660E080E50E94F9F9882334
:10465000C1F1EE20D1F02091B7143091B8144091FF
:10466000B9145091BA146091FB157091FC158091AA
:10467000FD159091FE150F94354F6093FB157093C7
:10468000FC158093FD159093FE15FF20D1F020912D
:10469000BB143091BC144091BD145091BE14609174
:1046A000FF157091001680910116909102160F94DB
:1046B000354F6093FF157093001680930116909309
:1046C000021640E050E0BA0186E40E9446606B01A9
:1046D0007C0120E030E0A9010F94B95018164CF489
:1046E00020E030E040E752E4C701B6010F94B94F33
:1046F00003C060E070E0CB0169837A838B839C8385
:10470000CE0101960E94DFA10C9457310F94CB1972
:104710000C94573180912504909126048B39910592
:1047200009F4F0C50CF015C18335910509F429C6CB
:104730000CF082C08A31910509F446C3BCF584317E
:10474000910509F499C27CF48131910509F480C284
:104750002CF4029708F444C20C942731429709F4D0
:1047600017C60C9427318731910509F4BAC294F425
:104770008531910509F4B1C2469711F00C942731A7
:104780000E94DDB48091D710877F80628093D7101C
:104790000C9457318831910509F4B8C2499711F04A
:1047A0000C9427310E94AEEC0C9457318032910565
:1047B00009F482C3F4F48D31910509F466C384F4DD
:1047C0008B31910509F40EC34C9711F00C942731ED
:1047D00080912204909123040E9416B80C945731C2
:1047E0008E31910509F458C34F9709F48EC30C9488
:1047F00027318D34910509F437C46CF48B3491055D
:1048000009F42EC48C34910511F00C9427310E94C8
:10481000BDA50C9457318135910509F49CC58235AD
:10482000910511F00C9427318091F5148F7D8061F2
:104830008093F5140C9457318037910509F410C515
:10484000E4F58A36910509F46AC4CCF48C359105F7
:1048500009F4F7C554F48435910509F499C58535F3
:10486000910509F4CBC50C9427318836910509F4DC
:10487000FFC38936910509F43EC40C9427318D3667
:10488000910509F416C47CF48B36910509F485C4AE
:104890008C36910511F00C9427311092C4141092AB
:1048A0008B020C9457318E36910509F481C48F36F2
:1048B000910509F490C40C9427318737910509F4C8
:1048C00023C73CF58337910509F459C68CF4813729
:1048D000910509F4CEC48237910511F00C9427316B
:1048E0000E940AC484E690E10E946AC90C94573180
:1048F0008537910509F4C5C68637910511F00C94EA
:104900002731009122041091230494E0F12C40E01F
:10491000DFC68D37910509F41BC58CF488379105E6
:1049200009F4F5C68937910511F00C9427311092DE
:10493000E0041092DF040E943BA50C9457318C38A0
:10494000910509F4BBC48139910509F4E8C60C94BA
:1049500027318139E1E09E0711F40C94222F0CF0ED
:1049600087C08E3C910511F40C940B2DD4F58E3B31
:10497000910509F4C4C4C4F4843A910509F45FC7ED
:1049800034F4833A910509F43EC70C942731863AF2
:10499000910509F467C7873A910511F00C94273106
:1049A0000E949BED0C9457318B3C910509F4E3C7B1
:1049B00054F4883C910509F458C7893C910509F4E1
:1049C00099C70C9427318C3C910511F40C94DA2C86
:1049D0008D3C910511F00C9427310F9411070C9424
:1049E00057318D3D910511F40C94EE2DF4F4813D79
:1049F000910511F40C94B72D64F48F3C910511F4DA
:104A00000C94292D803D910511F40C946D2D0C947E
:104A10002731833D910511F40C94C42D8C3D9105F3
:104A200011F40C94C72D0C9427318D3221E092079C
:104A300011F40C949F2E6CF48232E1E09E0711F485
:104A40000C94432E8C32914011F40C948A2E0C94C9
:104A500027318F3221E0920711F40C941F2F8039F7
:104A6000914011F00C9427310F94E7290C945731A1
:104A7000883FE1E09E0711F40C942A300CF057C0F7
:104A8000853A21E0920711F40C94542F2CF58C39BF
:104A9000E1E09E0711F40C942E2F7CF4823921E082
:104AA000920711F40C94282F8A39914011F00C943C
:104AB00027310E9475340C9457318D39E1E09E07FF
:104AC00011F40C94EC30843A914011F00C9427319D
:104AD0000E9416F80C945731853F21E0920711F49B
:104AE0000C9424307CF48C3AE1E09E0711F40C9491
:104AF000C72F843F914011F00C9427310E94296BFD
:104B00000C945731863F21E0920711F40C94273022
:104B1000873F914011F00C94273161E083E50E94BA
:104B2000F9F991E089270F94C1310C9457318E3BEC
:104B3000E2E09E0711F40C94D8302CF58B3522E07E
:104B4000920711F40C9447307CF48C30E2E09E071D
:104B500011F40C943A308835924011F00C942731BE
:104B60000E949CEB0C9457318A3922E0920711F491
:104B70000C94BF308D3B924011F00C9427310E9471
:104B80004BEA0C945731873EE3E09E0711F40C94F6
:104B9000DE30CCF4833523E0920711F40C94DB3043
:104BA000803A934011F00C942731209122043091E7
:104BB00023049091D71092609093D710C9010E945E
:104BC00016B80C945731883EE3E09E0711F40C941C
:104BD0000631893E934011F40C9409310C9427312D
:104BE00080E50E94ECF9882329F00F9401076B01FE
:104BF0007C0103C0C12CD12C760183E50E94ECF925
:104C0000882361F00E9491F720E030E04AE754E405
:104C10000F9498480F9432506B017C010F94E72950
:104C20008091220490912304009721F061E00F9479
:104C3000741405C060E08BEF96E00F94DE1340E043
:104C4000C701B6010E94D93B0F941C1A0C9457312E
:104C50008091280484FF02C00C94303280912A0491
:104C600087FF02C00C94303280912B04837011F0C6
:104C70000C9430320C944E328091D71083FF25C0B3
:104C80008BE297E00E94C2E48091D71083FF17C0A7
:104C900084EF90E10E94A6C08BE1E4EFF0E1DE0139
:104CA000119601900D928A95E1F760E070E0CE01D7
:104CB00001960E943AB9CE0101960E9426FA8CE133
:104CC00097E00E94C2E40C9457310E94B8E58CE34F
:104CD00097E00E94C2E40C9457310E949CB50C945A
:104CE0005731E0912204F09123048081882329F038
:104CF000803209F410823196F8CF60E0809122046E
:104D0000909123040E945EB80C94573183E50E9471
:104D1000ECF9882321F00E9459F70E94746684E51B
:104D20000E94ECF98823A9F00E9459F76B017C01DD
:104D30000E947EA5C0921E0DD0921F0DE092200D04
:104D4000F092210DCD28CE28CF2819F081E0809354
:104D5000EE148091690D8823F9F080E090E0A8E4DA
:104D6000B2E488A399A3AAA3BBA31C8E1D8E1E8E9A
:104D70001F8E19821A821B821C8200E010E020E044
:104D8000AE01405E5F4FBE01645E7F4FCE01019673
:104D90000E94CDFA0C9457310E949A34882381F0F6
:104DA0000E94EEB40E9499A58EE795E10E9493B40B
:104DB00010922C0410922D0410922E0410922F04A5
:104DC0000F941C1A0C9457318091D71083FD02C0A8
:104DD0000C94573183E50E94ECF981110C945E32FA
:104DE0000C94573183E40E94C8F7882319F180E5B9
:104DF00097E00E94C2E480913B12882391F0BE01AB
:104E00006F5F7F4F88E392E10E9472C08E010F5F57
:104E10001F4FF80181918F01882339F00E94553589
:104E2000F8CF86E497E00E94C2E48AE00E945535FC
:104E30000C9457318091D71082FF21C08FE597E005
:104E40000E94C2E46091D3107091D4108091D5106B
:104E50009091D6104AE00E945C358FE20E94553551
:104E60006091CF107091D0108091D1109091D2109C
:104E70004AE00E945C350E945A360C94573181E713
:104E800097E00E94C2E40C9457318091D7108E7F36
:104E90008093D7100C9457318091D71083FD02C0B6
:104EA0000C9457310F94B4198091220490912304EB
:104EB0000E9474B70C9457318091D71082FD0F94E3
:104EC000E7298091D71083FD02C00C94573160E030
:104ED00080E50E94F9F9182F682F809122049091A3
:104EE00023040E945EB883E50E94ECF9882321F038
:104EF0000E9459F70E9474660E94EEB411110C943E
:104F000057310E9499A50C9457310E944AA57B0104
:104F10008C0120E831E541E050E00F94884EC90152
:104F20006DE671E00F94054F4B015C01C801B701BC
:104F300020E13EE040E050E00F94884ECA01B90104
:104F400028E130E040E050E00F94884E762E672E46
:104F5000C62ED72EACE32A2E312C412C512CC80161
:104F6000B701A20191010F94884EF62EE72ECA01D7
:104F7000B901A20191010F94884ECB018E010F5F00
:104F80001F4F8114910499F0EF92FF927F936F93DA
:104F90006F927F92BF92AF929F928F9282E897E03A
:104FA0009F938F931F930F930F94CA4713C0A1141D
:104FB000B104B1F0EF92FF927F936F936F927F9263
:104FC000BF92AF9286E897E09F938F931F930F93C2
:104FD0000F94CA470FB6F894DEBF0FBECDBF30C0E6
:104FE000CD2879F0EF92FF927F936F936F927F922B
:104FF0008AE897E09F938F931F930F930F94CA476C
:10500000E9CF892B69F0EF92FF927F936F938EE83F
:1050100097E09F938F931F930F930F94CA47DACF14
:10502000EF92FF9282E997E09F938F931F930F93E4
:105030000F94CA470F900F900F900F900F900F9002
:1050400060E0C8010F9474140E94B8E5B80186E9C5
:1050500097E00E94A1E58AE00E9455350C945731F3
:105060000E9499A50C9457310E94D2A50C945731F7
:1050700080916B0C83FF02C00C94573189E40E942D
:10508000ECF9882311F40C9463320E9469F790E0E4
:105090001816190614F481E090E026E0289FF0012C
:1050A000299FF00D1124EA5BF94E808191810C94C7
:1050B0006E3280916B0C83FF02C00C94573189E4EF
:1050C0000E94ECF9882311F40C9475320E9469F760
:1050D00090E01816190614F481E090E026E0289F6D
:1050E000F001299FF00D1124EA5BF94E8081918136
:1050F00010E00C9486320E94B5E6182F87FD0AC096
:1051000083EA99E10E94C2E4812F0E947DAA8AE08D
:105110000E9455353EA13093C5140C94123460E0C2
:1051200080E50F943D0981110C94573181E40E9470
:10513000C8F7882329F060910107062F10E002C00C
:105140000FEF10E089E40E94ECF9882399F00E94A7
:1051500069F790E01816190614F481E090E026E053
:10516000289FF001299FF00D1124EA5BF94E04817C
:10517000158108C083E50E94ECF9882319F00E948C
:1051800059F78B01B8010F3F110519F010F06FEFBF
:1051900070E0609301070C94573160E080E50F9454
:1051A0003D0981110C945731109201070C9457312D
:1051B0008EE40E94ECF9882311F40C9457310E947C
:1051C00059F76093B4047093B5048093B604909338
:1051D000B7040C94573183E50E94C8F7882331F057
:1051E00060E083E50F943D0980936B0C0E94B8E565
:1051F0008CEB97E00E94C2E480916B0C882369F1EC
:10520000F6E6EF2EFBE0FF2E00E010E020E08091BC
:105210006B0C90E0A0E0B0E0002E04C0B695A7951E
:10522000979587950A94D2F780FF0EC0DD24D3941A
:10523000D20E222319F08CE20E945535F701859198
:1052400094910E94C2E42D2D0F5F1F4F82E0E80E63
:10525000F11C05301105D9F6E8CD88EB97E0E3CDD8
:1052600041E060E070E083EC97E00E94BCE50C94C4
:10527000573183E50E94ECF9882381F00E9469F799
:10528000282F30E02D33310524F4809300020C9454
:1052900057318CE3809300020C9457310E94B8E59B
:1052A0004091000250E060E070E081ED97E00E94E4
:1052B00065E58AE00E9455350C94573180916B0C5E
:1052C00083FF02C00C94573189E40E94ECF98823D3
:1052D00011F40C94C7320E9469F790E01816190671
:1052E00014F481E090E026E0289FF001299FF00D62
:1052F0001124EA5BF94E628173810C94D1320E94D1
:105300007E64D5C783E50E94ECF9882309F4CFC7F2
:105310000E9469F7182F90E0CD970CF01CE31093D2
:1053200049030F94AE376B017C01212F30E0A8EECA
:10533000B3E00F94DC4EC60ED71EE81EF91EC092D5
:105340004503D0924603E0924703F0924803AFC76B
:105350000E94AEECACC70E9440AB0E94D2A50F9455
:10536000F8290E94BE3468EE73E080E090E00E946D
:105370009EE40E94C13460E088ED97E00F94DE1354
:1053800096C78091F5148F7E80628093F5148FC745
:1053900083E50E94ECF98823E9F00F94AE3760931F
:1053A000B40C7093B50C8093B60C9093B70C0E941C
:1053B00091F720E030E04AE754E40F9498480F94C6
:1053C0003250609301027093020280930302909323
:1053D00004026DC78091280484FF02C00C94E2325D
:1053E00080912A0487FF02C00C94E23280912B0442
:1053F000837011F00C94E2320C94143383E50E9414
:10540000C8F7882309F453C70F94AE376093B40CE0
:105410007093B50C8093B60C9093B70C0E9491F7E3
:1054200020E030E04AE754E40F9498480F9432505B
:1054300060934A0370934B0380934C0390934D0306
:1054400036C70E94B5E687FD32C79091280494FDC7
:1054500004C090912A0497FF0AC073E1C72E73E03D
:10546000D72EECE6EE2EECE0FE2E10E009C0909177
:105470002B04937091F7682F81E00F94C60617C72D
:10548000F60181916F010E94ECF9882309F46DC047
:10549000133009F063C00E9491F74B015C0120E0DA
:1054A00030E040EA51E40F94324887FF4EC0A50136
:1054B000940160918C0C70918D0C80918E0C909168
:1054C0008F0C0F94B94F2B013C019B01AC016091F3
:1054D000E5067091E6068091E7069091E8060F9444
:1054E00098486093E5067093E6068093E7069093EC
:1054F000E806A301920160919C0C70919D0C809133
:105500009E0C90919F0C0F94984860939C0C709304
:105510009D0C80939E0C90939F0C6091F50670916A
:10552000F6068091F7069091F8060F943748A3018C
:1055300092010F9498480F9432506093F50670933F
:10554000F6068093F7069093F80680928C0C909262
:105550008D0CA0928E0CB0928F0C07C00E9491F718
:10556000F701648B758B868B978B1F5FF4E0EF0ED2
:10557000F11C143009F084CF0F94C32998C68FE230
:1055800099E00E94C2E460E08FE199E00E944F6AD6
:1055900060E08AE099E00E944F6A61E086EF96E35E
:1055A0000E944F6A61E08FEF98E00E944F6A61E0CD
:1055B0008FEE98E00E944F6A60E086EE98E00E94CD
:1055C0004F6A61E08CED98E00E944F6A61E082EDE5
:1055D00098E00E944F6A61E08BEC98E00E944F6A6D
:1055E00061E083EC98E00E944F6A61E085EB98E00F
:1055F0000E944F6A60E087EA98E00E944F6A60E08C
:1056000088E998E00E944F6A60E08AE898E00E948A
:105610004F6A60E084E798E00E944F6A60E083E6AA
:1056200098E00E944F6A60E084E598E00E944F6A2B
:1056300061E08DE498E00E944F6A60E088E398E0C2
:105640000E944F6A60E08AE298E00E944F6A60E040
:1056500087E198E00E944F6A60E08AE098E00E944B
:105660004F6A60E085E098E00E944F6A61E088EF51
:1056700097E00E944F6A60E084EE97E00E944F6AD4
:1056800016C68091220490912304009709F498CBC8
:10569000FC012081222309F493CB60E00F94741461
:1056A00006C6F8018081282F2B7F2134A1F0803598
:1056B000F1F4F801818180538A30C8F498012E5F9B
:1056C0003F4F89012F5F3F4FF80180818032C9F33E
:1056D000915039F70CC02181213349F4813421F0F4
:1056E000853461F741E0EACFFF24F394E7CF41111D
:1056F0000E94B8E5FF2021F086E09AE00E94C2E413
:10570000C8010E946036D3C50E9400A5D0C581E0C3
:105710008093E0048093DF040E943BA5C8C560E04D
:1057200070E083E50F942E09823038F00E94B4E5D2
:105730008AE09AE00E94C2E4BAC58C01112788E48D
:105740000E94ECF98823E1F00E948DF78A3A9105D6
:1057500044F00E948DF78530914034F40E948DF71B
:1057600005C08AEA90E002C084E091E026E0209F34
:10577000F001219FF00D1124EA5BF94E91838083A3
:1057800082E40E94ECF98823D9F00E948DF70597F6
:1057900044F00E948DF78937910534F40E948DF70B
:1057A00005C085E090E002C088E790E026E0209FF9
:1057B000F001219FF00D1124EA5BF94E938382835F
:1057C00086E40E94ECF9882309F471C50E948DF7E4
:1057D00097FD09C00E948DF78F3F910509F034F4C1
:1057E0000E948DF705C080E090E002C08FEF90E04E
:1057F00026E0209FF001219FF00D1124EA5BF94E75
:105800009583848354C560E070E083E50F942E098E
:105810008C01833091056CF460E070E080E50F94BA
:105820002E091127F801E450FC4E80830E9475FF79
:105830003EC541970CF43BC50F940D0038C56FEF82
:105840007FEF83E50F942E0997FD07C08031910506
:105850000CF02DC50E94B7DD2AC5809148070E9433
:10586000B7DD25C50E9454EE22C50E94B5E6182F6B
:1058700087FD1DC500910A1584E40E94ECF9882378
:1058800009F4D5C60E9491F76B017C0120E030E05D
:10589000A9010F943248882339F124E01202F00163
:1058A0001124EA5FFA4EC082D182E282F38220E0C4
:1058B00030E0A901609106157091071580910815D7
:1058C000909109150F94324881110CC080E090E04E
:1058D000A0EEBFE38093061590930715A0930815DB
:1058E000B093091501E0A3C680E080930A150F94D8
:1058F0007027DDC40E94B5E687FDD9C453E1C52EEB
:1059000053E0D52E6CE6E62E6CE0F62E10E0F601A4
:1059100081916F010E94C8F7882331F10E9491F7AD
:105920006C8F7D8F8E8F9F8F80E1E8EAF2E0DE0141
:10593000119601900D928A95E1F79E012F5F3F4FDE
:105940004CE25AE0612FCE014C960F94B3286C8D37
:105950007D8D8E8D9F8D0F943250F7016083718302
:10596000828393830F947C291F5FF4E0EF0EF11C78
:10597000143069F69CC40E94B5E687FD98C443E1E3
:10598000E42E43E0F42E0CE61CE0F70181917F0148
:105990000E94C8F7882339F00E9491F7F80164A3A8
:1059A00075A386A397A30C5F1F4FFCE00C371F075E
:1059B00061F77DC48091290487FD3EC680912A0449
:1059C0008E7009F039C64091A00C5091A10C6091E5
:1059D000A20C7091A30C89E39AE00E9483E54091A8
:1059E000A40C5091A50C6091A60C7091A70C84E1B9
:1059F0009AE30E9483E54091A80C5091A90C609114
:105A0000AA0C7091AB0C85EA9CE30E9483E58AE0C6
:105A10000E9455354CC437E1E32E35E1F32E10E0FA
:105A200088E5810F0E94C8F7882351F00E9491F702
:105A3000F7016083718382839383812F0F941D2EDE
:105A40001F5FF4E0EF0EF11C133051F70E9423A406
:105A50002EC483E50E94C8F7882351F00E9491F775
:105A60006093251670932616809327169093281618
:105A700086E40E94C8F7882381F00E9491F720E015
:105A800030E040E752E40F94B94F609329167093C9
:105A90002A1680932B1690932C168AE50E94C8F73D
:105AA000882351F00E9491F760932D1670932E1663
:105AB00080932F169093301687E50E94C8F78823AD
:105AC00009F4F5C30E9491F76093391670933A1662
:105AD00080933B1690933C16EAC383E50E94C8F777
