:100000000C94A9100C94DA100C94DA100C94DA10F9
:100010000C94DA100C94DA100C94DA100C94DA10B8
:100020000C94DA100C94DA100C94DA100C94DA10A8
:100030000C94DA100C94DA100C94DA100C94DA1098
:100040000C94DA100C94795B0C94DA100C94DA109E
:100050000C94DA100C94DA100C9460AA0C945AB830
:100060000C94DA100C94F32E0C94DF2E0C94DA100E
:100070000C94DA100C94DA100C94DA100C94DA1058
:100080000C9439270C94DA100C94DA100C94DA10D2
:100090000C94DA100C94DA100C94DA100C94DA1038
:1000A0000C94DA100C94DA100C940B270C94DA10E0
:1000B0000C94DA100C94DA100C94DA100C94DA1018
:1000C0000C94DA100C94DA100C94DA100C947F284B
:1000D0000C94E92E0C94DA100C94DA100C94DA10CB
:1000E0000C94DA10232C282C2D2C372C412CBA2CD4
:1000F0004B2C532C5B2C652C6F2C792C882C922C40
:10010000BA2C9C2CA62CB02C0C3329333E33533301
:100110006433753386339733B033C933DE33EB330F
:10012000003419343A34C5B7C8B7B7B7BBB7BFB78F
:10013000FFB7CCB7D0B7D6B7DAB7DEB7E4B7E8B712
:10014000ECB7FFB7F2B7F6B7FAB70C949CC40C94AF
:100150002D2C0C94C5B70C945B2C0C94F6B70C9416
:10016000A62C0C94792C0C9486330C94B02C0C9403
:10017000BA2C0C94652C0C94232C0C9475330C9491
:10018000D0B70C94DEB70C94EB330C9400340C9481
:10019000FFB70C94B0330C94F2B70C9453330C9417
:1001A000E4B70C94FAB70C9419340C94E8B70C9497
:1001B000DE330C94B7B70C94ECB70C947EC40C945B
:1001C000532C0C94372C0C9464330C949C2C0C946E
:1001D000C9330C94412C0C94922C0C94BFB70C9402
:1001E000882C0C94BBB70C94DAB70C943E330C9467
:1001F000D6B70C94CCB70C940C330C94C8B70C94B1
:100200006F2C0C94282C0C944B2C0C943A340C949A
:1002100029330C9497334E414E494E495459494E17
:1002200046CDCCCC3D0AD7233C17B7D13877CC2B61
:10023000329595E6241FB14F0A000020410000C806
:100240004200401C4620BCBE4CCA1B0E5AAEC59D87
:100250007400407A10F35A00A0724E18090010A5DD
:10026000D4E80000E87648170000E40B54020000D0
:10027000CA9A3B000000E1F5050000809698000056
:100280000040420F000000A086010000001027007F
:10029000000000E803000000006400000000000A05
:1002A00000000000000100000000002C76D888DC6F
:1002B000674F0823DFC1DFAE59E1B1B796E5E3E44C
:1002C00053C63AE651997696E8E6C28426EB898CC5
:1002D0009B62ED407C6FFCEFBC9C9F40F2BAA56F27
:1002E000A5F490055A2AF75C936B6CF9676DC11BF6
:1002F000FCE0E40D47FEF520E6B500D0ED902E03BE
:1003000000943577050080841E080000204E0A0006
:100310000000C80C333333330F986E12831141EF52
:100320008D2114893BE65516CFFEE6DB18D1844BB0
:10033000381BF77C1D901DA4BBE424203284725E20
:10034000228100C9F124ECA1E53D27434F4D4D55D5
:100350004E49434154494F4E0044525952554E0064
:100360004552524F525300494E464F004543484F65
:10037000004D65736820706F696E74206F7574200E
:100380006F662072616E67650A00456E642066695B
:100390006C65206C6973740A00426567696E20663B
:1003A000696C65206C6973740A004E6F206D65641A
:1003B00069610A002569792025696420256968201A
:1003C00025696D20256973005072696E7420746907
:1003D0006D653A20006F66660044454255473A0015
:1003E0004D3131322053687574646F776E004D3132
:1003F00031332053004348414D4245525F54454DEF
:10040000504552415455524500424142595354457A
:100410005050494E470041524353004D4F54494FAD
:100420004E5F4D4F44455300544845524D414C5F3B
:1004300050524F54454354494F4E004C4F4E475F26
:1004400046494C454E414D45004155544F5245504B
:100450004F52545F53445F535441545553005344D7
:10046000434152440050524F4D50545F53555050E9
:100470004F525400454D455247454E43595F5041F8
:100480005253455200434153455F4C494748545FDE
:100490004252494748544E45535300544F47474CE6
:1004A000455F4C494748545300534F4654574152B7
:1004B000455F504F574552004255494C445F5045A7
:1004C0005243454E54004C4556454C494E475F44B7
:1004D000415441005A5F50524F42450052554E4FD1
:1004E0005554004155544F4C4556454C00505249C7
:1004F0004E545F4A4F420050524F475245535300AB
:100500004155544F5245504F52545F54454D500041
:10051000564F4C554D455452494300454550524F56
:100520004D0042494E4152595F46494C455F545235
:10053000414E534645520053455249414C5F584F36
:100540004E5F584F4646004649524D574152455F0F
:100550004E414D453A4D61726C696E206D61726C11
:10056000696E2D322E302E3820284E6F7620313095
:1005700020323032302031303A35333A303429208D
:10058000534F555243455F434F44455F55524C3A94
:1005900068747470733A2F2F6769746875622E637C
:1005A0006F6D2F4D61726C696E4669726D77617205
:1005B000652F4D61726C696E2050524F544F434FFE
:1005C0004C5F56455253494F4E3A312E30204D41E3
:1005D0004348494E455F545950453A5A38545F4D47
:1005E000332045585452554445525F434F554E545D
:1005F0003A3120555549443A636564653261326643
:100600002D343161322D343734382D396231322D69
:100610006335356336326633363766660A002F2F08
:100620002000416363656C65726174696F6E00419F
:100630006363656C65726174696F6E3A2050004641
:10064000523A0020466C6F773A200020536572764C
:100650006F20004261627973746570205A002064D3
:100660003A0020693A0020703A00496E76616C6960
:10067000642065787472756465720A004D34323195
:1006800020696E636F727265637420706172616D50
:10069000657465722075736167650A00546F6F2019
:1006A0006661722066726F6D207265666572656E36
:1006B000636520706F696E740A00454550524F4D56
:1006C000204F4B0A00205A323A004475616C204595
:1006D0006E6473746F702041646A7573746D656EB7
:1006E0007420286D6D293A2000506F7765722D6C4B
:1006F0006F7373207265636F7665727920004D3871
:100700003400446F6E65207072696E74696E672084
:1007100066696C650A004D3737004D3331006C0354
:100720006703600359034B034572726F722077723F
:100730006974696E6720746F20454550524F4D2192
:100740000A002121204B494C4C206361757365647C
:1007500020627920746F6F206D75636820696E6107
:1007600063746976652074696D65202D20637572E8
:1007700072656E7420636F6D6D616E643A20004D1A
:10078000323930004D343130004D313132004D318D
:100790003038004E6F20436865636B73756D20774A
:1007A000697468206C696E65206E756D6265722C67
:1007B000204C617374204C696E653A200063686553
:1007C000636B73756D206D69736D617463682C2044
:1007D0004C617374204C696E653A20004C696E65FB
:1007E000204E756D626572206973206E6F74204CA7
:1007F000617374204C696E65204E756D6265722B55
:10080000312C204C617374204C696E653A20004D88
:100810003131300053442072656164206572726F1B
:10082000720A00627573793A20706175736564208D
:10083000666F7220696E7075740A00627573793A1A
:100840002070617573656420666F722075736572C0
:100850000A00627573793A2070726F636573736909
:100860006E670A004D313030305300F0004A0110FD
:10087000013B0130012C0140012701500122017090
:10088000011D0190011801B0011301C0010E01F01A
:10089000010901100204013002FF006002FA009019
:1008A00002F500C002F0000003EB004003E6008008
:1008B00003E100D003DC002004D700E004D200C034
:1008C00005CD004006C800D006C3008007BE00F07A
:1008D00008B9004009B400C009AF00B00AAA00B0CE
:1008E0000BA500D00CA000000E9B00C0109600507D
:1008F00012910000148C00C0158700B0178200B060
:10090000197D00D01B7800001E730040206E0090FF
:10091000226900F024640040275F0090295A00E01B
:100920002B5500102E500020304B0010324600E0B6
:1009300033410090353C001037370070383200A04A
:10094000392D00B03A2800A03B2300603C1E001067
:100950003D1900903D1400103E0F00703E0A00C08B
:100960003E0500003F0000403FFBFF803FF6FFC018
:100970003FF1FF2020506C616E6E657242756666B5
:10098000657242797465733A20002046726565206D
:100990004D656D6F72793A2000436F6D70696C65BB
:1009A000643A204E6F7620313020323032300A00E7
:1009B000204C61737420557064617465643A203210
:1009C0003032302D31312D3039207C204175746822
:1009D0006F723A20285A4F4E45535441522C2048AA
:1009E000616C6C79290A006D61726C696E2D322E12
:1009F000302E380A004D61726C696E0020536F66AC
:100A000074776172652052657365740A00205761BE
:100A1000746368646F672052657365740A002042CE
:100A2000726F776E206F75742052657365740A005B
:100A30002045787465726E616C2052657365740A26
:100A400000506F77657255700A004D3234004D3298
:100A500033202573006175746F25632E670047325C
:100A6000385859004D31303031006572726F722044
:100A700077726974696E6720746F2066696C650AA5
:100A800000446F6E6520736176696E672066696CDD
:100A9000652E0A004D32390020503A00656E6473AD
:100AA000746F7073206869743A200042696C696ED3
:100AB000656172204C6576656C696E672047726966
:100AC000643A0A0053544F505045442E200050724F
:100AD000696E7465722073746F70706564206475DC
:100AE0006520746F206572726F72732E204669786C
:100AF00020746865206572726F7220616E64207563
:100B00007365204D39393920746F207265737461B3
:100B100072742E202854656D7065726174757265EB
:100B20002069732072657365742E20536574206983
:100B30007420616674657220726573746172746981
:100B40006E67290A0021212053544F502063616CA5
:100B50006C65642062656361757365206F66204211
:100B60004C546F756368206572726F72202D20720D
:100B70006573746172742077697468204D393939EE
:100B80000A004F46460A0046616465204865696769
:100B900068742000426564204C6576656C696E67F8
:100BA00020004661696C656420746F20656E616227
:100BB0006C6520426564204C6576656C696E670AD9
:100BC00000496E76616C6964206D6573682E0A0059
:100BD00050726F62696E67206D65736820706F690F
:100BE0006E742000202844525952554E2900473235
:100BF00039204175746F20426564204C6576656CC0
:100C0000696E67003F20284C2C522C462C4229202C
:100C10006F7574206F6620626F756E64732E0A00A4
:100C20003F2856296572626F7365206C6576656C26
:100C300020696D706C61757369626C652028302D58
:100C400034292E0A00426164205A2076616C756551
:100C50000A004E6F2062696C696E6561722067726E
:100C600069640A00000048420000484200008040D9
:100C70000202040000A0400000A04000000040006C
:100C800000A54300009B430000C843FFFFFF5761DE
:100C9000726E696E673A20486F6D696E67204275A3
:100CA0006D702044697669736F72203C20310A00B0
:100CB000286E6F2066696C65290043757272656ED7
:100CC000742066696C653A20005344207072696E26
:100CD00074696E67206279746520004E6F742053CA
:100CE00044207072696E74696E670A0020573A007A
:100CF00023646566696E652044454641554C545FE2
:100D0000004B6420004B6920004B70200050494488
:100D1000204175746F74756E652066696E697368BD
:100D20006564212050757420746865206C6173744B
:100D3000204B702C204B6920616E64204B64206333
:100D40006F6E7374616E74732066726F6D2062656E
:100D50006C6F7720696E746F20436F6E666967757C
:100D6000726174696F6E2E680A00504944204175A3
:100D7000746F74756E65206661696C65642120749A
:100D8000696D656F75740A000A20436C617373693D
:100D90006320504944200A00204B643A2000204B35
:100DA000693A2000204B703A20002054753A200008
:100DB000204B753A2000206D61783A2000206D6943
:100DC0006E3A200020643A200020626961733A2064
:100DD00000504944204175746F74756E65207374BA
:100DE0006172740A00504944204175746F74756EC5
:100DF00065206661696C6564212054656D7065725B
:100E0000617475726520746F6F20686967680A0085
:100E1000504944204175746F74756E652066616930
:100E20006C65642120426164206578747275646524
:100E300072206E756D6265720A006F70656E005487
:100E40005249474745524544007A5F70726F626568
:100E5000007A325F6D696E007A5F6D696E00795F4E
:100E60006D696E00785F6D696E005265706F7274A7
:100E7000696E6720656E6473746F7020737461743B
:100E800075730A0024F4D43050C38E20C2A24017D8
:100E9000828B7011127A910D816CD90AA861E108D8
:100EA000C7586607615143061E4B5D05C145A7043F
:100EB0001A411104093D9803713931034036DB02B0
:100EC00065339102D4305402802E1D02632CEE0152
:100ED000752AC501B028A001102781018F25640162
:100EE0002B244B01E0223401AC211F018D200D0188
:100EF000801FFC00841EED00971DDF00B81CD2008F
:100F0000E61BC600201BBC00641AB200B219A80080
:100F10000A19A0006A189900D117910040178B0098
:100F2000B516840031167E00B31579003A157300AA
:100F3000C7146F0058146A00EE136600881363002C
:100F400025135E00C7125B006C1257001512540087
:100F5000C111510070114F0021114B00D6104900F2
:100F60008D1047004610440002104200C00F4000A0
:100F7000800F3E00420F3C00060F3B00CB0E3800B6
:100F8000930E37005C0E3500270E3400F30D32004F
:100F9000C10D3100900D3000600D2E00320D2D007E
:100FA000050D2C00D90C2B00AE0C2900850C290056
:100FB0005C0C2700350C27000E0C2600E80B2400E3
:100FC000C40B2400A00B23007D0B23005A0B21002F
:100FD000390B2100180B2000F80A1F00D90A1E0047
:100FE000BB0A1E009D0A1D00800A1D00630A1C002A
:100FF000470A1B002C0A1B00110A1A00F7091A00E5
:10100000DD091900C4091900AB091900920917007C
:101010007B091800630917004C09160036091600F1
:10102000200916000A091500F5081500E00814004B
:10103000CC081400B8081400A40814009008130089
:101040007D0812006B0813005808120046081200B1
:1010500034081100230811001208110001081100C2
:10106000F0071000E0071000D0071000C0071000C4
:10107000B0070F00A107100091070E0083070F00B3
:1010800074070F0065070E0057070E0049070E0092
:101090003B070D002E070E0020070D0013070D0063
:1010A00006070D00F9060C00ED060D00E0060C0029
:1010B000D4060C00C8060C00BC060C00B0060C00E0
:1010C000A4060B0099060C008D060B0082060B008F
:1010D00077060B006C060B0061060A0057060B0032
:1010E0004C060A0042060A0038060A002E060A00CC
:1010F00024060A001A060A001006090007060A005C
:10110000FD050900F4050900EB050900E2050900E9
:10111000D9050900D0050900C7050900BE05090069
:10112000B5050800AD050800A50509009C050800E7
:10113000940508008C050800840508007C0508005B
:10114000740508006C050700650508005D050700CB
:10115000560508004E050700470507004005080032
:1011600038050700310507002A0507002305070099
:101170001C050600160507000F05070008050600F8
:1011800002050700FB040600F5040700EE04060054
:10119000E8040600E2040700DB040600D5040600AC
:1011A000CF040600C9040600C3040600BD040600FF
:1011B000B7040600B1040500AC040600A60406004E
:1011C000A00405009B040600950405009004060099
:1011D0008A04050085040500800406007A040500E1
:1011E00075040500700405006B0405006604050025
:1011F000610405005C040500570405005204050065
:101200004D04050048040500430405003E040400A5
:101210003A04050035040500300404002C040500E0
:1012200027040400230405001E0404001A0404001B
:1012300016040500110404000D040400090405004F
:101240000404040000040400FC030400F803040088
:10125000F4030400F0030400EC030400E8030400BA
:10126000E4030400E0030400DC030400D8030400EA
:10127000D4030400D0030400CC030400C80303001B
:10128000C503030024F404D9201BC40C5C0E98048D
:10129000C4095F0265077101F405F900FB04B3009E
:1012A00048048700C1036900580355000303450043
:1012B000BE023A008402310053022A0029022500AE
:1012C00004022000E4011C00C8011900AF0117004E
:1012D00098011400840113007101100061011000D5
:1012E00051010E0043010D0036010B002B010B00D4
:1012F00020010B00150109000C0109000301080081
:10130000FB000800F3000800EB000700E400060003
:10131000DE000600D8000600D2000600CC00050062
:10132000C7000500C2000500BD000400B9000400AC
:10133000B5000400B1000400AD000400A9000400E1
:10134000A5000300A20003009F0004009B0003000F
:101350009800030095000200930003009000030032
:101360008D0002008B00030088000200860002004E
:1013700084000300810002007F0002007D00020063
:101380007B00020079000200770001007600020075
:101390007400020072000100710002006F00020080
:1013A0006D0001006C0002006A000100690002008B
:1013B0006700010066000100650001006400020092
:1013C0006200010061000100600001005F00020096
:1013D0005D0001005C0001005B0001005A0001009B
:1013E000590001005800010057000100560001009B
:1013F000550001005400010053000000530001009B
:101400005200010051000100500001004F00010096
:101410004E0000004E0001004D0001004C00010094
:101420004B0000004B0001004A0001004900010090
:10143000480000004800010047000100460000008D
:101440004600010045000000450001004400010085
:101450004300000043000100420000004200010080
:101460004100000041000100400001003F00000079
:101470003F0001003E0000003E0001003D00000072
:101480003D0001003C0000003C0000003C00010069
:101490003B0000003B0001003A0000003A00010060
:1014A0003900000039000100380000003800000059
:1014B000380001003700000037000100360000004E
:1014C0003600000036000100350000003500000045
:1014D0003500010034000000340000003400010039
:1014E0003300000033000000330001003200000030
:1014F0003200000032000100310000003100000025
:101500003100010030000000300000003000010018
:101510002F0000002F0000002F0000002F0001000E
:101520002E0000002E0000002E0001002D00000003
:101530002D0000002D0000002D0001002C000000F7
:101540002C0000002C0000002C0001002B000000EB
:101550002B0000002B0000002B0001002A000000DF
:101560002A0000002A0000002A00010029000000D3
:1015700029000000290000002900000029000100C6
:1015800028000000280000002800000028000000BB
:1015900028000100270000002700000027000000AD
:1015A00027000000270001002600000026000000A0
:1015B0002600000026000000260001002500000093
:1015C0002500000025000000250000002500000087
:1015D0002500010024000000240000002400000079
:1015E000240000002400010023000000230000006C
:1015F000230000002300000023000000230000005F
:101600002300010022000000220000002200000050
:101610002200000022000000220001002100000042
:101620002100000021000000210000002100000036
:101630002100000021000100200000002000000027
:10164000200000002000000020000000200000001A
:1016500020000000200001001F0000001F0000000B
:101660001F0000001F0000001F0000001F000000FE
:101670001F0001001E0000001E0000001E000000F0
:101680001E000000A42C0000841E0000B012000008
:10169000870A00009E050000E90200007B010000AF
:1016A000BF00000020746F6F206C6F6E672065783C
:1016B00074727573696F6E2070726576656E74658D
:1016C000640A004572723A204D415854454D50000D
:1016D0004D415854454D5020747269676765726575
:1016E00064004572723A204D494E54454D50004DAC
:1016F000494E54454D502074726967676572656440
:1017000000202F002042403A0020403A007C3C3E1E
:101710005E2B3D3F2F5B5D3B2C2A225C000000A02E
:10172000C1000000000000000000009B4300009B7F
:10173000430000C843206C696D6974656420746F50
:101740002000204D617820004A65726B005365745B
:1017500074696E67732053746F726564202800206B
:1017600053697A653A200043616E6E6F74206F7022
:10177000656E207375626469722000534420636152
:101780007264206F6B0A006F70656E526F6F742009
:101790006661696C65640A00766F6C756D652E69AB
:1017A0006E6974206661696C65640A004E6F20532F
:1017B0004420636172640A0046696C652073656C3D
:1017C00065637465640A0046696C65206F70656EB8
:1017D00065643A2000454E4420535542524F5554BB
:1017E000494E450A002220706F73002220706172FA
:1017F000656E743A2200535542524F5554494E4536
:101800002043414C4C207461726765743A22005346
:10181000756263616C6C204F766572666C6F7700E1
:101820004578636565646564206D61782053554231
:10183000524F5554494E452064657074683A310AD8
:101840000057726974696E6720746F2066696C65F1
:101850003A200044656C6574696F6E206661696C3E
:1018600065642C2046696C653A200046696C6520E9
:1018700064656C657465643A006F70656E206661BE
:10188000696C65642C2046696C653A200066726557
:10189000736800646F696E67004E6F772000204D9B
:1018A000393220580020204D61783A200020204D08
:1018B000696E3A2000536F667420656E6473746FAE
:1018C00070733A2000252900257C00203B204375B9
:1018D0007272656E74205A00203B20456E640020B1
:1018E0003B205374617274004772616469656E7461
:1018F000204D6978200052616E646F6D204D6978CB
:101900002000526573756D65207265717569726529
:1019100073204C43442E0A004D32342053256C640E
:101920002054256C64004739322E39204525730038
:10193000473120462564004739322E39205A257315
:10194000004731205A30204632303000473120588D
:10195000257320592573204633303030004731201D
:101960004525642046323030004D31303620502538
:101970006920532569004D31303920532569004DC8
:1019800031393020532569004D32303020442573E1
:101990000047323852305859004739322E392045E5
:1019A00030205A300A47315A2573004D34323020E6
:1019B0005330205A300020496E76616C696420658E
:1019C0007874727564657220004361703A003F5A02
:1019D000206F7574206F662072616E676520280025
:1019E0003F59206F7574206F662072616E676520A5
:1019F000282D003F58206F7574206F662072616E2D
:101A0000676520282D0050726F6265204F666673EF
:101A10006574205800656E7175657565696E67201F
:101A200022006F6B00526573656E643A200020528D
:101A300000454550524F4D20496E697469616C698B
:101A40007A65640A0048617264636F646564204467
:101A5000656661756C742053657474696E67732074
:101A60004C6F616465640A003B200020204D3835CE
:101A7000312058005A2D50726F6265204F66667390
:101A800065740020204D3230392053004175746F49
:101A90002D526574726163743A20533D3020746F27
:101AA0002064697361626C652C203120746F206939
:101AB0006E7465727072657420452D6F6E6C79203E
:101AC0006D6F7665732061732072657472616374E3
:101AD0002F7265636F7665720020204D323038209A
:101AE00053005265636F7665723A20533C6C656EA5
:101AF0006774683E20463C756E6974732F6D3E00B6
:101B000020460020570020204D323037205300520D
:101B10006574726163743A20533C6C656E677468D7
:101B20003E20463C756E6974732F6D3E205A3C6CA6
:101B30006966743E0020204D343133205300506FCD
:101B40007765722D4C6F7373205265636F76657283
:101B5000793A0020204D3330312050005049442044
:101B600073657474696E67733A0020204D3636369B
:101B700000456E6473746F702061646A7573746D70
:101B8000656E743A00204A002020473239205720E1
:101B9000490020204D3432302053004175746F20AD
:101BA000426564204C6576656C696E673A0020205A
:101BB0004D323036205800486F6D65206F66667371
:101BC00065743A0020204D32303520420041647661
:101BD000616E6365643A20423C6D696E5F73656750
:101BE0006D656E745F74696D655F75733E20533CFF
:101BF0006D696E5F66656564726174653E20543C14
:101C00006D696E5F74726176656C5F66656564723E
:101C10006174653E20583C6D61785F785F6A6572DB
:101C20006B3E20593C6D61785F795F6A65726B3EEF
:101C3000205A3C6D61785F7A5F6A65726B3E204521
:101C40003C6D61785F655F6A65726B3E0020540091
:101C500020204D323034205000416363656C657242
:101C60006174696F6E2028756E6974732F733229E1
:101C70003A20503C7072696E745F616363656C3EBC
:101C800020523C726574726163745F616363656C5A
:101C90003E20543C74726176656C5F616363656C71
:101CA0003E0020204D3230312058004D6178696D62
:101CB000756D20416363656C65726174696F6E2038
:101CC00028756E6974732F7332293A0020450020FD
:101CD000590020204D3230332058004D6178696D15
:101CE000756D206665656472617465732028756E14
:101CF0006974732F73293A0053746570732070658B
:101D00007220756E69743A0020440020204D3230F4
:101D1000302053002044697361626C65640A004698
:101D2000696C616D656E742073657474696E677338
:101D30003A0020286D6D29002020473231202020D4
:101D4000203B20556E69747320696E206D6D000014
:101D500000FA430000FA430000A0400000C842001F
:101D600000A0420000A0420000C8430000C843B8E1
:101D70000B0000B80B0000640000001027000020DA
:101D800062797465733B2063726320004E6F204557
:101D90004550524F4D2E0A00454550524F4D20643C
:101DA00061746173697A65206572726F722E0A00C0
:101DB0002073746F7265642073657474696E6773E1
:101DC0002072657472696576656420280020286336
:101DD000616C63756C6174656429210A0020213D82
:101DE0002000454550524F4D20435243206D6973AA
:101DF0006D61746368202D202873746F7265642987
:101E00002000496E6465783A200044494749504FA4
:101E10005453204C6F616465640A0044494749503B
:101E20004F5453204C6F6164696E670A00204D6106
:101E3000726C696E3D563833290A00454550524F41
:101E40004D2076657273696F6E206D69736D617474
:101E500063682028454550524F4D3D0020436F7523
:101E60006E7420583A004265640045310062656432
:101E7000002C2073797374656D2073746F707065B6
:101E80006421204865617465725F49443A200054BA
:101E90004845524D414C2052554E415741590054EE
:101EA0006865726D616C2052756E6177617900486A
:101EB000656174696E67204661696C656400486598
:101EC0006174696E67206661696C656400202D200D
:101ED000496E76616C6964206578747275646572A8
:101EE000206E756D62657220210A00001000AA0341
:101EF0008000400100012C01B001220140021001CC
:101F0000F00202018003F8004004F500E004ED0057
:101F10009005E4003006DD00E006D7008007D10020
:101F20003008CC00D008C7007009C300100ABE00FA
:101F3000B00ABB00500BB700900CB300D00DAA0044
:101F4000B00FA5005010A00010149600901690003D
:101F500010198C00501A8500301C82007022780005
:101F6000B023750040256E0020276900A029640079
:101F7000502A5F00902B5A00D02C5500702D4F0036
:101F8000E02E48005031450030334100D035390053
:101F90006036370010373300F0382D00A0392700A5
:101FA000803C1C00403D1700F03D1100703E0A00CF
:101FB000C03E0500003F0000403FFBFF803FF6FFB2
:101FC000C03FF1FF20453A00205A3A0020593A001C
:101FD00000002200250028002B002E0031003400D4
:101FE00002010000050108010B010000210024008E
:101FF00027002A002D0030003300010100000401F9
:1020000007010A0105050505070508080808020279
:1020100002020A0A08080404040401010101010182
:1020200001010303030303030303040707070C0C65
:102030000C0C0C0C0C0C020202020606060606062C
:1020400006060B0B0B0B0B0B0B0B010210202008D1
:102050000810204010204080020102010804020103
:102060000102040810204080804020100804020172
:1020700080040201804020100804020108040201CB
:102080000102040810204080010204081020408052
:10209000205A3A200020593A200042656420583ADC
:1020A000200050726F62696E67204661696C6564DA
:1020B0000A0000000A0B02090C0D0E0807030401B8
:1020C0000000000000000000000000000000000010
:1020D00000000000000000000000000000001211DD
:1020E00010000000000000000000000000000000E0
:1020F00000000000000000005072696E74657220DC
:1021000068616C7465642E206B696C6C282920638F
:10211000616C6C6564210A006563686F3A00457202
:10212000726F723A00486F6D6520257325732573B1
:1021300020466972737400220A00556E6B6E6F77C9
:102140006E20636F6D6D616E643A202200009CC446
:102150007EC411241FBECFEFD1E2DEBFCDBF00E0B1
:102160000CBF12E0A0E0B2E0E8ECF7EA01E00BBF40
:1021700002C007900D92AC3EB107D9F724E1ACEE56
:10218000B2E001C01D92A13EB207E1F710E1C8EA3A
:10219000D0E100E006C021970109802FFE010E94D6
:1021A00046D1C73AD10780E00807A9F70E9415BEBB
:1021B0000C94D2D30C9400002F923F924F925F92D6
:1021C0006F927F928F929F92AF92BF92CF92DF9247
:1021D000EF92FF920F931F93CF93DF93CDB7DEB7AC
:1021E000AB970FB6F894DEBF0FBECDBF8BA7209183
:1021F000FA022AA781E08093FA028091030D8D34C0
:1022000009F46CC4843511F40C949221873411F0D4
:102210000C94EA218091010D9091020D8B31910572
:1022200009F463C1F4F488309105D1F14CF497FDC1
:1022300051C482309105A4F1049709F412C14AC433
:102240008B30910509F44CC18531910511F40C9442
:10225000EC210A9709F03EC481E00E946F340C948F
:10226000EC218A32910509F455C354F48D3191055E
:1022700009F4F4C10CF4E2C14E9709F40DC22AC46A
:102280008B35910509F490C28C35910509F491C202
:102290008A35910509F01EC410929F130C94EC210D
:1022A00080916805813011F00C94EC2119821A821A
:1022B0001B821C82CE0101965C01A7EDEA2EA5E0EF
:1022C000FA2E0CE412E0B6EECB2EBEE0DB2E912C03
:1022D00088E5890D0E94443FF50181935F018823C1
:1022E00011F10E94D63C2B013C01892D0E94A38C48
:1022F000882351F0F8012081318142815381C3014B
:10230000B2010E944FD109C0F60120813181428182
:102310005381C301B2010E944ED1F70160837183E2
:10232000828393830AC0F80180819181A281B38165
:10233000F70180839183A283B3839394F4E0EF0E3B
:10234000F11C0C5F1F4F24E0C20ED11C33E093122E
:10235000BFCF85E40E94443F8C83882301F10E9413
:10236000D63C6B017C0183E00E94A38C882371F032
:10237000209158023091590240915A0250915B02CB
:10238000C701B6010E944FD16B017C01C092E305E9
:10239000D092E405E092E505F092E60510C0809148
:1023A000580290915902A0915A02B0915B02809319
:1023B000E3059093E405A093E505B093E6058091CD
:1023C000520E882381F08091BE1182FF0CC08C8157
:1023D000882349F08981811103C08A81882319F0FB
:1023E00080E00E947FBC40E050E0BA0186E40E9499
:1023F000445220E030E0A9010E94D2D2181684F4A1
:102400000E94D63C20E030E040E752E40E94D2D166
:1024100060937402709375028093760290937702B2
:102420008091310E882311F40C94272285E40E94B8
:102430000D3D882311F40C94272288E50E940D3D60
:1024400081110C94272289E50E940D3D81110C9485
:1024500027228AE50E940D3D81110C9427220C94BD
:10246000F52180E50E94443F882379F08091EC02B9
:102470009091ED02009749F04AE050E060E070E092
:102480000E94C1C86B017C0103C0C12CD12C760114
:1024900083E50E94443F882361F00E94D63C20E0FF
:1024A00030E04AE754E40E94D3CA0E944BD26B0149
:1024B0007C010E9438830E944EB8C60ED71EE81ECB
:1024C000F91E0E944EB8DC01CB018C199D09AE09A2
:1024D000BF09B7FD02C00C94EC210E94B028F1CFD7
:1024E00080E00E946F340C94EC210E94AABD8111FF
:1024F0000C94EC218CE0ECE7F2E0DE011196019007
:102500000D928A95E1F780E50E94443F882319F0F7
:102510000E949E3C01C060E080E090E0A8ECB2E444
:102520008CA39DA3AEA3BFA380E090E0A0EAB0E49B
:1025300088A399A3AAA3BBA3613019F0623039F034
:1025400029C0BE01605E7F4FCE01099658C0298523
:102550003A854B855C85609154027091550280915B
:102560005602909157020E944FD16B017C0120E0EE
:1025700030E048EC53E40E946DCA87FD06C0C12CD0
:10258000D12CF8ECEF2EF3E4FF2ECC8EDD8EEE8E08
:10259000FF8E30C020E030E040E050E46091540213
:1025A0007091550280915602909157020E944FD12E
:1025B0007B018C0120E030E048EC53E40E94D2D251
:1025C000181624F4E12CF12C08EC13E4A984BA8445
:1025D000CB84DC849701A801B501C6010E94D2D248
:1025E000181614F475018601C701D8018C8F9D8FD0
:1025F000AE8FBF8FBE01605E7F4FCE014C960E94B2
:10260000D24DE0905402F090550200915602109184
:102610005702209150023091510240915202509144
:10262000530269817A818B819C81FE01B4966F018E
:102630000E94114D0E9442500C94EC2180919A13FB
:102640008770873011F00C94522260E08FE40E9472
:102650006C3F81110C94EC210C9452220E944EB8D4
:102660006093DE0E7093DF0E8093E00E9093E10E88
:102670000E94AABD81110C94EC218091CE14882374
:1026800011F40C94C22260E08FE40E946C3F81112F
:102690000C94EC210C94C222209185133091861366
:1026A000409187135091881360914C0270914D02B4
:1026B00080914E0290914F020E944FD1AB01BC011C
:1026C00088E50E94445269837A838B839C8320919E
:1026D000891330918A1340918B1350918C13609120
:1026E00050027091510280915202909153020E94C7
:1026F0004FD1AB01BC0189E50E9444526D837E83BA
:102700008F839887BE016B5F7F4FCE0101960E9439
:10271000EE3A882311F40C94EC2180E00E94DC381E
:102720000E94F24C61E085E40E946C3F01E021E0F0
:10273000482FBE016B5F7F4FCE0101960E947EB590
:102740006B017C019B01AC010E9450D3811126C01A
:1027500049815A816B817C818AE990E20E94D7BAD3
:102760004D815E816F81788585E990E20E94D7BABC
:10277000B701A60180E990E20E94D7BA8091FD10CE
:10278000882311F08F3719F48AE00E94A9288091DC
:10279000FD10882319F08AE00E9467270E94D94C17
:1027A0000E9442500C94EC218FE080939F130C9474
:1027B000EC218091000D882349F1893009F0A6C0F1
:1027C00070ECA72E72E0B72EECE4EE2EE2E0FE2EC7
:1027D000D12C00E010E0F50181915F010E94443F9F
:1027E000882369F00E94D63CF7016083718382835D
:1027F0009383133011F401E002C0DD24D3941F5FF2
:10280000F4E0EF0EF11C143031F775C040EC242ECB
:1028100042E0342E54EDE52E53E1F52E2CE432E067
:1028200039A728A766EEC62E6EE0D62E00E010E08F
:10283000F10181911F010E94443F882309F44AC09D
:102840000E94D63C2B013C01133049F0F601208157
:102850003181428153810E944ED12B013C01E8A578
:10286000F9A52081318142815381C301B2010E94C7
:102870004ED14B015C012DEB37E346E855EB0E944E
:10288000D2D287FD0AC02DEB37E346E855E3C501F8
:10289000B4010E946DCA1816ECF4133051F4409242
:1028A00058025092590260925A0270925B0201E003
:1028B00011C0A5019401F70160817181828193812A
:1028C0000E944FD1F7016083718382839383812FAC
:1028D0000E94EF481F5FF4E0EF0EF11C28A539A518
:1028E0002C5F3F4F39A728A734E0C30ED11C14300A
:1028F00009F09ECF05C0DD2019F00E94084F06C0E8
:10290000002321F088E592E00E9448830E94425013
:102910000C94EC2180916805813011F00C94EC212D
:1029200089E40E94443FE82E882321F00E94D23C93
:10293000082F01C000E08AE40E94443FF82E88235B
:1029400021F00E94D23C182F01C010E0EE2011F0BF
:10295000043020F4FF2041F0143030F081E793E0A0
:102960000E9454BA0C94EC2180E1ECE4F2E0A7ED73
:10297000B5E001900D928A95E1F7EE2019F1602FF4
:10298000000F770B880B990B0E9474CA2091290EB7
:1029900030912A0E40912B0E50912C0E0E94D3CADA
:1029A0002091980E3091990E40919A0E50919B0E65
:1029B0000E944FD16093D7057093D8058093D905B5
:1029C0009093DA05FF2019F1612F110F770B880B17
:1029D000990B0E9474CA20912D0E30912E0E4091B9
:1029E0002F0E5091300E0E94D3CA20919C0E309130
:1029F0009D0E40919E0E50919F0E0E944FD160936C
:102A0000DB057093DC058093DD059093DE0560E0C7
:102A100080E50E946C3F8823C1F1EE20D1F0209127
:102A200085133091861340918713509188136091DC
:102A3000D7057091D8058091D9059091DA050E944B
:102A40004ED16093D7057093D8058093D9059093A4
:102A5000DA05FF20D1F02091891330918A1340913B
:102A60008B1350918C136091DB057091DC05809184
:102A7000DD059091DE050E944ED16093DB057093D9
:102A8000DC058093DD059093DE0540E050E0BA015F
:102A900086E40E9444526B017C0120E030E0A901F1
:102AA0000E94D2D218164CF420E030E040E752E405
:102AB000C701B6010E94D2D103C060E070E0CB0133
:102AC00069837A838B839C83CE0101960E94F14DAA
:102AD0000C94EC210E949CBD0C94EC218091010D82
:102AE0009091020D8C38910509F4E6C40CF0DBC01E
:102AF0008335910509F433C50CF063C08B31910522
:102B000009F4AEC254F58631910509F41EC2B4F43D
:102B10008231910509F42AC52CF4419709F4D0C1FA
:102B20000C948F218431910509F4DEC1459711F091
:102B30000C948F210E9495890C94EC218831910589
:102B400009F422C20CF40BC28931910509F457C271
:102B50004A9709F477C20C948F218032910509F4C9
:102B6000A2C27CF48D31910509F486C20CF47CC2BA
:102B70008E31910509F487C24F9709F4BDC20C94B8
:102B80008F218D34910509F486C354F48B3491055B
:102B900009F468C38C34910509F468C30C948F213F
:102BA0008135910509F4CAC48235910511F00C9460
:102BB0008F2180919F138F7D806180939F130C9450
:102BC000EC218E36910509F4D4C344F5893691057C
:102BD00009F47FC384F48535910509F4FDC40CF430
:102BE000C5C48C35910509F41AC58836910509F4D8
:102BF00056C30C948F218B36910509F4AFC30CF4A6
:102C000089C38C36910509F42AC48D36910511F0DB
:102C10000C948F210E949C580C94EC2183379105D1
:102C200009F49BC5BCF48037910509F41BC40CF46E
:102C3000BFC38137910509F41FC48237910511F094
:102C40000C948F210E94C8B38FE991E10E9401B0DA
:102C50000C94EC218737910509F453C69CF4853711
:102C6000910511F40C94EC218637910511F00C9428
:102C70008F210091FE0C1091FF0C24E08FEFF12CBE
:102C800030E005C68837910509F43EC689379105BD
:102C900011F00C948F211092D4031092D3030E9450
:102CA000AD510C94EC218D32E1E09E0711F40C94AF
:102CB0009C1F0CF06BC08C3C910509F404C7ACF56B
:102CC000873A910509F457C6C4F4833A910509F48B
:102CD00023C634F48B39910509F40AC40C948F216E
:102CE000843A910509F434C6863A910511F00C94A2
:102CF0008F210E94AD8F0C94EC21883C910509F442
:102D00003DC64CF48E3B910511F00C948F210E942E
:102D1000C3560C94EC21893C910509F474C68B3C94
:102D2000910509F4B1C60C948F21813D910509F4F8
:102D300083C784F48E3C910509F4D2C60CF4CDC649
:102D40008F3C910509F4EAC6803D910509F42AC734
:102D50000C948F218D3D910509F49DC754F4833D5A
:102D6000910509F476C78C3D910509F475C70C945B
:102D70008F21883121E0920711F40C94C61E823213
:102D8000914011F40C94581F0C948F21853FE1E081
:102D90009E0711F40C94FB200CF048C08A3921E006
:102DA000920709F466C3ECF48039E1E09E0711F460
:102DB0000C9419204CF48F32914011F00C948F2117
:102DC0000E945B520C94EC21813931E0930711F49D
:102DD0000C941C208239914011F40C9422200C9404
:102DE0008F21853AF1E09F0711F40C942B207CF49D
:102DF0008D3931E0930711F40C945021843A9140BD
:102E000011F00C948F210E945B3D0C94EC218C3AC4
:102E1000F1E09F0711F40C949E20843F914011F043
:102E20000C948F210E94B77B0C94EC218A3932E0FC
:102E3000930711F40C942821B4F4873FF1E09F0725
:102E400011F40C94012114F40C94FE20883F31E01D
:102E5000930711F40C940A218C30924011F40C94D5
:102E60001B210C948F21873EF3E09F0711F40C94F3
:102E70004421CCF4833533E0930711F40C944121C1
:102E8000803A934011F00C948F212091FE0C3091E8
:102E9000FF0C9091BE1192609093BE11C9010E94E7
:102EA000B8860C94EC21883EF3E09F0711F40C9453
:102EB0006721893E934011F40C946A210C948F2170
:102EC0008091040D84FF02C00C94C5228091060DF0
:102ED00087FF02C00C94C5228091070D837011F00A
:102EE0000C94C5220C94E3228091BE1183FF25C06F
:102EF00089E993E00E9454BA8091BE1183FF17C004
:102F00008CED91E10E9490758BE1ECEDF1E1DE0139
:102F1000119601900D928A95E1F760E070E0CE0184
:102F200001960E94C18ACE0101960E9445458AE819
:102F300093E00E9454BA0C94EC210E9469BB8AEA87
:102F400093E00E9454BA0C94EC210E943886809140
:102F5000BE11877F80628093BE110C94EC21E091BA
:102F6000FE0CF091FF0C8081882329F0803209F457
:102F700010823196F8CF60E08091FE0C9091FF0CAA
:102F80000E94F7860C94EC2183E50E94443F88233D
:102F900021F00E949E3C0E94305B84E50E94443FE9
:102FA0008823A9F00E949E3C6B017C010E94F05195
:102FB000C092FD05D092FE05E092FF05F09200065A
:102FC000CD28CE28CF2819F081E0809305060E94F5
:102FD0004A25882311F40C94EC210E9447860E9414
:102FE0000B5283E594E10E94EE851092080D109239
:102FF000090D10920A0D10920B0D0C94EC2180918A
:10300000BE1182FF03C08B7F8093BE118091520E50
:10301000882319F081E00E947FBC809105068130F1
:1030200011F00C94EC2182E0809305060E944EB8CA
:103030006093010670930206809303069093040642
:103040000C94EC218091BE1183FD02C00C94EC2104
:1030500083E50E94443F81110C94EE220C94EC21F4
:103060000E946D5A0C94EC218091FE0C9091FF0C03
:103070000E94B8860C94EC218091BE118E7F8093C3
:10308000BE110C94EC218091BE1183FD02C00C9402
:10309000EC210E9485BD8091FE0C9091FF0C0E9456
:1030A00012890C94EC218091BE1182FD0E9438831C
:1030B0008091BE1183FD02C00C94EC2160E080E59C
:1030C0000E946C3F182F682F8091FE0C9091FF0C8E
:1030D0000E94F78683E50E94443F882321F00E94E6
:1030E0009E3C0E94305B0E94478611110C94EC219B
:1030F0000E940B520C94EC210E94BC517B018C016C
:1031000020E831E541E050E00E94C3D0C9016DE6FE
:1031100071E00E9432D14B015C01C801B70120E18E
:103120003EE040E050E00E94C3D0CA01B90128E16E
:1031300030E040E050E00E94C3D0762E672EC62ECD
:10314000D72E3CE3232E312C412C512CC801B70142
:10315000A20191010E94C3D0F62EE72ECA01B90147
:10316000A20191010E94C3D0CB018E010F5F1F4FBE
:103170008114910499F0EF92FF927F936F936F9275
:103180007F92BF92AF929F928F9284EB93E09F9336
:103190008F931F930F930E943ECA13C0A114B104D2
:1031A000B1F0EF92FF927F936F936F927F92BF92F5
:1031B000AF9288EB93E09F938F931F930F930E949E
:1031C0003ECA0FB6F894DEBF0FBECDBF30C0CD28CB
:1031D00079F0EF92FF927F936F936F927F928CEBD7
:1031E00093E09F938F931F930F930E943ECAE9CF62
:1031F000892B69F0EF92FF927F936F9380EC93E0BD
:103200009F938F931F930F930E943ECADACFEF9242
:10321000FF9284EC93E09F938F931F930F930E94F0
:103220003ECA0F900F900F900F900F900F900E943A
:1032300069BBB80188EC93E00E9440BB8091FD100F
:10324000882311F08F3719F48AE00E94A928809111
:10325000FD10882311F40C94EC218AE00E9467276A
:103260000C94EC210E940B520C94EC2180910506E9
:10327000813011F00C94EC2182E0809305060E94CD
:103280004EB86093010670930206809303069093F4
:1032900004060C94EC210E942F520C94EC21809196
:1032A0009E1383FF02C00C94EC2183E50E94443FEF
:1032B000882311F40C94EC210E94D63C0E9444D245
:1032C000CB010E94A37861E080E00E9498AA0C9450
:1032D000EC210E94498C182F87FD17C082E29AE1E9
:1032E0000E9454BA812F0E94E4788091FD108823B7
:1032F00011F08F3719F48AE00E94A9288091FD10FF
:10330000882319F08AE00E9467279AA59093FA0211
:103310000C94122460E080E50E94603F81110C94BF
:10332000EC2181E40E940D3D882321F06091AC13D3
:10333000062F02C00FEF10E083E50E94443F882370
:1033400049F00E949E3C8B016F3F710519F010F00F
:103350000FEF10E00093AC130C94EC2160E080E5DB
:103360000E94603F81110C94EC211092AC130C94DC
:10337000EC218EE40E94443F882311F40C94EC214C
:10338000E0916505F0E0EE0FFF1FE45FF24F008172
:1033900011810E949E3C000F111F000F111FF801A8
:1033A000E45EF14F60837183828393830C94EC21FC
:1033B00083E50E940D3D882331F060E083E50E94A3
:1033C000603F80939E130E9469BB89ED93E00E9449
:1033D00054BA80919E13882309F43BC0AEE1EA2ED3
:1033E000A7E0FA2E00E010E020E080919E1390E02C
:1033F000A0E0B0E0002E04C0B695A79597958795FC
:103400000A94D2F780FF1BC0DD24D394D20E22236E
:1034100081F08091FD10882311F08F3719F48CE230
:103420000E94A9288091FD10882319F08CE20E9447
:103430006727F701859194910E9454BA2D2D0F5F53
:103440001F4FE2E0EE0EF11C0530110571F60C94F1
:10345000972385ED93E00E9454BA0C949723109221
:103460001002BAC741E060E070E080EE93E00E9495
:103470006DBB0E942A25B0C783E50E94443F882384
:1034800071F00E94AE3C282F30E02D3331051CF442
:1034900080930002A1C78CE3809300029DC70E9425
:1034A00069BB4091000250E060E070E08EEE93E076
:1034B0000E9490BA0C94972380919E1383FD8CC731
:1034C00083E50E94443F882309F486C70E94D63CC6
:1034D0000E9444D26837710514F068E770E0709379
:1034E000B6136093B51361E080E00E9498AA74C798
:1034F00083E50E94443F882309F46EC70E94AE3CD6
:10350000182F90E0CD970CF01CE31093F2020E946C
:103510004EB86B017C01212F30E0A8EEB3E00E9491
:1035200017D1C60ED71EE81EF91EC092EE02D09229
:10353000EF02E092F002F092F1024EC70E94AEAAB2
:103540000E942F520E94B1840E94582568EE73E0B9
:1035500080E090E00E9430BA0E945B253DC78091D8
:103560009F138F7E806280939F1336C783E50E94EE
:10357000443F8823E9F00E944EB86093DE0E7093BA
:10358000DF0E8093E00E9093E10E0E94D63C20E087
:1035900030E04AE754E40E94D3CA0E944BD26093C1
:1035A000010270930202809303029093040214C7F5
:1035B0008091040D84FF02C00C94F3228091060DCB
:1035C00087FF02C00C94F3228091070D837011F0E5
:1035D0000C94F3220C94252383E50E940D3D88234F
:1035E00009F4FAC60E944EB86093DE0E7093DF0EA7
:1035F0008093E00E9093E10E0E94D63C20E030E0F4
:103600004AE754E40E94D3CA0E944BD26093F3026B
:103610007093F4028093F5029093F602DDC60E9447
:10362000498C87FDD9C69091040D94FD04C09091FA
:10363000060D97FF0AC0E0ECCE2EE2E0DE2EF2ECA3
:10364000EF2EFBE0FF2E10E009C09091070D937064
:1036500091F7682F81E00E949A91BEC6F601819190
:103660006F010E94443F882309F46DC0133009F0B4
:1036700063C00E94D63C4B015C0120E030E040EA90
:1036800051E40E946DCA87FF4EC0A501940160916C
:10369000E20B7091E30B8091E40B9091E50B0E949B
:1036A000D2D12B013C019B01AC016091810670914C
:1036B000820680918306909184060E94D3CA60930B
:1036C0008106709382068093830690938406A301FB
:1036D00092016091F20B7091F30B8091F40B909139
:1036E000F50B0E94D3CA6093F20B7093F30B809397
:1036F000F40B9093F50B6091910670919206809176
:103700009306909194060E9472CAA30192010E94AE
:10371000D3CA0E944BD26093910670939206809315
:103720009306909394068092E20B9092E30BA09202
:10373000E40BB092E50B07C00E94D63CF701648B06
:10374000758B868B978B1F5FF4E0EF0EF11C1430A6
:1037500009F084CF0E944C823FC687E495E00E9426
:1037600054BA60E087E395E00E94BF9660E082E291
:1037700095E00E94BF9661E08BE195E00E94BF96C4
:1037800061E080E195E00E94BF9661E080E095E015
:103790000E94BF9660E087EF94E00E94BF9661E0D0
:1037A0008DEE94E00E94BF9661E083EE94E00E946B
:1037B000BF9660E08CED94E00E94BF9661E084EDDE
:1037C00094E00E94BF9661E086EC94E00E94BF9670
:1037D00060E088EB94E00E94BF9660E089EA94E0A4
:1037E0000E94BF9660E08BE994E00E94BF9660E083
:1037F00085E894E00E94BF9660E084E794E00E9430
:10380000BF9660E085E694E00E94BF9661E08EE599
:1038100094E00E94BF9660E089E494E00E94BF9625
:1038200060E08BE394E00E94BF9660E088E294E061
:103830000E94BF9660E08BE194E00E94BF9660E03A
:1038400086E194E00E94BF9661E089E094E00E94E6
:10385000BF9660E085EF93E00E94BF96BDC5F8017A
:103860009081492F4B7F4134A9F441814133F1F4D8
:103870009134C9F0953409F431E0A8014E5F5F4FEF
:103880008A014F5F5F4FF80190819032C9F3215058
:1038900031F70CC0903551F4F801918190539A3072
:1038A00028F4892FEACFFF24F394E7CFE090FD10AE
:1038B000833058F4882321F0813021F480E003C064
:1038C0008FE701C082E08093FD1031110E9469BB37
:1038D000FF2021F08EE196E00E9454BA8091FD1005
:1038E000882311F08F3719F4C8010E94D22E8091DD
:1038F000FD10882319F0C8010E947228E092FD1083
:103900006BC50E94465168C581E08093D4038093C3
:10391000D3030E94AD5160C560E070E083E50E9472
:10392000513F8C01833091056CF460E070E080E5DC
:103930000E94513F1127F801E950FD4F80830E94FA
:1039400014314AC541970CF447C50E94C83244C59A
:103950006FEF7FEF83E50E94513F97FD07C08031F5
:1039600091050CF039C50E946B3236C58091DF0697
:103970000E946B3231C50E94DD8E2EC50E94498C9B
:10398000182F87FD29C50091D31384E40E94443F7A
:10399000882309F45DC60E94D63C6B017C0120E0BF
:1039A00030E0A9010E946DCA882339F124E0120297
:1039B000F0011124E153FC4EC082D182E282F382F5
:1039C00020E030E0A9016091CF137091D013809175
:1039D000D1139091D2130E946DCA81110CC080E066
:1039E00090E0A0EEBFE38093CF139093D013A09309
:1039F000D113B093D21301E02BC680E08093D31390
:103A00000E947246E9C40E94498C87FDE5C460ECBF
:103A1000C62E62E0D62E72ECE72E7BE0F72E10E089
:103A2000F60181916F010E940D3D882331F10E94C2
:103A3000D63C6C8F7D8F8E8F9F8F80E1E8E8F2E01F
:103A4000DE01119601900D928A95E1F79E012F5F9C
:103A50003F4F42E256E0612FCE014C960E941E81FC
:103A60006C8D7D8D8E8D9F8D0E944BD2F701608372
:103A70007183828393830E9405821F5FF4E0EF0EBF
:103A8000F11C143069F6A8C40E94498C87FDA4C4B7
:103A900050ECE52E52E0F52E02EC1BE0F70181918F
:103AA0007F010E940D3D882339F00E94D63CF80129
:103AB00064A375A386A397A30C5F1F4FFBE0023D91
:103AC0001F0761F789C48091050D87FDC6C58091E8
:103AD000060D8E7009F0C1C506C60E94F0917CC427
:103AE00040EEE42E43E1F42E10E088E5810F0E94C1
:103AF0000D3D882351F00E94D63CF701608371830D
:103B000082839383812F0E94EF481F5FF4E0EF0EC2
:103B1000F11C133051F70E9442505EC483E50E94AD
:103B20000D3D882351F00E94D63C6093320E709375
:103B3000330E8093340E9093350E86E40E940D3D33
:103B4000882381F00E94D63C20E030E040E752E438
:103B50000E94D2D16093360E7093370E8093380E48
:103B60009093390E8AE50E940D3D882351F00E9402
:103B7000D63C60933A0E70933B0E80933C0E90932C
:103B80003D0E87E50E940D3D882309F425C40E945F
:103B9000D63C6093460E7093470E8093480E9093E8
:103BA000490E1AC483E50E940D3D882351F00E94FE
:103BB000D63C60933E0E70933F0E8093400E9093E0
:103BC000410E86E40E940D3D882381F00E94D63C80
:103BD00020E030E040E752E40E94D2D16093420EF0
:103BE0007093430E8093440E9093450E82E50E949D
:103BF0000D3D882381F00E94D63C20E030E040E774
:103C000052E40E94D2D160934E0E70934F0E809377
:103C1000500E9093510E87E50E940D3D882309F4C4
:103C2000DBC30E94D63C60934A0E70934B0E809388
:103C30004C0E90934D0ED0C383E50E940D3D88231A
:103C400009F4CAC30E94C23C8093310E10921A0C30
:103C5000C3C30E94B390C0C383E50E94443F88233E
:103C600031F00E94D23C9093200280931F028091F9
:103C7000040D9091050DA091060DB091070D892BB3
:103C80008A2B8B2B09F0A8C360911F027091200230
:103C90008FE396E067C00E94498CF82E87FD9CC395
:103CA00083E50E94443F0F2D0F2C000C110B88233D
:103CB00061F10E94D23CF801EE0FFF1FEF5DFD4F56
:103CC00091838083000F111F000F111F9801295D40
:103CD0003D4F7901BC01990F880B990B0E9474CA62
:103CE0002AE037ED43E25CE30E94D3CAF801E951D0
:103CF000FA4F20813181428153810E94D3CAF7015A
:103D0000608371838283938367C30E9469BB8091C0
:103D1000FD10882311F08F3719F485E40E94A9283B
:103D20008091FD10882319F085E40E946727809117
:103D3000FD10882311F08F3721F480E38F0D0E944E
:103D4000A9288091FD10882321F080E38F0D0E9427
:103D50006727000F111FF801EF5DFD4F6081718132
:103D600083E496E00E941FBB8091FD10882311F030
:103D70008F3719F485E20E94A9288091FD108823CD
:103D800009F4D5C485E20E946727D1C480E50E946A
:103D90000D3D882309F420C30E94D23C8C01892B5D
:103DA00009F07AC083E50E940D3D882389F00E94C6
:103DB000D23C8F3FFFEF9F0729F483E791E10E94F8
:103DC0005E250AC3BC0183E791E10E941E2604C35D
:103DD0000E9469BB60E070E08BE496E00E941FBB2C
:103DE0008091751128E532E06901C81AD10887FD74
:103DF000D394CC0CDD1CCC0CDD1C0D2C000CEE087F
:103E0000FF088091741128E830E04901881A910870
:103E100087FD9394880C991C880C991C092C000C24
:103E2000AA08BB08809173118F3FC1F090E0FC019C
:103E3000EE0FFF1F8E0F9F1FFC01E65DFE4E2181DE
:103E40003281B3E0220F331FBA95E1F714E03695C3
:103E500027951A95E1F72E5F3F4F02C020E030E032
:103E60002F5F3F4FC901330FAA0BBB0B9C01AD0164
:103E7000281939094A095B09A4EBB0E00E9404D172
:103E8000A7019601281939094A095B090E94E5D062
:103E9000B90186EE96E04DC00E9465BBB8018CE486
:103EA00096E00E941FBB8BE793E00E9454BA94C235
:103EB0008AE50E94443F811105C083E50E94443F8A
:103EC000882331F10E94D63C20E030E040E050EC05
:103ED0000E946DCA87FD42C40E94D63C20E030E0BB
:103EE00040E050E40E94D2D218160CF432C40E9472
:103EF000D63C2091DE0B3091DF0B4091E00B5091CE
:103F0000E10B0E94D3CA0E9444D2CB010E942DB47F
:103F10008091060D87FD27C48091070D837009F0FD
:103F200022C40E9469BB6091E20E7091E30E83E5AA
:103F300096E00E941FBBFBC360E085E40E94603FE7
:103F4000811170C080E50E940D3D882351F00E94D0
:103F5000D63C6093C3137093C4138093C51390939E
:103F6000C61389E40E940D3D882381F00E94D63C4F
:103F70002CEA35EC47E25EE30E94D3CA6093C71394
:103F80007093C8138093C9139093CA1384E40E945A
:103F90000D3D882381F00E94D63C2CEA35EC47E2A7
:103FA0005EE30E94D2D16093CB137093CC138093C5
:103FB000CD139093CE130E9469BB4091C3135091CF
:103FC000C4136091C5137091C61386E696E00E94F3
:103FD000D7BA2CEA35EC47E25EE36091C7137091E3
:103FE000C8138091C9139091CA130E94D2D1AB011A
:103FF000BC0182E696E00E94D7BA2CEA35EC47E293
:104000005EE36091CB137091CC138091CD139091AE
:10401000CE130E94D3CAAB01BC018EE596E00E948C
:10402000D7BA85C30E9465BB8AE696E00E9454BA5F
:10403000D3C10E943883D0C18091841381116BCD8C
:1040400081E006C080918413882309F464CD80E068
:104050000E94288060CD6FEF7FEF89E40E94513F7E
:10406000082F6FEF7FEF8AE40E94513F182F8AE5F7
:104070000E94443F811108C081E50E94443FD82E30
:10408000882309F476C301C0D12CC02E81E0800FB3
:10409000853008F04CC0912E81E0810F853008F00A
:1040A00046C00E94D63C2B013C01F02E07FDF12CAE
:1040B00007FF02C0F3E0CF2E812E17FD812C17FFE2
:1040C00002C0E3E09E2ECF1408F486C1E82C24E061
:1040D000F29E500111249E1440F10E2D10E0DD20BF
:1040E00071F0F501E00FF11FEE0FFF1FEE0FFF1F44
:1040F000E95AF14F208131814281538103C020E090
:1041000030E0A9010A0D1B1D000F111F000F111F28
:10411000095A114FC301B2010E944FD1F8016083C7
:10412000718382839383E394D6CFF394CCCF0E94A0
:1041300065BB81E793E00E9454BA4EC10E94AABDBC
:1041400081114AC10DE117E12CE432E039A728A71B
:10415000CE0101961C019BE8C92E9CE0D92E71016D
:10416000F8016591759185919491E8A5F9A58190E3
:104170009190A190B190F9A7E8A7A50194010E94A0
:104180004ED12B013C01F7016083718382839383BD
:1041900020E030E040EA51EC0E94D2D287FD0AC014
:1041A00020E030E040EA51E4C301B2010E946DCA50
:1041B00018162CF4F601849118160CF4E1C2F701DC
:1041C00081909190A190B1907F0120E030E040EA91
:1041D00051ECC501B4010E94D2D287FDDBC220E0C0
:1041E00030E040EA51E4C501B4010E946DCA1816DE
:1041F0000CF0D7C2CFC20E943999EEC00E94F4974A
:10420000EBC061E083E50E946C3F91E089270E944A
:104210004F99E2C081E08093240E0E9409A410927D
:10422000240E882309F4D8C00E9469BB8AEB96E06B
:104230000E9454BAD1C08091BE1182FF04C0806434
:104240008093BE11C9C083FFC7C00E9485BDC4C092
:104250008AE50E94443F882351F00E94D63C609337
:10426000530E7093540E8093550E9093560E80917A
:10427000060D87FDB1C08091070D837009F0ACC0B9
:10428000B5C20E94E593A8C081E08093680560E014
:1042900083E50E946C3F81119FC00E94C1929CC027
:1042A00083E50E940D3D882339F00E94C23C809333
:1042B000520E0E94354590C00E9469BB89EE96E07F
:1042C0000E9454BA8091520E0E947DBA85C00E940D
:1042D000BC8C82C00E94BC516D3371058105910573
:1042E00020F08AE197E00E942C9786E197E00E94F7
:1042F0002C970E942D450E948A891091FD108FE70E
:104300008093FD1082E097E00E9454BA1093FD1054
:104310008EEF96E09093E4038093E3035DC00E94E8
:104320009CBD5AC00091010D1091020D0E944EB823
:104330006093DE0E7093DF0E8093E00E9093E10E9B
:10434000003108F441C00E9469BB8091FD108823B0
:1043500011F08F3719F484E50E94A9288091FD108F
:10436000882319F084E50E9467278091FD10882337
:1043700011F08F3741F4B8017727072E000C880B16
:10438000990B0E943B2E8091FD10882341F0B801CB
:104390007727072E000C880B990B0E94DB27809152
:1043A000FD10882311F08F3719F480E20E94A928AC
:1043B0008091FD10882319F080E20E9467278AE629
:1043C00096E00E9454BA08C00093DF06802F0E9436
:1043D000803102C00E949CBDFBA5F11102C00E9469
:1043E00092922AA52093FA021DC28090E305909034
:1043F000E405A090E505B090E605209158023091C3
:10440000590240915A0250915B02C501B4010E94C9
:104410004ED16B017C0120E030E0A9010E94D2D294
:1044200087FFF3C12DEC3CEC4CEC5DEBC701B60112
:104430000E946DCA18165CF0C701B601905820E0C2
:1044400030E040E251E40E946DCA18161CF40E944C
:104450000F49C2CF11E020E030E0A901C701B60149
:104460000E94D2D218160CF010E080911A0C811321
:10447000EECF8092580290925902A0925A02B092C6
:104480005B0288E592E00E94488320E030E0A901C9
:10449000C701B6010E946DCA881F8827881F0E9425
:1044A0006F349ACF0E94388310922F02E090CE147E
:1044B00080E00E94DC380E944EB86093DE0E70935C
:1044C000DF0E8093E00E9093E10E0E94F24C81E0AB
:1044D0008093D4030E94AD518AE50E940D3DF82ED1
:1044E00088E50E940D3D182F89E50E940D3D1813A7
:1044F00047C0F11611F0012F04C001E011E0FF24C4
:10450000F39482E50E94443F882319F00E94D63C30
:1045100004C060E070E080E291E469837A838B8379
:104520009C8320E030E0A9010E946DCA882341F0FD
:10453000111102C0002371F0CE0101960E941CB53A
:10454000112319F080E00E940A4F002319F081E046
:104550000E940A4FFF2031F080E00E944F3682E037
:104560000E940A4F0E94084F8091D3038093D40386
:104570008E2D0E94DC380E94D94C0E9442502CCFD4
:10458000082FBFCF0E94813F27CF88E50E940D3DB5
:1045900081115F9889E50E940D3D81118A988AE515
:1045A0000E940D3D882331F0809108018170809335
:1045B0000601129885E40E940D3D882309F40CCF72
:1045C0000E941C2509CF5F988A988091080181700C
:1045D0008093060112980E941C25FECE0E949E3CEC
:1045E0000E94305BF9CE0E94388388E50E940D3D21
:1045F000882331F05F9A809183138E7F8093831399
:1046000089E50E940D3D882331F08A9A80918313B9
:104610008D7F809383138AE50E940D3D882361F08E
:10462000809108018095817080930601129A809193
:1046300083138B7F8093831385E40E940D3D882331
:1046400009F4CACE0E94F224C7CE0E94B184C4CE1F
:10465000602F83E50E946C3FD1C983E50E94443FEF
:10466000882391F00E94D63C6093F60B7093F70B71
:104670008093F80B9093F90B6093FE0B7093FF0BF4
:104680008093000C9093010C80E50E94443F8823A6
:1046900051F00E94D63C6093F60B7093F70B809319
:1046A000F80B9093F90B82E50E94443F882351F068
:1046B0000E94D63C6093FA0B7093FB0B8093FC0B2B
:1046C0009093FD0B84E50E94443F882309F484CE37
:1046D0000E94D63C6093FE0B7093FF0B8093000CFE
:1046E0009093010C79CE4091F60B5091F70B6091AD
:1046F000F80B7091F90B8FE296E00E94D7BA4091C7
:10470000FA0B5091FB0B6091FC0B7091FD0B8EE24C
:104710009AE10E94D7BA4091FE0B5091FF0B609135
:10472000000C7091010C8DE49CE10E94D7BA80913D
:10473000FD10882311F08F3719F48AE00E94A92810
:104740008091FD10882309F447CE8AE00E946727F4
:1047500043CE60E070E080E090E4CBCB60E070E0BE
:1047600080E090ECC6CB82E50E940D3D8111D9CB53
:1047700033CE0E9465BB8CE796E00E9454BA2CCEE3
:10478000B7FAB094B7F8B094F70180829182A28210
:10479000B38215CD0E9465BB8CE996E00E9454BAA5
:1047A0001BCE0C5F1F4FFFEFCF1ADF0A29E237E164
:1047B0002017310709F0D4CC80EEE82E83E1F82EE3
:1047C00010E0F10181919191A191B1911F01F70147
:1047D00081939193A193B1937F01812F0E94EF4820
:1047E0001F5F133071F70E944250F6CD8AEC96E0BD
:1047F0000E9454BA4091530E5091540E6091550E40
:104800007091560E85EC96E090CF2DEC3CEC4CEC84
:104810005DE3C701B6010E94D2D287FD18CEC70161
:10482000B6010DCEAB960FB6F894DEBF0FBECDBF6E
:10483000DF91CF911F910F91FF90EF90DF90CF907C
:10484000BF90AF909F908F907F906F905F904F90B0
:104850003F902F900895CF92DF92EF92FF920F93A7
:104860001F93CF93DF936C018B017A01EC01CF5F33
:10487000DC4F888187FF04C0FB011182108224C0B5
:104880002CE02C9DC0012D9D900D11242881AC01A0
:10489000420F511D27FD5A952091721130E04217A9
:1048A000530794F42881AC01420F511D27FD5A95FE
:1048B0009A01FA01EE0FFF1F2E0F3F1FF901E65D6F
:1048C000FE4E208127FD19C088818F5F88832CE0F0
:1048D0002C9DC0012D9D900D11242881AC01420F0B
:1048E000511D27FD5A952091721130E04217530750
:1048F000BCF428812C3044F113C02881820F911D13
:1049000027FD9A95FC01EE0FFF1F8E0F9F1FFC01E4
:10491000E65DFE4E808160E08F770E9496B7D4CF2F
:10492000F80180819181049680349C4918F480E4D8
:104930009CE904C0F801808191810496F70191837C
:1049400080838FEF888345C0F801408151812881A1
:10495000BC01620F711D27FD7A959B01FB01EE0FD3
:10496000FF1F2E0F3F1FF901E65DFE4E21813281B0
:10497000240F351FF701318320832881AC01420FBA
:10498000511D27FD5A959A01FA01EE0FFF1F2E0FB8
:104990003F1FF901E65DFE4E208127FF1AC02881E6
:1049A000820F911D27FD9A95FC01EE0FFF1F8E0FC0
:1049B0009F1FFC01E65DFE4E808161E08F77DF91F5
:1049C000CF911F910F91FF90EF90DF90CF900C94BB
:1049D00096B7DF91CF911F910F91FF90EF90DF90ED
:1049E000CF900895479A109AABE0B1E08C918095F2
:1049F0008078E9E0F1E08083109A8C91809580784E
:104A0000808308955F9A809183138E7F80938313B0
:104A10008A9A809183138D7F8093831380910801FC
:104A20008095817080930601129A809183138B7F09
:104A3000809383130C94F22447981098ABE0B1E074
:104A40008C918078E9E0F1E0808310988C918078F7
:104A5000808308950E94E24890917A119093791191
:104A6000909378119093771194E69093761120EDBE
:104A700033E03093C10B2093C00B81110E9413BA15
:104A800081E08093A30E0E9438838EEF0E94584EDF
:104A90000C94084F9091BE1193FB882780F993FFE7
:104AA00006C081E090912313911101C080E0089528
:104AB0001092AC130895269A2E980895DC01EC917B
:104AC000F0E0CF01880F991FE80FF91FE65DFE4E59
:104AD00080818F77808308958F929F92AF92BF924B
:104AE000CF92DF92EF92FF920F93CF93DF931F92BB
:104AF000CDB7DEB75C016B017A014901F501808118
:104B000091810E949DD08983002311F0F60180835A
:104B1000BE016F5F7F4FC4010E9465B0F5018081C7
:104B20009181019691838083FFEFCF1ADF0A81E0A4
:104B3000E81AF10819F780E00F90DF91CF910F91FB
:104B4000FF90EF90DF90CF90BF90AF909F908F90AD
:104B500008957F928F929F92AF92BF92CF92DF92F1
:104B6000EF92FF920F931F93CF93DF931F92CDB7D6
:104B7000DEB77C0159018B016B01C40ED51E0C15EB
:104B80001D0559F1F70180809180F80171908F0126
:104B90007982C4010E949DD0781691F0672DC401DE
:104BA0000E94A5D0C4010E949DD09981891741F02F
:104BB0000E9469BB88E297E00E9454BA81E00EC06F
:104BC000BE016F5F7F4FC5010E9465B0F701808114
:104BD0009181019691838083D2CF80E00F90DF9105
:104BE000CF911F910F91FF90EF90DF90CF90BF90EA
:104BF000AF909F908F907F900895009781F41092CE
:104C0000900082E0809391001092950010929400A1
:104C1000C19A80917100826080937100089501971C
:104C200061F41092A00082E08093A1001092A50090
:104C30001092A40089BB8093720008957F928F9296
:104C40009F92AF92BF92CF92DF92EF92FF920F931B
:104C50001F93CF93DF93FC019081983108F0CDC072
:104C60006B017F01892F90E0FC01EE0FFF1F8E0F7B
:104C70009F1FFC01E65DFE4E80818F770E947DB014
:104C8000F7011182128280816CE00E9426D1FCE043
:104C90008F9FB001112440E050E09B01240F351F8D
:104CA000F901EE0FFF1F2E0F3F1FF901E65DFE4ECB
:104CB000908197FD08C04F5F5F4F4C30510569F7F9
:104CC00090E00E94FD25F7017080C72DD0E08E0195
:104CD000000F111FF801EC0FFD1FE65DFE4E8081F5
:104CE0008068808377FC89C0F0E2CF16F2E0DF06AF
:104CF0000CF041C0F701828128E532E0281B310920
:104D000087FD3395220F331F220F331F032E000C14
:104D1000440B550B818168E870E04B01881A9108BB
:104D200087FD9394880C991C880C991C092C000C05
:104D3000AA08BB08D7FC0BC0B601653B710514F08F
:104D400064EB70E0072E000C880B990B03C060E049
:104D500070E0CB01281939094A095B090E94B3D0D8
:104D600024EB30E040E050E00E94E5D0820E931E3C
:104D7000A41EB51E01C04601F7E1F71558F1F70171
:104D8000218188E890E0821B910927FD9395880F87
:104D9000991F880F991F8816990684F0F7012281C0
:104DA00088E592E0821B910927FD9395880F991F52
:104DB000880F991F881699060CF4C40102972FB723
:104DC000F894C00FD11FC65DDE4E880F991F9A83DD
:104DD00089832FBF62E370E080E090E0DF91CF91A4
:104DE0001F910F91FF90EF90DF90CF90BF90AF9009
:104DF0009F908F907F900C9430BADF91CF911F914C
:104E00000F91FF90EF90DF90CF90BF90AF909F9069
:104E10008F907F9008951F920F920FB60F921124DA
:104E20000BB60F922F933F934F935F936F937F93A4
:104E30008F939F93AF93BF93EF93FF9348EA50E014
:104E400064EA70E081E090E00E942B24FF91EF91F2
:104E5000BF91AF919F918F917F916F915F914F9192
:104E60003F912F910F900BBE0F900FBE0F901F9090
:104E700018951F920F920FB60F9211240BB60F9236
:104E80002F933F934F935F936F937F938F939F9352
:104E9000AF93BF93EF93FF9348E950E064E970E06C
:104EA00080E090E00E942B24FF91EF91BF91AF91A1
:104EB0009F918F917F916F915F914F913F912F9132
:104EC0000F900BBE0F900FBE0F901F9018959091F2
:104ED000D00095FFFCCF8093D60008958F929F92CB
:104EE000AF92BF92EF92FF920F931F93CF93DF93F6
:104EF000CDB7DEB7A0970FB6F894DEBF0FBECDBF1B
:104F0000611571058105910591F100E0842E912CC8
:104F1000A12CB12C102FEE24E394F12CEC0EFD1EED
:104F2000E00EF11C07FDFA94A50194010E94C3D084
:104F3000F7016083B901CA010F5F61157105810531
:104F4000910541F71F3F31F1E1E0F0E0EC0FFD1F6B
:104F5000E10FF11D17FDFA9580818A3010F097E37B
:104F600001C090E3890F0E9467271150EBCF80E3C7
:104F7000A0960FB6F894DEBF0FBECDBFDF91CF91E4
:104F80001F910F91FF90EF90BF90AF909F908F90E7
:104F90000C946727A0960FB6F894DEBF0FBECDBF66
:104FA000DF91CF911F910F91FF90EF90BF90AF9045
:104FB0009F908F900895CF92DF92EF92FF926B01B6
:104FC0007C0197FF0BC08DE20E946727F094E0946C
:104FD000D094C094C11CD11CE11CF11C4AE0C70153
:104FE000B601FF90EF90DF90CF900C946E278F92D8
:104FF0009F92AF92BF92CF92DF92EF92FF92CF93A8
:105000006B017C01B42E20E030E0A9010E946DCA42
:1050100087FF07C08DE20E946727F7FAF094F7F840
:10502000F094C0E060E070E080E09FE3CB1541F0D9
:105030002DEC3CEC4CEC5DE30E94D3CACF5FF6CF85
:105040009B01AC01C701B6010E944FD16B017C01ED
:105050000E944BD24B015C014AE00E946E27CC2398
:1050600089F1C501B4010E9472CA9B01AC01C7015C
:10507000B6010E944ED16B017C018EE20E9467272F
:1050800020E030E040E251E4C701B6010E94D3CAFB
:105090004B015C010E9444D26B01770FEE08FF08C0
:1050A000C701B6010E94DB27C701B6010E9474CA7E
:1050B0009B01AC01C501B4010E944ED16B017C0182
:1050C000C150F1F6CF91FF90EF90DF90CF90BF905D
:1050D000AF909F908F9008958DE00E9467278AE09F
:1050E0000C946727CF93DF93EC018991882319F003
:1050F0000E946727FACFDF91CF910C946C281F9202
:105100000F920FB60F9211240BB60F922F938F931D
:105110009F93EF93FF939091D6002091970DE0918C
:10512000960D81E08E0F8F77281729F0F0E0EA5670
:10513000F24F9283E82FE093960DFF91EF919F91AC
:105140008F912F910F900BBE0F900FBE0F901F905D
:1051500018959091C00095FFFCCF8093C6000895EC
:105160002F923F924F925F926F927F928F929F9277
:10517000AF92BF92CF92DF92EF92FF920F931F9365
:10518000CF93DF9300D01F921F92CDB7DEB78091EF
:105190006605843008F060C280916605843008F0AE
:1051A0007FC18091140D9091150D891B8F7741F46B
:1051B0008091960D9091970D891B8F7709F470C19E
:1051C00025E0A22E23E0B22E33E0832E33E0932E8F
:1051D00048E1C42E4EE0D42E0CE11EE01D830C836A
:1051E000E12CF12C8E2D0E94699297FD3CC18A30F2
:1051F00019F08D3009F032C1F4011082F60180817E
:10520000918100E60E9DF0010F9DF00D1124EB5FE2
:10521000FC4FE80FF91F1082892B29F0F60111824B
:105220001082850103C00E94C8AC1DC1F8018191A4
:10523000803211F48F01FACF8E3409F066C0011567
:10524000110509F462C06FE078E0C8010E9424CA29
:105250001C01892B41F06EE470E0C80104960E94A5
:1052600098D3009709F4C8014AE050E060E070E08C
:1052700001960E9493C72B013C01EC81FD81808146
:105280009181A281B3810196A11DB11D48165906D5
:105290006A067B0631F0232821F46E2D8CED97E011
:1052A000FDC06AE270E0C8010E94C7D39C0100976C
:1052B00009F1982F901B312C992339F09150F80166
:1052C000E90FF11D80813826F7CF4AE050E060E019
:1052D00070E0C90101960E9493C7232D30E040E0A1
:1052E00050E0621773078407950741F06E2D8DEB30
:1052F00097E0D4C06E2D83E997E0D0C0EC81FD81AA
:10530000408251826282738212C08091BE1180FFFE
:105310000EC064E97AE0C8010E9424CA009709F42B
:10532000BAC0FC01838180538A3008F4B4C08091F4
:1053300068058130E9F067E470E0C8010E9498D305
:105340000097B1F04AE050E060E070E001960E9402
:1053500093C7623071058105910550F47090FD107E
:10536000E092FD108EEC9AE00E9454BA7092FD100B
:105370006EE877E0C8010E94EBC9892B11F4109206
:10538000100269E877E0C8010E94EBC9892B31F46B
:1053900041E060E070E080EE93E0A2C164E877E075
:1053A000C8010E94EBC9892B11F40E942A256FE7DE
:1053B00077E0C8010E9424CA892B09F449C06AE534
:1053C00070E0C80104960E9498D3009709F440C089
:1053D0008C010F5F1F4F60E070E0C8010E9437C66C
:1053E00020E030E040E050EC0E946DCA87FD13C021
:1053F00060E070E0C8010E9437C620E030E040E085
:1054000050E40E94D2D218165CF060E070E0C8014F
:105410000E9437C609C060E070E080E090EC04C0F4
:1054200060E070E080E090E42091DE0B3091DF0BD3
:105430004091E00B5091E10B0E94D3CA0E9444D2EC
:10544000CB010E942DB4B70181E00E946C930BC088
:10545000A70161E0C5010E949C9305C09601A501CA
:10546000B4010E943E5BFFEFEF1AFF0A00E6A00EB8
:10547000B11C1FEF811A910A22E0C20ED11C0C81CF
:105480001D810C5F1F4F1D830C8312E0E116F10498
:1054900009F482CEA7CE6E2D83E997E00E94229375
:1054A0008091BE1182FFD8C01A82198211E040910A
:1054B000BA115091BB116091BC117091BD118091D6
:1054C000B6119091B711A091B811B091B9114817C8
:1054D00059076A077B0708F410E000E680E1F82E20
:1054E00099E6E92E80916605843008F0B5C0111167
:1054F000B3C08091281390912913A0912A13B091E1
:105500002B138093BA119093BB11A093BC11B0934D
:10551000BD1141E050E0BE016D5F7F4F80E293E13D
:105520000E941BA2019719F48B8190E002C08FEFBB
:105530009FEF4090BA115090BB116090BC117090D9
:10554000BD118090B6119090B711A090B811B09095
:10555000B91111E0481459046A047B0408F410E0FE
:105560008F3F2FEF920761F4481459046A047B04BB
:1055700038F40E9465BB84E198E00E9454BAB2CF2F
:105580004091E2038A3079F08D3069F04814590473
:105590006A047B0408F4A6C089819A81009719F0F7
:1055A00001969A8389831092C50389819A81FC01AF
:1055B000049FE00DF11D1124EB51FC4F1082892B4B
:1055C000C1F01A8219826FEF7FEF80E00E946C9326
:1055D0008091BA119091BB11A091BC11B091BD11F5
:1055E0008093080D9093090DA0930A0DB0930B0DB5
:1055F00002C00E94C8AC481459046A047B0408F431
:1056000071CF0E94388380E293E10E9432748091CE
:10561000B5118823E1F081508093B511E89EC00157
:10562000112462E0855D934F0E94F786E091B511E9
:1056300034E0E39FF0011124E95DF34F6081718153
:10564000828193810E94305B0E9447864BCF0E94EB
:105650003886F092680546CF0E944EB86B017C01F7
:105660004091F3025091F4026091F5027091F602BC
:10567000411551056105710509F441C08091DE0EA7
:105680009091DF0EA091E00EB091E10E840F951F76
:10569000A61FB71F97018601081B190B2A0B3B0B8E
:1056A00037FD2DC00E9465BB60919C1370919D13C6
:1056B00082E497E00E9440BB8091FD10882309F4AA
:1056C00015C28F3709F412C28091FD10882319F09A
:1056D0008AE00E94672740E060E070E080E090E0B0
:1056E0000E946DBB049FA00111244B515C4F9E0191
:1056F0002F5F3F4F65EC73E00E943E5BF3CE8091DD
:10570000010290910202A0910302B0910402892B40
:105710008A2B8B2B09F44EC09091791180917A11CC
:10572000981749F0C092DE0ED092DF0EE092E00EA4
:10573000F092E10E3FC00E944EB88090DE0E909035
:10574000DF0EA090E00EB090E10E009101021091EA
:1057500002022091030230910402080D191D2A1D36
:105760003B1DDC01CB01801B910BA20BB30BB7FDE2
:10577000C1C18091CA0381111DC081E08093CA0319
:105780005F9A809183138E7F809383138A9A80918E
:1057900083138D7F8093831380910801809581709E
:1057A00080930601129A809183138B7F80938313D9
:1057B0000E94F2248091C6039091C703A091C80370
:1057C000B091C903A7019601281B390B4A0B5B0B4B
:1057D00057FDE2C09091791180917A11981751F09C
:1057E000E0917A113EE4E39FF0011124E75DF84F68
:1057F000008102C00091AC13002311F010E002C040
:1058000000E010E089E00E947DB00115110511F45F
:1058100060E004C00F3F110529F461E089E00E94B7
:1058200096B7ADC0EBEBF0E2E4918E2F90E0FC0177
:105830003197E231F10508F09DC08827EE58FF4FFF
:105840008F4F0C9446D184B5806884BD07BD97C046
:1058500084B5806284BD08BD92C08091800080685C
:1058600080938000109389000093880088C0809105
:10587000800080628093800010938B0000938A00E8
:105880007EC08091800088608093800010938D009E
:1058900000938C0074C08091B00080688093B00049
:1058A0000093B3006CC08091B00080628093B00020
:1058B0000093B40064C08091900080688093900051
:1058C00010939900009398005AC0809190008062D4
:1058D0008093900010939B0000939A0050C0809199
:1058E000900088608093900010939D0000939C002E
:1058F00046C08091A00080688093A0008091A000A5
:105900008F7B8093A0001093A9000093A80037C05C
:105910008091A00080628093A0001093AB00009360
:10592000AA002DC08091A00088608093A0001093F1
:10593000AD000093AC0023C080912001806880936B
:105940002001109329010093280119C080912001A2
:1059500080628093200110932B0100932A010FC0D5
:105960008091200188608093200110932D01009385
:105970002C0105C0003811050CF04FCF49CF44E68B
:10598000C40ED11CE11CF11CC092C603D092C70307
:10599000E092C803F092C9030E94C8AC80916805E8
:1059A000882309F4E3C080910901817091E0982770
:1059B000209105022917E1F12091BE112062209368
:1059C000BE119093050281110DC064EF71E080E07B
:1059D00090E00E9430BA0E9495898091BE1183FDAB
:1059E0000AC026C00E9438868091BE11877F8062DF
:1059F0008093BE111DC00E94D185882379F081E07B
:105A00000E94A4854AED50E06CEE73E181EC91E1D7
:105A10000E941BA281EC91E10E9432740E944B45CE
:105A200081119DC00E942D450E948A891092B31158
:105A30000E944EB86B017C0180910002882359F1CD
:105A40008091FA02882339F14091CB035091CC0325
:105A50006091CD037091CE0397018601041B150B55
:105A6000260B370B37FD2AC0833079F03CF48130A8
:105A700094F00E9469BB82E598E00BC0843059F431
:105A80000E9469BB83E298E004C00E9469BB8BE37B
:105A900098E00E9454BA2091000230E0A8EEB3E0F2
:105AA0000E9417D1C60ED71EE81EF91EC092CB0366
:105AB000D092CC03E092CD03F092CE038091F2021B
:105AC000882309F453C00E944EB80091EE02109151
:105AD000EF022091F0023091F102DC01CB01801B3A
