:100000000C9478250C94A9250C94A9250C94A92569
:100010000C94A9250C94A9250C94A9250C94A92528
:100020000C94A9250C94A9250C94A9250C94A92518
:100030000C94A9250C94B99F0C94A9250C94A9257E
:100040000C94A9250C94F8E50C94A9250C94A925E9
:100050000C94A9250C94A9250C94B9A20C946F9F1B
:100060000C94A9250C9466420C945C420C94A9252E
:100070000C94A9250C94A9250C94A9250C94A925C8
:100080000C94A9250C94A9250C94A9250C94A925B8
:100090000C94A9250C94A9250C94A9250C94A925A8
:1000A0000C94A9250C94A9250C94A9250C94A92598
:1000B0000C94A9250C94A9250C94A9250C94A92588
:1000C0000C94A9250C94A9250C94A9250C94A92578
:1000D0000C94A9250C94A9250C94A9250C94A92568
:1000E0000C94A925D63FDB3FE03FEA3FF43F6D404B
:1000F000FE3F06400E40184022402C403B40454009
:100100006D404F40594063409E45BC43F543DA453E
:10011000F543F543F543F543F543F543F543F5431F
:10012000F543F543F543F543F543F543F543F5430F
:10013000F543F543F543F543F543F543F543F543FF
:10014000F543F543D445F543F543F543F543F5430E
:10015000F543F543F543AD45F543F543F543F54325
:10016000F543F543F543F543F543F543F145F243D4
:10017000BBEFC8EFDDEFEAEF07F01CF029F03AF033
:100180004BF064F07DF096F0AFF0CCF0E9F00702B0
:10019000D301FB0135013F02B90185014502BD01D3
:1001A000B302CF012F01A701AF02FB008B028D022A
:1001B00087025301090103020B0183015501230149
:1001C00053028702B101330125010C94E25B0C94C8
:1001D000015D0C9496F00C9435DE0C94B84F0C94A1
:1001E000CCF00D94B80E0C948F4E0C9406B00C9479
:1001F000DDEF0C94655A0D94392E0C94465C0C94EA
:10020000C7490C940B5D0C948F860C94E7770C9483
:10021000E1770D94522E0D945C2E0C9441460C9473
:100220009B4E0C9423940C94BC430C940F5C0C9444
:100230000C780C9407F00C947F4F0C944D890C941F
:10024000E94E0C94A6520D946A2E0D947C2E0C94BB
:10025000984A0C943AF00C94EB5C0C949D4F0D94DE
:10026000EE250C94BC7A0D94782E0D94D9250C941F
:10027000A5770C9493770C94DD5D0C94BA860C945E
:10028000AD420C948E4F0C940C840C9463400C94EF
:100290003C9F0C942D4A0C94B07A0C9431700D94C0
:1002A000E9480C949EB50D944E2E0D94662E0C9438
:1002B000CF770C942C840C9405E00C9464F00C948F
:1002C00015780C9440520C94235C0C94B37A0C94E3
:1002D0007AAA0C94AD450C9431DE0C94E9F00C94A0
:1002E000404A0C94EC750C94B7770C94D63F0C9460
:1002F00018400D9488100C94D46F0C94B4860C9410
:10030000ED770D94A20D0D94602E0D94E5250C94BF
:10031000F2430C9422400C944C430C94834E0C9466
:100320000E400C94525C0C94BF4E0C94EAEF0C946B
:10033000135C0D9459110C94F9490C9439700C9478
:100340009E450C942EE20C9417850C944F520D94FC
:10035000472E0C9463AA0C94F43F0C94A74E0C9473
:10036000065C0D94742E0C94AE860C9468460C9426
:10037000994C0D94E2250C9473F20D94E8250C949D
:10038000894E0C94D4450C94EA3F0D9407490C9483
:1003900006400C94129F0C9460810C94CA460D94F4
:1003A000EB250C944CAA0D94D6250C9434810C9416
:1003B0009D8B0D94310C0C94405C0C944BF00C9480
:1003C000726F0C94C3770C949B860C94F5430D9438
:1003D000A9100C9429F00C94DB770C94B97A0C9446
:1003E000A7FB0C94A14E0C9437DE0C944B4E0C944E
:1003F00028840C94B14A0D94DC250C94A94F0C94DC
:100400006D400C945A4E0D94582E0C94F1450D9459
:10041000F6250C94D9610C9448430C94E45E0C943A
:10042000B94E0C941C840C947EFB0D94AD100D946D
:10043000A7100C9436780C9447810C94AD4E0C9414
:1004400033DE0C9420840C942F730C94FE3F0C9498
:10045000AFF00C94F15C0C94DB3F0C942C400C94AA
:10046000F75C0C94105D0C94155D0C941F780C9443
:100470008A4C0C94534A0C944F4F0C94E03F0D94CB
:10048000DF250C9458600C94DA450D94F1250C94FA
:10049000BBEF0C9428700C9418840C94CA4E0C94E6
:1004A00059400C94814C0D946E2E0C94567C0D94F6
:1004B000AB100C94B34E0C9439DE0C9441700C9438
:1004C000124A0C94237E0C947F4A0C94E45D0C94A5
:1004D00024840C94F1E10C943C890C94B0420C946B
:1004E000B67A0C94E0490C9434840C9410840C94E7
:1004F000C7710C94FC5C0C94065D0C9438890C94C8
:100500001A5D0C94EF930C941CF00C94115C0D94F8
:10051000812E0C9414840D943D2E0D94412E0C9438
:100520007B4E0C94746F0C9445400C944C5C0C9472
:10053000B56F0C94585C0C9430840C942E790C9408
:1005400049430C94704F0C9435AA0C94B9490C94FF
:10055000055C0C944F400C94C8EF0C943B400D94F8
:100560004A2E0C9404820D9403260C94F5700C947E
:100570007DF00C9434890C94954E0C946C4A4E4149
:100580004E494E495459494E46CDCCCC3D0AD7230D
:100590003C17B7D13877CC2B329595E6241FB14F55
:1005A0000A000020410000C84200401C4620BCBE9A
:1005B0004CCA1B0E5AAEC59D7400407A10F35A0007
:1005C000A0724E18090010A5D4E80000E87648177C
:1005D0000000E40B54020000CA9A3B000000E1F561
:1005E00005000080969800000040420F000000A027
:1005F0008601000000102700000000E80300000052
:10060000006400000000000A00000000000100007B
:100610000000002C76D888DC674F0823DFC1DFAEEE
:1006200059E1B1B796E5E3E453C63AE651997696B7
:10063000E8E6C28426EB898C9B62ED407C6FFCEF80
:10064000BC9C9F40F2BAA56FA5F490055A2AF75CAE
:10065000936B6CF9676DC11BFCE0E40D47FEF52060
:10066000E6B500D0ED902E03009435770500808428
:100670001E080000204E0A000000C80C333333333C
:100680000F986E12831141EF8D2114893BE65516A8
:10069000CFFEE6DB18D1844B381BF77C1D901DA4E0
:1006A000BBE424203284725E228100C9F124ECA1D3
:1006B000E53D27434F4D4D554E49434154494F4E1B
:1006C0000044525952554E004552524F5253004920
:1006D0004E464F004543484F00D0A1D0BED0BD2E5E
:1006E0002E2E004D65736820706F696E74206F75D3
:1006F00074206F662072616E67650A00D09FD1809A
:10070000D0BED0B4D0BED0BBD0B6D0B8D182D18C00
:100710002E2E2E00D09DD0B5D18220D0B4D0B2D014
:10072000B8D0B6D0B5D0BDD0B8D18F2E00456E644C
:100730002066696C65206C6973740A00426567699C
:100740006E2066696C65206C6973740A004E6F20B8
:100750006D656469610A00286E6F2066696C6529A1
:100760000043757272656E742066696C653A20008C
:100770005344207072696E74696E67206279746583
:1007800020004E6F74205344207072696E74696E3D
:10079000670A002569792025696420256968202574
:1007A000696D20256973005072696E742074696DDB
:1007B000653A2000D09ED185D0BBD0B0D0B6D0B4A1
:1007C000D0B5D0BDD0B8D0B52E2E2E00D09DD0B093
:1007D000D0B3D180D0B5D0B22E2E2E0045202553D7
:1007E000006F66660044454255473A004D3131324C
:1007F0002053687574646F776E004D313133205328
:10080000005A38545F4D33204F46462E004348412E
:100810004D4245525F54454D504552415455524505
:1008200000424142595354455050494E47004152AD
:100830004353004D4F54494F4E5F4D4F4445530075
:10084000544845524D414C5F50524F5445435449D2
:100850004F4E004C4F4E475F46494C454E414D452B
:10086000004155544F5245504F52545F53445F53CB
:100870005441545553005344434152440050524F45
:100880004D50545F535550504F525400454D4552B2
:1008900047454E43595F50415253455200434153DF
:1008A000455F4C494748545F4252494748544E457A
:1008B000535300544F47474C455F4C4947485453A6
:1008C00000534F4654574152455F504F57455200D1
:1008D0004255494C445F50455243454E54004C45A7
:1008E00056454C494E475F44415441005A5F50526F
:1008F0004F42450052554E4F5554004155544F4CB0
:100900004556454C005052494E545F4A4F420050A4
:10091000524F4752455353004155544F5245504F43
:1009200052545F54454D5000564F4C554D4554520E
:1009300049430042494E4152595F46494C455F5434
:1009400052414E534645520053455249414C5F581F
:100950004F4E5F584F4646004649524D574152450B
:100960005F4E414D453A4D61726C696E206D61720A
:100970006C696E2D322E302E3820284E6F76202056
:100980003920323032302031373A30323A35352959
:1009900020534F555243455F434F44455F55524C9A
:1009A0003A68747470733A2F2F6769746875622E91
:1009B000636F6D2F4D61726C696E4669726D776100
:1009C00072652F4D61726C696E2050524F544F43C7
:1009D0004F4C5F56455253494F4E3A312E30204DC1
:1009E000414348494E455F545950453A5A38545F3F
:1009F0004D332045585452554445525F434F554E50
:100A0000543A3120555549443A6365646532613240
:100A1000662D343161322D343734382D396231321C
:100A20002D6335356336326633363766660A002FF6
:100A30002F20004D31343520533C696E6465783E7B
:100A4000206F7574206F662072616E676520283094
:100A50002D31290A00416363656C65726174696FA9
:100A60006E00416363656C65726174696F6E3A20F4
:100A7000500046523A0020466C6F773A200042619F
:100A8000627973746570205A0020643A0020693AD4
:100A90000020703A00496E76616C69642065787454
:100AA00072756465720A0046696C616D656E7420CA
:100AB00072756E6F75742064697374616E636520FE
:100AC000286D6D293A200046696C616D656E742051
:100AD00072756E6F757420004D34323120696E630B
:100AE0006F727265637420706172616D6574657296
:100AF0002075736167650A00D0A1D0BCD0B5D189DB
:100B0000D0B5D0BDD0B8D18F20D0BFD180D0B8D093
:100B1000BCD0B5D0BDD0B5D0BDD18B004572723A36
:100B200020546F6F206661722100546F6F206661E0
:100B3000722066726F6D207265666572656E6365A0
:100B400020706F696E740A00454550524F4D204F1A
:100B50004B0A00205A323A004475616C20456E649D
:100B600073746F702041646A7573746D656E742060
:100B7000286D6D293A2000506F7765722D6C6F7368
:100B800073207265636F766572792000446F6E65BD
:100B9000207072696E74696E672066696C650A0000
:100BA0004D3737004D333100D406CF06C806C10695
:100BB000B3064572726F722077726974696E67202E
:100BC000746F20454550524F4D210A004D32393047
:100BD000004D343130004D313132004D313038006C
:100BE000D09ED0A1D0A2D090D09DD09ED092D09BAC
:100BF000D095D09DD09E2E20005072696E74657283
:100C00002073746F707065642064756520746F2044
:100C10006572726F72732E20466978207468652041
:100C20006572726F7220616E6420757365204D3934
:100C3000393920746F20726573746172742E2028A4
:100C400054656D7065726174757265206973207288
:100C5000657365742E205365742069742061667411
:100C600065722072657374617274696E67290A0017
:100C70004E6F20436865636B73756D207769746888
:100C8000206C696E65206E756D6265722C204C61FA
:100C90007374204C696E653A2000636865636B73FA
:100CA000756D206D69736D617463682C204C617380
:100CB00074204C696E653A20004C696E65204E7553
:100CC0006D626572206973206E6F74204C6173745D
:100CD000204C696E65204E756D6265722B312C203B
:100CE0004C617374204C696E653A20004D3131308F
:100CF0000053442072656164206572726F720A004D
:100D00002121204B494C4C2063617573656420623E
:100D100079204B494C4C20627574746F6E2F70694A
:100D20006E0A002121204B494C4C2063617573658C
:100D30006420627920746F6F206D75636820696E1E
:100D40006163746976652074696D65202D20637513
:100D50007272656E7420636F6D6D616E643A20000F
:100D6000627573793A2070617573656420666F727D
:100D700020696E7075740A00627573793A2070612B
:100D80007573656420666F7220757365720A006200
:100D90007573793A2070726F63657373696E670A51
:100DA0000053442DD0BAD0B0D180D182D0B020D061
:100DB000B8D0B7D0B2D0BBD0B5D187D0B5D0BDD028
:100DC000B00053442DD0BAD0B0D180D182D0B02061
:100DD000D0B2D181D182D0B0D0B2D0BBD0B5D0BD4D
:100DE000D0B0004D3130303053004D3630302054CB
:100DF0003137004572723A207574663820666F6E1E
:100E000074206E6F7420696E697469616C697A65AB
:100E1000642E00000C0F00FE07022503BB01FFFE3D
:100E20000AFE08FE05080806000040F0C8888898F9
:100E30007810050808060000C0F88888888888F8B7
:100E40000505050600012030F830200508080600D9
:100E5000002070F820202020E00509090600FF206E
:100E600070A8A8B888887020070505070001D86C0D
:100E7000366CD80509090600FFF8A8888888888894
:100E8000A8F8050A0A0600FE205050505088A8A86D
:100E9000887003030306000340A040FFFFFFFFFF2D
:100EA000FFFFFFFFFFFFFFFFFFFFFFFFFFFFFFFF52
:100EB000FF0000000605FF01070706020080808092
:100EC00080800080030303060105A0A0A00506069C
:100ED00006000050F85050F8500509090600FF20A0
:100EE00070A8A07028A87020050707060000C8C8D1
:100EF000102040989805070706000040A0A040A8D1
:100F00009068010303060205808080030909060139
:100F1000FF2040408080804040200309090601FFF7
:100F20008040402020204040800507070600002028
:100F3000A8702070A8200505050600012020F820D3
:100F4000200203030601FFC04080050101060003E3
:100F5000F8020202060100C0C005070706000008EB
:100F6000101020404080050707060000708898A8F0
:100F7000C8887003070706010040C040404040E0B9
:100F8000050707060000708808102040F8050707CD
:100F9000060000F8081030088870050707060000F2
:100FA00010305090F81010050707060000F880F088
:100FB00008088870050707060000304080F0888820
:100FC00070050707060000F808101020202005070C
:100FD000070600007088887088887005070706007B
:100FE0000070888878081060020505060100C0C0FE
:100FF00000C0C00206060601FFC0C000C04080035A
:10100000050506010120408040200503030600027B
:10101000F800F8030505060101804020408005071F
:101020000706000070881020200020050707060032
:10103000007088B8A8B8807005070706000070889F
:1010400088F8888888050707060000F04848704837
:1010500048F00507070600007088808080887005CA
:101060000707060000F04848484848F0050707060B
:101070000000F88080F08080F8050707060000F87F
:101080008080F080808005070706000070888080DF
:10109000988870050707060000888888F88888887F
:1010A000030707060100E04040404040E005070715
:1010B00006000038101010109060050707060000A9
:1010C0008890A0C0A0908805070706000080808057
:1010D000808080F805070706000088D8A8888888DF
:1010E000880507070600008888C8A898888805072B
:1010F0000706000070888888888870050707060042
:1011000000F08888F080808005070706000070885E
:101110008888A89068050707060000F08888F0A076
:1011200090880507070600007088807008887005A1
:101130000707060000F820202020202005070706CA
:10114000000088888888888870050707060000885E
:1011500088888850502005070706000088888888FE
:10116000A8A85005070706000088885020508888E6
:101170000507070600008888502020202005070763
:10118000060000F80810204080F80309090601FF56
:10119000E080808080808080E00507070600008076
:1011A0004040201010080309090601FFE02020201C
:1011B00020202020E00503030600052050880501BB
:1011C000010600FEF8030303060105804020050523
:1011D000050600007008788878050707060000807B
:1011E00080F0888888F005050506000070808088FA
:1011F00070050707060000080878888888780505C4
:10120000050600007088F0807005070706000030B2
:101210004840E04040400507070600FE7088888887
:101220007808700507070600008080F088888888A5
:101230000307070601004000C0404040E0040909E0
:101240000601FE1000301010101090600507070610
:10125000000080808890E09088030707060100C0A6
:101260004040404040E0050505060000D0A8A8A881
:10127000A8050505060000B0C8888888050505068C
:10128000000070888888700507070600FEF08888CF
:1012900088F080800507070600FE7888888878082F
:1012A00008050505060000B0C88080800505050614
:1012B000000078807008F00507070600002020F87D
:1012C00020202018050505060000888888986805F4
:1012D00005050600008888885020050505060000E1
:1012E0008888A8A850050505060000885020508869
:1012F0000507070600FE8888885020408005050500
:10130000060000F8102040F80309090601FF2040FC
:10131000404080404040200109090602FF80808053
:101320008080808080800309090601FF8040404062
:10133000204040408005030306000248A890FFFFBC
:10134000FFFFFFFFFFFFFFFFFFFFFFFFFFFFFFFFAD
:10135000FFFFFFFFFFFFFFFFFFFFFFFFFFFFFF009C
:1013600000000605FF01070706020080008080805C
:1013700080800507070600FF2070A8A0A870200540
:101380000707060000304840E04048B00505050664
:101390000000A8508850A80507070600008850F8EC
:1013A00020F820200107070602008080800080804E
:1013B0008004080806010070806090906010E003CF
:1013C0000101060107A00607070600007884B4A4FF
:1013D000B4847803050506010460A06000E00505FB
:1013E000050600002850A05028050303060001F858
:1013F0000808030101060103E0060707060000785C
:1014000084B4A4A48478050101060007F804040448
:10141000060105609090600507070600002020F88F
:10142000202000F803050506010440A02040E00349
:101430000505060104C0204020C003030306010582
:101440002040800507070600FE88888898E880808D
:1014500005080806000078E8E8E86828282802025D
:1014600002060203C0C00302020601FE20C00305FB
:101470000506010440C04040E003050506010540A3
:10148000A04000E0050505060000A0502850A0057A
:101490000A0A06000040C048506050B0507810055D
:1014A0000A0A06000040C048506050A808103805DD
:1014B0000A0A060000C0204830E050B050781005FD
:1014C000070706000020002020408870050A0A0651
:1014D0000000402000708888F8888888050A0A067D
:1014E0000000102000708888F8888888050A0A069D
:1014F0000000205000708888F8888888050A0A064D
:10150000000068B000708888F88888880509090696
:1015100000005000708888F8888888050A0A06004C
:1015200000205020708888F8888888050707060002
:101530000078A0A0F0A0A0B80509090600FE7088F8
:1015400080808088701060050A0A06000040200034
:10155000F88080F08080F8050A0A0600001020005C
:10156000F88080F08080F8050A0A0600002050000C
:10157000F88080F08080F80509090600005000F826
:101580008080F08080F8030A0A060100804000E0B5
:101590004040404040E0030A0A060100204000E0CD
:1015A0004040404040E0030A0A06010040A000E03D
:1015B0004040404040E0030909060100A000E0402F
:1015C00040404040E0050707060000704848E848F2
:1015D0004870050A0A06000068B0008888C8A89804
:1015E0008888050A0A0600004020007088888888DC
:1015F0008870050A0A060000102000708888888814
:101600008870050A0A0600002050007088888888C3
:101610008870050A0A06000068B00070888888880B
:10162000887005090906000050007088888888883D
:101630007005050506000188502050880509090637
:1016400000FF087098A8A8A8C87080050A0A0600BC
:101650000040200088888888888870050A0A06006B
:101660000010200088888888888870050A0A06008B
:10167000002050008888888888887005090906003D
:1016800000500088888888888870050A0A0600004B
:101690001020008888502020202004070706010021
:1016A00080E0909090E08005070706000070889029
:1016B000A09088B005080806000040200070087857
:1016C00088780508080600001020007008788878DF
:1016D0000508080600002050007008788878050882
:1016E0000806000068B000700878887805070706CB
:1016F000000050007008788878050808060000206F
:10170000502070087888780505050600007028705C
:10171000A0780507070600FE7088808870106005B5
:1017200008080600004020007088F0807005080856
:101730000600001020007088F08070050808060080
:10174000002050007088F0807005070706000050E8
:10175000007088F08070030808060100804000C017
:10176000404040E0030808060100204000C040401F
:1017700040E003080806010040A000C0404040E0EF
:10178000030707060100A000C0404040E00509092A
:1017900006000050205008788888887005080806E0
:1017A000000068B000B0C8888888050808060000F6
:1017B0004020007088888870050808060000102006
:1017C00000708888887005080806000020500070A6
:1017D0008888887005080806000068B0007088884E
:1017E000887005070706000050007088888870051B
:1017F00005050600012000F800200505050600008B
:101800007898A8C8F00508080600004020008888DD
:1018100088887005080806000010200088888888DD
:101820007005080806000020500088888888700528
:10183000070706000050008888888870050A0A0695
:1018400000FE102000888888502040800509090685
:1018500000FE8080F0888888F080800509090600F5
:10186000FE500088888850204080D0A1D0BBD0B5E1
:10187000D0B4D183D18ED189D0B8D0B920D183D082
:10188000B3D0BED0BB00D093D0BED182D0BED0B238
:10189000D0BE00D094D0B0D0BBD18CD188D0B50010
:1018A000D09DD183D0BBD0B5D0B2D0BED0B520D0E2
:1018B000BFD0BED0BBD0BED0B6D0B5D0BDD0B8D0D2
:1018C000B500D092D18BD181D0BED182D0B020D101
:1018D00081D0BFD0B0D0B4D0B000D092D18BD18065
:1018E000D0BED0B2D0BDD18FD182D18C20D181D108
:1018F00082D0BED0BB004732380A4732390043613C
:10190000746368205A204F666673657400473239E5
:10191000204E00D092D18BD180D0BED0B2D0BDD1DC
:101920008FD182D18C20D183D0B3D0BBD18B00D0CA
:1019300092D0BED0B7D0B2D180D0B0D182205600E4
:10194000D092D0BED0B7D0B2D180D0B0D1822C202E
:10195000D0BCD0BC00D09FD0BED0B4D181D0BAD042
:10196000BED0BA2C20D0BCD0BC00D092D182D18FB6
:10197000D0B3D0B8D0B2D0B0D0BDD0B8D0B520564A
:1019800000D092D182D18FD0B3D0B8D0B22E2C203B
:10199000D0BCD0BC00D090D0B2D182D0BED0B2D119
:1019A00082D18FD0B3D0B8D0B22E00D09AD183D00C
:1019B000BBD0B5D18000D0A1D0BED0BFD0BBD0BEEF
:1019C0002C20094300D09ED181D0BDD0BED0B2D052
:1019D000BDD0BED0B520D0BCD0B5D0BDD18E00D04A
:1019E0009CD0B8D0BAD180D0BED188D0B0D0B320EE
:1019F0005A00D09FD0BED182D0BED0BA00D0A1D0E4
:101A0000BAD0BED180D0BED181D182D18C00256820
:101A1000753A2530326875002568756420253032A6
:101A200068753A253032687500202020202020205B
:101A300000000C0F00FE0000000000D1D1000700E4
:101A4000000005070706000050007088F080700055
:101A50000C0F00FE0000000000AFCF0008FE0000E9
:101A60000507070600007888887828488805050556
:101A70000600007008788878050707060000708067
:101A8000F088888870050505060000F088F088F069
:101A9000050505060000F880808080050606060022
:101AA000FF30505050F8880505050600007088F09A
:101AB0008070050505060000A8702070A8050505C2
:101AC00006000070883088700505050600008898BB
:101AD000A8C8880508080600008870008898A8C86B
:101AE0008804050506010090A0C0A0900505050624
:101AF0000000384848488805050506000088D8A831
:101B000088880505050600008888F8888805050589
:101B10000600007088888870050505060000F888B2
:101B20008888880507070600FEF0888888F080808E
:101B3000050505060000708880887005050506000B
:101B400000F8202020200507070600FE88888888E6
:101B50007808700509090600FE202070A8A8A87062
:101B6000202005050506000088502050880507073D
:101B70000600FE90909090F8080805050506000004
:101B80008888780808050505060000A8A8A8A8F810
:101B90000507070600FEA8A8A8A8F8080805050577
:101BA000060000C0407048700505050600008888E2
:101BB000C8A8C80405050601008080E090E004057F
:101BC00005060100E0107010E00505050600009014
:101BD000A8E8A890040505060100709070509000D8
:101BE0000C0F00FE0000000000ABAD00070000007D
:101BF000050707060000888888C8A8A8C804070742
:101C0000060100808080E09090E005070706000054
:101C100070880878088870000C0F00FE0000000033
:101C20000090A8000AFE0000050707060000708863
:101C300088F8888888050707060000F08080F0880B
:101C400088F0050707060000F08888F08888F0050E
:101C50000707060000F8808080808080050808065D
:101C600000FF305050505050F8880507070600001C
:101C7000F88080F08080F8050707060000A8A870AB
:101C80002070A8A80507070600007088087008885B
:101C900070050707060000888898A8C88888050A84
:101CA0000A060000887000888898A8C888880507F8
:101CB000070600008890A0C0A090880507070600CE
:101CC000003848484848488805070706000088D873
:101CD000A888888888050707060000888888F8880B
:101CE000888805070706000070888888888870053E
:101CF0000707060000F8888888888888050707068F
:101D00000000F08888F080808005070706000070DA
:101D1000888080808870050707060000F820202052
:101D2000202020050707060000888888887808702A
:101D30000507070600002070A8A8A870200507075F
:101D4000060000888850205088880509090600FE92
:101D5000909090909090F80808050707060000887A
:101D6000888878080808050707060000A8A8A8A81A
:101D7000A8A8F8080090A85C01171C0800ABAD38B3
:101D800000DF1B0800AFCF90014F1A0800D1D11E11
:101D900000311A1FE02010201020101020102020E9
:101DA00010201030300840048003001FE03FF03F57
:101DB000F03FF01FE01FE03FF03FF03FF00FC007A3
:101DC0008003003FFFF038007030FC3020FC102012
:101DD00078102030102C00D02E31D02F7BD02F7BCC
:101DE000D02E31D02C00D020301020781020FC10C4
:101DF00030FC303800703FFFF03FFFF038007031AA
:101E000086302387102787902F87D02F03D020304C
:101E1000102078102078102030102F03D02F87D07A
:101E20002787902387103186303800703FFFF01FDE
:101E3000FFF81FFFF80410400208200208200410D9
:101E4000400820801041001041000820800410400C
:101E50000000001FFFF81FFFF83300CC00CC120079
:101E60004800481200480048120048004813FFCFBD
:101E7000FFC810000000081FFF83FFF8000FC7E035
:101E800000000FEFE0000003EF80000001EF000012
:101E900000006C00000000000000D090D0BAD18299
:101EA000D0B8D0B22ED0922DD0B8D0BDD181D182B1
:101EB000D180D183D0BC2E00D094D0B2D0B8D0B6CF
:101EC000D0B5D0BDD0B8D0B5004D383400D092D107
:101ED0008BD180D0B0D0B2D0BDD0B8D0B2D0B0D03D
:101EE000BDD0B8D0B520D181D182D0BED0BBD0B0CA
:101EF00000D09FD0B0D180D0BAD0BED0B2D0BAD0AE
:101F0000B02058595A00D0A2D0B5D0BCD0BFD0B55F
:101F1000D180D0B0D182D183D180D0B000414253A2
:101F200000504C4100D092D18BD0BAD0BBD18ED1D1
:101F300087D0B8D182D18C20D0B4D0B2D0B8D0B3B1
:101F4000D0B0D182D0B5D0BBD0B800D09FD0B0D166
:101F500080D0BAD0BED0B2D0BAD0B0205A0047326A
:101F6000385A00D09FD0B0D180D0BAD0BED0B2D035
:101F7000BAD0B02059004732385900D09FD0B0D1E4
:101F800080D0BAD0BED0B2D0BAD0B020580047323C
:101F900038580047323800D09DD0B0D0B3D180D06F
:101FA000B5D0B2202420D181D0BED0BFD0BBD0BE0E
:101FB00000D09DD0B0D0B3D180D0B5D0B2202420F5
:101FC000D181D182D0BED0BB00D09ED185D0BBD034
:101FD000B0D0B6D0B4D0B5D0BDD0B8D0B500D09FB9
:101FE000D180D0B5D0B4D0BDD0B0D0B3D180D0B531
:101FF000D0B2202400D0A1D183D0BCD0B0D180D029
:10200000BDD0BE00211F1D1F0000A0C100000000A8
:102010000000000000009B4300009B430000C843F9
:10202000D09FD0B0D180D0B0D0BCD0B5D182D1803B
:10203000D18B20D181D0BED185D180D0B0D0BDD0C0
:10204000B5D0BDD18B002062797465733B2063727B
:1020500063200053657474696E67732053746F72E4
:102060006564202800454550524F4D2064617461DD
:1020700073697A65206572726F722E0A002073741C
:102080006F7265642073657474696E67732072651E
:1020900074726965766564202800202863616C632A
:1020A000756C6174656429210A0020213D2000457A
:1020B0004550524F4D20435243206D69736D6174FA
:1020C0006368202D202873746F726564292000498D
:1020D0006E6465783A200044494749504F54532074
:1020E0004C6F616465640A0044494749504F54533A
:1020F000204C6F6164696E670A00204D61726C69E3
:102100006E3D563833290A00454550524F4D2076D2
:10211000657273696F6E206D69736D617463682099
:1021200028454550524F4D3D00D092D0BED181D16F
:1021300081D182D0B0D0BDD0BED0B2D0B5D0BDD0CC
:10214000B8D0B520D181D0B1D0BED18F00D09AD037
:10215000BED0BDD184D0B8D0B3D183D180D0B0D1DE
:1021600086D0B8D18F004475616C205A20454E440A
:1021700053544F50004455414C205A204452495624
:10218000455200544954414E2045585452554445F7
:102190005200D091D0B8D0BBD0B8D0BD2E20D0B294
:1021A000D18BD180D0B0D0B2D0BDD0B8D0B22E00BB
:1021B000D0ADD0BAD181D182D180D183D0B4D0B5C5
:1021C000D180D18B007777772E7A6F6E65737461CB
:1021D0007233642E636F6D005A38545F4D33003292
:1021E0003032302D31312D3039006D61726C696EB5
:1021F0002D322E302E380056312E372E3300D0A2FD
:10220000D0B5D180D0BCD0B8D181D182D0BED18060
:10221000D18B00D094D0B0D0BDD0BDD18BD0B52063
:10222000D0BFD0BBD0B0D182D18B00D094D0B0D0B1
:10223000BDD0BDD18BD0B520D0BFD180D0B8D0BD5E
:10224000D182D0B5D180D0B0004D3130303000D007
:102250009ED181D182D0B0D0BDD0BED0B2D0B8D1C5
:1022600082D18C20D0BFD0B5D187D0B0D182D18CD3
:1022700000D09FD180D0BED0B4D0BED0BBD0B6D01D
:10228000B8D182D18C20D0BFD0B5D187D0B0D18287
:10229000D18C00D09DD0B0D0B7D0B0D0B400D0A1F8
:1022A000D182D0BED0BF00D09DD0B5D182205344C2
:1022B00020D0BAD0B0D180D182D18B00D0A1D0BCF7
:1022C000D0B5D0BDD0B8D182D18C20534420D0BA63
:1022D000D0B0D180D182D183004D323100D092D1A3
:1022E0008BD0BAD0BBD18ED187D0B8D182D18C203F
:1022F000D0BFD0B8D182D0B0D0BDD0B8D0B5004D0D
:10230000383100D0A1D0BCD0B5D0BDD0B020D18460
:10231000D0B8D0BBD0B0D0BCD0B5D0BDD182D0B0B9
:1023200000D09E20D0BFD180D0B8D0BDD182D0B552
:10233000D180D0B500D09DD0B0D181D182D180D014
:10234000BED0B8D182D18C00D09FD0B0D183D0B7CD
:10235000D0B020D0BFD0B5D187D0B0D182D0B80016
:10236000D093D0BBD0B0D0B2D0BDD18BD0B920D11A
:102370008DD0BAD180D0B0D0BD00D09DD0B0D187A3
:10238000D0B0D0BBD0BE20D0BFD0B5D187D0B0D1D7
:1023900082D0B800D09FD0B5D187D0B0D182D18CB7
:1023A0000043616E6E6F7420656E74657220737584
:1023B000626469723A2000022E2E00D0A1D0BCD0F7
:1023C000B5D181D0B8D182D0B5D0BBD18C003F007F
:1023D000D09ED182D0BCD0B5D0BDD0B000D0A1D0DD
:1023E000BCD0B5D0BDD0B8D182D18C20D0B3D180F3
:1023F000D0B0D0B4D0B8D0B5D0BDD18200D0922D5D
:10240000D0B8D0BDD181D182D180D183D0BC2ED0E3
:10241000BAD0BED0BD2E00D0922DD0B8D0BDD181C3
:10242000D182D180D183D0BC2ED0BDD0B0D1872E67
:102430000020D09AD0BED0BDD0B5D186205A00257C
:1024400034642E2564206D6D00D09DD0B0D187D02E
:10245000B0D0BBD0BE205A00D0A6D0B8D0BAD0BB26
:10246000D0B8D187D0BDD0BED0B520D181D0BCD01E
:10247000B5D188D0B8D0B2D0B0D0BDD0B8D0B5002A
:10248000D0A1D0BCD0B5D188D0B0D182D18C20D051
:10249000922DD0B8D0BDD181D182D180D183D0BC92
:1024A0002E00D09AD0BED0BCD0BFD0BED0BDD0B54B
:1024B000D0BDD182203D00D0922DD0B8D0BDD181E9
:1024C000D182D180D183D0BC2E20D181D0B1D18016
:1024D000D0BED188D0B5D0BDD18B00D0A1D0B1D1E4
:1024E00080D0BED1810052616E646F6D204D6978DD
:1024F000003A64697361626C65003A20656E6162DE
:102500006C6500D093D180D0B0D0B4D0B8D0B5D065
:10251000BDD18200D0A1D0B1D180D0BED18120D098
:10252000922DD0B8D0BDD181D182D180D183D0BC01
:102530002E00D0A1D0BCD0B5D188D0B8D0B22E005A
:10254000D097D0B0D0B3D180D183D0B7D0B8D1821A
:10255000D18C20D0BDD0B0D181D182D180D0BED09D
:10256000B9D0BAD0B800D0A1D0BED185D180D0B07A
:10257000D0BDD0B8D182D18C20D0BDD0B0D181D146
:1025800082D180D0BED0B9D0BAD0B800D0A1D0BC52
:10259000D0B5D189D0B5D0BDD0B8D0B5205A00D0F3
:1025A00094D180D183D0B3D0B8D0B520D0BDD0B035
:1025B000D181D182D180D0BED0B9D0BAD0B800D02C
:1025C00092D0ABD093D0A0D0A3D097D09AD0902067
:1025D000D0A4D098D09BD090D09CD095D09DD0A2A4
:1025E000D09000D097D090D093D0A0D0A3D097D047
:1025F0009AD09020D0A4D098D09BD090D09CD09549
:10260000D09DD0A2D09000D097D090D09CD095D023
:102610009DD09020D0A4D098D09BD090D09CD09525
:10262000D09DD0A2D09000D09DD0B020D0B1D0B05D
:10263000D0B7D0BED0B2D18BD0B520D0BFD0B0D122
:1026400080D0B0D0BCD0B5D182D180D18B00D09D0C
:10265000D0B0D0B3D180D0B5D0B2202420D0BFD15B
:1026600080D0B0D0B2D0BAD0B000D094D0B0D182A7
:10267000D187D0B8D0BA20D0BED0BAD0BED0BDD1CC
:10268000872ED184D0B8D0BBD0B0D0BC2E00D09291
:10269000D182D18FD0B3D0B8D0B2D0B0D0BDD0B865
:1026A000D0B5004D36303020423020542569004DE1
:1026B00037303120542569004D3730322054256998
:1026C00000D0A3D0B1D180D0B0D182D18C20D18420
:1026D000D0B8D0BBD0B0D0BCD0B5D0BDD182202A2C
:1026E00000D092D18BD0B3D180D183D0B7D0B8D124
:1026F00082D18C20D0B2D181D191004D37303200BF
:10270000D09FD0BED0B4D0B0D182D18C20D184D0D3
:10271000B8D0BBD0B0D0BCD0B5D0BDD182202A00BB
:10272000D0A1D0BCD0B5D0BDD0B020D184D0B8D04D
:10273000BBD0B0D0BCD0B5D0BDD182D0B0202A00A3
:10274000D092D18BD0B4D0B0D0B2D0B8D182D18C0D
:1027500020D0B5D189D19100D092D0BED0B7D0BE13
:10276000D0B1D0BDD0BED0B2D0B8D182D18C20D023
:10277000BFD0B5D187D0B0D182D18C00D09ED09FB0
:10278000D0A6D098D09820D09FD0A0D09ED094D062
:102790009ED09BD096D095D09DD098D0AF3A00D007
:1027A0009FD095D0A7D090D0A2D0AC20D09DD09073
:1027B00020D09FD090D0A3D097D095002020D0A13A
:1027C000D0BED0BFD0BBD0B03A2000D09AD0BED0BF
:1027D000BDD182D1802ED183D182D0B5D187D0BA5C
:1027E000D0B820D0A23AD092D18BD0BAD0BB003191
:1027F0003330004245443A203130306B20776974E1
:102800006820342E376B2070756C6C2D757000D07D
:102810009AD0BED0BDD182D1802ED183D182D0B505
:10282000D187D0BAD0B820D0A23AD092D0BAD0BBFB
:1028300000D09CD0B0D0BAD1812E200800323735DC
:1028400000D09CD0B8D0BD2E2020080045313A20C1
:102850003130306B207769746820342E376B2070EC
:10286000756C6C2D757000D091D09F0047656E65BA
:1028700072696300D09FD180D0BED182D0BED0BA61
:10288000D0BED0BB00312E3000D0A1D0BAD0BED146
:1028900080D0BED181D182D18C2CD091D09ED094C9
:1028A000003131353230300068747470733A2F2F34
:1028B0007777772E616C69657870726573732E63B4
:1028C0006F6D2F6974656D2F33323936353430367C
:1028D0003339362E68746D6C005A4F4E455354414F
:1028E00052205A5249425F563600D09FD0B0D18014
:1028F000D0BAD0BED0B2D0BAD0B02E2E2E000000AA
:10290000D09ED0B6D0B8D0B4D0B0D0B9D182D0B5E6
:1029100020D0BDD0B0D187D0B0D0BBD0B000D18155
:10292000D0BCD0B5D0BDD18B20D184D0B8D0BBD055
:10293000B0D0BCD0B5D0BDD182D0B00000D09ED038
:10294000B6D0B8D0B4D0B0D0B9D182D0B500D0B262
:10295000D18BD0B3D180D183D0B7D0BAD0B800D189
:1029600084D0B8D0BBD0B0D0BCD0B5D0BDD182D08F
:10297000B000D09DD0B0D0B3D180D0B5D0B220D1EE
:1029800081D0BED0BFD0BBD0B000D096D0B4D0B82C
:10299000D182D0B52E2E2E0000D09DD0B0D0B6D092
:1029A000BCD0B8D182D0B520D0BAD0BDD0BED0BFB7
:1029B000D0BAD18300D0B4D0BBD18F20D0BDD0B09D
:1029C000D0B3D180D0B5D0B2D0B000D181D0BED0FC
:1029D000BFD0BBD0B02E2E2E00D092D181D182D0CC
:1029E000B0D0B2D18CD182D0B520D184D0B8D0BBF8
:1029F000D0B0D0BCD0B5D0BDD18200D0B820D0BD31
:102A0000D0B0D0B6D0BCD0B8D182D0B520D0BAD05A
:102A1000BDD0BED0BFD0BAD18300D0B4D0BBD18F8F
:102A200020D0BFD180D0BED0B4D0BED0BBD0B6D025
:102A3000B5D0BDD0B8D18F00D09ED0B6D0B8D0B46C
:102A4000D0B0D0B9D182D0B500D0B7D0B0D0B3D14A
:102A500080D183D0B7D0BAD0B800D184D0B8D0BBA1
:102A6000D0B0D0BCD0B5D0BDD182D0B000D09DD038
:102A7000B0D0B6D0BCD0B8D182D0B520D0BAD0BDFD
:102A8000D0BED0BFD0BAD18300D0B4D0BBD18F20BC
:102A9000D0BFD180D0BED0B4D0BED0BBD0B6D0B520
:102AA000D0BDD0B8D18F00D0BFD0B5D187D0B0D1F4
:102AB00082D0B800D09ED0B6D0B8D0B4D0B0D0B903
:102AC000D182D0B500D0B2D0BED0B7D0BED0B1D0B8
:102AD000BDD0BED0B2D0BBD0B5D0BDD0B8D18F00A4
:102AE000D0BFD0B5D187D0B0D182D0B800D09ED0E1
:102AF000B6D0B8D0B4D0B0D0B9D182D0B500D18DD5
:102B0000D0BAD181D182D180D183D0B7D0B8D0B85A
:102B100000D184D0B8D0BBD0B0D0BCD0B5D0BDD15E
:102B200082D0B000D09FD0B5D187D0B0D182D18C27
:102B300020D0BED182D0BCD0B5D0BDD0B5D0BDD014
:102B4000B0004D323520500A4D323400506175735B
:102B5000696E672E2E2E006F70656E0054524947C5
:102B600047455245440066696C616D656E74007A34
:102B70005F70726F6265007A325F6D696E007A5FB6
:102B80006D696E00795F6D696E00785F6D696E00CA
:102B90005265706F7274696E6720656E6473746FCE
:102BA00070207374617475730A007C3C3E5E2B3D2B
:102BB0003F2F5B5D3B2C2A225C00020000000000DE
:102BC0000000000000000000000000000000000005
:102BD00000000000000000000000000000000000F5
:102BE000000000000000000000000007FFC3FF8796
:102BF0000187FF0FFCFFFC1E01FF8007FFC3FF875B
:102C0000018FFF1FFCFFFC1E03FFC00000C600C7B2
:102C1000018C0018000300618300C00001C600C7DA
:102C2000C18C0018000300618300C000038600C649
:102C3000C18C0018000301806300C000070600C6B5
:102C4000618C0018000301806300C0000E0600C6FE
:102C5000618C0018000301806300C0001C0600C6E0
:102C6000318FFE1FF803018063FFC000380600C6E5
:102C7000318FFE0FFC03018063FF8000700600C6E9
:102C8000198C00000C0301FFE30C0000E00600C6F5
:102C9000198C00000C0301FFE3070001C00600C609
:102CA0000D8C00000C03018063018003800600C6C8
:102CB0000D8C00000C03018063018007000600C634
:102CC000078C00000C03018063018006000600C62B
:102CD000078C00000C03018063018007FFC3FF869F
:102CE000038FFF1FFC03018063018007FFC3FF8682
:102CF0000387FF1FF80301806301800000000000CC
:102D000000000000000000000000000000000000C3
:102D100000000000000000000000000000000000B3
:102D200000000000000000000000000000000000A3
:102D30000000000000000000000000F0004A011048
:102D4000013B0130012C014001270150012201709B
:102D5000011D0190011801B0011301C0010E01F025
:102D6000010901100204013002FF006002FA009024
:102D700002F500C002F0000003EB004003E6008013
:102D800003E100D003DC002004D700E004D200C03F
:102D900005CD004006C800D006C3008007BE00F085
:102DA00008B9004009B400C009AF00B00AAA00B0D9
:102DB0000BA500D00CA000000E9B00C01096005088
:102DC00012910000148C00C0158700B0178200B06B
:102DD000197D00D01B7800001E730040206E00900B
:102DE000226900F024640040275F0090295A00E027
:102DF0002B5500102E500020304B0010324600E0C2
:102E000033410090353C001037370070383200A055
:102E1000392D00B03A2800A03B2300603C1E001072
:102E20003D1900903D1400103E0F00703E0A00C096
:102E30003E0500003F0000403FFBFF803FF6FFC023
:102E40003FF1FF2020506C616E6E657242756666C0
:102E5000657242797465733A200020467265652078
:102E60004D656D6F72793A2000436F6D70696C65C6
:102E7000643A204E6F7620203920323032300A00FA
:102E8000204C61737420557064617465643A20321B
:102E90003032302D31312D3039207C20417574682D
:102EA0006F723A20285A4F4E45535441522C2048B5
:102EB000616C6C79290A006D61726C696E2D322E1D
:102EC000302E380A004D61726C696E0020536F66B7
:102ED00074776172652052657365740A00205761CA
:102EE000746368646F672052657365740A002042DA
:102EF000726F776E206F75742052657365740A0067
:102F00002045787465726E616C2052657365740A31
:102F100000506F77657255700A006175746F256394
:102F20002E67004732385859004D31303031006536
:102F300072726F722077726974696E6720746F2085
:102F400066696C650A00446F6E6520736176696E10
:102F5000672066696C652E0A004D323900D0ADD00D
:102F6000BDD0B4D181D182D0BED0BFD18B0025538A
:102F70002025632025632025632025630020503A07
:102F800000656E6473746F7073206869743A200012
:102F9000D0A1D182D0BED0BB2C2020094300204339
:102FA0006F756E7420583A00453100626564002CDC
:102FB0002073797374656D2073746F70706564210C
:102FC000204865617465725F49443A2000D0A3D0FF
:102FD000A2D095D0A7D09AD09020D0A2D095D09F43
:102FE000D09BD09000546865726D616C2052756EF4
:102FF0006177617900D0A0D0B0D0B7D0BED0B3D1C6
:1030000080D0B5D0B220D0BDD0B520D183D0B4D03F
:10301000B0D0BBD181D18F0048656174696E6720E3
:103020006661696C656400202D20496E76616C696B
:1030300064206578747275646572206E756D626562
:103040007220210A00D09ED188D0B8D0B1D0BAD099
:10305000B03A20D0A220D0BCD0B0D0BAD1812E00BE
:103060004D415854454D50207472696767657265CB
:103070006400D09ED188D0B8D0B1D0BAD0B03A20B8
:10308000D0A220D0BCD0B8D0BD2E004D494E544562
:103090004D502074726967676572656400202F0067
:1030A0002042403A0020403A00001000AA0380006D
:1030B000400100012C01B001220140021001F00288
:1030C00002018003F8004004F500E004ED009005E3
:1030D000E4003006DD00E006D7008007D1003008AC
:1030E000CC00D008C7007009C300100ABE00B00AA7
:1030F000BB00500BB700900CB300D00DAA00B00F6E
:10310000A5005010A0001014960090169000101901
:103110008C00501A8500301C820070227800B02389
:10312000750040256E0020276900A0296400502A00
:103130005F00902B5A00D02C5500702D4F00E02ED0
:1031400048005031450030334100D03539006036F9
:10315000370010373300F0382D00A0392700803CAD
:103160001C00403D1700F03D1100703E0A00C03EBB
:103170000500003F0000403FFBFF803FF6FFC03FDF
:10318000F1FFD09AD0B0D0BCD0B5D180D0B02C094E
:103190004300D094D0BE20D0BAD0BED0BDD186D00E
:1031A000B02C20D0BCD0BC00D092D18BD0B3D18079
:1031B000D183D0B7D0BAD0B02C20D0BCD0BC00D0F6
:1031C00097D0B0D0B3D180D183D0B7D0BAD0B02C03
:1031D00020D0BCD0BC00D094D0B8D0B0D0BC2E2071
:1031E000D184D0B8D0BBD0B0D0BC2E004520D0B256
:1031F00020D0BCD0BCC2B30000004842000048420E
:10320000000080400202040000A0400000A0400036
:103210000000400000A54300009B430000C843FF9E
:10322000FFFF5761726E696E673A20486F6D696E75
:10323000672042756D702044697669736F72203C17
:1032400020310A00206C696D6974656420746F20F8
:1032500000204D617820004A65726B004361703A2E
:10326000003F5A206F7574206F662072616E67652B
:103270002028003F59206F7574206F662072616EA0
:10328000676520282D003F58206F7574206F6620D9
:1032900072616E676520282D0050726F6265204F45
:1032A0006666736574205800656E7175657565692D
:1032B0006E672022006F6B00526573656E643A2062
:1032C00000D09ED185D0BBD0B0D0B6D0B4D0B5D0D0
:1032D000BDD0B8D0B520D181D182D0BED0BBD0B0C6
:1032E0002E2E2E00D09DD0B0D0B3D180D0B5D0B28C
:1032F00020D181D182D0BED0BBD0B02E2E2E0023C3
:10330000646566696E652044454641554C545F00CE
:103310004B6420004B6920004B7020005049442032
:103320004175746F74756E652066696E6973686542
:1033300064212050757420746865206C617374205A
:103340004B702C204B6920616E64204B6420636FAE
:103350006E7374616E74732066726F6D2062656C3B
:103360006F7720696E746F20436F6E666967757240
:103370006174696F6E2E680A00504944204175746B
:103380006F74756E65206661696C6564212074696F
:103390006D656F75740A000A20436C61737369630D
:1033A00020504944200A00204B643A2000204B69F9
:1033B0003A2000204B703A20002054753A2000201B
:1033C0004B753A2000206D61783A2000206D696EBF
:1033D0003A200020643A200020626961733A20009C
:1033E000504944204175746F74756E652073746123
:1033F00072740A00504944204175746F74756E658B
:10340000206661696C6564212054656D7065726128
:103410007475726520746F6F20686967680A00D0E0
:1034200090D0B2D182D0BED0BFD0BED0B4D0B1D0B7
:10343000BED1802050494400504944204175746FEA
:1034400074756E65206661696C65642120426164F3
:10345000206578747275646572206E756D62657230
:103460000A0020746F6F206C6F6E6720657874722D
:103470007573696F6E2070726576656E7465640A27
:10348000004D3330332055312045256920532569BF
:1034900000D090D0B2D182D0BED0BFD0BED0B4D0F8
:1034A000B1D0BED18020504944202A005049442D3B
:1034B00044202A005049442D49202A005049442DD7
:1034C00050202A00D09FD0B5D180D0B5D0BCD0B587
:1034D000D189D0B5D0BDD0B8D0B520D0BCD0B8D06F
:1034E000BD00D0A1D0BAD0BED1802ED0BCD0B8D033
:1034F000BD00D0A1D0BAD0BED1802ED0BCD0B0D02B
:10350000BAD181204500D0A1D0BAD0BED1802ED072
:10351000BCD0B0D0BAD181205A00D0A1D0BAD0BE90
:10352000D1802ED0BCD0B0D0BAD181205900D0A14A
:10353000D0BAD0BED1802ED0BCD0B0D0BAD18120EC
:103540005800D0A3D181D0BAD0BED1802ED0BCD06B
:10355000B0D0BAD181204500D0A3D181D0BAD0BE9D
:10356000D1802ED0BCD0B0D0BAD181205A00D0A307
:10357000D181D0BAD0BED1802ED0BCD0B0D0BAD1FB
:1035800081205900D0A3D181D0BAD0BED1802ED015
:10359000BCD0B0D0BAD181205800D0A3D181D0BA4C
:1035A000D0BED1802ED0BFD183D182D0B5D1882ECC
:1035B00000D0A3D181D0BAD0BED1802ED0B2D182DA
:1035C000D18FD0B3D0B8D0B22E00D0A3D181D0BA91
:1035D000D0BED180D0B5D0BDD0B8D0B50024F4D401
:1035E0003050C38E20C2A24017828B7011127A9184
:1035F0000D816CD90AA861E108C75866076151437B
:10360000061E4B5D05C145A7041A411104093D98EA
:1036100003713931034036DB0265339102D43054F3
:1036200002802E1D02632CEE01752AC501B028A070
:1036300001102781018F2564012B244B01E02234E6
:1036400001AC211F018D200D01801FFC00841EEDA7
:1036500000971DDF00B81CD200E61BC600201BBC73
:1036600000641AB200B219A8000A19A0006A1899D9
:1036700000D117910040178B00B516840031167EDB
:1036800000B31579003A157300C7146F0058146A17
:1036900000EE1366008813630025135E00C7125BFB
:1036A000006C12570015125400C111510070114FD7
:1036B0000021114B00D61049008D104700461044E0
:1036C0000002104200C00F4000800F3E00420F3C3D
:1036D00000060F3B00CB0E3800930E37005C0E3512
:1036E00000270E3400F30D3200C10D3100900D3073
:1036F00000600D2E00320D2D00050D2C00D90C2B75
:1037000000AE0C2900850C29005C0C2700350C2725
:10371000000E0C2600E80B2400C40B2400A00B2391
:10372000007D0B23005A0B2100390B2100180B20C0
:1037300000F80A1F00D90A1E00BB0A1E009D0A1DC0
:1037400000800A1D00630A1C00470A1B002C0A1B8C
:1037500000110A1A00F7091A00DD091900C4091935
:1037600000AB091900920917007B091800630917BB
:10377000004C09160036091600200916000A091522
:1037800000F5081500E0081400CC081400B808146F
:1037900000A4081400900813007D0812006B0813A1
:1037A00000580812004608120034081100230811BE
:1037B000001208110001081100F0071000E00710C6
:1037C00000D0071000C0071000B0070F00A10710BD
:1037D0000091070E0083070F0074070F0065070EA6
:1037E0000057070E0049070E003B070D002E070E7D
:1037F0000020070D0013070D0006070D00F9060C49
:1038000000ED060D00E0060C00D4060C00C8060C06
:1038100000BC060C00B0060C00A4060B0099060CB8
:10382000008D060B0082060B0077060B006C060B62
:103830000061060A0057060B004C060A0042060A01
:103840000038060A002E060A0024060A001A060A94
:10385000001006090007060A00FD050900F4050925
:1038600000EB050900E2050900D9050900D00509AA
:1038700000C7050900BE050900B5050800AD05082B
:1038800000A50509009C050800940508008C0508A2
:1038900000840508007C050800740508006C050715
:1038A00000650508005D050700560508004E050780
:1038B00000470507004005080038050700310507E7
:1038C000002A050700230507001C0506001605074A
:1038D000000F0507000805060002050700FB0406A7
:1038E00000F5040700EE040600E8040600E2040701
:1038F00000DB040600D5040600CF040600C9040658
:1039000000C3040600BD040600B7040600B10405A8
:1039100000AC040600A6040600A00405009B0406F3
:103920000095040500900406008A0405008504053E
:1039300000800406007A0405007504050070040583
:10394000006B04050066040500610405005C0405C5
:103950000057040500520405004D04050048040505
:1039600000430405003E0404003A04050035040544
:1039700000300404002C040500270404002304057F
:10398000001E0404001A04040016040500110404B7
:10399000000D0404000904050004040400000404EC
:1039A00000FC030400F8030400F4030400F0030423
:1039B00000EC030400E8030400E4030400E0030453
:1039C00000DC030400D8030400D4030400D0030483
:1039D00000CC030400C8030300C503030024F4045F
:1039E000D9201BC40C5C0E9804C4095F02650771E2
:1039F00001F405F900FB04B30048048700C1036922
:103A0000005803550003034500BE023A008402310A
:103A10000053022A002902250004022000E4011CB0
:103A200000C8011900AF01170098011400840113A8
:103A300000710110006101100051010E0043010DE1
:103A40000036010B002B010B0020010B00150109B2
:103A5000000C01090003010800FB000800F3000846
:103A600000EB000700E4000600DE000600D80006B8
:103A700000D2000600CC000500C7000500C200050A
:103A800000BD000400B9000400B5000400B100044A
:103A900000AD000400A9000400A5000300A200037B
:103AA000009F0004009B00030098000300950002A3
:103AB0000093000300900003008D0002008B0003C0
:103AC00000880002008600020084000300810002DA
:103AD000007F0002007D0002007B000200790002EE
:103AE00000770001007600020074000200720001FD
:103AF00000710002006F0002006D0001006C000206
:103B0000006A000100690002006700010066000110
:103B10000065000100640002006200010061000114
:103B200000600001005F0002005D0001005C000118
:103B3000005B0001005A000100590001005800011B
:103B4000005700010056000100550001005400011B
:103B50000053000000530001005200010051000119
:103B600000500001004F0001004E0000004E000117
:103B7000004D0001004C0001004B0000004B000113
:103B8000004A00010049000100480000004800010F
:103B9000004700010046000000460001004500000B
:103BA0000045000100440001004300000043000103
:103BB00000420000004200010041000000410001FD
:103BC00000400001003F0000003F0001003E0000F7
:103BD000003E0001003D0000003D0001003C0000EF
:103BE000003C0000003C0001003B0000003B0001E5
:103BF000003A0000003A00010039000000390001DD
:103C000000380000003800000038000100370000D4
:103C100000370001003600000036000000360001C9
:103C200000350000003500000035000100340000C0
:103C300000340000003400010033000000330000B5
:103C400000330001003200000032000000320001A9
:103C500000310000003100000031000100300000A0
:103C60000030000000300001002F0000002F000095
:103C7000002F0000002F0001002E0000002E000089
:103C8000002E0001002D0000002D0000002D00007E
:103C9000002D0001002C0000002C0000002C000072
:103CA000002C0001002B0000002B0000002B000066
:103CB000002B0001002A0000002A0000002A00005A
:103CC000002A00010029000000290000002900004E
:103CD0000029000000290001002800000028000041
:103CE0000028000000280000002800010027000034
:103CF0000027000000270000002700000027000127
:103D0000002600000026000000260000002600001B
:103D1000002600010025000000250000002500000D
:103D200000250000002500000025000100240000FF
:103D300000240000002400000024000000240001F2
:103D400000230000002300000023000000230000E7
:103D500000230000002300000023000100220000D7
:103D600000220000002200000022000000220000CB
:103D700000220001002100000021000000210000BD
:103D800000210000002100000021000000210001AE
:103D900000200000002000000020000000200000A3
:103DA0000020000000200000002000000020000192
:103DB000001F0000001F0000001F0000001F000087
:103DC000001F0000001F0000001F0001001E000077
:103DD000001E0000001E0000001E000000A42C00B9
:103DE00000841E0000B0120000870A00009E05003B
:103DF00000E90200007B010000BF000000D0A1D05C
:103E0000B4D0B5D0BBD0B0D0B9D182D0B520D1819B
:103E1000D0B1D180D0BED18100D09FD0A0D098D0D9
:103E20009DD0A2D095D0A020D09ED0A1D0A2D090DD
:103E3000D09DD09ED092D09BD095D09D0025533A56
:103E400020255300D0A3D091D098D0A2D09E2E2070
:103E5000005072696E7465722068616C7465642EBE
:103E6000206B696C6C28292063616C6C6564210A85
:103E7000006563686F3A004572726F723A0042697A
:103E80006C696E656172204C6576656C696E672041
:103E9000477269643A0A002053697A653A20004300
:103EA000616E6E6F74206F70656E207375626469E9
:103EB000722000534420496E6974204661696C0089
:103EC00053442063617264206F6B0A006F70656EEB
:103ED000526F6F74206661696C65640A00766F6C5E
:103EE000756D652E696E6974206661696C65640A1A
:103EF000004E6F20534420636172640A004D3233D8
:103F00002025730046696C652073656C6563746574
:103F1000640A0046696C65206F70656E65643A20BE
:103F200000454E4420535542524F5554494E450A80
:103F3000002220706F73002220706172656E743AE7
:103F40002200535542524F5554494E452043414C4F
:103F50004C207461726765743A2200D09FD0B5D14D
:103F600080D0B5D0BFD0BED0BBD0BD2E20D0B2D176
:103F70008BD0B7D0BED0B2D0B00045786365656451
:103F80006564206D617820535542524F5554494E17
:103F9000452064657074683A310A0044656C657444
:103FA000696F6E206661696C65642C2046696C657A
:103FB0003A200046696C652064656C657465643AF6
:103FC000006F70656E206661696C65642C204669BF
:103FD0006C653A200057726974696E6720746F20AF
:103FE00066696C653A2000667265736800646F6983
:103FF0006E67004E6F772000252900257C00203B4E
:104000002043757272656E74205A00203B20456E05
:104010006400203B205374617274004772616469CC
:10402000656E74204D6978200052616E646F6D205A
:104030004D697820004D32342053256C642054257E
:104040006C64004739322E392045257300473120F2
:10405000462564004739322E39205A2573004731EE
:10406000205A302046323030004731205825732006
:1040700059257320463330303000473120452564C0
:104080002046323030004D313036205025692053E3
:104090002569004D31303920532569004D313930C3
:1040A00020532569004D32303020442573004732BB
:1040B0003852305859004739322E39204530205A6D
:1040C000300A47315A2573004D34323020533020A6
:1040D0005A300020496E76616C696420657874728C
:1040E00075646572200020496E76616C69642045B4
:1040F00020737465707065722000204520737465AC
:1041000070706572206E6F74207370656369666984
:1041100065640A0056652DD180D18BD0B2D0BED057
:10412000BA00565A2DD180D18BD0B2D0BED0BA00B1
:1041300056592DD180D18BD0B2D0BED0BA005658AE
:104140002DD180D18BD0B2D0BED0BA00D0A1D0BCFE
:10415000D0B5D189D0B5D0BDD0B8D0B5205900D018
:10416000A1D0BCD0B5D189D0B5D0BDD0B8D0B52004
:1041700058004520D188D0B0D0B32FD0BCD0BC00DF
:104180005A20D188D0B0D0B32FD0BCD0BC00592099
:10419000D188D0B0D0B32FD0BCD0BC005820D188AB
:1041A000D0B0D0B32FD0BCD0BC00D098D0BDD0B848
:1041B000D1862DD18F004D34323800D098D0BDD06B
:1041C000B8D186D0B8D0B0D0BBD0B8D0B72E2045AB
:1041D0004550524F4D00D0A4D0B8D0BBD0B0D0BCC9
:1041E000D0B5D0BDD18200D0A8D0B0D0B3D0BED091
:1041F000B22FD0BCD0BC00D0A1D0BCD0B5D189D01A
:10420000B5D0BDD0B8D18F205A2DD0B7D0BED0BD3B
:10421000D0B4D0B000D0A0D18BD0B2D0BED0BA0034
:10422000D0A3D181D0BAD0BED180D0B5D0BDD0B8C6
:10423000D0B52C20D0BCD0BC2FD1813200D0A1D0A1
:10424000BAD0BED180D0BED181D182D18C2C20D029
:10425000BCD0BC2FD18100D0A3D181D182D0B0D02D
:10426000BDD0BED0B22ED181D0BCD0B5D1892ED098
:10427000B4D0BED0BCD0B0005072657373206275EC
:1042800074746F6E20746F20726573756D650A00AB
:10429000507265737320627574746F6E20746F2032
:1042A00068656174206E6F7A7A6C650A004F4646C5
:1042B0000A004661646520486569676874200042A9
:1042C0006564204C6576656C696E6720004661699F
:1042D0006C656420746F20656E61626C6520426558
:1042E00064204C6576656C696E670A00496E76617C
:1042F0006C6964206D6573682E0A00D0A2D0BED1AF
:1043000087D0BAD0B020D181D0B5D182D0BAD0B8C0
:104310000025532025692F25690050726F62696E50
:1043200067206D65736820706F696E7420004F663A
:104330006673657420636174636865642021006638
:1043400061696C2C206D616E75616C206C657665A1
:104350006C004661696C21204D6F766520646F7733
:104360006E2050726F62652E00546F20636174631B
:1043700068206F6666736574002028445259525550
:104380004E2900473239204175746F204265642000
:104390004C6576656C696E67003F20284C2C522C6A
:1043A000462C4229206F7574206F6620626F756EEF
:1043B00064732E0A003F2856296572626F73652068
:1043C0006C6576656C20696D706C61757369626C83
:1043D000652028302D34292E0A00426164205A209D
:1043E00076616C75650A004E6F2062696C696E6556
:1043F000617220677269640A00204D3932205800CA
:1044000020204D61783A200020204D696E3A20002E
:10441000536F667420656E6473746F70733A200016
:10442000205A3A200020593A200042656420583A28
:104430002000D09FD0B5D187D0B0D182D18C20D0F0
:10444000BDD0B020D0BFD0B0D183D0B7D0B5005050
:10445000726F62696E67204661696C65640A00D09C
:104460009ED188D0B8D0B1D0BAD0B020D0B7D0BE0D
:10447000D0BDD0B4D0B8D180D0BED0B2D0B0D0BD35
:10448000D0B8D18F00D0A1D0BDD0B0D187D0B0D01E
:10449000BBD0B020D0BFD0B0D180D0BAD183D0B9FA
:1044A0002025732573257300496E73657274206629
:1044B000696C616D656E7420616E642070726573E5
:1044C0007320627574746F6E0A0020573A005A3870
:1044D000545F4D3320D093D0BED182D0BED0B22E07
:1044E00000D09FD0B5D187D0B0D182D18C2E2E2EC6
:1044F00000220A00556E6B6E6F776E20636F6D6DD4
:10450000616E643A202200D09FD0B5D187D0B0D15F
:1045100082D18C20D18120534420D0BAD0B0D18018
:10452000D182D18B00D094D0B2D0B8D0B6D0B5D093
:10453000BDD0B8D0B5202573D0BCD0BC00D094D0AD
:10454000B2D0B8D0B6D0B5D0BDD0B8D0B520302E0E
:1045500031D0BCD0BC00D094D0B2D0B8D0B6D0B599
:10456000D0BDD0B8D0B52031D0BCD0BC00D094D014
:10457000B2D0B8D0B6D0B5D0BDD0B8D0B5203130DB
:10458000D0BCD0BC00D094D0B2D0B8D0B6D0B5D0CA
:10459000BDD0B8D0B520D0BFD0BE20D0BED181D143
:1045A0008FD0BC00D0ADD0BAD181D182D180D1839F
:1045B000D0B4D0B5D18000D094D0B2D0B8D0B6D0DD
:1045C000B5D0BDD0B8D0B520D0BFD0BE205A00D015
:1045D00094D0B2D0B8D0B6D0B5D0BDD0B8D0B52078
:1045E000D0BFD0BE205900D094D0B2D0B8D0B6D071
:1045F000B5D0BDD0B8D0B520D0BFD0BE20580000B7
:10460000000A0B02090C0D0E08070304010000004C
:10461000000000000000000000000000000000009A
:104620000000000000000000000000121110000057
:10463000000000000000000000000000000000007A
:10464000000000000000002200250028002B002EA2
:10465000003100340002010000050108010B0100D7
:10466000002100240027002A002D00300033000123
:10467000010000040107010A0105050505070508F9
:10468000080808020202020A0A08080404040401D5
:1046900001010101010101030303030303030304F7
:1046A0000707070C0C0C0C0C0C0C0C020202020687
:1046B000060606060606060B0B0B0B0B0B0B0B0177
:1046C0000210202008081020401020408002010223
:1046D00001080402010102040810204080804020EB
:1046E0001008040201800402018040201008040226
:1046F00001080402010102040810204080010204A4
:10470000081020408020453A00205A3A0020593AAB
:1047100000205200454550524F4D20496E69746942
:10472000616C697A65640A0048617264636F6465EC
:10473000642044656661756C742053657474696E99
:104740006773204C6F616465640A003B2000202081
:104750004D363033200020204D3431322053004676
:10476000696C616D656E742072756E6F75742073FF
:10477000656E736F723A0020550046696C616D6515
:104780006E74206C6F61642F756E6C6F6164206C49
:10479000656E677468733A0020204D3835312058B3
:1047A000005A2D50726F6265204F66667365740003
:1047B00020204D3230392053004175746F2D5265E1
:1047C00074726163743A20533D3020746F206469C1
:1047D0007361626C652C203120746F20696E746582
:1047E000727072657420452D6F6E6C79206D6F76D6
:1047F000657320617320726574726163742F7265D2
:10480000636F7665720020204D323038205300529D
:1048100065636F7665723A20533C6C656E677468A9
:104820003E20463C756E6974732F6D3E0020570024
:1048300020204D323037205300526574726163740A
:104840003A20533C6C656E6774683E20463C756E3A
:104850006974732F6D3E205A3C6C6966743E00206B
:10486000204D343133205300506F7765722D4C6FDB
:104870007373205265636F766572793A0020204D1C
:104880003330312050005049442073657474696E90
:1048900067733A0020460020480020204D3134350F
:1048A0002053004D6174657269616C2068656174A4
:1048B000757020706172616D65746572733A002065
:1048C000204D36363600456E6473746F7020616417
:1048D0006A7573746D656E743A00204A0020204733
:1048E0003239205720490020204D343230205300E7
:1048F0004175746F20426564204C6576656C696E05
:10490000673A0020204D323036205800486F6D65E0
:10491000206F66667365743A0020204D3230352072
:104920004200416476616E6365643A20423C6D6981
:104930006E5F7365676D656E745F74696D655F75D5
:10494000733E20533C6D696E5F6665656472617489
:10495000653E20543C6D696E5F74726176656C5F74
:1049600066656564726174653E20583C6D61785F70
:10497000785F6A65726B3E20593C6D61785F795F44
:104980006A65726B3E205A3C6D61785F7A5F6A653A
:10499000726B3E20453C6D61785F655F6A65726B46
:1049A0003E0020540020204D32303420500041631E
:1049B00063656C65726174696F6E2028756E6974C9
:1049C000732F7332293A20503C7072696E745F61A4
:1049D0006363656C3E20523C726574726163745F00
:1049E000616363656C3E20543C74726176656C5FF4
:1049F000616363656C3E0020204D323031205800E9
:104A00004D6178696D756D20416363656C65726198
:104A100074696F6E2028756E6974732F7332293A2A
:104A20000020204D3230332058004D6178696D757B
:104A30006D206665656472617465732028756E69A2
:104A400074732F73293A0053746570732070657204
:104A500020756E69743A0020440020204D323030B9
:104A60002053002044697361626C65640A004669E2
:104A70006C616D656E742073657474696E67733AEA
:104A80000020204D3134392043203B20556E69747D
:104A90007320696E2043656C736975730A00202862
:104AA0006D6D29002020473231202020203B2055E9
:104AB0006E69747320696E206D6D000000FA43000A
:104AC00000FA430000A0400000C8420000A04200DD
:104AD00000A0420000C8430000C843B80B0000B863
:104AE0000B0000640000001027000000C5014F010A
:104AF00011241FBECFEFD1E2DEBFCDBF00E00CBF5F
:104B000013E0A0E0B2E0ECE2F2EB02E00BBF02C087
:104B100007900D92AE34B107D9F726E1AEE4B3E0C9
:104B200001C01D92AC3FB207E1F715E2C7E7D5E23D
:104B300000E006C021970109802FFE010F946C56FA
:104B4000C637D10780E00807A9F70F94FD400D9400
:104B500004590C9400002F923F924F925F926F92F3
:104B60007F928F929F92AF92BF92CF92DF92EF92FD
:104B7000FF920F931F93CF93DF93CDB7DEB7A79725
:104B80000FB6F894DEBF0FBECDBF8FA32091300FBC
:104B90002EA321E02093300F809143078D3409F438
:104BA000D0C3843511F40C944137873411F00C9440
:104BB0006C3780914107909142078B31910509F440
:104BC00063C1F4F488309105D1F14CF497FDB5C37D
:104BD00082309105A4F1049709F412C1AEC38B3061
:104BE000910509F44CC18531910511F40C946E378F
:104BF0000A9709F0A2C381E00E944AF30C946E3731
:104C00008A32910509F4B9C254F48D31910509F441
:104C100065C10CF453C14E9709F47EC18EC38B3528
:104C2000910509F4F4C18C35910509F4F5C18A3573
:104C3000910509F082C31092600F0C946E37809139
:104C40007606813011F00C946E3719821A821B821D
:104C50001C82CE0101965C012AE0E22E27E0F22EB2
:104C600004E712E033E9C32E32E1D32E912C88E51C
:104C7000890D0F944615F50181935F01882311F189
:104C80000F94EB122B013C01892D0F94ED03882327
:104C900051F0F8012081318142815381C301B20179
:104CA0000F94755609C0F6012081318142815381EC
:104CB000C301B2010F947456F7016083718382833C
:104CC00093830AC0F80180819181A281B381F701A9
:104CD00080839183A283B3839394F4E0EF0EF11C5D
:104CE0000C5F1F4F24E0C20ED11C33E09312BFCFE4
:104CF00085E40F9446158C83882301F10F94EB1201
:104D00006B017C0183E00F94ED03882371F0209107
:104D10008002309181024091820250918302C7014A
:104D2000B6010F9475566B017C01C0921607D092A4
:104D30001707E0921807F092190710C080918002BF
:104D400090918102A0918202B09183028093160714
:104D500090931707A0931807B093190780916116D5
:104D6000882381F08091671382FF0CC08C81882397
:104D700049F08981811103C08A81882319F080E07C
:104D80000F94972440E050E0BA0186E40E94BBC330
:104D900020E030E0A9010F94F857181684F40F941E
:104DA000EB1220E030E040E752E40F94F8566093B5
:104DB0006702709368028093690290936A028091FF
:104DC0004016882311F40C94A93785E40F9422131C
:104DD000882311F40C94A93788E50F9422138111CC
:104DE0000C94A93789E50F94221381110C94A937EB
:104DF0008AE50F94221381110C94A9370C9477370C
:104E000080E50F944615882329F00F949B1C6B01B5
:104E10007C0103C0C12CD12C760183E50F9446158B
:104E2000882361F00F94EB1220E030E04AE754E46D
:104E30000F94D74F0F9471576B017C010E9470B78C
:104E400080912004811105C060E089ED96E00E9408
:104E5000B8930F94D02EC60ED71EE81EF91E0F94DD
:104E6000D02EDC01CB018C199D09AE09BF09B7FD1D
:104E700002C00C946E3780E00E94983CF0CF80E036
:104E80000E944AF30C946E370F94932881110C946E
:104E90006E378CE0ECE9F2E0DE01119601900D92A4
:104EA0008A95E1F760E070E080E50F94850ABE0125
:104EB0006F5F7F4F0E94138F0C946E3780912E0F7F
:104EC0008770873011F00C94D43760E08FE40F9432
:104ED000531581110C946E370C94D4370F94D02E47
:104EE0006093B2167093B3168093B4169093B51670
:104EF0000F94932881110C946E378091650F88234D
:104F000011F40C94443860E08FE40F945315811130
:104F10000C946E370C9444382091220F3091230F5B
:104F20004091240F5091250F609174027091750289
:104F300080917602909177020F947556AB01BC0177
:104F400088E50E94BBC369837A838B839C8320910D
:104F5000260F3091270F4091280F5091290F609113
:104F600078027091790280917A0290917B020F947D
:104F70007556AB01BC0189E50E94BBC36D837E837E
:104F80008F839887BE016B5F7F4FCE0101960F9490
:104F9000161D882311F40C946E3780E00E9474F67D
:104FA0000E944EC161E085E40F94531501E021E0B9
:104FB000482FBE016B5F7F4FCE0101960F9457299A
:104FC0006B017C019B01AC010F947658811119C0D3
:104FD00049815A816B817C818AE294E40E94B9FA0A
:104FE0004D815E816F81788585E294E40E94B9FAF3
:104FF000B701A60180E294E40E94B9FA8AE00E9417
:105000006C3B0E9435C10E94038A0C946E378FE07E
:105010008093600F0C946E3780914007882349F18C
:10502000893009F0A6C08FEDA82E82E0B82E94E753
:10503000E92E92E0F92ED12C00E010E0F5018191EB
:105040005F010F944615882369F00F94EB12F70166
:105050006083718382839383133011F401E002C073
:10506000DD24D3941F5FF4E0EF0EF11C143031F710
:1050700075C0BFED2B2EB2E03B2E16E7E12E1FE0F0
:10508000F12E24E732E03DA32CA303E9C02E02E178
:10509000D02E00E010E0F10181911F010F94461520
:1050A000882309F44AC00F94EB122B013C01133002
:1050B00049F0F60120813181428153810F94745669
:1050C0002B013C01ECA1FDA1208131814281538162
:1050D000C301B2010F9474564B015C012DEB37E311
:1050E00046E855EB0F94F85787FD0AC02DEB37E3E0
:1050F00046E855E3C501B4010F94714F1816ECF45E
:10510000133051F4409280025092810260928202E8
:105110007092830201E011C0A5019401F701608142
:105120007181828193810F947556F7016083718339
:1051300082839383812F0E9461BC1F5FF4E0EF0E96
:10514000F11C2CA13DA12C5F3F4F3DA32CA334E0CB
:10515000C30ED11C143009F09ECF05C0DD2019F01C
:105160000E94018A06C0002321F080E892E00E949C
:1051700013BA0E94038A0C946E37809176068130B0
:1051800011F00C946E3789E40F944615E82E8823AD
:1051900021F00F94E712082F01C000E08AE40F9479
:1051A0004615F82E882321F00F94E712182F01C01E
:1051B00010E0EE2011F0043020F4FF2041F0143014
:1051C00030F083EE96E00E94F8F90C946E3780E19F
:1051D000E4E7F2E0AAE0B7E001900D928A95E1F7EA
:1051E000EE2019F1602F000F770B880B990B0F94AD
:1051F000784F2091301630913116409132165091EF
:1052000033160F94D74F2091040430910504409138
:105210000604509107040F94755660930A07709323
:105220000B0780930C0790930D07FF2019F1612F56
:10523000110F770B880B990B0F94784F2091341630
:105240003091351640913616509137160F94D74F3E
:10525000209108043091090440910A0450910B04F4
:105260000F94755660930E0770930F078093100785
:105270009093110760E080E50F9453158823C1F1E6
:10528000EE20D1F02091220F3091230F4091240F76
:105290005091250F60910A0770910B0780910C07C0
:1052A00090910D070F94745660930A0770930B0743
:1052B00080930C0790930D07FF20D1F02091260FCB
:1052C0003091270F4091280F5091290F60910E07C0
:1052D00070910F0780911007909111070F947456E9
:1052E00060930E0770930F07809310079093110738
:1052F00040E050E0BA0186E40E94BBC36B017C0130
:1053000020E030E0A9010F94F85718164CF420E083
:1053100030E040E752E4C701B6010F94F85603C0ED
:1053200060E070E0CB0169837A838B839C83CE013C
:1053300001960E946DC10C946E370F94B4250C94A5
:105340006E3780914107909142078B39910509F49E
:10535000F0C50CF015C18335910509F429C60CF090
:1053600082C08A31910509F446C3BCF584319105A8
:1053700009F499C27CF48131910509F480C22CF4BE
:10538000029708F444C20C943E37429709F417C6BA
:105390000C943E378731910509F4BAC294F48531F3
:1053A000910509F4B1C2469711F00C943E370E9462
:1053B000FDFD80916713877F8062809367130C9453
:1053C0006E378831910509F4B8C2499711F00C94F1
:1053D0003E370F94AB090C946E378032910509F477
:1053E00082C3F4F48D31910509F466C384F48B31E2
:1053F000910509F40EC34C9711F00C943E3780913F
:105400003E0790913F070E9462FF0C946E378E31E9
:10541000910509F458C34F9709F48EC30C943E3795
:105420008D34910509F437C46CF48B34910509F47B
:105430002EC48C34910511F00C943E370E94B38B2E
:105440000C946E378135910509F49CC58235910520
:1054500011F00C943E378091600F8F7D80618093B6
:10546000600F0C946E378037910509F410C5E4F590
:105470008A36910509F46AC4CCF48C35910509F497
:10548000F7C554F48435910509F499C5853591051E
:1054900009F4CBC50C943E378836910509F4FFC357
:1054A0008936910509F43EC40C943E378D3691053A
:1054B00009F416C47CF48B36910509F485C48C3646
:1054C000910511F00C943E3710922F0F1092650247
:1054D0000C946E378E36910509F481C48F36910590
:1054E00009F490C40C943E378737910509F423C71B
:1054F0003CF58337910509F459C68CF48137910541
:1055000009F4CEC48237910511F00C943E370F9404
:105510001B3184EF92E10E94CDA90C946E37853740
:10552000910509F4C5C68637910511F00C943E37F4
:1055300000913E0710913F0794E0F12C40E0DFC658
:105540008D37910509F41BC58CF48837910509F452
:10555000F5C68937910511F00C943E371092A204DC
:105560001092A1040E941B8B0C946E378C3891050D
:1055700009F4BBC48139910509F4E8C60C943E379F
:105580008139E1E09E0711F40C9439350CF087C0A5
:105590008E3C910511F40C942233D4F58E3B910589
:1055A00009F4C4C4C4F4843A910509F45FC734F41F
:1055B000833A910509F43EC70C943E37863A91052B
:1055C00009F467C7873A910511F00C943E370F94A0
:1055D000980A0C946E378B3C910509F4E3C754F498
:1055E000883C910509F458C7893C910509F499C78D
:1055F0000C943E378C3C910511F40C94F1328D3CA7
:10560000910511F00C943E370F94AB1C0C946E373F
:105610008D3D910511F40C940534F4F4813D910510
:1056200011F40C94CE3364F48F3C910511F40C9476
:105630004033803D910511F40C9484330C943E3733
:10564000833D910511F40C94DB338C3D910511F4ED
:105650000C94DE330C943E378D3221E0920711F426
:105660000C94B6346CF48232E1E09E0711F40C9491
:105670005A348C32914011F40C94A1340C943E377E
:105680008F3221E0920711F40C9436358039914025
:1056900011F00C943E370E9470B70C946E37883F1F
:1056A000E1E09E0711F40C9441360CF057C0853AA6
:1056B00021E0920711F40C946B352CF58C39E1E064
:1056C0009E0711F40C9445357CF4823921E0920751
:1056D00011F40C943F358A39914011F00C943E3707
:1056E0000E948C3A0C946E378D39E1E09E0711F4DC
:1056F0000C940337843A914011F00C943E370F9488
:1057000070130C946E37853F21E0920711F40C94CE
:105710003B367CF48C3AE1E09E0711F40C94DE35C4
:10572000843F914011F00C943E370E940F630C941B
:105730006E37863F21E0920711F40C943E36873F86
:10574000914011F00C943E3761E083E50F945315BE
:1057500091E089270F948D360C946E378E3BE2E0F2
:105760009E0711F40C94EF362CF58B3522E092074E
:1057700011F40C945E367CF48C30E2E09E0711F458
:105780000C9451368835924011F00C943E370F94AA
:1057900099080C946E378A3922E0920711F40C9420
:1057A000D6368D3B924011F00C943E370F9448074B
:1057B0000C946E37873EE3E09E0711F40C94F536A7
:1057C000CCF4833523E0920711F40C94F236803A3E
:1057D000934011F00C943E3720913E0730913F07E3
:1057E00090916713926090936713C9010E9462FFC2
:1057F0000C946E37883EE3E09E0711F40C941D373D
:10580000893E934011F40C9420370C943E3780E588
:105810000F944615882329F00F949B1C6B017C0183
:1058200003C0C12CD12C760183E50F944615882343
:1058300061F00F94EB1220E030E04AE754E40F945B
:10584000D74F0F9471576B017C010E9470B7809104
:105850003E0790913F07009721F061E00E944E942F
:1058600005C060E08CEF96E00E94B89340E0C7016D
:10587000B6010E941E420F9405260C946E3780914B
:10588000440784FF02C00C9447388091460787FF85
:1058900002C00C94473880914707837011F00C9434
:1058A00047380C9465388091671383FF25C08CE3DB
:1058B00097E00E94F8F98091671383FF17C086E88C
:1058C00093E10E942D9C8BE1E6E8F3E1DE01119665
:1058D00001900D928A95E1F760E070E0CE010196AB
:1058E0000F946302CE0101960F9480158DE297E02C
:1058F0000E94F8F90C946E370E94EEFA8DE497E05E
:105900000E94F8F90C946E370F94FE010C946E37D8
:10591000E0913E07F0913F078081882329F0803293
:1059200009F410823196F8CF60E080913E079091A3
:105930003F070E94AAFF0C946E3783E50F9446152B
:10594000882321F00F94B3120E94E9C984E50F94D3
:1059500046158823A9F00F94B3126B017C010E94B5
:105960005E8BC0925604D0925704E0925804F09295
:105970005904CD28CE28CF2819F081E08093590F03
:1059800080916B0E8823F9F080E090E0A8E4B2E407
:1059900088A399A3AAA3BBA31C8E1D8E1E8E1F8E47
:1059A00019821A821B821C8200E010E020E0AE0106
:1059B000405E5F4FBE01645E7F4FCE0101960F9443
:1059C00027160C946E370E94B13A882381F00E940A
:1059D0000EFE0E94798B85EF9FE00E94B3FD10922E
:1059E00048071092490710924A0710924B070F94EC
:1059F00005260C946E378091671383FD02C00C94CA
:105A00006E3783E50F94461581110C9475380C940C
:105A10006E3783E40F942213882319F181E697E00F
:105A20000E94F8F98091CD14882391F0BE016F5F38
:105A30007F4F8AEC94E10E94F99B8E010F5F1F4F0C
:105A4000F80181918F01882339F00E946C3BF8CFD7
:105A500087E597E00E94F8F98AE00E946C3B0C947D
:105A60006E378091671382FF21C080E797E00E9424
:105A7000F8F96091631370916413809165139091AC
:105A800066134AE00E94733B8FE20E946C3B609178
:105A90005F137091601380916113909162134AE0DB
:105AA0000E94733B0E94713C0C946E3782E897E031
:105AB0000E94F8F90C946E37809167138E7F809363
:105AC00067130C946E378091671383FD02C00C94AA
:105AD0006E370F949D2580913E0790913F070F945C
