:100000000C9481100C94B2100C94B2100C94B21099
:100010000C94B2100C94B2100C94B2100C94B21058
:100020000C94B2100C94B2100C94B2100C94B21048
:100030000C94B2100C94B2100C94B2100C94B21038
:100040000C94B2100C943A3A0C94B2100C94B21076
:100050000C94B2100C94B2100C9435A80C945BB6AE
:100060000C94B2100C943A9B0C94269B0C94B210F6
:100070000C94B2100C94B2100C94B2100C94B210F8
:100080000C94B2100C94B2100C94B2100C94B210E8
:100090000C94B2100C94B2100C94B2100C94B210D8
:1000A0000C94B2100C94B2100C94B2100C94B210C8
:1000B0000C94B2100C94B2100C94B2100C94B210B8
:1000C0000C94B2100C94B2100C94B2100C94E499ED
:1000D0000C94309B0C94B2100C94B2100C94B2108F
:1000E0000C94B21038693D6942694C695669CF6910
:1000F0006069686970697A6984698E699D69A769B0
:10010000CF69B169BB69C569966EB36EC86EDD6EA5
:10011000EE6EFF6E106F216F3A6F536F686F756FE1
:100120008A6FA36FC46FC6B5C9B5B8B5BCB5C0B545
:1001300000B6CDB5D1B5D7B5DBB5DFB5E5B5E9B519
:10014000EDB500B6F3B5F7B5FBB50C94C6B50C9498
:100150003A6F0C943D690C94C5690C94D7B50C9416
:1001600036BF0C94F7B50C94C9B50C94966E0C94EC
:1001700070690C9454BF0C94FBB50C94EDB50C94C1
:10018000BCB50C9456690C9438690C94C0B50C94A9
:10019000EE6E0C94B8B50C949D690C94C86E0C94DA
:1001A000756F0C94B36E0C9442690C94D1B50C9499
:1001B000E9B50C94FF6E0C948E690C94A7690C94AD
:1001C000536F0C94E5B50C94686F0C9484690C948F
:1001D00068690C94DBB50C947A690C94DFB50C94C7
:1001E00060690C94BB690C94CF690C94F3B50C94C2
:1001F000B1690C944C690C94A36F0C94106F0C941F
:10020000C46F0C94CDB50C948A6F0C94DD6E0C9475
:1002100000B60C94216F4E414E494E495459494EF7
:1002200046CDCCCC3D0AD7233C17B7D13877CC2B61
:10023000329595E6241FB14F0A000020410000C806
:100240004200401C4620BCBE4CCA1B0E5AAEC59D87
:100250007400407A10F35A00A0724E18090010A5DD
:10026000D4E80000E87648170000E40B54020000D0
:10027000CA9A3B000000E1F5050000809698000056
:100280000040420F000000A086010000001027007F
:10029000000000E803000000006400000000000A05
:1002A00000000000000100000000002C76D888DC6F
:1002B000674F0823DFC1DFAE59E1B1B796E5E3E44C
:1002C00053C63AE651997696E8E6C28426EB898CC5
:1002D0009B62ED407C6FFCEFBC9C9F40F2BAA56F27
:1002E000A5F490055A2AF75C936B6CF9676DC11BF6
:1002F000FCE0E40D47FEF520E6B500D0ED902E03BE
:1003000000943577050080841E080000204E0A0006
:100310000000C80C333333330F986E12831141EF52
:100320008D2114893BE65516CFFEE6DB18D1844BB0
:10033000381BF77C1D901DA4BBE424203284725E20
:10034000228100C9F124ECA1E53D27434F4D4D55D5
:100350004E49434154494F4E0044525952554E0064
:100360004552524F525300494E464F004543484F65
:1003700000203B2043757272656E74205A00203B4A
:1003800020456E6400203B205374617274004D65FB
:10039000736820706F696E74206F7574206F6620AB
:1003A00072616E67650A00456E642066696C65203F
:1003B0006C6973740A00426567696E2066696C65D2
:1003C000206C6973740A004E6F206D656469610A60
:1003D0000025697920256964202569682025696DD3
:1003E00020256973005072696E742074696D653AD6
:1003F00020006F66660044454255473A004D313152
:10040000322053687574646F776E004D313133203C
:1004100053004348414D4245525F54454D5045526B
:100420004154555245004241425953544550504958
:100430004E470041524353004D4F54494F4E5F4D7C
:100440004F44455300544845524D414C5F50524F24
:1004500054454354494F4E004C4F4E475F46494C1C
:10046000454E414D45004155544F5245504F525411
:100470005F53445F535441545553005344434152D6
:10048000440050524F4D50545F535550504F5254AA
:1004900000454D455247454E43595F5041525345E3
:1004A0005200434153455F4C494748545F425249CB
:1004B0004748544E45535300544F47474C455F4CB3
:1004C000494748545300534F4654574152455F5093
:1004D0004F574552004255494C445F5045524345A1
:1004E0004E54004C4556454C494E475F444154419B
:1004F000005A5F50524F42450052554E4F555400DE
:100500004155544F4C4556454C005052494E545F4E
:100510004A4F420050524F475245535300415554A1
:100520004F5245504F52545F54454D5000564F4C1A
:10053000554D455452494300454550524F4D004298
:10054000494E4152595F46494C455F5452414E53C2
:100550004645520053455249414C5F584F4E5F58F3
:100560004F4646004649524D574152455F4E414D18
:10057000453A4D61726C696E206D61726C696E2DC9
:10058000322E302E3820284E6F76203130203230F7
:1005900032302031313A30333A33322920534F55FB
:1005A0005243455F434F44455F55524C3A6874741B
:1005B00070733A2F2F6769746875622E636F6D2FA1
:1005C0004D61726C696E4669726D776172652F4D0F
:1005D00061726C696E2050524F544F434F4C5F56BE
:1005E000455253494F4E3A312E30204D41434849F0
:1005F0004E455F545950453A5A38545F4D33204563
:10060000585452554445525F434F554E543A312049
:10061000555549443A63656465326132662D34311B
:1006200061322D343734382D396231322D6335350E
:100630006336326633363766660A002F2F20005243
:10064000616E646F6D204D69782000416363656C55
:1006500065726174696F6E00416363656C65726198
:1006600074696F6E3A20500046523A0020466C6F13
:10067000773A20004261627973746570205A0020D5
:10068000643A0020693A0020703A00496E76616C45
:1006900069642065787472756465720A004D34323D
:1006A0003120696E636F727265637420706172616C
:1006B0006D657465722075736167650A00546F6FAC
:1006C000206661722066726F6D2072656665726564
:1006D0006E636520706F696E740A00454550524F15
:1006E0004D204F4B0A00205A323A004475616C206D
:1006F000456E6473746F702041646A7573746D65C0
:100700006E7420286D6D293A2000506F7765722D28
:100710006C6F7373207265636F7665727920004D1C
:10072000383400446F6E65207072696E74696E674C
:100730002066696C650A004D3737004D3331006C17
:10074000036703600359034B034F46460A004661A3
:100750006465204865696768742000426564204CC0
:100760006576656C696E6720004661696C6564201A
:10077000746F20656E61626C6520426564204C6513
:1007800076656C696E670A00496E76616C696420F3
:100790006D6573682E0A0050726F62696E67206D16
:1007A00065736820706F696E742000202844525968
:1007B00052554E2900473239204175746F204265E9
:1007C00064204C6576656C696E67003F20284C2C70
:1007D000522C462C4229206F7574206F6620626F60
:1007E000756E64732E0A003F2856296572626F7316
:1007F00065206C6576656C20696D706C61757369D8
:10080000626C652028302D34292E0A004261642054
:100810005A2076616C75650A004E6F2062696C69BA
:100820006E65617220677269640A000000484200C8
:10083000004842000080400202040000A040000086
:10084000A040000000400000A54300009B430000C2
:10085000C843FFFFFF5761726E696E673A20486FA9
:100860006D696E672042756D702044697669736F9B
:1008700072203C20310A0024F4D43050C38E20C2B0
:10088000A24017828B7011127A910D816CD90AA83F
:1008900061E108C7586607615143061E4B5D05C1FB
:1008A00045A7041A411104093D98037139310340E9
:1008B00036DB0265339102D4305402802E1D026370
:1008C0002CEE01752AC501B028A001102781018FE7
:1008D0002564012B244B01E0223401AC211F018D42
:1008E000200D01801FFC00841EED00971DDF00B865
:1008F0001CD200E61BC600201BBC00641AB200B26A
:1009000019A8000A19A0006A189900D1179100408F
:10091000178B00B516840031167E00B31579003AA6
:10092000157300C7146F0058146A00EE1366008830
:1009300013630025135E00C7125B006C125700158D
:10094000125400C111510070114F0021114B00D6FB
:100950001049008D1047004610440002104200C0AC
:100960000F4000800F3E00420F3C00060F3B00CBC3
:100970000E3800930E37005C0E3500270E3400F35E
:100980000D3200C10D3100900D3000600D2E00328F
:100990000D2D00050D2C00D90C2B00AE0C29008567
:1009A0000C29005C0C2700350C27000E0C2600E8F3
:1009B0000B2400C40B2400A00B23007D0B23005A42
:1009C0000B2100390B2100180B2000F80A1F00D959
:1009D0000A1E00BB0A1E009D0A1D00800A1D00633E
:1009E0000A1C00470A1B002C0A1B00110A1A00F7F8
:1009F000091A00DD091900C4091900AB0919009290
:100A00000917007B091800630917004C0916003606
:100A1000091600200916000A091500F5081500E05E
:100A2000081400CC081400B8081400A4081400909E
:100A30000813007D0812006B0813005808120046C6
:100A400008120034081100230811001208110001D7
:100A5000081100F0071000E0071000D0071000C0D8
:100A6000071000B0070F00A107100091070E0083C8
:100A7000070F0074070F0065070E0057070E0049A7
:100A8000070E003B070D002E070E0020070D001378
:100A9000070D0006070D00F9060C00ED060D00E03D
:100AA000060C00D4060C00C8060C00BC060C00B0F6
:100AB000060C00A4060B0099060C008D060B0082A4
:100AC000060B0077060B006C060B0061060A005748
:100AD000060B004C060A0042060A0038060A002EE1
:100AE000060A0024060A001A060A00100609000772
:100AF000060A00FD050900F4050900EB050900E2FE
:100B0000050900D9050900D0050900C7050900BE7F
:100B1000050900B5050800AD050800A50509009CFC
:100B2000050800940508008C050800840508007C71
:100B3000050800740508006C050700650508005DE0
:100B4000050700560508004E050700470507004049
:100B500005080038050700310507002A05070023AE
:100B60000507001C050600160507000F050700080D
:100B700005060002050700FB040600F5040700EE69
:100B8000040600E8040600E2040700DB040600D5C2
:100B9000040600CF040600C9040600C3040600BD15
:100BA000040600B7040600B1040500AC040600A664
:100BB000040600A00405009B0406009504050090AF
:100BC0000406008A04050085040500800406007AF6
:100BD00004050075040500700405006B040500663B
:100BE000040500610405005C04050057040500527B
:100BF0000405004D04050048040500430405003EBB
:100C00000404003A04050035040500300404002CF7
:100C100004050027040400230405001E0404001A30
:100C200004040016040500110404000D0404000966
:100C30000405000404040000040400FC030400F89C
:100C4000030400F4030400F0030400EC030400E8D0
:100C5000030400E4030400E0030400DC030400D800
:100C6000030400D4030400D0030400CC030400C830
:100C7000030300C503030024F404D9201BC40C5C47
:100C80000E9804C4095F0265077101F405F900FBC1
:100C900004B30048048700C10369005803550003EA
:100CA000034500BE023A008402310053022A0029A3
:100CB00002250004022000E4011C00C8011900AF55
:100CC00001170098011400840113007101100061E4
:100CD00001100051010E0043010D0036010B002BE5
:100CE000010B0020010B00150109000C0109000394
:100CF000010800FB000800F3000800EB000700E417
:100D0000000600DE000600D8000600D2000600CC77
:100D1000000500C7000500C2000500BD000400B9C1
:100D2000000400B5000400B1000400AD000400A9F7
:100D3000000400A5000300A20003009F0004009B24
:100D40000003009800030095000200930003009048
:100D50000003008D0002008B000300880002008663
:100D600000020084000300810002007F0002007D79
:100D70000002007B0002007900020077000100768B
:100D80000002007400020072000100710002006F96
:100D90000002006D0001006C0002006A00010069A1
:100DA00000020067000100660001006500010064A8
:100DB0000002006200010061000100600001005FAC
:100DC0000002005D0001005C0001005B0001005AB0
:100DD00000010059000100580001005700010056B1
:100DE00000010055000100540001005300000053B1
:100DF0000001005200010051000100500001004FAD
:100E00000001004E0000004E0001004D0001004CAA
:100E10000001004B0000004B0001004A00010049A6
:100E200000010048000000480001004700010046A2
:100E3000000000460001004500000045000100449C
:100E40000001004300000043000100420000004296
:100E50000001004100000041000100400001003F8E
:100E60000000003F0001003E0000003E0001003D88
:100E70000000003D0001003C0000003C0000003C80
:100E80000001003B0000003B0001003A0000003A76
:100E9000000100390000003900010038000000386E
:100EA0000000003800010037000000370001003664
:100EB000000000360000003600010035000000355B
:100EC0000000003500010034000000340000003450
:100ED0000001003300000033000000330001003245
:100EE000000000320000003200010031000000313B
:100EF0000000003100010030000000300000003030
:100F00000001002F0000002F0000002F0000002F24
:100F10000001002E0000002E0000002E0001002D18
:100F20000000002D0000002D0000002D0001002C0D
:100F30000000002C0000002C0000002C0001002B01
:100F40000000002B0000002B0000002B0001002AF5
:100F50000000002A0000002A0000002A00010029E9
:100F600000000029000000290000002900000029DD
:100F700000010028000000280000002800000028D0
:100F800000000028000100270000002700000027C3
:100F900000000027000000270001002600000026B6
:100FA00000000026000000260000002600010025A9
:100FB000000000250000002500000025000000259D
:100FC000000000250001002400000024000000248F
:100FD0000000002400000024000100230000002382
:100FE0000000002300000023000000230000002375
:100FF0000000002300010022000000220000002267
:101000000000002200000022000000220001002158
:10101000000000210000002100000021000000214C
:10102000000000210000002100010020000000203D
:101030000000002000000020000000200000002030
:1010400000000020000000200001001F0000001F21
:101050000000001F0000001F0000001F0000001F14
:101060000000001F0001001E0000001E0000001E06
:101070000000001E000000A42C0000841E0000B030
:10108000120000870A00009E050000E90200007BB4
:10109000010000BF000000667265736800646F693C
:1010A0006E67004E6F7720002020506C616E6E6579
:1010B0007242756666657242797465733A200020E3
:1010C00046726565204D656D6F72793A2000436FF9
:1010D0006D70696C65643A204E6F76203130203235
:1010E0003032300A00204C61737420557064617492
:1010F00065643A20323032302D31312D3039207C48
:1011000020417574686F723A20285A4F4E455354E7
:1011100041522C2048616C6C79290A006D61726C17
:10112000696E2D322E302E380A004D61726C696E58
:101130000020536F66747761726520526573657421
:101140000A00205761746368646F67205265736595
:10115000740A002042726F776E206F75742052659A
:101160007365740A002045787465726E616C205254
:10117000657365740A00506F77657255700A004D8B
:101180003234004D3233202573006175746F25634E
:101190002E67004732385859004D313030310065E4
:1011A00072726F722077726974696E6720746F2033
:1011B00066696C650A00446F6E6520736176696EBE
:1011C000672066696C652E0A004D32390020503A5E
:1011D00000656E6473746F7073206869743A2000E0
:1011E000F0004A0110013B0130012C0140012701B0
:1011F0005001220170011D0190011801B00113017D
:10120000C0010E01F0010901100204013002FF00CB
:101210006002FA009002F500C002F0000003EB004B
:101220004003E6008003E100D003DC002004D70087
:10123000E004D200C005CD004006C800D006C300BF
:101240008007BE00F008B9004009B400C009AF0033
:10125000B00AAA00B00BA500D00CA000000E9B00A5
:10126000C01096005012910000148C00C015870029
:10127000B0178200B0197D00D01B7800001E7300EB
:1012800040206E0090226900F024640040275F0037
:1012900090295A00E02B5500102E500020304B00B2
:1012A00010324600E033410090353C0010373700E3
:1012B00070383200A0392D00B03A2800A03B23003E
:1012C000603C1E00103D1900903D1400103E0F00C0
:1012D000703E0A00C03E0500003F0000403FFBFF9B
:1012E000803FF6FFC03FF1FF20746F6F206C6F6E80
:1012F0006720657874727573696F6E207072657699
:10130000656E7465640A00286E6F2066696C6529D5
:101310000043757272656E742066696C653A2000D0
:101320005344207072696E74696E672062797465C7
:1013300020004E6F74205344207072696E74696E81
:10134000670A0020573A0023646566696E65204489
:10135000454641554C545F004B6420004B692000CA
:101360004B702000504944204175746F74756E6550
:101370002066696E697368656421205075742074F5
:101380006865206C617374204B702C204B69206160
:101390006E64204B6420636F6E7374616E7473208F
:1013A00066726F6D2062656C6F7720696E746F2056
:1013B000436F6E66696775726174696F6E2E680A35
:1013C00000504944204175746F74756E65206661E4
:1013D000696C6564212074696D656F75740A000A13
:1013E00020436C617373696320504944200A0020D4
:1013F0004B643A2000204B693A2000204B703A2081
:10140000002054753A2000204B753A2000206D6171
:10141000783A2000206D696E3A200020643A20005E
:1014200020626961733A2000504944204175746F0D
:1014300074756E652073746172740A00504944209B
:101440004175746F74756E65206661696C656421A1
:101450002054656D706572617475726520746F6F6C
:1014600020686967680A00504944204175746F74A8
:10147000756E65206661696C656421204261642037
:101480006578747275646572206E756D6265720A36
:10149000006F70656E0054524947474552454400FD
:1014A0007A5F70726F6265007A325F6D696E007A82
:1014B0005F6D696E00795F6D696E00785F6D696E52
:1014C000005265706F7274696E6720656E64737424
:1014D0006F70207374617475730A004572723A20DC
:1014E0004D415854454D50004D415854454D5020A4
:1014F000747269676765726564004572723A204D5F
:10150000494E54454D50004D494E54454D50207460
:10151000726967676572656400202F002042403A57
:101520000020403A007C3C3E5E2B3D3F2F5B5D3B04
:101530002C2A225C002121204B494C4C20636175F0
:1015400073656420627920746F6F206D7563682005
:10155000696E6163746976652074696D65202D20FC
:1015600063757272656E7420636F6D6D616E643A3F
:1015700020004D323930004D343130004D313132A0
:10158000004D313038005072696E7465722073748A
:101590006F707065642064756520746F2065727269
:1015A0006F72732E204669782074686520657272A8
:1015B0006F7220616E6420757365204D3939392052
:1015C000746F20726573746172742E202854656D77
:1015D00070657261747572652069732072657365D8
:1015E000742E2053657420697420616674657220BE
:1015F00072657374617274696E67290A004E6F2098
:10160000436865636B73756D2077697468206C69D6
:101610006E65206E756D6265722C204C617374204E
:101620004C696E653A2000636865636B73756D2065
:101630006D69736D617463682C204C617374204C08
:10164000696E653A20004C696E65204E756D626565
:1016500072206973206E6F74204C617374204C6922
:101660006E65204E756D6265722B312C204C617356
:1016700074204C696E653A20004D3131300053447E
:101680002072656164206572726F720A0062757300
:10169000793A2070617573656420666F7220696E97
:1016A0007075740A00627573793A2070617573659C
:1016B0006420666F7220757365720A0062757379B3
:1016C0003A2070726F63657373696E670A004D31FB
:1016D00030303053005072696E7465722068616CEE
:1016E0007465642E206B696C6C28292063616C6CB6
:1016F0006564210A006563686F3A004572726F7213
:101700003A0042696C696E656172204C6576656C61
:10171000696E6720477269643A0A000000A0C10040
:101720000000000000000000009B4300009B4300FD
:1017300000C843206C696D6974656420746F200073
:10174000204D617820004A65726B0053657474699E
:101750006E67732053746F7265642028002053698C
:101760007A653A200043616E6E6F74206F70656E0B
:10177000207375626469722000534420636172644F
:10178000206F6B0A006F70656E526F6F7420666118
:10179000696C65640A00766F6C756D652E696E699B
:1017A00074206661696C65640A004E6F20534420A2
:1017B000636172640A0046696C652073656C6563D9
:1017C0007465640A0046696C65206F70656E6564B7
:1017D0003A2000454E4420535542524F5554494EED
:1017E000450A002220706F73002220706172656EBE
:1017F000743A2200535542524F5554494E452043A6
:10180000414C4C207461726765743A2200537562D2
:1018100063616C6C204F766572666C6F77004578FB
:10182000636565646564206D617820535542524F4D
:101830005554494E452064657074683A310A005722
:10184000726974696E6720746F2066696C653A20EE
:101850000044656C6574696F6E206661696C6564CF
:101860002C2046696C653A200046696C65206465E9
:101870006C657465643A006F70656E206661696CB2
:1018800065642C2046696C653A2000204D39322071
:10189000580020204D61783A200020204D696E3A92
:1018A0002000536F667420656E6473746F70733AB2
:1018B0002000252900257C004772616469656E74EB
:1018C000204D69782000526573756D6520726571D1
:1018D0007569726573204C43442E0A004D323420E2
:1018E00053256C642054256C64004739322E39200E
:1018F00045257300473120462564004739322E398B
:10190000205A2573004731205A30204632303000AB
:101910004731205825732059257320463330303005
:10192000004731204525642046323030004D3130AB
:10193000362050256920532569004D313039205318
:101940002569004D31393020532569004D32303042
:1019500020442573004732385230585900473932F5
:101960002E39204530205A300A47315A2573004D10
:10197000343230205330205A300020496E76616C6A
:1019800069642065787472756465722000436170C3
:101990003A003F5A206F7574206F662072616E673F
:1019A000652028003F59206F7574206F6620726192
:1019B0006E676520282D003F58206F7574206F6674
:1019C0002072616E676520282D0050726F6265205D
:1019D0004F6666736574205800656E717565756530
:1019E000696E672022006F6B00526573656E643A02
:1019F0002000205200454550524F4D20496E6974D9
:101A000069616C697A65640A0048617264636F6435
:101A100065642044656661756C74205365747469EF
:101A20006E6773204C6F616465640A003B20002080
:101A3000204D3835312058005A2D50726F62652084
:101A40004F66667365740020204D32303920530094
:101A50004175746F2D526574726163743A20533D01
:101A60003020746F2064697361626C652C203120B2
:101A7000746F20696E7465727072657420452D6F85
:101A80006E6C79206D6F766573206173207265745A
:101A9000726163742F7265636F7665720020204DEA
:101AA0003230382053005265636F7665723A2053A6
:101AB0003C6C656E6774683E20463C756E69747355
:101AC0002F6D3E0020460020570020204D32303739
:101AD000205300526574726163743A20533C6C6504
:101AE0006E6774683E20463C756E6974732F6D3E58
:101AF000205A3C6C6966743E0020204D34313320FE
:101B00005300506F7765722D4C6F7373205265636D
:101B10006F766572793A0020204D333031205000C5
:101B20005049442073657474696E67733A002020CD
:101B30004D36363600456E6473746F702061646A8A
:101B40007573746D656E743A00204A002020473228
:101B500039205720490020204D3432302053004195
:101B600075746F20426564204C6576656C696E679C
:101B70003A0020204D323036205800486F6D6520E5
:101B80006F66667365743A0020204D32303520420E
:101B900000416476616E6365643A20423C6D696E13
:101BA0005F7365676D656E745F74696D655F75738E
:101BB0003E20533C6D696E5F666565647261746555
:101BC0003E20543C6D696E5F74726176656C5F6631
:101BD000656564726174653E20583C6D61785F781C
:101BE0005F6A65726B3E20593C6D61785F795F6A10
:101BF00065726B3E205A3C6D61785F7A5F6A6572F0
:101C00006B3E20453C6D61785F655F6A65726B3E37
:101C10000020540020204D323034205000416363B6
:101C2000656C65726174696F6E2028756E69747376
:101C30002F7332293A20503C7072696E745F616371
:101C400063656C3E20523C726574726163745F61BF
:101C50006363656C3E20543C74726176656C5F61B1
:101C60006363656C3E0020204D3230312058004DBA
:101C70006178696D756D20416363656C657261742F
:101C8000696F6E2028756E6974732F7332293A005C
:101C900020450020590020204D3230332058004D7F
:101CA0006178696D756D20666565647261746573D0
:101CB0002028756E6974732F73293A005374657008
:101CC000732070657220756E69743A00204400209C
:101CD000204D3230302053002044697361626C65BE
:101CE000640A0046696C616D656E74207365747476
:101CF000696E67733A0020286D6D290020204732F5
:101D000031202020203B20556E69747320696E209D
:101D10006D6D000000FA430000FA430000A040008F
:101D200000C8420000A0420000A0420000C84300DA
:101D300000C843B80B0000B80B000064000000109E
:101D40002700004572726F722077726974696E673E
:101D500020746F20454550524F4D210A0020627972
:101D60007465733B2063726320004E6F20454550BD
:101D7000524F4D2E0A00454550524F4D206461741C
:101D80006173697A65206572726F722E0A00207322
:101D9000746F7265642073657474696E6773207202
:101DA0006574726965766564202800202863616C1B
:101DB00063756C6174656429210A0020213D20004F
:101DC000454550524F4D20435243206D69736D611C
:101DD000746368202D202873746F72656429200055
:101DE000496E6465783A200044494749504F54533E
:101DF000204C6F616465640A0044494749504F5460
:101E000053204C6F6164696E670A00204D61726CEB
:101E1000696E3D563833290A00454550524F4D20D2
:101E200076657273696F6E206D69736D6174636836
:101E30002028454550524F4D3D0020436F756E742C
:101E400020583A0042656400453100626564002C08
:101E50002073797374656D2073746F70706564217D
:101E6000204865617465725F49443A2000544845D2
:101E7000524D414C2052554E4157415900546865CE
:101E8000726D616C2052756E617761790048656191
:101E900074696E67204661696C65640048656174A9
:101EA000696E67206661696C656400202D20496E4B
:101EB00076616C6964206578747275646572206EF1
:101EC000756D62657220210A00001000AA0380006F
:101ED000400100012C01B001220140021001F0027A
:101EE00002018003F8004004F500E004ED009005D5
:101EF000E4003006DD00E006D7008007D10030089E
:101F0000CC00D008C7007009C300100ABE00B00A98
:101F1000BB00500BB700900CB300D00DAA00B00F5F
:101F2000A5005010A00010149600901690001019F3
:101F30008C00501A8500301C820070227800B0237B
:101F4000750040256E0020276900A0296400502AF2
:101F50005F00902B5A00D02C5500702D4F00E02EC2
:101F600048005031450030334100D03539006036EB
:101F7000370010373300F0382D00A0392700803C9F
:101F80001C00403D1700F03D1100703E0A00C03EAD
:101F90000500003F0000403FFBFF803FF6FFC03FD1
:101FA000F1FF20453A00205A3A0020593A0000003B
:101FB0002200250028002B002E00310034000201F1
:101FC0000000050108010B0100002100240027008A
:101FD0002A002D0030003300010100000401070138
:101FE0000A0105050505070508080808020202029E
:101FF0000A0A0808040404040101010101010101A5
:102000000303030303030303040707070C0C0C0C6F
:102010000C0C0C0C02020202060606060606060658
:102020000B0B0B0B0B0B0B0B0102102020080810E5
:102030002040102040800201020108040201010238
:102040000408102040808040201008040201800411
:10205000020180402010080402010804020101026C
:102060000408102040800102040810204080205AFB
:102070003A200020593A200042656420583A200056
:1020800050726F62696E67204661696C65640A0010
:1020900000000A0B02090C0D0E08070304010000E2
:1020A0000000000000000000000000000000000030
:1020B00000000000000000000000000012111000ED
:1020C0000000000000000000000000000000000010
:1020D000000000000000486F6D6520257325732502
:1020E0007320466972737400220A00556E6B6E6F1E
:1020F000776E20636F6D6D616E643A20220054BF6D
:1021000036BF11241FBECFEFD1E2DEBFCDBF00E04E
:102110000CBF12E0A0E0B2E0EAEEFCE901E00BBF88
:1021200002C007900D92A83EB107D9F724E1A8EEAE
:10213000B2E001C01D92A838B207E1F710E1C0E893
:10214000D0E100E006C021970109802FFE010E9426
:10215000D7CBCF37D10780E00807A9F70E9422B973
:102160000C9463CE0C9400002F923F924F925F929A
:102170006F927F928F929F92AF92BF92CF92DF9297
:10218000EF92FF920F931F93CF93DF93CDB7DEB7FC
:10219000AB970FB6F894DEBF0FBECDBF8BA72091D3
:1021A000F6022AA781E08093F6028091F70C8D3425
:1021B00009F46CC4843511F40C948121873411F036
:1021C0000C94D9218091F50C9091F60C8B319105EE
:1021D00009F463C1F4F488309105D1F14CF497FD12
:1021E00051C482309105A4F1049709F412C14AC484
:1021F0008B30910509F44CC18531910511F40C9493
:10220000DB210A9709F03EC481E00E94F96F0C942B
:10221000DB218A32910509F455C354F48D319105BF
:1022200009F4F4C10CF4E2C14E9709F40DC22AC4BA
:102230008B35910509F490C28C35910509F491C252
:102240008A35910509F01EC4109246130C94DB21C7
:1022500080910C05813011F00C94DB2119821A82D7
:102260001B821C82CE0101965C01A7EFEA2EA2E040
:10227000FA2E0CE412E0B9EDCB2EBEE0DB2E912C51
:1022800088E5890D0E946D28F50181935F018823FF
:1022900011F10E94FF252B013C01892D0E94B1877D
:1022A000882351F0F8012081318142815381C3019B
:1022B000B2010E94E0CB09C0F60120813181428148
:1022C0005381C301B2010E94DFCBF70160837183A8
:1022D000828393830AC0F80180819181A281B381B6
:1022E000F70180839183A283B3839394F4E0EF0E8C
:1022F000F11C0C5F1F4F24E0C20ED11C33E093127F
:10230000BFCF85E40E946D288C83882301F10E9451
:10231000FF256B017C0183E00E94B187882371F067
:10232000209158023091590240915A0250915B021B
:10233000C701B6010E94E0CB6B017C01C092030390
:10234000D0920403E0920503F092060310C080913E
:10235000580290915902A0915A02B0915B02809369
:10236000030390930403A0930503B09306038091A5
:10237000460E882381F08091651182FF0CC08C810C
:10238000882349F08981811103C08A81882319F04B
:1023900080E00E948CB740E050E0BA0186E40E94E1
:1023A000BC5320E030E0A9010E9463CD181684F4EC
:1023B0000E94FF2520E030E040E752E40E9463CC19
:1023C0006093740270937502809376029093770203
:1023D0008091250E882311F40C94162285E40E9426
:1023E0003626882311F40C94162288E50E9436269E
:1023F00081110C94162289E50E94362681110C94D5
:1024000016228AE50E94362681110C9416220C941D
:10241000E42180E50E946D28882379F08091E8020C
:102420009091E902009749F04AE050E060E070E0E6
:102430000E945EC36B017C0103C0C12CD12C7601CC
:1024400083E50E946D28882361F00E94FF2520E02B
:1024500030E04AE754E40E9470C50E94DCCC6B0176
:102460007C010E94877E0E944FB6C60ED71EE81ED2
:10247000F91E0E944FB6DC01CB018C199D09AE09F3
:10248000BF09B7FD02C00C94DB210E94C565F1CFE6
:1024900080E00E94F96F0C94DB210E94B7B8811193
:1024A0000C94DB218CE0ECE7F2E0DE011196019068
:1024B0000D928A95E1F780E50E946D28882319F036
:1024C0000E94C72501C060E080E090E0A8ECB2E483
:1024D0008CA39DA3AEA3BFA380E090E0A0EAB0E4EC
:1024E00088A399A3AAA3BBA3613019F0623039F085
:1024F00029C0BE01605E7F4FCE01099658C0298574
:102500003A854B855C8560915402709155028091AB
:102510005602909157020E94E0CB6B017C0120E0B3
:1025200030E048EC53E40E940AC587FD06C0C12C88
:10253000D12CF8ECEF2EF3E4FF2ECC8EDD8EEE8E58
:10254000FF8E30C020E030E040E050E46091540263
:102550007091550280915602909157020E94E0CBF3
:102560007B018C0120E030E048EC53E40E9463CD15
:10257000181624F4E12CF12C08EC13E4A984BA8495
:10258000CB84DC849701A801B501C6010E9463CD0C
:10259000181614F475018601C701D8018C8F9D8F20
:1025A000AE8FBF8FBE01605E7F4FCE014C960E9402
:1025B000ED36E0905402F0905502009156021091D1
:1025C0005702209150023091510240915202509195
:1025D000530269817A818B819C81FE01B4966F01DF
:1025E0000E942C360E945D390C94DB2180914113AE
:1025F0008770873011F00C94412260E08FE40E94D4
:10260000952881110C94DB210C9441220E944FB635
:102610006093D10E7093D20E8093D30E9093D40E0C
:102620000E94B7B881110C94DB2180917514882326
:1026300011F40C94AE2260E08FE40E949528811181
:102640000C94DB210C94AE2220912C1330912D138D
:1026500040912E1350912F1360914C0270914D02B6
:1026600080914E0290914F020E94E0CBAB01BC01E1
:1026700088E50E94BC5369837A838B839C83209175
:1026800030133091311340913213509133136091D4
:1026900050027091510280915202909153020E9417
:1026A000E0CBAB01BC0189E50E94BC536D837E8306
:1026B0008F839887BE016B5F7F4FCE0101960E948A
:1026C0001724882311F40C94DB2180E00E942373EB
:1026D0000E940D3661E085E40E94952801E021E02A
:1026E000482FBE016B5F7F4FCE0101960E9453B30E
:1026F0006B017C019B01AC010E94E1CD811126C0E0
:1027000049815A816B817C8188E790E20E94EA646A
:102710004D815E816F81788583E790E20E94EA6453
:10272000B701A6018EE690E20E94EA648091F01063
:10273000882311F08F3719F48AE00E940E9A809155
:10274000F010882319F08AE00E94CC980E94F4359A
:102750000E945D390C94DB218FE0809346130C942A
:10276000DB218091F40C882349F1893009F0A6C05F
:1027700070ECA72E72E0B72EECE4EE2EE2E0FE2E17
:10278000D12C00E010E0F50181915F010E946D28DD
:10279000882369F00E94FF25F7016083718382839B
:1027A0009383133011F401E002C0DD24D3941F5F42
:1027B000F4E0EF0EF11C143031F775C040EC242E1C
:1027C00042E0342E5BE7E52E53E1F52E2CE432E0B7
:1027D00039A728A769EDC62E6EE0D62E00E010E0DE
:1027E000F10181911F010E946D28882309F44AC0DC
:1027F0000E94FF252B013C01133049F0F601208196
:102800003181428153810E94DFCB2B013C01E8A53D
:10281000F9A52081318142815381C301B2010E9417
:10282000DFCB4B015C012DEB37E346E855EB0E9413
:1028300063CD87FD0AC02DEB37E346E855E3C501BC
:10284000B4010E940AC51816ECF4133051F44092FA
:1028500058025092590260925A0270925B0201E053
:1028600011C0A5019401F70160817181828193817A
:102870000E94E0CBF7016083718382839383812F71
:102880000E940A321F5FF4E0EF0EF11C28A539A563
:102890002C5F3F4F39A728A734E0C30ED11C14305A
:1028A00009F09ECF05C0DD2019F00E94233806C034
:1028B000002321F088E592E00E94977E0E945D3916
:1028C0000C94DB2180910C05813011F00C94DB21FC
:1028D00089E40E946D28E82E882321F00E94FB25C0
:1028E000082F01C000E08AE40E946D28F82E88239A
:1028F00021F00E94FB25182F01C010E0EE2011F0FE
:10290000043020F4FF2041F0143030F08EE893E0E2
:102910000E94A8640C94DB2180E1ECE4F2E0A7EFD4
:10292000B2E001900D928A95E1F7EE2019F1602F47
:10293000000F770B880B990B0E9411C520911D0E7B
:1029400030911E0E40911F0E5091200E0E9470C5B6
:1029500020918B0E30918C0E40918D0E50918E0EE9
:102960000E94E0CB6093F7027093F8028093F90223
:102970009093FA02FF2019F1612F110F770B880B4A
:10298000990B0E9411C52091210E3091220E409189
:10299000230E5091240E0E9470C520918F0E30910D
:1029A000900E4091910E5091920E0E94E0CB609358
:1029B000FB027093FC028093FD029093FE0260E0A4
:1029C00080E50E9495288823C1F1EE20D1F0209166
:1029D0002C1330912D1340912E1350912F13609191
:1029E000F7027091F8028091F9029091FA020E9428
:1029F000DFCB6093F7027093F8028093F902909313
:102A0000FA02FF20D1F02091301330913113409120
:102A10003213509133136091FB027091FC0280914C
:102A2000FD029091FE020E94DFCB6093FB02709347
:102A3000FC028093FD029093FE0240E050E0BA0158
:102A400086E40E94BC536B017C0120E030E0A901C8
:102A50000E9463CD18164CF420E030E040E752E4C9
:102A6000C701B6010E9463CC03C060E070E0CB01F7
:102A700069837A838B839C83CE0101960E940C37F5
:102A80000C94DB210E94A9B80C94DB218091F50CF9
:102A90009091F60C8C38910509F4E4C40CF0DBC07D
:102AA0008335910509F431C50CF063C08B31910574
:102AB00009F4AFC254F58631910509F41FC2B4F48C
:102AC0008231910509F428C52CF4419709F4D1C14C
:102AD0000C947E218431910509F4DFC1459711F0F2
:102AE0000C947E210E94A3840C94DB2188319105F3
:102AF00009F423C20CF40CC28931910509F458C2BF
:102B00004A9709F478C20C947E218032910509F429
:102B1000A3C27CF48D31910509F487C20CF47DC207
:102B20008E31910509F488C24F9709F4BEC20C9406
:102B30007E218D34910509F487C354F48B349105BB
:102B400009F469C38C34910509F469C30C947E219E
:102B50008135910509F4C8C48235910511F00C94B2
:102B60007E21809146138F7D8061809346130C9463
:102B7000DB218E36910509F4D5C344F589369105DC
:102B800009F480C384F48535910509F4FBC40CF481
:102B9000C3C48C35910509F418C58836910509F42C
:102BA00057C30C947E218B36910509F4B0C30CF405
:102BB0008AC38C36910509F42BC48D36910511F02A
:102BC0000C947E210E94145A0C94DB2183379105CA
:102BD00009F499C5BCF48037910509F41CC40CF4C0
:102BE000C0C38137910509F41DC48237910511F0E6
:102BF0000C947E210E949DB186E491E10E94D6ADA5
:102C00000C94DB218737910509F451C69CF4853774
:102C1000910511F40C94DB218637910511F00C9489
:102C20007E210091F20C1091F30C24E08FEFF12C37
:102C300030E003C68837910509F43CC68937910511
:102C400011F00C947E2110927803109277030E9469
:102C500025530C94DB218F32E1E09E0711F40C9494
:102C60000B200CF06FC08C3C910509F4B0C7ACF59B
:102C7000873A910509F455C6C4F4833A910509F4DD
:102C800021C634F48B39910509F408C40C947E21D3
:102C9000843A910509F432C6863A910511F00C94F4
:102CA0007E210E94EB890C94DB21883C910509F47C
:102CB000E6C64CF48E3B910511F00C947E210E94E7
:102CC0003B580C94DB21893C910509F41DC78B3CD2
:102CD000910509F45AC70C947E21813D910511F4A8
:102CE0000C94A01E84F48E3C910509F47DC70CF46D
:102CF00078C78F3C910509F495C7803D910509F48B
:102D0000D5C70C947E218D3D910511F40C94CF1EF6
:102D100064F4833D910511F40C94AD1E8C3D910536
:102D200011F40C94B01E0C947E21823221E09207A3
:102D300011F40C944A1F8D32914011F40C948E1FA3
:102D40000C947E21853FE1E09E0711F40C94EA206B
:102D50000CF045C08D3921E0920711F40C943F210D
:102D6000FCF48139E1E09E0711F40C940E204CF440
:102D70008039914011F00C947E210E94877E0C9442
:102D8000DB21823931E0930711F40C9414208A3945
:102D9000914011F00C947E210E9407980C94DB2145
:102DA000853AF1E09F0711F40C941A204CF4843A10
:102DB000914011F00C947E210E9484260C94DB211A
:102DC0008C3AE1E09E0711F40C948D20843F9140F1
:102DD00011F00C947E210E9455770C94DB218A39E6
:102DE00022E0920711F40C941721B4F4873FE1E03C
:102DF0009E0711F40C94F02014F40C94ED20883FFD
:102E000021E0920711F40C94F9208C30924011F4D7
:102E10000C940A210C947E21873EE3E09E0711F476
:102E20000C943321CCF4833523E0920711F40C94F5
:102E30003021803A934011F00C947E212091F20CC5
:102E40003091F30C90916511926090936511C901D6
:102E50000E94D1810C94DB21883EE3E09E0711F4AF
:102E60000C945621893E934011F40C9459210C94F2
:102E70007E218091F80C84FF02C00C94B1228091D5
:102E8000FA0C87FF02C00C94B1228091FB0C837076
:102E900011F00C94B1220C94CF228091651183FF24
:102EA00025C086EB93E00E94A8648091651183FFA2
:102EB00017C083E891E10E94B95E8BE1E3E8F1E19C
:102EC000DE01119601900D928A95E1F760E070E0C5
:102ED000CE0101960E94CF85CE0101960E94602E00
:102EE00087EA93E00E94A8640C94DB210E947C6531
:102EF00087EC93E00E94A8640C94DB210E9451812E
:102F000080916511877F8062809365110C94DB212D
:102F1000E091F20CF091F30C8081882329F080324B
:102F200009F410823196F8CF60E08091F20C909114
:102F3000F30C0E9410820C94DB2183E50E946D2823
:102F4000882321F00E94C7250E94A85C84E50E9486
:102F50006D288823A9F00E94C7256B017C010E947F
:102F60006853C092FE0AD092FF0AE092000BF092E2
:102F7000010BCD28CE28CF2819F081E08093060BD5
:102F80000E942798882311F40C94DB210E94608111
:102F90000E9483538AEF93E10E9407811092FC0CF8
:102FA0001092FD0C1092FE0C1092FF0C0C94DB2181
:102FB0008091651182FF03C08B7F809365118091A2
:102FC000460E882319F081E00E948CB78091060B91
:102FD000813011F00C94DB2182E08093060B0E947B
:102FE0004FB66093020B7093030B8093040B909386
:102FF000050B0C94DB218091651183FD02C00C94BC
:10300000DB2183E50E946D2881110C94DA220C9457
:10301000DB210E94E55B0C94DB218091F20C909106
:10302000F30C0E94D1810C94DB21809165118E7F7D
:10303000809365110C94DB218091651183FD02C0A2
:103040000C94DB210E9492B88091F20C9091F30CC9
:103050000E942B840C94DB218091651182FD0E94DB
:10306000877E8091651183FD02C00C94DB2160E0B6
:1030700080E50E949528182F682F8091F20C90917E
:10308000F30C0E94108283E50E946D28882321F0B2
:103090000E94C7250E94A85C0E94608111110C94B7
:1030A000DB210E9483530C94DB210E9434537B016B
:1030B0008C0120E831E541E050E00E9460CBC9017D
:1030C0006DE671E00E94C3CB4B015C01C801B70102
:1030D00020E13EE040E050E00E9460CBCA01B9012F
:1030E00028E130E040E050E00E9460CB762E672E71
:1030F000C62ED72E3CE3232E312C412C512CC80157
:10310000B701A20191010E9460CBF62EE72ECA0101
:10311000B901A20191010E9460CBCB018E010F5F2A
:103120001F4F8114910499F0EF92FF927F936F9358
:103130006F927F92BF92AF929F928F9281ED93E0B8
:103140009F938F931F930F930E94DBC413C0A1140E
:10315000B104B1F0EF92FF927F936F936F927F92E1
:10316000BF92AF9285ED93E09F938F931F930F9340
:103170000E94DBC40FB6F894DEBF0FBECDBF30C0D7
:10318000CD2879F0EF92FF927F936F936F927F92A9
:1031900089ED93E09F938F931F930F930E94DBC45D
:1031A000E9CF892B69F0EF92FF927F936F938DEDBA
:1031B00093E09F938F931F930F930E94DBC4DACF0A
:1031C000EF92FF9281EE93E09F938F931F930F9363
:1031D0000E94DBC40F900F900F900F900F900F90F4
:1031E0000E947C65B80185EE93E00E945365809152
:1031F000F010882311F08F3719F48AE00E940E9A9C
:103200008091F010882311F40C94DB218AE00E9455
:10321000CC980C94DB210E9483530C94DB21809189
:10322000060B813011F00C94DB2182E08093060BB9
:103230000E944FB66093020B7093030B8093040BB4
:103240009093050B0C94DB210E94A7530C94DB2177
:103250008091451383FF02C00C94DB2183E50E941B
:103260006D28882311F40C94DB210E94FF250E9415
:10327000D5CCCB010E94CC6161E080E00E946DA8BA
:103280000C94DB210E945787182F87FD17C086EE0C
:1032900099E10E94A864812F0E940D628091F01034
:1032A000882311F08F3719F48AE00E940E9A8091DA
:1032B000F010882319F08AE00E94CC983AA5309348
:1032C000F6020C94FE2360E080E50E9489288111BB
:1032D0000C94DB2181E40E943626882321F0609142
:1032E0005313062F02C00FEF10E083E50E946D28F4
:1032F000882349F00E94C7258B016F3F710519F0A3
:1033000010F00FEF10E0009353130C94DB2160E0FA
:1033100080E50E94892881110C94DB2110925313BF
:103320000C94DB218EE40E946D28882311F40C9408
:10333000DB21E0910A05F0E0EE0FFF1FE050F34FB4
:10334000008111810E94C725000F111F000F111F5E
:10335000F801E05FF14F60837183828393830C9463
:10336000DB2183E50E943626882331F060E083E587
:103370000E948928809345130E947C6586EF93E024
:103380000E94A86480914513882309F43BC01FE381
:10339000E12E17E0F12E00E010E020E080914513CF
:1033A00090E0A0E0B0E0002E04C0B695A7959795F8
:1033B00087950A94D2F780FF1BC0DD24D394D20EE8
:1033C000222381F08091F010882311F08F3719F4B7
:1033D0008CE20E940E9A8091F010882319F08CE202
:1033E0000E94CC98F701859194910E94A8642D2D9C
:1033F0000F5F1F4F82E0E80EF11C0530110571F6DA
:103400000C94832382EF93E00E94A8640C9483239E
:1034100010921B02D0C741E060E070E08DEF93E0B6
:103420000E949A6583E50E946D28882371F00E94AE
:10343000D725282F30E02D3331051CF4809300026E
:10344000BAC78CE380930002B6C70E947C654091A6
:10345000000250E060E070E08BE094E00E94F876BB
:103460000C9483238091451383FDA5C783E50E94B7
:103470006D28882309F49FC70E94FF250E94D5CCA0
:103480006837710514F068E770E070935D1360931E
:103490005C1361E080E00E946DA88DC783E50E9407
:1034A0006D28882309F487C70E94D725182F90E03C
:1034B000CD970CF01CE31093EE020E944FB66B0107
:1034C0007C01212F30E0A8EEB3E00E94B4CBC60E01
:1034D000D71EE81EF91EC092EA02D092EB02E092DB
:1034E000EC02F092ED0267C70E9483A80E94A753E6
:1034F0000E9400800E94359868EE73E080E090E0C2
:103500000E94B8760E94389856C7809146138F7EE5
:103510008062809346134FC783E50E946D288823FD
:10352000E9F00E944FB66093D10E7093D20E809353
:10353000D30E9093D40E0E94FF2520E030E04AE79E
:1035400054E40E9470C50E94DCCC60930102709329
:10355000020280930302909304022DC78091F80C1D
:1035600084FF02C00C94DF228091FA0C87FF02C016
:103570000C94DF228091FB0C837011F00C94DF22FD
:103580000C94112383E50E943626882309F413C77F
:103590000E944FB66093D10E7093D20E8093D30EDB
:1035A0009093D40E0E94FF2520E030E04AE754E4D7
:1035B0000E9470C50E94DCCC6093EF027093F00211
:1035C0008093F1029093F202F6C60E94578787FD1E
:1035D000F2C69091F80C94FD04C09091FA0C97FFFC
:1035E0000AC0A0ECCA2EA2E0DA2EB1EBEB2EBAE0B4
:1035F000FB2E10E009C09091FB0C937091F7682F9F
:1036000081E00E94D88BD7C6F60181916F010E949C
:103610006D28882309F46DC0133009F063C00E943F
:10362000FF254B015C0120E030E040EA51E40E94BC
:103630000AC587FF4EC0A50194016091D10A70911F
:10364000D20A8091D30A9091D40A0E9463CC2B01B4
:103650003C019B01AC0160917005709171058091F6
:103660007205909173050E9470C560937005709308
:1036700071058093720590937305A3019201609187
:10368000E10A7091E20A8091E30A9091E40A0E94B3
:1036900070C56093E10A7093E20A8093E30A909305
:1036A000E40A609180057091810580918205909176
:1036B00083050E940FC5A30192010E9470C50E945C
:1036C000DCCC609380057093810580938205909394
:1036D00083058092D10A9092D20AA092D30AB09226
:1036E000D40A07C00E94FF25F701648B758B868B77
:1036F000978B1F5FF4E0EF0EF11C143009F084CFBC
:103700000E949B7D58C684E695E00E94A86460E014
:1037100084E595E00E94FD9060E08FE395E00E94D3
:10372000FD9061E088E395E00E94FD9061E08DE20C
:1037300095E00E94FD9061E08DE195E00E94FD9092
:1037400060E084E195E00E94FD9061E08AE095E010
:103750000E94FD9061E080E095E00E94FD9060E0B5
:1037600089EF94E00E94FD9061E081EF94E00E9477
:10377000FD9061E083EE94E00E94FD9060E085EDB5
:1037800094E00E94FD9060E086EC94E00E94FD9041
:1037900060E088EB94E00E94FD9060E082EA94E0B3
:1037A0000E94FD9060E081E994E00E94FD9060E05D
:1037B00082E894E00E94FD9061E08BE794E00E9433
:1037C000FD9060E086E694E00E94FD9060E088E570
:1037D00094E00E94FD9060E085E494E00E94FD90FA
:1037E00060E088E394E00E94FD9060E083E394E071
:1037F0000E94FD9061E086E294E00E94FD9060E00E
:1038000082E194E00E94FD90D6C5F8019081492F95
:103810004B7F4134A9F441814133F1F49134C9F033
:10382000953409F431E0A8014E5F5F4F8A014F5F84
:103830005F4FF80190819032C9F3215031F70CC0ED
:10384000903551F4F801918190539A3028F4892FE2
:10385000EACFFF24F394E7CFE090F010833058F4E0
:10386000882321F0813021F480E003C08FE701C07C
:1038700082E08093F01031110E947C65FF2021F0DE
:103880008BE396E00E94A8648091F010882311F0E9
:103890008F3719F4C8010E94199B8091F01088237A
:1038A00019F0C8010E94D799E092F01084C50E94D7
:1038B000F15281C581E080937803809377030E9461
:1038C000255379C560E070E083E50E947A288C0179
:1038D000833091056CF460E070E080E50E947A2806
:1038E0001127F801ED50FD4F80830E949E6C63C547
:1038F00041970CF460C50E94526E5DC56FEF7FEF7B
:1039000083E50E947A2897FD07C0803191050CF06D
:1039100052C50E94F56D4FC58091CE050E94F56D90
:103920004AC583E50E943626882321F00E94EB25B4
:103930008093471381E40E946D28882351F00E94F0
:10394000FF25609348137093491380934A13909313
:103950004B138AE50E946D28882351F00E94FF25B1
:1039600060934C1370934D1380934E1390934F13A9
:103970000E947B6D8FE396E00E94A86480914713BC
:103980000E94DC7680914713882309F4BCC685E841
:1039900093E00E94A86440914813509149136091AC
:1039A0004A1370914B138CE796E00E94EA648EE70D
:1039B00093E00E94A86440914C1350914D13609184
:1039C0004E1370914F138CE796E00E94EA6482E0F8
:1039D0000E94D67FAB01BC0181E793E00E94EA64BC
:1039E0006091501370E080E090E00E9411C520E0EB
:1039F00030E0A9010E94E0CB6B017C016091511382
:103A000070E080E090E00E9411C5A70196010E943D
:103A1000E0CB6B017C016091521370E080E090E09C
:103A20000E9411C5A70196010E94E0CB4B015C01E9
:103A3000E0E5EE2EE3E1FE2E03EF12E0F6EFCF2EEF
:103A4000F2E0DF2EF70161917F0170E080E090E00D
:103A50000E9411C520E030E048EC52E40E9470C59D
:103A6000A50194010E9463CC0E944CCC0E94D5CC4D
:103A7000F80161938F01CE16DF0621F744C60E943C
:103A80005787182F87FD97C400917A1384E40E940A
:103A90006D28882309F4C8C50E94FF256B017C01AD
:103AA00020E030E0A9010E940AC5882339F124E012
:103AB0001202F0011124EA58FC4EC082D182E28247
:103AC000F38220E030E0A9016091761370917713C2
:103AD00080917813909179130E940AC581110CC0CE
:103AE00080E090E0A0EEBFE380937613909377138D
:103AF000A0937813B093791301E096C580E080938A
:103B00007A130E948D2F57C40E94578787FD53C494
:103B100060ECC62E62E0D62E71EBE72E7AE0F72E2F
:103B200010E0F60181916F010E943626882331F161
:103B30000E94FF256C8F7D8F8E8F9F8F80E1E8E83C
:103B4000F2E0DE01119601900D928A95E1F79E0157
:103B50002F5F3F4F4BE456E0612FCE014C960E9401
:103B60006D7C6C8D7D8D8E8D9F8D0E94DCCCF701E0
:103B700060837183828393830E94547D1F5FF4E08E
:103B8000EF0EF11C143069F616C40E94578787FDAA
:103B900012C440ECE42E42E0F42E01EB1AE051ECAA
:103BA000C52E5AE0D52EF70181917F010E9436265D
:103BB000882339F00E94FF25F80164A375A386A32A
:103BC00097A30C5F1F4FC016D10669F7F4C380910D
:103BD000F90C87FD2EC58091FA0C8E7009F029C56D
:103BE0006EC50E942E8CE7C337E8E32E33E1F32E37
:103BF00010E088E5810F0E943626882351F00E944C
:103C0000FF25F7016083718382839383812F0E9454
:103C10000A321F5FF4E0EF0EF11C133051F70E94DF
:103C20005D39C9C383E50E943626882351F00E947E
:103C3000FF256093260E7093270E8093280E909395
:103C4000290E86E40E943626882381F00E94FF25F3
:103C500020E030E040E752E40E9463CC60932A0EFB
:103C600070932B0E80932C0E90932D0E8AE50E945C
:103C70003626882351F00E94FF2560932E0E709304
:103C80002F0E8093300E9093310E87E50E943626DA
:103C9000882309F490C30E94FF2560933A0E709325
:103CA0003B0E80933C0E90933D0E85C383E50E94AE
:103CB0003626882351F00E94FF256093320E7093C0
:103CC000330E8093340E9093350E86E40E94362690
:103CD000882381F00E94FF2520E030E040E752E495
:103CE0000E9463CC6093360E7093370E8093380E2B
:103CF0009093390E82E50E943626882381F00E9437
:103D0000FF2520E030E040E752E40E9463CC60935E
:103D1000420E7093430E8093440E9093450E87E5B8
:103D20000E943626882309F446C30E94FF2560932B
:103D30003E0E70933F0E8093400E9093410E3BC316
:103D400083E50E943626882309F435C30E94EB25BB
:103D50008093250E10920E0C2EC30E94F18A2BC365
:103D600083E50E946D28882331F00E94FB25909303
:103D70000A02809309028091F80C9091F90CA091AD
:103D8000FA0CB091FB0C892B8A2B8B2B09F013C3F7
:103D90006091090270910A0288E696E067C00E946D
:103DA0005787F82E87FD07C383E50E946D280F2DE6
:103DB0000F2C000C110B882361F10E94FB25F801E8
:103DC000EE0FFF1FE55FFD4F91838083000F111FF2
:103DD000000F111F9801245E3D4F7901BC01990F1E
:103DE000880B990B0E9411C52AE037ED43E25CE392
:103DF0000E9470C5F801E95FFC4F2081318142814A
:103E000053810E9470C5F70160837183828393831D
:103E1000D2C20E947C658091F010882311F08F3708
:103E200019F485E40E940E9A8091F010882319F00D
:103E300085E40E94CC988091F010882311F08F3790
:103E400021F480E38F0D0E940E9A8091F010882358
:103E500021F080E38F0D0E94CC98000F111FF80114
:103E6000E55FFD4F608171818CE696E00E943265CE
:103E70008091F010882311F08F3719F485E20E94A9
:103E80000E9A8091F010882309F43DC485E20E94C7
:103E9000CC9839C48AE50E946D28811105C083E55C
:103EA0000E946D28882331F10E94FF2520E030E038
:103EB00040E050EC0E940AC587FD3CC40E94FF25EB
:103EC00020E030E040E050E40E9463CD18160CF48E
:103ED0002CC40E94FF252091CD0A3091CE0A40913A
:103EE000CF0A5091D00A0E9470C50E94D5CCCB0158
:103EF0000E9402B28091FA0C87FD21C48091FB0CD4
:103F0000837009F01CC40E947C656091D50E70918D
:103F1000D60E84E796E00E943265F5C360E085E442
:103F20000E948928811170C080E50E94362688236E
:103F300051F00E94FF2560936A1370936B13809376
:103F40006C1390936D1389E40E943626882381F0C8
:103F50000E94FF252CEA35EC47E25EE30E9470C523
:103F600060936E1370936F1380937013909371131B
:103F700084E40E943626882381F00E94FF252CEAE3
:103F800035EC47E25EE30E9463CC6093721370935A
:103F9000731380937413909375130E947C65409102
:103FA0006A1350916B1360916C1370916D1387E8D5
:103FB00096E00E94EA642CEA35EC47E25EE3609109
:103FC0006E1370916F1380917013909171130E9412
:103FD00063CCAB01BC0183E896E00E94EA642CEA62
:103FE00035EC47E25EE36091721370917313809138
:103FF0007413909175130E9470C5AB01BC018FE7DB
:1040000096E00E94EA647FC30E9478658BE896E0A0
:104010000E94A864D0C10E94D353CDC181E00E9408
:10402000C87B0E945D39C7C180E00E94C87B0E94A6
:104030005D39C1C16FEF7FEF89E40E947A28082FB4
:104040006FEF7FEF8AE40E947A28182F8AE50E949A
:104050006D28811108C081E50E946D28D82E882323
:1040600009F473C301C0D12CC02E81E0800F8530CC
:1040700008F04CC0912E81E0810F853008F046C0D9
:104080000E94FF252B013C01F02E07FDF12C07FFBC
:1040900002C0F3E0CF2E812E17FD812C17FF02C046
:1040A000E3E09E2ECF1408F486C1E82CF4E0FF9ED6
:1040B000500111249E1440F10E2D10E0DD2071F00E
:1040C000F501E00FF11FEE0FFF1FEE0FFF1FE55B85
:1040D000F14F208131814281538103C020E030E0E3
:1040E000A9010A0D1B1D000F111F000F111F055BF9
:1040F000114FC301B2010E94E0CBF80160837183CC
:1041000082839383E394D6CFF394CCCF0E947865D7
:104110008EE893E00E94A8644EC10E94B7B8811156
:104120004AC10BE117E12CE432E039A728A7CE0100
:1041300001961C0192E5C92E98E0D92E7101F80173
:104140006591759185919491E8A5F9A581909190DB
:10415000A190B190F9A7E8A7A50194010E94DFCB37
:104160002B013C01F701608371838283938320E0FC
:1041700030E040EA51EC0E9463CD87FD0AC020E0A8
:1041800030E040EA51E4C301B2010E940AC51816AA
:104190002CF4F601849118160CF4DEC2F70181901C
:1041A0009190A190B1907F0120E030E040EA51EC85
:1041B000C501B4010E9463CD87FDD8C220E030E084
:1041C00040EA51E4C501B4010E940AC518160CF07A
:1041D000D4C2CCC20E947793EEC00E943292EBC050
:1041E00061E083E50E94952891E089270E948D93E4
:1041F000E2C081E08093180E0E94DFA11092180E99
:10420000882309F4D8C00E947C658BED96E00E945B
:10421000A864D1C08091651182FF04C0806480933E
:104220006511C9C083FFC7C00E9492B8C4C08AE5A7
:104230000E946D28882351F00E94FF256093470E4D
:104240007093480E8093490E90934A0E8091FA0C19
:1042500087FDB1C08091FB0C837009F0ACC0B2C285
:104260000E94238EA8C081E080930C0560E083E566
:104270000E94952881119FC00E94FF8C9CC083E5FD
:104280000E943626882339F00E94EB258093460E43
:104290000E94502E90C00E947C658AE097E00E94A8
:1042A000A8648091460E0E94E57685C00E94CA8768
:1042B00082C00E9434536D3371058105910520F051
:1042C0008BE397E00E946A9187E397E00E946A91EE
:1042D0000E94482E0E9489431091F0108FE780932E
:1042E000F01083E297E00E94A8641093F0108FE131
:1042F00097E090938903809388035DC00E94A9B8DA
:104300005AC00091F50C1091F60C0E944FB66093C4
:10431000D10E7093D20E8093D30E9093D40E0031B1
:1043200008F441C00E947C658091F010882311F050
:104330008F3719F484E50E940E9A8091F01088233B
:1043400019F084E50E94CC988091F010882311F038
:104350008F3741F4B8017727072E000C880B990B93
:104360000E94829A8091F010882341F0B80177274B
:10437000072E000C880B990B0E9440998091F01039
:10438000882311F08F3719F480E20E940E9A8091F1
:10439000F010882319F080E20E94CC988BE896E018
:1043A0000E94A86408C00093CE05802F0E940A6D69
:1043B00002C00E94A9B8FBA5F11102C00E94D08CD6
:1043C0002AA52093F6021AC280900303909004035A
:1043D000A0900503B0900603209158023091590235
:1043E00040915A0250915B02C501B4010E94DFCB9B
:1043F0006B017C0120E030E0A9010E9463CD87FFC2
:10440000F0C12DEC3CEC4CEC5DEBC701B6010E9419
:104410000AC518165CF0C701B601905820E030E0DC
:1044200040E251E40E940AC518161CF40E942A3288
:10443000C2CF11E020E030E0A901C701B6010E941F
:1044400063CD18160CF010E080910E0C8113EECFA6
:104450008092580290925902A0925A02B0925B0246
:1044600088E592E00E94977E20E030E0A901C70134
:10447000B6010E940AC5881F8827881F0E94F96F0D
:104480009ACF0E94877E10922F02E090751480E0F0
:104490000E9423730E944FB66093D10E7093D20E88
:1044A0008093D30E9093D40E0E940D3681E08093BA
:1044B00078030E9425538AE50E943626F82E88E567
:1044C0000E943626182F89E50E943626181344C00C
:1044D000F11611F0012F04C001E011E0FF24F39464
:1044E00082E50E946D28882319F00E94FF2504C0F0
:1044F00060E070E080E291E469837A838B839C833F
:1045000020E030E0A9010E940AC5882341F0111182
:1045100002C0002371F0CE0101960E94F1B2112376
:1045200019F080E00E942538002319F081E00E94F4
:104530002538FF2019F082E00E9425380E94233898
:1045400080917703809378038E2D0E9423730E94BD
:10455000F4350E945D392FCF082FC2CF0E94AA28C0
:104560002ACF88E50E94362681115F9889E50E944E
:10457000362681118A988AE50E943626882331F0F2
:1045800080910801817080930601129885E40E9451
:104590003626882309F40FCF0E94F9970CCF5F9835
:1045A0008A988091080181708093060112980E9478
:1045B000F99701CF0E94C7250E94A85CFCCE0E94FB
:1045C000877E88E50E943626882331F05F9A8091A5
:1045D0002B138E7F80932B1389E50E943626882328
:1045E00031F08A9A80912B138D7F80932B138AE56B
:1045F0000E943626882361F08091080180958170A1
:1046000080930601129A80912B138B7F80932B133A
:1046100085E40E943626882309F4CDCE0E94E997CE
:10462000CACE0E940080C7CE602F83E50E949528E5
:1046300066CA83E50E946D28882391F00E94FF25B9
:104640006093E50A7093E60A8093E70A9093E80A7C
:104650006093ED0A7093EE0A8093EF0A9093F00A4C
:1046600080E50E946D28882351F00E94FF25609309
:10467000E50A7093E60A8093E70A9093E80A82E5D8
:104680000E946D28882351F00E94FF256093E90A5B
:104690007093EA0A8093EB0A9093EC0A84E50E94F7
:1046A0006D28882309F487CE0E94FF256093ED0AC8
:1046B0007093EE0A8093EF0A9093F00A7CCE4091BB
:1046C000E50A5091E60A6091E70A7091E80A88E5E8
:1046D00096E00E94EA644091E90A5091EA0A6091EA
:1046E000EB0A7091EC0A82EF99E10E94EA64409132
:1046F000ED0A5091EE0A6091EF0A7091F00A81E1A3
:104700009CE10E94EA648091F010882311F08F37B9
:1047100019F48AE00E940E9A8091F010882309F41F
:104720004ACE8AE00E94CC9846CE60E070E080E0FD
:1047300090E4D1CB60E070E080E090ECCCCB82E5FF
:104740000E9436268111DFCB36CE0E9478658DE936
:1047500096E00E94A8642FCEB7FAB094B7F8B09450
:10476000F70180829182A282B38218CD0E9478657F
:104770008DEB96E00E94A8641ECE0C5F1F4FFFEFEA
:10478000CF1ADF0A27E237E12017310709F0D7CC2B
:1047900087E8E82E83E1F82E10E0F10181919191F4
:1047A000A191B1911F01F70181939193A193B193CD
:1047B0007F01812F0E940A321F5F133071F70E9420
:1047C0005D39F9CD8BEE96E00E94A8644091470ECA
:1047D0005091480E6091490E70914A0E86EE96E017
:1047E00090CF2DEC3CEC4CEC5DE3C701B6010E9490
:1047F00063CD87FD1BCEC701B60110CEAB960FB6B9
:10480000F894DEBF0FBECDBFDF91CF911F910F9106
:10481000FF90EF90DF90CF90BF90AF909F908F90E0
:104820007F906F905F904F903F902F9008954F92A0
:104830005F926F927F928F929F92AF92BF92CF9230
:10484000DF92EF92FF92CF93DF93CDB7DEB7289739
:104850000FB6F894DEBF0FBECDBF9E838D83DB0104
:10486000CD90DD90ED90FC908091301390913113BC
:10487000A0913213B091331389839A83AB83BC83A5
:104880009C01AD01C701B6010E94DFCB2B013C01A9
:10489000AD81BE818D909D90AD90BC9080912C1388
:1048A00090912D13A0912E13B0912F138D839E8381
:1048B000AF83B88727E137EB41ED58EBC301B20175
:1048C0000E9463CD87FD51C023E030E04BE953E403
:1048D000C301B2010E940AC518160CF446C02D810E
:1048E0003E814F815885C501B4010E94DFCB2B0169
:1048F0003C0124E330E040EA51EC0E9463CD87FDA7
:1049000034C023E030E04BE953E4C301B2010E941C
:104910000AC5181654F120E030E040EA51E46D81F8
:104920007E818F8198850E94DFCB2B013C0120E0A6
:1049300030E040EA51E40E940AC587FF06C0412CDE
:10494000512C30EA632E31E4732E27E137EB41ED31
:1049500058E3C301B2010E94DFCB9B01AC01C5014A
:10496000B4010E9463CD87FF02C0198280C020E09D
:1049700030E04BE953E46D817E818F8198850E9400
:10498000E0CB2B013C0120E030E041E953E40E9400
:1049900063CD181634F4412C512C21E9622E23E406
:1049A000722E27E137EB41ED58E3C301B2010E94BB
:1049B000E0CB9B01AC01C501B4010E940AC51816E9
:1049C000A4F220E030E0A90169817A818B819C8189
:1049D0000E94E0CB4B015C0120E030E040EA51E472
:1049E0000E940AC587FF06C0812C912C90EAA92E4F
:1049F00091E4B92E27E137EB41ED58E3C501B4014D
:104A00000E94DFCB9B01AC01C701B6010E9463CDC0
:104A100087FDABCF20E030E04BE953E469817A8138
:104A20008B819C810E94E0CB4B015C0120E030E057
:104A300041E953E40E9463CD181634F4812C912C83
:104A400081E9A82E83E4B82E27E137EB41ED58E346
:104A5000C501B4010E94E0CB9B01AC0191E09983B8
:104A6000C701B6010E940AC518160CF47ECF8981D1
:104A700028960FB6F894DEBF0FBECDBFDF91CF9161
:104A8000FF90EF90DF90CF90BF90AF909F908F906E
:104A90007F906F905F904F9008958F929F92AF920A
:104AA000BF92CF92DF92EF92FF92CF93DF93EC0110
:104AB0008090761490907714A0907814B090791428
:104AC00020E030E0A901C501B4010E940AC5882395
:104AD00009F44AC0C880D980EA80FB80A70196010A
:104AE000C501B4010E940AC518160CF042C02091FD
:104AF0006D1430916E1440916F1450917014C70171
:104B0000B6010E940AC5882331F1C0926D14D0927B
:104B10006E14E0926F14F092701420917114309121
:104B200072144091731450917414688179818A8150
:104B30009B810E9470C59B01AC0160E070E080E841
:104B40009FE30E94DFCB609305027093060280937F
:104B5000070290930802609105027091060280910D
:104B600007029091080208C060E070E080E89FE3CF
:104B700003C060E070E0CB01DF91CF91FF90EF9038
:104B8000DF90CF90BF90AF909F908F9008958091CD
:104B9000E8029091E902009731F04AE050E060E0CD
:104BA00070E00C9430C260E070E0CB0108950E9488
:104BB000C72597FD0CC00E94C7256F3F7105810571
:104BC000910509F034F40E94C725862F089580E0EE
:104BD00008958FEF08958091E8029091E902892B62
:104BE00039F00E94D72591E0811103C090E001C007
:104BF00091E0892F08950E94C725CB0108950F9356
:104C00001F93CF938091E8029091E902009711F1F0
:104C1000FC018F01C1912C2F2F7DA9F0C53411F01B
:104C2000C536B9F7F801108260E070E08091E802C3
:104C30009091E9020E94D4C0F801C083562F472FFB
:104C4000382F292F0BC060E070E0CF911F910F919A
:104C50000C94D4C050E040E030E020E0652F742F89
:104C6000832F922FCF911F910F91089581548A31F4
:104C700008F047C0E82FF0E04091F80C5091F90C93
:104C80006091FA0C7091FB0C04C07695679557956E
:104C900047958A95D2F7842F817040FF34C0E8523F
:104CA000F34F9081992341F1E0914313F091441324
:104CB000E90FF11D908120ED290F2A3098F09E32E6
:104CC00011F491810CC09D3211F09B3271F49181ED
:104CD00020ED290F2A3030F09E3239F49281905322
:104CE0009A3018F42E2F9F2F02C020E090E02093DE
:104CF000E8029093E90208951092E9021092E80206
:104D0000089580E0089508952F923F924F925F9208
:104D10006F927F928F929F92AF92BF92CF92DF92CB
:104D2000EF92FF920F931F93CF93DF93CDB7DEB730
:104D300067970FB6F894DEBF0FBECDBF83E50E9424
:104D400036268983882321F00E94EB25382E02C065
:104D50003090751440904C0250904D0260904E027D
:104D600070904F028090500290905102A090520299
:104D7000B09053028091540290915502A091560236
:104D8000B09157028A8B9B8BAC8BBD8B99819923F9
:104D900029F0311003C080E00E94237386E50E9451
:104DA00036268D8720E030E0A90160911D0E7091BC
:104DB0001E0E80911F0E9091200E0E940AC588231E
:104DC00009F4B1C083E40E943626882309F4B7C0F1
:104DD0000E94FF256E877F87888B998BABE4BEE0AE
:104DE000BD83AC83BB83AA83F4E0F9831E82212CAC
:104DF00088EC8F8392EC988719861A86A8ECAB878B
:104E0000B2E4BC87E12CF12CEA81FB81EE0DFF1DA1
:104E100080818F8B91819E8B1281038129853A85B8
:104E20004B855C85BC01812F902F0E940AC587FFAE
:104E300006C0AF89A987BE89BA871B870C872F89CF
:104E40003E89412F502F6E81722D8F8198850E944F
:104E50000AC587FF05C0EF89EE832E881F83088768
:104E6000F4E0EF0EF11C80E1E816F10469F6998197
:104E700091509983AA81BB815096BB83AA839111DB
:104E8000C1CF29853A854B855C856E81722D8F81D6
:104E900098850E94E0CB20E030E040E05FE30E9494
:104EA00070C52E853F85488959890E94E0CB6B01EA
:104EB0007C012DEB37E346E855EB0E9463CD87FD7F
:104EC0000AC02DEB37E346E855E3C701B6010E945F
:104ED0000AC51816A4F580E00E942373B4E0B983D4
:104EE0000C811D81E4E0EA83A7019601D8016D9150
:104EF0007D918D919C910E94DFCBF801619371931C
:104F0000819391938F01FA81F150FA83F111ECCFE3
:104F1000898181508983AC81BD815096BD83AC83EA
:104F20008111DECF0CC0311003C0BD85BB23D1F091
:104F30000E947C6588E897E00E94A8641FC0ED8508
:104F4000EE2381F020E030E0A90160911D0E709108
:104F50001E0E80911F0E9091200E0E940AC5811195
:104F60000E94F4738AE50E943626882321F00E946D
:104F7000FF250E940FB7832D0E942373332051F029
:104F800080917514811106C00E94786589E697E0CA
:104F90000E94A8640E947C658BE597E00E94A8644B
:104FA000809175140E94E5760E947C658EE497E0FE
:104FB0000E94A864C0907614D0907714E090781482
:104FC000F090791420E030E0A901C701B6010E94F9
:104FD00063CD1816FCF48091F010882311F08F3700
:104FE00039F442E0C701B6010E949E9A0E94139BC9
:104FF0008091F010882391F060917614709177146D
:10500000809178149091791442E00E945C990E94FA
:10501000D19904C089E497E00E94A864A301920199
:1050200060914C0270914D0280914E0290914F021E
:105030000E940AC581111EC0209150023091510278
:105040004091520250915302C501B4010E940AC519
:10505000811110C0209154023091550240915602A6
:10506000509157026A897B898C899D890E940AC563
:105070008823D1F067960FB6F894DEBF0FBECDBF80
:10508000DF91CF911F910F91FF90EF90DF90CF9024
:10509000BF90AF909F908F907F906F905F904F9058
:1050A0003F902F900C945D3967960FB6F894DEBF51
:1050B0000FBECDBFDF91CF911F910F91FF90EF9069
:1050C000DF90CF90BF90AF909F908F907F906F9028
:1050D0005F904F903F902F9008950E94362688232E
:1050E00041F081E02091E8023091E902232B09F49C
:1050F00080E00895CF93DF93EB010E946D28882311
:1051000021F0DF91CF910C94FB25CE01DF91CF915F
:105110000895CF93C62F0E946D28882319F0CF9150
:105120000C94D7258C2FCF910895CF93DF93C82F60
:10513000D62F0E946D28882321F0DF91CF910C9407
:10514000EB258C2F0E943626811101C08D2FDF9117
:10515000CF9108952F923F924F925F926F927F92DC
:105160008F929F92AF92BF92CF92DF92EF92FF9277
:105170000F931F93CF93DF93CDB7DEB7CA54D109F6
:105180000FB6F894DEBF0FBECDBF209175142FA7C8
:1051900087E50E943626882309F4F8C020E030E035
:1051A000A90160911D0E70911E0E80911F0E9091AD
:1051B000200E0E940AC5811105C00E94786589E110
:1051C00098E034C08AE50E946D28882379F00E9417
:1051D000FF252091E10E3091E20E4091E30E5091B7
:1051E000E40E0E94DFCB6B017C0108C0C09054022A
:1051F000D0905502E0905602F090570220E030E047
:1052000040E251ECC701B6010E9463CD87FD0AC0A0
:1052100020E030E040E251E4C701B6010E940AC537
:1052200018163CF40E9478658CE098E00E94A8640F
:1052300015C540E050E060EC7FE788E50E94BC5374
:105240002091D90E3091DA0E4091DB0E5091DC0E98
:105250000E94DFCB2B013C0140E050E060EC7FE797
:1052600089E50E94BC532091DD0E3091DE0E409105
:10527000DF0E5091E00E0E94DFCB4B015C016FEF1F
:1052800089E40E948928182F6FEF8AE40E948928F8
:10529000082FA3019201C301B2010E94E1CD811147
:1052A00050C0A5019401C501B4010E94E1CD811156
:1052B00048C020918B0E30918C0E40918D0E5091F4
:1052C0008E0EC301B2010E94DFCB20E030E0A901C5
:1052D0000E94E0CB20E030E0A9010E9463CC0E9454
:1052E000D5CC162F20918F0E3091900E4091910EBB
:1052F0005091920EC501B4010E94DFCB20E030E056
:10530000A9010E94E0CB20E030E0A9010E9463CC1B
:105310000E94D5CC062F812F012E000C990B97FDF2
:1053200004C004971CF013E001C010E0802F002E91
:10533000000C990B97FD04C004971CF003E001C01A
:1053400000E0143008F08AC4053008F087C480E01B
:105350000E94237384E01802F0011124E00FF11D74
:1053600007FDFA95EE0FFF1FEE0FFF1FE55BF14FF4
:10537000C082D182E282F3828FA50E9423739FA50F
:10538000992309F46BC40E945D3968C48AE40E94C1
:105390003626882319F00E94577360C460E070E0DD
:1053A00086E50E947A289FAF8EAF059718F087EEAA
:1053B00097E03CCF60E084E40E94952821968FAF6F
:1053C000219740E050E0BA018AE50E94BC5327963D
:1053D0006CAF7DAF8EAF9FAF279740E050E669EF8F
:1053E00075E483E50E94BC5320E030E040E752E4DE
:1053F0000E9463CC60935C0270935D0280935E02B6
:1054000090935F0240902C1350902D1360902E13B8
:1054100070902F1320E030E040EA51E4C301B20164
:105420000E94DFCB5B016C0120E030E040EA51E4F8
:105430000E940AC587FF06C0A12CB12C60EAC62EC7
:1054400071E4D72E20E030E04BE953E4C301B20110
:105450000E94E0CB4B018DA799AB20E030E041E901
:1054600053E40E9463CD181634F4812C912CA1E9E9
:10547000ADA7B3E4B9AB40903013509031136090B6
:1054800032137090331320E030E0A901C301B20160
:105490000E94E0CB7B018C0120E030E040EA51E447
:1054A0000E940AC587FF04C0E12CF12C00EA11E438
:1054B00020E030E04BE953E4C301B2010E94E0CBAD
:1054C0001B018AAB9EAB20E030E041E953E40E942F
:1054D00063CD181634F4212C312CE1E9EAABF3E466
:1054E000FEAB88E40E943626882309F46CC00E9433
:1054F000FF250E94D5CC2B013C0177FF02C06F5FD6
:105500007F4F7595679571956195710965567F4FC8
:10551000072E000C880B990B0E9411C56AAF7BAF58
:105520008CAF9DAF9701A8010E9463CD181624F49B
:10553000EAACFBAC0CAD1DAD9501A6016AAD7BAD2F
:105540008CAD9DAD0E9463CD181624F4AAACBBAC03
:10555000CCACDDACC501D6018D8F9E8FAF8FB8A3CB
:10556000C701D80189A39AA3ABA3BCA3B201550C70
:10557000880B990B0E9411C52B013C019B01AC01CA
:10558000B701C8010E94E0CB7B018C0191014AA9BF
:105590005EA90E940AC587FF03C017010AAB1EABB4
:1055A000A3019201B501C6010E94E0CB7B018C01F1
:1055B00094014DA559A90E940AC587FF5EC0470105
:1055C0000DA719AB5AC086E40E946D28882371F09C
:1055D0000E94FF252091DD0E3091DE0E4091DF0EFE
:1055E0005091E00E0E94DFCB7B018C018CE40E9485
:1055F0006D28882371F00E94FF252091D90E3091EB
:10560000DA0E4091DB0E5091DC0E0E94DFCB5B0185
:105610006C01C501D6018D8F9E8FAF8FB8A3C701D6
:10562000D80189A39AA3ABA3BCA382E40E946D28EE
:10563000882379F00E94FF252091DD0E3091DE0E47
:105640004091DF0E5091E00E0E94DFCB1B018AAB30
:105650009EAB82E50E946D28882379F00E94FF2589
:105660002091D90E3091DA0E4091DB0E5091DC0E74
:105670000E94DFCB4B018DA799ABC401ADA5B9A9A1
:105680008DA39EA3AFA3B8A7C101AAA9BEA989A74C
:105690009AA7ABA7BCA7BE016F5D7F4FCE014D9609
:1056A0000E941724882309F457C2BE01675D7F4F0B
:1056B000CE0185960E94172489AB882309F44CC239
:1056C00089A19AA1ABA1BCA18AAB9BABACABBDAB92
:1056D0009C01AD0169A57AA58BA59CA50E94DFCB95
:1056E00020E030E040E450E40E9463CC4B015C01D8
:1056F0008D8D9E8DAF8DB8A18EAB9FABA8AFB9AF8E
:105700009C01AD016DA17EA18FA198A50E94DFCB68
:1057100020E030E040E450E40E9463CC2B013C01E7
:10572000AEADBFADAB2BE9F085EB97E00E94A8646E
:1057300021962FAD2197222321F08BEA97E00E943A
:10574000A8648091F010882311F08F3719F48AE053
:105750000E940E9A8091F010882319F08AE00E942E
:10576000CC980E94877E0E940D3680E00E942373B1
:1057700081E00E94C87B882321F08FA50E942373BB
:105780006DC220911D0E30911E0E40911F0E509142
:10579000200EC301B2010E940AC581112EC02091C2
:1057A000210E3091220E4091230E5091240EC501FE
:1057B000B4010E940AC5811120C020918B0E309146
:1057C0008C0E40918D0E50918E0E6EA97FA988ADE2
:1057D00099AD0E940AC5811110C020918F0E3091A1
:1057E000900E4091910E5091920E6AA97BA98CA9BE
:1057F0009DA90E940AC58823E1F00E945773409238
:105800001D0E50921E0E60921F0E7092200E8092FE
:10581000210E9092220EA092230EB092240E88E0C8
:10582000FE017D96ABE8BEE001900D928A95E1F70E
:105830001FA660E085E40E949528882329F081E076
:1058400023968FAF239704C092E023969FAF2397B0
:105850008EE40E94362681110DC0212C312CC12CE2
:10586000D12C76011AAEAFEFADAFBFEFBBAF83E087
:10587000E1E0FBC0CE01019698AB8FA79EA78DA754
:1058800010E0C12CD12C3CE0E32E32E4F32E412C6D
:1058900040E8542E49E8642E43E4742E1E0195E13D
:1058A000290E311C1230B1F018F4113051F004C03F
:1058B0001330E9F0143001F1CD8ADE8AEF8AF88ED8
:1058C00004C04D8A5E8A6F8A788EC98EDA8EEB8E1E
:1058D000FC8E1AC080E090E0ABE1B3E48D8B9E8B30
:1058E000AF8BB88F898F9A8FAB8FBC8F0DC0CD8A4D
:1058F000DE8AEF8AF88E04C04D8A5E8A6F8A788EBF
:10590000498E5A8E6B8E7C8E109234131092351302
:10591000109236131092371300E024E041E0BE01EC
:10592000675E7F4FC1010E9453B34B015C019B0135
:10593000AC010E94E1CD811191C1ADA5BEA58D92B2
:105940009D92AD92BD92BEA7ADA71F5F153009F025
:10595000A9CF412C512C20E2622E21E4722EA12CE1
:10596000B12C00E211ECEFA5F8A9C190D190E19023
:10597000F190F8ABEFA79501A801C701B6010E940D
:1059800063CD181614F456018701A3019201C701D3
:10599000B6010E940AC587FF02C0260137018FA504
:1059A00098A982159305F9F6A3019201B501C801E2
:1059B0000E94DFCB20E030E040E85FE30E9463CD4F
:1059C00018160CF44BC177FA709477F870944092E3
:1059D00034135092351360923613709237130E942D
:1059E00055773CC1C101A4E01A02800D911D11241C
:1059F0008C01000F111F000F111F055B114FA70134
:105A0000960127966CAD7DAD8EAD9FAD27970E9418
:105A1000E0CBF80160837183828393830E94C56524
:105A2000FCADFF5FFCAF1FA61DA59BAD911336C05B
:105A300023E02216310409F492C0A7019601C701A0
:105A4000B6010E94E1CD81118AC0BAADBB2309F431
:105A5000FFC091E09DAFA4E0ABAF80E0BFEF2B1A99
:105A60003B0A2296EFAD2297EC5F2296EFAF22978A
:105A7000FAAD21E0F227FAAF8DA722968FAD2297DB
:105A80008CAF822D022C000C990BAA0BBB0B2B9612
:105A90008CAF9DAFAEAFBFAF2B97C6CF612F012E9E
:105AA000000C770B880B990B0E9411C5A301920182
:105AB0000E9470C52EA93FA948AD59AD0E94E0CB08
:105AC0006D8B7E8B8F8B988F2B966CAD7DAD8EAD55
:105AD0009FAD2B970E9411C5A50194010E9470C52E
