:100000000C941D1F0C944E1F0C944E1F0C944E1FED
:100010000C944E1F0C944E1F0C944E1F0C944E1FAC
:100020000C944E1F0C944E1F0C944E1F0C944E1F9C
:100030000C944E1F0C9447770C944E1F0C944E1F3B
:100040000C944E1F0D944D2F0C944E1F0C944E1F6C
:100050000C944E1F0C944E1F0C94ABAA0C94FD767E
:100060000C944E1F0C94DD3B0C94D33B0C944E1F10
:100070000C944E1F0C944E1F0C944E1F0C944E1F4C
:100080000C944E1F0C944E1F0C944E1F0C944E1F3C
:100090000C944E1F0C944E1F0C944E1F0C944E1F2C
:1000A0000C944E1F0C944E1F0C944E1F0C944E1F1C
:1000B0000C944E1F0C944E1F0C944E1F0C944E1F0C
:1000C0000C944E1F0C944E1F0C944E1F0C944E1FFC
:1000D0000C944E1F0C944E1F0C944E1F0C944E1FEC
:1000E0000C944E1F7B39803985398F399939123AF2
:1000F000A339AB39B339BD39C739D139E039EA3918
:10010000123AF439FE39083A153F333D6C3D513F00
:100110006C3D6C3D6C3D6C3D6C3D6C3D6C3D6C3D97
:100120006C3D6C3D6C3D6C3D6C3D6C3D6C3D6C3D87
:100130006C3D6C3D6C3D6C3D6C3D6C3D6C3D6C3D77
:100140006C3D6C3D4B3F6C3D6C3D6C3D6C3D6C3D86
:100150006C3D6C3D6C3D243F6C3D6C3D6C3D6C3D9D
:100160006C3D6C3D6C3D6C3D6C3D6C3D683F693D4C
:1001700041DA4EDA63DA70DA8DDAA2DAAFDAC0DAAF
:10018000D1DAEADA03DB1CDB35DB52DB6FDB9D0106
:10019000EF017902770223010B022F01FF01090110
:1001A0002B013D02AB01BD01ED00010151024702EF
:1001B000CD01A1016D0169019101B702FF00A50206
:1001C0009501CD015301E901E5010C94DF8F0C94F9
:1001D000F5D90C948CD30C94FAD30D94E4360C948A
:1001E0007B390C94D1390C94E8D30D9491200C9464
:1001F000EA390C941BD30C94D94F0C94AA4B0D9450
:1002000000370D94D3360D9429040C94634B0C9451
:10021000D48F0D94BB190C94683F0C9405980C94E2
:10022000ED870C94F4390C94FE390C94854E0C94A3
:10023000A3760C9423D40C9480390C948DDA0C940E
:10024000E68B0C94E7D40D94B2190C94C9D40C9499
:1002500073D30C94BF3C0D94D6190C948A990D94C9
:10026000B8190C94514B0C94EADA0C9485390C941F
:100270001CDB0C9441DA0C94DB900C94EDD20C94C2
:10028000153F0C9492990C9486990C9422540C94DA
:100290004EDA0C94F4D30C94A9980C94DCD30C94FF
:1002A00082990C9412D40D940E370D9423040C945F
:1002B00084900C94B08F0C9403DB0C94273C0C942A
:1002C00052DB0C94CE4B0C94AE590C940F510C9401
:1002D000B3390D94F2360D9427040D94EC360C943A
:1002E000B3D30C94F6D40C949C4E0C946DD70C9410
:1002F000F0450C94534E0C94BC4B0C94AFDA0C9418
:10030000083A0C94D4D30C9470DA0D9432020C9405
:1003100099390C9418D40C94F4530C9443430C94D2
:1003200077960D94F6360C944D960D9408370C94F0
:10033000A2990C94424E0D9474230D94C9190C94F7
:100340005C430D94E8360C94DD8F0D94CF210D9411
:10035000DB0E0C94C7390D94C1190C94724E0C9499
:10036000C33C0D94D5210C94EED30C9463DA0C9419
:10037000814B0D94DF0E0D9485200D94E1360C9485
:10038000D84B0D94C20E0C94E4450C94A2D20C945C
:10039000CC940D941C010C9406D40D941B370D9431
:1003A000CA0E0C94DD4B0C94513F0C94693D0C9497
:1003B000A4D30C94F1870C9408D30C94EB870C9481
:1003C0000B540D9441250C94C0DA0D9416370C94FF
:1003D000C5450D9412370C948E990C94874B0D944F
:1003E000A9190C94333D0C94BD390C940CD40C9485
:1003F00047D30C9496990C9458930C94BD890D9402
:10040000C4190C9495D30C94C0470C94B18F0C94E0
:100410006C9C0C94D64F0D94B5190D9471230C94CB
:1004200035DB0C9402D50C9430430C94D1450C94DC
:10043000B64B0C94AA990C946C3D0C94F9DC0C947A
:100440008D4B0D94373F0D94D1130C94A6990C94B9
:100450005AD30C94E9870C94F18F0C94EBB10C9463
:10046000CD760C94BBD20C94A9520C949A990C940E
:10047000E18F0D94193F0C94EA450D94BE190C942C
:1004800041400C9404DA0C94B04B0C94AB390D94AD
:10049000DB360C94DF3F0D9405140C9433970C94C9
:1004A000D4D20D94D7360C94C03C0C94243F0C94B9
:1004B0003D4E0C94EF870D9429220C94E24B0C9442
:1004C000A98B0C94243C0C94D34B0D9425040C94D0
:1004D000C24B0C94BBD50C946E960C94384E0D9474
:1004E00002040C94E0390C9400D40C94123A0D944C
:1004F000AC190D94AF190C94BFB10C94A8D40C9402
:10050000DB910C948F390D9421040C944B3F0C9487
:10051000C84B0C946A430C944F960C947B4E0C94ED
:100520004D440C94A2DA0C946FDB0C94E2D30C943F
:10053000754B0C94474E0D94D2210C94D4900C948E
:10054000A3390C943EEF0C94D8D40D9404370D9439
:10055000C60E0C94DD530C94D8FF0C9442D40C942A
:10056000B83F0D942C270C94944F0C947F960D94C7
:10057000FA360C94D1DA0C949E990C942ED34E41F9
:100580004E494E495459494E46CDCCCC3D0AD7230D
:100590003C17B7D13877CC2B329595E6241FB14F55
:1005A0000A000020410000C84200401C4620BCBE9A
:1005B0004CCA1B0E5AAEC59D7400407A10F35A0007
:1005C000A0724E18090010A5D4E80000E87648177C
:1005D0000000E40B54020000CA9A3B000000E1F561
:1005E00005000080969800000040420F000000A027
:1005F0008601000000102700000000E80300000052
:10060000006400000000000A00000000000100007B
:100610000000002C76D888DC674F0823DFC1DFAEEE
:1006200059E1B1B796E5E3E453C63AE651997696B7
:10063000E8E6C28426EB898C9B62ED407C6FFCEF80
:10064000BC9C9F40F2BAA56FA5F490055A2AF75CAE
:10065000936B6CF9676DC11BFCE0E40D47FEF52060
:10066000E6B500D0ED902E03009435770500808428
:100670001E080000204E0A000000C80C333333333C
:100680000F986E12831141EF8D2114893BE65516A8
:10069000CFFEE6DB18D1844B381BF77C1D901DA4E0
:1006A000BBE424203284725E228100C9F124ECA1D3
:1006B000E53D27434F4D4D554E49434154494F4E1B
:1006C0000044525952554E004552524F5253004920
:1006D0004E464F004543484F00456D206573706599
:1006E00072612E2E2E004D65736820706F696E74D6
:1006F000206F7574206F662072616E67650A00C393
:100700008120657370657261206465206F72646515
:100710006D0053656D206D6F76696D656E746F0049
:10072000456E642066696C65206C6973740A0042CA
:100730006567696E2066696C65206C6973740A0070
:100740004E6F206D656469610A00286E6F206669CE
:100750006C65290043757272656E742066696C65FC
:100760003A20005344207072696E74696E6720628B
:1007700079746520004E6F74205344207072696E46
:1007800074696E670A0025697920256964202569E6
:10079000682025696D20256973005072696E742088
:1007A00074696D653A20004171756563656E646FAB
:1007B0002E2E2E0045202553006F666600444542CC
:1007C00055473A004D3131322053687574646F7764
:1007D0006E004D3131332053005A38545F4D332071
:1007E0004F46462E004348414D4245525F54454DC9
:1007F0005045524154555245004241425953544587
:100800005050494E470041524353004D4F54494FB9
:100810004E5F4D4F44455300544845524D414C5F47
:1008200050524F54454354494F4E004C4F4E475F32
:1008300046494C454E414D45004155544F52455057
:100840004F52545F53445F535441545553005344E3
:10085000434152440050524F4D50545F53555050F5
:100860004F525400454D455247454E43595F504104
:100870005253455200434153455F4C494748545FEA
:100880004252494748544E45535300544F47474CF2
:10089000455F4C494748545300534F4654574152C3
:1008A000455F504F574552004255494C445F5045B3
:1008B0005243454E54004C4556454C494E475F44C3
:1008C000415441005A5F50524F42450052554E4FDD
:1008D0005554004155544F4C4556454C00505249D3
:1008E0004E545F4A4F420050524F475245535300B7
:1008F0004155544F5245504F52545F54454D50004E
:10090000564F4C554D45545249430042494E415271
:10091000595F46494C455F5452414E53464552003B
:1009200053455249414C5F584F4E5F584F46460021
:100930004649524D574152455F4E414D453A4D61F2
:10094000726C696E206D61726C696E2D322E302E64
:100950003820284E6F76202032203230323020323C
:10096000323A30323A33332920534F555243455FA0
:10097000434F44455F55524C3A68747470733A2F34
:100980002F6769746875622E636F6D2F4D61726C8D
:10099000696E4669726D776172652F4D61726C691F
:1009A0006E2050524F544F434F4C5F56455253495F
:1009B0004F4E3A312E30204D414348494E455F5409
:1009C0005950453A5A38545F4D3320455854525582
:1009D0004445525F434F554E543A31205555494492
:1009E0003A63656465326132662D343161322D348B
:1009F0003734382D396231322D63353563363266FE
:100A000033363766660A002F2F20004D31343520EB
:100A1000533C696E6465783E206F7574206F662064
:100A200072616E67652028302D31290A00416363A9
:100A3000656C65726174696F6E3A20500046523A77
:100A40000020466C6F773A200020643A0020693A13
:100A50000020703A00496E76616C69642065787494
:100A600072756465720A0046696C616D656E74200A
:100A700072756E6F75742064697374616E6365203E
:100A8000286D6D293A200046696C616D656E742091
:100A900072756E6F757420004D34323120696E634B
:100AA0006F727265637420706172616D65746572D6
:100AB0002075736167650A004F66667365747320FD
:100AC00061706C696361646F73004572723A20549F
:100AD0006F6F206661722100546F6F206661722013
:100AE00066726F6D207265666572656E63652070F3
:100AF0006F696E740A00454550524F4D204F4B0AA6
:100B000000205A323A004475616C20456E6473745B
:100B10006F702041646A7573746D656E7420286D02
:100B20006D293A2000506F7765722D6C6F737320BA
:100B30007265636F766572792000446F6E65207010
:100B400072696E74696E672066696C650A004D375C
:100B500037004D333100D406CF06C806C106B306B0
:100B60004572726F722077726974696E6720746F54
:100B700020454550524F4D210A004D323930004D2D
:100B8000343130004D313132004D31303800504178
:100B90005241444F2E20005072696E74657220736A
:100BA000746F707065642064756520746F20657261
:100BB000726F72732E2046697820746865206572A2
:100BC000726F7220616E6420757365204D393939FA
:100BD00020746F20726573746172742E20285465BE
:100BE0006D706572617475726520697320726573CA
:100BF00065742E2053657420697420616674657273
:100C00002072657374617274696E67290A004E6F91
:100C100020436865636B73756D2077697468206C19
:100C2000696E65206E756D6265722C204C617374FF
:100C3000204C696E653A2000636865636B73756D5F
:100C4000206D69736D617463682C204C617374202E
:100C50004C696E653A20004C696E65204E756D6278
:100C60006572206973206E6F74204C617374204C20
:100C7000696E65204E756D6265722B312C204C615A
:100C80007374204C696E653A20004D313130005349
:100C9000442072656164206572726F720A002121BE
:100CA000204B494C4C206361757365642062792048
:100CB0004B494C4C20627574746F6E2F70696E0ACC
:100CC000002121204B494C4C2063617573656420E1
:100CD000627920746F6F206D75636820696E61633F
:100CE000746976652074696D65202D206375727254
:100CF000656E7420636F6D6D616E643A200062757D
:100D000073793A2070617573656420666F7220692B
:100D10006E7075740A00627573793A20706175732C
:100D2000656420666F7220757365720A0062757360
:100D3000793A2070726F63657373696E670A004D4C
:100D400031303030530043617274C3A36F20696E39
:100D500073657269646F004D36303020543137004E
:100D60004572723A207574663820666F6E74206E14
:100D70006F7420696E697469616C697A65642E00AC
:100D8000000C0F00FE07022503BB01FFFE0AFE0850
:100D9000FE05080806000040F0C88888987810050D
:100DA0000808060000C0F88888888888F8050505C6
:100DB0000600012030F830200508080600002070E9
:100DC000F820202020E00509090600FF2070A8A8CF
:100DD000B888887020070505070001D86C366CD8E4
:100DE0000509090600FFF8A88888888888A8F805FA
:100DF0000A0A0600FE205050505088A8A8887003A8
:100E0000030306000340A040FFFFFFFFFFFFFFFFBB
:100E1000FFFFFFFFFFFFFFFFFFFFFFFFFFFF0000E0
:100E2000000605FF01070706020080808080800021
:100E300080030303060105A0A0A005060606000026
:100E400050F85050F8500509090600FF2070A8A07E
:100E50007028A87020050707060000C8C8102040A9
:100E6000989805070706000040A0A040A8906801D8
:100E700003030602058080800309090601FF204064
:100E8000408080804040200309090601FF804040E7
:100E900020202040408005070706000020A8702081
:100EA00070A8200505050600012020F82020020377
:100EB000030601FFC04080050101060003F802029D
:100EC00002060100C0C00507070600000810102038
:100ED000404080050707060000708898A8C8887001
:100EE00003070706010040C040404040E0050707F7
:100EF000060000708808102040F80507070600006B
:100F0000F8081030088870050707060000103050F8
:100F100090F81010050707060000F880F008088810
:100F200070050707060000304080F08888700507CC
:100F300007060000F808101020202005070706000B
:100F40000070888870888870050707060000708820
:100F50008878081060020505060100C0C000C0C006
:100F60000206060601FFC0C000C04080030505065A
:100F700001012040804020050303060002F800F82C
:100F80000305050601018040204080050707060093
:100F900000708810202000200507070600007088D8
:100FA000B8A8B88070050707060000708888F88820
:100FB0008888050707060000F04848704848F00593
:100FC0000707060000708880808088700507070684
:100FD0000000F04848484848F0050707060000F8B8
:100FE0008080F08080F8050707060000F88080F018
:100FF00080808005070706000070888080988870D0
:10100000050707060000888888F88888880307078E
:10101000060100E04040404040E0050707060000B0
:10102000381010101090600507070600008890A087
:10103000C0A090880507070600008080808080801F
:10104000F805070706000088D8A88888888805075B
:10105000070600008888C8A8988888050707060042
:101060000070888888888870050707060000F08867
:1010700088F080808005070706000070888888A8AF
:101080009068050707060000F08888F0A0908805A2
:10109000070706000070888070088870050707063B
:1010A0000000F820202020202005070706000088E7
:1010B00088888888887005070706000088888888DF
:1010C00050502005070706000088888888A8A85087
:1010D0000507070600008888502050888805070704
:1010E0000600008888502020202005070706000001
:1010F000F80810204080F80309090601FFE080800D
:101100008080808080E00507070600008040402046
:101110001010080309090601FFE0202020202020EC
:1011200020E00503030600052050880501010600A4
:10113000FEF80303030601058040200505050600AF
:101140000070087888780507070600008080F0881E
:101150008888F00505050600007080808870050706
:1011600007060000080878888888780505050600C5
:10117000007088F08070050707060000304840E0E6
:101180004040400507070600FE7088888878087090
:101190000507070600008080F08888888803070715
:1011A0000601004000C0404040E00409090601FE7D
:1011B0001000301010101090600507070600008026
:1011C000808890E09088030707060100C0404040F7
:1011D0004040E0050505060000D0A8A8A8A8050520
:1011E00005060000B0C8888888050505060000705F
:1011F000888888700507070600FEF0888888F080D8
:10120000800507070600FE788888887808080505A5
:1012100005060000B0C8808080050505060000783E
:10122000807008F00507070600002020F820202025
:1012300018050505060000888888986805050506D4
:10124000000088888850200505050600008888A8C9
:10125000A85005050506000088502050880507079E
:101260000600FE888888502040800505050600009D
:10127000F8102040F80309090601FF204040408093
:10128000404040200109090602FF80808080808064
:101290008080800309090601FF80404040204040D3
:1012A000408005030306000248A890FFFFFFFFFFF0
:1012B000FFFFFFFFFFFFFFFFFFFFFFFFFFFFFFFF3E
:1012C000FFFFFFFFFFFFFFFFFFFFFFFF0000000624
:1012D00005FF0107070602008000808080808005EE
:1012E00007070600FF2070A8A0A8702005070706C2
:1012F0000000304840E04048B0050505060000A861
:10130000508850A80507070600008850F820F820EC
:10131000200107070602008080800080808004088A
:101320000806010070806090906010E003010106E3
:101330000107A00607070600007884B4A4B48478E7
:1013400003050506010460A06000E0050505060030
:10135000002850A05028050303060001F8080803E0
:101360000101060103E00607070600007884B4A423
:10137000A48478050101060007F8040404060105A9
:10138000609090600507070600002020F8202000EC
:10139000F803050506010440A02040E0030505060A
:1013A0000104C0204020C003030306010520408043
:1013B0000507070600FE88888898E88080050808E9
:1013C00006000078E8E8E8682828280202020602F9
:1013D00003C0C00302020601FE20C003050506018A
:1013E0000440C04040E003050506010540A0400060
:1013F000E0050505060000A0502850A0050A0A06D1
:10140000000040C048506050B0507810050A0A06ED
:10141000000040C048506050A8081038050A0A066D
:101420000000C0204830E050B05078100507070693
:10143000000020002020408870050A0A06000040B5
:101440002000708888F8888888050A0A060000103D
:101450002000708888F8888888050A0A060000201D
:101460005000708888F8888888050A0A0600006895
:10147000B000708888F8888888050909060000503F
:1014800000708888F8888888050A0A0600002050BD
:1014900020708888F888888805070706000078A0EB
:1014A000A0F0A0A0B80509090600FE708880808021
:1014B00088701060050A0A060000402000F880804D
:1014C000F08080F8050A0A060000102000F88080ED
:1014D000F08080F8050A0A060000205000F880809D
:1014E000F08080F80509090600005000F88080F0BF
:1014F0008080F8030A0A060100804000E040404076
:101500004040E0030A0A060100204000E04040405D
:101510004040E0030A0A06010040A000E0404040CD
:101520004040E0030909060100A000E040404040BF
:1015300040E0050707060000704848E84848700585
:101540000A0A06000068B0008888C8A8988888053C
:101550000A0A060000402000708888888888700584
:101560000A0A0600001020007088888888887005A4
:101570000A0A060000205000708888888888700554
:101580000A0A06000068B00070888888888870059C
:101590000909060000500070888888888870050551
:1015A0000506000188502050880509090600FF083B
:1015B0007098A8A8A8C87080050A0A0600004020F4
:1015C0000088888888888870050A0A06000010202C
:1015D0000088888888888870050A0A0600002050DC
:1015E00000888888888888700509090600005000EE
:1015F00088888888888870050A0A060000102000FC
:101600008888502020202004070706010080E090F1
:101610009090E080050707060000708890A09088F1
:10162000B00508080600004020007008788878059A
:10163000080806000010200070087888780508085F
:101640000600002050007008788878050808060019
:101650000068B00070087888780507070600005019
:10166000007008788878050808060000205020706F
:1016700008788878050505060000702870A07805B0
:1016800007070600FE70888088701060050808064D
:1016900000004020007088F08070050808060000F7
:1016A0001020007088F080700508080600002050A7
:1016B000007088F0807005070706000050007088F1
:1016C000F08070030808060100804000C0404040E0
:1016D000E0030808060100204000C0404040E0034D
:1016E000080806010040A000C0404040E003070792
:1016F000060100A000C0404040E0050909060000C6
:10170000502050087888888870050808060000680E
:10171000B000B0C88888880508080600004020008E
:1017200070888888700508080600001020007088FE
:101730008888700508080600002050007088888896
:101740007005080806000068B00070888888700579
:101750000707060000500070888888700505050698
:1017600000012000F800200505050600007898A873
:10177000C8F00508080600004020008888888870A6
:101780000508080600001020008888888870050871
:101790000806000020500088888888700507070622
:1017A000000050008888888870050A0A0600FE102C
:1017B0002000888888502040800509090600FE80A6
:1017C00080F0888888F080800509090600FE5000B6
:1017D00088888850204080436172726567617220FA
:1017E0006461206D656D6F72696100477561726437
:1017F0006172206E61206D656D6F72696100446574
:101800007376696F205A00416476616E6365642067
:1018100053657474696E6773004F6666004F6E009F
:10182000554E4C4F41442046494C414D454E540085
:1018300046494C414D454E54204348414E47450092
:10184000526573742E20646520656D657267656EE0
:101850002E00446566696E69C3A7C3B5657320240D
:101860000052756E6F75742053656E736F720052FF
:10187000657472616972004D3630302042302054F8
:101880002569004D37303120542569004D373032FD
:101890002054256900556E6C6F61642046696C6147
:1018A0006D656E74202A00556E6C6F616420416C0A
:1018B0006C004D373032004C6F61642046696C61BA
:1018C0006D656E74202A0054726F636172206669C0
:1018D0006C616D656E746F202A00436F6E74696E63
:1018E0007565005075726765206D6F7265005245B1
:1018F00053554D45204F5054494F4E533A00505286
:10190000494E54205041555345440020204E6F7A93
:101910007A6C653A20004D69786572003F0043613A
:101920006E63656C004D6F76696D656E746F002037
:1019300020456E64205A3A002534642E2564206DBB
:101940006D005374617274205A3A004379636C6578
:10195000204D697800436F6D6D697420562D746F4A
:101960006F6C204D697800436F6D706F6E656E749B
:10197000203D00562D746F6F6C7320576572652083
:1019800052657365740052616E646F6D204D6978A5
:10199000003A64697361626C65003A20656E616249
:1019A0006C65004772616469656E744D69780052B8
:1019B0006573657420562D746F6F6C73004163748A
:1019C00069766520562D746F6F6C00456E636C6F81
:1019D000737572650052756E6F7574204469737407
:1019E000206D6D004C6F6164206D6D00556E6C6FE5
:1019F0006164206D6D0046696C2E204469616D2E16
:101A0000004520656D206D6DC2B3004361703A00E2
:101A10003F5A206F7574206F662072616E67652073
:101A200028003F59206F7574206F662072616E67C1
:101A30006520282D003F58206F7574206F66207236
:101A4000616E676520282D0050726F6265204F66B9
:101A500066736574205800656E7175657565696E8D
:101A6000672022006F6B00526573656E643A200038
:101A700042656420436F6F6C696E672E2E2E0041A5
:101A800071756563656E646F20626173652E2E2EBD
:101A90000023646566696E652044454641554C5493
:101AA0005F004B6420004B6920004B7020005049C0
:101AB00044204175746F74756E652066696E697334
:101AC000686564212050757420746865206C6173AA
:101AD00074204B702C204B6920616E64204B642075
:101AE000636F6E7374616E74732066726F6D2062C3
:101AF000656C6F7720696E746F20436F6E666967DF
:101B000075726174696F6E2E680A005049442041F5
:101B100075746F74756E65206661696C65642120EB
:101B200074696D656F75740A000A20436C61737384
:101B3000696320504944200A00204B643A20002069
:101B40004B693A2000204B703A20002054753A200F
:101B500000204B753A2000206D61783A2000206DFE
:101B6000696E3A200020643A200020626961733A6D
:101B70002000504944204175746F74756E65207360
:101B8000746172740A00504944204175746F747511
:101B90006E65206661696C6564212054656D7065B1
:101BA00072617475726520746F6F20686967680A66
:101BB00000504944204175746F74756E650050493A
:101BC00044204175746F74756E65206661696C653B
:101BD00064212042616420657874727564657220A6
:101BE0006E756D6265720A000000A0C10000000001
:101BF0000000000000009B4300009B430000C8431E
:101C000053657474696E67732053746F72656400F2
:101C10002062797465733B2063726320005365749E
:101C200074696E67732053746F7265642028004571
:101C30004550524F4D206461746173697A65206527
:101C400072726F722E0A002073746F726564207353
:101C5000657474696E677320726574726965766500
:101C600064202800202863616C63756C617465646E
:101C700029210A0020213D2000454550524F4D208A
:101C8000435243206D69736D61746368202D202871
:101C900073746F726564292000496E6465783A2018
:101CA0000044494749504F5453204C6F6164656468
:101CB0000A0044494749504F5453204C6F616469AE
:101CC0006E670A00204D61726C696E3D563832298C
:101CD0000A00454550524F4D2076657273696F6E0C
:101CE000206D69736D617463682028454550524FBB
:101CF0004D3D000200000000000000000000000058
:101D000000000000000000000000000000000000D3
:101D100000000000000000000000000000000000C3
:101D20000000000007FFC3FF870187FF0FFCFFFCD7
:101D30001E01FF8007FFC3FF87018FFF1FFCFFFC11
:101D40001E03FFC00000C600C7018C00180003007E
:101D5000618300C00001C600C7C18C0018000300E9
:101D6000618300C000038600C6C18C001800030117
:101D7000806300C000070600C6618C0018000301E4
:101D8000806300C0000E0600C6618C0018000301CD
:101D9000806300C0001C0600C6318FFE1FF80301DF
:101DA0008063FFC000380600C6318FFE0FFC0301C0
:101DB0008063FF8000700600C6198C00000C0301D0
:101DC000FFE30C0000E00600C6198C00000C0301C4
:101DD000FFE3070001C00600C60D8C00000C0301E4
:101DE0008063018003800600C60D8C00000C030197
:101DF0008063018007000600C6078C00000C030109
:101E00008063018006000600C6078C00000C0301F9
:101E10008063018007FFC3FF86038FFF1FFC030160
:101E20008063018007FFC3FF860387FF1FF803015C
:101E3000806301800000000000000000000000003E
:101E40000000000000000000000000000000000092
:101E50000000000000000000000000000000000082
:101E60000000000000000000000000000000000072
:101E700000000000F0004A0110013B0130012C017C
:101E8000400127015001220170011D01900118013C
:101E9000B0011301C0010E01F0010901100204019B
:101EA0003002FF006002FA009002F500C002F0006C
:101EB0000003EB004003E6008003E100D003DC00F8
:101EC0002004D700E004D200C005CD004006C800C1
:101ED000D006C3008007BE00F008B9004009B40076
:101EE000C009AF00B00AAA00B00BA500D00CA0003A
:101EF000000E9B00C01096005012910000148C0040
:101F0000C0158700B0178200B0197D00D01B780083
:101F1000001E730040206E0090226900F0246400CF
:101F200040275F0090295A00E02B5500102E5000EA
:101F300020304B0010324600E033410090353C0029
:101F40001037370070383200A0392D00B03A280021
:101F5000A03B2300603C1E00103D1900903D140082
:101F6000103E0F00703E0A00C03E0500003F00001A
:101F7000403FFBFF803FF6FFC03FF1FF2020506C49
:101F8000616E6E65724275666665724279746573DC
:101F90003A20002046726565204D656D6F72793A72
:101FA0002000436F6D70696C65643A204E6F762037
:101FB000203220323032300A00204C6173742055B8
:101FC0007064617465643A20323032302D31312DC5
:101FD0003032207C20417574686F723A20285A4F45
:101FE0004E45535441522C2048616C6C79290A00AB
:101FF0006D61726C696E2D322E302E380A004D6183
:10200000726C696E0020536F66747761726520523E
:10201000657365740A00205761746368646F672094
:1020200052657365740A002042726F776E206F7577
:10203000742052657365740A002045787465726E69
:10204000616C2052657365740A00506F7765725534
:10205000700A006175746F25632E67004732385827
:1020600059004D31303031006572726F72207772D5
:102070006974696E6720746F2066696C650A004434
:102080006F6E6520736176696E672066696C652E78
:102090000A004D32390046696D206465206375720F
:1020A000736F002553202563202563202563202599
:1020B000630020503A00656E6473746F707320681B
:1020C00069743A200020746F6F206C6F6E67206512
:1020D0007874727573696F6E2070726576656E7450
:1020E00065640A004D333033205531204525692081
:1020F00053256900504944204175746F74756E65AD
:10210000202A005049442D44202A005049442D499A
:10211000202A005049442D50202A005654726176DE
:10212000204D696E00566D696E00566D61782045D0
:1021300000566D6178205A00566D6178205900561E
:102140006D6178205800416D6178204500416D61D6
:1021500078205A00416D6178205900416D617820E6
:102160005800412D6D6F76696D656E746F00412D5D
:10217000726574726163C3A7C3A36F004163636533
:102180006C004D38340049722070617261206F72AA
:102190006967656D0054656D706572617475726113
:1021A0000041425300504C410042616279737465B2
:1021B00070205A0056656C2E2076656E746F696EBD
:1021C0006861002008204269636F004D656E7520CC
:1021D0007072696E636970616C00446573616374E9
:1021E00069766172206D6F746F7265730049722039
:1021F00070617261206F726967656D205A004732A5
:10220000385A0049722070617261206F7269676587
:102210006D2059004732385900497220706172614F
:10222000206F726967656D20580047323858004743
:102230003238005072652D617175656365722024B6
:10224000204269636F005072652D61712E20242039
:10225000084261736500417272656665636572006C
:102260005072652D61717565636572202400546F2D
:1022700074616C00466C75786F0056656C6F6369AD
:102280006461646500A521A121506F776572204FBC
:10229000757461676500436F6E6669677572617416
:1022A000696F6E0052756E61776179205761746352
:1022B000683A204F464600313330004245443A20C8
:1022C0003130306B207769746820342E376B207082
:1022D000756C6C2D75700052756E61776179205741
:1022E000617463683A204F4E004D61782054656DEB
:1022F0007000323735004D696E2054656D700045B1
:10230000313A203130306B207769746820342E37B1
:102310006B2070756C6C2D757000505355004765BF
:102320006E657269630050726F746F636F6C003119
:102330002E30004261756400313135323030006832
:10234000747470733A2F2F7777772E616C69657884
:1023500070726573732E636F6D2F6974656D2F33A3
:10236000323936353430363339362E68746D6C0078
:102370005A4F4E4553544152205A5249425F5636A5
:10238000004475616C205A20454E4453544F500010
:102390004455414C205A2044524956455200544914
:1023A00054414E2045585452554445520042696CA0
:1023B000696E656172204C6576656C696E67004573
:1023C0007874727564657273007777772E7A6F6EA2
:1023D000657374617233642E636F6D005A38545F95
:1023E0004D3300323032302D31312D3032006D61BD
:1023F000726C696E2D322E302E380056312E372EEB
:102400003100546865726D6973746F727300426F46
:1024100061726420496E666F005072696E746572F5
:1024200020496E666F004D3130303000506172616E
:102430007220696D7072657373C3A36F0052657407
:102440006F6D617220696D7072657373C3A36F00E5
:102450004261636B0053746F7000496E6963692E4B
:102460002063617274C3A36F205344004D32310066
:1024700052656C65617365204D65646961004D321C
:1024800032004465736C69676172004D38310054E5
:10249000726F6361722066696C616D656E746F0046
:1024A00041626F7574205072696E74657200416686
:1024B000696E61720050617573617220696D70722E
:1024C000657373C3A36F004D6F6E69746F72697A21
:1024D0006172005061726B696E672E2E2E000000D3
:1024E0005761697420666F720066696C616D656E14
:1024F00074206368616E676500746F207374617225
:1025000074005761697420666F720066696C616D52
:10251000656E7420756E6C6F616400004E6F7A7A20
:102520006C652068656174696E6700506C656173E5
:102530006520776169742E2E2E00005072657373CA
:1025400020627574746F6E00746F2068656174200A
:102550006E6F7A7A6C650000496E736572742066DE
:10256000696C616D656E7400616E64207072657374
:102570007320627574746F6E00746F20636F6E7475
:10258000696E7565005761697420666F72006669CF
:102590006C616D656E74206C6F61640000507265D3
:1025A000737320427574746F6E00746F207265735C
:1025B000756D65207072696E7400005761697420D2
:1025C000666F72207072696E7400746F207265732A
:1025D000756D652E2E2E00005761697420666F722E
:1025E0000066696C616D656E742070757267650058
:1025F000006F70656E00545249474745524544008C
:1026000066696C616D656E74007A5F70726F626589
:10261000007A325F6D696E007A5F6D696E00795F76
:102620006D696E00785F6D696E005265706F7274CF
:10263000696E6720656E6473746F70207374617463
:1026400075730A00200820426173650045310062FD
:102650006564002C2073797374656D2073746F70DA
:1026600070656421204865617465725F49443A2051
:1026700000544845524D414C2052554E4157415906
:1026800000546865726D616C2052756E6177617976
:10269000004171756563696D656E746F2066616C6C
:1026A000686F750048656174696E67206661696C62
:1026B000656400202D20496E76616C696420657820
:1026C000747275646572206E756D62657220210A80
:1026D000004572723A2054204DC3A178696D6100A3
:1026E0004D415854454D5020747269676765726555
:1026F00064004572723A2054204DC3AD6E696D611D
:10270000004D494E54454D5020747269676765729B
:10271000656400202F002042403A0020403A00002B
:102720001000AA038000400100012C01B001220129
:1027300040021001F00202018003F8004004F5009D
:10274000E004ED009005E4003006DD00E006D7006F
:102750008007D1003008CC00D008C7007009C30042
:10276000100ABE00B00ABB00500BB700900CB300BB
:10277000D00DAA00B00FA5005010A00010149600B4
:102780009016900010198C00501A8500301C8200A1
:1027900070227800B023750040256E002027690064
:1027A000A0296400502A5F00902B5A00D02C5500BD
:1027B000702D4F00E02E480050314500303341006D
:1027C000D03539006036370010373300F0382D002F
:1027D000A0392700803C1C00403D1700F03D11004F
:1027E000703E0A00C03E0500003F0000403FFBFF76
:1027F000803FF6FFC03FF1FF2053697A653A200021
:1028000043616E6E6F74206F70656E2073756264C5
:102810006972200053442063617264206F6B0A0068
:102820006F70656E526F6F74206661696C65640AC3
:1028300000766F6C756D652E696E697420666169CE
:102840006C65640A004E6F20534420636172640A11
:10285000004D32332025730046696C652073656C2A
:1028600065637465640A0046696C65206F70656E07
:1028700065643A2000454E4420535542524F55540A
:10288000494E450A002220706F7300222070617249
:10289000656E743A2200535542524F5554494E4585
:1028A0002043414C4C207461726765743A22005396
:1028B000756263616C6C204F766572666C6F770031
:1028C0004578636565646564206D61782053554281
:1028D000524F5554494E452064657074683A310A28
:1028E0000044656C6574696F6E206661696C65642F
:1028F0002C2046696C653A200046696C6520646549
:102900006C657465643A006F70656E206661696C11
:1029100065642C2046696C653A20005772697469B9
:102920006E6720746F2066696C653A200066726578
:10293000736800646F696E67004E6F7720007C3C9F
:102940003E5E2B3D3F2F5B5D3B2C2A225C0000004E
:102950002200250028002B002E0031003400020147
:102960000000050108010B010000210024002700E0
:102970002A002D003000330001010000040107018E
:102980000A010505050507050808080802020202F4
:102990000A0A0808040404040101010101010101FB
:1029A0000303030303030303040707070C0C0C0CC6
:1029B0000C0C0C0C020202020606060606060606AF
:1029C0000B0B0B0B0B0B0B0B01021020200808103C
:1029D000204010204080020102010804020101028F
:1029E0000408102040808040201008040201800468
:1029F00002018040201008040201080402010102C3
:102A00000408102040800102040810204080204566
:102A10003A0020593A0024F4D43050C38E20C2A288
:102A20004017828B7011127A910D816CD90AA861BE
:102A3000E108C7586607615143061E4B5D05C14555
:102A4000A7041A411104093D980371393103403636
:102A5000DB0265339102D4305402802E1D02632CB8
:102A6000EE01752AC501B028A001102781018F252C
:102A700064012B244B01E0223401AC211F018D2085
:102A80000D01801FFC00841EED00971DDF00B81CA7
:102A9000D200E61BC600201BBC00641AB200B219AB
:102AA000A8000A19A0006A189900D11791004017D0
:102AB0008B00B516840031167E00B31579003A15E7
:102AC0007300C7146F0058146A00EE136600881371
:102AD000630025135E00C7125B006C1257001512CD
:102AE0005400C111510070114F0021114B00D6103C
:102AF00049008D1047004610440002104200C00FEC
:102B00004000800F3E00420F3C00060F3B00CB0E02
:102B10003800930E37005C0E3500270E3400F30D9D
:102B20003200C10D3100900D3000600D2E00320DCD
:102B30002D00050D2C00D90C2B00AE0C2900850CA6
:102B400029005C0C2700350C27000E0C2600E80B32
:102B50002400C40B2400A00B23007D0B23005A0B80
:102B60002100390B2100180B2000F80A1F00D90A98
:102B70001E00BB0A1E009D0A1D00800A1D00630A7C
:102B80001C00470A1B002C0A1B00110A1A00F70937
:102B90001A00DD091900C4091900AB0919009209CE
:102BA00017007B091800630917004C091600360945
:102BB0001600200916000A091500F5081500E0089E
:102BC0001400CC081400B8081400A40814009008DD
:102BD00013007D0812006B08130058081200460805
:102BE0001200340811002308110012081100010816
:102BF0001100F0071000E0071000D0071000C00718
:102C00001000B0070F00A107100091070E00830706
:102C10000F0074070F0065070E0057070E004907E5
:102C20000E003B070D002E070E0020070D001307B6
:102C30000D0006070D00F9060C00ED060D00E0067C
:102C40000C00D4060C00C8060C00BC060C00B00634
:102C50000C00A4060B0099060C008D060B008206E2
:102C60000B0077060B006C060B0061060A00570686
:102C70000B004C060A0042060A0038060A002E061F
:102C80000A0024060A001A060A00100609000706B0
:102C90000A00FD050900F4050900EB050900E2053D
:102CA0000900D9050900D0050900C7050900BE05BE
:102CB0000900B5050800AD050800A50509009C053B
:102CC0000800940508008C050800840508007C05B0
:102CD0000800740508006C050700650508005D051F
:102CE0000700560508004E05070047050700400588
:102CF000080038050700310507002A0507002305ED
:102D000007001C050600160507000F05070008054B
:102D1000060002050700FB040600F5040700EE04A8
:102D20000600E8040600E2040700DB040600D50400
:102D30000600CF040600C9040600C3040600BD0453
:102D40000600B7040600B1040500AC040600A604A2
:102D50000600A00405009B040600950405009004ED
:102D600006008A04050085040500800406007A0434
:102D7000050075040500700405006B040500660479
:102D80000500610405005C040500570405005204B9
:102D900005004D04050048040500430405003E04F9
:102DA00004003A04050035040500300404002C0436
:102DB000050027040400230405001E0404001A046F
:102DC000040016040500110404000D0404000904A5
:102DD00005000404040000040400FC030400F803DC
:102DE0000400F4030400F0030400EC030400E8030F
:102DF0000400E4030400E0030400DC030400D8033F
:102E00000400D4030400D0030400CC030400C8036E
:102E10000300C503030024F404D9201BC40C5C0E7A
:102E20009804C4095F0265077101F405F900FB0409
:102E3000B30048048700C103690058035500030329
:102E40004500BE023A008402310053022A002902E2
:102E5000250004022000E4011C00C8011900AF0194
:102E60001700980114008401130071011000610122
:102E7000100051010E0043010D0036010B002B0123
:102E80000B0020010B00150109000C0109000301D2
:102E90000800FB000800F3000800EB000700E40056
:102EA0000600DE000600D8000600D2000600CC00B6
:102EB0000500C7000500C2000500BD000400B90000
:102EC0000400B5000400B1000400AD000400A90036
:102ED0000400A5000300A20003009F0004009B0063
:102EE0000300980003009500020093000300900087
:102EF00003008D0002008B000300880002008600A2
:102F0000020084000300810002007F0002007D00B7
:102F100002007B00020079000200770001007600C9
:102F200002007400020072000100710002006F00D4
:102F300002006D0001006C0002006A0001006900DF
:102F400002006700010066000100650001006400E6
:102F500002006200010061000100600001005F00EA
:102F600002005D0001005C0001005B0001005A00EE
:102F700001005900010058000100570001005600EF
:102F800001005500010054000100530000005300EF
:102F900001005200010051000100500001004F00EB
:102FA00001004E0000004E0001004D0001004C00E9
:102FB00001004B0000004B0001004A0001004900E5
:102FC00001004800000048000100470001004600E1
:102FD00000004600010045000000450001004400DB
:102FE00001004300000043000100420000004200D5
:102FF00001004100000041000100400001003F00CD
:1030000000003F0001003E0000003E0001003D00C6
:1030100000003D0001003C0000003C0000003C00BE
:1030200001003B0000003B0001003A0000003A00B4
:1030300001003900000039000100380000003800AC
:1030400000003800010037000000370001003600A2
:103050000000360000003600010035000000350099
:10306000000035000100340000003400000034008E
:103070000100330000003300000033000100320083
:103080000000320000003200010031000000310079
:10309000000031000100300000003000000030006E
:1030A00001002F0000002F0000002F0000002F0063
:1030B00001002E0000002E0000002E0001002D0057
:1030C00000002D0000002D0000002D0001002C004C
:1030D00000002C0000002C0000002C0001002B0040
:1030E00000002B0000002B0000002B0001002A0034
:1030F00000002A0000002A0000002A000100290028
:10310000000029000000290000002900000029001B
:10311000010028000000280000002800000028000E
:103120000000280001002700000027000000270001
:1031300000002700000027000100260000002600F4
:1031400000002600000026000000260001002500E7
:1031500000002500000025000000250000002500DB
:1031600000002500010024000000240000002400CD
:1031700000002400000024000100230000002300C0
:1031800000002300000023000000230000002300B3
:1031900000002300010022000000220000002200A5
:1031A0000000220000002200000022000100210097
:1031B000000021000000210000002100000021008B
:1031C000000021000000210001002000000020007C
:1031D000000020000000200000002000000020006F
:1031E000000020000000200001001F0000001F0060
:1031F00000001F0000001F0000001F0000001F0053
:1032000000001F0001001E0000001E0000001E0044
:1032100000001E000000A42C0000841E0000B0125C
:103220000000870A00009E050000E90200007B0103
:103230000000BF00000020436F756E7420583A00F4
:103240004E65787420436F726E657200446F6E65D0
:10325000004E65787400496E646F20706172612061
:103260006F726967656D00466164652048656967CE
:103270006874004C6576656C20426564004732389E
:103280000A473239004361746368205A204F6666EA
:1032900073657400473239204E004C6576656C20AA
:1032A000436F726E657273002044657352657420BB
:1032B00020560020446573526574206D6D00204CCB
:1032C0006576616E746172206D6D00205265747256
:1032D0006169722020560020526574726169722003
:1032E0006D6D00204175746F2D5265747261637449
:1032F00000506C65617365205265736574005052AF
:10330000494E5445522048414C5445440025533AB7
:1033100020255300454D455247C38A4E4349412E0F
:1033200020005072696E7465722068616C74656407
:103330002E206B696C6C28292063616C6C6564219C
:103340000A006563686F3A004572726F723A004214
:10335000696C696E656172204C6576656C696E6733
:1033600020477269643A0A00252900257C00203B29
:103370002043757272656E74205A00203B20456EA2
:103380006400203B20537461727400477261646969
:10339000656E74204D6978200052616E646F6D20F7
:1033A0004D697820004D32342053256C642054251B
:1033B0006C64004739322E3920452573004731208F
:1033C000462564004739322E39205A25730047318B
:1033D000205A3020463230300047312058257320A3
:1033E000592573204633303030004D34323020536D
:1033F0002569205A2573004D31303620502569202B
:10340000532569004D31303920532569004D31393C
:103410003020532569004D32303020442573004759
:10342000323852305859004739322E392045302031
:103430005A300A47315A2573004D34323020533008
:10344000205A300020496E76616C6964206578747A
:103450007275646572200020496E76616C69642023
:103460004520737465707065722000204520737468
:103470006570706572206E6F742073706563696625
:103480006965640A001FE020102010201010201031
:10349000202010201030300840048003001FE03F3F
:1034A000F03FF03FF01FE01FE03FF03FF03FF00F34
:1034B000C0078003003FFFF038007030FC3020FC74
:1034C000102078102030102C00D02E31D02F7BD03F
:1034D0002F7BD02E31D02C00D0203010207810201F
:1034E000FC1030FC303800703FFFF03FFFF0380038
:1034F000703186302387102787902F87D02F03D0F5
:103500002030102078102078102030102F03D02F7A
:1035100087D02787902387103186303800703FFF8F
:10352000F01FFFF81FFFF8041040020820020820D7
:103530000410400820801041001041000820800441
:1035400010400000001FFFF81FFFF83300CC00CC34
:103550001200480048120048004812004800481372
:10356000FFCFFFC810000000081FFF83FFF8000F07
:10357000C7E000000FEFE0000003EF80000001EF64
:10358000000000006C000000000000002568753A93
:1035900025303268750025687564202530326875DD
:1035A0003A2530326875002020202020202000504D
:1035B0007265737320627574746F6E20746F2072FD
:1035C0006573756D650A005072657373206275745A
:1035D000746F6E20746F2068656174206E6F7A7AE4
:1035E0006C650A004F46460A0046616465204865DE
:1035F000696768742000426564204C6576656C6973
:103600006E6720004661696C656420746F20656E8A
:1036100061626C6520426564204C6576656C696EFC
:10362000670A00496E76616C6964206D6573682E67
:103630000A0056652D4A65726B00565A2D4A65720E
:103640006B0056592D4A65726B0056582D4A6572AB
:103650006B0050726F62652059204F666673657407
:103660000050726F62652058204F66667365740063
:103670004520706173736F2F6D6D005A20706173F8
:10368000736F2F6D6D005920706173736F2F6D6DA7
:10369000005820706173736F2F6D6D00496E6974EF
:1036A000004D34323800496E697469616C697A651D
:1036B00020454550524F4D0046696C616D656E74F2
:1036C0006F00506173736F2F6D6D0050726F626584
:1036D000204F66667365747300416363656C657241
:1036E0006174696F6E0056656C6F6369747900442C
:1036F0006566696E69722064657376696F005072E1
:103700006F62696E6720506F696E740025532025C3
:10371000692F25690050726F62696E67206D65734D
:103720006820706F696E7420004F66667365742040
:10373000636174636865642021006661696C2C2094
:103740006D616E75616C206C6576656C00466169B3
:103750006C21204D6F766520646F776E2050726FFC
:1037600062652E00546F206361746368206F666623
:1037700073657400202844525952554E290047322F
:1037800039204175746F20426564204C6576656C04
:10379000696E67003F20284C2C522C462C42292071
:1037A0006F7574206F6620626F756E64732E0A00E9
:1037B0003F2856296572626F7365206C6576656C6B
:1037C00020696D706C61757369626C652028302D9D
:1037D00034292E0A00426164205A2076616C756596
:1037E0000A004E6F2062696C696E656172206772B3
:1037F00069640A00204D393220580020204D61783C
:103800003A200020204D696E3A2000536F667420E4
:10381000656E6473746F70733A2000496D707265E1
:103820007373C3A36F2063616E63656C6164610031
:103830004D323520500A4D32340050617573696E37
:10384000672E2E2E00205A3A200020593A2000429E
:10385000656420583A20005072696E74205061757A
:103860007365640050726F62696E67204661696CAF
:1038700065640A0050726F62696E67204661696C08
:10388000656400486F6D6520257325732573204698
:103890006972737400496E736572742066696C6135
:1038A0006D656E7420616E64207072657373206242
:1038B0007574746F6E0A0020573A005A38545F4D81
:1038C000332070726F6E74612E005072696E74696D
:1038D0006E672E2E2E00220A00556E6B6E6F776E6D
:1038E00020636F6D6D616E643A20220053746172C3
:1038F00074205072696E740043616E6E6F7420653F
:103900006E746572207375626469723A2000022ECB
:103910002E00012052656361727265676172005208
:10392000657665727365204772616469656E7400BF
:103930002020456E6420562D746F6F6C00537461A7
:10394000727420562D746F6F6C005761726E696EC1
:10395000673A20486F6D696E672042756D7020442C
:10396000697669736F72203C20310A00206C696DA2
:103970006974656420746F2000204D617820000018
:10398000004842000048420000804002020400005B
:10399000A0400000A040000000400000A54300003F
:1039A0009B430000C843FFFFFF2052004545505293
:1039B0004F4D20496E697469616C697A65640A00CB
:1039C00048617264636F6465642044656661756C08
:1039D000742053657474696E6773204C6F616465FD
:1039E000640A003B200020204D3630332000202088
:1039F0004D34313220530046696C616D656E742020
:103A000072756E6F75742073656E736F723A0020F5
:103A1000550046696C616D656E74206C6F61642F32
:103A2000756E6C6F6164206C656E677468733A00C4
:103A300020204D3835312058005A2D50726F626564
:103A4000204F66667365740020204D323039205354
:103A5000004175746F2D526574726163743A20531E
:103A60003D3020746F2064697361626C652C203175
:103A700020746F20696E7465727072657420452DB4
:103A80006F6E6C79206D6F7665732061732072653F
:103A900074726163742F7265636F766572002020A3
:103AA0004D3230382053005265636F7665723A208C
:103AB000533C6C656E6774683E20463C756E697455
:103AC000732F6D3E0020570020204D323037205399
:103AD00000526574726163743A20533C6C656E6782
:103AE00074683E20463C756E6974732F6D3E205A93
:103AF0003C6C6966743E0020204D34313320530005
:103B0000506F7765722D4C6F7373205265636F76BB
:103B10006572793A0020204D3330312050005049F1
:103B2000442073657474696E67733A002046002000
:103B3000480020204D3134352053004D61746572AA
:103B400069616C2068656174757020706172616D67
:103B500065746572733A0020204D36363600456E26
:103B60006473746F702061646A7573746D656E74CC
:103B70003A00204A002020473239205720490020AF
:103B8000204D3432302053004175746F20426564FB
:103B9000204C6576656C696E673A0020204D3230A6
:103BA00036205800486F6D65206F66667365743AFD
:103BB0000020204D323035204200416476616E6332
:103BC00065643A20423C6D696E5F7365676D656E32
:103BD000745F74696D655F75733E20533C6D696EEB
:103BE0005F66656564726174653E20543C6D696E04
:103BF0005F74726176656C5F666565647261746539
:103C00003E20583C6D61785F785F6A65726B3E203C
:103C1000593C6D61785F795F6A65726B3E205A3CF2
:103C20006D61785F7A5F6A65726B3E20453C6D61BD
:103C3000785F655F6A65726B3E0020540020204DFE
:103C4000323034205000416363656C657261746981
:103C50006F6E2028756E6974732F7332293A205065
:103C60003C7072696E745F616363656C3E20523CA8
:103C7000726574726163745F616363656C3E205446
:103C80003C74726176656C5F616363656C3E0020B5
:103C9000204D3230312058004D6178696D756D20AE
:103CA000416363656C65726174696F6E2028756E1F
:103CB0006974732F7332293A0020204D323033203B
:103CC00058004D6178696D756D2066656564726137
:103CD0007465732028756E6974732F73293A0053C5
:103CE000746570732070657220756E69743A002077
:103CF000440020204D32303020530020446973614D
:103D0000626C65640A0046696C616D656E7420734F
:103D1000657474696E67733A0020204D3134392020
:103D200043203B20556E69747320696E2043656C97
:103D3000736975730A0020286D6D290020204732B1
:103D400031202020203B20556E69747320696E203D
:103D50006D6D000000FA430000FA430000A040002F
:103D600000C8420000A0420000A0420000C843007A
:103D700000C843B80B0000B80B000064000000103E
:103D8000270000496D7072696D697220646F20535D
:103D900044004D6F7665722025736D6D004D6F7612
:103DA000657220302E316D6D004D6F766572203159
:103DB0006D6D004D6F7665722031306D6D004D6F09
:103DC000766572206569786F004D6F766572204563
:103DD00078747275736F72004D6F766572205A0039
:103DE0004D6F7665722059004D6F766572205800D0
:103DF00000000A0B02090C0D0E0807030401000065
:103E000000000000000000000000000000000000B2
:103E1000000000000000000000000000121110006F
:103E20000000000000000000000000000000000092
:103E30000000000000002102390211241FBECFEF54
:103E4000D1E2DEBFCDBF00E00CBF13E0A0E0B2E0E6
:103E5000E6E2F3EA02E00BBF02C007900D92A43441
:103E6000B107D9F726E1A4E4B3E001C01D92AC3B51
:103E7000B207E1F71FE1CCE1DFE100E006C02197E6
:103E80000109802FFE010F94E94ECB31D10780E06C
:103E90000807A9F70F9489390D9481510C940000FB
:103EA0002F923F924F925F926F927F928F929F924A
:103EB000AF92BF92CF92DF92EF92FF920F931F9338
:103EC000CF93DF93CDB7DEB7A7970FB6F894DEBFD9
:103ED0000FBECDBF8FA32091C5142EA321E0209348
:103EE000C514809127048D3409F4D0C3843511F4AE
:103EF0000C94E630873411F00C9411318091250434
:103F0000909126048B31910509F463C1F4F4883053
:103F10009105D1F14CF497FDB5C382309105A4F120
:103F2000049709F412C1AEC38B30910509F44CC15A
:103F30008531910511F40C9413310A9709F0A2C34D
:103F400081E00E94D0DD0C9413318A32910509F48E
:103F5000B9C254F48D31910509F465C10CF453C113
:103F60004E9709F47EC18EC38B35910509F4F4C1D7
:103F70008C35910509F4F5C18A35910509F082C3A4
:103F80001092F5140C9413318091B406813011F025
:103F90000C94133119821A821B821C82CE01019665
:103FA0005C012BEFE22E25E1F22E06E512E033E074
:103FB000C32E30E1D32E912C88E5890D0E94A8F9FB
:103FC000F50181935F01882311F10E944DF72B01C8
:103FD0003C01892D0E949AE6882351F0F801208146
:103FE000318142815381C301B2010F94F24E09C065
:103FF000F6012081318142815381C301B2010F94C6
:10400000F14EF70160837183828393830AC0F801C4
:1040100080819181A281B381F70180839183A28302
:10402000B3839394F4E0EF0EF11C0C5F1F4F24E078
:10403000C20ED11C33E09312BFCF85E40E94A8F9D1
:104040008C83882301F10E944DF76B017C0183E092
:104050000E949AE6882371F02091620230916302F7
:104060004091640250916502C701B6010F94F24E6F
:104070006B017C01C0920716D0920816E0920916D7
:10408000F0920A1610C08091620290916302A09192
:104090006402B09165028093071690930816A0936E
:1040A0000916B0930A1680914516882381F08091F5
:1040B000D71082FF0CC08C81882349F0898181113F
:1040C00003C08A81882319F080E00F94731840E0C0
:1040D00050E0BA0186E40E94026020E030E0A901CD
:1040E0000F947550181684F40E944DF720E030E0CC
:1040F00040E752E40F94754F60938D0270938E02E7
:1041000080938F029093900280912416882311F45B
:104110000C944E3185E40E9484F7882311F40C94AA
:104120004E3188E50E9484F781110C944E3189E567
:104130000E9484F781110C944E318AE50E9484F725
:1041400081110C944E310C941C3180E50E94A8F929
:10415000882329F00F94BD066B017C0103C0C12C9C
:10416000D12C760183E50E94A8F9882361F00E9492
:104170004DF720E030E04AE754E40F9454480F94A0
:10418000EE4F6B017C010F94A3298091541481118F
:1041900005C060E089ED96E00F949A130F946A379A
:1041A000C60ED71EE81EF91E0F946A37DC01CB013C
:1041B0008C199D09AE09BF09B7FD02C00C941331DB
:1041C00080E00E943D36F0CF80E00E94D0DD0C946C
:1041D00013310F94661C81110C9413318CE0ECE9BF
:1041E000F2E0DE01119601900D928A95E1F760E010
:1041F00070E080E50E9444EDBE016F5F7F4F0F9439
:10420000F50E0C9413318091C3148770873011F030
:104210000C94793160E08FE40E94B5F981110C941F
:1042200013310C9479310F946A376093B40C709306
:10423000B50C8093B60C9093B70C0F94661C81114B
:104240000C9413318091FA14882311F40C94E93101
:1042500060E08FE40E94B5F981110C9413310C9445
:10426000E9312091B7143091B8144091B9145091AC
:10427000BA14609156027091570280915802909141
:1042800059020F94F24EAB01BC0188E50E94026016
:1042900069837A838B839C832091BB143091BC14F7
:1042A0004091BD145091BE1460915A0270915B020E
:1042B00080915C0290915D020F94F24EAB01BC01C3
:1042C00089E50E9402606D837E838F839887BE019B
:1042D0006B5F7F4FCE0101960F943807882311F44E
:1042E0000C94133180E00E94FAE00E947CA161E00E
:1042F00085E40E94B5F901E021E0482FBE016B5F23
:104300007F4FCE0101960F941E1D6B017C019B0116
:10431000AC010F94F350811119C049815A816B810E
:104320007C818FE498E30E943FE54D815E816F813F
:1043300078858AE498E30E943FE5B701A60185E409
:1043400098E30E943FE58AE00E9411350E9463A134
:104350000E94DFA30C9413318FE08093F5140C942A
:10436000133180912404882349F1893009F0A6C0D3
:1043700083E1A82E83E0B82E96E5E92E92E0F92E8F
:10438000D12C00E010E0F50181915F010E94A8F9B5
:10439000882369F00E944DF7F7016083718382835F
:1043A0009383133011F401E002C0DD24D3941F5F26
:1043B000F4E0EF0EF11C143031F775C0B3E12B2E91
:1043C000B3E03B2E1BE0E12E15E1F12E26E532E0B5
:1043D0003DA32CA303E0C02E00E1D02E00E010E0AE
:1043E000F10181911F010E94A8F9882309F44AC0B4
:1043F0000E944DF72B013C01133049F0F60120815A
:104400003181428153810F94F14E2B013C01ECA18B
:10441000FDA12081318142815381C301B2010F94FA
:10442000F14E4B015C012DEB37E346E855EB0F9461
:10443000755087FD0AC02DEB37E346E855E3C5010B
:10444000B4010F94EE471816ECF4133051F4409277
:10445000620250926302609264027092650201E00F
:1044600011C0A5019401F70160817181828193815E
:104470000F94F24EF7016083718382839383812FBF
:104480000F94D92D1F5FF4E0EF0EF11C2CA13DA17C
:104490002C5F3F4F3DA32CA334E0C30ED11C14303E
:1044A00009F09ECF05C0DD2019F00E94DDA306C0F3
:1044B000002321F082E692E00F94462C0E94DFA3B5
:1044C0000C9413318091B406813011F00C941331A7
:1044D00089E40E94A8F9E82E882321F00E9449F778
:1044E000082F01C000E08AE40E94A8F9F82E882372
:1044F00021F00E9449F7182F01C010E0EE2011F0C2
:10450000043020F4FF2041F0143030F086EE96E0C5
:104510000E947EE40C94133180E1E6E5F2E0ABEF1B
:10452000B5E101900D928A95E1F7EE2019F1602F27
:10453000000F770B880B990B0F94F54720911416F9
:104540003091151640911616509117160F94544835
:104550002091B8043091B9044091BA045091BB0441
:104560000F94F24E6093FB157093FC158093FD152C
:104570009093FE15FF2019F1612F110F770B880B17
:10458000990B0F94F5472091181630911916409108
:104590001A1650911B160F9454482091BC04309168
:1045A000BD044091BE045091BF040F94F24E60933D
:1045B000FF1570930016809301169093021660E029
:1045C00080E50E94B5F98823C1F1EE20D1F0209159
:1045D000B7143091B8144091B9145091BA14609145
:1045E000FB157091FC158091FD159091FE150F94AF
:1045F000F14E6093FB157093FC158093FD1590931D
:10460000FE15FF20D1F02091BB143091BC144091D5
:10461000BD145091BE146091FF15709100168091E9
:104620000116909102160F94F14E6093FF1570934E
:104630000016809301169093021640E050E0BA01F4
:1046400086E40E9402606B017C0120E030E0A90159
:104650000F94755018164CF420E030E040E752E417
:10466000C701B6010F94754F03C060E070E0CB0145
:1046700069837A838B839C83CE0101960E949BA1E0
:104680000C9413310F9487190C94133180912504E5
:10469000909126048B39910509F4F0C50CF015C1F1
:1046A0008335910509F429C60CF082C08A31910541
:1046B00009F446C3BCF58431910509F499C27CF430
:1046C0008131910509F480C22CF4029708F444C2A8
:1046D0000C94E330429709F417C60C94E330873109
:1046E000910509F4BAC294F48531910509F4B1C277
:1046F000469711F00C94E3300E9499B48091D71042
:10470000877F80628093D7100C9413318831910594
:1047100009F4B8C2499711F00C94E3300E946AEC96
:104720000C9413318032910509F482C3F4F48D3175
:10473000910509F466C384F48B31910509F40EC325
:104740004C9711F00C94E330809122049091230453
:104750000E94D2B70C9413318E31910509F458C3DD
:104760004F9709F48EC30C94E3308D34910509F40E
:1047700037C46CF48B34910509F42EC48C34910544
:1047800011F00C94E3300E9479A50C94133181351B
:10479000910509F49CC58235910511F00C94E33024
:1047A0008091F5148F7D80618093F5140C94133102
:1047B0008037910509F410C5E4F58A36910509F4AE
:1047C0006AC4CCF48C35910509F4F7C554F48435EA
:1047D000910509F499C58535910509F4CBC50C946B
:1047E000E3308836910509F4FFC38936910509F451
:1047F0003EC40C94E3308D36910509F416C47CF464
:104800008B36910509F485C48C36910511F00C9412
:10481000E3301092C41410928B020C9413318E3634
:10482000910509F481C48F36910509F490C40C9464
:10483000E3308737910509F423C73CF583379105A9
:1048400009F459C68CF48137910509F4CEC4823736
:10485000910511F00C94E3300E94C6C384E690E108
:104860000E9426C90C9413318537910509F4C5C6F9
:104870008637910511F00C94E330009122041091D9
:10488000230494E0F12C40E0DFC68D37910509F454
:104890001BC58CF48837910509F4F5C68937910555
:1048A00011F00C94E3301092E0041092DF040E94A7
:1048B000F7A40C9413318C38910509F4BBC48139E9
:1048C000910509F4E8C60C94E3308139E1E09E07D4
:1048D00011F40C94DE2E0CF087C08E3C910511F47F
:1048E0000C94C72CD4F58E3B910509F4C4C4C4F4D0
:1048F000843A910509F45FC734F4833A910509F4C9
:104900003EC70C94E330863A910509F467C7873AAD
:10491000910511F00C94E3300E9457ED0C94133183
:104920008B3C910509F4E3C754F4883C910509F4E4
:1049300058C7893C910509F499C70C94E3308C3C25
:10494000910511F40C94962C8D3C910511F00C946A
:10495000E3300F94CD060C9413318D3D910511F485
:104960000C94AA2DF4F4813D910511F40C94732D4F
:1049700064F48F3C910511F40C94E52C803D910575
:1049800011F40C94292D0C94E330833D910511F41E
:104990000C94802D8C3D910511F40C94832D0C9476
:1049A000E3308D3221E0920711F40C945B2E6CF40D
:1049B0008232E1E09E0711F40C94FF2D8C3291407D
:1049C00011F40C94462E0C94E3308F3221E09207C0
:1049D00011F40C94DB2E8039914011F00C94E330EB
:1049E0000F94A3290C941331883FE1E09E0711F442
:1049F0000C94E62F0CF057C0853A21E0920711F491
:104A00000C94102F2CF58C39E1E09E0711F40C94D6
:104A1000EA2E7CF4823921E0920711F40C94E42E02
:104A20008A39914011F00C94E3300E9431340C9497
:104A300013318D39E1E09E0711F40C94A830843ACB
:104A4000914011F00C94E3300E94D2F70C94133192
:104A5000853F21E0920711F40C94E02F7CF48C3A0E
:104A6000E1E09E0711F40C94832F843F914011F0F4
:104A70000C94E3300E94E56A0C941331863F21E0E8
:104A8000920711F40C94E32F873F914011F00C949E
:104A9000E33061E083E50E94B5F991E089270F9446
:104AA0007D310C9413318E3BE2E09E0711F40C949F
:104AB00094302CF58B3522E0920711F40C940330DE
:104AC0007CF48C30E2E09E0711F40C94F62F8835CC
:104AD000924011F00C94E3300E9458EB0C94133187
:104AE0008A3922E0920711F40C947B308D3B92407E
:104AF00011F00C94E3300E9407EA0C941331873EC6
:104B0000E3E09E0711F40C949A30CCF4833523E053
:104B1000920711F40C949730803A934011F00C9462
:104B2000E33020912204309123049091D7109260B9
:104B30009093D710C9010E94D2B70C941331883ECC
:104B4000E3E09E0711F40C94C230893E934011F4C7
:104B50000C94C5300C94E33080E50E94A8F98823BA
:104B600029F00F94BD066B017C0103C0C12CD12C30
:104B7000760183E50E94A8F9882361F00E944DF731
:104B800020E030E04AE754E40F9454480F94EE4F8D
:104B90006B017C010F94A32980912204909123043E
:104BA000009721F061E00F94301405C060E08FEFB2
:104BB00096E00F949A1340E0C701B6010E94953B1E
:104BC0000F94D8190C9413318091280484FF02C0EB
:104BD0000C94EC3180912A0487FF02C00C94EC31D4
:104BE00080912B04837011F00C94EC310C940A32F8
:104BF0008091D71083FF25C08FE297E00E947EE46A
:104C00008091D71083FF17C084EF90E10E9462C0AB
:104C10008BE1E4EFF0E1DE01119601900D928A95AF
:104C2000E1F760E070E0CE0101960E94F6B8CE0197
:104C300001960E94E2F980E297E00E947EE40C94E3
:104C400013310E9474E580E497E00E947EE40C94A6
:104C500013310E9458B50C941331E0912204F09165
:104C600023048081882329F0803209F41082319650
:104C7000F8CF60E080912204909123040E941AB83A
:104C80000C94133183E50E94A8F9882321F00E9437
:104C900015F70E94306684E50E94A8F98823A9F0E0
:104CA0000E9415F76B017C010E943AA5C0921E0D6F
:104CB000D0921F0DE092200DF092210DCD28CE282C
:104CC000CF2819F081E08093EE148091690D88233C
:104CD000F9F080E090E0A8E4B2E488A399A3AAA345
:104CE000BBA31C8E1D8E1E8E1F8E19821A821B82E4
:104CF0001C8200E010E020E0AE01405E5F4FBE018C
:104D0000645E7F4FCE0101960E9489FA0C941331A4
:104D10000E945634882381F00E94AAB40E9455A5AF
:104D20008EE795E10E944FB410922C0410922D044E
:104D300010922E0410922F040F94D8190C94133152
:104D40008091D71083FD02C00C94133183E50E943B
:104D5000A8F981110C941A320C94133183E40E9447
:104D600084F7882319F184E597E00E947EE480911E
:104D70003B12882391F0BE016F5F7F4F88E392E181
:104D80000E942EC08E010F5F1F4FF80181918F018D
:104D9000882339F00E941135F8CF8AE497E00E9409
:104DA0007EE48AE00E9411350C9413318091D71073
:104DB00082FF21C083E697E00E947EE46091D310D9
:104DC0007091D4108091D5109091D6104AE00E9435
:104DD00018358FE20E9411356091CF107091D0107C
:104DE0008091D1109091D2104AE00E9418350E9413
:104DF00016360C94133185E797E00E947EE40C94FC
:104E000013318091D7108E7F8093D7100C9413317B
:104E10008091D71083FD02C00C9413310F94701948
:104E200080912204909123040E9430B70C94133196
:104E30008091D71082FD0F94A3298091D71083FD14
:104E400002C00C94133160E080E50E94B5F9182F80
:104E5000682F80912204909123040E941AB883E560
:104E60000E94A8F9882321F00E9415F70E9430665D
:104E70000E94AAB411110C9413310E9455A50C94F0
:104E800013310E9406A57B018C0120E831E541E049
:104E900050E00F94444EC9016DE671E00F94C14E8D
:104EA0004B015C01C801B70120E13EE040E050E069
:104EB0000F94444ECA01B90128E130E040E050E0CF
:104EC0000F94444E762E672EC62ED72EACE32A2E94
:104ED000312C412C512CC801B701A20191010F9432
:104EE000444EF62EE72ECA01B901A20191010F949A
:104EF000444ECB018E010F5F1F4F8114910499F036
:104F0000EF92FF927F936F936F927F92BF92AF92D7
:104F10009F928F9286E897E09F938F931F930F93B2
:104F20000F94864713C0A114B104B1F0EF92FF9221
:104F30007F936F936F927F92BF92AF928AE897E0D0
:104F40009F938F931F930F930F9486470FB6F894F8
:104F5000DEBF0FBECDBF30C0CD2879F0EF92FF92FB
:104F60007F936F936F927F928EE897E09F938F93DA
:104F70001F930F930F948647E9CF892B69F0EF9227
:104F8000FF927F936F9382E997E09F938F931F9394
:104F90000F930F948647DACFEF92FF9286E997E05E
:104FA0009F938F931F930F930F9486470F900F90AB
:104FB0000F900F900F900F9060E0C8010F94301485
:104FC0000E9474E5B8018AE997E00E945DE58AE0F5
:104FD0000E9411350C9413310E9455A50C94133185
:104FE0000E948EA50C94133180916B0C83FF02C03C
:104FF0000C94133189E40E94A8F9882311F40C94CD
:105000001F320E9425F790E01816190614F481E06B
:1050100090E026E0289FF001299FF00D1124EA5B23
:10502000F94E808191810C942A3280916B0C83FF20
:1050300002C00C94133189E40E94A8F9882311F46A
:105040000C9431320E9425F790E01816190614F4DA
:1050500081E090E026E0289FF001299FF00D1124C7
:10506000EA5BF94E8081918110E00C9442320E94FB
:1050700071E6182F87FD0AC084E69AE10E947EE45B
:10508000812F0E9439AA8AE00E9411353EA13093F7
:10509000C5140C94CE3360E080E50F94F9088111BB
:1050A0000C94133181E40E9484F7882329F06091E5
:1050B0000107062F10E002C00FEF10E089E40E9404
:1050C000A8F9882399F00E9425F790E01816190690
:1050D00014F481E090E026E0289FF001299FF00D74
:1050E0001124EA5BF94E0481158108C083E50E9412
:1050F000A8F9882319F00E9415F78B01B8010F3F1A
:10510000110519F010F06FEF70E0609301070C9437
:10511000133160E080E50F94F90881110C9413318C
:10512000109201070C9413318EE40E94A8F9882391
:1051300011F40C9413310E9415F76093B40470932A
:10514000B5048093B6049093B7040C94133183E5AF
:105150000E9484F7882331F060E083E50F94F9081A
:1051600080936B0C0E9474E58DEB97E00E947EE4C7
:1051700080916B0C882369F1F6E5EF2EFBE0FF2EA2
:1051800000E010E020E080916B0C90E0A0E0B0E047
:10519000002E04C0B695A795979587950A94D2F7E7
:1051A00080FF0EC0DD24D394D20E222319F08CE2AE
:1051B0000E941135F701859194910E947EE42D2D76
:1051C0000F5F1F4F82E0E80EF11C05301105D9F684
:1051D000E8CD89EB97E0E3CD41E060E070E084EC5E
:1051E00097E00E9478E50C94133183E50E94A8F9BA
:1051F000882381F00E9425F7282F30E02D333105D8
:1052000024F4809300020C9413318CE38093000209
:105210000C9413310E9474E54091000250E060E06C
:1052200070E082ED97E00E9421E58AE00E9411354E
:105230000C94133180916B0C83FF02C00C941331DA
:1052400089E40E94A8F9882311F40C9483320E9407
:1052500025F790E01816190614F481E090E026E096
:10526000289FF001299FF00D1124EA5BF94E62811D
:1052700073810C948D320E943A64D5C783E50E94F5
:10528000A8F9882309F4CFC70E9425F7182F90E0CA
:10529000CD970CF01CE3109349030F946A376B0110
:1052A0007C01212F30E0A8EEB3E00F94984EC60E9B
:1052B000D71EE81EF91EC0924503D0924603E09225
:1052C0004703F0924803AFC70E946AECACC70E9444
:1052D000FCAA0E948EA50F94B4290E947A3468EE2D
:1052E00073E080E090E00E945AE40E947D3460E028
:1052F00089ED97E00F949A1396C78091F5148F7EED
:1053000080628093F5148FC783E50E94A8F98823F3
:10531000E9F00F946A376093B40C7093B50C8093E6
:10532000B60C9093B70C0E944DF720E030E04AE7AE
:1053300054E40F9454480F94EE4F6093010270931D
:10534000020280930302909304026DC780912804A7
:1053500084FF02C00C949E3280912A0487FF02C011
:105360000C949E3280912B04837011F00C949E3229
:105370000C94D03283E50E9484F7882309F453C744
:105380000F946A376093B40C7093B50C8093B60C8D
:105390009093B70C0E944DF720E030E04AE754E4C8
:1053A0000F9454480F94EE4F60934A0370934B034D
:1053B00080934C0390934D0336C70E9471E687FD9E
:1053C00032C79091280494FD04C090912A0497FF5D
:1053D0000AC073E1C72E73E0D72EECE6EE2EECE0A8
:1053E000FE2E10E009C090912B04937091F7682F66
:1053F00081E00F94820617C7F60181916F010E9428
:10540000A8F9882309F46DC0133009F063C00E9425
:105410004DF74B015C0120E030E040EA51E40F948D
:10542000EE4787FF4EC0A501940160918C0C7091EE
:105430008D0C80918E0C90918F0C0F94754F2B01D9
:105440003C019B01AC016091E5067091E6068091FC
:10545000E7069091E8060F9454486093E506709330
:10546000E6068093E7069093E806A3019201609117
:105470009C0C70919D0C80919E0C90919F0C0F94B0
:10548000544860939C0C70939D0C80939E0C909359
:105490009F0C6091F5067091F6068091F706909149
:1054A000F8060F94F347A30192010F9454480F9408
:1054B000EE4F6093F5067093F6068093F70690938F
:1054C000F80680928C0C90928D0CA0928E0CB0926B
:1054D0008F0C07C00E944DF7F701648B758B868B8C
:1054E000978B1F5FF4E0EF0EF11C143009F084CFAE
:1054F0000F947F2998C680E399E00E947EE460E0E3
:1055000080E299E00E940B6A60E08BE099E00E94E3
:105510000B6A61E081EB96E30E940B6A61E080E038
:1055200099E00E940B6A61E080EF98E00E940B6AAC
:1055300060E087EE98E00E940B6A61E08DED98E0F4
:105540000E940B6A61E083ED98E00E940B6A61E0C3
:105550008CEC98E00E940B6A61E084EC98E00E9479
:105560000B6A61E086EB98E00E940B6A60E088EAD3
:1055700098E00E940B6A60E089E998E00E940B6A5B
:1055800060E08BE898E00E940B6A60E085E798E0B5
:105590000E940B6A60E084E698E00E940B6A60E07B
:1055A00085E598E00E940B6A61E08EE498E00E9435
:1055B0000B6A60E089E398E00E940B6A60E08BE28E
:1055C00098E00E940B6A60E088E198E00E940B6A14
:1055D00060E08BE098E00E940B6A60E086E098E073
:1055E0000E940B6A61E089EF97E00E940B6A60E01D
:1055F00085EE97E00E940B6A16C680912204909176
:105600002304009709F498CBFC012081222309F49C
:1056100093CB60E00F94301406C6F8018081282FE8
:105620002B7F2134A1F08035F1F4F8018181805382
:105630008A30C8F498012E5F3F4F89012F5F3F4F9A
:10564000F80180818032C9F3915039F70CC0218173
:10565000213349F4813421F0853461F741E0EACF08
:10566000FF24F394E7CF41110E9474E5FF2021F05D
:1056700087E09AE00E947EE4C8010E941C36D3C5F0
:105680000E94BCA4D0C581E08093E0048093DF0435
:105690000E94F7A4C8C560E070E083E50F94EA08B3
:1056A000823038F00E9470E58BE09AE00E947EE440
:1056B000BAC58C01112788E40E94A8F98823E1F07B
:1056C0000E9449F78A3A910544F00E9449F78530D3
:1056D000914034F40E9449F705C08AEA90E002C084
:1056E00084E091E026E0209FF001219FF00D11243D
:1056F000EA5BF94E9183808382E40E94A8F98823B3
:10570000D9F00E9449F7059744F00E9449F789377C
:10571000910534F40E9449F705C085E090E002C08D
:1057200088E790E026E0209FF001219FF00D1124F2
:10573000EA5BF94E9383828386E40E94A8F988236A
:1057400009F471C50E9449F797FD09C00E9449F705
:105750008F3F910509F034F40E9449F705C080E0BD
:1057600090E002C08FEF90E026E0209FF001219FA3
:10577000F00D1124EA5BF94E9583848354C560E0F3
:1057800070E083E50F94EA088C01833091056CF496
:1057900060E070E080E50F94EA081127F801E4501A
:1057A000FC4E80830E9431FF3EC541970CF43BC5FF
:1057B0000E94C9FF38C56FEF7FEF83E50F94EA08B9
:1057C00097FD07C0803191050CF02DC50E9473DD57
:1057D0002AC5809148070E9473DD25C50E9410EEFE
:1057E00022C50E9471E6182F87FD1DC500910A157C
:1057F00084E40E94A8F9882309F4D5C60E944DF7D5
:105800006B017C0120E030E0A9010F94EE47882372
:1058100039F124E01202F0011124EA5FFA4EC0824D
:10582000D182E282F38220E030E0A9016091061586
:105830007091071580910815909109150F94EE4706
:1058400081110CC080E090E0A0EEBFE380930615CC
:1058500090930715A0930815B093091501E0A3C60E
:1058600080E080930A150F942C27DDC40E9471E616
:1058700087FDD9C453E1C52E53E0D52E6CE6E62E44
:105880006CE0F62E10E0F60181916F010E9484F722
:10589000882331F10E944DF76C8F7D8F8E8F9F8F03
:1058A00080E1E8EAF2E0DE01119601900D928A951E
:1058B000E1F79E012F5F3F4F49ED56E3612FCE0187
:1058C0004C960F946F286C8D7D8D8E8D9F8D0F94CF
:1058D000EE4FF70160837183828393830F9438299D
:1058E0001F5FF4E0EF0EF11C143069F69CC40E94B7
:1058F00071E687FD98C443E1E42E43E0F42E0CE604
:105900001CE0F70181917F010E9484F7882339F020
:105910000E944DF7F80164A375A386A397A30C5FBB
:105920001F4FFCE00C371F0761F77DC480912904ED
:1059300087FD3EC680912A048E7009F039C64091D9
:10594000A00C5091A10C6091A20C7091A30C8DE25F
:105950009AE00E943FE54091A40C5091A50C609103
:10596000A60C7091A70C89EA99E30E943FE540914B
:10597000A80C5091A90C6091AA0C7091AB0C8AE311
:105980009CE30E943FE58AE00E9411354CC437E158
:10599000E32E35E1F32E10E088E5810F0E9484F7B5
:1059A000882351F00E944DF7F70160837183828351
:1059B0009383812F0F94D92D1F5FF4E0EF0EF11C1C
:1059C000133051F70E94DFA32EC483E50E9484F7B1
:1059D000882351F00E944DF7609325167093261688
:1059E000809327169093281686E40E9484F78823D4
:1059F00081F00E944DF720E030E040E752E40F9440
:105A0000754F6093291670932A1680932B169093E6
:105A10002C168AE50E9484F7882351F00E944DF7E6
:105A200060932D1670932E1680932F169093301638
:105A300087E50E9484F7882309F4F5C30E944DF797
:105A40006093391670933A1680933B1690933C16E8
:105A5000EAC383E50E9484F7882351F00E944DF742
:105A600060933116709332168093331690933416E8
:105A700086E40E9484F7882381F00E944DF720E09D
:105A800030E040E752E40F94754F60933516709301
:105A90003616809337169093381682E50E9484F765
:105AA000882381F00E944DF720E030E040E752E487
:105AB0000F94754F6093411670934216809343166E
:105AC0009093441687E50E9484F7882309F4ABC3BA
:105AD0000E944DF760933D1670933E1680933F16DB
