:100000000C94211C0C94521C0C94521C0C94521CE9
:100010000C94521C0C94521C0C94521C0C94521CA8
:100020000C94521C0C94521C0C94521C0C94521C98
:100030000C94521C0C9468960C94521C0C94521CF8
:100040000C94521C0C94A7DC0C94521C0C94521C63
:100050000C94521C0C94521C0C9468990C941E968F
:100060000C94521C0C940D390C9403390C94521CB2
:100070000C94521C0C94521C0C94521C0C94521C48
:100080000C94521C0C94521C0C94521C0C94521C38
:100090000C94521C0C94521C0C94521C0C94521C28
:1000A0000C94521C0C94521C0C94521C0C94521C18
:1000B0000C94521C0C94521C0C94521C0C94521C08
:1000C0000C94521C0C94521C0C94521C0C94521CF8
:1000D0000C94521C0C94521C0C94521C0C94521CE8
:1000E0000C94521C7F368436893693369D361637EB
:1000F000A736AF36B736C136CB36D536E436EE3610
:100100001637F83602370C37453C633A9C3A813C47
:100110009C3A9C3A9C3A9C3A9C3A9C3A9C3A9C3A2F
:100120009C3A9C3A9C3A9C3A9C3A9C3A9C3A9C3A1F
:100130009C3A9C3A9C3A9C3A9C3A9C3A9C3A9C3A0F
:100140009C3A9C3A7B3C9C3A9C3A9C3A9C3A9C3A1E
:100150009C3A9C3A9C3A543C9C3A9C3A9C3A9C3A35
:100160009C3A9C3A9C3A9C3A9C3A9C3A983C993AE4
:100170006AE677E68CE699E6B6E6CBE6D8E6E9E607
:10018000FAE613E72CE745E75EE77BE798E7A90186
:1001900065023D0239011F016D02F3000D011702D6
:1001A000BF01B30133015F015F028502D301EF009C
:1001B0004902DD01BB010B0111022D015B01F900B8
:1001C000250149028701B90163020C9448450C944A
:1001D00054450C9422450C944DAC0C94CB7A0D9460
:1001E000E4240C94165B0D94941C0C94D37A0C9418
:1001F000B25A0D940D250C94993A0C94813C0C94B0
:100200003C450C94C67B0C94BB7A0D9451040C9421
:10021000543C0C94E6D40D94FB240D94A01C0C9437
:10022000E77F0C943F410C94B45D0C94D2740C9411
:10023000E4D40C9468710C9408540C94E8D40D9494
:100240008E1C0C94F0390C94F3390D9411250C94F8
:10025000F6770C94AD5C0C94FA400D9403250C9445
:10026000F8360C94F35A0D949D1C0C94D8E60C941B
:10027000E7400D94881C0C9493360C94E2D40C94B3
:10028000EA5B0C94637D0C9498E70C94F6450C940F
:10029000983C0C9422E90C94426E0C9440430C94CC
:1002A000E9E60C9435460C94633A0C9460400C9447
:1002B0005F710C947F360D9409250C94AF360D9424
:1002C000EA240D945A070C94DF5A0C9462710C9432
:1002D000285F0C9416370D9458070C947BE70C9408
:1002E000D15B0C9457390C946B710C940C370C94B3
:1002F0009D360C9444530D94E0020C947B3C0C947A
:1003000077E60D9467050C949E8A0C9431430D9406
:1003100017250C94906E0C94105B0C94E83C0C9494
:10032000F2440C941C5B0C94D77A0C948A6E0C9457
:1003300012A10D9408080C9484360C944C530C9420
:10034000B7360C9466450C9426460C9408510C94D0
:10035000FBA00D94A51C0C944E450C94C77A0C94EC
:10036000D65B0C9442450D949A1C0C94C37A0C9461
:10037000EF390D941B250D94F5240C94C46E0D9447
:10038000B21C0C9405730C94E05B0C9487400C94A5
:10039000E6540C94CB360C9413E70C94DDD80C94F3
:1003A0005F460C9444460D94E0240C944A7D0C94D2
:1003B000DF7A0C944D490C9456F20D94F1240C9470
:1003C0008CE60C94DB5B0C949C6E0C94E4360C94E1
:1003D000A7360C9413410C94E3770C9499E60C9493
:1003E000B9400C94CF7A0C94A0D80C943B530C9445
:1003F000EB950C94E7480D9456070C94EB7F0C9406
:10040000BF7A0C94F6480C9430450C94726E0C94A0
:100410005D7D0C94C1950C94C1360C9417460C94D8
:10042000D65A0D94FF240D945C070C9454390D9406
:10043000971C0C94D4400C9490450C944C820C94D2
:1004400058410C94713D0C943E7D0C94E55B0C94EA
:100450000F3D0C946AE60C94E15A0C9450460C94AF
:10046000546E0C9454530D94793F0C9436450C946F
:1004700001450C94B45C0C940B590D948B1C0C949A
:10048000C75B0C94CC5B0C94E37F0C94DD6F0C94F5
:10049000B3780D9424250C94A9600C945A450C94BF
:1004A000C8520D94973F0C94E4A00C947E6E0C946B
:1004B000B4D60C944E560C9429A10C9485520D94EC
:1004C000ED240C940F780D941F250D94851C0C942D
:1004D0002A450C94C15B0C94E7520D94911C0C942A
:1004E000666E0C94E35A0C945EE70C94DB7A0C94E1
:1004F000EE360C94D28A0C949C3A0C9460450C9481
:10050000E37A0C9465710C94697D0D94DC240C9451
:10051000FAE60C94FC7F0C94BB5B0C9426410C9483
:10052000B6E60C94966E0C94D5360C94A0400C94C0
:10053000B5A60C9487520C94E56E0C946E400C9406
:10054000225B0C94CE6E0C9428430C9402370C94CE
:100550002CE70C94CBE60C942DF20C94D55A0D9408
:1005600037070C94453C0C94E0D40C9489360C94D9
:1005700071450C94285B0C9445E70C94BB6E4E417E
:100580004E494E495459494E46CDCCCC3D0AD7230D
:100590003C17B7D13877CC2B329595E6241FB14F55
:1005A0000A000020410000C84200401C4620BCBE9A
:1005B0004CCA1B0E5AAEC59D7400407A10F35A0007
:1005C000A0724E18090010A5D4E80000E87648177C
:1005D0000000E40B54020000CA9A3B000000E1F561
:1005E00005000080969800000040420F000000A027
:1005F0008601000000102700000000E80300000052
:10060000006400000000000A00000000000100007B
:100610000000002C76D888DC674F0823DFC1DFAEEE
:1006200059E1B1B796E5E3E453C63AE651997696B7
:10063000E8E6C28426EB898C9B62ED407C6FFCEF80
:10064000BC9C9F40F2BAA56FA5F490055A2AF75CAE
:10065000936B6CF9676DC11BFCE0E40D47FEF52060
:10066000E6B500D0ED902E03009435770500808428
:100670001E080000204E0A000000C80C333333333C
:100680000F986E12831141EF8D2114893BE65516A8
:10069000CFFEE6DB18D1844B381BF77C1D901DA4E0
:1006A000BBE424203284725E228100C9F124ECA1D3
:1006B000E53D27434F4D4D554E49434154494F4E1B
:1006C0000044525952554E004552524F5253004920
:1006D0004E464F004543484F00536C6565702E2EC3
:1006E0002E004D65736820706F696E74206F75748D
:1006F000206F662072616E67650A00436C69636BE8
:1007000020746F20526573756D652E2E2E004E6F0E
:10071000204D6F76652E00456E642066696C6520FD
:100720006C6973740A00426567696E2066696C655E
:10073000206C6973740A004E6F206D656469610AEC
:1007400000286E6F2066696C6529004375727265BA
:100750006E742066696C653A20005344207072699B
:100760006E74696E67206279746520004E6F742024
:100770005344207072696E74696E670A0025697946
:1007800020256964202569682025696D2025697305
:10079000005072696E742074696D653A20004520BE
:1007A0002553006F66660044454255473A004D3177
:1007B00031322053687574646F776E004D31313378
:1007C0002053005A38545F4D33204F46462E004385
:1007D00048414D4245525F54454D50455241545554
:1007E000524500424142595354455050494E4700EA
:1007F00041524353004D4F54494F4E5F4D4F444576
:100800005300544845524D414C5F50524F5445435C
:1008100054494F4E004C4F4E475F46494C454E4160
:100820004D45004155544F5245504F52545F53442B
:100830005F53544154555300534443415244005074
:10084000524F4D50545F535550504F525400454DE8
:10085000455247454E43595F50415253455200431C
:100860004153455F4C494748545F425249474854B9
:100870004E45535300544F47474C455F4C494748FA
:10088000545300534F4654574152455F504F5745BC
:1008900052004255494C445F50455243454E540026
:1008A0004C4556454C494E475F44415441005A5FC0
:1008B00050524F42450052554E4F555400415554E9
:1008C0004F4C4556454C005052494E545F4A4F429A
:1008D0000050524F4752455353004155544F5245D3
:1008E000504F52545F54454D5000564F4C554D4556
:1008F000545249430042494E4152595F46494C4582
:100900005F5452414E534645520053455249414C63
:100910005F584F4E5F584F4646004649524D57412B
:1009200052455F4E414D453A4D61726C696E206D86
:1009300061726C696E2D322E302E3820284E6F7603
:1009400020203920323032302031373A31313A34B8
:10095000362920534F555243455F434F44455F5519
:10096000524C3A68747470733A2F2F6769746875C3
:10097000622E636F6D2F4D61726C696E4669726D88
:10098000776172652F4D61726C696E2050524F54C1
:100990004F434F4C5F56455253494F4E3A312E30DC
:1009A000204D414348494E455F545950453A5A38C5
:1009B000545F4D332045585452554445525F434F80
:1009C000554E543A3120555549443A636564653271
:1009D0006132662D343161322D343734382D39622D
:1009E00031322D6335356336326633363766660A03
:1009F000002F2F20004D31343520533C696E646543
:100A0000783E206F7574206F662072616E67652076
:100A100028302D31290A00416363656C6572617469
:100A2000696F6E3A20500046523A0020466C6F774C
:100A30003A200020643A0020693A0020703A0049C8
:100A40006E76616C69642065787472756465720A8B
:100A50000046696C616D656E742072756E6F757499
:100A60002064697374616E636520286D6D293A2076
:100A70000046696C616D656E742072756E6F757479
:100A800020004D34323120696E636F727265637479
:100A900020706172616D6574657220757361676540
:100AA0000A004F666673657473204170706C6965E7
:100AB00064004572723A20546F6F206661722100A3
:100AC000546F6F206661722066726F6D207265666A
:100AD0006572656E636520706F696E740A004545C6
:100AE00050524F4D204F4B0A00205A323A00447565
:100AF000616C20456E6473746F702041646A757315
:100B0000746D656E7420286D6D293A2000506F77E2
:100B100065722D6C6F7373207265636F7665727981
:100B20002000446F6E65207072696E74696E672074
:100B300066696C650A004D3737004D333100D406C5
:100B4000CF06C806C106B3064572726F722077726F
:100B50006974696E6720746F20454550524F4D216E
:100B60000A004D323930004D343130004D313132D0
:100B7000004D3130380053544F505045442E200022
:100B80005072696E7465722073746F707065642042
:100B900064756520746F206572726F72732E2046C3
:100BA000697820746865206572726F7220616E6466
:100BB00020757365204D39393920746F2072657343
:100BC000746172742E202854656D7065726174753D
:100BD00072652069732072657365742E2053657485
:100BE0002069742061667465722072657374617225
:100BF00074696E67290A004E6F20436865636B73E2
:100C0000756D2077697468206C696E65206E756DEE
:100C10006265722C204C617374204C696E653A20B9
:100C200000636865636B73756D206D69736D6174C6
:100C300063682C204C617374204C696E653A200007
:100C40004C696E65204E756D626572206973206E09
:100C50006F74204C617374204C696E65204E756D05
:100C60006265722B312C204C617374204C696E6567
:100C70003A20004D313130005344207265616420C8
:100C80006572726F720A002121204B494C4C20631F
:100C90006175736564206279204B494C4C20627504
:100CA00074746F6E2F70696E0A002121204B494CBD
:100CB0004C2063617573656420627920746F6F20C6
:100CC0006D75636820696E61637469766520746907
:100CD0006D65202D2063757272656E7420636F6D73
:100CE0006D616E643A2000627573793A20706175A7
:100CF00073656420666F7220696E7075740A006295
:100D00007573793A2070617573656420666F72201F
:100D1000757365720A00627573793A2070726F6339
:100D2000657373696E670A004D6564696120526579
:100D30006D6F766564004D6564696120496E736509
:100D400072746564004D3130303053004D363030B0
:100D500020543137004572723A2075746638206627
:100D60006F6E74206E6F7420696E697469616C694E
:100D70007A65642E00000C0F00FE07022503BB01FC
:100D80007FFE08FE08FE05080806000040F0C8883F
:100D900088987810050808060000C0F888888888B8
:100DA00088F80505050600012030F8302005080800
:100DB0000600002070F820202020E0050909060028
:100DC000FF2070A8A8B888887020070505070001D3
:100DD000D86C366CD80509090600FFF8A888888801
:100DE0008888A8F8050A0A0600FE2050505050884E
:100DF000A8A8887003030306000340A040FFFFFF7C
:100E0000FFFFFFFFFFFFFFFFFFFFFFFFFFFFFFFFF2
:100E1000FFFFFF0000000605FF0107070602008034
:100E2000808080800080030303060105A0A0A00548
:100E3000060606000050F85050F850050909060053
:100E4000FF2070A8A07028A87020050707060000E2
:100E5000C8C8102040989805070706000040A0A0C9
:100E600040A89068010303060205808080030909F9
:100E70000601FF2040408080804040200309090691
:100E800001FF8040402020204040800507070600E9
:100E90000020A8702070A82005050506000120206C
:100EA000F820200203030601FFC04080050101066F
:100EB0000003F8020202060100C0C0050707060091
:100EC00000081010204040800507070600007088C9
:100ED00098A8C8887003070706010040C04040403A
:100EE00040E0050707060000708808102040F8055C
:100EF0000707060000F80810300888700507070685
:100F0000000010305090F81010050707060000F898
:100F100080F008088870050707060000304080F060
:100F2000888870050707060000F8081010202020A8
:100F30000507070600007088887088887005070715
:100F40000600007088887808106002050506010018
:100F5000C0C000C0C00206060601FFC0C000C040FD
:100F6000800305050601012040804020050303069B
:100F70000002F800F80305050601018040204080CA
:100F800005070706000070881020200020050707CD
:100F90000600007088B8A8B8807005070706000032
:100FA000708888F8888888050707060000F0484898
:100FB000704848F005070706000070888080808828
:100FC00070050707060000F04848484848F0050744
:100FD00007060000F88080F08080F805070706000B
:100FE00000F88080F0808080050707060000708888
:100FF0008080988870050707060000888888F88830
:101000008888030707060100E04040404040E005B3
:10101000070706000038101010109060050707063B
:1010200000008890A0C0A0908805070706000080F7
:101030008080808080F805070706000088D8A8888F
:101040008888880507070600008888C8A8988888C7
:1010500005070706000070888888888870050707DC
:10106000060000F08888F0808080050707060000F1
:1010700070888888A89068050707060000F08888AF
:10108000F0A0908805070706000070888070088827
:1010900070050707060000F8202020202020050703
:1010A000070600008888888888887005070706007A
:1010B0000088888888505020050707060000888827
:1010C0008888A8A850050707060000888850205087
:1010D0008888050707060000888850202020200502
:1010E0000707060000F80810204080F803090906E9
:1010F00001FFE080808080808080E0050707060097
:1011000000804040201010080309090601FFE0207C
:10111000202020202020E005030306000520508821
:101120000501010600FEF8030303060105804020C7
:101130000505050600007008788878050707060091
:10114000008080F0888888F0050505060000708022
:101150008088700507070600000808788888887866
:101160000505050600007088F08070050707060079
:1011700000304840E04040400507070600FE708808
:1011800088887808700507070600008080F0888846
:1011900088880307070601004000C0404040E00483
:1011A00009090601FE1000301010101090600507AC
:1011B0000706000080808890E090880307070601FA
:1011C00000C04040404040E0050505060000D0A8B2
:1011D000A8A8A8050505060000B0C88888880505E8
:1011E0000506000070888888700507070600FEF075
:1011F000888888F080800507070600FE7888888840
:10120000780808050505060000B0C880808005053F
:101210000506000078807008F0050707060000202A
:1012200020F82020201805050506000088888898E9
:101230006805050506000088888850200505050614
:1012400000008888A8A850050505060000885020E1
:1012500050880507070600FE8888885020408005D2
:101260000505060000F8102040F80309090601FFF3
:101270002040404080404040200109090602FF8094
:1012800080808080808080800309090601FF804083
:101290004040204040408005030306000248A890DB
:1012A000FF4E65787420436F726E657200446F6EF6
:1012B00065004E65787400486F6D696E67205859F7
:1012C0005A004661646520486569676874004C652A
:1012D00076656C20426564004732380A473239002F
:1012E0004361746368205A204F66667365740047D3
:1012F0003239204E004C6576656C20436F726E6506
:10130000727300556E726574726163742056005575
:101310006E726574722E206D6D00486F70206D6D59
:101320000052657472616374205600526574726174
:101330006374206D6D004175746F2D526574726118
:101340006374004261627973746570205A0046616B
:101350006E205370656564004E6F7A7A6C65004D3F
:1013600061696E00466C6F77002568753A253032EA
:10137000687500256875642025303268753A253017
:101380003268750020202020202020001FE020103F
:101390002010201010201020201020103030084085
:1013A000048003001FE03FF03FF03FF01FE01FE02C
:1013B0003FF03FF03FF00FC0078003003FFFF038E1
:1013C000007030FC3020FC102078102030102C00F1
:1013D000D02E31D02F7BD02F7BD02E31D02C00D0EF
:1013E00020301020781020FC1030FC303800703F86
:1013F000FFF03FFFF03800703186302387102787D9
:10140000902F87D02F03D020301020781020781014
:101410002030102F03D02F87D027879023871031BB
:1014200086303800703FFFF01FFFF81FFFF80410F0
:1014300040020820020820041040082080104100CB
:101440001041000820800410400000001FFFF81F1A
:10145000FFF83300CC00CC120048004812004800CE
:1014600048120048004813FFCFFFC81000000008D2
:101470001FFF83FFF8000FC7E000000FEFE0000040
:1014800003EF80000001EF000000006C000000008E
:10149000000000506F776572204F757461676500BA
:1014A000436F6E66696775726174696F6E0044752B
:1014B000616C205A20454E4453544F5000445541CE
:1014C0004C205A2044524956455200544D43323222
:1014D0003058204150504C4945442058595A0054E6
:1014E0004954414E20455854525544455200426992
:1014F0006C696E656172204C6576656C696E67001B
:10150000457874727564657273007777772E7A6F99
:101510006E657374617233642E636F6D005A385454
:101520005F4D3300323032302D31312D3039006D86
:1015300061726C696E2D322E302E380056312E3786
:101540002E3300546865726D6973746F7273004254
:101550006F61726420496E666F005072696E7465C7
:101560007220496E666F004D313030300053746F19
:1015700070205072696E7400526573756D652050ED
:1015800072696E74004261636B0053746F70004E39
:101590006F204D65646961004368616E6765204D29
:1015A00065646961004D3231005377697463682066
:1015B000506F776572204F6666004D383100436882
:1015C000616E67652046696C616D656E740041628D
:1015D0006F7574205072696E7465720054756E6513
:1015E000005061757365205072696E7400496E66B3
:1015F0006F2053637265656E00537461727420507E
:1016000072696E740043616E6E6F7420656E7465EE
:1016100072207375626469723A2000022E2E0041B6
:10162000637469766520562D746F6F6C004D6F740E
:10163000696F6E004D3834004175746F20486F6DCE
:10164000650054656D706572617475726500414224
:101650005300504C410044697361626C65205374BF
:1016600065707065727300486F6D65205A0047326F
:10167000385A00486F6D6520590047323859004884
:101680006F6D652058004732385800473238005097
:10169000726568656174202420456E64005072652F
:1016A0006865617420242042656400436F6F6C6438
:1016B0006F776E0050726568656174202400546F06
:1016C00074616C0052164E160000A0C100000000AC
:1016D0000000000000009B4300009B430000C84343
:1016E00053657474696E67732053746F7265640018
:1016F0002062797465733B206372632000536574C4
:1017000074696E67732053746F7265642028004596
:101710004550524F4D206461746173697A6520654C
:1017200072726F722E0A002073746F726564207378
:10173000657474696E677320726574726965766525
:1017400064202800202863616C63756C6174656493
:1017500029210A0020213D2000454550524F4D20AF
:10176000435243206D69736D61746368202D202896
:1017700073746F726564292000496E6465783A203D
:101780000044494749504F5453204C6F616465648D
:101790000A0044494749504F5453204C6F616469D3
:1017A0006E670A00204D61726C696E3D56383329B0
:1017B0000A00454550524F4D2076657273696F6E31
:1017C000206D69736D617463682028454550524FE0
:1017D0004D3D004D69786572003F0043616E636561
:1017E0006C00526576657273652047726164696545
:1017F0006E74002020456E6420562D746F6F6C004F
:10180000537461727420562D746F6F6C00202045E4
:101810006E64205A3A002534642E2564206D6D00D4
:101820005374617274205A3A004379636C65204D99
:10183000697800436F6D6D697420562D746F6F6CFD
:10184000204D697800436F6D706F6E656E74203D3A
:1018500000562D746F6F6C7320576572652052654A
:101860007365740052616E646F6D204D6978003A43
:1018700064697361626C65003A20656E61626C65D3
:10188000004772616469656E744D697800526573D2
:10189000657420562D746F6F6C73004C6F616420FB
:1018A00053657474696E67730053746F7265205367
:1018B000657474696E67730050726F6265205A2098
:1018C0004F666673657400416476616E636564207B
:1018D00053657474696E6773004F6E00554E4C4FBC
:1018E00041442046494C414D454E540046494C41E7
:1018F0004D454E54204348414E4745005265737450
:101900006F72652044656661756C74730050726512
:1019100068656174202420436F6E660052756E6F97
:1019200075742053656E736F72004D3630302042EF
:101930003020542569004D37303120542569004D41
:101940003730322054256900556E6C6F6164204633
:10195000696C616D656E74202A00556E6C6F6164F0
:1019600020416C6C004D373032004C6F6164204672
:10197000696C616D656E74202A004368616E6765ED
:101980002046696C616D656E74202A00507572671F
:1019900065206D6F726500436F6E74696E756500CA
:1019A000524553554D45204F5054494F4E533A00E0
:1019B0005052494E54205041555345440020204E2A
:1019C0006F7A7A6C653A200052756E617761792082
:1019D00057617463683A204F464600313330004205
:1019E00045443A203130306B207769746820342EBA
:1019F000376B2070756C6C2D75700052756E617749
:101A000061792057617463683A204F4E004D6178C8
:101A10002054656D7000323735004D696E20546575
:101A20006D700045313A203130306B207769746831
:101A300020342E376B2070756C6C2D7570005053F0
:101A4000550047656E657269630050726F746F630D
:101A50006F6C00312E3000426175640031313532D7
:101A600030300068747470733A2F2F7777772E6157
:101A70006C69657870726573732E636F6D2F69740E
:101A8000656D2F33323936353430363339362E687A
:101A9000746D6C005A4F4E4553544152205A52496E
:101AA000425F5636005061726B696E672E2E2E00B3
:101AB00000005761697420666F720066696C616D21
:101AC000656E74206368616E676500746F2073745F
:101AD000617274005761697420666F720066696C88
:101AE000616D656E7420756E6C6F616400004E6F81
:101AF0007A7A6C652068656174696E6700506C6500
:101B000061736520776169742E2E2E000050726516
:101B1000737320627574746F6E00746F20686561F2
:101B200074206E6F7A7A6C650000496E736572740A
:101B30002066696C616D656E7400616E6420707200
:101B400065737320627574746F6E00746F20636FB9
:101B50006E74696E7565005761697420666F7200F6
:101B600066696C616D656E74206C6F616400005015
:101B70007265737320427574746F6E00746F207297
:101B80006573756D65207072696E740000576169C8
:101B90007420666F72207072696E7400746F2072A8
:101BA0006573756D652E2E2E000057616974206671
:101BB0006F720066696C616D656E74207075726716
:101BC0006500005072696E742041626F72746564C2
:101BD000004D323520500A4D323400506175736922
:101BE0006E672E2E2E006F70656E00545249474767
:101BF000455245440066696C616D656E74007A5F9C
:101C000070726F6265007A325F6D696E007A5F6D27
:101C1000696E00795F6D696E00785F6D696E005264
:101C200065706F7274696E6720656E6473746F702F
:101C3000207374617475730A007C3C3E5E2B3D3FDB
:101C40002F5B5D3B2C2A225C00020000000000009C
:101C50000000000000000000000000000000000084
:101C60000000000000000000000000000000000074
:101C70000000000000000000000007FFC3FF870114
:101C800087FF0FFCFFFC1E01FF8007FFC3FF8701DA
:101C90008FFF1FFCFFFC1E03FFC00000C600C70132
:101CA0008C0018000300618300C00001C600C7C19A
:101CB0008C0018000300618300C000038600C6C1C9
:101CC0008C0018000301806300C000070600C66195
:101CD0008C0018000301806300C0000E0600C6617E
:101CE0008C0018000301806300C0001C0600C63190
:101CF0008FFE1FF803018063FFC000380600C63165
:101D00008FFE0FFC03018063FF8000700600C61980
:101D10008C00000C0301FFE30C0000E00600C61974
:101D20008C00000C0301FFE3070001C00600C60D94
:101D30008C00000C03018063018003800600C60D47
:101D40008C00000C03018063018007000600C607B9
:101D50008C00000C03018063018006000600C607AA
:101D60008C00000C03018063018007FFC3FF860322
:101D70008FFF1FFC03018063018007FFC3FF860301
:101D800087FF1FF80301806301800000000000004E
:101D90000000000000000000000000000000000043
:101DA0000000000000000000000000000000000033
:101DB0000000000000000000000000000000000023
:101DC00000000000000000000000F0004A011001C7
:101DD0003B0130012C01400127015001220170011B
:101DE0001D0190011801B0011301C0010E01F001A5
:101DF0000901100204013002FF006002FA009002A3
:101E0000F500C002F0000003EB004003E600800391
:101E1000E100D003DC002004D700E004D200C005BC
:101E2000CD004006C800D006C3008007BE00F00801
:101E3000B9004009B400C009AF00B00AAA00B00B55
:101E4000A500D00CA000000E9B00C0109600501200
:101E5000910000148C00C0158700B0178200B019E3
:101E60007D00D01B7800001E730040206E00902281
:101E70006900F024640040275F0090295A00E02B9D
:101E80005500102E500020304B0010324600E03339
:101E9000410090353C001037370070383200A039CF
:101EA0002D00B03A2800A03B2300603C1E00103DEE
:101EB0001900903D1400103E0F00703E0A00C03E15
:101EC0000500003F0000403FFBFF803FF6FFC03FA2
:101ED000F1FF2020506C616E6E657242756666651A
:101EE0007242797465733A20002046726565204D10
:101EF000656D6F72793A2000436F6D70696C65642F
:101F00003A204E6F7620203920323032300A0020BD
:101F10004C61737420557064617465643A2032308A
:101F200032302D31312D3039207C20417574686F6D
:101F3000723A20285A4F4E45535441522C20486142
:101F40006C6C79290A006D61726C696E2D322E30CD
:101F50002E380A004D61726C696E0020536F6674F2
:101F6000776172652052657365740A002057617449
:101F70006368646F672052657365740A002042725B
:101F80006F776E206F75742052657365740A002038
:101F900045787465726E616C2052657365740A00D1
:101FA000506F77657255700A006175746F25632EE6
:101FB00067004732385859004D3130303100657272
:101FC000726F722077726974696E6720746F206611
:101FD000696C650A00446F6E6520736176696E678F
:101FE0002066696C652E0A004D323900456E6473B7
:101FF000746F7073002553202563202563202563AB
:102000002025630020503A00656E6473746F70730E
:10201000206869743A200020436F756E7420583A26
:1020200000453100626564002C2073797374656D1E
:102030002073746F707065642120486561746572E7
:102040005F49443A2000544845524D414C20525576
:102050004E4157415900546865726D616C2052754C
:102060006E617761790048656174696E67204661C9
:10207000696C65640048656174696E6720666169B2
:102080006C656400202D20496E76616C6964206562
:1020900078747275646572206E756D626572202148
:1020A0000A004572723A204D415854454D50004D3A
:1020B000415854454D502074726967676572656474
:1020C000004572723A204D494E54454D50004D49DD
:1020D0004E54454D5020747269676765726564009F
:1020E000202F002042403A0020403A00001000AA71
:1020F000038000400100012C01B0012201400210C8
:1021000001F00202018003F8004004F500E004ED54
:10211000009005E4003006DD00E006D7008007D11E
:10212000003008CC00D008C7007009C300100ABEF8
:1021300000B00ABB00500BB700900CB300D00DAA42
:1021400000B00FA5005010A000101496009016903B
:102150000010198C00501A8500301C820070227803
:1021600000B023750040256E0020276900A0296477
:1021700000502A5F00902B5A00D02C5500702D4F34
:1021800000E02E48005031450030334100D0353951
:10219000006036370010373300F0382D00A03927A3
:1021A00000803C1C00403D1700F03D1100703E0ACD
:1021B00000C03E0500003F0000403FFBFF803FF6AF
:1021C000FFC03FF1FF456E636C6F7375726500521F
:1021D000756E6F75742044697374206D6D004C6F5B
:1021E0006164206D6D00556E6C6F6164206D6D00D3
:1021F00046696C2E204469612E004520696E206D71
:102200006DC2B3005761726E696E673A20486F6D98
:10221000696E672042756D702044697669736F72CC
:10222000203C20310A00206C696D6974656420745B
:102230006F2000204D6178200000004842000048D7
:1022400042000080400202040000A0400000A040C4
:10225000000000400000A54300009B430000C8436D
:10226000FFFFFF4361703A003F5A206F7574206F83
:10227000662072616E67652028003F59206F757473
:10228000206F662072616E676520282D003F582000
:102290006F7574206F662072616E676520282D004F
:1022A00050726F6265204F666673657420580065D2
:1022B0006E7175657565696E672022006F6B0052DF
:1022C0006573656E643A200042656420436F6F6CED
:1022D000696E672E2E2E0042656420486561746920
:1022E0006E672E2E2E0023646566696E6520444558
:1022F0004641554C545F004B6420004B6920004B15
:10230000702000504944204175746F74756E6520CB
:1023100066696E69736865642120507574207468FD
:1023200065206C617374204B702C204B6920616EAA
:1023300064204B6420636F6E7374616E74732066E7
:10234000726F6D2062656C6F7720696E746F2043C9
:102350006F6E66696775726174696F6E2E680A00C8
:10236000504944204175746F74756E6520666169CB
:102370006C6564212074696D656F75740A000A20AC
:10238000436C617373696320504944200A00204BF9
:10239000643A2000204B693A2000204B703A20001C
:1023A0002054753A2000204B753A2000206D61784A
:1023B0003A2000206D696E3A200020643A20002007
:1023C000626961733A2000504944204175746F740A
:1023D000756E652073746172740A0050494420411F
:1023E00075746F74756E65206661696C6564212013
:1023F00054656D706572617475726520746F6F20BD
:10240000686967680A00504944204175746F7475A3
:102410006E6500504944204175746F74756E652077
:102420006661696C6564212042616420657874721C
:1024300075646572206E756D6265720A0020746F36
:102440006F206C6F6E6720657874727573696F6E3C
:102450002070726576656E7465640A004D333033A2
:1024600020553120452569205325690050494420D5
:102470004175746F74756E65202A005049442D446F
:10248000202A005049442D49202A005049442D500B
:10249000202A005654726176204D696E00566D698F
:1024A0006E00566D6178204500566D6178205A00A7
:1024B000566D6178205900566D6178205800416D45
:1024C0006178204500416D6178205A00416D617846
:1024D000205900416D6178205800412D5472617679
:1024E000656C00412D5265747261637400416363D1
:1024F000656C0024F4D43050C38E20C2A2401782F1
:102500008B7011127A910D816CD90AA861E108C70C
:10251000586607615143061E4B5D05C145A7041A65
:10252000411104093D9803713931034036DB0265DE
:10253000339102D4305402802E1D02632CEE0175BB
:102540002AC501B028A001102781018F2564012B25
:10255000244B01E0223401AC211F018D200D0180AC
:102560001FFC00841EED00971DDF00B81CD200E6A2
:102570001BC600201BBC00641AB200B219A8000AD6
:1025800019A0006A189900D117910040178B00B567
:1025900016840031167E00B31579003A157300C712
:1025A000146F0058146A00EE136600881363002548
:1025B000135E00C7125B006C12570015125400C165
:1025C00011510070114F0021114B00D61049008DA0
:1025D0001047004610440002104200C00F40008027
:1025E0000F3E00420F3C00060F3B00CB0E3800931D
:1025F0000E37005C0E3500270E3400F30D3200C19B
:102600000D3100900D3000600D2E00320D2D0005B3
:102610000D2C00D90C2B00AE0C2900850C29005C78
:102620000C2700350C27000E0C2600E80B2400C4F4
:102630000B2400A00B23007D0B23005A0B21003933
:102640000B2100180B2000F80A1F00D90A1E00BB3E
:102650000A1E009D0A1D00800A1D00630A1C004717
:102660000A1B002C0A1B00110A1A00F7091A00DDC8
:10267000091900C4091900AB091900920917007B58
:10268000091800630917004C0916003609160020C6
:102690000916000A091500F5081500E0081400CC19
:1026A000081400B8081400A4081400900813007D52
:1026B0000812006B08130058081200460812003474
:1026C000081100230811001208110001081100F080
:1026D000071000E0071000D0071000C0071000B07E
:1026E000070F00A107100091070E0083070F007469
:1026F000070F0065070E0057070E0049070E003B45
:10270000070D002E070E0020070D0013070D000611
:10271000070D00F9060C00ED060D00E0060C00D4D4
:10272000060C00C8060C00BC060C00B0060C00A489
:10273000060B0099060C008D060B0082060B007735
:10274000060B006C060B0061060A0057060B004CD6
:10275000060A0042060A0038060A002E060A00246D
:10276000060A001A060A001006090007060A00FDFC
:10277000050900F4050900EB050900E2050900D987
:10278000050900D0050900C7050900BE050900B507
:10279000050800AD050800A50509009C0508009482
:1027A0000508008C050800840508007C05080074F5
:1027B0000508006C050700650508005D0507005663
:1027C0000508004E050700470507004005080038CA
:1027D000050700310507002A050700230507001C2F
:1027E000050600160507000F05070008050600028C
:1027F000050700FB040600F5040700EE040600E8E8
:10280000040600E2040700DB040600D5040600CF3E
:10281000040600C9040600C3040600BD040600B790
:10282000040600B1040500AC040600A6040600A0DE
:102830000405009B04060095040500900406008A28
:1028400004050085040500800406007A040500756F
:10285000040500700405006B0405006604050061B2
:102860000405005C04050057040500520405004DF2
:1028700004050048040500430405003E0404003A32
:1028800004050035040500300404002C040500276D
:10289000040400230405001E0404001A04040016A6
:1028A000040500110404000D0404000904050004DB
:1028B00004040000040400FC030400F8030400F412
:1028C000030400F0030400EC030400E8030400E444
:1028D000030400E0030400DC030400D8030400D474
:1028E000030400D0030400CC030400C8030300C5A4
:1028F00003030024F404D9201BC40C5C0E9804C408
:10290000095F0265077101F405F900FB04B3004893
:10291000048700C10369005803550003034500BE46
:10292000023A008402310053022A002902250004E1
:10293000022000E4011C00C8011900AF0117009833
:102940000114008401130071011000610110005195
:10295000010E0043010D0036010B002B010B00207E
:10296000010B00150109000C01090003010800FB1F
:10297000000800F3000800EB000700E4000600DE9A
:10298000000600D8000600D2000600CC000500C7F3
:10299000000500C2000500BD000400B9000400B538
:1029A000000400B1000400AD000400A9000400A56B
:1029B000000300A20003009F0004009B0003009896
:1029C0000003009500020093000300900003008DB7
:1029D0000002008B000300880002008600020084D1
:1029E000000300810002007F0002007D0002007BE6
:1029F00000020079000200770001007600020074F6
:102A000000020072000100710002006F0002006D00
:102A10000001006C0002006A00010069000200670A
:102A20000001006600010065000100640002006210
:102A300000010061000100600001005F0002005D14
:102A40000001005C0001005B0001005A0001005918
:102A50000001005800010057000100560001005518
:102A60000001005400010053000000530001005217
:102A700000010051000100500001004F0001004E14
:102A80000000004E0001004D0001004C0001004B11
:102A90000000004B0001004A00010049000100480D
:102AA0000000004800010047000100460000004609
:102AB0000001004500000045000100440001004302
:102AC00000000043000100420000004200010041FC
:102AD00000000041000100400001003F0000003FF5
:102AE0000001003E0000003E0001003D0000003DEE
:102AF0000001003C0000003C0000003C0001003BE5
:102B00000000003B0001003A0000003A00010039DB
:102B100000000039000100380000003800000038D3
:102B200000010037000000370001003600000036C9
:102B300000000036000100350000003500000035BF
:102B400000010034000000340000003400010033B4
:102B500000000033000000330001003200000032AA
:102B6000000000320001003100000031000000319F
:102B70000001003000000030000000300001002F94
:102B80000000002F0000002F0000002F0001002E89
:102B90000000002E0000002E0001002D0000002D7E
:102BA0000000002D0000002D0001002C0000002C72
:102BB0000000002C0000002C0001002B0000002B66
:102BC0000000002B0000002B0001002A0000002A5A
:102BD0000000002A0000002A00010029000000294E
:102BE0000000002900000029000000290001002841
:102BF0000000002800000028000000280000002835
:102C00000001002700000027000000270000002727
:102C1000000000270001002600000026000000261A
:102C2000000000260000002600010025000000250D
:102C30000000002500000025000000250000002500
:102C400000010024000000240000002400000024F3
:102C500000000024000100230000002300000023E6
:102C600000000023000000230000002300000023D8
:102C700000010022000000220000002200000022CB
:102C800000000022000000220001002100000021BD
:102C900000000021000000210000002100000021B0
:102CA00000000021000100200000002000000020A2
:102CB0000000002000000020000000200000002094
:102CC000000000200001001F0000001F0000001F86
:102CD0000000001F0000001F0000001F0000001F78
:102CE0000001001E0000001E0000001E0000001E6B
:102CF000000000A42C0000841E0000B01200008719
:102D00000A00009E050000E90200007B010000BFF0
:102D1000000000506C656173652052657365740036
:102D20005052494E5445522048414C544544002588
:102D3000533A202553004B494C4C45442E2000501B
:102D400072696E7465722068616C7465642E206BA4
:102D5000696C6C28292063616C6C6564210A0065CC
:102D600063686F3A004572726F723A0042696C692B
:102D70006E656172204C6576656C696E672047727E
:102D800069643A0A002053697A653A200043616E0B
:102D90006E6F74206F70656E207375626469722047
:102DA00000534420496E6974204661696C005344A5
:102DB0002063617264206F6B0A006F70656E526FE2
:102DC0006F74206661696C65640A00766F6C756D5E
:102DD000652E696E6974206661696C65640A004ECF
:102DE0006F20534420636172640A004D3233202502
:102DF000730046696C652073656C65637465640A6D
:102E00000046696C65206F70656E65643A20004508
:102E10004E4420535542524F5554494E450A0022C4
:102E200020706F73002220706172656E743A220008
:102E3000535542524F5554494E452043414C4C2026
:102E40007461726765743A220053756263616C6CD9
:102E5000204F766572666C6F7700457863656564B0
:102E60006564206D617820535542524F5554494E48
:102E7000452064657074683A310A0044656C657475
:102E8000696F6E206661696C65642C2046696C65AB
:102E90003A200046696C652064656C657465643A27
:102EA000006F70656E206661696C65642C204669F0
:102EB0006C653A200057726974696E6720746F20E0
:102EC00066696C653A2000667265736800646F69B4
:102ED0006E67004E6F772000252900257C00203B7F
:102EE0002043757272656E74205A00203B20456E37
:102EF0006400203B205374617274004772616469FE
:102F0000656E74204D6978200052616E646F6D208B
:102F10004D697820004D32342053256C64205425AF
:102F20006C64004739322E39204525730047312023
:102F3000462564004739322E39205A25730047311F
:102F4000205A302046323030004731205825732037
:102F500059257320463330303000473120452564F1
:102F60002046323030004D31303620502569205314
:102F70002569004D31303920532569004D313930F4
:102F800020532569004D32303020442573004732EC
:102F90003852305859004739322E39204530205A9E
:102FA000300A47315A2573004D34323020533020D7
:102FB0005A300020496E76616C69642065787472BD
:102FC00075646572200020496E76616C69642045E5
:102FD00020737465707065722000204520737465DD
:102FE00070706572206E6F742073706563696669B6
:102FF00065640A0056652D4A65726B00565A2D4A63
:1030000065726B0056592D4A65726B0056582D4AF1
:1030100065726B0050726F62652059204F6666734F
:1030200065740050726F62652058204F6666736544
:103030007400452073746570732F6D6D005A2053B2
:10304000746570732F6D6D00592053746570732F04
:103050006D6D00582053746570732F6D6D00496E4F
:103060006974004D34323800496E697469616C6965
:103070007A6520454550524F4D0050726F62652071
:103080004F66667365747300416363656C65726156
:1030900074696F6E0056656C6F636974790053656F
:1030A0007420486F6D65204F6666736574730050B9
:1030B0007265737320627574746F6E20746F207202
:1030C0006573756D650A005072657373206275745F
:1030D000746F6E20746F2068656174206E6F7A7AE9
:1030E0006C650A004F46460A0046616465204865E3
:1030F000696768742000426564204C6576656C6978
:103100006E6720004661696C656420746F20656E8F
:1031100061626C6520426564204C6576656C696E01
:10312000670A00496E76616C6964206D6573682E6C
:103130000A0050726F62696E6720506F696E74008A
:1031400025532025692F25690050726F62696E67CB
:10315000206D65736820706F696E7420004F66661D
:10316000736574206361746368656420210066611F
:10317000696C2C206D616E75616C206C6576656C78
:10318000004661696C21204D6F766520646F776E13
:103190002050726F62652E00546F20636174636803
:1031A000206F666673657400202844525952554E4C
:1031B0002900473239204175746F20426564204CE4
:1031C0006576656C696E67003F20284C2C522C4652
:1031D0002C4229206F7574206F6620626F756E64B3
:1031E000732E0A003F2856296572626F7365206C42
:1031F0006576656C20696D706C61757369626C656C
:103200002028302D34292E0A00426164205A20766D
:10321000616C75650A004E6F2062696C696E65614C
:103220007220677269640A00204D393220580020EC
:10323000204D61783A200020204D696E3A200053DD
:103240006F667420656E6473746F70733A2000202B
:103250005A3A200020593A200042656420583A200A
:10326000005072696E74205061757365640050720D
:103270006F62696E67204661696C65640A0050720E
:103280006F62696E67204661696C656400486F6DA6
:103290006520257325732573204669727374004970
:1032A0006E736572742066696C616D656E74206101
:1032B0006E6420707265737320627574746F6E0A29
:1032C0000020573A005A38545F4D332052656164EC
:1032D000792E005072696E74696E672E2E2E002250
:1032E0000A00556E6B6E6F776E20636F6D6D616E49
:1032F000643A2022005072696E742066726F6D20ED
:103300004D65646961004D6F76652025736D6D00B4
:103310004D6F766520302E316D6D004D6F766520D6
:10332000316D6D004D6F76652031306D6D004D6FE4
:1033300076652041786973004578747275646572AA
:10334000004D6F7665205A004D6F76652059004D0F
:103350006F766520580000000A0B02090C0D0E085C
:10336000070304010000000000000000000000004E
:10337000000000000000000000000000000000004D
:10338000000012111000000000000000000000000A
:10339000000000000000000000000000000022000B
:1033A000250028002B002E0031003400020100000F
:1033B000050108010B0100002100240027002A005C
:1033C0002D003000330001010000040107010A0153
:1033D00005050505070508080808020202020A0A91
:1033E00008080404040401010101010101010303AF
:1033F000030303030303040707070C0C0C0C0C0C5A
:103400000C0C0202020206060606060606060B0B56
:103410000B0B0B0B0B0B0102102020080810204097
:103420001020408002010201080402010102040888
:103430001020408080402010080402018004020116
:10344000804020100804020108040201010204085F
:1034500010204080010204081020408020453A00DE
:1034600020593A00205200454550524F4D20496E98
:10347000697469616C697A65640A004861726463A1
:103480006F6465642044656661756C74205365746F
:1034900074696E6773204C6F616465640A003B2039
:1034A0000020204D363033200020204D3431322092
:1034B000530046696C616D656E742072756E6F7530
:1034C000742073656E736F723A0020550046696C04
:1034D000616D656E74206C6F61642F756E6C6F61C9
:1034E00064206C656E677468733A0020204D38352F
:1034F000312058005A2D50726F6265204F666673F6
:1035000065740020204D3230392053004175746FAE
:103510002D526574726163743A20533D3020746F8C
:103520002064697361626C652C203120746F20699E
:103530006E7465727072657420452D6F6E6C7920A3
:103540006D6F766573206173207265747261637448
:103550002F7265636F7665720020204D32303820FF
:1035600053005265636F7665723A20533C6C656E0A
:103570006774683E20463C756E6974732F6D3E001B
:1035800020570020204D323037205300526574728E
:103590006163743A20533C6C656E6774683E2046E4
:1035A0003C756E6974732F6D3E205A3C6C6966746D
:1035B0003E0020204D343133205300506F77657228
:1035C0002D4C6F7373205265636F766572793A0084
:1035D00020204D3330312050005049442073657411
:1035E00074696E67733A0020460020480020204D21
:1035F0003134352053004D6174657269616C206807
:10360000656174757020706172616D657465727347
:103610003A0020204D36363600456E6473746F7064
:103620002061646A7573746D656E743A00204A0097
:103630002020473239205720490020204D34323095
:103640002053004175746F20426564204C65766597
:103650006C696E673A0020204D32303620580048A1
:103660006F6D65206F66667365743A0020204D3279
:103670003035204200416476616E6365643A2042D1
:103680003C6D696E5F7365676D656E745F74696DBF
:10369000655F75733E20533C6D696E5F666565645A
:1036A000726174653E20543C6D696E5F7472617620
:1036B000656C5F66656564726174653E20583C6D3B
:1036C00061785F785F6A65726B3E20593C6D617806
:1036D0005F795F6A65726B3E205A3C6D61785F7AF4
:1036E0005F6A65726B3E20453C6D61785F655F6A1D
:1036F00065726B3E0020540020204D323034205043
:1037000000416363656C65726174696F6E20287532
:103710006E6974732F7332293A20503C7072696E4F
:10372000745F616363656C3E20523C7265747261C4
:1037300063745F616363656C3E20543C74726176B0
:10374000656C5F616363656C3E0020204D323031F3
:103750002058004D6178696D756D20416363656C1B
:1037600065726174696F6E2028756E6974732F734A
:1037700032293A0020204D3230332058004D6178F4
:10378000696D756D20666565647261746573202866
:10379000756E6974732F73293A00537465707320C2
:1037A00070657220756E69743A0020440020204DC7
:1037B0003230302053002044697361626C65640AC2
:1037C0000046696C616D656E742073657474696E12
:1037D00067733A0020204D3134392043203B205577
:1037E0006E69747320696E2043656C736975730A22
:1037F0000020286D6D290020204732312020202014
:103800003B20556E69747320696E206D6D00000059
:10381000FA430000FA430000A0400000C842000044
:10382000A0420000A0420000C8430000C843B80BFB
:103830000000B80B000064000000102700005102D7
:10384000330211241FBECFEFD1E2DEBFCDBF00E0B7
:103850000CBF13E0A0E0B2E0ECE4FFE902E00BBF34
:1038600002C007900D92AE34B107D9F726E1AEE45D
:10387000B3E001C01D92AC3FB207E1F71CE1C0E22A
:10388000DCE100E006C021970109802FFE010F94C2
:10389000FC4CCF31D10780E00807A9F70F948C3793
:1038A0000D94944F0C9400002F923F924F925F9290
:1038B0006F927F928F929F92AF92BF92CF92DF9240
:1038C000EF92FF920F931F93CF93DF93CDB7DEB7A5
:1038D000A7970FB6F894DEBF0FBECDBF8FA3209180
:1038E000300F2EA321E02093300F809143078D34B9
:1038F00009F4D0C3843511F40C94EA2D873411F007
:103900000C94152E80914107909142078B319105BF
:1039100009F463C1F4F488309105D1F14CF497FDBA
:10392000B5C382309105A4F1049709F412C1AEC366
:103930008B30910509F44CC18531910511F40C943B
:10394000172E0A9709F0A2C381E00E94F9E90C94AE
:10395000172E8A32910509F4B9C254F48D319105BC
:1039600009F465C10CF453C14E9709F47EC18EC3AE
:103970008B35910509F4F4C18C35910509F4F5C135
:103980008A35910509F082C31092600F0C94172EAE
:1039900080917606813011F00C94172E19821A82CC
:1039A0001B821C82CE0101965C012AE0E22E27E0F8
:1039B000F22E04E712E033E9C32E32E1D32E912C2C
:1039C00088E5890D0F94F50BF50181935F0188233C
:1039D00011F10F949A092B013C01892D0E949CFA48
:1039E000882351F0F8012081318142815381C30144
:1039F000B2010F94054D09C0F60120813181428149
:103A00005381C301B2010F94044DF70160837183A8
:103A1000828393830AC0F80180819181A281B3815E
:103A2000F70180839183A283B3839394F4E0EF0E34
:103A3000F11C0C5F1F4F24E0C20ED11C33E0931227
:103A4000BFCF85E40F94F50B8C83882301F10F948D
:103A50009A096B017C0183E00E949CFA882371F033
:103A60002091800230918102409182025091830224
:103A7000C701B6010F94054D6B017C01C09216077A
:103A8000D0921707E0921807F092190710C08091A2
:103A9000800290918102A0918202B0918302809372
:103AA000160790931707A0931807B09319078091F2
:103AB0006116882381F08091671382FF0CC08C818E
:103AC000882349F08981811103C08A81882319F0F4
:103AD00080E00F94461B40E050E0BA0186E40E946B
:103AE0006ABA20E030E0A9010F94884E181684F4D9
:103AF0000F949A0920E030E040E752E40F94884D9B
:103B000060936702709368028093690290936A02DF
:103B100080914016882311F40C94522E85E40F9462
:103B2000D109882311F40C94522E88E50F94D10901
:103B300081110C94522E89E50F94D10981110C94B6
:103B4000522E8AE50F94D10981110C94522E0C94B7
:103B5000202E80E50F94F50B882329F00F944A134B
:103B60006B017C0103C0C12CD12C760183E50F943D
:103B7000F50B882361F00F949A0920E030E04AE7C2
:103B800054E40F9467460F94014E6B017C010E9430
:103B90001FAE80912004811105C060E089ED96E0A0
:103BA0000E94678A0F947325C60ED71EE81EF91E61
:103BB0000F947325DC01CB018C199D09AE09BF0957
:103BC000B7FD02C00C94172E80E00E944133F0CF65
:103BD00080E00E94F9E90C94172E0F94421F811186
:103BE0000C94172E8CE0ECE9F2E0DE0111960190C6
:103BF0000D928A95E1F760E070E080E50F94340162
:103C0000BE016F5F7F4F0E94C2850C94172E80917A
:103C10002E0F8770873011F00C947D2E60E08FE4BA
:103C20000F94020C81110C94172E0C947D2E0F947E
:103C300073256093B2167093B3168093B416909365
:103C4000B5160F94421F81110C94172E8091650FA9
:103C5000882311F40C94ED2E60E08FE40F94020C95
:103C600081110C94172E0C94ED2E2091220F30917F
:103C7000230F4091240F5091250F60917402709191
:103C8000750280917602909177020F94054DAB01F9
:103C9000BC0188E50E946ABA69837A838B839C831E
:103CA0002091260F3091270F4091280F5091290F16
:103CB000609178027091790280917A0290917B02F2
:103CC0000F94054DAB01BC0189E50E946ABA6D8372
:103CD0007E838F839887BE016B5F7F4FCE010196F5
:103CE0000F94C513882311F40C94172E80E00E94C2
:103CF00023ED0E94FDB761E085E40F94020C01E022
:103D000021E0482FBE016B5F7F4FCE0101960F94DB
:103D1000FA1F6B017C019B01AC010F94064F8111CE
:103D200019C049815A816B817C8189E592E30E94A7
:103D300068F14D815E816F81788584E592E30E9410
:103D400068F1B701A6018FE492E30E9468F18AE06E
:103D50000E9415320E94E4B70E94B2800C94172E84
:103D60008FE08093600F0C94172E8091400788237A
:103D700049F1893009F0A6C08FEDA82E82E0B82E57
:103D800094E7E92E92E0F92ED12C00E010E0F50145
:103D900081915F010F94F50B882369F00F949A09C4
:103DA000F7016083718382839383133011F401E000
:103DB00002C0DD24D3941F5FF4E0EF0EF11C143039
:103DC00031F775C0BFED2B2EB2E03B2E16E7E12E8A
:103DD0001FE0F12E24E732E03DA32CA303E9C02E1F
:103DE00002E1D02E00E010E0F10181911F010F945B
:103DF000F50B882309F44AC00F949A092B013C0162
:103E0000133049F0F60120813181428153810F94B2
:103E1000044D2B013C01ECA1FDA1208131814281A7
:103E20005381C301B2010F94044D4B015C012DEB92
:103E300037E346E855EB0F94884E87FD0AC02DEB1B
:103E400037E346E855E3C501B4010F94014618165F
:103E5000ECF4133051F4409280025092810260924F
:103E600082027092830201E011C0A5019401F70162
:103E700060817181828193810F94054DF701608388
:103E8000718382839383812F0E9410B31F5FF4E0BC
:103E9000EF0EF11C2CA13DA12C5F3F4F3DA32CA3A5
:103EA00034E0C30ED11C143009F09ECF05C0DD20D4
:103EB00019F00E94B08006C0002321F080E892E053
:103EC0000E94C2B00E94B2800C94172E8091760698
:103ED000813011F00C94172E89E40F94F50BE82E25
:103EE000882321F00F949609082F01C000E08AE48E
:103EF0000F94F50BF82E882321F00F949609182FB4
:103F000001C010E0EE2011F0043020F4FF2041F059
:103F1000143030F082EE96E00E94A7F00C94172E39
:103F200080E1E4E7F2E0AAE0B7E001900D928A9523
:103F3000E1F7EE2019F1602F000F770B880B990B3A
:103F40000F94084620913016309131164091321668
:103F5000509133160F946746209106043091070460
:103F600040910804509109040F94054D60930A078D
:103F700070930B0780930C0790930D07FF2019F1A6
:103F8000612F110F770B880B990B0F940846209126
:103F900034163091351640913616509137160F94DD
:103FA000674620910A0430910B0440910C04509113
:103FB0000D040F94054D60930E0770930F078093C7
:103FC00010079093110760E080E50F94020C88239E
:103FD000C1F1EE20D1F02091220F3091230F4091BA
:103FE000240F5091250F60910A0770910B07809163
:103FF0000C0790910D070F94044D60930A0770937E
:104000000B0780930C0790930D07FF20D1F02091B0
:10401000260F3091270F4091280F5091290F609162
:104020000E0770910F0780911007909111070F9460
:10403000044D60930E0770930F07809310079093C1
:10404000110740E050E0BA0186E40E946ABA6B01B1
:104050007C0120E030E0A9010F94884E18164CF442
:1040600020E030E040E752E4C701B6010F94884DEC
:1040700003C060E070E0CB0169837A838B839C830B
:10408000CE0101960E941CB80C94172E0F94631C4D
:104090000C94172E80914107909142078B3991051E
:1040A00009F4F0C50CF015C18335910509F429C652
:1040B0000CF082C08A31910509F446C3BCF5843105
:1040C000910509F499C27CF48131910509F480C20B
:1040D0002CF4029708F444C20C94E72D429709F49B
:1040E00017C60C94E72D8731910509F4BAC294F4F0
:1040F0008531910509F4B1C2469711F00C94E72D72
:104100000E94ACF480916713877F8062809367136D
:104110000C94172E8831910509F4B8C2499711F013
:104120000C94E72D0F945A000C94172E80329105B1
:1041300009F482C3F4F48D31910509F466C384F463
:104140008B31910509F40EC34C9711F00C94E72DB7
:1041500080913E0790913F070E9411F60C94172E14
:104160008E31910509F458C34F9709F48EC30C940E
:10417000E72D8D34910509F437C46CF48B34910527
:1041800009F42EC48C34910511F00C94E72D0E9493
:1041900062820C94172E8135910509F49CC58235F5
:1041A000910511F00C94E72D8091600F8F7D806157
:1041B0008093600F0C94172E8037910509F410C579
:1041C000E4F58A36910509F46AC4CCF48C3591057E
:1041D00009F4F7C554F48435910509F499C585357A
:1041E000910509F4CBC50C94E72D8836910509F4A7
:1041F000FFC38936910509F43EC40C94E72D8D3632
:10420000910509F416C47CF48B36910509F485C434
:104210008C36910511F00C94E72D10922F0F10920F
:1042200065020C94172E8E36910509F481C48F36E1
:10423000910509F490C40C94E72D8737910509F492
:1042400023C73CF58337910509F459C68CF48137AF
:10425000910509F4CEC48237910511F00C94E72D35
:104260000F94AA2784EF92E10E947CA00C94172E51
:104270008537910509F4C5C68637910511F00C9470
:10428000E72D00913E0710913F0794E0F12C40E0AC
:10429000DFC68D37910509F41BC58CF4883791056D
:1042A00009F4F5C68937910511F00C94E72D1092A9
:1042B000A2041092A1040E94CA810C94172E8C387B
:1042C000910509F4BBC48139910509F4E8C60C9441
:1042D000E72D8139E1E09E0711F40C94E22B0CF0FC
:1042E00087C08E3C910511F40C94CB29D4F58E3BFC
:1042F000910509F4C4C4C4F4843A910509F45FC774
:1043000034F4833A910509F43EC70C94E72D863ABC
:10431000910509F467C7873A910511F00C94E72DD0
:104320000F9447010C94172E8B3C910509F4E3C7B9
:1043300054F4883C910509F458C7893C910509F467
:1043400099C70C94E72D8C3C910511F40C949A2993
:104350008D3C910511F00C94E72D0F945A130C9499
:10436000172E8D3D910511F40C94AE2AF4F4813D85
:10437000910511F40C94772A64F48F3C910511F4A3
:104380000C94E929803D910511F40C942D2A0C948C
:10439000E72D833D910511F40C94842A8C3D910501
:1043A00011F40C94872A0C94E72D8D3221E09207AA
:1043B00011F40C945F2B6CF48232E1E09E0711F44F
:1043C0000C94032B8C32914011F40C944A2B0C94D6
:1043D000E72D8F3221E0920711F40C94DF2B803906
:1043E000914011F00C94E72D0E941FAE0C94172EF3
:1043F000883FE1E09E0711F40C94EA2C0CF057C0C2
:10440000853A21E0920711F40C94142C2CF58C3988
:10441000E1E09E0711F40C94EE2B7CF4823921E04C
:10442000920711F40C94E82B8A39914011F00C9406
:10443000E72D0E9435310C94172E8D39E1E09E074F
:1044400011F40C94AC2D843A914011F00C94E72DAA
:104450000F941F0A0C94172E853F21E0920711F448
:104460000C94E42C7CF48C3AE1E09E0711F40C945B
:10447000872C843F914011F00C94E72D0E94DF615E
:104480000C94172E863F21E0920711F40C94E72C30
:10449000873F914011F00C94E72D61E083E50F9484
:1044A000020C91E089270F941C2D0C94172E8E3B43
:1044B000E2E09E0711F40C94982D2CF58B3522E048
:1044C000920711F40C94072D7CF48C30E2E09E07E7
:1044D00011F40C94FA2C8835924011F00C94E72DCD
:1044E0000E9448FF0C94172E8A3922E0920711F49B
:1044F0000C947F2D8D3B924011F00C94E72D0E947F
:10450000F7FD0C94172E873EE3E09E0711F40C9400
:104510009E2DCCF4833523E0920711F40C949B2D4F
:10452000803A934011F00C94E72D20913E07309192
:104530003F0790916713926090936713C9010E949F
:1045400011F60C94172E883EE3E09E0711F40C94AC
:10455000C62D893E934011F40C94C92D0C94E72D7F
:1045600080E50F94F50B882329F00F944A136B0113
:104570007C0103C0C12CD12C760183E50F94F50B8F
:10458000882361F00F949A0920E030E04AE754E470
:104590000F9467460F94014E6B017C010E941FAE81
:1045A00080913E0790913F07009721F061E00E94C3
:1045B000FD8A05C060E08BEF96E00E94678A40E0CC
:1045C000C701B6010E94C5380F94B41C0C94172E75
:1045D0008091440784FF02C00C94F02E809146071E
:1045E00087FF02C00C94F02E80914707837011F072
:1045F0000C94F02E0C940E2F8091671383FF25C02E
:1046000086E297E00E94A7F08091671383FF17C0AE
:1046100086E893E10E94DC928BE1E6E8F3E1DE01BB
:10462000119601900D928A95E1F760E070E0CE015D
:1046300001960E9412F9CE0101960F942F0C87E18A
:1046400097E00E94A7F00C94172E0E949DF187E33B
:1046500097E00E94A7F00C94172E0E94ADF80C94DE
:10466000172EE0913E07F0913F078081882329F0C3
:10467000803209F410823196F8CF60E080913E07D5
:1046800090913F070E9459F60C94172E83E50F94E2
:10469000F50B882321F00F9462090E9498C084E5ED
:1046A0000F94F50B8823A9F00F9462096B017C012C
:1046B0000E940D82C0925604D0925704E092580492
:1046C000F0925904CD28CE28CF2819F081E08093AC
:1046D000590F80916B0E8823F9F080E090E0A8E4F8
:1046E000B2E488A399A3AAA3BBA31C8E1D8E1E8E21
:1046F0001F8E19821A821B821C8200E010E020E0CB
:10470000AE01405E5F4FBE01645E7F4FCE010196F9
:104710000F94D60C0C94172E0E945A31882381F0E6
:104720000E94BDF40E94288285EF9FE00E9462F4FF
:10473000109248071092490710924A0710924B07AF
:104740000F94B41C0C94172E8091671383FD02C044
:104750000C94172E83E50F94F50B81110C941E2FEA
:104760000C94172E83E40F94D109882319F18BE45C
:1047700097E00E94A7F08091CD14882391F0BE01AC
:104780006F5F7F4F8AEC94E10E94A8928E010F5FC9
:104790001F4FF80181918F01882339F00E94153253
:1047A000F8CF81E497E00E94A7F08AE00E941532DA
:1047B0000C94172E8091671382FF21C08AE597E041
:1047C0000E94A7F060916313709164138091651348
:1047D000909166134AE00E941C328FE20E941532CB
:1047E00060915F13709160138091611390916213D7
:1047F0004AE00E941C320E941A330C94172E8CE659
:1048000097E00E94A7F00C94172E809167138E7F7B
:10481000809367130C94172E8091671383FD02C059
:104820000C94172E0F944C1C80913E0790913F07DB
:104830000E9437F80C94172E8091671382FD0E9416
:104840001FAE8091671383FD02C00C94172E60E0A9
:1048500080E50F94020C182F682F80913E079091ED
:104860003F070E9459F683E50F94F50B882321F04A
:104870000F9462090E9498C00E94BDF411110C941B
:10488000172E0E9428820C94172E0E94D9817B013A
:104890008C0120E831E541E050E00F94574CC9010C
:1048A0006DE671E00F94D44C4B015C01C801B70177
:1048B00020E13EE040E050E00F94574CCA01B901BE
:1048C00028E130E040E050E00F94574C762E672E00
:1048D000C62ED72EACE32A2E312C412C512CC801E8
:1048E000B701A20191010F94574CF62EE72ECA0191
:1048F000B901A20191010F94574CCB018E010F5FBA
:104900001F4F8114910499F0EF92FF927F936F9360
:104910006F927F92BF92AF929F928F928DE797E0B6
:104920009F938F931F930F930F94994513C0A114D6
:10493000B104B1F0EF92FF927F936F936F927F92E9
:10494000BF92AF9281E897E09F938F931F930F934D
:104950000F9499450FB6F894DEBF0FBECDBF30C09F
:10496000CD2879F0EF92FF927F936F936F927F92B1
:1049700085E897E09F938F931F930F930F9499452A
:10498000E9CF892B69F0EF92FF927F936F9389E8CB
:1049900097E09F938F931F930F930F949945DACFCE
:1049A000EF92FF928DE897E09F938F931F930F9361
:1049B0000F9499450F900F900F900F900F900F90BC
:1049C00060E0C8010E94FD8A0E949DF1B80181E962
:1049D00097E00E9486F18AE00E9415320C94172E0F
:1049E0000E9428820C94172E0E9477820C94172E16
:1049F00080918F0D83FF02C00C94172E89E40F94D1
:104A0000F50B882311F40C94232F0F94720990E076
:104A10001816190614F481E090E026E0289FF001B2
:104A2000299FF00D1124EE59F94E808191810C944B
:104A30002E2F80918F0D83FF02C00C94172E89E4D6
:104A40000F94F50B882311F40C94352F0F947209F1
:104A500090E01816190614F481E090E026E0289FF3
:104A6000F001299FF00D1124EE59F94E80819181BA
:104A700010E00C94462F0E9473FA182F87FD0AC08D
:104A80008CEB92E20E94A7F0812F0E94F6988AE0B8
:104A90000E9415323EA13093300F0C94D23060E06A
:104AA00080E50F94841581110C94172E81E40F94E6
:104AB000D109882329F060912508062F10E002C053
:104AC0000FEF10E089E40F94F50B882399F00F9411
:104AD000720990E01816190614F481E090E026E0BF
:104AE000289FF001299FF00D1124EE59F94E048101
:104AF000158108C083E50F94F50B882319F00F94F6
:104B000062098B01B8010F3F110519F010F06FEF2A
:104B100070E0609325080C94172E60E080E50F94F8
:104B2000841581110C94172E109225080C94172EC1
:104B30008EE40F94F50B882311F40C94172E0F9428
:104B400062096093D0077093D1078093D207909346
:104B5000D3070C94172E83E50F94D109882331F0E5
:104B600060E083E50F94841580938F0D0E949DF182
:104B700087EA97E00E94A7F080918F0D882369F162
:104B8000FEE3EF2EFBE0FF2E00E010E020E080913E
:104B90008F0D90E0A0E0B0E0002E04C0B695A79580
:104BA000979587950A94D2F780FF0EC0DD24D394A1
:104BB000D20E222319F08CE20E941532F701859162
:104BC00094910E94A7F02D2D0F5F1F4F82E0E80EF9
:104BD000F11C05301105D9F6E8CD83EA97E0E3CD65
:104BE00041E060E070E08EEA97E00E94A1F10C9451
:104BF000172E83E50F94F50B882381F00F9472092B
:104C0000282F30E02D33310524F4809300020C94DA
:104C1000172E8CE3809300020C94172E0E949DF1B6
:104C20004091000250E060E070E08CEB97E00E9461
:104C30004AF18AE00E9415320C94172E80918F0D54
:104C400083FF02C00C94172E89E40F94F50B882380
:104C500011F40C94872F0F94720990E0181619061E
:104C600014F481E090E026E0289FF001299FF00DE8
:104C70001124EE59F94E628173810C94912F0E9498
:104C8000A2BED5C783E50F94F50B882309F4CFC7DF
:104C90000F947209182F90E0CD970CF01CE310933D
:104CA00053030F9473256B017C01212F30E0A8EE94
:104CB000B3E00F94AB4CC60ED71EE81EF91EC0928F
:104CC0004F03D0925003E0925103F0925203AFC7CA
:104CD0000F945A00ACC70E94B9990E9477820E9433
:104CE00030AE0E947E3168EE73E080E090E00E947A
:104CF00083F00E94813160E083EC97E00E94678A34
:104D000096C78091600F8F7E80628093600F8FC7FF
:104D100083E50F94F50B8823E9F00F9473256093D6
:104D2000B2167093B3168093B4169093B5160F9481
:104D30009A0920E030E04AE754E40F9467460F9464
:104D4000014E6093010270930202809303029093DC
:104D500004026DC78091440784FF02C00C94A22F07
:104D60008091460787FF02C00C94A22F80914707CD
:104D7000837011F00C94A22F0C94D42F83E50F9420
:104D8000D109882309F453C70F9473256093B21691
:104D90007093B3168093B4169093B5160F949A0936
:104DA00020E030E04AE754E40F9467460F94014E48
:104DB0006093540370935503809356039093570365
:104DC00036C70E9473FA87FD32C79091440794FD5D
:104DD00004C09091460797FF0AC07FEDC72E72E08E
:104DE000D72EE0E9EE2EEDE0FE2E10E009C0909106
:104DF0004707937091F7682F81E00F940F1317C73F
:104E0000F60181916F010F94F50B882309F46DC0B1
:104E1000133009F063C00F949A094B015C0120E044
:104E200030E040EA51E40F94014687FF4EC0A501EF
:104E300094016091B00D7091B10D8091B20D90917F
:104E4000B30D0F94884D2B013C019B01AC01609187
:104E5000090870910A0880910B0890910C080F9432
:104E600067466093090870930A0880930B08909333
:104E70000C08A30192016091C00D7091C10D809149
:104E8000C20D9091C30D0F9467466093C00D70934F
:104E9000C10D8093C20D9093C30D6091190870915C
:104EA0001A0880911B0890911C080F940646A301D4
:104EB00092010F9467460F94014E60931908709306
:104EC0001A0880931B0890931C088092B00D909252
:104ED000B10DA092B20DB092B30D07C00F949A0914
:104EE000F701648B758B868B978B1F5FF4E0EF0E59
:104EF000F11C143009F084CF0E94FBAD98C68AE102
:104F000099E00E94A7F060E08AE099E00E9473C4F3
:104F100060E085EF98E00E9473C461E083E790E36E
:104F20000E9473C461E08AEE98E00E9473C461E05D
:104F30008AED98E00E9473C460E081ED98E00E94E1
:104F400073C461E087EC98E00E9473C461E08DEB6C
:104F500098E00E9473C461E086EB98E00E9473C4FD
:104F600061E08EEA98E00E9473C461E080EA98E014
:104F70000E9473C460E082E998E00E9473C460E01C
:104F800083E898E00E9473C460E085E798E00E949F
:104F900073C460E08FE598E00E9473C460E08EE423
:104FA00098E00E9473C460E08FE398E00E9473C4AD
:104FB00061E088E398E00E9473C460E083E298E0D7
:104FC0000E9473C460E085E198E00E9473C460E0D1
:104FD00082E098E00E9473C460E085EF97E00E9451
:104FE00073C460E080EF97E00E9473C461E083EED9
:104FF00097E00E9473C460E08FEC97E00E9473C456
:1050000016C680913E0790913F07009709F498CB10
:10501000FC012081222309F493CB60E00E94FD8AE9
:1050200006C6F8018081282F2B7F2134A1F080351E
:10503000F1F4F801818180538A30C8F498012E5F21
:105040003F4F89012F5F3F4FF80180818032C9F3C4
:10505000915039F70CC02181213349F4813421F07A
:10506000853461F741E0EACFFF24F394E7CF4111A3
:105070000E949DF1FF2021F081EF99E00E94A7F0AE
:10508000C8010E942033D3C50E948F81D0C581E022
:105090008093A2048093A1040E94CA81C8C560E0E5
:1050A00070E083E50F947515823038F00E9499F115
:1050B00085EF99E00E94A7F0BAC58C01112788E41A
:1050C0000F94F50B8823E1F00F9496098A3A910525
:1050D00044F00F9496098530914034F40F9496096A
:1050E00005C08AEA90E002C084E091E026E0209FBB
:1050F000F001219FF00D1124EE59F94E9183808328
:1051000082E40F94F50B8823D9F00F949609059744
:1051100044F00F9496098937910534F40F94960959
:1051200005C085E090E002C088E790E026E0209F7F
:10513000F001219FF00D1124EE59F94E93838283E3
:1051400086E40F94F50B882309F471C50F94960932
:1051500097FD09C00F9496098F3F910509F034F42B
:105160000F94960905C080E090E002C08FEF90E0B8
:1051700026E0209FF001219FF00D1124EE59F94EF9
:105180009583848354C560E070E083E50F947515C2
:105190008C01833091056CF460E070E080E50F9441
:1051A00075151127F801E253FC4F80830F9480118D
:1051B0003EC541970CF43BC50F94181238C56FEFEC
:1051C0007FEF83E50F94751597FD07C0803191053A
:1051D0000CF02DC50E949CE92AC580916C080E94A4
:1051E0009CE925C50F94000222C50E9473FA182F6E
:1051F00087FD1DC50091750F84E40F94F50B88237E
:1052000009F4D5C60F949A096B017C0120E030E0C7
:10521000A9010F940146882339F124E01202F0011C
:105220001124EF58F04FC082D182E282F38220E055
:1052300030E0A9016091710F7091720F8091730F2E
:105240009091740F0F94014681110CC080E090E0A2
:10525000A0EEBFE38093710F9093720FA093730F32
:10526000B093740F01E0A3C680E08093750F0E9495
:105270004DACDDC40E9473FA87FDD9C45FEDC52E25
:1052800052E0D52E60E9E62E6DE0F62E10E0F60134
:1052900081916F010F94D109882331F10F949A09FC
:1052A0006C8F7D8F8E8F9F8F80E1E8EAF2E0DE01C8
:1052B000119601900D928A95E1F79E012F5F3F4F65
:1052C00048E850E3612FCE014C960E94EBAC6C8D08
:1052D0007D8D8E8D9F8D0F94014EF70160837183BC
:1052E000828393830E94B4AD1F5FF4E0EF0EF11C44
:1052F000143069F69CC40E9473FA87FD98C44FED80
:10530000E42E42E0F42E00E91DE0F70181917F01D7
:105310000F94D109882339F00F949A09F80164A3F6
:1053200075A386A397A30C5F1F4FFDE0003A1F07EC
:1053300061F77DC48091450787FD3EC68091460791
:105340008E7009F039C64091C40D5091C50D609121
:10535000C60D7091C70D87E19AE00E9468F14091F7
:10536000C80D5091C90D6091CA0D7091CB0D84E6A6
:1053700094E30E9468F14091CC0D5091CD0D609165
:10538000CE0D7091CF0D85EF96E30E9468F18AE013
:105390000E9415324CC432E8E32E3FE0F32E10E0B9
:1053A00088E5810F0F94D109882351F00F949A0951
:1053B000F7016083718382839383812F0E9410B3EE
:1053C0001F5FF4E0EF0EF11C133051F70E94B28022
:1053D0002EC483E50F94D109882351F00F949A09C4
:1053E000609341167093421680934316909344162F
:1053F00086E40F94D109882381F00F949A0920E064
:1054000030E040E752E40F94884D60934516709366
:10541000461680934716909348168AE50F94D10953
:10542000882351F00F949A096093491670934A1695
:1054300080934B1690934C1687E50F94D1098823DF
:1054400009F4F5C30F949A09609355167093561694
:105450008093571690935816EAC383E50F94D109A9
:10546000882351F00F949A0960934D1670934E164D
:1054700080934F169093501686E40F94D109882399
:1054800081F00F949A0920E030E040E752E40F9455
:10549000884D6093511670935216809353169093D3
:1054A000541682E50F94D109882381F00F949A094C
:1054B00020E030E040E752E40F94884D60935D16A1
:1054C00070935E1680935F169093601687E50F9435
:1054D000D109882309F4ABC30F949A096093591634
:1054E00070935A1680935B1690935C16A0C383E565
:1054F0000F94D109882309F49AC30F9486098093E5
:1055000040160E9406FA93C30F94271290C383E5B6
:105510000F94F50B882331F00F9496099093310284
:10552000809330028091440790914507A0914607EF
:10553000B0914707892B8A2B8B2B09F078C3609198
:1055400030027091310287E29AE00E9479F185E29F
:105550000E9415328AE00E94153269C30E9473FAD4
:10556000F82E87FD64C383E50F94F50B0F2D0F2CE8
:10557000000C110B882361F10F949609F801EE0FCE
:10558000FF1FEE5CFD4F91838083000F111F000F02
:10559000111F9801285B3D4F7901BC01990F880BC1
:1055A000990B0F9408462AE037ED43E25CE30F9431
:1055B0006746F801E65EF84F2081318142815381D0
:1055C0000F946746F70160837183828393832FC3AF
:1055D0000E949DF185E40E94153280E38F0D0E94A8
:1055E0001532000F111FF801EE5CFD4F60817181D3
:1055F0008BE29AE00E9479F185E20E9415328AE0FE
:105600000E94153214C38AE50F94F50B811105C071
:1056100083E50F94F50B882331F10F949A0920E06C
:1056200030E040E050EC0F94014687FD10C50F9428
:105630009A0920E030E040E050E40F94884E1816BC
:105640000CF400C50F949A092091AC0D3091AD0D6A
:105650004091AE0D5091AF0D0F9467460F94FA4DE7
:10566000CB010F9418348091460787FDF5C48091D3
:105670004707837009F0F0C40E949DF16091B6164F
:105680007091B71683E493E10E9479F18AE00E9459
:105690001532CDC264E071E083E50F9434018C01D2
:1056A00068EE73E080E50F9434018938F3E19F07D9
:1056B00010F088E893E1B8010E943A8AB8C260E02D
:1056C00085E40F948415811173C080E50F94D1098E
:1056D000882351F00F949A096093D1167093D216D3
:1056E0008093D3169093D41689E40F94D10988231C
:1056F00081F00F949A092CEA35EC47E25EE30F94AF
:1057000067466093D5167093D6168093D7169093FC
:10571000D81684E40F94D109882381F00F949A0954
:105720002CEA35EC47E25EE30F94884D6093D9167E
:105730007093DA168093DB169093DC160E949DF12D
:105740004091D1165091D2166091D3167091D41613
:105750008BE39AE00E9468F12CEA35EC47E25EE3C5
:105760006091D5167091D6168091D7169091D81663
:105770000F94884DAB01BC0187E39AE00E9468F169
:105780002CEA35EC47E25EE36091D9167091DA16A7
:105790008091DB169091DC160F946746AB01BC013B
:1057A00083E39AE00E9468F18AE00E9415323FC2CA
:1057B0000E9499F18FE39AE00E94A7F038C20E94FC
:1057C00081BA35C281E00E949D6D0E94B2802FC2D5
:1057D00080E00E949D6D0E94B28029C280914407A2
:1057E00083FD40C480914607867009F03BC40E9447
:1057F0009DF181E79AE00E94A7F080914E020E94FD
:1058000041F18AE00E94153240918A0250918B0248
:1058100060918C0270918D0281E59AE00E9468F19E
:105820008AE00E94153203C26FEF7FEF89E40F9484
:105830007515082F6FEF7FEF8AE40F947515182FF9
:105840008AE50F94F50B811108C081E50F94F50BE3
:10585000D82E882309F42BC401C0D12CC02E81E09E
:10586000800F853008F04CC0912E81E0810F85308B
:1058700008F046C00F949A092B013C01F02E07FD59
:10588000F12C07FF02C0F3E0CF2E812E17FD812CF3
:1058900017FF02C0E3E09E2ECF1408F4C8C1E82C25
:1058A00024E0F29E500111249E1440F10E2D10E0D0
:1058B000DD2071F0F501E00FF11FEE0FFF1FEE0F7D
:1058C000FF1FEE58F94E208131814281538103C080
:1058D00020E030E0A9010A0D1B1D000F111F000F71
:1058E000111F0E58194EC301B2010F94054DF80156
:1058F0006083718382839383E394D6CFF394CCCF78
:105900000E9499F182EE96E00E94A7F090C10F9458
:10591000421F81118CC108EC16E124E732E03DA35F
:105920002CA3CE0101961C0140E6C42E42E2D42EE7
:105930007C01F8016591759185919491ECA1FDA18F
:1059400081909190A190B190FDA3ECA3A501940149
:105950000F94044D2B013C01F70160837183828316
:10596000938320E030E040EA51EC0F94884E87FDAD
:105970000AC020E030E040EA51E4C301B2010F94D4
:10598000014618162CF4F601849118160CF496C3EF
:10599000F70181909190A190B1907F0120E030E0DB
:1059A00040EA51ECC501B4010F94884E87FDC5C390
:1059B00020E030E040EA51E4C501B4010F94014613
:1059C00018160CF085C3B9C30F94062D30C10F947F
:1059D000762B2DC120932B160E94236710922B1635
:1059E000882309F424C10E949DF18EED9AE00E9463
:1059F000A7F01DC18091671382FF04C0806480936B
:105A0000671315C183FF13C10F944C1C10C10E9472
:105A100073FA082F87FD0BC185E50F94D109882300
:105A2000A9F1E02E002E000CFF080F949A094B01FB
:105A30005C0120E030E0A9010F94884E87FF04C08C
:105A4000B7FAB094B7F8B094C70123E0880F991F54
:105A50002A95E1F79C01285C394E7901F901808291
:105A60009182A282B38220E030E048E453E4C50191
:105A7000B4010F94884E18164CF480E090E0A8E42E
:105A8000B3E4F70180839183A283B3838CE40F9402
:105A9000D109882309F4CBC0002E000C110B0F9400
:105AA0009A096B017C0120E030E0A9010F94884E37
:105AB00087FF04C0F7FAF094F7F8F09420E030E0A4
:105AC00048E453E4C701B6010F94884E980193E06F
:105AD000220F331F9A95E1F7F901E85CF94E181689
