:100000000C94241F0C94551F0C94551F0C94551FD1
:100010000C94551F0C94551F0C94551F0C94551F90
:100020000C94551F0C94551F0C94551F0C94551F80
:100030000C94551F0C945F990C94551F0C94551FEC
:100040000C94551F0C949EDF0C94551F0C94551F57
:100050000C94551F0C94551F0C945F9C0C9415998F
:100060000C94551F0C94103C0C94063C0C94551F9A
:100070000C94551F0C94551F0C94551F0C94551F30
:100080000C94551F0C94551F0C94551F0C94551F20
:100090000C94551F0C94551F0C94551F0C94551F10
:1000A0000C94551F0C94551F0C94551F0C94551F00
:1000B0000C94551F0C94551F0C94551F0C94551FF0
:1000C0000C94551F0C94551F0C94551F0C94551FE0
:1000D0000C94551F0C94551F0C94551F0C94551FD0
:1000E0000C94551F823987398C399639A039193AC1
:1000F000AA39B239BA39C439CE39D839E739F139E0
:10010000193AFB39053A0F3A483F663D9F3D843F17
:100110009F3D9F3D9F3D9F3D9F3D9F3D9F3D9F3DFF
:100120009F3D9F3D9F3D9F3D9F3D9F3D9F3D9F3DEF
:100130009F3D9F3D9F3D9F3D9F3D9F3D9F3D9F3DDF
:100140009F3D9F3D7E3F9F3D9F3D9F3D9F3D9F3DEE
:100150009F3D9F3D9F3D573F9F3D9F3D9F3D9F3D05
:100160009F3D9F3D9F3D9F3D9F3D9F3D9B3F9C3DB4
:1001700061E96EE983E990E9ADE9C2E9CFE9E0E937
:10018000F1E90AEA23EA3CEA55EA72EA8FEAAF01AA
:100190006B0247023F011F017102F3000F012102B0
:1001A000C301B7013701690165028702D701F10078
:1001B0005102E301BF010D011B0233016301F7008E
:1001C0002D0151028D01BD0169020C944B480C9424
:1001D000AC560C9457480C9425480C9444AF0C949E
:1001E000C27D0D94DB270D948B1F0C94CA7D0D945A
:1001F00004280C94AC550C94B6560C949C3D0C946D
:10020000843F0C943F480C94BD7E0C94B27D0D94B9
:1002100048070C94573F0C94DDD70D94F2270D94AA
:10022000971F0C94DE820C9442440C94C9770C9472
:10023000DBD70C945F740C949D560C94DFD70D940F
:10024000851F0C94F33C0C94C0560C94F63C0C9413
:10025000F2550C94926F0C94D7690D9408280C9465
:10026000ED7A0C94FD430D94FA270C94FB390D9410
:10027000941F0C94CFE90C94BB560C94EA430D9454
:100280007F1F0C9496390C94D9D70C9497560C94E4
:100290005A800C948FEA0C947A690C94F9480C9467
:1002A0009B3F0C9419EC0C9439710C9443460C94BC
:1002B000E0E90C9438490C94663D0C9463430C942B
:1002C00056740C9482390D9400280C94B2390C9415
:1002D00083570D94E1270D94510A0C9459740C9492
:1002E000193A0C94AB550D944F0A0C9472EA0C9485
:1002F0005A3C0C9462740C94FE590C940F3A0C9472
:10030000A0390D94D7050C947E3F0C946EE90D94A2
:100310005E080C94958D0C9434460D940E280C9424
:10032000C9550C9487710C94EB3F0C947F5B0C9433
:10033000F5470C94CE7D0C9481710C9409A40D9416
:10034000FF0A0C9487390C94BA390C9469480C94C0
:100350001A690C9429490C940B540C94F2A30D9433
:100360009C1F0C9451480C94BE7D0C9445480D94F0
:10037000911F0C94BA7D0C94F23C0D9412280D94AC
:10038000EC270C94BB710D94A91F0C94FC750C9474
:10039000CE690C948A430C946D6B0C94CE390C94FA
:1003A0000AEA0C94D4DB0C9462490C9447490D94EE
:1003B000D7270C9441800C948A570C94D67D0C94CA
:1003C000504C0C944DF50D94E8270C9483E90C9453
:1003D0005B690C94D56C0C9493710C94E7390C9474
:1003E000AA390C9416440C94DA7A0C94E7690C94AC
:1003F00090E90C94BC430C94EC550C94C67D0C9481
:1004000097DB0C94E2980C94EA4B0D944D0A0C94F3
:100410008A580C94E2820C94B67D0C94F94B0C949F
:1004200033480C9469710C9454800C94B8980C94D3
:10043000C4390C941A490D94F6270D94530A0C9460
:10044000573C0D948E1F0C94D7430C94E6550C9496
:1004500093480C9443850C945B440C9474400C9426
:1004600035800C9412400C9461E90C9453490C941F
:100470004B710C949B6A0C94B1560D946F420C9482
:10048000A7560C9439480C9404480C94DF690D94D9
:10049000821F0C94F8550C94DA820C94D4720C944C
:1004A000AA7B0D941B280C945D480D948D420C94EE
:1004B000DBA30C94B5550C9475710C94ABD90C94CA
:1004C000B7550C9420A40C9488550D94E4270C94F3
:1004D000067B0D9416280D947C1F0C942D480C94CB
:1004E000B9550D94881F0C945D710C9455EA0C94C9
:1004F000D27D0C94F1390C94C98D0C949F3D0C94D1
:1005000063480C94DA7D0C945C740C9460800D94B8
:10051000D3270C94F1E90C94F3820C9429440C94A5
:10052000ADE90C948D710C94D8390C94A3430C94C0
:10053000ACA90C94DC710C9471430C94C5710C94AF
:100540002B460C94A2560C94053A0C9491560C949C
:10055000FE550C9423EA0C94C2E90C9424F50D94F6
:100560002E0A0C94483F0C94D7D70C948C390C94D9
:1005700018690C9474480C943CEA0C94B2714E4186
:100580004E494E495459494E46CDCCCC3D0AD7230D
:100590003C17B7D13877CC2B329595E6241FB14F55
:1005A0000A000020410000C84200401C4620BCBE9A
:1005B0004CCA1B0E5AAEC59D7400407A10F35A0007
:1005C000A0724E18090010A5D4E80000E87648177C
:1005D0000000E40B54020000CA9A3B000000E1F561
:1005E00005000080969800000040420F000000A027
:1005F0008601000000102700000000E80300000052
:10060000006400000000000A00000000000100007B
:100610000000002C76D888DC674F0823DFC1DFAEEE
:1006200059E1B1B796E5E3E453C63AE651997696B7
:10063000E8E6C28426EB898C9B62ED407C6FFCEF80
:10064000BC9C9F40F2BAA56FA5F490055A2AF75CAE
:10065000936B6CF9676DC11BFCE0E40D47FEF52060
:10066000E6B500D0ED902E03009435770500808428
:100670001E080000204E0A000000C80C333333333C
:100680000F986E12831141EF8D2114893BE65516A8
:10069000CFFEE6DB18D1844B381BF77C1D901DA4E0
:1006A000BBE424203284725E228100C9F124ECA1D3
:1006B000E53D27434F4D4D554E49434154494F4E1B
:1006C0000044525952554E004552524F5253004920
:1006D0004E464F004543484F00456D206573706599
:1006E00072612E2E2E004D65736820706F696E74D6
:1006F000206F7574206F662072616E67650A00C393
:100700008120657370657261206465206F72646515
:100710006D0053656D206D6F76696D656E746F0049
:10072000456E642066696C65206C6973740A0042CA
:100730006567696E2066696C65206C6973740A0070
:100740004E6F206D656469610A00286E6F206669CE
:100750006C65290043757272656E742066696C65FC
:100760003A20005344207072696E74696E6720628B
:1007700079746520004E6F74205344207072696E46
:1007800074696E670A0025697920256964202569E6
:10079000682025696D20256973005072696E742088
:1007A00074696D653A20004171756563656E646FAB
:1007B0002E2E2E0045202553006F666600444542CC
:1007C00055473A004D3131322053687574646F7764
:1007D0006E004D3131332053005A38545F4D332071
:1007E0004F46462E004348414D4245525F54454DC9
:1007F0005045524154555245004241425953544587
:100800005050494E470041524353004D4F54494FB9
:100810004E5F4D4F44455300544845524D414C5F47
:1008200050524F54454354494F4E004C4F4E475F32
:1008300046494C454E414D45004155544F52455057
:100840004F52545F53445F535441545553005344E3
:10085000434152440050524F4D50545F53555050F5
:100860004F525400454D455247454E43595F504104
:100870005253455200434153455F4C494748545FEA
:100880004252494748544E45535300544F47474CF2
:10089000455F4C494748545300534F4654574152C3
:1008A000455F504F574552004255494C445F5045B3
:1008B0005243454E54004C4556454C494E475F44C3
:1008C000415441005A5F50524F42450052554E4FDD
:1008D0005554004155544F4C4556454C00505249D3
:1008E0004E545F4A4F420050524F475245535300B7
:1008F0004155544F5245504F52545F54454D50004E
:10090000564F4C554D45545249430042494E415271
:10091000595F46494C455F5452414E53464552003B
:1009200053455249414C5F584F4E5F584F46460021
:100930004649524D574152455F4E414D453A4D61F2
:10094000726C696E206D61726C696E2D322E302E64
:100950003820284E6F762020392032303230203136
:10096000363A35323A35392920534F555243455F8F
:10097000434F44455F55524C3A68747470733A2F34
:100980002F6769746875622E636F6D2F4D61726C8D
:10099000696E4669726D776172652F4D61726C691F
:1009A0006E2050524F544F434F4C5F56455253495F
:1009B0004F4E3A312E30204D414348494E455F5409
:1009C0005950453A5A38545F4D3320455854525582
:1009D0004445525F434F554E543A31205555494492
:1009E0003A63656465326132662D343161322D348B
:1009F0003734382D396231322D63353563363266FE
:100A000033363766660A002F2F20004D31343520EB
:100A1000533C696E6465783E206F7574206F662064
:100A200072616E67652028302D31290A00416363A9
:100A3000656C65726174696F6E3A20500046523A77
:100A40000020466C6F773A200020643A0020693A13
:100A50000020703A00496E76616C69642065787494
:100A600072756465720A0046696C616D656E74200A
:100A700072756E6F75742064697374616E6365203E
:100A8000286D6D293A200046696C616D656E742091
:100A900072756E6F757420004D34323120696E634B
:100AA0006F727265637420706172616D65746572D6
:100AB0002075736167650A004F66667365747320FD
:100AC00061706C696361646F73004572723A20549F
:100AD0006F6F206661722100546F6F206661722013
:100AE00066726F6D207265666572656E63652070F3
:100AF0006F696E740A00454550524F4D204F4B0AA6
:100B000000205A323A004475616C20456E6473745B
:100B10006F702041646A7573746D656E7420286D02
:100B20006D293A2000506F7765722D6C6F737320BA
:100B30007265636F766572792000446F6E65207010
:100B400072696E74696E672066696C650A004D375C
:100B500037004D333100D406CF06C806C106B306B0
:100B60004572726F722077726974696E6720746F54
:100B700020454550524F4D210A004D323930004D2D
:100B8000343130004D313132004D31303800504178
:100B90005241444F2E20005072696E74657220736A
:100BA000746F707065642064756520746F20657261
:100BB000726F72732E2046697820746865206572A2
:100BC000726F7220616E6420757365204D393939FA
:100BD00020746F20726573746172742E20285465BE
:100BE0006D706572617475726520697320726573CA
:100BF00065742E2053657420697420616674657273
:100C00002072657374617274696E67290A004E6F91
:100C100020436865636B73756D2077697468206C19
:100C2000696E65206E756D6265722C204C617374FF
:100C3000204C696E653A2000636865636B73756D5F
:100C4000206D69736D617463682C204C617374202E
:100C50004C696E653A20004C696E65204E756D6278
:100C60006572206973206E6F74204C617374204C20
:100C7000696E65204E756D6265722B312C204C615A
:100C80007374204C696E653A20004D313130005349
:100C9000442072656164206572726F720A002121BE
:100CA000204B494C4C206361757365642062792048
:100CB0004B494C4C20627574746F6E2F70696E0ACC
:100CC000002121204B494C4C2063617573656420E1
:100CD000627920746F6F206D75636820696E61633F
:100CE000746976652074696D65202D206375727254
:100CF000656E7420636F6D6D616E643A200062757D
:100D000073793A2070617573656420666F7220692B
:100D10006E7075740A00627573793A20706175732C
:100D2000656420666F7220757365720A0062757360
:100D3000793A2070726F63657373696E670A004356
:100D4000617274C3A36F2072656D6F7669646F0002
:100D500043617274C3A36F20696E73657269646FB7
:100D6000004D3130303053004D3630302054313763
:100D7000004572723A207574663820666F6E742072
:100D80006E6F7420696E697469616C697A65642E2E
:100D900000000C0F00FE07022503BB01FFFE0AFE48
:100DA00008FE05080806000040F0C88888987810FA
:100DB000050808060000C0F88888888888F80505B6
:100DC000050600012030F830200508080600002044
:100DD00070F820202020E00509090600FF2070A8F7
:100DE000A8B888887020070505070001D86C366C04
:100DF000D80509090600FFF8A88888888888A8F817
:100E0000050A0A0600FE205050505088A8A8887095
:100E100003030306000340A040FFFFFFFFFFFFFFA7
:100E2000FFFFFFFFFFFFFFFFFFFFFFFFFFFFFF00D1
:100E300000000605FF010707060200808080808011
:100E40000080030303060105A0A0A0050606060016
:100E50000050F85050F8500509090600FF2070A80E
:100E6000A07028A87020050707060000C8C8102039
:100E700040989805070706000040A0A040A8906889
:100E80000103030602058080800309090601FF2093
:100E900040408080804040200309090601FF8040D7
:100EA0004020202040408005070706000020A87051
:100EB0002070A8200505050600012020F82020024A
:100EC00003030601FFC04080050101060003F8028C
:100ED0000202060100C0C005070706000008101046
:100EE00020404080050707060000708898A8C88841
:100EF0007003070706010040C040404040E005077E
:100F000007060000708808102040F8050707060053
:100F100000F8081030088870050707060000103038
:100F20005090F81010050707060000F880F0080838
:100F30008870050707060000304080F0888870053B
:100F40000707060000F808101020202005070706F4
:100F50000000708888708888700507070600007098
:100F6000888878081060020505060100C0C000C02E
:100F7000C00206060601FFC0C000C0408003050590
:100F80000601012040804020050303060002F8000E
:100F9000F80305050601018040204080050707068B
:100FA0000000708810202000200507070600007050
:100FB00088B8A8B88070050707060000708888F810
:100FC000888888050707060000F04848704848F000
:100FD0000507070600007088808080887005070775
:100FE000060000F04848484848F00507070600009A
:100FF000F88080F08080F8050707060000F8808000
:10100000F08080800507070600007088808098883F
:1010100070050707060000888888F8888888030715
:1010200007060100E04040404040E0050707060099
:101030000038101010109060050707060000889017
:10104000A0C0A090880507070600008080808080EF
:1010500080F805070706000088D8A88888888805D2
:1010600007070600008888C8A8988888050707062B
:10107000000070888888888870050707060000F0DF
:101080008888F080808005070706000070888888BF
:10109000A89068050707060000F08888F0A09088EF
:1010A000050707060000708880700888700507072C
:1010B000060000F820202020202005070706000059
:1010C00088888888888870050707060000888888CF
:1010D0008850502005070706000088888888A8A83F
:1010E00050050707060000888850205088880507AB
:1010F00007060000888850202020200507070600EA
:1011000000F80810204080F80309090601FFE0807C
:10111000808080808080E0050707060000804040D6
:10112000201010080309090601FFE02020202020DC
:101130002020E00503030600052050880501010674
:1011400000FEF8030303060105804020050505069F
:10115000000070087888780507070600008080F096
:10116000888888F005050506000070808088700575
:1011700007070600000808788888887805050506AE
:1011800000007088F08070050707060000304840B6
:10119000E04040400507070600FE70888888780810
:1011A000700507070600008080F08888888803079C
:1011B000070601004000C0404040E0040909060164
:1011C000FE10003010101010906005070706000098
:1011D00080808890E09088030707060100C04040A7
:1011E000404040E0050505060000D0A8A8A8A805D5
:1011F0000505060000B0C8888888050505060000BA
:1012000070888888700507070600FEF0888888F0D7
:1012100080800507070600FE78888888780808051A
:101220000505060000B0C8808080050505060000A1
:1012300078807008F00507070600002020F82020BD
:1012400020180505050600008888889868050505AA
:10125000060000888888502005050506000088885B
:10126000A8A85005050506000088502050880507ED
:10127000070600FE88888850204080050505060086
:1012800000F8102040F80309090601FF2040404003
:1012900080404040200109090602FF808080808054
:1012A000808080800309090601FF80404040204083
:1012B00040408005030306000248A890FFFFFFFF9F
:1012C000FFFFFFFFFFFFFFFFFFFFFFFFFFFFFFFF2E
:1012D000FFFFFFFFFFFFFFFFFFFFFFFFFF0000001B
:1012E0000605FF01070706020080008080808080DD
:1012F0000507070600FF2070A8A0A87020050707B3
:10130000060000304840E04048B0050505060000F2
:10131000A8508850A80507070600008850F820F854
:101320002020010707060200808080008080800462
:10133000080806010070806090906010E0030101D1
:10134000060107A00607070600007884B4A4B48449
:101350007803050506010460A06000E005050506A8
:1013600000002850A05028050303060001F80808D3
:10137000030101060103E00607070600007884B4B4
:10138000A4A48478050101060007F80404040601FA
:1013900005609090600507070600002020F82020D7
:1013A00000F803050506010440A02040E003050500
:1013B000060104C0204020C00303030601052040AD
:1013C000800507070600FE88888898E88080050861
:1013D0000806000078E8E8E86828282802020206E3
:1013E0000203C0C00302020601FE20C00305050679
:1013F000010440C04040E003050506010540A0404F
:1014000000E0050505060000A0502850A0050A0AC6
:1014100006000040C048506050B0507810050A0ADD
:1014200006000040C048506050A8081038050A0A5D
:10143000060000C0204830E050B050781005070783
:1014400006000020002020408870050A0A060000DF
:10145000402000708888F8888888050A0A060000FD
:10146000102000708888F8888888050A0A0600001D
:10147000205000708888F8888888050A0A060000CD
:1014800068B000708888F888888805090906000017
:101490005000708888F8888888050A0A06000020AD
:1014A0005020708888F8888888050707060000782B
:1014B000A0A0F0A0A0B80509090600FE70888080F1
:1014C0008088701060050A0A060000402000F8803D
:1014D00080F08080F8050A0A060000102000F880DD
:1014E00080F08080F8050A0A060000205000F8808D
:1014F00080F08080F80509090600005000F880801F
:10150000F08080F8030A0A060100804000E04040B5
:10151000404040E0030A0A060100204000E040404D
:10152000404040E0030A0A06010040A000E04040BD
:10153000404040E0030909060100A000E0404040AF
:101540004040E0050707060000704848E84848703A
:10155000050A0A06000068B0008888C8A89888882C
:10156000050A0A0600004020007088888888887074
:10157000050A0A0600001020007088888888887094
:10158000050A0A0600002050007088888888887044
:10159000050A0A06000068B000708888888888708C
:1015A0000509090600005000708888888888700541
:1015B000050506000188502050880509090600FF2E
:1015C000087098A8A8A8C87080050A0A06000040FC
:1015D000200088888888888870050A0A060000101C
:1015E000200088888888888870050A0A06000020FC
:1015F000500088888888888870050909060000508E
:101600000088888888888870050A0A0600001020EB
:10161000008888502020202004070706010080E071
:10162000909090E080050707060000708890A090D9
:1016300088B0050808060000402000700878887807
:101640000508080600001020007008788878050852
:101650000806000020500070087888780508080601
:10166000000068B000700878887805070706000059
:10167000500070087888780508080600002050207F
:101680007008788878050505060000702870A07835
:101690000507070600FE708880887010600508083E
:1016A0000600004020007088F080700508080600E1
:1016B000001020007088F0807005080806000020E7
:1016C00050007088F0807005070706000050007019
:1016D00088F08070030808060100804000C0404088
:1016E00040E0030808060100204000C0404040E000
:1016F00003080806010040A000C0404040E0030786
:1017000007060100A000C0404040E00509090600AE
:101710000050205008788888887005080806000066
:1017200068B000B0C8888888050808060000402016
:101730000070888888700508080600001020007076
:101740008888887005080806000020500070888886
:10175000887005080806000068B0007088888870E6
:101760000507070600005000708888887005050589
:101770000600012000F80020050505060000789805
:10178000A8C8F0050808060000402000888888885E
:1017900070050808060000102000888888887005F9
:1017A0000808060000205000888888887005070710
:1017B00006000050008888888870050A0A0600FE26
:1017C000102000888888502040800509090600FE06
:1017D0008080F0888888F080800509090600FE5026
:1017E00000888888502040804E65787420436F724E
:1017F0006E657200446F6E65004E65787400496EC8
:10180000646F2070617261206F726967656D004658
:1018100061646520486569676874004C6576656C2D
:1018200020426564004732380A4732390043617408
:101830006368205A204F666673657400473239200A
:101840004E004C6576656C20436F726E6572730056
:1018500020446573526574202056002044657352FD
:101860006574206D6D00204C6576616E7461722028
:101870006D6D0020526574726169722020560020DF
:1018800052657472616972206D6D00204175746FCC
:101890002D5265747261637400426162797374657C
:1018A00070205A0056656C2E2076656E746F696ED6
:1018B0006861002008204269636F004D656E7520E5
:1018C0007072696E636970616C00466C75786F0048
:1018D00056656C6F636964616465002568753A25B7
:1018E0003032687500256875642025303268753A95
:1018F00025303268750020202020202020001FE0A5
:101900002010201020101020102020102010303027
:101910000840048003001FE03FF03FF03FF01FE06D
:101920001FE03FF03FF03FF00FC0078003003FFF94
:10193000F038007030FC3020FC102078102030107F
:101940002C00D02E31D02F7BD02F7BD02E31D02C1D
:1019500000D020301020781020FC1030FC303800EF
:10196000703FFFF03FFFF038007031863023871062
:101970002787902F87D02F03D02030102078102079
:1019800078102030102F03D02F87D02787902387FF
:10199000103186303800703FFFF01FFFF81FFFF84E
:1019A0000410400208200208200410400820801083
:1019B00041001041000820800410400000001FFF7B
:1019C000F81FFFF83300CC00CC120048004812008A
:1019D000480048120048004813FFCFFFC81000001D
:1019E00000081FFF83FFF8000FC7E000000FEFE0C3
:1019F000000003EF80000001EF000000006C000019
:101A0000000000000041637469766520562D746FF4
:101A10006F6C004D6F76696D656E746F004D383474
:101A20000049722070617261206F726967656D0094
:101A300054656D7065726174757261004142530046
:101A4000504C410044657361637469766172206D26
:101A50006F746F7265730049722070617261206FDC
:101A6000726967656D205A004732385A0049722002
:101A700070617261206F726967656D20590047322D
:101A800038590049722070617261206F7269676510
:101A90006D20580047323858004732380050726580
:101AA0002D617175656365722024204269636F0042
:101AB0005072652D61712E202420084261736500EB
:101AC000417272656665636572005072652D617161
:101AD0007565636572202400546F74616C00401A50
:101AE0003C1A0000A0C1000000000000000000003F
:101AF0009B4300009B430000C84353657474696EA8
:101B000067732053746F7265640020627974657323
:101B10003B20637263200053657474696E677320A1
:101B200053746F726564202800454550524F4D2014
:101B30006461746173697A65206572726F722E0ACE
:101B4000002073746F7265642073657474696E67C6
:101B50007320726574726965766564202800202898
:101B600063616C63756C6174656429210A002021CE
:101B70003D2000454550524F4D20435243206D6952
:101B8000736D61746368202D202873746F726564AF
:101B9000292000496E6465783A200044494749503D
:101BA0004F5453204C6F616465640A0044494749AF
:101BB000504F5453204C6F6164696E670A00204D8A
:101BC00061726C696E3D563833290A0045455052A2
:101BD0004F4D2076657273696F6E206D69736D610C
:101BE0007463682028454550524F4D3D00506F7733
:101BF0006572204F757461676500436F6E66696733
:101C000075726174696F6E004475616C205A20456D
:101C10004E4453544F50004455414C205A20445296
:101C20004956455200544954414E20455854525546
:101C30004445520042696C696E656172204C65765C
:101C4000656C696E670045787472756465727300BF
:101C50007777772E7A6F6E657374617233642E6353
:101C60006F6D005A38545F4D3300323032302D31B1
:101C7000312D3039006D61726C696E2D322E302E2F
:101C8000380056312E372E3300546865726D6973F3
:101C9000746F727300426F61726420496E666F00E8
:101CA0005072696E74657220496E666F004D3130F6
:101CB000303000506172617220696D7072657373AB
:101CC000C3A36F005265746F6D617220696D70728D
:101CD000657373C3A36F004261636B0053746F70CD
:101CE0000053656D2063617274C3A36F2053440079
:101CF00054726F6361722063617274C3A36F205367
:101D000044004D3231004465736C69676172004D67
:101D100038310054726F6361722066696C616D6561
:101D20006E746F0041626F7574205072696E7465D5
:101D300072004166696E6172005061757361722054
:101D4000696D7072657373C3A36F004D6F6E6974B4
:101D50006F72697A61720053746172742050726993
:101D60006E740043616E6E6F7420656E74657220D0
:101D70007375626469723A2000022E2E004D6978F4
:101D80006572003F0043616E63656C005265766565
:101D9000727365204772616469656E740020204526
:101DA0006E6420562D746F6F6C00537461727420D2
:101DB000562D746F6F6C002020456E64205A3A00D7
:101DC0002534642E2564206D6D0053746172742077
:101DD0005A3A004379636C65204D697800436F6D12
:101DE0006D697420562D746F6F6C204D69780043B7
:101DF0006F6D706F6E656E74203D00562D746F6F41
:101E00006C7320576572652052657365740052616A
:101E10006E646F6D204D6978003A64697361626C1D
:101E200065003A20656E61626C65004772616469A5
:101E3000656E744D697800526573657420562D7413
:101E40006F6F6C73004361727265676172206461C9
:101E5000206D656D6F7269610047756172646172B2
:101E6000206E61206D656D6F7269610044657376E7
:101E7000696F205A00416476616E63656420536522
:101E80007474696E6773004F6666004F6E00554E3E
:101E90004C4F41442046494C414D454E5400464923
:101EA0004C414D454E54204348414E4745005265F4
:101EB00073742E20646520656D657267656E2E00F3
:101EC000446566696E69C3A7C3B565732024005273
:101ED000756E6F75742053656E736F720052657402
:101EE00072616972004D36303020423020542569CD
:101EF000004D37303120542569004D3730322054A1
:101F0000256900556E6C6F61642046696C616D6572
:101F10006E74202A00556E6C6F616420416C6C00F9
:101F20004D373032004C6F61642046696C616D65DD
:101F30006E74202A0054726F6361722066696C614E
:101F40006D656E746F202A005075726765206D6F25
:101F5000726500436F6E74696E7565005245535526
:101F60004D45204F5054494F4E533A005052494E20
:101F700054205041555345440020204E6F7A7A6CCE
:101F8000653A200052756E617761792057617463FC
:101F9000683A204F464600313330004245443A20EB
:101FA0003130306B207769746820342E376B2070A5
:101FB000756C6C2D75700052756E61776179205764
:101FC000617463683A204F4E004D61782054656D0E
:101FD0007000323735004D696E2054656D700045D4
:101FE000313A203130306B207769746820342E37D5
:101FF0006B2070756C6C2D757000505355004765E3
:102000006E657269630050726F746F636F6C00313C
:102010002E30004261756400313135323030006855
:10202000747470733A2F2F7777772E616C696578A7
:1020300070726573732E636F6D2F6974656D2F33C6
:10204000323936353430363339362E68746D6C009B
:102050005A4F4E4553544152205A5249425F5636C8
:10206000005061726B696E672E2E2E000000576162
:10207000697420666F720066696C616D656E7420AC
:102080006368616E676500746F20737461727400B9
:102090005761697420666F720066696C616D656E68
:1020A0007420756E6C6F616400004E6F7A7A6C6597
:1020B0002068656174696E6700506C6561736520A6
:1020C000776169742E2E2E00005072657373206242
:1020D0007574746F6E00746F2068656174206E6F24
:1020E0007A7A6C650000496E736572742066696C5B
:1020F000616D656E7400616E64207072657373202B
:10210000627574746F6E00746F20636F6E74696EA5
:102110007565005761697420666F720066696C614D
:102120006D656E74206C6F6164000050726573732E
:1021300020427574746F6E00746F20726573756DD4
:1021400065207072696E7400005761697420666F53
:1021500072207072696E7400746F20726573756D91
:10216000652E2E2E00005761697420666F7200661E
:10217000696C616D656E74207075726765000049E9
:102180006D7072657373C3A36F2063616E63656C5A
:10219000616461004D323520500A4D323400506187
:1021A0007573696E672E2E2E006F70656E00545227
:1021B000494747455245440066696C616D656E74D8
:1021C000007A5F70726F6265007A325F6D696E00CF
:1021D0007A5F6D696E00795F6D696E00785F6D6919
:1021E0006E005265706F7274696E6720656E6473FD
:1021F000746F70207374617475730A007C3C3E5E6A
:102200002B3D3F2F5B5D3B2C2A225C00020000002F
:1022100000000000000000000000000000000000BE
:1022200000000000000000000000000000000000AE
:102230000000000000000000000000000007FFC3D5
:10224000FF870187FF0FFCFFFC1E01FF8007FFC314
:10225000FF87018FFF1FFCFFFC1E03FFC00000C6AD
:1022600000C7018C0018000300618300C00001C694
:1022700000C7C18C0018000300618300C000038602
:1022800000C6C18C0018000301806300C00007066F
:1022900000C6618C0018000301806300C0000E06B8
:1022A00000C6618C0018000301806300C0001C069A
:1022B00000C6318FFE1FF803018063FFC00038069F
:1022C00000C6318FFE0FFC03018063FF80007006A3
:1022D00000C6198C00000C0301FFE30C0000E006AF
:1022E00000C6198C00000C0301FFE3070001C006C3
:1022F00000C60D8C00000C03018063018003800682
:1023000000C60D8C00000C030180630180070006ED
:1023100000C6078C00000C030180630180060006E4
:1023200000C6078C00000C03018063018007FFC317
:10233000FF86038FFF1FFC03018063018007FFC33B
:10234000FF860387FF1FF803018063018000000000
:10235000000000000000000000000000000000007D
:10236000000000000000000000000000000000006D
:10237000000000000000000000000000000000005D
:1023800000000000000000000000000000F0004A13
:102390000110013B0130012C0140012701500122B5
:1023A0000170011D0190011801B0011301C0010E5F
:1023B00001F0010901100204013002FF006002FA7D
:1023C000009002F500C002F0000003EB004003E6BD
:1023D000008003E100D003DC002004D700E004D239
:1023E00000C005CD004006C800D006C3008007BE6F
:1023F00000F008B9004009B400C009AF00B00AAA53
:1024000000B00BA500D00CA000000E9B00C01096E1
:10241000005012910000148C00C0158700B0178284
:1024200000B0197D00D01B7800001E730040206EA4
:102430000090226900F024640040275F0090295A30
:1024400000E02B5500102E500020304B001032467B
:1024500000E033410090353C0010373700703832CF
:1024600000A0392D00B03A2800A03B2300603C1E9C
:1024700000103D1900903D1400103E0F00703E0A00
:1024800000C03E0500003F0000403FFBFF803FF6DC
:10249000FFC03FF1FF2020506C616E6E6572427587
:1024A0006666657242797465733A200020467265EB
:1024B00065204D656D6F72793A2000436F6D7069CC
:1024C0006C65643A204E6F762020392032303230ED
:1024D0000A00204C61737420557064617465643A1D
:1024E00020323032302D31312D3039207C20417571
:1024F00074686F723A20285A4F4E45535441522CFB
:102500002048616C6C79290A006D61726C696E2DCE
:10251000322E302E380A004D61726C696E002053E5
:102520006F6674776172652052657365740A002066
:102530005761746368646F672052657365740A003D
:102540002042726F776E206F7574205265736574C8
:102550000A002045787465726E616C20526573655F
:10256000740A00506F77657255700A006175746F58
:1025700025632E67004732385859004D31303031CD
:10258000006572726F722077726974696E67207469
:102590006F2066696C650A00446F6E652073617612
:1025A000696E672066696C652E0A004D32390046F7
:1025B000696D20646520637572736F002553202553
:1025C000632025632025632025630020503A0065A1
:1025D0006E6473746F7073206869743A2000200809
:1025E00020426173650020436F756E7420583A0075
:1025F000453100626564002C2073797374656D2029
:1026000073746F7070656421204865617465725FD2
:1026100049443A2000544845524D414C2052554EB1
:102620004157415900546865726D616C2052756E56
:1026300061776179004171756563696D656E746F6D
:102640002066616C686F750048656174696E67200B
:102650006661696C656400202D20496E76616C6945
:1026600064206578747275646572206E756D62653C
:102670007220210A004572723A2054204DC3A1787D
:10268000696D61004D415854454D50207472696721
:102690006765726564004572723A2054204DC3AD7F
:1026A0006E696D61004D494E54454D5020747269FC
:1026B00067676572656400202F002042403A002061
:1026C000403A00001000AA038000400100012C01E4
:1026D000B001220140021001F00202018003F80063
:1026E0004004F500E004ED009005E4003006DD0054
:1026F000E006D7008007D1003008CC00D008C70022
:102700007009C300100ABE00B00ABB00500BB7002E
:10271000900CB300D00DAA00B00FA5005010A0007F
:10272000101496009016900010198C00501A850015
:10273000301C820070227800B023750040256E00A6
:1027400020276900A0296400502A5F00902B5A00BE
:10275000D02C5500702D4F00E02E48005031450020
:1027600030334100D0353900603637001037330040
:10277000F0382D00A0392700803C1C00403D170098
:10278000F03D1100703E0A00C03E0500003F000011
:10279000403FFBFF803FF6FFC03FF1FF456E636C9B
:1027A0006F737572650052756E6F7574204469732E
:1027B00074206D6D004C6F6164206D6D00556E6C02
:1027C0006F6164206D6D0046696C2E204469616DF7
:1027D0002E004520656D206D6DC2B3005761726E8D
:1027E000696E673A20486F6D696E672042756D703B
:1027F0002044697669736F72203C20310A00206C96
:10280000696D6974656420746F2000204D617820C3
:1028100000000048420000484200008040020204DC
:102820000000A0400000A040000000400000A543C0
:1028300000009B430000C843FFFFFF4361703A0064
:102840003F5A206F7574206F662072616E67652035
:1028500028003F59206F7574206F662072616E6783
:102860006520282D003F58206F7574206F662072F8
:10287000616E676520282D0050726F6265204F667B
:1028800066736574205800656E7175657565696E4F
:10289000672022006F6B00526573656E643A2000FA
:1028A00042656420436F6F6C696E672E2E2E004167
:1028B00071756563656E646F20626173652E2E2E7F
:1028C0000023646566696E652044454641554C5455
:1028D0005F004B6420004B6920004B702000504982
:1028E00044204175746F74756E652066696E6973F6
:1028F000686564212050757420746865206C61736C
:1029000074204B702C204B6920616E64204B642036
:10291000636F6E7374616E74732066726F6D206284
:10292000656C6F7720696E746F20436F6E666967A0
:1029300075726174696F6E2E680A005049442041B7
:1029400075746F74756E65206661696C65642120AD
:1029500074696D656F75740A000A20436C61737346
:10296000696320504944200A00204B643A2000202B
:102970004B693A2000204B703A20002054753A20D1
:1029800000204B753A2000206D61783A2000206DC0
:10299000696E3A200020643A200020626961733A2F
:1029A0002000504944204175746F74756E65207322
:1029B000746172740A00504944204175746F7475D3
:1029C0006E65206661696C6564212054656D706573
:1029D00072617475726520746F6F20686967680A28
:1029E00000504944204175746F74756E65005049FC
:1029F00044204175746F74756E65206661696C65FD
:102A00006421204261642065787472756465722067
:102A10006E756D6265720A0020746F6F206C6F6E48
:102A20006720657874727573696F6E207072657651
:102A3000656E7465640A004D33303320553120458E
:102A400025692053256900504944204175746F74ED
:102A5000756E65202A005049442D44202A005049B3
:102A6000442D49202A005049442D50202A00565414
:102A7000726176204D696E00566D696E00566D610B
:102A800078204500566D6178205A00566D61782097
:102A90005900566D6178205800416D6178204500DD
:102AA000416D6178205A00416D6178205900416D77
:102AB0006178205800412D6D6F76696D656E746F79
:102AC00000412D726574726163C3A7C3A36F004197
:102AD0006363656C0024F4D43050C38E20C2A240DE
:102AE00017828B7011127A910D816CD90AA861E15D
:102AF00008C7586607615143061E4B5D05C145A7CF
:102B0000041A411104093D9803713931034036DB41
:102B10000265339102D4305402802E1D02632CEEE4
:102B200001752AC501B028A001102781018F2564F5
:102B3000012B244B01E0223401AC211F018D200D1B
:102B400001801FFC00841EED00971DDF00B81CD221
:102B500000E61BC600201BBC00641AB200B219A814
:102B6000000A19A0006A189900D117910040178B2C
:102B700000B516840031167E00B31579003A15733E
:102B800000C7146F0058146A00EE136600881363C0
:102B90000025135E00C7125B006C1257001512541B
:102BA00000C111510070114F0021114B00D6104986
:102BB000008D1047004610440002104200C00F4034
:102BC00000800F3E00420F3C00060F3B00CB0E384A
:102BD00000930E37005C0E3500270E3400F30D32E3
:102BE00000C10D3100900D3000600D2E00320D2D12
:102BF00000050D2C00D90C2B00AE0C2900850C29EA
:102C0000005C0C2700350C27000E0C2600E80B2476
:102C100000C40B2400A00B23007D0B23005A0B21C2
:102C200000390B2100180B2000F80A1F00D90A1EDA
:102C300000BB0A1E009D0A1D00800A1D00630A1CBD
:102C400000470A1B002C0A1B00110A1A00F7091A78
:102C500000DD091900C4091900AB09190092091710
:102C6000007B091800630917004C09160036091685
:102C700000200916000A091500F5081500E00814DF
:102C800000CC081400B8081400A40814009008131D
:102C9000007D0812006B0813005808120046081245
:102CA0000034081100230811001208110001081156
:102CB00000F0071000E0071000D0071000C0071058
:102CC00000B0070F00A107100091070E0083070F47
:102CD0000074070F0065070E0057070E0049070E26
:102CE000003B070D002E070E0020070D0013070DF7
:102CF0000006070D00F9060C00ED060D00E0060CBD
:102D000000D4060C00C8060C00BC060C00B0060C73
:102D100000A4060B0099060C008D060B0082060B22
:102D20000077060B006C060B0061060A0057060BC5
:102D3000004C060A0042060A0038060A002E060A5F
:102D40000024060A001A060A001006090007060AEF
:102D500000FD050900F4050900EB050900E205097D
:102D600000D9050900D0050900C7050900BE0509FD
:102D700000B5050800AD050800A50509009C05087B
:102D800000940508008C050800840508007C0508EF
:102D900000740508006C050700650508005D05075F
:102DA00000560508004E05070047050700400508C6
:102DB0000038050700310507002A0507002305072D
:102DC000001C050600160507000F0507000805068C
:102DD0000002050700FB040600F5040700EE0406E8
:102DE00000E8040600E2040700DB040600D5040640
:102DF00000CF040600C9040600C3040600BD040693
:102E000000B7040600B1040500AC040600A60406E1
:102E100000A00405009B040600950405009004062C
:102E2000008A04050085040500800406007A040574
:102E30000075040500700405006B040500660405B8
:102E400000610405005C04050057040500520405F8
:102E5000004D04050048040500430405003E040439
:102E6000003A04050035040500300404002C040574
:102E70000027040400230405001E0404001A0404AF
:102E80000016040500110404000D040400090405E3
:102E9000000404040000040400FC030400F803041C
:102EA00000F4030400F0030400EC030400E803044E
:102EB00000E4030400E0030400DC030400D803047E
:102EC00000D4030400D0030400CC030400C80303AF
:102ED00000C503030024F404D9201BC40C5C0E9825
:102EE00004C4095F0265077101F405F900FB04B32E
:102EF0000048048700C103690058035500030345D7
:102F000000BE023A008402310053022A0029022541
:102F10000004022000E4011C00C8011900AF0117E1
:102F20000098011400840113007101100061011068
:102F30000051010E0043010D0036010B002B010B67
:102F40000020010B00150109000C01090003010814
:102F500000FB000800F3000800EB000700E4000697
:102F600000DE000600D8000600D2000600CC0005F6
:102F700000C7000500C2000500BD000400B9000440
:102F800000B5000400B1000400AD000400A9000475
:102F900000A5000300A20003009F0004009B0003A3
:102FA00000980003009500020093000300900003C6
:102FB000008D0002008B00030088000200860002E2
:102FC0000084000300810002007F0002007D0002F7
:102FD000007B000200790002007700010076000209
:102FE000007400020072000100710002006F000214
:102FF000006D0001006C0002006A0001006900021F
:103000000067000100660001006500010064000225
:10301000006200010061000100600001005F000229
:10302000005D0001005C0001005B0001005A00012E
:10303000005900010058000100570001005600012E
:10304000005500010054000100530000005300012E
:10305000005200010051000100500001004F00012A
:10306000004E0000004E0001004D0001004C000128
:10307000004B0000004B0001004A00010049000124
:103080000048000000480001004700010046000021
:103090000046000100450000004500010044000119
:1030A0000043000000430001004200000042000114
:1030B000004100000041000100400001003F00000D
:1030C000003F0001003E0000003E0001003D000006
:1030D000003D0001003C0000003C0000003C0001FD
:1030E000003B0000003B0001003A0000003A0001F4
:1030F00000390000003900010038000000380000ED
:1031000000380001003700000037000100360000E1
:1031100000360000003600010035000000350000D8
:1031200000350001003400000034000000340001CC
:1031300000330000003300000033000100320000C3
:1031400000320000003200010031000000310000B8
:1031500000310001003000000030000000300001AC
:10316000002F0000002F0000002F0000002F0001A2
:10317000002E0000002E0000002E0001002D000097
:10318000002D0000002D0000002D0001002C00008B
:10319000002C0000002C0000002C0001002B00007F
:1031A000002B0000002B0000002B0001002A000073
:1031B000002A0000002A0000002A00010029000067
:1031C000002900000029000000290000002900015A
:1031D000002800000028000000280000002800004F
:1031E0000028000100270000002700000027000041
:1031F0000027000000270001002600000026000034
:103200000026000000260000002600010025000026
:10321000002500000025000000250000002500001A
:10322000002500010024000000240000002400000C
:1032300000240000002400010023000000230000FF
:1032400000230000002300000023000000230000F2
:1032500000230001002200000022000000220000E4
:1032600000220000002200000022000100210000D6
:1032700000210000002100000021000000210000CA
:1032800000210000002100010020000000200000BB
:1032900000200000002000000020000000200000AE
:1032A0000020000000200001001F0000001F00009F
:1032B000001F0000001F0000001F0000001F000092
:1032C000001F0001001E0000001E0000001E000084
:1032D000001E000000A42C0000841E0000B012009C
:1032E00000870A00009E050000E90200007B010043
:1032F00000BF000000506C65617365205265736506
:1033000074005052494E5445522048414C54454453
:103310000025533A20255300454D455247C38A4E58
:103320004349412E20005072696E746572206861B5
:103330006C7465642E206B696C6C28292063616C49
:103340006C6564210A006563686F3A004572726FAC
:10335000723A0042696C696E656172204C657665EF
:103360006C696E6720477269643A0A002053697A73
:10337000653A200043616E6E6F74206F70656E2039
:103380007375626469722000534420496E69742029
:103390004661696C0053442063617264206F6B0A5C
:1033A000006F70656E526F6F74206661696C656442
:1033B0000A00766F6C756D652E696E6974206661A2
:1033C000696C65640A004E6F205344206361726427
:1033D0000A004D32332025730046696C6520736501
:1033E0006C65637465640A0046696C65206F70657E
:1033F0006E65643A2000454E4420535542524F5565
:1034000054494E450A002220706F730022207061DB
:1034100072656E743A2200535542524F5554494ECC
:10342000452043414C4C207461726765743A220018
:1034300053756263616C6C204F766572666C6F7752
:10344000004578636565646564206D617820535537
:1034500042524F5554494E452064657074683A3164
:103460000A0044656C6574696F6E206661696C65FD
:10347000642C2046696C653A200046696C652064BE
:10348000656C657465643A006F70656E206661698D
:103490006C65642C2046696C653A2000577269742B
:1034A000696E6720746F2066696C653A20006672E9
:1034B00065736800646F696E67004E6F7720002542
:1034C0002900257C00203B2043757272656E7420B4
:1034D0005A00203B20456E6400203B2053746172EB
:1034E00074004772616469656E74204D69782000CC
:1034F00052616E646F6D204D697820004D3234202A
:1035000053256C642054256C64004739322E3920D1
:1035100045257300473120462564004739322E394E
:10352000205A2573004731205A302046323030006F
:1035300047312058257320592573204633303030C9
:10354000004731204525642046323030004D31306F
:10355000362050256920532569004D3130392053DC
:103560002569004D31393020532569004D32303006
:1035700020442573004732385230585900473932B9
:103580002E39204530205A300A47315A2573004DD4
:10359000343230205330205A300020496E76616C2E
:1035A0006964206578747275646572200020496EC4
:1035B00076616C6964204520737465707065722053
:1035C0000020452073746570706572206E6F7420E2
:1035D0007370656369666965640A0056652D4A659E
:1035E000726B00565A2D4A65726B0056592D4A650A
:1035F000726B0056582D4A65726B0050726F62658F
:103600002059204F66667365740050726F626520A2
:1036100058204F6666736574004520706173736F40
:103620002F6D6D005A20706173736F2F6D6D00598F
:1036300020706173736F2F6D6D005820706173730C
:103640006F2F6D6D00496E6974004D34323800493A
:103650006E697469616C697A6520454550524F4DB9
:103660000046696C616D656E746F00506173736FB5
:103670002F6D6D0050726F6265204F6666736574C2
:103680007300416363656C65726174696F6E0056A7
:10369000656C6F6369747900446566696E69722050
:1036A00064657376696F0050726573732062757418
:1036B000746F6E20746F20726573756D650A0050AB
:1036C0007265737320627574746F6E20746F2068F6
:1036D000656174206E6F7A7A6C650A004F46460AFF
:1036E000004661646520486569676874200042652A
:1036F00064204C6576656C696E6720004661696C74
:10370000656420746F20656E61626C65204265643B
:10371000204C6576656C696E670A00496E76616C4F
:103720006964206D6573682E0A0050726F62696E5D
:103730006720506F696E740025532025692F256915
:103740000050726F62696E67206D65736820706FDC
:10375000696E7420004F66667365742063617463DC
:103760006865642021006661696C2C206D616E754E
:10377000616C206C6576656C004661696C21204D3A
:103780006F766520646F776E2050726F62652E00D1
:10379000546F206361746368206F6666736574009C
:1037A000202844525952554E29004732392041753C
:1037B000746F20426564204C6576656C696E6700A5
:1037C0003F20284C2C522C462C4229206F75742007
:1037D0006F6620626F756E64732E0A003F2856294B
:1037E0006572626F7365206C6576656C20696D70BB
:1037F0006C61757369626C652028302D34292E0A3E
:1038000000426164205A2076616C75650A004E6F33
:103810002062696C696E65617220677269640A0072
:10382000204D393220580020204D61783A20002068
:10383000204D696E3A2000536F667420656E647384
:10384000746F70733A2000205A3A200020593A20B1
:103850000042656420583A20005072696E7420500E
:1038600061757365640050726F62696E67204661AE
:10387000696C65640A0050726F62696E6720466108
:10388000696C656400486F6D652025732573257329
:1038900020466972737400496E736572742066699C
:1038A0006C616D656E7420616E64207072657373F7
:1038B00020627574746F6E0A0020573A005A3854AB
:1038C0005F4D332070726F6E74612E005072696E9E
:1038D00074696E672E2E2E00220A00556E6B6E6F75
:1038E000776E20636F6D6D616E643A202200496DC2
:1038F0007072696D697220646F205344004D6F7659
:1039000065722025736D6D004D6F76657220302EC7
:10391000316D6D004D6F76657220316D6D004D6FAC
:103920007665722031306D6D004D6F766572206561
:1039300069786F004D6F7665722045787472757383
:103940006F72004D6F766572205A004D6F7665720A
:103950002059004D6F76657220580000000A0B0256
:10396000090C0D0E08070304010000000000000010
:103970000000000000000000000000000000000047
:103980000000000000000012111000000000000004
:103990000000000000000000000000000000000027
:1039A0000000002200250028002B002E00310034EA
:1039B0000002010000050108010B010000210024A4
:1039C0000027002A002D0030003300010100000410
:1039D0000107010A01050505050705080808080291
:1039E0000202020A0A080804040404010101010198
:1039F0000101010303030303030303040707070C87
:103A00000C0C0C0C0C0C0C0202020206060606063C
:103A10000606060B0B0B0B0B0B0B0B0102102020E9
:103A20000808102040102040800201020108040212
:103A30000101020408102040808040201008040288
:103A400001800402018040201008040201080402E1
:103A500001010204081020408001020408102040E7
:103A60008020453A0020593A0020520045455052E6
:103A70004F4D20496E697469616C697A65640A000A
:103A800048617264636F6465642044656661756C47
:103A9000742053657474696E6773204C6F6164653C
:103AA000640A003B200020204D36303320002020C7
:103AB0004D34313220530046696C616D656E74205F
:103AC00072756E6F75742073656E736F723A002035
:103AD000550046696C616D656E74206C6F61642F72
:103AE000756E6C6F6164206C656E677468733A0004
:103AF00020204D3835312058005A2D50726F6265A4
:103B0000204F66667365740020204D323039205393
:103B1000004175746F2D526574726163743A20535D
:103B20003D3020746F2064697361626C652C2031B4
:103B300020746F20696E7465727072657420452DF3
:103B40006F6E6C79206D6F7665732061732072657E
:103B500074726163742F7265636F766572002020E2
:103B60004D3230382053005265636F7665723A20CB
:103B7000533C6C656E6774683E20463C756E697494
:103B8000732F6D3E0020570020204D3230372053D8
:103B900000526574726163743A20533C6C656E67C1
:103BA00074683E20463C756E6974732F6D3E205AD2
:103BB0003C6C6966743E0020204D34313320530044
:103BC000506F7765722D4C6F7373205265636F76FB
:103BD0006572793A0020204D333031205000504931
:103BE000442073657474696E67733A002046002040
:103BF000480020204D3134352053004D61746572EA
:103C000069616C2068656174757020706172616DA6
:103C100065746572733A0020204D36363600456E65
:103C20006473746F702061646A7573746D656E740B
:103C30003A00204A002020473239205720490020EE
:103C4000204D3432302053004175746F204265643A
:103C5000204C6576656C696E673A0020204D3230E5
:103C600036205800486F6D65206F66667365743A3C
:103C70000020204D323035204200416476616E6371
:103C800065643A20423C6D696E5F7365676D656E71
:103C9000745F74696D655F75733E20533C6D696E2A
:103CA0005F66656564726174653E20543C6D696E43
:103CB0005F74726176656C5F666565647261746578
:103CC0003E20583C6D61785F785F6A65726B3E207C
:103CD000593C6D61785F795F6A65726B3E205A3C32
:103CE0006D61785F7A5F6A65726B3E20453C6D61FD
:103CF000785F655F6A65726B3E0020540020204D3E
:103D0000323034205000416363656C6572617469C0
:103D10006F6E2028756E6974732F7332293A2050A4
:103D20003C7072696E745F616363656C3E20523CE7
:103D3000726574726163745F616363656C3E205485
:103D40003C74726176656C5F616363656C3E0020F4
:103D5000204D3230312058004D6178696D756D20ED
:103D6000416363656C65726174696F6E2028756E5E
:103D70006974732F7332293A0020204D323033207A
:103D800058004D6178696D756D2066656564726176
:103D90007465732028756E6974732F73293A005304
:103DA000746570732070657220756E69743A0020B6
:103DB000440020204D32303020530020446973618C
:103DC000626C65640A0046696C616D656E7420738F
:103DD000657474696E67733A0020204D3134392060
:103DE00043203B20556E69747320696E2043656CD7
:103DF000736975730A0020286D6D290020204732F1
:103E000031202020203B20556E69747320696E207C
:103E10006D6D000000FA430000FA430000A040006E
:103E200000C8420000A0420000A0420000C84300B9
:103E300000C843B80B0000B80B000064000000107D
:103E40002700000055023D0211241FBECFEFD1E232
:103E5000DEBFCDBF00E00CBF13E0A0E0B2E0E8E3BE
:103E6000F5EA02E00BBF02C007900D92AE34B10735
:103E7000D9F726E1AEE4B3E001C01D92AC3FB20732
:103E8000E1F71FE1C3E2DFE100E006C0219701098D
:103E9000802FFE010F94F24FC232D10780E0080755
:103EA000A9F70F94833A0D948A520C9400002F9234
:103EB0003F924F925F926F927F928F929F92AF92BA
:103EC000BF92CF92DF92EF92FF920F931F93CF9307
:103ED000DF93CDB7DEB7A7970FB6F894DEBF0FBE5E
:103EE000CDBF8FA32091300F2EA321E02093300F60
:103EF000809143078D3409F4D0C3843511F40C94B8
:103F0000ED30873411F00C94183180914107909175
:103F100042078B31910509F463C1F4F488309105AF
:103F2000D1F14CF497FDB5C382309105A4F104970B
:103F300009F412C1AEC38B30910509F44CC185312F
:103F4000910511F40C941A310A9709F0A2C381E08B
:103F50000E94F0EC0C941A318A32910509F4B9C22E
:103F600054F48D31910509F465C10CF453C14E9799
:103F700009F47EC18EC38B35910509F4F4C18C35EB
:103F8000910509F4F5C18A35910509F082C31092B3
:103F9000600F0C941A3180917606813011F00C94E8
:103FA0001A3119821A821B821C82CE0101965C0191
:103FB0002AE0E22E27E0F22E04E712E033E9C32ED6
:103FC00032E1D32E912C88E5890D0F94EC0EF5018A
:103FD00081935F01882311F10F94910C2B013C0117
:103FE000892D0E9493FD882351F0F80120813181B1
:103FF00042815381C301B2010F94FB4F09C0F60106
:104000002081318142815381C301B2010F94FA4F63
:10401000F70160837183828393830AC0F8018081F2
:104020009181A281B381F70180839183A283B383BD
:104030009394F4E0EF0EF11C0C5F1F4F24E0C20ECE
:10404000D11C33E09312BFCF85E40F94EC0E8C8328
:10405000882301F10F94910C6B017C0183E00E9495
:1040600093FD882371F0209180023091810240916C
:10407000820250918302C701B6010F94FB4F6B017E
:104080007C01C0921607D0921707E0921807F092B1
:10409000190710C08091800290918102A091820244
:1040A000B09183028093160790931707A093180787
:1040B000B093190780916116882381F0809167136E
:1040C00082FF0CC08C81882349F08981811103C053
:1040D0008A81882319F080E00F943D1E40E050E073
:1040E000BA0186E40E9461BD20E030E0A9010F948E
:1040F0007E51181684F40F94910C20E030E040E7D4
:1041000052E40F947E50609367027093680280932C
:10411000690290936A0280914016882311F40C94EE
:10412000553185E40F94C80C882311F40C94553153
:1041300088E50F94C80C81110C94553189E50F94D2
:10414000C80C81110C9455318AE50F94C80C81116B
:104150000C9455310C94233180E50F94EC0E882398
:1041600029F00F9441166B017C0103C0C12CD12CA6
:10417000760183E50F94EC0E882361F00F94910C87
:1041800020E030E04AE754E40F945D490F94F75083
:104190006B017C010E9416B180912004811105C041
:1041A00060E089ED96E00E945E8D0F946A28C60E4D
:1041B000D71EE81EF91E0F946A28DC01CB018C196A
:1041C0009D09AE09BF09B7FD02C00C941A3180E009
:1041D0000E944436F0CF80E00E94F0EC0C941A313B
:1041E0000F94392281110C941A318CE0ECE9F2E041
:1041F000DE01119601900D928A95E1F760E070E082
:1042000080E50F942B04BE016F5F7F4F0E94B98839
:104210000C941A3180912E0F8770873011F00C9416
:10422000803160E08FE40F94F90E81110C941A3103
:104230000C9480310F946A286093B2167093B31671
:104240008093B4169093B5160F94392281110C9473
:104250001A318091650F882311F40C94F03160E0DD
:104260008FE40F94F90E81110C941A310C94F031F3
:104270002091220F3091230F4091240F5091250F50
:10428000609174027091750280917602909177022C
:104290000F94FB4FAB01BC0188E50E9461BD6983AF
:1042A0007A838B839C832091260F3091270F409136
:1042B000280F5091290F60917802709179028091B6
:1042C0007A0290917B020F94FB4FAB01BC0189E510
:1042D0000E9461BD6D837E838F839887BE016B5F73
:1042E0007F4FCE0101960F94BC16882311F40C94D5
:1042F0001A3180E00E941AF00E94F4BA61E085E46D
:104300000F94F90E01E021E0482FBE016B5F7F4F53
:10431000CE0101960F94F1226B017C019B01AC014F
:104320000F94FC51811119C049815A816B817C81A4
:1043300081E598E30E945FF44D815E816F8178850D
:104340008CE498E30E945FF4B701A60187E498E348
:104350000E945FF48AE00E9418350E94DBBA0E9436
:10436000A9830C941A318FE08093600F0C941A315A
:1043700080914007882349F1893009F0A6C08FED6C
:10438000A82E82E0B82E94E7E92E92E0F92ED12CE7
:1043900000E010E0F50181915F010F94EC0E88239D
:1043A00069F00F94910CF70160837183828393838A
:1043B000133011F401E002C0DD24D3941F5FF4E058
:1043C000EF0EF11C143031F775C0BFED2B2EB2E0AB
:1043D0003B2E16E7E12E1FE0F12E24E732E03DA34D
:1043E0002CA303E9C02E02E1D02E00E010E0F10181
:1043F00081911F010F94EC0E882309F44AC00F9499
:10440000910C2B013C01133049F0F60120813181E0
:10441000428153810F94FA4F2B013C01ECA1FDA185
:104420002081318142815381C301B2010F94FA4F3F
:104430004B015C012DEB37E346E855EB0F947E51C1
:1044400087FD0AC02DEB37E346E855E3C501B4010B
:104450000F94F7481816ECF4133051F44092800290
:1044600050928102609282027092830201E011C038
:10447000A5019401F70160817181828193810F947C
:10448000FB4FF7016083718382839383812F0E94A6
:1044900007B61F5FF4E0EF0EF11C2CA13DA12C5FCD
:1044A0003F4F3DA32CA334E0C30ED11C143009F0C0
:1044B0009ECF05C0DD2019F00E94A78306C000230F
:1044C00021F080E892E00E94B9B30E94A9830C9485
:1044D0001A3180917606813011F00C941A3189E4FA
:1044E0000F94EC0EE82E882321F00F948D0C082FEA
:1044F00001C000E08AE40F94EC0EF82E882321F02E
:104500000F948D0C182F01C010E0EE2011F0043034
:1045100020F4FF2041F0143030F086EE96E00E9447
:104520009EF30C941A3180E1E4E7F2E0AAE0B7E0F0
:1045300001900D928A95E1F7EE2019F1602F000F9E
:10454000770B880B990B0F94FE4820913016309111
:10455000311640913216509133160F945D492091D7
:1045600004043091050440910604509107040F940F
:10457000FB4F60930A0770930B0780930C0790938F
:104580000D07FF2019F1612F110F770B880B990B85
:104590000F94FE482091341630913516409136160E
:1045A000509137160F945D49209108043091090409
:1045B00040910A0450910B040F94FB4F60930E0737
:1045C00070930F07809310079093110760E080E5C8
:1045D0000F94F90E8823C1F1EE20D1F02091220F23
:1045E0003091230F4091240F5091250F60910A07BD
:1045F00070910B0780910C0790910D070F94FA4F63
:1046000060930A0770930B0780930C0790930D0734
:10461000FF20D1F02091260F3091270F4091280FD5
:104620005091290F60910E0770910F07809110072C
:10463000909111070F94FA4F60930E0770930F0734
:10464000809310079093110740E050E0BA0186E490
:104650000E9461BD6B017C0120E030E0A9010F9454
:104660007E5118164CF420E030E040E752E4C701D8
:10467000B6010F947E5003C060E070E0CB01698307
:104680007A838B839C83CE0101960E9413BB0C948A
:104690001A310F945A1F0C941A318091410790914E
:1046A00042078B39910509F4F0C50CF015C183352B
:1046B000910509F429C60CF082C08A31910509F4EC
:1046C00046C3BCF58431910509F499C27CF481316B
:1046D000910509F480C22CF4029708F444C20C94AA
:1046E000EA30429709F417C60C94EA3087319105F5
:1046F00009F4BAC294F48531910509F4B1C2469720
:1047000011F00C94EA300E94A3F780916713877F21
:104710008062809367130C941A318831910509F4F3
:10472000B8C2499711F00C94EA300F9451030C94DD
:104730001A318032910509F482C3F4F48D31910568
:1047400009F466C384F48B31910509F40EC34C97C8
:1047500011F00C94EA3080913E0790913F070E943F
:1047600008F90C941A318E31910509F458C34F970A
:1047700009F48EC30C94EA308D34910509F437C4E2
:104780006CF48B34910509F42EC48C34910511F02E
:104790000C94EA300E9459850C941A3181359105A8
:1047A00009F49CC58235910511F00C94EA30809192
:1047B000600F8F7D80618093600F0C941A31803779
:1047C000910509F410C5E4F58A36910509F46AC427
:1047D000CCF48C35910509F4F7C554F48435910572
:1047E00009F499C58535910509F4CBC50C94EA30D7
:1047F0008836910509F4FFC38936910509F43EC452
:104800000C94EA308D36910509F416C47CF48B368D
:10481000910509F485C48C36910511F00C94EA30A9
:1048200010922F0F109265020C941A318E3691055A
:1048300009F481C48F36910509F490C40C94EA30D0
:104840008737910509F423C73CF58337910509F4AF
:1048500059C68CF48137910509F4CEC4823791058D
:1048600011F00C94EA300F94A12A84EF92E10E9497
:1048700073A30C941A318537910509F4C5C68637A0
:10488000910511F00C94EA3000913E0710913F071A
:1048900094E0F12C40E0DFC68D37910509F41BC58B
:1048A0008CF48837910509F4F5C68937910511F024
:1048B0000C94EA301092A2041092A1040E94C184C8
:1048C0000C941A318C38910509F4BBC481399105D7
:1048D00009F4E8C60C94EA308139E1E09E0711F44E
:1048E0000C94E52E0CF087C08E3C910511F40C94CD
:1048F000CE2CD4F58E3B910509F4C4C4C4F4843A9B
:10490000910509F45FC734F4833A910509F43EC771
:104910000C94EA30863A910509F467C7873A910505
:1049200011F00C94EA300F943E040C941A318B3C35
:10493000910509F4E3C754F4883C910509F458C77C
:10494000893C910509F499C70C94EA308C3C910597
:1049500011F40C949D2C8D3C910511F00C94EA30CF
:104960000F9451160C941A318D3D910511F40C944D
:10497000B12DF4F4813D910511F40C947A2D64F479
:104980008F3C910511F40C94EC2C803D910511F4B1
:104990000C94302D0C94EA30833D910511F40C9465
:1049A000872D8C3D910511F40C948A2D0C94EA30DE
:1049B0008D3221E0920711F40C94622E6CF4823255
:1049C000E1E09E0711F40C94062E8C32914011F414
:1049D0000C944D2E0C94EA308F3221E0920711F4A2
:1049E0000C94E22E8039914011F00C94EA300E9430
:1049F00016B10C941A31883FE1E09E0711F40C9433
:104A0000ED2F0CF057C0853A21E0920711F40C9479
:104A1000172F2CF58C39E1E09E0711F40C94F12E40
:104A20007CF4823921E0920711F40C94EB2E8A3940
:104A3000914011F00C94EA300E9438340C941A31F1
:104A40008D39E1E09E0711F40C94AF30843A914027
:104A500011F00C94EA300F94160D0C941A31853F26
:104A600021E0920711F40C94E72F7CF48C3AE1E0FA
:104A70009E0711F40C948A2F843F914011F00C94FE
:104A8000EA300E94B55C0C941A31863F21E092070F
:104A900011F40C94EA2F873F914011F00C94EA3006
:104AA00061E083E50F94F90E91E089270F941330AC
:104AB0000C941A318E3BE2E09E0711F40C949B306B
:104AC0002CF58B3522E0920711F40C940A307CF41B
:104AD0008C30E2E09E0711F40C94FD2F8835924053
:104AE00011F00C94EA300F943F020C941A318A3979
:104AF00022E0920711F40C9482308D3B924011F029
:104B00000C94EA300F94EE000C941A31873EE3E0E7
:104B10009E0711F40C94A130CCF4833523E0920766
:104B200011F40C949E30803A934011F00C94EA30CA
:104B300020913E0730913F079091671392609093C8
:104B40006713C9010E9408F90C941A31883EE3E00A
:104B50009E0711F40C94C930893E934011F40C94D3
:104B6000CC300C94EA3080E50F94EC0E882329F0C9
:104B70000F9441166B017C0103C0C12CD12C76012E
:104B800083E50F94EC0E882361F00F94910C20E0E4
:104B900030E04AE754E40F945D490F94F7506B01FD
:104BA0007C010E9416B180913E0790913F070097CB
:104BB00021F061E00E94F48D05C060E08FEF96E087
:104BC0000E945E8D40E0C701B6010E94C83B0F9471
:104BD000AB1F0C941A318091440784FF02C00C94DF
:104BE000F3318091460787FF02C00C94F331809126
:104BF0004707837011F00C94F3310C9411328091BB
:104C0000671383FF25C08FE297E00E949EF3809197
:104C1000671383FF17C086E893E10E94D3958BE169
:104C2000E6E8F3E1DE01119601900D928A95E1F735
:104C300060E070E0CE0101960E9409FCCE01019671
:104C40000F94260F80E297E00E949EF30C941A3195
:104C50000E9494F480E497E00E949EF30C941A3131
:104C60000E94A4FB0C941A31E0913E07F0913F079B
:104C70008081882329F0803209F410823196F8CFA0
:104C800060E080913E0790913F070E9450F90C949C
:104C90001A3183E50F94EC0E882321F00F94590C00
:104CA0000E948FC384E50F94EC0E8823A9F00F9423
:104CB000590C6B017C010E940485C0925604D0926D
:104CC0005704E0925804F0925904CD28CE28CF28FA
:104CD00019F081E08093590F80916B0E8823F9F0D1
:104CE00080E090E0A8E4B2E488A399A3AAA3BBA3C0
:104CF0001C8E1D8E1E8E1F8E19821A821B821C8294
:104D000000E010E020E0AE01405E5F4FBE01645E57
:104D10007F4FCE0101960F94CD0F0C941A310E9453
:104D20005D34882381F00E94B4F70E941F8585EFCF
:104D30009FE00E9459F7109248071092490710927D
:104D40004A0710924B070F94AB1F0C941A318091B5
:104D5000671383FD02C00C941A3183E50F94EC0EA7
:104D600081110C9421320C941A3183E40F94C80CF5
:104D7000882319F184E597E00E949EF38091CD1479
:104D8000882391F0BE016F5F7F4F8AEC94E10E940F
:104D90009F958E010F5F1F4FF80181918F0188232E
:104DA00039F00E941835F8CF8AE497E00E949EF30C
:104DB0008AE00E9418350C941A318091671382FFA3
:104DC00021C083E697E00E949EF360916313709187
:104DD000641380916513909166134AE00E941F3519
:104DE0008FE20E94183560915F137091601380917B
:104DF0006113909162134AE00E941F350E941D3694
:104E00000C941A3185E797E00E949EF30C941A31B6
:104E1000809167138E7F809367130C941A31809171
:104E2000671383FD02C00C941A310F94431F8091C5
:104E30003E0790913F070E942EFB0C941A318091FF
:104E4000671382FD0E9416B18091671383FD02C033
:104E50000C941A3160E080E50F94F90E182F682F3A
:104E600080913E0790913F070E9450F983E50F948F
:104E7000EC0E882321F00F94590C0E948FC30E94DE
:104E8000B4F711110C941A310E941F850C941A3139
:104E90000E94D0847B018C0120E831E541E050E0A4
:104EA0000F944D4FC9016DE671E00F94CA4F4B014D
:104EB0005C01C801B70120E13EE040E050E00F9402
:104EC0004D4FCA01B90128E130E040E050E00F94B5
:104ED0004D4F762E672EC62ED72EACE32A2E312CC0
:104EE000412C512CC801B701A20191010F944D4FE3
:104EF000F62EE72ECA01B901A20191010F944D4F80
:104F0000CB018E010F5F1F4F8114910499F0EF9236
:104F1000FF927F936F936F927F92BF92AF929F9217
:104F20008F9286E897E09F938F931F930F930F9430
:104F30008F4813C0A114B104B1F0EF92FF927F9398
:104F40006F936F927F92BF92AF928AE897E09F93A0
:104F50008F931F930F930F948F480FB6F894DEBF73
:104F60000FBECDBF30C0CD2879F0EF92FF927F9376
:104F70006F936F927F928EE897E09F938F931F932A
:104F80000F930F948F48E9CF892B69F0EF92FF922E
:104F90007F936F9382E997E09F938F931F930F9373
:104FA0000F948F48DACFEF92FF9286E997E09F93B4
:104FB0008F931F930F930F948F480F900F900F9024
:104FC0000F900F900F9060E0C8010E94F48D0E9436
:104FD00094F4B8018AE997E00E947DF48AE00E9487
:104FE00018350C941A310E941F850C941A310E94B6
:104FF0006E850C941A3180918F0D83FF02C00C9442
:105000001A3189E40F94EC0E882311F40C942632A3
:105010000F94690C90E01816190614F481E090E0E2
:1050200026E0289FF001299FF00D1124EE59F94E3A
:10503000808191810C94313280918F0D83FF02C069
:105040000C941A3189E40F94EC0E882311F40C941B
:1050500038320F94690C90E01816190614F481E0A8
:1050600090E026E0289FF001299FF00D1124EE59D1
:10507000F94E8081918110E00C9449320E946AFDC2
:10508000182F87FD0AC084E998E20E949EF3812FC1
:105090000E94ED9B8AE00E9418353EA13093300FAC
:1050A0000C94D53360E080E50F947B1881110C944B
:1050B0001A3181E40F94C80C882329F060912508E7
:1050C000062F10E002C00FEF10E089E40F94EC0E01
:1050D000882399F00F94690C90E01816190614F4BF
:1050E00081E090E026E0289FF001299FF00D112437
:1050F000EE59F94E0481158108C083E50F94EC0E3A
:10510000882319F00F94590C8B01B8010F3F11053A
:1051100019F010F06FEF70E0609325080C941A31CD
:1051200060E080E50F947B1881110C941A31109285
:1051300025080C941A318EE40F94EC0E882311F498
:105140000C941A310F94590C6093D0077093D107C7
:105150008093D2079093D3070C941A3183E50F9470
:10516000C80C882331F060E083E50F947B188093AE
:105170008F0D0E9494F48DEB97E00E949EF3809136
:105180008F0D882369F1F6E5EF2EFBE0FF2E00E09E
:1051900010E020E080918F0D90E0A0E0B0E0002EC4
:1051A00004C0B695A795979587950A94D2F780FF86
:1051B0000EC0DD24D394D20E222319F08CE20E947B
:1051C0001835F701859194910E949EF32D2D0F5F64
:1051D0001F4F82E0E80EF11C05301105D9F6E8CD2D
:1051E00089EB97E0E3CD41E060E070E084EC97E08C
:1051F0000E9498F40C941A3183E50F94EC0E8823E6
:1052000081F00F94690C282F30E02D33310524F400
:10521000809300020C941A318CE3809300020C946A
:105220001A310E9494F44091000250E060E070E076
:1052300082ED97E00E9441F48AE00E9418350C94B8
:105240001A3180918F0D83FF02C00C941A3189E4CA
:105250000F94EC0E882311F40C948A320F94690C8D
:1052600090E01816190614F481E090E026E0289FDB
:10527000F001299FF00D1124EE59F94E62817381DE
:105280000C9494320E9499C1D5C783E50F94EC0E1B
:10529000882309F4CFC70F94690C182F90E0CD979D
:1052A0000CF01CE3109353030F946A286B017C01EC
:1052B000212F30E0A8EEB3E00F94A14FC60ED71E09
:1052C000E81EF91EC0924F03D0925003E0925103A2
:1052D000F0925203AFC70F945103ACC70E94B09C29
:1052E0000E946E850E9427B10E94813468EE73E0AF
:1052F00080E090E00E947AF30E94843460E089EDBF
:1053000097E00E945E8D96C78091600F8F7E8062CD
:105310008093600F8FC783E50F94EC0E8823E9F02C
:105320000F946A286093B2167093B3168093B416E4
:105330009093B5160F94910C20E030E04AE754E4C6
:105340000F945D490F94F75060930102709302022D
:1053500080930302909304026DC78091440784FFF9
:1053600002C00C94A5328091460787FF02C00C94BE
:10537000A53280914707837011F00C94A5320C94EC
:10538000D73283E50F94C80C882309F453C70F94D0
:105390006A286093B2167093B3168093B4169093F4
:1053A000B5160F94910C20E030E04AE754E40F94D6
:1053B0005D490F94F75060935403709355038093A5
:1053C00056039093570336C70E946AFD87FD32C784
:1053D0009091440794FD04C09091460797FF0AC03E
:1053E0007FEDC72E72E0D72EE0E9EE2EEDE0FE2E27
:1053F00010E009C090914707937091F7682F81E002
:105400000F94061617C7F60181916F010F94EC0EE9
:10541000882309F46DC0133009F063C00F94910C18
:105420004B015C0120E030E040EA51E40F94F74882
:1054300087FF4EC0A50194016091B00D7091B10D30
:105440008091B20D9091B30D0F947E502B013C01D1
:105450009B01AC016091090870910A0880910B08CA
:1054600090910C080F945D496093090870930A08A5
:1054700080930B0890930C08A30192016091C00DDA
:105480007091C10D8091C20D9091C30D0F945D4933
:105490006093C00D7093C10D8093C20D9093C30DA6
:1054A0006091190870911A0880911B0890911C084E
:1054B0000F94FC48A30192010F945D490F94F7509B
:1054C0006093190870931A0880931B0890931C0826
:1054D0008092B00D9092B10DA092B20DB092B30D2A
:1054E00007C00F94910CF701648B758B868B978B9B
:1054F0001F5FF4E0EF0EF11C143009F084CF0E941E
:10550000F2B098C680E399E00E949EF360E080E2EA
:1055100099E00E946AC760E08BE099E00E946AC748
:1055200061E08AE596E30E946AC761E080E099E065
:105530000E946AC761E080EF98E00E946AC760E05D
:1055400087EE98E00E946AC761E08DED98E00E94C6
:105550006AC761E083ED98E00E946AC761E08CEC65
:1055600098E00E946AC761E084EC98E00E946AC7F4
:1055700061E086EB98E00E946AC760E088EA98E004
:105580000E946AC760E089E998E00E946AC760E00B
:105590008BE898E00E946AC760E085E798E00E9487
:1055A0006AC760E084E698E00E946AC760E085E52B
:1055B00098E00E946AC761E08EE498E00E946AC7A2
:1055C00060E089E398E00E946AC760E08BE298E0BF
:1055D0000E946AC760E088E198E00E946AC760E0C4
:1055E0008BE098E00E946AC760E086E098E00E9445
:1055F0006AC761E089EF97E00E946AC760E085EEC4
:1056000097E00E946AC716C680913E0790913F07B7
:10561000009709F498CBFC012081222309F493CB55
:1056200060E00E94F48D06C6F8018081282F2B7F50
:105630002134A1F08035F1F4F801818180538A3062
:10564000C8F498012E5F3F4F89012F5F3F4FF8014B
:1056500080818032C9F3915039F70CC02181213308
:1056600049F4813421F0853461F741E0EACFFF2429
:10567000F394E7CF41110E9494F4FF2021F087E0DA
:105680009AE00E949EF3C8010E942336D3C50E946F
:105690008684D0C581E08093A2048093A1040E94F7
:1056A000C184C8C560E070E083E50F946C18823057
:1056B00038F00E9490F48BE09AE00E949EF3BAC505
:1056C0008C01112788E40F94EC0E8823E1F00F94ED
:1056D0008D0C8A3A910544F00F948D0C85309140E1
:1056E00034F40F948D0C05C08AEA90E002C084E087
:1056F00091E026E0209FF001219FF00D1124EE594A
:10570000F94E9183808382E40F94EC0E8823D9F0C4
:105710000F948D0C059744F00F948D0C89379105EB
:1057200034F40F948D0C05C085E090E002C088E74A
:1057300090E026E0209FF001219FF00D1124EE590A
:10574000F94E9383828386E40F94EC0E882309F448
:1057500071C50F948D0C97FD09C00F948D0C8F3F70
:10576000910509F034F40F948D0C05C080E090E0B1
:1057700002C08FEF90E026E0209FF001219FF00D06
:105780001124EE59F94E9583848354C560E070E08E
:1057900083E50F946C188C01833091056CF460E004
:1057A00070E080E50F946C181127F801E253FC4F6C
:1057B00080830F9477143EC541970CF43BC50F943A
:1057C0000F1538C56FEF7FEF83E50F946C1897FDC9
:1057D00007C0803191050CF02DC50E9493EC2AC5BD
:1057E00080916C080E9493EC25C50F94F70422C5A4
:1057F0000E946AFD182F87FD1DC50091750F84E476
:105800000F94EC0E882309F4D5C60F94910C6B010C
:105810007C0120E030E0A9010F94F748882339F19A
:1058200024E01202F0011124EF58F04FC082D1821F
:10583000E282F38220E030E0A9016091710F709163
:10584000720F8091730F9091740F0F94F74881112C
:105850000CC080E090E0A0EEBFE38093710F9093C6
:10586000720FA093730FB093740F01E0A3C680E092
:105870008093750F0E9444AFDDC40E946AFD87FDCE
:10588000D9C45FEDC52E52E0D52E60E9E62E6DE05D
:10589000F62E10E0F60181916F010F94C80C882359
:1058A00031F10F94910C6C8F7D8F8E8F9F8F80E1E3
:1058B000E8EAF2E0DE01119601900D928A95E1F797
:1058C0009E012F5F3F4F42E856E3612FCE014C9679
:1058D0000E94E2AF6C8D7D8D8E8D9F8D0F94F75061
:1058E000F70160837183828393830E94ABB01F5F53
:1058F000F4E0EF0EF11C143069F69CC40E946AFDBE
:1059000087FD98C44FEDE42E42E0F42E00E91DE03F
:10591000F70181917F010F94C80C882339F00F940F
:10592000910CF80164A375A386A397A30C5F1F4F86
:10593000FDE0003A1F0761F77DC48091450787FDB0
:105940003EC6809146078E7009F039C64091C40D5D
:105950005091C50D6091C60D7091C70D8DE29AE012
:105960000E945FF44091C80D5091C90D6091CA0D1D
:105970007091CB0D89E69AE30E945FF44091CC0DC3
:105980005091CD0D6091CE0D7091CF0D8AEF9CE3BB
:105990000E945FF48AE00E9418354CC432E8E32E7E
:1059A0003FE0F32E10E088E5810F0F94C80C8823A8
:1059B00051F00F94910CF70160837183828393837C
:1059C000812F0E9407B61F5FF4E0EF0EF11C133029
:1059D00051F70E94A9832EC483E50F94C80C882335
:1059E00051F00F94910C609341167093421680937E
:1059F00043169093441686E40F94C80C882381F0D4
:105A00000F94910C20E030E040E752E40F947E5078
:105A100060934516709346168093471690934816E8
:105A20008AE50F94C80C882351F00F94910C609371
:105A3000491670934A1680934B1690934C1687E53F
:105A40000F94C80C882309F4F5C30F94910C60934C
:105A50005516709356168093571690935816EAC3AE
:105A600083E50F94C80C882351F00F94910C609338
:105A70004D1670934E1680934F169093501686E4F1
:105A80000F94C80C882381F00F94910C20E030E033
:105A900040E752E40F947E50609351167093521673
:105AA000809353169093541682E50F94C80C882364
:105AB00081F00F94910C20E030E040E752E40F9425
:105AC0007E5060935D1670935E1680935F16909380
:105AD000601687E50F94C80C882309F4ABC30F94B4
