:100000000C94AB1C0C94DC1C0C94DC1C0C94DC1CC1
:100010000C94DC1C0C94DC1C0C94DC1C0C94DC1C80
:100020000C94DC1C0C94DC1C0C94DC1C0C94DC1C70
:100030000C94DC1C0C943E910C94DC1C0C94DC1C89
:100040000C94DC1C0C94B3870C94DC1C0C94DC1C0E
:100050000C94DC1C0C94DC1C0C948BAA0C94F49077
:100060000C94DC1C0C9441580C9437580C94DC1CF8
:100070000C94DC1C0C94DC1C0C94DC1C0C94DC1C20
:100080000C94DC1C0C94DC1C0C94DC1C0C94DC1C10
:100090000C94DC1C0C94DC1C0C94DC1C0C94DC1C00
:1000A0000C94DC1C0C94DC1C0C94DC1C0C94DC1CF0
:1000B0000C94DC1C0C94DC1C0C94DC1C0C94DC1CE0
:1000C0000C94DC1C0C94DC1C0C94DC1C0C94DC1CD0
:1000D0000C94DC1C0C94DC1C0C94DC1C0C94DC1CC0
:1000E0000C94DC1C0A447142AA424644AA42AA4229
:1000F000AA42AA42AA42AA42AA42AA42AA42AA42A0
:10010000AA42AA42AA42AA42AA42AA42AA42AA428F
:10011000AA42AA42AA42AA42AA42AA42AA42AA427F
:100120004044AA42AA42AA42AA42AA42AA42AA42D7
:10013000AA421944AA42AA42AA42AA42AA42AA42EE
:10014000AA42AA42AA42AA425D44A7421D672A6760
:100150003F674C6769677E678B679C67AD67C6675B
:10016000DF67F86711682E684B68A1028102D5022B
:10017000C102A7017D0291010D021F015D023D0236
:100180007701A702CF017D0231023702C701810149
:100190000502C50249029D023D0171011D017D015B
:1001A0000B01770299020D01BB023D01F7013302F9
:1001B00027029B0269016D0287026701790207022B
:1001C0006F028D021701F3011301084AD73B3BCEA2
:1001D000016E84BCBFFDC12F3D6C74319ABD568346
:1001E0003DDA3D00C77F11BED9E4BB4C3E916BAAFE
:1001F000AABE000000803F05A84CCDB2D44EB9384D
:1002000036A9020C50B9918688083CA6AAAA2ABE33
:10021000000000803F000D9406100D9429100C94EE
:100220003FC10C945FD40D94C4190D941C150D940A
:10023000D9190D94180A0C9481D10D94F40F0D94D2
:100240008C0B0C94D2C30C946C920C9495E60C9489
:10025000AA420C9471420C940AD40C94CAC20D9414
:10026000120A0C941D670C944AD10C94C4900C94FF
:1002700075D10C94CED10C94B14B0D945B100C94B1
:10028000E8470D94F4070C942E680C942A670D949B
:1002900018410C947DC00C94D4D00C9434810C94EF
:1002A0001C480C945ECE0C9486C00C9478E60C949A
:1002B0009C950D94DE060C9483E60C944B680C948C
:1002C000EEFD0C9443810C94387F0C946A950D9448
:1002D000B5190D94AC190C94AD670D94140A0C94D7
:1002E000C6670D94EC0F0C94E1D50D94160A0D948D
:1002F0009A0B0C9481E60C943AD40D94FC0F0C9458
:100300004D810D94C40F0C9496E70C94277F0C94A8
:1003100004D40C9422690C944CE60C9446440D943D
:10032000A1150D94820B0C9402960C945D440C94D0
:10033000BAC30C9464C70D94B7120C949CC80C9467
:100340002D7F0C9425D10C94E2490C94E7D00D94A8
:10035000770B0C9479EB0C94A7420C9418480C94EE
:10036000DF670C9422D40C9410D40C94C2C30C9468
:1003700020CB0C9489D00C94FD410C94AD440C948A
:1003800090E70C941E480C9416480C94BBD00D9426
:10039000B00B0C94627F0C9453D00C9470D00D94DD
:1003A000A20B0C945EC00C9413D10D949E050C947A
:1003B00001420C94F8670C94B3840C949A900C94BA
:1003C000CAC30D94010A0C94CEC30C948EC00C9435
:1003D000B2C30D94FD340C9417FE0C9406D70C9404
:1003E000427F0C94AEC30D94C1190C94B0C60D9409
:1003F0003D100C94AA7F0C94A3C70C941CD40C94AD
:1004000058C70C94C4CA0C94FF470D94C90F0D949F
:10041000BB190C9455D00C943F670D94860B0C942B
:1004200038410C94BB850C94BEC30D9436410C949A
:1004300069D10D9483340C94267F0D94E2090C94B9
:100440003E810C9472950C9406F60C94337F0D94B7
:1004500051100C9442D00C947D950C948DD10C9439
:100460004B950D94A80B0D9447100C9432830D946A
:10047000AC0B0C946E7F0D94100A0D94940B0C949D
:100480003B410C9440440C94FED30C9429830D946E
:100490009E150D94D80F0C949EC80C94C6C30C9452
:1004A00023960C945C7F0C949C670C9497C90C94D5
:1004B00019440C9485E60C94FAD00D94900B0C948E
:1004C000C5820D9415350C9439810C94B6C30C94E7
:1004D00011680C9434D40C941CC20D94B2190D9470
:1004E000C7190C9454CC0C9420D50C948B670D94A4
:1004F00010100D94B8190C9464810D94B50B0C94E4
:100500008AD70D947E0B0C9415E90C948C990D945C
:10051000AF190C94794B0C9437D10D94BE190C94EF
:1005200042D70C94DAD20D94A2130C946FE60C947B
:10053000A2D00D941A100D94CC190D94E20F0C94C6
:10054000D2D10D947B0B0C944C670C9418CB0D946A
:100550009E0B0C9428D40C940A440D94A4150C946E
:10056000687F0C9469670C94F7D60C94B5D60C94FC
:1005700097EA0C940A830D9433100C943D7F0C94ED
:100580001A480D94710B0C94FE410D94CE0F0C94EF
:10059000354D0C94AAC30C941A940C9416D40C9454
:1005A0002ED40C947E670C9440D40D946D0B4E4168
:1005B0004E494E495459494E46CDCCCC3D0AD723DD
:1005C0003C17B7D13877CC2B329595E6241FB14F25
:1005D0000A000020410000C84200401C4620BCBE6A
:1005E0004CCA1B0E5AAEC59D7400407A10F35A00D7
:1005F000A0724E18090010A5D4E80000E87648174C
:100600000000E40B54020000CA9A3B000000E1F530
:1006100005000080969800000040420F000000A0F6
:100620008601000000102700000000E80300000021
:10063000006400000000000A00000000000100004B
:100640000000002C76D888DC674F0823DFC1DFAEBE
:1006500059E1B1B796E5E3E453C63AE65199769687
:10066000E8E6C28426EB898C9B62ED407C6FFCEF50
:10067000BC9C9F40F2BAA56FA5F490055A2AF75C7E
:10068000936B6CF9676DC11BFCE0E40D47FEF52030
:10069000E6B500D0ED902E030094357705008084F8
:1006A0001E080000204E0A000000C80C333333330C
:1006B0000F986E12831141EF8D2114893BE6551678
:1006C000CFFEE6DB18D1844B381BF77C1D901DA4B0
:1006D000BBE424203284725E228100C9F124ECA1A3
:1006E000E53D27434F4D4D554E49434154494F4EEB
:1006F0000044525952554E004552524F52530049F0
:100700004E464F004543484F00536C6565702E2E92
:100710002E004D65736820706F696E742063616E82
:100720006E6F74206265207265736F6C7665640A03
:1007300000436C69636B20746F20526573756D653F
:100740002E2E2E004E6F204D6F76652E00456E6466
:100750002066696C65206C6973740A00426567697C
:100760006E2066696C65206C6973740A00286E6F70
:100770002066696C65290043757272656E74206627
:10078000696C653A20005344207072696E74696E1A
:1007900067206279746520004E6F74205344207086
:1007A00072696E74696E670A00256979202569642B
:1007B000202569682025696D2025697300507269BC
:1007C0006E742074696D653A2000496E76616C69BB
:1007D000642050696E204D6F64650A0045202553E2
:1007E000006F66660044454255473A004D3131324C
:1007F0002053687574646F776E004D313133205328
:10080000005A38545F4D33204F46462E004348412E
:100810004D4245525F54454D504552415455524505
:10082000004D4F54494F4E5F4D4F4445530054487F
:1008300045524D414C5F50524F54454354494F4EE1
:10084000004155544F5245504F52545F53445F53EB
:1008500054415455530050524F4D50545F535550CE
:10086000504F525400454D455247454E43595F50F5
:10087000415253455200434153455F4C4947485408
:100880005F4252494748544E45535300544F4747DF
:100890004C455F4C494748545300534F46545741C9
:1008A00052455F504F574552004255494C445F50A6
:1008B000455243454E54004C4556454C494E475FC2
:1008C00044415441005A5F50524F424500415554F3
:1008D0004F4C4556454C005052494E545F4A4F428A
:1008E0000050524F4752455353004155544F5245C3
:1008F000504F52545F54454D5000564F4C554D4546
:10090000545249430042494E4152595F46494C4571
:100910005F5452414E534645520053455249414C53
:100920005F584F4E5F584F4646004649524D57411B
:1009300052455F4E414D453A4D61726C696E2032B1
:100940002E302E352E3420284769744875622920B0
:10095000534F555243455F434F44455F55524C3AC0
:1009600068747470733A2F2F6769746875622E63A8
:100970006F6D2F4D61726C696E4669726D77617231
:10098000652F4D61726C696E2050524F544F434F2A
:100990004C5F56455253494F4E3A312E30204D410F
:1009A0004348494E455F545950453A5A38545F4D73
:1009B000332045585452554445525F434F554E5489
:1009C0003A3120555549443A63656465326132666F
:1009D0002D343161322D343734382D396231322D96
:1009E0006335356336326633363766660A002F2F35
:1009F00020004D31343520533C696E6465783E20CB
:100A00006F7574206F662072616E67652028302DC7
:100A100031290A00416363656C65726174696F6EA8
:100A20003A20500046523A0020466C6F773A200038
:100A300050726F7465637465642050696E0A004972
:100A40006E76616C69642065787472756465720A8B
:100A50000020643A0020693A0020703A0046696C30
:100A6000616D656E742072756E6F75742064697344
:100A700074616E636520286D6D293A200046696CAB
:100A8000616D656E742072756E6F757420004D34E3
:100A9000323120696E636F727265637420706172A7
:100AA000616D657465722075736167650A00202049
:100AB0004261636B6C6173682044697374616E6337
:100AC0006520286D6D293A2020202020202020003C
:100AD000202846312E30203D2066756C6C2C204637
:100AE000302E30203D206E6F6E65290A0020204395
:100AF0006F7272656374696F6E20416D6F756E748D
:100B00002F466164652D6F75743A202020202046A1
:100B1000006163746976653A0A004261636B6C61D7
:100B2000736820436F7272656374696F6E20004F43
:100B3000666673657473204170706C696564004506
:100B400072723A20546F6F206661722100546F6F89
:100B5000206661722066726F6D20726566657265CF
:100B60006E636520706F696E740A00454550524F80
:100B70004D204F4B0A00205A323A004475616C20D8
:100B8000456E6473746F702041646A7573746D652B
:100B90006E7420286D6D293A2000506F7765722D94
:100BA0006C6F7373207265636F7665727920004491
:100BB0006F6E65207072696E74696E672066696C0D
:100BC000650A004D3737004D3331000407FF06F842
:100BD00006F106E3064361703A0047322F4733209F
:100BE00062616420706172616D65746572730A0080
:100BF0003F5A206F7574206F662072616E676520A2
:100C000028003F59206F7574206F662072616E67EF
:100C10006520282D003F58206F7574206F66207264
:100C2000616E676520282D0050726F6265204F66E7
:100C300066736574205800656E7175657565696EBB
:100C4000672022006F6B00526573656E643A200066
:100C500042656420436F6F6C696E672E2E2E0042D2
:100C600065642048656174696E672E2E2E002364CA
:100C70006566696E652044454641554C545F004B9E
:100C80006420004B6920004B7020005049442041F3
:100C900075746F74756E652066696E6973686564D6
:100CA000212050757420746865206C617374204B2A
:100CB000702C204B6920616E64204B6420636F6E42
:100CC0007374616E74732066726F6D2062656C6FF1
:100CD0007720696E746F20436F6E66696775726105
:100CE00074696F6E2E680A00504944204175746F14
:100CF00074756E65206661696C6564212074696D28
:100D0000656F75740A000A20436C61737369632010
:100D1000504944200A00204B643A2000204B693A95
:100D20002000204B703A20002054753A2000204BC0
:100D3000753A2000206D61783A2000206D696E3A86
:100D4000200020643A200020626961733A2000503C
:100D50004944204175746F74756E652073746172B7
:100D6000740A00504944204175746F74756E652093
:100D70006661696C6564212054656D70657261748B
:100D800075726520746F6F20686967680A00504942
:100D900044204175746F74756E65206661696C6579
:100DA00064212042616420657874727564657220E4
:100DB0006E756D6265720A00504944204465627523
:100DC0006720004572723A207574663820666F6E2F
:100DD00074206E6F7420696E697469616C697A65DC
:100DE000642E00000C0D00FE07022603BC017FFEEE
:100DF00008FE08FE05080806000040F0C88888982C
:100E00007810050808060000C0F88888888888F8E7
:100E10000505050600012030F83020050808060009
:100E2000002070F820202020E00509090600FF209E
:100E300070A8A8B888887020050606060001E08C16
:100E4000EA8C8A0A0509090600FFF8A888888888BC
:100E500088A8F8050A0A0600FE205050505088A8BD
:100E6000A8887003030306000340A040FFFFFFFFB4
:100E7000FFFFFFFFFFFFFFFFFFFFFFFFFFFFFFFF82
:100E8000FFFF0000000605FF010707060200808043
:100E90008080800080030303060105A0A0A0050652
:100EA0000606000050F85050F8500509090600FFEA
:100EB0002070A8A07028A87020050707060000C8A9
:100EC000C8102040989805070706000040A0A040E1
:100ED000A8906801030306020580808003090906C3
:100EE00001FF204040808080404020030909060126
:100EF000FF8040402020204040800507070600007A
:100F000020A8702070A8200505050600012020F803
:100F100020200203030601FFC040800501010600F6
:100F200003F8020202060100C0C005070706000020
:100F300008101020404080050707060000708898C0
:100F4000A8C8887003070706010040C04040404021
:100F5000E0050707060000708808102040F8050724
:100F600007060000F808103008887005070706001B
:100F70000010305090F81010050707060000F880A8
:100F8000F008088870050707060000304080F088E8
:100F90008870050707060000F808101020202005BB
:100FA00007070600007088887088887005070706A4
:100FB000000070888878081060020505060100C0EE
:100FC000C000C0C00206060601FFC0C000C04080CD
:100FD00003050506010120408040200503030600AB
:100FE00002F800F803050506010180402040800555
:100FF000070706000070881020200020050707065C
:1010000000007088B8A8B880700507070600007057
:101010008888F8888888050707060000F048487027
:101020004848F005070706000070888080808870B7
:10103000050707060000F04848484848F00507073C
:10104000060000F88080F08080F8050707060000A1
:10105000F88080F080808005070706000070888097
:1010600080988870050707060000888888F88888B7
:1010700088030707060100E04040404040E00507C4
:1010800007060000381010101090600507070600D2
:10109000008890A0C0A09088050707060000808007
:1010A00080808080F805070706000088D8A8888817
:1010B00088880507070600008888C8A898888805DA
:1010C000070706000070888888888870050707066B
:1010D0000000F08888F08080800507070600007017
:1010E000888888A89068050707060000F08888F0BF
:1010F000A090880507070600007088807008887037
:10110000050707060000F8202020202020050707FB
:101110000600008888888888887005070706000010
:10112000888888885050200507070600008888882E
:1011300088A8A85005070706000088885020508816
:101140008805070706000088885020202020050712
:1011500007060000F80810204080F803090906017E
:10116000FFE080808080808080E005070706000027
:10117000804040201010080309090601FFE02020EC
:101180002020202020E005030306000520508805CC
:1011900001010600FEF80303030601058040200557
:1011A0000505060000700878887805070706000026
:1011B0008080F0888888F005050506000070808032
:1011C0008870050707060000080878888888780571
:1011D00005050600007088F080700507070600000E
:1011E000304840E04040400507070600FE70888810
:1011F000887808700507070600008080F0888888D6
:10120000880307070601004000C0404040E0040991
:10121000090601FE1000301010101090600507073D
:1012200006000080808890E0908803070706010090
:10123000C04040404040E0050505060000D0A8A899
:10124000A8A8050505060000B0C88888880505051A
:1012500006000070888888700507070600FEF08881
:101260008888F080800507070600FE7888888878DF
:101270000808050505060000B0C880808005050542
:1012800006000078807008F005070706000020209F
:10129000F820202018050505060000888888986831
:1012A000050505060000888888502005050506000C
:1012B000008888A8A8500505050600008850205021
:1012C000880507070600FE888888502040800505AD
:1012D00005060000F8102040F80309090601FF2068
:1012E00040404080404040200109090602FF8080C4
:1012F000808080808080800309090601FF80404053
:1013000040204040408005030306000248A890FFAB
:1013100052756E6F75742044697374206D6D004C46
:101320006F6164206D6D00556E6C6F6164206D6D32
:101330000046696C2E204469612E004520696E20AC
:101340006D6DC2B3004D33303320553120452569D2
:101350002053256900504944204175746F74756E9F
:1013600065202A005049442D44202A005049442D2C
:1013700049202A005049442D50202A0056547261B9
:1013800076204D696E00566D696E00566D6178204D
:101390004500566D6178205A00566D6178205900DD
:1013A000566D6178205800416D6178204500416D8F
:1013B0006178205A00416D6178205900416D617853
:1013C000205800412D54726176656C00412D5265A4
:1013D000747261637400416363656C004572726F7F
:1013E000722077726974696E6720746F204545506A
:1013F000524F4D210A00627573793A2070617573FE
:10140000656420666F7220696E7075740A0062757B
:1014100073793A2070617573656420666F72207508
:101420007365720A00627573793A2070726F636532
:101430007373696E670A004D3630302054313700BF
:1014400053544F505045442E20005072696E7465BD
:10145000722073746F707065642064756520746F9A
:10146000206572726F72732E2046697820746865E9
:10147000206572726F7220616E6420757365204DF5
:1014800039393920746F20726573746172742E203B
:101490002854656D7065726174757265206973207A
:1014A00072657365742E20536574206974206166BB
:1014B0007465722072657374617274696E67290A4B
:1014C000004E6F20436865636B73756D2077697498
:1014D00068206C696E65206E756D6265722C204C9B
:1014E000617374204C696E653A2000636865636BB4
:1014F00073756D206D69736D617463682C204C6128
:101500007374204C696E653A20004C696E65204EFC
:10151000756D626572206973206E6F74204C617303
:1015200074204C696E65204E756D6265722B312C8E
:10153000204C617374204C696E653A20004D313146
:10154000300053442072656164206572726F720AC4
:10155000002121204B494C4C206361757365642048
:101560006279204B494C4C20627574746F6E2F70F9
:10157000696E0A002121204B494C4C206361757330
:10158000656420627920746F6F206D7563682069CF
:101590006E6163746976652074696D65202D2063C2
:1015A000757272656E7420636F6D6D616E643A2042
:1015B00000506C656173652052657365740050520C
:1015C000494E5445522048414C5445440025533A15
:1015D000202553004B494C4C45442E200050726945
:1015E0006E7465722068616C7465642E206B696C22
:1015F0006C28292063616C6C6564210A006563684E
:101600006F3A004572726F723A00363726033C3DDE
:10161000380E2E303E121A1C181324221E282716AC
:101620002B2C2A08440A06430809060001204D39DC
:101630003220580020204D61783A200020204D694A
:101640006E3A2000536F667420656E6473746F7019
:10165000733A2000252900257C00203B2043757229
:1016600072656E74205A00203B20456E6400203B5A
:10167000205374617274004772616469656E7420EE
:101680004D6978200052616E646F6D204D6978203D
:10169000004D32342053256C642054256C6400477F
:1016A00039322E3920452573004731204625640004
:1016B0004739322E39205A2573004731205A3020BD
:1016C0004632303000473120582573205925732089
:1016D0004633303030004D34323020532569205AA3
:1016E0002573004D3130362050256920532569007F
:1016F0004D31303920532569004D31393020532583
:1017000069004D32303020442573004739322E397C
:101710002045305A300A4731205A320A473238526F
:10172000305859004D343230205330205A30002088
:10173000496E76616C69642065787472756465724F
:10174000200020496E76616C6964204520737465C1
:10175000707065722000204520737465707065722A
:10176000206E6F74207370656369666965640A0032
:1017700042696C696E656172204C6576656C696E54
:101780006720477269643A0A005072657373206279
:101790007574746F6E20746F20726573756D650A51
:1017A00000507265737320627574746F6E20746F6D
:1017B0002068656174206E6F7A7A6C650A004F4606
:1017C000460A0046616465204865696768742000C0
:1017D000426564204C6576656C696E6720004661E1
:1017E000696C656420746F20656E61626C6520426F
:1017F0006564204C6576656C696E670A00496E7693
:10180000616C6964206D6573682E0A006D65617393
:10181000757265645F7A3D0050726F62696E672011
:10182000506F696E740025532025692F256900507B
:10183000726F62696E67206D65736820706F696E84
:101840007420004F66667365742063617463686515
:10185000642021006661696C2C206D616E75616C7D
:10186000206C6576656C006661696C2C204D6F7626
:10187000652075702050726F62652100546F20637F
:1018800061746368206F6666736574002028445233
:101890005952554E2900473239204175746F204204
:1018A0006564204C6576656C696E67003F20284C46
:1018B0002C522C462C4229206F7574206F662062B2
:1018C0006F756E64732E0A003F2856296572626F29
:1018D0007365206C6576656C20696D706C617573DD
:1018E00069626C652028302D34292E0A004261641B
:1018F000205A2076616C75650A004E6F2062696C13
:10190000696E65617220677269640A003F00436115
:101910006E63656C004D6F74696F6E004175746F16
:1019200020486F6D6500562D746F6F6C732057657E
:101930007265205265736574004379636C65204D50
:10194000697800526573657420562D746F6F6C73DF
:1019500000436F6D6D697420562D746F6F6C204D50
:10196000697800436F6D706F6E656E74203D004145
:10197000637469766520562D746F6F6C0052616ECA
:10198000646F6D204D6978003A2064697361626C00
:1019900065003A20656E61626C6500536574204D88
:1019A0006978004D38340044697361626C65205376
:1019B00074657070657273004732385A00486F6DF5
:1019C00065205A004732385900486F6D652059002C
:1019D0004732385800486F6D65205800473238004C
:1019E00020436F756E7420583A004531006265647B
:1019F000002C2073797374656D2073746F7070653B
:101A00006421204865617465725F49443A2000246E
:101A1000F4D43050C38E20C2A24017828B701112B2
:101A20007A910D816CD90AA861E108C758660761EF
:101A30005143061E4B5D05C145A7041A4111040917
:101A40003D9803713931034036DB0265339102D48E
:101A5000305402802E1D02632CEE01752AC501B0A0
:101A600028A001102781018F2564012B244B01E060
:101A7000223401AC211F018D200D01801FFC008448
:101A80001EED00971DDF00B81CD200E61BC600202B
:101A90001BBC00641AB200B219A8000A19A0006A9F
:101AA000189900D117910040178B00B516840031AA
:101AB000167E00B31579003A157300C7146F0058ED
:101AC000146A00EE1366008813630025135E00C7D6
:101AD000125B006C12570015125400C111510070B6
:101AE000114F0021114B00D61049008D10470046C0
:101AF00010440002104200C00F4000800F3E004220
:101B00000F3C00060F3B00CB0E3800930E37005CF5
:101B10000E3500270E3400F30D3200C10D31009058
:101B20000D3000600D2E00320D2D00050D2C00D95A
:101B30000C2B00AE0C2900850C29005C0C2700350D
:101B40000C27000E0C2600E80B2400C40B2400A078
:101B50000B23007D0B23005A0B2100390B210018A9
:101B60000B2000F80A1F00D90A1E00BB0A1E009DA8
:101B70000A1D00800A1D00630A1C00470A1B002C76
:101B80000A1B00110A1A00F7091A00DD091900C41E
:101B9000091900AB091900920917007B09180063A5
:101BA0000917004C09160036091600200916000A0C
:101BB000091500F5081500E0081400CC081400B859
:101BC000081400A4081400900813007D0812006B8C
:101BD00008130058081200460812003408110023A8
:101BE0000811001208110001081100F0071000E0B0
:101BF000071000D0071000C0071000B0070F00A1A9
:101C000007100091070E0083070F0074070F00658F
:101C1000070E0057070E0049070E003B070D002E68
:101C2000070E0020070D0013070D0006070D00F931
:101C3000060C00ED060D00E0060C00D4060C00C8F2
:101C4000060C00BC060C00B0060C00A4060B0099A4
:101C5000060C008D060B0082060B0077060B006C4D
:101C6000060B0061060A0057060B004C060A0042EC
:101C7000060A0038060A002E060A0024060A001A80
:101C8000060A001006090007060A00FD050900F40F
:101C9000050900EB050900E2050900D9050900D096
:101CA000050900C7050900BE050900B5050800AD16
:101CB000050800A50509009C050800940508008C8E
:101CC000050800840508007C050800740508006C00
:101CD000050700650508005D050700560508004E6C
:101CE00005070047050700400508003805070031D3
:101CF0000507002A050700230507001C0506001636
:101D00000507000F0507000805060002050700FB90
:101D1000040600F5040700EE040600E8040600E2ED
:101D2000040700DB040600D5040600CF040600C942
:101D3000040600C3040600BD040600B7040600B193
:101D4000040500AC040600A6040600A00405009BE0
:101D500004060095040500900406008A0405008529
:101D6000040500800406007A04050075040500706F
:101D70000405006B04050066040500610405005CB1
:101D800004050057040500520405004D04050048F1
:101D9000040500430405003E0404003A0405003530
:101DA000040500300404002C04050027040400236B
:101DB0000405001E0404001A0404001604050011A2
:101DC0000404000D040400090405000404040000D8
:101DD000040400FC030400F8030400F4030400F00E
:101DE000030400EC030400E8030400E4030400E03F
:101DF000030400DC030400D8030400D4030400D06F
:101E0000030400CC030400C8030300C5030300243B
:101E1000F404D9201BC40C5C0E9804C4095F02654D
:101E2000077101F405F900FB04B30048048700C101
:101E30000369005803550003034500BE023A0084BD
:101E400002310053022A002902250004022000E486
:101E5000011C00C8011900AF01170098011400848B
:101E6000011300710110006101100051010E0043C7
:101E7000010D0036010B002B010B0020010B00159A
:101E80000109000C01090003010800FB000800F330
:101E9000000800EB000700E4000600DE000600D8A2
:101EA000000600D2000600CC000500C7000500C2F5
:101EB000000500BD000400B9000400B5000400B135
:101EC000000400AD000400A9000400A5000300A266
:101ED0000003009F0004009B00030098000300958E
:101EE00000020093000300900003008D0002008BAD
:101EF00000030088000200860002008400030081C5
:101F00000002007F0002007D0002007B00020079D9
:101F100000020077000100760002007400020072E7
:101F2000000100710002006F0002006D0001006CF2
:101F30000002006A000100690002006700010066FB
:101F40000001006500010064000200620001006100
:101F5000000100600001005F0002005D0001005C04
:101F60000001005B0001005A000100590001005807
:101F70000001005700010056000100550001005407
:101F80000001005300000053000100520001005105
:101F9000000100500001004F0001004E0000004E03
:101FA0000001004D0001004C0001004B0000004BFF
:101FB0000001004A000100490001004800000048FB
:101FC00000010047000100460000004600010045F6
:101FD00000000045000100440001004300000043F0
:101FE00000010042000000420001004100000041E9
:101FF000000100400001003F0000003F0001003EE2
:102000000000003E0001003D0000003D0001003CDA
:102010000000003C0000003C0001003B0000003BD1
:102020000001003A0000003A0001003900000039C8
:1020300000010038000000380000003800010037BF
:1020400000000037000100360000003600000036B6
:1020500000010035000000350000003500010034AB
:1020600000000034000000340001003300000033A1
:102070000000003300010032000000320000003296
:10208000000100310000003100000031000100308B
:1020900000000030000000300001002F0000002F81
:1020A0000000002F0000002F0001002E0000002E75
:1020B0000000002E0001002D0000002D0000002D6A
:1020C0000000002D0001002C0000002C0000002C5E
:1020D0000000002C0001002B0000002B0000002B52
:1020E0000000002B0001002A0000002A0000002A46
:1020F0000000002A0001002900000029000000293A
:10210000000000290000002900010028000000282C
:10211000000000280000002800000028000100271F
:102120000000002700000027000000270000002713
:102130000001002600000026000000260000002606
:1021400000000026000100250000002500000025F9
:1021500000000025000000250000002500010024EB
:1021600000000024000000240000002400000024DF
:1021700000010023000000230000002300000023D2
:1021800000000023000000230000002300010022C3
:1021900000000022000000220000002200000022B7
:1021A00000000022000100210000002100000021A9
:1021B000000000210000002100000021000000219B
:1021C000000100200000002000000020000000208E
:1021D000000000200000002000000020000000207F
:1021E0000001001F0000001F0000001F0000001F72
:1021F0000000001F0000001F0000001F0001001E63
:102200000000001E0000001E0000001E000000A4D0
:102210002C0000841E0000B0120000870A00009EFF
:10222000050000E90200007B010000BF0000000083
:10223000020000000000000000000000000000009C
:10224000000000000000000000000000000000008E
:10225000000000000000000000000000000000007E
:102260000007FFC3FF870187FF0FFCFFFC1E01FF74
:102270008007FFC3FF87018FFF1FFCFFFC1E03FFCA
:10228000C00000C600C7018C001800030061830075
:10229000C00001C600C7C18C0018000300618300A4
:1022A000C000038600C6C18C0018000301806300D3
:1022B000C000070600C6618C00180003018063009F
:1022C000C0000E0600C6618C001800030180630088
:1022D000C0001C0600C6318FFE1FF803018063FF9B
:1022E000C000380600C6318FFE0FFC03018063FF7B
:1022F0008000700600C6198C00000C0301FFE30C7F
:102300000000E00600C6198C00000C0301FFE30783
:102310000001C00600C60D8C00000C0301806301A3
:102320008003800600C60D8C00000C030180630151
:102330008007000600C6078C00000C0301806301C3
:102340008006000600C6078C00000C0301806301B4
:102350008007FFC3FF86038FFF1FFC03018063011B
:102360008007FFC3FF860387FF1FF8030180630117
:1023700080000000000000000000000000000000DD
:10238000000000000000000000000000000000004D
:10239000000000000000000000000000000000003D
:1023A000000000000000000000000000000000002D
:1023B000004D313030302053002020506C616E6E63
:1023C000657242756666657242797465733A20007B
:1023D0002046726565204D656D6F72793A20004325
:1023E0006F6D70696C65643A2053657020323420DB
:1023F000323032300A00204C6173742055706461B1
:102400007465643A20323032302D30392D32332029
:102410007C20417574686F723A20285A4F4E45539C
:102420005441522C2048616C6C79290A00322E30BC
:102430002E352E340A004D61726C696E0020536F88
:102440006674776172652052657365740A0020575F
:1024500061746368646F672052657365740A002055
:1024600042726F776E206F75742052657365740ABF
:10247000002045787465726E616C205265736574D6
:102480000A00506F77657255700A006175746F2588
:10249000632E67004732385859004D3130303100D3
:1024A0006572726F722077726974696E6720746FDB
:1024B0002066696C650A00446F6E652073617669F9
:1024C0006E672066696C652E0A004D323900456ED4
:1024D0006473746F70730025532025632025632077
:1024E00025632025630020503A00656E6473746F85
:1024F0007073206869743A2000436F727265637468
:10250000696F6E004E65787420436F726E6572005D
:10251000446F6E65004E65787400486F6D696E6734
:102520002058595A00466164652048656967687497
:10253000004732380A473239004C6576656C2042D4
:102540006564004732380A473239204E3300436110
:10255000746368205A204F6666736574004C657614
:10256000656C20436F726E65727300556E526574B0
:10257000205600556E526574206D6D00486F7020B6
:102580006D6D00526574726163742020560052654F
:102590007472616374206D6D004175746F5265745F
:1025A000722E00000070C10000000000000000005A
:1025B000004842000048420000804002020400003F
:1025C000A0400000A040000000400080A2430000A6
:1025D0009B430000C843FFFFFF5761726E696E673F
:1025E0003A20486F6D696E672042756D70204469AE
:1025F0007669736F72203C20310A00206C696D6926
:1026000074656420746F2000204D61782000F00014
:102610004A0110013B0130012C014001270150010A
:10262000220170011D0190011801B0011301C001C8
:102630000E01F0010901100204013002FF006002E6
:10264000FA009002F500C002F0000003EB00400326
:10265000E6008003E100D003DC002004D700E004A2
:10266000D200C005CD004006C800D006C3008007D8
:10267000BE00F008B9004009B400C009AF00B00ABC
:10268000AA00B00BA500D00CA000000E9B00C0104B
:1026900096005012910000148C00C0158700B017EE
:1026A0008200B0197D00D01B7800001E730040200E
:1026B0006E0090226900F024640040275F0090299A
:1026C0005A00E02B5500102E500020304B001032E5
:1026D0004600E033410090353C0010373700703839
:1026E0003200A0392D00B03A2800A03B2300603C06
:1026F0001E00103D1900903D1400103E0F00703E6A
:102700000A00C03E0500003F0000403FFBFF803F45
:10271000F6FFC03FF1FF1000AA0380004001000156
:102720002C01B001220140021001F00202018003DD
:10273000F8004004F500E004ED009005E4003006E8
:10274000DD00E006D7008007D1003008CC00D008BB
:10275000C7007009C300100ABE00B00ABB00500BCE
:10276000B700900CB300D00DAA00B00FA500501018
:10277000A000101496009016900010198C00501AAA
:102780008500301C820070227800B023750040253F
:102790006E0020276900A0296400502A5F00902B5A
:1027A0005A00D02C5500702D4F00E02E48005031BB
:1027B000450030334100D0353900603637001037DE
:1027C0003300F0382D00A0392700803C1C00403D2C
:1027D0001700F03D1100703E0A00C03E0500003FAA
:1027E0000000403FFBFF803FF6FFC03FF1FF206449
:1027F0005465726D200020695465726D2000207050
:102800005465726D2000204F757470757420003A05
:1028100020496E7075742000205049445F44454241
:102820005547200048656174696E67204661696C90
:1028300065640048656174696E67206661696C65EE
:102840006400544845524D414C2052554E41574129
:102850005900546865726D616C2052756E617761C4
:102860007900202D20496E76616C6964206578744A
:102870007275646572206E756D62657220210A0042
:102880004572723A204D415854454D50004D4158C3
:1028900054454D50207472696767657265640045E0
:1028A00072723A204D494E54454D50004D494E5498
:1028B000454D5020747269676765726564004D38D4
:1028C0003420582059205A204500202F0020424013
:1028D0003A0020403A0020746F6F206C6F6E6720C2
:1028E000657874727573696F6E2070726576656E47
:1028F0007465640A004F7574616765205265636F83
:102900007665727900436F6E666967757261746986
:102910006F6E0052756E61776179205761746368DC
:102920003A204F464600313330004245443A47652D
:102930006E65726963203130304B20423339353057
:102940000052756E617761792057617463683A202F
:102950004F4E004D61782054656D70003237350060
:102960004D696E2054656D700045313A2047656EA3
:1029700065726963203130304B2042333935300085
:102980005053550047656E657269630050726F74ED
:102990006F636F6C00312E3000426175640031311D
:1029A000353230300068747470733A2F2F77777730
:1029B0002E616C69657870726573732E636F6D2F0D
:1029C0006974656D2F3332393635343036333936E4
:1029D0002E68746D6C005A4F4E4553544152205A24
:1029E0005249425F5636004455414C205A204452C9
:1029F0004956455200544954414E20455854525569
:102A00004445520042696C696E656172204C65767E
:102A1000656C696E670045787472756465727300E1
:102A20007777772E7A6F6E657374617233642E6375
:102A30006F6D005A38545F4D3300323032302D30D4
:102A4000392D323300322E302E352E340056312EB1
:102A5000352E3000546865726D6973746F7273003F
:102A6000426F61726420496E666F005072696E74C5
:102A7000657220496E666F004D31303030005374FE
:102A80006F70205072696E7400526573756D6520A9
:102A90005072696E74004261636B0053746F700012
:102AA0004D656469612052656C6561736564004DB4
:102AB000323100417474616368204D65646961005E
:102AC0004D32320052656C65617365204D656469F5
:102AD00061004D38310053776974636820506F7717
:102AE0006572204F6666004368616E6765204669BF
:102AF0006C616D656E740041626F7574205072690F
:102B00006E7465720054756E6500496E666F205371
:102B1000637265656E005061726B696E672E2E2E52
:102B20000000005761697420666F720066696C610D
:102B30006D656E74206368616E676500746F2073E5
:102B400074617274005761697420666F72006669FF
:102B50006C616D656E7420756E6C6F616400004E03
:102B60006F7A7A6C652068656174696E6700506C75
:102B70006561736520776169742E2E2E0000507296
:102B800065737320627574746F6E00746F2068656E
:102B90006174206E6F7A7A6C650000496E7365729D
:102BA000742066696C616D656E7400616E6420707E
:102BB0007265737320627574746F6E00746F206336
:102BC0006F6E74696E7565005761697420666F7207
:102BD0000066696C616D656E74206C6F61640000E5
:102BE000507265737320427574746F6E00746F2039
:102BF000726573756D65207072696E74000057613F
:102C0000697420666F72207072696E7400746F2030
:102C1000726573756D652E2E2E00005761697420E4
:102C2000666F720066696C616D656E742070757296
:102C3000676500004D69786572003A202534642E7E
:102C40002564206D6D005374617274205072696E3A
:102C5000740043616E6E6F7420656E7465722073CC
:102C600075626469723A2000022E2E000152656678
:102C7000726573680052657665727365204772618C
:102C80006469656E74002020456E6420562D746F53
:102C90006F6C00537461727420562D746F6F6C00EA
:102CA0002020456E64205A3A005374617274205A91
:102CB0003A0000009B4300009B430000C84353655B
:102CC0007474696E67732053746F72656420280092
:102CD00054656D70657261747572650046616E2031
:102CE0005370656564004E6F7A7A6C65004D61695A
:102CF0006E005072656865617420504C4120456ECD
:102D000064005072656865617420504C41204265D2
:102D10006400507265686561742041425320456EBD
:102D200064005072656865617420414253204265B9
:102D30006400436F6F6C646F776E005072656865F6
:102D4000617420414253005072656865617420507F
:102D50004C41004261627973746570205A00466C80
:102D60006F77007C3C3E5E2B3D3F2F5B5D3B2C2A0A
:102D7000225C001FE02010201020101020102020C6
:102D800010201030300840048003001FE03FF03F67
:102D9000F03FF01FE01FE03FF03FF03FF00FC007B3
:102DA0008003003FFFF038007030FC3020FC102022
:102DB00078102030102C00D02E31D02F7BD02F7BDC
:102DC000D02E31D02C00D020301020781020FC10D4
:102DD00030FC303800703FFFF03FFFF038007031BA
:102DE00086302387102787902F87D02F03D020305D
:102DF000102078102078102030102F03D02F87D08B
:102E00002787902387103186303800703FFFF01FEE
:102E1000FFF81FFFF80410400208200208200410E9
:102E2000400820801041001041000820800410401C
:102E30000000001FFFF81FFFF83300CC00CC120089
:102E40004800481200480048120048004813FFCFCD
:102E5000FFC810000000081FFF83FFF8000FC7E045
:102E600000000FEFE0000003EF80000001EF000022
:102E700000006C000000000000002568753A253055
:102E800032687500256875642025303268753A25EA
:102E900030326875002053697A653A200043616ECC
:102EA0006E6F74206F70656E207375626469722036
:102EB0000053442063617264206F6B0A006F706579
:102EC0006E526F6F74206661696C65640A00766F7C
:102ED0006C756D652E696E6974206661696C6564D8
:102EE0000A00534420696E6974206661696C0A00A7
:102EF0004D32332025730046696C652073656C651F
:102F0000637465640A0046696C65206F70656E6560
:102F1000643A2000454E4420535542524F5554497F
:102F20004E450A002220706F730022207061726586
:102F30006E743A2200535542524F5554494E452023
:102F400043414C4C207461726765743A220074727C
:102F500079696E6720746F2063616C6C2073756291
:102F60002D67636F64652066696C6573207769748B
:102F70006820746F6F206D616E79206C6576656C6A
:102F8000732E204D4158206C6576656C2069733A2C
:102F9000310A0044656C6574696F6E206661696C06
:102FA00065642C2046696C653A200046696C652092
:102FB00064656C657465643A0057726974696E671C
:102FC00020746F2066696C653A2000646F696E67D3
:102FD000004E6F77200056652D4A65726B00565A79
:102FE0002D4A65726B0056592D4A65726B00565812
:102FF0002D4A65726B0050726F62652059204F66D2
:10300000667365740050726F62652058204F666663
:10301000736574004573746570732F6D6D005A731A
:10302000746570732F6D6D005973746570732F6DB7
:103030006D005873746570732F6D6D00496E6974FF
:10304000004D34323800496E697469616C697A6583
:1030500020454550524F4D004261636B6C6173686F
:103060000053746570732F6D6D0050726F62652030
:103070004F66667365747300416363656C65726166
:1030800074696F6E0056656C6F636974790053657F
:103090007420486F6D65204F6666736574730050C9
:1030A00072696E742066726F6D204D65646961008F
:1030B0004D6F76652025736D6D004D6F7665203000
:1030C0002E316D6D004D6F766520316D6D004D6F49
:1030D00076652031306D6D004D6F766520417869E1
:1030E00073004578747275646572004D6F76652063
:1030F0005A004D6F76652059004D6F766520580057
:1031000000002100240027002A002D003000330099
:1031100001010000040107010A010000220025004E
:1031200028002B002E0031003400020100000501B0
:1031300008010B01000020002300260029002C00BC
:103140002F003200000100000301060109010505FE
:103150000505070508080808020202020A0A08080D
:10316000040404040101010101010101030303033B
:1031700003030303040707070C0C0C0C0C0C0C0CCA
:103180000202020206060606060606060B0B0B0BDB
:103190000B0B0B0B01021020200808102040102000
:1031A000408002010201080402010102040810200B
:1031B0004080804020100804020180040201804009
:1031C0002010080402010804020101020408102072
:1031D0004080010204081020408000000A0B020910
:1031E0000C0D0E08070304010000000000000000A1
:1031F00000000000000000000000000000000000CF
:10320000000000000000121110000000000000008B
:1032100000000000000000000000000000000000AE
:103220004C6F61642053657474696E6773005374E6
:103230006F72652053657474696E67730050726FA6
:103240006265205A204F666673657400416476613A
:103250006E6365642053657474696E6773004F6EA6
:1032600000554E4C4F41442046494C414D454E542B
:103270000046494C414D454E54204348414E474538
:1032800000526573746F72652044656661756C7475
:103290007300507265686561742041425320436F2A
:1032A0006E66005072656865617420504C41204321
:1032B0006F6E660052756E6F75742053656E736F16
:1032C00072004D36303020423020542569004D3791
:1032D000303120542569004D3730322054256900A3
:1032E000556E6C6F61642046696C616D656E74200B
:1032F0002A004D37303200556E6C6F616420416C8E
:103300006C004C6F61642046696C616D656E742061
:103310002A004368616E67652046696C616D656E61
:1033200074202A00436F6E74696E75650050757263
:103330006765206D6F726500524553554D45204FAE
:103340005054494F4E533A005052494E5420504128
:10335000555345440020204E6F7A7A6C653A200020
:10336000205A3A200020593A200042656420583AF9
:1033700020005072696E742050617573656400504E
:10338000726F62696E67204661696C65640A0050FD
:10339000726F62696E67204661696C656400486F90
:1033A0006D6520257325732573204669727374003B
:1033B000496E736572742066696C616D656E742008
:1033C000616E6420707265737320627574746F6EC1
:1033D0000A0020573A005A38545F4D332052656135
:1033E00064792E005072696E74696E672E2E2E00FD
:1033F000220A00556E6B6E6F776E20636F6D6D6184
:103400006E643A2022006F70656E206661696C659B
:10341000642C2046696C653A200020453A0020590A
:103420003A0020520020204D363033200020204D1D
:1034300034313220530046696C616D656E742072C0
:10344000756E6F75742073656E736F723A0020200D
:103450004D3432352046004261636B6C61736820E5
:10346000636F6D70656E736174696F6E3A0020559D
:103470000046696C616D656E74206C6F61642F75B8
:103480006E6C6F6164206C656E677468733A0020BF
:10349000204D3835312058005A2D50726F6265200A
:1034A0004F66667365740020204D3230392053001A
:1034B0004175746F2D526574726163743A20533D87
:1034C0003020746F2064697361626C652C20312038
:1034D000746F20696E7465727072657420452D6F0B
:1034E0006E6C79206D6F76657320617320726574E0
:1034F000726163742F7265636F7665720020204D70
:103500003230382053005265636F7665723A20532B
:103510003C6C656E6774683E20463C756E697473DA
:103520002F6D3E0020570020204D323037205300B1
:10353000526574726163743A20533C6C656E6774B3
:10354000683E20463C756E6974732F6D3E205A3C70
:103550006C6966743E0020204D3431332053005096
:103560006F7765722D4C6F7373205265636F76654C
:1035700072793A0020204D333031205000504944B8
:103580002073657474696E67733A002048002020C8
:103590004D3134352053004D6174657269616C2082
:1035A00068656174757020706172616D65746572B3
:1035B000733A0020204D36363600456E6473746FC2
:1035C000702061646A7573746D656E743A00204A88
:1035D000002020473239205720490020204D343226
:1035E000302053004175746F20426564204C65762D
:1035F000656C696E673A0020204D323036205800E5
:10360000486F6D65206F66667365743A0020204DC3
:10361000323035204200416476616E6365643A2041
:10362000423C6D696E5F7365676D656E745F74694A
:103630006D655F75733E20533C6D696E5F666565B1
:1036400064726174653E20543C6D696E5F74726192
:1036500076656C5F66656564726174653E20583C92
:103660006D61785F785F6A65726B3E20593C6D6171
:10367000785F795F6A65726B3E205A3C6D61785F56
:103680007A5F6A65726B3E20453C6D61785F655F6D
:103690006A65726B3E0020540020204D3230342089
:1036A0005000416363656C65726174696F6E2028B8
:1036B000756E6974732F7332293A20503C707269A9
:1036C0006E745F616363656C3E20523C7265747218
:1036D0006163745F616363656C3E20543C74726126
:1036E00076656C5F616363656C3E0020204D32300F
:1036F000312058004D6178696D756D2041636365B7
:103700006C65726174696F6E2028756E6974732FB1
:103710007332293A0020204D3230332058004D6159
:1037200078696D756D206665656472617465732076
:1037300028756E6974732F73293A0053746570731A
:103740002070657220756E69743A0020204D323009
:10375000302044300A0020204D32303020440020F8
:1037600044697361626C65640A0046696C616D65E9
:103770006E742073657474696E67733A0020204D0F
:103780003134392043203B20556E69747320696EB3
:103790002043656C736975730A0020286D6D2900DC
:1037A0002020473231202020203B20556E69747341
:1037B00020696E206D6D006F70656E005452494730
:1037C00047455245440066696C616D656E74007AC8
:1037D0005F70726F6265007A325F6D696E007A5F4A
:1037E0006D696E00795F6D696E00785F6D696E005E
:1037F0005265706F7274696E6720656E6473746F62
:1038000070207374617475730A0020627974657333
:103810003B2063726320004E6F20454550524F4D50
:103820002E0A00454550524F4D2064617461736902
:103830007A65206572726F722E0A002073746F723F
:1038400065642073657474696E6773207265747241
:103850006965766564202800202863616C63756C57
:103860006174656429210A0020213D2000454550EE
:10387000524F4D20435243206D69736D61746368EC
:10388000202D202873746F726564292000496E64AE
:1038900065783A2000204D61726C696E3D5637386C
:1038A000290A00454550524F4D2076657273696F65
:1038B0006E206D69736D61746368202845455052B0
:1038C0004F4D3D00454550524F4D20496E6974693A
:1038D000616C697A65640A0048617264636F64654B
:1038E000642044656661756C742053657474696EF8
:1038F0006773204C6F616465640A003B2000000020
:10390000FA430000FA430000A0400000C842000053
:10391000A0420000A0420000C8430000C843B80B0A
:103920000000B80B00006400000010270000506188
:10393000757365205072696E74005072696E7420E0
:1039400041626F72746564004D323520500A4D3209
:1039500034001502470111241FBECFEFD1E2DEBFB4
:10396000CDBF00E00CBF13E0A0E0B2E0ECE5F4EA6C
:1039700002E00BBF02C007900D92A238B107D9F741
:1039800026E1A2E8B3E001C01D92A53CB207E1F731
:103990001CE1CAEADCE100E006C021970109802FA2
:1039A000FE010F94764EC93AD10780E00807A9F7C7
:1039B0000F9428390D941C520C9400002F923F92C2
:1039C0004F925F926F927F928F929F92AF92BF922F
:1039D000CF92DF92EF92FF920F931F93CF93DF93DB
:1039E000CDB7DEB7A7970FB6F894DEBF0FBECDBF39
:1039F0008FA32091F8112EA311E01093F81180915C
:103A0000AE038D3409F477C3843511F40C948F2EF2
:103A1000873411F00C94B02E2091AC033091AD039B
:103A20002531310511F40C94B22E04F52430310502
:103A30003CF4223031050CF065C037FF3AC057C363
:103A400028303105B1F12CF42430310509F468C077
:103A50004EC32A30310509F4A2C02B30310509F0DC
:103A600046C380E00E94086A0C94B22E2E313105C4
:103A700009F4E2C05CF42C31310509F4AFC00CF05C
:103A8000BDC02B31310509F48FC031C32A35310552
:103A900009F493C12CF42A32310509F448C227C332
:103AA0002B35310509F48DC12C35310509F48EC152
:103AB0001EC38091F207813011F00C94B22E0E9447
:103AC00008598091F215882311F40C94ED2E85E4A9
:103AD0000E94FF74882311F40C94ED2E88E50E9457
:103AE000FF7481110C94ED2E89E50E94FF74811101
:103AF0000C94ED2E8AE50E94FF7481110C94ED2E3A
:103B00000C94BB2E8091F207813011F00C94B22EF0
:103B10002230310509F080E00E94193C0C94B22E4D
:103B200080E50E941677882329F00E94CE726B01EF
:103B30007C0103C0C12CD12C760183E50E9416774D
:103B4000882361F00E94C87420E030E04AE754E422
:103B50000F94EF470F94F24F6B017C010E94589B2A
:103B600080918016811105C060E089E097E00F9494
:103B7000C6340F949E10C60ED71EE81EF91E0F9471
:103B80009E10DC01CB018C199D09AE09BF09B7FD60
:103B900002C00C94B22E80E00E941954F0CF81E054
:103BA0000E94086A0C94B22E0F94661C81110C942A
:103BB000B22E8CE0E2E9F2E0DE01119601900D9266
:103BC0008A95E1F760E070E080E50E947060BE01D8
:103BD0006F5F7F4F0E94F4E10C94B22E8091F6113A
:103BE0008770873011F00C94182F60E08FE40E94EA
:103BF0003E7781110C94B22E0C94182F0F949E10C6
:103C00006093F9117093FA118093FB119093FC115A
:103C10000F94661C81110C94B22E80912608882383
:103C200011F40C94BF2F60E08FE40E943E77811165
:103C30000C94B22E0C94BF2F2091DF0F3091E00F27
:103C40004091E10F5091E20F609172027091730206
:103C500080917402909175020F947F4EAB01BC016C
:103C600088E50E94143269837A838B839C83209138
:103C7000E30F3091E40F4091E50F5091E60F609112
:103C800076027091770280917802909179020F9478
:103C90007F4EAB01BC0189E50E9414326D837E83A7
:103CA0008F839887BE016B5F7F4FCE0101960E9484
:103CB000DE72882311F40C94B22E80E00E94326DE3
:103CC0000E9413A561E085E40E943E7701E021E0B7
:103CD000482FBE016B5F7F4FCE0101960F94011FED
:103CE0006B017C019B01AC010F94715181115FC08C
:103CF00089809A80AB80BC8020E030E0A901C501BA
:103D0000B4010F94894787FF05C027E137EB41E5F0
:103D100058EB04C027E137EB41E558E3C501B40196
:103D20000F947F4EAB01BC018AE693E30E94E153FE
:103D30008D809E80AF80B88420E030E0A901C5016D
:103D4000B4010F94894787FF05C027E137EB41E5B0
:103D500058EB04C027E137EB41E558E3C501B40156
:103D60000F947F4EAB01BC0185E693E30E94E153C3
:103D700020E030E0A901C701B6010F94894787FF11
:103D800005C067E177EB81E598EB04C067E177EB6D
:103D900081E598E3A70196010F947F4EAB01BC012A
:103DA00080E693E30E94E1538AE00E94B8510E94AA
:103DB000FAA40F94B3270C94B22E10928E030C9495
:103DC000B22E8FE080938E030C94B22E8091AB03C1
:103DD000882349F1893009F0A6C056EDA52E52E09E
:103DE000B52E62E7E62E62E0F62ED12C00E010E060
:103DF000F50181915F010E941677882369F00E9486
:103E0000C874F7016083718382839383133011F444
:103E100001E002C0DD24D3941F5FF4E0EF0EF11C3B
:103E2000143031F775C026ED222E22E0322E3DEF00
:103E3000E32E37E0F32E22E732E03DA32CA34DE43E
:103E4000C42E42E1D42E00E010E0F10181911F0167
:103E50000E941677882309F44AC00E94C8742B0177
:103E60003C01133049F0F6012081318142815381B8
:103E70000F947E4E2B013C01ECA1FDA120813181EC
:103E800042815381C301B2010F947E4E4B015C010C
:103E90002DEB37E346E855EB0F94DF5087FD0AC062
:103EA0002DEB37E346E855E3C501B4010F9489478C
:103EB0001816ECF4133051F440927E0250927F02B7
:103EC000609280027092810201E011C0A50194010C
:103ED000F70160817181828193810F947F4EF70198
:103EE0006083718382839383812F0E9488A01F5FE8
:103EF000F4E0EF0EF11C2CA13DA12C5F3F4F3DA340
:103F00002CA334E0C30ED11C143009F09ECF05C0A1
:103F1000DD2019F00F94B12706C0002321F08EE7B1
:103F200092E00E943A9E0F94B3270C94B22E809197
:103F3000F207813011F00C94B22E89E40E941677BA
:103F4000E82E882321F00E94C474082F01C000E0ED
:103F50008AE40E941677F82E882321F00E94C47408
:103F6000182F01C010E0EE2011F0043020F4FF20E3
:103F700041F0143030F082E197E00E94BF510C9480
:103F8000B22E80E1E2E7F2E0A9E0B8E001900D9204
:103F90008A95E1F7EE2019F1602F000F770B880B5F
:103FA000990B0F9490472091E2153091E3154091C1
:103FB000E4155091E5150F94EF4720916A16309162
:103FC0006B1640916C1650916D160F947F4E609356
:103FD000090870930A0880930B0890930C08FF203F
:103FE00019F1612F110F770B880B990B0F949047E4
:103FF0002091E6153091E7154091E8155091E915AB
:104000000F94EF4720916E1630916F164091701605
:10401000509171160F947F4E60930D0870930E08A7
:1040200080930F089093100860E080E50E943E772F
:104030008823C1F1EE20D1F02091DF0F3091E00F05
:104040004091E10F5091E20F6091090870910A08C8
:1040500080910B0890910C080F947E4E6093090894
:1040600070930A0880930B0890930C08FF20D1F0FE
:104070002091E30F3091E40F4091E50F5091E60F4E
:1040800060910D0870910E0880910F0890911008B2
:104090000F947E4E60930D0870930E0880930F0866
:1040A0009093100840E050E0BA0186E40E94143278
:1040B0006B017C0120E030E0A9010F94DF5018165D
:1040C0004CF420E030E040E752E4C701B6010F9421
:1040D000794F03C060E070E0CB0169837A838B8302
:1040E0009C83CE0101960E9433A60C94B22E0F94AD
:1040F0008A190C94B22E8091AC039091AD038B3948
:10410000910509F4D5C50CF031C18335910509F449
:1041100012C60CF09EC08B31910509F450C30CF00F
:1041200053C08531910509F4B8C29CF581319105E0
:1041300009F490C22CF4029708F454C20C948C2E0B
:104140008231910509F4FFC5449711F00C948C2E2F
:104150008CE597E00E94BF518DE393E10E94D3F27A
:104160008BE1EDE3F3E1DE01119601900D928A956A
:10417000E1F760E070E0CE0101960F94AA04CE0151
:1041800001960E943E7E8DE497E00E94BF510C9400
:10419000B22E8831910509F49DC26CF486319105E7
:1041A00009F47FC2479711F00C948C2EE091A9037B
:1041B000F091AA0383C28931910509F4E7C24A97B5
:1041C00009F4EFC20C948C2E8A32910509F444C490
:1041D000ECF48E31910509F44DC37CF48C319105DA
:1041E00009F440C34D9711F00C948C2E809120134C
:1041F0008E7F809320130C94B22E8F31910509F499
:1042000080C3809709F446C30C948C2E8D3491059D
:1042100009F43FC46CF48B34910509F436C48C3432
:10422000910511F00C948C2E0E9496DF0C94B22E06
:104230008135910509F468C58235910511F00C941A
:104240008C2E80918E038F7D806180938E030C94E1
:10425000B22E8037910509F4E1C4E4F58A36910560
:1042600009F45AC4CCF48C35910509F4BCC554F456
:104270008435910509F467C58535910509F490C524
:104280000C948C2E8836910509F407C48936910563
:1042900009F42EC40C948C2E8D36910509F413C4A8
:1042A0007CF48B36910509F456C48C36910511F0D7
:1042B0000C948C2E1092F711109268020C94B22E6E
:1042C0008E36910509F452C48F36910509F461C404
:1042D0000C948C2E8737910509F4CFC63CF58337B3
:1042E000910509F41EC68CF48137910509F49FC429
:1042F0008237910511F00C948C2E0F94DB2285EA05
:1043000092E10E944B870C94B22E8537910509F4F7
:1043100071C68637910511F00C948C2E0091A9037B
:104320001091AA0394E0F12C40E08BC68D379105E3
:1043300009F4E6C48CF48837910509F4A1C68937DD
:10434000910511F00C948C2E10928905109288051D
:104350000F94CB280C94B22E8C38910509F48CC4A0
:104360008139910509F494C60C948C2E8139E1E0D1
:104370009E0711F40C940D2C0CF08DC08F3C910510
:1043800011F40C94CD290CF03FC0883C910509F440
:104390000DC7E4F4863A910509F402C754F4833A50
:1043A000910509F4CEC6843A910509F4E6C60C9449
:1043B0008C2E873A910509F4F6C68E3B910511F0D3
:1043C0000C948C2E0E9483360C94B22E8C3C91055A
:1043D00009F496C754F4893C910509F431C78B3C24
:1043E000910509F46EC70C948C2E8D3C910509F44F
:1043F000B8C78E3C910511F00C948C2E41E6E42E4A
:1044000046E0F42E10E0B0C7823E910511F40C9402
:10441000E72AF4F4833D910511F40C94682A64F4BE
:10442000803D910511F40C94112A813D910511F400
:104430000C945B2A0C948C2E8C3D910511F40C94F9
:104440006B2A8D3D910511F40C94922A0C948C2EBC
:104450008D3221E0920711F40C948A2B6CF4823295
:10446000E1E09E0711F40C94332B8C32914011F44F
:104470000C94752B0C948C2E8F3221E0920711F442
:104480000C940A2C8039914011F00C948C2E0E94CF
:10449000589B0C94B22E873FE1E09E0711F40C94D8
:1044A0008F2D0CF04FC0853A21E0920711F40C9447
:1044B000232C2CF58C39E1E09E0711F40C94192C77
:1044C0007CF4823921E0920711F40C94132C8A3980
:1044D000914011F00C948C2E0E942C510C94B22E11
:1044E0008D39E1E09E0711F40C94582E843A9140E6
:1044F00011F00C948C2E0E9448750C94B22E843FBF
:1045000021E0920711F40C94892D6CF4893AE1E0D2
:104510009E0711F40C94842C8C3A914011F40C9465
:104520002C2D0C948C2E853F21E0920711F40C94D5
:104530008C2D863F914011F00C948C2E0F942D2DD4
:104540000C94B22E8D3BE2E09E0711F40C94442EA5
:104550000CF5883522E0920711F40C94B02D6CF420
:10456000883FE1E09E0711F40C94972D8C30924027
:1045700011F40C94A82D0C948C2E8B3522E092070C
:1045800011F40C94B32D8A39924011F40C942B2E13
:104590000C948C2E803AE3E09E0709F4A4C17CF4CD
:1045A0008E3B22E0920711F40C94472E8335934002
:1045B00011F00C948C2E0E9445390C94B22E883E3A
:1045C000E3E09E0711F40C946F2E893EF3E09F0701
:1045D00011F40C94722E873E934011F00C948C2EA3
:1045E0000C944A2E80E50E941677882329F00E94B9
:1045F000CE726B017C0103C0C12CD12C760183E506
:104600000E941677882361F00E94C87420E030E091
:104610004AE754E40F94EF470F94F24F6B017C018B
:104620000E94589B8091A9039091AA03009721F0C2
:1046300061E00F94403505C060E081E397E00F949E
:10464000C63440E0C701B6010E94F9570F94DB1948
:104650000C94B22E8091AF0384FF02C00C94C22F41
:104660008091B10387FF02C00C94C22F8091B203E6
:10467000837011F00C94C22F60E084E497E00F94F3
:10468000C6345F988A9880910801817080930601F2
:1046900012980E941E510C94B22E0F9419010C9482
:1046A000B22E0F94640080912013877F8093201393
:1046B0000C94B22E803209F41082319680818111DF
:1046C000F9CF60E08091A9039091AA030F94C803E9
:1046D0000C94B22E83E50E941677882321F00E9465
:1046E00090740E944E3884E50E9416778823A9F0C2
:1046F0000E9490746B017C010E9457DFC092CA0E29
:10470000D092CB0EE092CC0EF092CD0ECD28CE28DA
:10471000CF2819F081E0809325128091350F8823EE
:10472000E9F080E090E0A8E4B2E488A399A3AAA30A
:10473000BBA31C8E1D8E1E8E1F8E19821A821B8299
:104740001C8220E0AE01405E5F4FBE01645E7F4F81
:10475000CE0101960E94447E0C94B22E0E945451C8
:10476000882381F00F9475000E9472DF8FEE95E030
:104770000F941A001092B3031092B4031092B50371
:104780001092B6030F94DB190C94B22E8091201373
:1047900082FF03C08B7F809320130E949D5F0C9447
:1047A000B22E8091201383FD02C00C94B22E83E5BB
:1047B0000E94167781110C94E02F0C94B22E83E4A2
:1047C0000E94FF74882319F187E797E00E94BF5188
:1047D00080918414882391F0BE016F5F7F4F81E840
:1047E00094E10E949FF28E010F5F1F4FF8018191AB
:1047F0008F01882339F00E94B851F8CF8DE697E0F9
:104800000E94BF518AE00E94B8510C94B22E809150
:10481000201382FF21C086E897E00E94BF5160917B
:104820001C1370911D1380911E1390911F134AE069
:104830000E94C9528FE20E94B85160911813709182
:10484000191380911A1390911B134AE00E94C952C8
:104850000E94F2530C94B22E88E997E00E94BF5157
:104860000C94B22E8091A9039091AA030F947A031D
:104870000C94B22E8091201383FD02C00C94B22EB2
:104880000F9473198091A9039091AA030F94BE020B
:104890000C94B22E8091201382FD0E94589B80912F
:1048A000201383FD02C00C94B22E60E080E50E94CC
:1048B0003E77182F682F8091A9039091AA030F9437
:1048C000C80383E50E941677882321F00E94907424
:1048D0000E944E380F94750011110C94B22E0E9454
:1048E00072DF0C94B22E2091A9033091AA0390910B
:1048F0002013926090932013C9010F947A030C94B3
:10490000B22E0E9423DF7B018C0120E831E541E0DB
:1049100050E00F94DF4DC9016DE671E00F944E4EEB
:104920004B015C01C801B70120E13EE040E050E0EE
:104930000F94DF4DCA01B90128E130E040E050E0BA
:104940000F94DF4D762E672EC62ED72E9CE3292E90
:10495000312C412C512CC801B701A20191010F94B7
:10496000DF4DF62EE72ECA01B901A20191010F9485
:10497000DF4DCB018E010F5F1F4F8114910499F021
:10498000EF92FF927F936F936F927F92BF92AF925D
:104990009F928F9289EA97E09F938F931F930F9333
:1049A0000F94214713C0A114B104B1F0EF92FF920C
:1049B0007F936F936F927F92BF92AF928DEA97E051
:1049C0009F938F931F930F930F9421470FB6F894E3
:1049D000DEBF0FBECDBF30C0CD2879F0EF92FF9281
:1049E0007F936F936F927F9281EB97E09F938F936A
:1049F0001F930F930F942147E9CF892B69F0EF9212
:104A0000FF927F936F9385EB97E09F938F931F9314
:104A10000F930F942147DACFEF92FF9289EB97E043
:104A20009F938F931F930F930F9421470F900F9095
:104A30000F900F900F900F9060E0C8010F944035D9
:104A40000E94E551B8018DEB97E00E94CE518AE0BB
:104A50000E94B8510C94B22E6DE070E080E50E9487
:104A600023778C0197FF02C00C94B22EE82E60E0F1
:104A700089E40E943E7781110C94E52F802F0F94DA
:104A800003398111C1C50C94E52F0E9472DF0C948B
:104A9000B22E0E94ABDF0C94B22E8091450E83FFA4
:104AA00002C00C94B22E83E50E941677882311F47D
:104AB0000C94B22E0E94C8740F94EB4FCB010E944D
:104AC0001AA80C94B22E8091450E83FF02C00C945C
:104AD000B22E83E50E941677182F81110C94223094
:104AE00082E50E94167781110C9422300C94B22E2C
:104AF0000E94EC59182F87FD0AC084E49CE00E94B4
:104B0000BF51812F0E942AA88AE00E94B8518EA12D
:104B10008093F8110C94A33160E080E50E94327715
:104B200081110C94B22E81E40E94FF74882321F03D
:104B30006091DB0870E002C06FEF70E083E50E94D7
:104B400070608F3F910519F010F08FEF90E0809327
:104B5000DB080C94B22E60E080E50E943277811170
:104B60000C94B22E1092DB080C94B22E8EE40E94AC
:104B70001677882311F40C94B22E0E9490746093DF
:104B80003B0470933C0480933D0490933E040C944A
:104B9000B22E83E50E94FF74882331F060E083E544
:104BA0000E9432778093450E0E94E55185EE97E092
:104BB0000E94BF518091450E882369F18BECE82E4D
:104BC0008BE0F82E00E010E020E08091450E90E0B0
:104BD000A0E0B0E0002E04C0B695A7959795879504
:104BE0000A94D2F780FF0EC0DD24D394D20E222384
:104BF00019F08CE20E94B851F701859194910E94BE
:104C0000BF512D2D0F5F1F4F92E0E90EF11C0530B3
:104C10001105D9F6F7CD81EE97E0F2CD41E060E0E5
:104C200070E08CEE97E00E94E9510C94B22E83E57F
:104C30000E941677882381F00E94A074282F30E00C
:104C40002D33310524F4809300020C94B22E8CE3B2
:104C5000809300020C94B22E0E94E5514091000214
:104C600050E060E070E08AEF97E00E94BD728AE059
:104C70000E94B8510C94B22E8091450E83FF02C061
:104C80000C94B22E83E50E941677882311F40C94BD
:104C9000B22E0E94C8740F94EB4F6837710514F060
:104CA00068E770E070935108609350080C94B22E3E
:104CB00083E50E941677882311F40C94B22E0E948B
:104CC000A074182F90E0CD970CF01CE3109387038D
:104CD0000F949E106B017C01212F30E0A8EEB3E011
:104CE0000F94334EC60ED71EE81EF91EC0928303E2
:104CF000D0928403E0928503F09286030C94B22E46
:104D00000E949D5F0C94B22E0E94C3AA0E94ABDF4A
:104D10000E94699B0E94515160E081E098E00F94ED
:104D2000C63468EE73E080E090E00E9427710E9434
:104D300078510C94B22E80918E038F7E8062809386
:104D40008E030C94B22E83E50E9416778823A1F07F
:104D50000E94C87420E030E04AE754E40F94EF4723
:104D60000F94F24F6093010270930202809303024A
:104D7000909304020C94B22E8091AF0384FF02C082
:104D80000C9464308091B10387FF02C00C946430AE
:104D90008091B203837011F00C9464300C949630BF
:104DA00083E50E94FF74882309F4DCC70F949E10EA
:104DB0006093F9117093FA118093FB119093FC1199
:104DC0000E94C87420E030E04AE754E40F94EF47B3
:104DD0000F94F24F609388037093890380938A0342
:104DE00090938B03BFC70E94EC5987FDBBC790917E
:104DF000AF0394FD04C09091B10397FF0AC016ED74
:104E0000C12E12E0D12E06E4E02E0EE0F02E10E0CE
:104E100009C09091B203937091F7682F81E00E94CE
:104E20000363A0C7F60181916F010E941677882362
:104E300009F46DC0133009F063C00E94C8744B01BF
:104E40005C0120E030E040EA51E40F94894787FF9D
:104E50004EC0A50194016091660E7091670E80911D
:104E6000680E9091690E0F94794F2B013C019B01C4
:104E7000AC016091BF087091C0088091C108909109
:104E8000C2080F94EF476093BF087093C0088093E7
:104E9000C1089093C208A30192016091760E7091AF
:104EA000770E8091780E9091790E0F94EF47609372
:104EB000760E7093770E8093780E9093790E6091B2
:104EC000CF087091D0088091D1089091D2080F94AA
:104ED0008E47A30192010F94EF470F94F24F609316
:104EE000CF087093D0088093D1089093D208809215
:104EF000660E9092670EA092680EB092690E07C07F
:104F00000E94C874F701648B758B868B978B1F5F2B
:104F1000F4E0EF0EF11C143009F084CF0E94349BB2
:104F200021C78AE299E00E94BF5160E08AE199E0DE
:104F30000E941E4160E085E099E00E941E4161E010
:104F400081E590E30E941E4161E08AEF98E00E94B3
:104F50001E4161E08AEE98E00E941E4160E081EE11
:104F600098E00E941E4161E087ED98E00E941E419A
:104F700061E08DEC98E00E941E4161E085EC98E0D4
:104F80000E941E4161E087EB98E00E941E4160E0B4
:104F900089EA98E00E941E4160E08AE998E00E9458
:104FA0001E4160E08CE898E00E941E4160E086E7C8
:104FB00098E00E941E4160E085E698E00E941E4154
:104FC00060E086E598E00E941E4160E081E498E0A0
:104FD0000E941E4160E08EE298E00E941E4160E067
:104FE00081E298E00E941E4160E08DE098E00E941E
:104FF0001E41B8C68091A9039091AA03009709F4B5
:10500000C1CBFC012081222309F4BCCB60E00F94CA
:105010004035A8C6F8018081282F2B7F2134A1F0CC
:105020008035F1F4F801818180538A30C8F4980109
:105030002E5F3F4F89012F5F3F4FF8018081803203
:10504000C9F3915039F70CC02181213349F48134DF
:1050500021F0853461F741E0EACFFF24F394E7CFF4
:1050600041110E94E551FF2021F08EEE99E00E944F
:10507000BF51C8010E94F85375C60F94902872C69C
:1050800081E080938905809388050F94CB286AC6B8
:1050900060E070E083E50E9423778C0111270230E5
:1050A00011053CF00E94E15182EF99E00E94BF514E
:1050B00059C688E40E9416778823A9F00E94C47418
:1050C0008A3A91053CF08530F1E09F072CF084E0AE
:1050D00091E002C08AEA90E0F801EE0FFF1FE65E61
:1050E000F94E9183808386E40E941677882381F0AD
:1050F0000E94C47497FD07C08F3F910529F024F0EA
:105100008FEF90E001C080E0F801EC5EF94E808303
:1051100082E40E941677882309F424C60E94C4748E
:10512000F801EE0FFF1FEA5EF94E8937910514F082
:1051300088E790E097FF02C080E090E09183808351
:1051400011C660E070E083E50E9423778C01833014
:1051500091056CF460E070E080E50E9423771127F0
:10516000F801ED5FF04F80830E946666FBC54197B2
:105170000CF4F8C50E94F969F5C56FEF7FEF83E580
:105180000E94237797FD07C0803191050CF0EAC596
:105190000E949C69E7C5809122090E949C69E2C532
:1051A0000E943C61DFC50E948360DCC50E94EC590F
:1051B000182F87FDD7C584E40E94FF748823E9F186
:1051C0000E94C8746B017C0101E020E030E0A9017D
:1051D0000F948947811101C000E000931D0820E071
:1051E00030E0A901C701B6010F948947882329F14E
:1051F00024E01202F0011124EE5DF74FC082D1824B
:10520000E282F38220E030E0A901609122087091EF
:10521000230880912408909125080F9489478111D3
:105220000CC080E090E0A0EEBFE380932208909352
:105230002308A0932408B09325080E948C9992C556
:105240000E94EC5987FD8EC566EDC62E62E0D62E13
:1052500076E4E72E7EE0F72E10E0F60181916F01F3
:105260000E94FF74882331F10E94C8746C8F7D8F77
:105270008E8F9F8F80E1EEE9F2E0DE0111960190C2
:105280000D928A95E1F79E012F5F3F4F48E750E36B
:10529000612FCE014C960E94249A6C8D7D8D8E8D4F
:1052A0009F8D0F94F24FF701608371838283938304
:1052B0000E94ED9A1F5FF4E0EF0EF11C143069F6C6
:1052C00051C50E94EC5987FD4DC556EDE52E52E0C3
:1052D000F52E06E41EE0F70181917F010E94FF7424
:1052E000882339F00E94C874F80164A375A386A3CB
:1052F00097A30C5F1F4FFEE006351F0761F732C50D
:105300008091B00387FD15C78091B1038E7009F0BD
:1053100010C740917A0E50917B0E60917C0E709177
:105320007D0E84E19AE00E94E15340917E0E5091FF
:105330007F0E6091800E7091810E82E294E30E9454
:10534000E1534091820E5091830E6091840E7091D2
:10535000850E86E996E30E94E1538AE00E94B851E7
:1053600001C50E943E63FEC488E5810F0E94FF7460
:10537000882351F00E94C874F7016083718382838F
:105380009383812F0E9488A01F5FF4E0EF0EF11C31
:10539000133051F70F94B327E5C483E50E94FF74DF
:1053A000882351F00E94C8746093F3157093F4152C
:1053B0008093F5159093F61586E40E94FF74882378
:1053C00081F00E94C87420E030E040E752E40F947E
:1053D000794F6093F7157093F8158093F9159093B2
:1053E000FA158AE50E94FF74882351F00E94C87460
:1053F0006093FB157093FC158093FD159093FE153B
:1054000087E50E94FF74882309F4ACC40E94C87425
:1054100060930716709308168093091690930A16E6
:10542000A1C483E50E94FF74882351F00E94C874D0
:105430006093FF15709300168093011690930216E7
:1054400086E40E94FF74882381F00E94C87420E0E3
:1054500030E040E752E40F94794F60930316709365
:105460000416809305169093061682E50E94FF7439
:10547000882381F00E94C87420E030E040E752E4C5
:105480000F94794F60930F16709310168093111636
:105490009093121687E50E94FF74882309F462C472
:1054A0000E94C87460930B1670930C1680930D16AF
:1054B00090930E1657C483E50E94FF74882309F465
:1054C00051C40E94B4748093F2150E94A1584AC43A
:1054D0000E941B6247C483E50E941677882331F03F
:1054E0000E94C47490933F0280933E028091AF0368
:1054F0009091B003A091B103B091B203892B8A2B94
:105500008B2B09F02FC460913E0270913F0284E220
:105510009AE00E945F5385E20E94B8518AE00E949F
:10552000B85120C40E94EC59F82E87FD1BC483E5B6
:105530000E9416770F2D0F2C000C110B882361F1A0
:105540000E94C474F801EE0FFF1FE05CFD4F9183D1
:105550008083000F111F000F111F9801275A3D4F24
:105560007901BC01990F880B990B0F9490472AE0A1
:1055700037ED43E25CE30F94EF47F801E25EF74F4B
:1055800020813181428153810F94EF47F70160837D
:10559000718382839383E6C30E94E55185E40E9470
:1055A000B85180E38F0D0E94B851F801EE0FFF1F34
:1055B000E05CFD4F6081718188E29AE00E945F5358
:1055C00085E20E94B8518AE00E94B851CBC380E5C1
:1055D0000E94FF74882309F4C5C360E070E080E591
:1055E0000E942377F82E6FEF7FEF83E50E942377E9
:1055F0008C010196039708F0B5C3F7FCB3C38F2D58
:105600000F940339882339F00E94E15180E39AE036
:105610000E94BF51A7C30E94589B60E08F2D0F943A
:105620005F0F0F3FFFEF1F0731F00130110571F0E1
:1056300000E010E00DC08F2D0F94EF4031E020E02E
:10564000892B09F030E0032F122F02C001E010E097
:105650008F2D0F94EF408017910709F483C380E0EA
:105660000E941954F5CF8AE50E941677811105C072
:1056700083E50E941677882361F10E94C87420E0B8
:1056800030E040E050EC0F94894787FD9DC50E94B3
:10569000C87420E030E040E050E40F94DF5018166A
:1056A0000CF48DC50E94C8742091DE0F26952695B6
:1056B00020FF0FC02091620E3091630E4091640E66
:1056C0005091650E0F94EF470F94EB4FCB010E9462
:1056D00000718091B10387FD7CC58091B203837016
:1056E00009F077C50E94E5513DC364E071E083E5B0
:1056F0000E9470608C0168EE73E080E50E9470602B
:10570000893823E1920710F088E893E1B8010F94FB
:10571000993428C360E085E40E943277811173C018
:1057200080E50E94FF74882351F00E94C874609342
:10573000411270934212809343129093441289E471
:105740000E94FF74882381F00E94C8742CEA35EC13
:1057500047E25EE30F94EF47609345127093461261
:10576000809347129093481284E40E94FF74882328
:1057700081F00E94C8742CEA35EC47E25EE30F9496
:10578000794F6093491270934A1280934B12909311
:105790004C120E94E5514091411250914212609189
:1057A00043127091441289E59AE00E94E1532CEA79
:1057B00035EC47E25EE360914512709146128091AC
:1057C0004712909148120F94794FAB01BC0185E5C7
:1057D0009AE00E94E1532CEA35EC47E25EE36091E7
:1057E000491270914A1280914B1290914C120F9471
:1057F000EF47AB01BC0181E59AE00E94E1538AE0EA
:105800000E94B851AFC20E94E1518FE39AE00E941A
:10581000BF51A8C20E942B32A5C281E00E94F68F20
:105820000F94B3279FC280E00E94F68F0F94B32796
:1058300099C28091AF0383FDD2C48091B103867079
:1058400009F0CDC4F1C46FEF7FEF89E40E942377A4
:10585000082F6FEF7FEF8AE40E942377182F8AE5E5
:105860000E94FF74E82E811105C081E50E94FF743B
:10587000F82E01C0F12C07FD06C017FD04C0E11091
:1058800009C0F11007C00E94E1518EE89AE00E9421
:10589000BF5168C2043010F4143038F00E94E15156
:1058A00082E197E00E94BF515DC2C02E000FDD086B
:1058B000012F110F110B0E94C874CC0CDD1CCC0CF5
:1058C000DD1CFF2071F0F601E00FF11FEE0FFF1F4E
:1058D000EE0FFF1FE25EF94E20813181428153813C
:1058E00003C020E030E0A9010C0D1D1D000F111FA9
:1058F000000F111F025E194E0F947F4EF801608356
:105900007183828393832EC265E9E62E68E0F62ECA
:10591000670118E501E0812F0E94FF748823A1F040
:105920000E94589B80918C0390918D03892B19F0D4
:105930000E94C87403C060E070E0CB01F601608390
:1059400071838283938300E01F5FF4E0CF0ED11C4C
:105950001B3509F786E40E94FF74882371F10E94C9
:10596000589B0E94C8746B017C0120E030E040E845
:105970005FE30F94DF5018166CF020E030E0A901CF
:10598000C701B6010F94894787FF0AC0C12CD12CEB
:10599000760106C0C12CD12C50E8E52E5FE3F52E30
:1059A00020E030E04FE753E4C701B6010F94EF4722
:1059B0000F94F24F6093A108D5C1002309F4D2C11E
:1059C0008AE19BE00E94BF518091A108811104C02F
:1059D00083E893E10E94BF5181E19BE00E94BF51A7
:1059E0008091A10824E6829FC001112481589F4F15
:1059F0006FEF70E00F94624E70E080E090E00F94E3
:105A00008E4720E030E048EC52E40F94794FAB0130
:105A1000BC018DEE9AE00E94E15380ED9AE00E9475
:105A2000BF518EEA9AE00E94BF5118E580E20E94C1
:105A3000B851812F0E94B851F70161917191819104
:105A400091917F0142E00E946C538AE00E94B8511C
:105A50001F5F1B3559F786C10F94661C811182C1E7
:105A600003EA15E222E732E03DA32CA3CE01019622
:105A70001C0146EDC42E45E2D42E7C01F80165914F
:105A8000759185919491ECA1FDA181909190A19047
:105A9000B190FDA3ECA3A50194010F947E4E2B01C0
:105AA0003C01F701608371838283938320E030E0BF
:105AB00040EA51EC0F94DF5087FD0AC020E030E04F
:105AC00040EA51E4C301B2010F94894718162CF43F
:105AD000F601849118160CF4C1C3F70181909190DE
