:100000000C94601C0C94911C0C94911C0C94911CED
:100010000C94911C0C94911C0C94911C0C94911CAC
:100020000C94911C0C94911C0C94911C0C94911C9C
:100030000C94911C0C94499E0C94911C0C94911C52
:100040000C94911C0D9496010C94911C0C94911C91
:100050000C94911C0C94911C0C94C1C00C94FF9DA9
:100060000C94911C0C94D13B0C94C73B0C94911CA8
:100070000C94911C0C94911C0C94911C0C94911C4C
:100080000C94AB340C94911C0C94911C0C94911C0A
:100090000C94911C0C94911C0C94911C0C94911C2C
:1000A0000C94911C0C94911C0C947D340C94911C18
:1000B0000C94911C0C94911C0C94911C0C94911C0C
:1000C0000C94911C0C94911C0C94911C0C94911CFC
:1000D0000C94911C0C94911C0C94911C0C94911CEC
:1000E0000C94911C433948394D3957396139DA3903
:1000F0006B3973397B3985398F399939A839B239D8
:10010000DA39BC39C639D039F4A901AA16AA23AA0A
:1001100040AA55AA62AA73AA84AA9DAAB6AACFAA7F
:10012000E8AA05AB22ABF3013F012D0205012D0228
:100130002D022D022D022D022D022D022D022D0247
:100140002D022D022D022D022D022D022D022D0237
:100150002D022D022D022D022D022D022D022D0227
:100160002D02B3022D022D022D022D022D022D0291
:100170002D022D021F012D022D022D022D022D0216
:100180002D022D022D022D022D02C5012502350260
:100190006D011B02BF02E1010701A702F10003028A
:1001A000610227013F02FF0031028902470171020B
:1001B0000101550247025102F701C301FD01DF01B0
:1001C00053020101D30137011D010C94E1FA0C9493
:1001D00043FB0C94F9910C94F88D0D9459130C94E5
:1001E000B5BB0D9424220C94BC390C9441BE0C94E4
:1001F000F3840C9491500C9473390C9425620D94F3
:10020000412A0D947B2A0C941E7A0D94ED150D94C1
:1002100015220C94A1470C948F980C94F38D0C9498
:10022000DB990C94A6FA0D9467440C9427850C94E2
:1002300040AA0C94D9990C94A8390D94762A0D945F
:10024000C0150C94958D0C94B9850C9422AB0D942B
:100250001E220C9461390C9467FA0C9454FA0C9495
:1002600062900C947F6B0C94A18D0C94E88D0D948E
:10027000722A0C947B390C947A870C9473470D94F2
:10028000CF130C9493FA0C942C890C9428BE0D94E3
:10029000372A0C9405AB0C94225F0C944F720C948B
:1002A00072730C94E28D0C94B9BB0C944D390C9480
:1002B000F4A90C94DD600C947CFC0C94B1BB0C9400
:1002C000F2630C9455FB0C945EFC0C9425FB0C948F
:1002D00057390C94D68D0C9462AA0D9409220C9473
:1002E00023AA0C945C470C948F720C9431B70C9435
:1002F00000960C9439FA0C94A59D0C946A600C94A9
:100300004AB70C94165F0C941A970C9443FC0C9407
:100310001CBE0C94433C0C94F0FA0C942BFB0C94F4
:1003200091B90C94A4BC0C94DA390C94D3990C9424
:10033000BC900C94028E0C94C6390C9499390C9490
:10034000A78D0C94A5900C948B720C9449FB0C9483
:100350000A860C94EDB80C9443390C94B6AA0C940C
:10036000A1BB0C9453B70C9401AA0C9473900C94F9
:100370009EFB0C94D0390C9484AA0C94B2390C9442
:1003800011FB0C94F6FE0D945A2A0D9404160C944D
:10039000D8FA0C941EB70C943BBE0C9418970C948E
:1003A00029600C9431FB0D946E2A0C947AFA0C940B
:1003B000A5BB0C94AD8D0C9434FC0C9499BB0D949E
:1003C000642A0D9412220C948A470C94CF9D0C94AD
:1003D0008F390C943DFB0C94B4910C94EEF90C9471
:1003E00085390C945D900D94B1150C9447BE0D9415
:1003F000562A0C9416AA0C945A650D94602A0C94F3
:1004000073AA0D947E010D941B220D9485440C94C7
:10041000D94C0C94EE8D0C9437FB0C9492900C9468
:10042000057A0C94F8760C9425FC0C9416970C9491
:100430009B900C94C1BB0D940F220C94183C0C940F
:10044000097A0C9479730C9420FA0D9405140C9489
:10045000F6910C944FFB0C94BFFA0D9408140D9474
:10046000250B0D94442A0C94718D0D9429220C9423
:1004700022730C94574B0D945F130C9467900D945A
:1004800021220C9426600C9483850C94BDBB0D94A2
:100490004C2A0C949DBB0C94838D0C94ACAC0C94A6
:1004A00023600D94522A0D94682A0D94482A0C94C6
:1004B00072720C941C3C0C946B390C94EF850C9468
:1004C000193C0D9436220C94CA8D0C940D7A0C9420
:1004D000A54E0C949DAA0C947B750C94A53C0D9490
:1004E0005C130D943B2A0C940FB80C947FFB0C9476
:1004F0001E970C94FD8D0C945BB70C9432930C9466
:100500006C780C949E850C94CFAA0C94DC8D0C9482
:100510003DC80D94332A0C94A9BB0C9460FB0C9439
:1005200004FC0C94E8AA0C94D7990C941C970C9496
:1005300075850C9458900D94510B0C9407FA0C94FB
:1005400055AA0C94FC8A0C9452FC0C94D5990D94E9
:1005500018220C9489600C948D720C941FFB0C94DF
:100560004E720C947B720D94E7150C9419FB0D944C
:100570008D010C9448390C94CC940C946DFC0D9422
:100580000C220C94ADBB0C94FC910C94A17C0C94AB
:10059000D4850C94D08D4E414E494E495459494E04
:1005A00046CDCCCC3D0AD7233C17B7D13877CC2BDE
:1005B000329595E6241FB14F0A000020410000C883
:1005C0004200401C4620BCBE4CCA1B0E5AAEC59D04
:1005D0007400407A10F35A00A0724E18090010A55A
:1005E000D4E80000E87648170000E40B540200004D
:1005F000CA9A3B000000E1F50500008096980000D3
:100600000040420F000000A08601000000102700FB
:10061000000000E803000000006400000000000A81
:1006200000000000000100000000002C76D888DCEB
:10063000674F0823DFC1DFAE59E1B1B796E5E3E4C8
:1006400053C63AE651997696E8E6C28426EB898C41
:100650009B62ED407C6FFCEFBC9C9F40F2BAA56FA3
:10066000A5F490055A2AF75C936B6CF9676DC11B72
:10067000FCE0E40D47FEF520E6B500D0ED902E033A
:1006800000943577050080841E080000204E0A0083
:100690000000C80C333333330F986E12831141EFCF
:1006A0008D2114893BE65516CFFEE6DB18D1844B2D
:1006B000381BF77C1D901DA4BBE424203284725E9D
:1006C000228100C9F124ECA1E53D27434F4D4D5552
:1006D0004E49434154494F4E0044525952554E00E1
:1006E0004552524F525300494E464F004543484FE2
:1006F00000536C6565702E2E2E004D65736820705A
:100700006F696E74206F7574206F662072616E67FA
:10071000650A00436C69636B20746F2052657375C2
:100720006D652E2E2E004E6F204D6F76652E004586
:100730006E642066696C65206C6973740A0042659A
:1007400067696E2066696C65206C6973740A004E77
:100750006F206D656469610A00286E6F2066696CA0
:1007600065290043757272656E742066696C653A1E
:1007700020005344207072696E74696E672062793C
:10078000746520004E6F74205344207072696E743B
:10079000696E670A002569792025696420256968E2
:1007A0002025696D20256973005072696E7420746C
:1007B000696D653A200045202553006F6666004448
:1007C000454255473A004D313132205368757464C3
:1007D0006F776E004D3131332053005A38545F4DDE
:1007E00033204F46462E004348414D4245525F5408
:1007F000454D50455241545552450042414259538E
:1008000054455050494E470041524353004D4F54B8
:10081000494F4E5F4D4F44455300544845524D415A
:100820004C5F50524F54454354494F4E004C4F4E2D
:10083000475F46494C454E414D45004155544F5246
:1008400045504F52545F53445F53544154555300E5
:100850005344434152440050524F4D50545F5355FE
:1008600050504F525400454D455247454E43595FF5
:1008700050415253455200434153455F4C4947480C
:10088000545F4252494748544E45535300544F47D2
:10089000474C455F4C494748545300534F465457C3
:1008A0004152455F504F574552004255494C445FB5
:1008B00050455243454E54004C4556454C494E47D1
:1008C0005F44415441005A5F50524F4245005255D7
:1008D0004E4F5554004155544F4C4556454C0050D1
:1008E00052494E545F4A4F420050524F475245536F
:1008F00053004155544F5245504F52545F54454D4B
:100900005000564F4C554D45545249430042494EB4
:100910004152595F46494C455F5452414E534645FA
:10092000520053455249414C5F584F4E5F584F4615
:1009300046004649524D574152455F4E414D453A5A
:100940004D61726C696E206D61726C696E2D322E14
:10095000302E3820284E6F76203130203230323021
:100960002031303A33333A30302920534F555243F7
:10097000455F434F44455F55524C3A6874747073F9
:100980003A2F2F6769746875622E636F6D2F4D6102
:10099000726C696E4669726D776172652F4D617216
:1009A0006C696E2050524F544F434F4C5F56455226
:1009B00053494F4E3A312E30204D414348494E4520
:1009C0005F545950453A5A38545F4D332045585476
:1009D00052554445525F434F554E543A3120555578
:1009E00049443A63656465326132662D343161325F
:1009F0002D343734382D396231322D633535633635
:100A0000326633363766660A002F2F20004D3134A8
:100A10003520533C696E6465783E206F7574206F95
:100A2000662072616E67652028302D31290A0041E9
:100A30006363656C65726174696F6E3A205000463D
:100A4000523A0020466C6F773A2000205365727648
:100A50006F200020643A0020693A0020703A004973
:100A60006E76616C69642065787472756465720A6B
:100A70000046696C616D656E742072756E6F757479
:100A80002064697374616E636520286D6D293A2056
:100A90000046696C616D656E742072756E6F757459
:100AA00020004D34323120696E636F727265637459
:100AB00020706172616D6574657220757361676520
:100AC0000A004F666673657473204170706C6965C7
:100AD00064004572723A20546F6F20666172210083
:100AE000546F6F206661722066726F6D207265664A
:100AF0006572656E636520706F696E740A004545A6
:100B000050524F4D204F4B0A00205A323A00447544
:100B1000616C20456E6473746F702041646A7573F4
:100B2000746D656E7420286D6D293A2000506F77C2
:100B300065722D6C6F7373207265636F7665727961
:100B40002000446F6E65207072696E74696E672054
:100B500066696C650A004D3737004D333100EC068D
:100B6000E706E006D906CB064572726F72207772EF
:100B70006974696E6720746F20454550524F4D214E
:100B80000A004D323930004D343130004D313132B0
:100B9000004D313038004E6F20436865636B7375CC
:100BA0006D2077697468206C696E65206E756D6262
:100BB00065722C204C617374204C696E653A20007C
:100BC000636865636B73756D206D69736D617463C4
:100BD000682C204C617374204C696E653A20004C7F
:100BE000696E65204E756D626572206973206E6F47
:100BF00074204C617374204C696E65204E756D6273
:100C000065722B312C204C617374204C696E653AEF
:100C100020004D31313000534420726561642065FD
:100C200072726F720A002121204B494C4C20636183
:100C300075736564206279204B494C4C2062757451
:100C4000746F6E2F70696E0A002121204B494C4C45
:100C50002063617573656420627920746F6F206D05
:100C600075636820696E6163746976652074696D67
:100C700065202D2063757272656E7420636F6D6DD3
:100C8000616E643A2000627573793A207061757301
:100C9000656420666F7220696E7075740A006275F3
:100CA00073793A2070617573656420666F72207580
:100CB0007365720A00627573793A2070726F6365AA
:100CC0007373696E670A004D656469612052656DD2
:100CD0006F766564004D6564696120496E73657265
:100CE000746564004D3130303053004D3630302063
:100CF0005431370042656420436F6F6C696E672E14
:100D00002E2E004265642048656174696E672E2E40
:100D10002E0023646566696E652044454641554C46
:100D2000545F004B6420004B6920004B7020005042
:100D30004944204175746F74756E652066696E69EB
:100D400073686564212050757420746865206C6137
:100D50007374204B702C204B6920616E64204B64AF
:100D600020636F6E7374616E74732066726F6D2092
:100D700062656C6F7720696E746F20436F6E666971
:100D80006775726174696F6E2E680A00504944205D
:100D90004175746F74756E65206661696C65642158
:100DA0002074696D656F75740A000A20436C617365
:100DB00073696320504944200A00204B643A2000A4
:100DC000204B693A2000204B703A20002054753A9D
:100DD0002000204B753A2000206D61783A200020D9
:100DE0006D696E3A200020643A20002062696173C8
:100DF0003A2000504944204175746F74756E652027
:100E000073746172740A00504944204175746F74A0
:100E1000756E65206661696C6564212054656D702E
:100E20006572617475726520746F6F206869676898
:100E30000A00504944204175746F74756E65005006
:100E40004944204175746F74756E65206661696CE4
:100E500065642120426164206578747275646572EE
:100E6000206E756D6265720A004572723A20757463
:100E7000663820666F6E74206E6F7420696E6974B8
:100E800069616C697A65642E00000C0F00FE070230
:100E90002503BB017FFE08FE08FE050808060000CA
:100EA00040F0C88888987810050808060000C0F847
:100EB0008888888888F80505050600012030F83004
:100EC000200508080600002070F820202020E005FA
:100ED00009090600FF2070A8A8B8888870200705B7
:100EE00005070001D86C366CD80509090600FFF823
:100EF000A88888888888A8F8050A0A0600FE205075
:100F000050505088A8A8887003030306000340A02F
:100F100040FFFFFFFFFFFFFFFFFFFFFFFFFFFFFFA0
:100F2000FFFFFFFFFFFFFF0000000605FF010707AF
:100F30000602008080808080008003030306010594
:100F4000A0A0A005060606000050F85050F8500575
:100F500009090600FF2070A8A07028A870200507C6
:100F600007060000C8C8102040989805070706002B
:100F70000040A0A040A890680103030602058080FD
:100F8000800309090601FF20404080808040402006
:100F90000309090601FF80404020202040408005D1
:100FA000070706000020A8702070A8200505050688
:100FB00000012020F820200203030601FFC040802A
:100FC000050101060003F8020202060100C0C00587
:100FD000070706000008101020404080050707069C
:100FE0000000708898A8C8887003070706010040B1
:100FF000C040404040E00507070600007088081028
:101000002040F8050707060000F80810300888702F
:1010100005070706000010305090F810100507076C
:10102000060000F880F00808887005070706000031
:10103000304080F0888870050707060000F8081027
:101040001020202005070706000070888870888817
:101050007005070706000070888878081060020590
:1010600005060100C0C000C0C00206060601FFC0A0
:10107000C000C040800305050601012040804020DB
:10108000050303060002F800F803050506010180C8
:1010900040204080050707060000708810202000CF
:1010A000200507070600007088B8A8B880700507FB
:1010B00007060000708888F88888880507070600FA
:1010C00000F04848704848F005070706000070889F
:1010D0008080808870050707060000F0484848486F
:1010E00048F0050707060000F88080F08080F805CA
:1010F0000707060000F88080F0808080050707065B
:1011000000007088808098887005070706000088B6
:101110008888F8888888030707060100E040404077
:101120004040E005070706000038101010109060DE
:101130000507070600008890A0C0A0908805070753
:10114000060000808080808080F805070706000088
:1011500088D8A8888888880507070600008888C876
:10116000A8988888050707060000708888888888FE
:1011700070050707060000F08888F080808005076A
:101180000706000070888888A89068050707060091
:1011900000F08888F0A09088050707060000708896
:1011A0008070088870050707060000F820202020BE
:1011B0002020050707060000888888888888700531
:1011C0000707060000888888885050200507070612
:1011D000000088888888A8A85005070706000088AE
:1011E000885020508888050707060000888850200E
:1011F000202020050707060000F80810204080F88E
:101200000309090601FFE080808080808080E0057E
:101210000707060000804040201010080309090657
:1012200001FFE020202020202020E005030306000D
:10123000052050880501010600FEF803030306019E
:1012400005804020050505060000700878887805AF
:1012500007070600008080F0888888F005050506ED
:101260000000708080887005070706000008087875
:10127000888888780505050600007088F08070056C
:101280000707060000304840E040404005070706D9
:1012900000FE7088888878087005070706000080BF
:1012A00080F0888888880307070601004000C04056
:1012B0004040E00409090601FE1000301010101033
:1012C000906005070706000080808890E090880302
:1012D0000707060100C04040404040E00505050604
:1012E0000000D0A8A8A8A8050505060000B0C88879
:1012F000888805050506000070888888700507073E
:101300000600FEF0888888F080800507070600FE4A
:1013100078888888780808050505060000B0C88028
:10132000808005050506000078807008F005070735
:101330000600002020F820202018050505060000E2
:1013400088888898680505050600008888885020E8
:101350000505050600008888A8A8500505050600B3
:101360000088502050880507070600FE88888850AE
:10137000204080050505060000F8102040F803090C
:10138000090601FF204040408040404020010909FB
:101390000602FF80808080808080808003090906AB
:1013A00001FF80404040204040408005030306008C
:1013B0000248A890FF52756E6F757420446973746B
:1013C000206D6D004C6F6164206D6D00556E6C6F0B
:1013D0006164206D6D0046696C2E204469612E00A9
:1013E0004520696E206D6DC2B3004D3330332055FA
:1013F0003120452569205325690050494420417515
:10140000746F74756E65202A005049442D44202A5B
:10141000005049442D49202A005049442D50202A8B
:10142000005654726176204D696E00566D696E00EB
:10143000566D6178204500566D6178205A00566DD2
:101440006178205900566D61782058000000A0C1D5
:10145000000000000000000000009B4300009B43D0
:101460000000C84353657474696E67732053746FCA
:10147000726564002062797465733B206372632037
:101480000053657474696E67732053746F7265647A
:10149000202800454550524F4D20646174617369A6
:1014A0007A65206572726F722E0A002073746F72F3
:1014B00065642073657474696E67732072657472F5
:1014C0006965766564202800202863616C63756C0B
:1014D0006174656429210A0020213D2000454550A2
:1014E000524F4D20435243206D69736D61746368A0
:1014F000202D202873746F726564292000496E6462
:1015000065783A200044494749504F5453204C6F66
:10151000616465640A0044494749504F5453204C64
:101520006F6164696E670A00204D61726C696E3D7F
:10153000563833290A00454550524F4D2076657282
:1015400073696F6E206D69736D61746368202845DF
:101550004550524F4D3D00436F6E6669677572612D
:1015600074696F6E00526573756D65205072696E97
:10157000740053746F70205072696E74004261631E
:101580006B0053746F70004E6F204D65646961008D
:101590004368616E6765204D65646961004D323155
:1015A0000053776974636820506F776572204F66C7
:1015B00066004D3831004368616E67652046696C8E
:1015C000616D656E740041626F7574205072696E52
:1015D0007465720054756E650050617573652050B6
:1015E00072696E7400496E666F2053637265656E32
:1015F000005374617274205072696E740043616E9E
:101600006E6F7420656E74657220737562646972A2
:101610003A2000022E2E00526576657273652047CF
:1016200072616469656E74002020456E6420562DD9
:10163000746F6F6C00537461727420562D746F6FE9
:101640006C001FE02010201020101020102020100F
:10165000201030300840048003001FE03FF03FF0CE
:101660003FF01FE01FE03FF03FF03FF00FC007806A
:1016700003003FFFF038007030FC3020FC10207871
:10168000102030102C00D02E31D02F7BD02F7BD0CB
:101690002E31D02C00D020301020781020FC1030BB
:1016A000FC303800703FFFF03FFFF03800703186AB
:1016B000302387102787902F87D02F03D02030101A
:1016C0002078102078102030102F03D02F87D027BB
:1016D00087902387103186303800703FFFF01FFF5E
:1016E000F81FFFF8041040020820020820041040F0
:1016F00008208010410010410008208004104000A4
:1017000000001FFFF81FFFF83300CC00CC12004888
:1017100000481200480048120048004813FFCFFF5D
:10172000C810000000081FFF83FFF8000FC7E0008B
:10173000000FEFE0000003EF80000001EF00000069
:10174000006C000000000000002568753A2530326A
:10175000687500256875642025303268753A253033
:101760003268750020202020202020004D383400D1
:101770004175746F20486F6D650054656D706572BA
:1017800061747572650041425300504C41004261E2
:10179000627973746570205A0046616E20537065DB
:1017A0006564004E6F7A7A6C65004D61696E004425
:1017B000697361626C652053746570706572730043
:1017C000486F6D65205A004732385A00486F6D6582
:1017D0002059004732385900486F6D65205800473E
:1017E000323858004732380050726568656174209D
:1017F0002420456E64005072656865617420242061
:1018000042656400436F6F6C646F776E0050726561
:1018100068656174202400546F74616C00466C6FBD
:1018200077008A1786175072696E742041626F7252
:10183000746564004D323520500A4D3234005061D9
:101840007573696E672E2E2E006F70656E00545290
:10185000494747455245440066696C616D656E7441
:10186000007A5F70726F6265007A325F6D696E0038
:101870007A5F6D696E00795F6D696E00785F6D6982
:101880006E005265706F7274696E6720656E647366
:10189000746F70207374617475730A004C6F6164A7
:1018A0002053657474696E67730053746F7265209A
:1018B00053657474696E67730050726F6265205A65
:1018C000204F666673657400416476616E6365647B
:1018D0002053657474696E67730053746F770044A6
:1018E00065706C6F790053656C662D546573740078
:1018F00053572D4D6F646500556E72657472616348
:1019000074205600556E726574722E206D6D0048FD
:101910006F70206D6D0052657472616374205600A3
:1019200052657472616374206D6D004175746F2D22
:101930005265747261637400526573746F726520CE
:1019400044656661756C7473005072656865617496
:10195000202420436F6E6600424C546F756368000C
:101960004D69786572003F0043616E63656C004DA0
:101970006F74696F6E002020456E64205A3A00250E
:1019800034642E2564206D6D005374617274205A86
:101990003A004379636C65204D697800436F6D6D43
:1019A000697420562D746F6F6C204D697800436FF9
:1019B0006D706F6E656E74203D00562D746F6F6C88
:1019C0007320576572652052657365740052616EAD
:1019D000646F6D204D6978003A64697361626C656B
:1019E000003A20656E61626C6500477261646965EA
:1019F0006E744D697800526573657420562D746F4E
:101A00006F6C730041637469766520562D746F6F37
:101A10006C00416D6178204500416D6178205A006D
:101A2000416D6178205900416D6178205800412D49
:101A300054726176656C00412D52657472616374F5
:101A400000416363656C0056652D4A65726B0056F4
:101A50005A2D4A65726B0056592D4A65726B0056B5
:101A6000582D4A65726B0050726F62652059204F85
:101A700066667365740050726F62652058204F6609
:101A80006673657400452073746570732F6D6D0007
:101A90005A2053746570732F6D6D0059205374650F
:101AA00070732F6D6D00582053746570732F6D6DBA
:101AB0000002000000000000000000000000000024
:101AC0000000000000000000000000000000000016
:101AD0000000000000000000000000000000000006
:101AE000000007FFC3FF870187FF0FFCFFFC1E01FB
:101AF000FF8007FFC3FF87018FFF1FFCFFFC1E0352
:101B0000FFC00000C600C7018C00180003006183FD
:101B100000C00001C600C7C18C001800030061832B
:101B200000C000038600C6C18C001800030180635A
:101B300000C000070600C6618C0018000301806326
:101B400000C0000E0600C6618C001800030180630F
:101B500000C0001C0600C6318FFE1FF80301806321
:101B6000FFC000380600C6318FFE0FFC0301806302
:101B7000FF8000700600C6198C00000C0301FFE313
:101B80000C0000E00600C6198C00000C0301FFE306
:101B9000070001C00600C60D8C00000C0301806325
:101BA000018003800600C60D8C00000C03018063D9
:101BB000018007000600C6078C00000C030180634B
:101BC000018006000600C6078C00000C030180633C
:101BD000018007FFC3FF86038FFF1FFC03018063A3
:101BE000018007FFC3FF860387FF1FF8030180639F
:101BF0000180000000000000000000000000000064
:101C000000000000000000000000000000000000D4
:101C100000000000000000000000000000000000C4
:101C200000000000000000000000000000000000B4
:101C30000000F0004A0110013B0130012C0140017D
:101C400027015001220170011D0190011801B0010E
:101C50001301C0010E01F00109011002040130025C
:101C6000FF006002FA009002F500C002F0000003DD
:101C7000EB004003E6008003E100D003DC00200419
:101C8000D700E004D200C005CD004006C800D00651
:101C9000C3008007BE00F008B9004009B400C009C5
:101CA000AF00B00AAA00B00BA500D00CA000000E37
:101CB0009B00C01096005012910000148C00C015BB
:101CC0008700B0178200B0197D00D01B7800001E7D
:101CD000730040206E0090226900F02464004027C9
:101CE0005F0090295A00E02B5500102E5000203044
:101CF0004B0010324600E033410090353C00103775
:101D0000370070383200A0392D00B03A2800A03BCF
:101D10002300603C1E00103D1900903D1400103E51
:101D20000F00703E0A00C03E0500003F0000403F2B
:101D3000FBFF803FF6FFC03FF1FF2020506C616E3B
:101D40006E657242756666657242797465733A2093
:101D5000002046726565204D656D6F72793A2000EE
:101D6000436F6D70696C65643A204E6F7620313038
:101D700020323032300A00204C6173742055706478
:101D8000617465643A20323032302D31312D303972
:101D9000207C20417574686F723A20285A4F4E4556
:101DA000535441522C2048616C6C79290A006D61B2
:101DB000726C696E2D322E302E380A004D61726CB5
:101DC000696E0020536F6674776172652052657387
:101DD00065740A00205761746368646F67205265F8
:101DE0007365740A002042726F776E206F757420DD
:101DF00052657365740A002045787465726E616C73
:101E00002052657365740A00506F77657255700AC9
:101E1000006175746F25632E67004732385859008A
:101E20004D31303031006572726F72207772697493
:101E3000696E6720746F2066696C650A00446F6E76
:101E40006520736176696E672066696C652E0A008D
:101E50004D323900456E6473746F707300255320E2
:101E600025632025632025632025630020503A0048
:101E7000656E6473746F7073206869743A20007CB7
:101E80003C3E5E2B3D3F2F5B5D3B2C2A225C00508D
:101E90006C65617365205265736574005052494EDC
:101EA0005445522048414C5445440025533A20257E
:101EB00053004B494C4C45442E20005072696E74BF
:101EC00065722068616C7465642E206B696C6C2887
:101ED000292063616C6C6564210A006563686F3A50
:101EE000004572726F723A0042696C696E65617288
:101EF000204C6576656C696E6720477269643A0AA2
:101F00000053544F505045442E20005072696E7457
:101F100065722073746F70706564206475652074D9
:101F20006F206572726F72732E2046697820746814
:101F300065206572726F7220616E64207573652012
:101F40004D39393920746F20726573746172742E43
:101F5000202854656D7065726174757265206973AF
:101F60002072657365742E20536574206974206136
:101F7000667465722072657374617274696E672924
:101F80000A0021212053544F502063616C6C65641A
:101F90002062656361757365206F6620424C546FE3
:101FA000756368206572726F72202D20726573747C
:101FB0006172742077697468204D3939390A004F8D
:101FC0006E0052756E6F75742053656E736F72007C
:101FD000554E4C4F41442046494C414D454E5400CE
:101FE00046494C414D454E54204348414E474500DB
:101FF000506F776572204F7574616765004D36309C
:102000003020423020542569004D3730312054258E
:1020100069004D3730322054256900556E6C6F6170
:10202000642046696C616D656E74202A00556E6C83
:102030006F616420416C6C004D373032004C6F6131
:10204000642046696C616D656E74202A0043686186
:102050006E67652046696C616D656E74202A00505C
:1020600075726765206D6F726500436F6E74696E7F
:10207000756500524553554D45204F5054494F4EBC
:10208000533A005052494E54205041555345440054
:1020900020204E6F7A7A6C653A200052756E617717
:1020A00061792057617463683A204F4646003133A6
:1020B00030004245443A203130306B2077697468F3
:1020C00020342E376B2070756C6C2D757000527536
:1020D0006E617761792057617463683A204F4E00D2
:1020E0004D61782054656D7000323735004D696E52
:1020F0002054656D700045313A203130306B2077C7
:1021000069746820342E376B2070756C6C2D757077
:10211000005053550047656E657269630050726FD9
:10212000746F636F6C00312E300042617564003152
:1021300031353230300068747470733A2F2F7777EE
:10214000772E616C69657870726573732E636F6D3D
:102150002F6974656D2F3332393635343036333963
:10216000362E68746D6C005A4F4E455354415220C0
:102170005A5249425F5636003344544F5543482023
:1021800053454E534F52004475616C205A20454EC2
:102190004453544F50004455414C205A2044524916
:1021A00056455200544954414E20455854525544C6
:1021B00045520042696C696E656172204C657665B6
:1021C0006C696E6700457874727564657273007728
:1021D00077772E7A6F6E657374617233642E636FD6
:1021E0006D005A38545F4D3300323032302D31316A
:1021F0002D3039006D61726C696E2D322E302E38A3
:102200000056312E372E3300546865726D69737431
:102210006F727300426F61726420496E666F005086
:1022200072696E74657220496E666F004D31303090
:1022300030005061726B696E672E2E2E00000057C1
:1022400061697420666F720066696C616D656E7499
:10225000206368616E676500746F207374617274C7
:10226000005761697420666F720066696C616D6504
:102270006E7420756E6C6F616400004E6F7A7A6CBC
:10228000652068656174696E6700506C656173658F
:1022900020776169742E2E2E0000507265737320B2
:1022A000627574746F6E00746F2068656174206E5F
:1022B0006F7A7A6C650000496E7365727420666986
:1022C0006C616D656E7400616E642070726573730D
:1022D00020627574746F6E00746F20636F6E746922
:1022E0006E7565005761697420666F720066696C6F
:1022F000616D656E74206C6F61640000507265736F
:102300007320427574746F6E00746F2072657375FC
:102310006D65207072696E74000057616974206683
:102320006F72207072696E7400746F2072657375BD
:102330006D652E2E2E00005761697420666F720045
:1023400066696C616D656E742070757267650000FA
:1023500020436F756E7420583A0045310062656401
:10236000002C2073797374656D2073746F707065C1
:102370006421204865617465725F49443A200054C5
:102380004845524D414C2052554E415741590054F9
:102390006865726D616C2052756E61776179004875
:1023A000656174696E67204661696C6564004865A3
:1023B0006174696E67206661696C656400202D2018
:1023C000496E76616C6964206578747275646572B3
:1023D000206E756D62657220210A004572723A2086
:1023E0004D415854454D50004D415854454D502095
:1023F000747269676765726564004572723A204D50
:10240000494E54454D50004D494E54454D50207451
:10241000726967676572656400202F002042403A48
:102420000020403A00001000AA0380004001000193
:102430002C01B001220140021001F00202018003D0
:10244000F8004004F500E004ED009005E4003006DB
:10245000DD00E006D7008007D1003008CC00D008AE
:10246000C7007009C300100ABE00B00ABB00500BC1
:10247000B700900CB300D00DAA00B00FA50050100B
:10248000A000101496009016900010198C00501A9D
:102490008500301C820070227800B0237500402532
:1024A0006E0020276900A0296400502A5F00902B4D
:1024B0005A00D02C5500702D4F00E02E48005031AE
:1024C000450030334100D0353900603637001037D1
:1024D0003300F0382D00A0392700803C1C00403D1F
:1024E0001700F03D1100703E0A00C03E0500003F9D
:1024F0000000403FFBFF803FF6FFC03FF1FF576108
:10250000726E696E673A20486F6D696E672042751A
:102510006D702044697669736F72203C20310A0027
:10252000206C696D6974656420746F2000204D61B2
:10253000782000000048420000484200008040022D
:1025400002040000A0400000A04000000040000085
:10255000A54300009B430000C843FFFFFF20204D20
:1025600061783A200020204D696E3A2000536F6652
:102570007420656E6473746F70733A2000252900AF
:10258000257C00203B2043757272656E74205A00D2
:10259000203B20456E6400203B2053746172740020
:1025A0004772616469656E74204D697820005261DC
:1025B0006E646F6D204D697820004D3234205325B4
:1025C0006C642054256C64004739322E392045252F
:1025D0007300473120462564004739322E39205A8E
:1025E0002573004731205A302046323030004731C1
:1025F000205825732059257320463330303000474A
:1026000031204525642046323030004D31303620AF
:1026100050256920532569004D31303920532569F3
:10262000004D31393020532569004D32303020447F
:1026300025730047323852305859004739322E3905
:10264000204530205A300A47315A2573004D343224
:1026500030205330205A300020496E76616C696416
:10266000206578747275646572200020496E766109
:102670006C69642045207374657070657220002059
:10268000452073746570706572206E6F742073706E
:10269000656369666965640A004F46460A004661DB
:1026A0006465204865696768742000426564204C51
:1026B0006576656C696E6720004661696C656420AB
:1026C000746F20656E61626C6520426564204C65A4
:1026D00076656C696E670A00496E76616C69642084
:1026E0006D6573682E0A0050726F62696E672050C4
:1026F0006F696E740025532025692F25690050727B
:102700006F62696E67206D65736820706F696E74A3
:1027100020004F6666736574206361746368656446
:102720002021006661696C2C206D616E75616C20E2
:102730006C6576656C004661696C21204D6F76652D
:1027400020646F776E2050726F62652E00546F2088
:102750006361746368206F66667365740020284443
:10276000525952554E2900473239204175746F2015
:10277000426564204C6576656C696E67003F202871
:102780004C2C522C462C4229206F7574206F6620E9
:10279000626F756E64732E0A003F28562965726257
:1027A0006F7365206C6576656C20696D706C617502
:1027B0007369626C652028302D34292E0A0042612D
:1027C00064205A2076616C75650A004E6F2062693C
:1027D0006C696E65617220677269640A00204D3908
:1027E0003220580020746F6F206C6F6E6720657800
:1027F00074727573696F6E2070726576656E74653C
:10280000640A00496E6974004D34323800496E69BB
:102810007469616C697A6520454550524F4D00508E
:10282000726F6265204F66667365747300416363FF
:10283000656C65726174696F6E0056656C6F636973
:1028400074790053657420486F6D65204F66667318
:10285000657473004E65787420436F726E65720004
:10286000446F6E65004E65787400486F6D696E67E1
:102870002058595A00466164652048656967687444
:10288000004C6576656C20426564004732380A4723
:102890003239004361746368205A204F666673655D
:1028A0007400473239204E004C6576656C20436FCA
:1028B000726E6572730024F4D43050C38E20C2A2AD
:1028C0004017828B7011127A910D816CD90AA86120
:1028D000E108C7586607615143061E4B5D05C145B7
:1028E000A7041A411104093D980371393103403698
:1028F000DB0265339102D4305402802E1D02632C1A
:10290000EE01752AC501B028A001102781018F258D
:1029100064012B244B01E0223401AC211F018D20E6
:102920000D01801FFC00841EED00971DDF00B81C08
:10293000D200E61BC600201BBC00641AB200B2190C
:10294000A8000A19A0006A189900D1179100401731
:102950008B00B516840031167E00B31579003A1548
:102960007300C7146F0058146A00EE1366008813D2
:10297000630025135E00C7125B006C12570015122E
:102980005400C111510070114F0021114B00D6109D
:1029900049008D1047004610440002104200C00F4D
:1029A0004000800F3E00420F3C00060F3B00CB0E64
:1029B0003800930E37005C0E3500270E3400F30DFF
:1029C0003200C10D3100900D3000600D2E00320D2F
:1029D0002D00050D2C00D90C2B00AE0C2900850C08
:1029E00029005C0C2700350C27000E0C2600E80B94
:1029F0002400C40B2400A00B23007D0B23005A0BE2
:102A00002100390B2100180B2000F80A1F00D90AF9
:102A10001E00BB0A1E009D0A1D00800A1D00630ADD
:102A20001C00470A1B002C0A1B00110A1A00F70998
:102A30001A00DD091900C4091900AB09190092092F
:102A400017007B091800630917004C0916003609A6
:102A50001600200916000A091500F5081500E008FF
:102A60001400CC081400B8081400A408140090083E
:102A700013007D0812006B08130058081200460866
:102A80001200340811002308110012081100010877
:102A90001100F0071000E0071000D0071000C00779
:102AA0001000B0070F00A107100091070E00830768
:102AB0000F0074070F0065070E0057070E00490747
:102AC0000E003B070D002E070E0020070D00130718
:102AD0000D0006070D00F9060C00ED060D00E006DE
:102AE0000C00D4060C00C8060C00BC060C00B00696
:102AF0000C00A4060B0099060C008D060B00820644
:102B00000B0077060B006C060B0061060A005706E7
:102B10000B004C060A0042060A0038060A002E0680
:102B20000A0024060A001A060A0010060900070611
:102B30000A00FD050900F4050900EB050900E2059E
:102B40000900D9050900D0050900C7050900BE051F
:102B50000900B5050800AD050800A50509009C059C
:102B60000800940508008C050800840508007C0511
:102B70000800740508006C050700650508005D0580
:102B80000700560508004E050700470507004005E9
:102B9000080038050700310507002A05070023054E
:102BA00007001C050600160507000F0507000805AD
:102BB000060002050700FB040600F5040700EE040A
:102BC0000600E8040600E2040700DB040600D50462
:102BD0000600CF040600C9040600C3040600BD04B5
:102BE0000600B7040600B1040500AC040600A60404
:102BF0000600A00405009B0406009504050090044F
:102C000006008A04050085040500800406007A0495
:102C1000050075040500700405006B0405006604DA
:102C20000500610405005C0405005704050052041A
:102C300005004D04050048040500430405003E045A
:102C400004003A04050035040500300404002C0497
:102C5000050027040400230405001E0404001A04D0
:102C6000040016040500110404000D040400090406
:102C700005000404040000040400FC030400F8033D
:102C80000400F4030400F0030400EC030400E80370
:102C90000400E4030400E0030400DC030400D803A0
:102CA0000400D4030400D0030400CC030400C803D0
:102CB0000300C503030024F404D9201BC40C5C0EDC
:102CC0009804C4095F0265077101F405F900FB046B
:102CD000B30048048700C10369005803550003038B
:102CE0004500BE023A008402310053022A00290244
:102CF000250004022000E4011C00C8011900AF01F6
:102D00001700980114008401130071011000610183
:102D1000100051010E0043010D0036010B002B0184
:102D20000B0020010B00150109000C010900030133
:102D30000800FB000800F3000800EB000700E400B7
:102D40000600DE000600D8000600D2000600CC0017
:102D50000500C7000500C2000500BD000400B90061
:102D60000400B5000400B1000400AD000400A90097
:102D70000400A5000300A20003009F0004009B00C4
:102D800003009800030095000200930003009000E8
:102D900003008D0002008B00030088000200860003
:102DA000020084000300810002007F0002007D0019
:102DB00002007B000200790002007700010076002B
:102DC00002007400020072000100710002006F0036
:102DD00002006D0001006C0002006A000100690041
:102DE0000200670001006600010065000100640048
:102DF00002006200010061000100600001005F004C
:102E000002005D0001005C0001005B0001005A004F
:102E10000100590001005800010057000100560050
:102E20000100550001005400010053000000530050
:102E300001005200010051000100500001004F004C
:102E400001004E0000004E0001004D0001004C004A
:102E500001004B0000004B0001004A000100490046
:102E60000100480000004800010047000100460042
:102E7000000046000100450000004500010044003C
:102E80000100430000004300010042000000420036
:102E900001004100000041000100400001003F002E
:102EA00000003F0001003E0000003E0001003D0028
:102EB00000003D0001003C0000003C0000003C0020
:102EC00001003B0000003B0001003A0000003A0016
:102ED000010039000000390001003800000038000E
:102EE0000000380001003700000037000100360004
:102EF00000003600000036000100350000003500FB
:102F000000003500010034000000340000003400EF
:102F100001003300000033000000330001003200E4
:102F200000003200000032000100310000003100DA
:102F300000003100010030000000300000003000CF
:102F400001002F0000002F0000002F0000002F00C4
:102F500001002E0000002E0000002E0001002D00B8
:102F600000002D0000002D0000002D0001002C00AD
:102F700000002C0000002C0000002C0001002B00A1
:102F800000002B0000002B0000002B0001002A0095
:102F900000002A0000002A0000002A000100290089
:102FA000000029000000290000002900000029007D
:102FB0000100280000002800000028000000280070
:102FC0000000280001002700000027000000270063
:102FD0000000270000002700010026000000260056
:102FE0000000260000002600000026000100250049
:102FF000000025000000250000002500000025003D
:10300000000025000100240000002400000024002E
:103010000000240000002400010023000000230021
:103020000000230000002300000023000000230014
:103030000000230001002200000022000000220006
:1030400000002200000022000000220001002100F8
:1030500000002100000021000000210000002100EC
:1030600000002100000021000100200000002000DD
:1030700000002000000020000000200000002000D0
:10308000000020000000200001001F0000001F00C1
:1030900000001F0000001F0000001F0000001F00B4
:1030A00000001F0001001E0000001E0000001E00A6
:1030B00000001E000000A42C0000841E0000B012BE
:1030C0000000870A00009E050000E90200007B0165
:1030D0000000BF0000002053697A653A2000436178
:1030E0006E6E6F74206F70656E20737562646972A6
:1030F0002000534420496E6974204661696C005376
:10310000442063617264206F6B0A006F70656E52B9
:103110006F6F74206661696C65640A00766F6C7508
:103120006D652E696E6974206661696C65640A005C
:103130004E6F20534420636172640A004D32332085
:1031400025730046696C652073656C6563746564FE
:103150000A0046696C65206F70656E65643A2000F0
:10316000454E4420535542524F5554494E450A004E
:103170002220706F73002220706172656E743A2293
:1031800000535542524F5554494E452043414C4CF3
:10319000207461726765743A220053756263616CD2
:1031A0006C204F766572666C6F7700457863656555
:1031B000646564206D617820535542524F555449DF
:1031C0004E452064657074683A310A0044656C6548
:1031D00074696F6E206661696C65642C2046696C49
:1031E000653A200046696C652064656C65746564A9
:1031F0003A006F70656E206661696C65642C2046CC
:10320000696C653A200057726974696E6720746F43
:103210002066696C653A2000667265736800646FA9
:10322000696E67004E6F772000456E636C6F737533
:1032300072650020453A0020593A0000002200251E
:103240000028002B002E0031003400020100000590
:103250000108010B0100002100240027002A002D95
:10326000003000330001010000040107010A0105DC
:10327000050505070508080808020202020A0A08EF
:103280000804040404010101010101010103030315
:103290000303030303040707070C0C0C0C0C0C0CB2
:1032A0000C0202020206060606060606060B0B0BB9
:1032B0000B0B0B0B0B0102102020080810204010F4
:1032C00020408002010201080402010102040810EA
:1032D0002040808040201008040201800402018008
:1032E0004020100804020108040201010204081031
:1032F0002040800102040810204080205A3A20001B
:1033000020593A200042656420583A2000507269E2
:103310006E74205061757365640050726F62696EDF
:1033200067204661696C65640A0050726F62696E5D
:1033300067204661696C656400486F6D6520257380
:103340002573257320466972737400496E73657224
:10335000742066696C616D656E7420616E642070A6
:103360007265737320627574746F6E0A0020573A29
:10337000005A38545F4D332052656164792E0050F5
:1033800072696E74696E672E2E2E00220A00556EC9
:103390006B6E6F776E20636F6D6D616E643A202285
:1033A000005072696E742066726F6D204D6564699D
:1033B00061004D6F76652025736D6D004D6F7665EC
:1033C00020302E316D6D004D6F766520316D6D00B2
:1033D0004D6F76652031306D6D004D6F7665204103
:1033E000786973004578747275646572004D6F7604
:1033F00065205A004D6F76652059004D6F76652027
:10340000580000000A0B02090C0D0E080703040106
:1034100000000000000000000000000000000000AC
:103420000000000000000000000000000000121179
:10343000100000000000000000000000000000007C
:103440000000000000000000507265737320627578
:1034500074746F6E20746F20726573756D650A00E9
:10346000507265737320627574746F6E20746F2070
:1034700068656174206E6F7A7A6C650A002052006C
:10348000454550524F4D20496E697469616C697AA7
:1034900065640A0048617264636F64656420446512
:1034A0006661756C742053657474696E6773204C23
:1034B0006F616465640A003B200020204D36303384
:1034C000200020204D34313220530046696C616D5C
:1034D000656E742072756E6F75742073656E736F90
:1034E000723A0020550046696C616D656E74206CFF
:1034F0006F61642F756E6C6F6164206C656E6774AC
:1035000068733A0020204D3835312058005A2D502C
:10351000726F6265204F66667365740020204D32BD
:1035200030392053004175746F2D52657472616398
:10353000743A20533D3020746F2064697361626C6B
:10354000652C203120746F20696E7465727072650D
:103550007420452D6F6E6C79206D6F7665732061D8
:103560007320726574726163742F7265636F766520
:10357000720020204D3230382053005265636F7640
:1035800065723A20533C6C656E6774683E20463C19
:10359000756E6974732F6D3E0020570020204D32E8
:1035A0003037205300526574726163743A20533C83
:1035B0006C656E6774683E20463C756E6974732F47
:1035C0006D3E205A3C6C6966743E0020204D3431BB
:1035D00033205300506F7765722D4C6F73732052F8
:1035E00065636F766572793A0020204D3330312063
:1035F00050005049442073657474696E67733A00D3
:1036000020460020480020204D3134352053004D05
:103610006174657269616C20686561747570207091
:103620006172616D65746572733A0020204D3636A3
:103630003600456E6473746F702061646A757374CC
:103640006D656E743A00204A0020204732392057B9
:1036500020490020204D3432302053004175746FD2
:1036600020426564204C6576656C696E673A00207F
:10367000204D323036205800486F6D65206F6666E9
:103680007365743A0020204D323035204200416489
:1036900076616E6365643A20423C6D696E5F736566
:1036A000676D656E745F74696D655F75733E2053F9
:1036B0003C6D696E5F66656564726174653E205439
:1036C0003C6D696E5F74726176656C5F666565649A
:1036D000726174653E20583C6D61785F785F6A6501
:1036E000726B3E20593C6D61785F795F6A65726BE1
:1036F0003E205A3C6D61785F7A5F6A65726B3E204E
:10370000453C6D61785F655F6A65726B3E00205471
:103710000020204D323034205000416363656C65D9
:10372000726174696F6E2028756E6974732F7332BD
:10373000293A20503C7072696E745F616363656CF6
:103740003E20523C726574726163745F61636365AD
:103750006C3E20543C74726176656C5F6163636596
:103760006C3E0020204D3230312058004D61786988
:103770006D756D20416363656C65726174696F6E10
:103780002028756E6974732F7332293A0020204DFA
:103790003230332058004D6178696D756D20666553
:1037A000656472617465732028756E6974732F7314
:1037B000293A0053746570732070657220756E69C4
:1037C000743A0020440020204D3230302053002035
:1037D00044697361626C65640A0046696C616D6579
:1037E0006E742073657474696E67733A0020204D9F
:1037F0003134392043203B20556E69747320696E43
:103800002043656C736975730A0020286D6D29006B
:103810002020473231202020203B20556E697473D0
:1038200020696E206D6D000000FA430000FA43002D
:1038300000A0400000C8420000A0420000A04200DA
:1038400000C8430000C843B80B0000B80B00006478
:10385000000000102700004361703A003F5A206FBB
:103860007574206F662072616E67652028003F596D
:10387000206F7574206F662072616E676520282D39
:10388000003F58206F7574206F662072616E676507
:1038900020282D0050726F6265204F666673657434
:1038A000205800656E7175657565696E6720220028
:1038B0006F6B00526573656E643A20000502130158
:1038C00011241FBECFEFD1E2DEBFCDBF00E00CBFA1
:1038D00013E0A0E0B2E0E6E1FEEA02E00BBF02C0C6
:1038E00007900D92A235B107D9F727E1A2E5B3E021
:1038F00001C01D92AF34B207E1F71CE1CFE5DCE176
:1039000000E006C021970109802FFE010F94615449
:10391000CE35D10780E00807A9F70F94823E0D94B9
:10392000F9560C9400002F923F924F925F926F9243
:103930007F928F929F92AF92BF92CF92DF92EF923F
:10394000FF920F931F93CF93DF93CDB7DEB7A79767
:103950000FB6F894DEBF0FBECDBF8FA320919B148E
:103960002EA321E020939B148091AE168D3409F490
:10397000D0C3843511F40C94A12E873411F00C942B
:10398000CC2E8091AC169091AD168B31910509F437
:1039900063C1F4F488309105D1F14CF497FDB5C3BF
:1039A00082309105A4F1049709F412C1AEC38B30A3
:1039B000910509F44CC18531910511F40C94CE2E7A
:1039C0000A9709F0A2C381E00E9483AD0C94CE2E29
:1039D0008A32910509F4B9C254F48D31910509F484
:1039E00065C10CF453C14E9709F47EC18EC38B356B
:1039F000910509F4F4C18C35910509F4F5C18A35B6
:103A0000910509F082C31092CB140C94CE2E8091B4
:103A10009806813011F00C94CE2E19821A821B82E6
:103A20001C82CE0101965C0167E1E62E67E0F62E6E
:103A30000FE612E076E8C72E70E1D72E912C88E5CC
:103A4000890D0E9406E4F50181935F01882311F13D
:103A50000E948EE12B013C01892D0E9426D68823ED
:103A600051F0F8012081318142815381C301B201BB
:103A70000F946A5409C0F60120813181428153813B
:103A8000C301B2010F946954F7016083718382838B
:103A900093830AC0F80180819181A281B381F701EB
:103AA00080839183A283B3839394F4E0EF0EF11C9F
:103AB0000C5F1F4F24E0C20ED11C33E09312BFCF26
:103AC00085E40E9406E48C83882301F10E948EE144
:103AD0006B017C0183E00E9426D6882371F020913F
:103AE0007B0230917C0240917D0250917E02C701A1
:103AF000B6010F946A546B017C01C0922307D092E7
:103B00002407E0922507F092260710C080917B02DF
:103B100090917C02A0917D02B0917E028093230758
:103B200090932407A0932507B093260780913E1613
:103B3000882381F08091C71182FF0CC08C8188237B
:103B400049F08981811103C08A81882319F080E0BE
:103B50000F94CA2040E050E0BA0186E40E94E5409C
:103B600020E030E0A9010F94ED55181684F40E946E
:103B70008EE120E030E040E752E40F94ED54609392
:103B80008B0270938C0280938D0290938E028091B1
:103B90001D16882311F40C94092F85E40F94FF2C33
:103BA000882311F40C94092F88E50F94FF2C8111C0
:103BB0000C94092F89E50F94FF2C81110C94092F87
:103BC0008AE50F94FF2C81110C94092F0C94D72EA9
:103BD00080E50E9406E4882329F00E948DDF6B01B6
:103BE0007C0103C0C12CD12C760183E50E9406E440
:103BF000882361F00E948EE120E030E04AE754E43F
:103C00000F94CC4D0F9466556B017C010E940FCA36
:103C100080914004811105C060E081EF96E00E9430
:103C2000BC840F94CA2AC60ED71EE81EF91E0F9434
:103C3000CA2ADC01CB018C199D09AE09BF09B7FD69
:103C400002C00C94CE2E80E00E940536F0CF80E0BA
:103C50000E9483AD0C94CE2E0F94C62481110C9437
:103C6000CE2E8CE0ECE9F2E0DE01119601900D928F
:103C70008A95E1F760E070E080E50E94BEDCBE015D
:103C80006F5F7F4F0E9417800C94CE2E8091991405
:103C90008770873011F00C94342F60E08FE40E941D
:103CA0008FE481110C94CE2E0C94342F0F94CA2AD9
:103CB00060933F177093401780934117909342177A
:103CC0000F94C62481110C94CE2E8091D014882399
:103CD00011F40C94A72F60E08FE40E948FE481110F
:103CE0000C94CE2E0C94A72F20918D1430918E140D
:103CF00040918F145091901460916F0270917002F6
:103D000080917102909172020F946A54AB01BC01D0
:103D100088E50E94E54069837A838B839C832091A8
:103D20009114309192144091931450919414609195
:103D300073027091740280917502909176020F94D3
:103D40006A54AB01BC0189E50E94E5406D837E8326
:103D50008F839887BE016B5F7F4FCE0101960E94D3
:103D6000A6DF882311F40C94CE2E80E00E94ADB023
:103D70000E94DFD361E085E40E948FE401E021E04E
:103D8000482FBE016B5F7F4FCE0101960F947E25B9
:103D90006B017C019B01AC010F946B56811119C022
:103DA00049815A816B817C8185E093E30E948DB5C6
:103DB0004D815E816F81788580E093E30E948DB5AF
:103DC000B701A6018BEF92E30E948DB58AE00E94B5
:103DD000D9340E94C6D30E94D47A0C94CE2E8FE0A0
:103DE0008093CB140C94CE2E8091AB16882349F18E
:103DF000893009F0A6C04FEFA42E42E0B42E5FE652
:103E0000E52E52E0F52ED12C00E010E0F501819175
:103E10005F010E9406E4882369F00E948EE1F701A9
:103E20006083718382839383133011F401E002C0B5
:103E3000DD24D3941F5FF4E0EF0EF11C143031F752
:103E400075C09FEF292E92E0392E21EEE22E24E15B
:103E5000F22E2FE632E03DA32CA336E8C32E30E14C
:103E6000D32E00E010E0F10181911F010E9406E4D1
:103E7000882309F44AC00E948EE12B013C011330D3
:103E800049F0F60120813181428153810F946954B8
:103E90002B013C01ECA1FDA12081318142815381A4
:103EA000C301B2010F9469544B015C012DEB37E360
:103EB00046E855EB0F94ED5587FD0AC02DEB37E32F
:103EC00046E855E3C501B4010F94664D1816ECF4AD
:103ED000133051F440927B0250927C0260927D023A
:103EE00070927E0201E011C0A5019401F70160818A
:103EF0007181828193810F946A54F7016083718389
:103F000082839383812F0E94F2CE1F5FF4E0EF0E35
:103F1000F11C2CA13DA12C5F3F4F3DA32CA334E00D
:103F2000C30ED11C143009F09ECF05C0DD2019F05E
:103F30000E94D27A06C0002321F08BE792E00E9413
:103F4000A4CC0E94D47A0C94CE2E80919806813015
:103F500011F00C94CE2E89E40E9406E4E82E88230A
:103F600021F00E948AE1082F01C000E08AE40E944B
:103F700006E4F82E882321F00E948AE1182F01C060
:103F800010E0EE2011F0043020F4FF2041F0143056
:103F900030F08AEF96E00E94CCB40C94CE2E80E1F3
:103FA000EFE6F2E0A7E1B7E001900D928A95E1F724
:103FB000EE2019F1602F000F770B880B990B0F94EF
:103FC0006D4D20910D1630910E1640910F165091A7
:103FD00010160F94CC4D2091D8033091D903409105
:103FE000DA035091DB030F946A54609317077093C0
:103FF00018078093190790931A07FF2019F1612F72
:10400000110F770B880B990B0F946D4D20911116A2
:104010003091121640911316509114160F94CC4DF6
:104020002091DC033091DD034091DE035091DF03EA
:104030000F946A5460931B0770931C0780931D07AD
:1040400090931E0760E080E50E948FE48823C1F111
:10405000EE20D1F020918D1430918E1440918F1468
:10406000509190146091170770911807809119076B
:1040700090911A070F94695460931707709318076B
:104080008093190790931A07FF20D1F02091911483
:1040900030919214409193145091941460911B07A5
:1040A00070911C0780911D0790911E070F94695411
:1040B00060931B0770931C0780931D0790931E0746
:1040C00040E050E0BA0186E40E94E5406B017C01CB
:1040D00020E030E0A9010F94ED5518164CF420E0D3
:1040E00030E040E752E4C701B6010F94ED5403C03D
:1040F00060E070E0CB0169837A838B839C83CE017F
:1041000001960E94FED30C94CE2E0F94E7210C94BE
:10411000CE2E8091AC169091AD168B39910509F495
:10412000F6C50CF015C18335910509F433C60CF0C2
:1041300082C08A31910509F44FC3BCF584319105E1
:1041400009F4A2C27CF48131910509F489C22CF4EE
:10415000029708F44DC20C949E2E429709F422C691
:104160000C949E2E8731910509F4C3C294F48531D5
:10417000910509F4BAC2469711F00C949E2E0F9443
:10418000FF0D8091C711877F80628093C7110C94C7
:10419000CE2E8831910509F4C1C2499711F00C94D3
:1041A0009E2E0E94E4DB0C94CE2E8032910509F401
:1041B0008BC3F4F48D31910509F46FC384F48B3112
:1041C000910509F417C34C9711F00C949E2E809121
:1041D000A9169091AA160F94640F0C94CE2E8E31CE
:1041E000910509F461C34F9709F497C30C949E2E6F
:1041F0008D34910509F440C46CF48B34910509F4B5
:1042000037C48C34910511F00C949E2E0E94B77C1B
:104210000C94CE2E8135910509F4A5C58235910502
:1042200011F00C949E2E8091CB148F7D8061809331
:10423000CB140C94CE2E8037910509F419C5E4F502
:104240008A36910509F473C4CCF48C35910509F4D0
:10425000D1C554F48435910509F4A4C5853591057B
:1042600009F4A4C50C949E2E8836910509F408C45F
:104270008936910509F447C40C949E2E8D3691051C
:1042800009F41FC47CF48B36910509F48EC48C3676
:10429000910511F00C949E2E10929A14109289029E
:1042A0000C94CE2E8E36910509F48AC48F36910572
:1042B00009F499C40C949E2E8737910509F4FDC624
:1042C0003CF58337910509F433C68CF481379105A9
:1042D00009F4D7C48237910511F00C949E2E0F94E7
:1042E000391D84E591E10E94D5C70C94CE2E853707
:1042F000910509F49FC68637910511F00C949E2E06
:104300000091A9161091AA1694E0F12C40E0B9C6CC
:104310008D37910509F423C58CF48837910509F48C
:10432000CFC68937910511F00C949E2E1092C404CB
:104330001092C3040E941F7C0C94CE2E8C389105E1
:1043400009F4C4C48139910509F4C2C60C949E2EA7
:104350008139E1E09E0711F40C94042A0CF090C01E
:104360008F3C910511F40C940E2A0CF041C0883C4E
:10437000910509F456C7E4F4863A910509F44BC750
:1043800054F4833A910509F417C7843A910509F466
:104390002FC70C949E2E873A910509F43FC78E3B98
:1043A000910511F00C949E2E0E941D450C94CE2E6A
:1043B0008C3C910509F4DDC754F4893C910509F45E
:1043C00075C78B3C910509F4B2C70C949E2E8D3CA9
:1043D000910511F40C94EA298E3C910511F00C948E
:1043E0009E2E4DEEE42E44E1F42E10E00C94F329C1
:1043F000883121E0920711F40C94282BF4F4833DCA
:10440000910511F40C94A92A64F4803D910511F4EE
:104410000C94522A813D910511F40C949C2A0C9421
:104420009E2E8C3D910511F40C94AC2A8D3D910586
:1044300011F40C94D32A0C949E2E8D32E1E09E0749
:1044400011F40C941B2C6CF4823221E0920711F4CD
:104450000C94BF2B8C32914011F40C94062C0C94CC
:104460009E2E8F32E1E09E0711F40C949B2C803934
:10447000914011F00C949E2E0E940FCA0C94CE2EE7
:10448000883F31E0930711F40C94A12D0CF057C034
:10449000853AF1E09F0711F40C94CB2C2CF58C3964
:1044A00031E0930711F40C94A52C7CF48239F1E0EF
:1044B0009F0711F40C949E2C8A39914011F00C94B2
:1044C0009E2E0E9481320C94CE2E8D3931E09307BE
:1044D00011F40C94632E843A914011F00C949E2EAA
:1044E0000E9430E20C94CE2E853FF1E09F0711F43C
:1044F0000C949B2D7CF48C3A31E0930711F40C94CE
:104500003E2D843F914011F00C949E2E0E945552F6
:104510000C94CE2E863FF1E09F0711F40C949E2D53
:10452000873F914011F00C949E2E61E083E50E943C
:104530008FE491E089270F941F350C94CE2E8E3B8B
:1045400032E0930711F40C944F2E2CF58B35F2E0EA
:104550009F0711F40C94BE2D7CF48C3032E093074D
:1045600011F40C94B12D8835924011F00C949E2ECC
:104570000E94D2DA0C94CE2E8A39F2E09F0711F411
:104580000C94362E8D3B924011F00C949E2E0E947E
:1045900081D90C94CE2E873E33E0930711F40C940E
:1045A000552ECCF48335F3E09F0711F40C94522E72
:1045B000803A934011F00C949E2E2091A9163091D0
:1045C000AA169091C71192609093C711C9010F94D8
:1045D000640F0C94CE2E883E33E0930711F40C94B4
:1045E0007D2E893E934011F40C94802E0C949E2EC7
:1045F00080E50E9406E4882329F00E948DDF6B018C
:104600007C0103C0C12CD12C760183E50E9406E415
:10461000882361F00E948EE120E030E04AE754E414
:104620000F94CC4D0F9466556B017C010E940FCA0C
:104630008091A9169091AA16009721F061E00E943E
:10464000528505C060E083E197E00E94BC8440E0B1
:10465000C701B6010E94893B0F9438220C94CE2EDC
:104660008091AF1684FF02C00C94AA2F8091B116DE
:1046700087FF02C00C94AA2F8091B216837011F0AC
:104680000C94AA2F0C94C82F8091C71183FF25C0CA
:104690008EE397E00E94CCB48091C71183FF17C0CE
:1046A00086EE91E10E94DBA68BE1E6EEF1E1DE0110
:1046B000119601900D928A95E1F760E070E0CE01CD
:1046C00001960F946512CE0101960F94652D8FE22D
:1046D00097E00E94CCB40C94CE2E0E948EB68FE44C
:1046E00097E00E94CCB40C94CE2E0F9400120C9440
:1046F000CE2EE091A916F091AA168081882329F088
:10470000803209F410823196F8CF60E08091A916CA
:104710009091AA160F94AC0F0C94CE2E83E50E94B4
:1047200006E4882321F00E9456E10E94134784E5A5
:104730000E9406E48823A9F00E9456E16B017C01E7
:104740000E94627CC0927604D0927704E092780452
:10475000F0927904CD28CE28CF2819F081E08093FB
:10476000C4148091A10D8823F9F080E090E0A8E4C2
:10477000B2E488A399A3AAA3BBA31C8E1D8E1E8E90
:104780001F8E19821A821B821C8200E010E020E03A
:10479000AE01405E5F4FBE01645E7F4FCE01019669
:1047A0000F940C2E0C94CE2E0E94A632882381F0FA
:1047B0000F94100E0E947D7C80E695E10F94B50D5C
:1047C0001092B3161092B4161092B5161092B61637
:1047D0000F9438220C94CE2E8091C71183FD02C015
:1047E0000C94CE2E83E50E9406E481110C94D82F00
:1047F0000C94CE2E83E40F94FF2C882319F183E6CA
:1048000097E00E94CCB480912D13882391F0BE01D3
:104810006F5F7F4F8AE293E10E94A7A68E010F5F30
:104820001F4FF80181918F01882339F00E94D934FC
:10483000F8CF89E597E00E94CCB48AE00E94D93491
:104840000C94CE2E8091C71182FF21C082E797E0A1
:104850000E94CCB46091C3117091C4118091C511B4
:104860009091C6114AE00E94E0348FE20E94D93450
:104870006091BF117091C0118091C1119091C211CE
:104880004AE00E94E0340E94DE350C94CE2E84E88B
:1048900097E00E94CCB40C94CE2E8091C7118E7FED
:1048A0008093C7110C94CE2E8091C71183FD02C056
:1048B0000C94CE2E0F94D0218091A9169091AA1617
:1048C0000F948A110C94CE2E8091C71182FD0E9404
:1048D0000FCA8091C71183FD02C00C94CE2E60E0F8
:1048E00080E50E948FE4182F682F8091A91690917F
:1048F000AA160F94AC0F83E50E9406E4882321F0EA
:104900000E9456E10E9413470F94100E11110C944F
:10491000CE2E0E947D7C0C94CE2E0E942E7C7B019C
:104920008C0120E831E541E050E00F94BC53C9010F
:104930006DE671E00F9439544B015C01C801B70179
:1049400020E13EE040E050E00F94BC53CA01B901C1
:1049500028E130E040E050E00F94BC53762E672E03
:10496000C62ED72E8CE3282E312C412C512CC80179
:10497000B701A20191010F94BC53F62EE72ECA0194
:10498000B901A20191010F94BC53CB018E010F5FBD
:104990001F4F8114910499F0EF92FF927F936F93D0
:1049A0006F927F92BF92AF929F928F9285E997E02C
:1049B0009F938F931F930F930F94FE4C13C0A114DA
:1049C000B104B1F0EF92FF927F936F936F927F9259
:1049D000BF92AF9289E997E09F938F931F930F93B4
:1049E0000F94FE4C0FB6F894DEBF0FBECDBF30C0A3
:1049F000CD2879F0EF92FF927F936F936F927F9221
:104A00008DE997E09F938F931F930F930F94FE4C24
:104A1000E9CF892B69F0EF92FF927F936F9381EA40
:104A200097E09F938F931F930F930F94FE4CDACFD1
:104A3000EF92FF9285EA97E09F938F931F930F93D6
:104A40000F94FE4C0F900F900F900F900F900F90BF
:104A500060E0C8010E9452850E948EB6B80189EAC2
:104A600097E00E94ABB58AE00E94D9340C94CE2E18
:104A70000E947D7C0C94CE2E0E94CC7C0C94CE2E79
:104A80008091F60C83FF02C00C94CE2E89E40E9424
:104A900006E4882311F40C94DD2F0E9466E190E077
:104AA0001816190614F481E090E026E0289FF00122
:104AB000299FF00D1124E15CF94E808191810C94C5
:104AC000E82F8091F60C83FF02C00C94CE2E89E46F
:104AD0000E9406E4882311F40C94EF2F0E9466E1F3
:104AE00090E01816190614F481E090E026E0289F63
:104AF000F001299FF00D1124E15CF94E8081918134
:104B000010E00C9400300E94FDD5182F87FD0AC0DC
:104B100080EB98E30E94CCB4812F0E944FC08AE0C2
:104B20000E94D9343EA130939B140C94573160E01D
:104B300080E50E9483E481110C94CE2E81E40F94D1
:104B4000FF2C882329F060918C07062F10E002C00B
:104B50000FEF10E089E40E9406E4882399F00E9498
:104B600066E190E01816190614F481E090E026E062
:104B7000289FF001299FF00D1124E15CF94E04817A
:104B8000158108C083E50E9406E4882319F00E947D
:104B900056E18B01B8010F3F110519F010F06FEFCE
:104BA00070E060938C070C94CE2E60E080E50E944C
:104BB00083E481110C94CE2E10928C070C94CE2E8F
:104BC0008EE40E9406E4882311F40C94CE2E0E94F9
:104BD00056E160933B1770933C1780933D17909379
:104BE0003E170C94CE2E83E50F94FF2C882331F0D2
:104BF00060E083E50E9483E48093F60C0E948EB609
:104C00008FEB97E00E94CCB48091F60C882369F179
:104C1000BEE5EB2EBBE0FB2E00E010E020E0809133
:104C2000F60C90E0A0E0B0E0002E04C0B695A79589
:104C3000979587950A94D2F780FF0EC0DD24D39410
:104C4000D20E222319F08CE20E94D934F70185910B
:104C500094910E94CCB42D2D0F5F1F4F82E0E80E7F
:104C6000F11C05301105D9F6E8CD8BEB97E0E3CDCB
:104C700041E060E070E086EC97E00E9492B60C9410
:104C8000CE2E83E50E9406E4882381F00E9466E12F
:104C9000282F30E02D33310524F4809300020C944A
:104CA000CE2E8CE3809300020C94CE2E0E948EB602
:104CB0004091000250E060E070E084ED97E00E94D7
:104CC0006FB58AE00E94D9340C94CE2E8091F60CF8
:104CD00083FF02C00C94CE2E89E40E9406E4882350
:104CE00011F40C9441300E9466E190E01816190608
:104CF00014F481E090E026E0289FF001299FF00D58
:104D00001124E15CF94E628173810C944B3083E590
:104D10000E9406E4882311F40C94CE2E0E9466E1D2
:104D2000182F90E0CD970CF01CE3109357030F94CD
:104D3000CA2A6B017C01212F30E0A8EEB3E00F946A
:104D40001054C60ED71EE81EF91EC0925303D0920F
:104D50005403E0925503F09256030C94CE2E0E9419
:104D6000E4DB0C94CE2E0E9412C10E94CC7C0E94E7
:104D700020CA0E94CA3268EE73E080E090E00E9490
:104D80000DB40E94CD3260E08BED97E00E94BC84B0
:104D90000C94CE2E8091CB148F7E80628093CB14A6
:104DA0000C94CE2E0E9413E40C94CE2E83E50F9427
:104DB000FF2C882311F40C94CE2E0F94CA2A6093F2
:104DC0003F177093401780934117909342170E94AA
:104DD0008EE120E030E04AE754E40F94CC4D0F948C
:104DE0006655609358037093590380935A039093C8
:104DF0005B03D4C70E94FDD587FDD0C79091AF1645
:104E000094FD04C09091B11697FF0AC0FFEFCF2E1A
:104E1000F2E0DF2EA7EFEA2EACE0FA2E10E009C098
:104E20009091B216937091F7682F81E00E9452DF43
:104E3000B5C7F60181916F010E9406E4882309F449
:104E40006DC0133009F063C00E948EE14B015C011C
:104E500020E030E040EA51E40F94664D87FF4EC0F9
:104E6000A50194016091170D7091180D8091190D95
:104E700090911A0D0F94ED542B013C019B01AC0154
:104E8000609170077091710780917207909173071C
:104E90000F94CC4D609370077093710780937207E5
:104EA00090937307A30192016091270D7091280DD3
:104EB0008091290D90912A0D0F94CC4D6093270D70
:104EC0007093280D8093290D90932A0D609180078F
:104ED0007091810780918207909183070F946B4DA9
:104EE000A30192010F94CC4D0F94665560938007F7
:104EF0007093810780938207909383078092170DA8
:104F00009092180DA092190DB0921A0D07C00E9430
:104F10008EE1F701648B758B868B978B1F5FF4E0B6
:104F2000EF0EF11C143009F084CF0E94EBC936C794
:104F300082E399E00E94CCB460E082E299E00F94B1
:104F40008C3C60E08DE099E00F948C3C61E088E15E
:104F500098E20F948C3C61E082E099E00F948C3CE5
:104F600061E082EF98E00F948C3C60E089EE98E07D
:104F70000F948C3C61E08FED98E00F948C3C61E0E5
:104F800085ED98E00F948C3C61E08EEC98E00F94F6
:104F90008C3C61E086EC98E00F948C3C61E088EBFF
:104FA00098E00F948C3C60E08AEA98E00F948C3C87
:104FB00060E08BE998E00F948C3C60E08DE898E02D
:104FC0000F948C3C60E087E798E00F948C3C60E0A5
:104FD00086E698E00F948C3C60E087E598E00F94BB
:104FE0008C3C61E080E598E00F948C3C60E08BE3C2
:104FF00098E00F948C3C60E08DE298E00F948C3C3C
:1050000060E08AE198E00F948C3C60E08DE098E0ED
:105010000F948C3C60E088E098E00F948C3C61E059
:105020008BEF97E00F948C3C60E087EE97E00F9455
:105030008C3CB4C68091A9169091AA16009709F4E9
:10504000C7CBFC012081222309F4C2CB60E00E947F
:105050005285A4C6F8018081282F2B7F2134A1F02E
:105060008035F1F4F801818180538A30C8F49801C9
:105070002E5F3F4F89012F5F3F4FF80180818032C3
:10508000C9F3915039F70CC02181213349F481349F
:1050900021F0853461F741E0EACFFF24F394E7CFB4
:1050A00041110E948EB6FF2021F089E09AE00E9413
:1050B000CCB4C8010E94E43571C60E94B17B6EC6B3
:1050C00081E08093C4048093C3040E941F7C66C661
:1050D00060E070E083E50E9474E4823038F00E9462
:1050E000BEB58DE09AE00E94CCB458C68C01112761
:1050F00088E40E9406E48823E1F00E948AE18A3A6B
:10510000910544F00E948AE18530914034F40E9478
:105110008AE105C08AEA90E002C084E091E026E0DE
:10512000209FF001219FF00D1124E15CF94E918345
:10513000808382E40E9406E48823D9F00E948AE1F9
:10514000059744F00E948AE18937910534F40E9462
:105150008AE105C085E090E002C088E790E026E0A3
:10516000209FF001219FF00D1124E15CF94E938303
:10517000828386E40E9406E4882309F40FC60E9415
:105180008AE197FD09C00E948AE18F3F910509F0ED
:1051900034F40E948AE105C080E090E002C08FEF05
:1051A00090E026E0209FF001219FF00D1124E15CAA
:1051B000F94E95838483F2C560E070E083E50E9438
:1051C00074E48C01833091056CF460E070E080E55C
:1051D0000E9474E41127F801E051FC4F80830F9482
:1051E000B632DCC541970CF4D9C50F944E33D6C501
:1051F0006FEF7FEF83E50E9474E497FD07C0803175
:1052000091050CF0CBC50E9426ADC8C58091D3078F
:105210000E9426ADC3C50E948ADDC0C50E94D1DCB4
:10522000BDC50E94FDD5182F87FDB8C50091E014BB
:1052300084E40E9406E4882309F43EC70E948EE1BC
:105240006B017C0120E030E0A9010F94664D8823BA
:1052500039F124E01202F0011124E452FB4EC08225
:10526000D182E282F38220E030E0A9016091DC1477
:105270007091DD148091DE149091DF140F94664DCF
:1052800081110CC080E090E0A0EEBFE38093DC14BD
:105290009093DD14A093DE14B093DF1401E00CC7EB
:1052A00080E08093E0140E943DC878C50E94FDD53F
:1052B00087FD74C57FEFC72E72E0D72EE7EFEE2E85
:1052C000ECE0FE2E10E0F60181916F010F94FF2CAF
:1052D000882331F10E948EE16C8F7D8F8E8F9F8F9E
:1052E00080E1E8EAF2E0DE01119601900D928A95E4
:1052F000E1F79E012F5F3F4F4DE258E2612FCE0153
:105300004C960E94DBC86C8D7D8D8E8D9F8D0F9489
:105310006655F70160837183828393830E94A4C9D9
:105320001F5FF4E0EF0EF11C143069F637C50E94E0
:10533000FDD587FD33C55FEFE52E52E0F52E07EF73
:105340001CE067E0C62E6DE0D62EF70181917F014B
:105350000F94FF2C882339F00E948EE1F80164A39A
:1053600075A386A397A30C5F1F4FC016D10669F7DC
:1053700015C58091B01687FDA4C68091B1168E70B8
:1053800009F09FC640912B0D50912C0D60912D0D71
:1053900070912E0D8FE29AE00E948DB540912F0DF5
:1053A0005091300D6091310D7091320D8DE794E385
:1053B0000E948DB54091330D5091340D6091350DA3
:1053C0007091360D8EE097E30E948DB58AE00E94C1
:1053D000D934E4C40E94C5E1E1C41F5FF4E0EF0EDC
:1053E000F11C1330C1F088E5810F0F94FF2C882346
:1053F000A1F30E948EE1F70160837183828393831E
:10540000812F0E94F2CEE9CF80918C14811103C0CC
:1054100081E00E94125E0E94D47AC0C483E50F949A
:10542000FF2C882351F00E948EE160931E1670932A
:105430001F16809320169093211686E40F94FF2C5C
:10544000882381F00E948EE120E030E040E752E4C2
:105450000F94ED54609322167093231680932416B4
:10546000909325168AE50F94FF2C882351F00E9413
:105470008EE16093261670932716809328169093DA
:10548000291687E50F94FF2C882309F487C40E940E
:105490008EE1609332167093331680933416909396
:1054A00035167CC483E50F94FF2C882351F00E94AD
:1054B0008EE160932A1670932B1680932C1690938E
:1054C0002D1686E40F94FF2C882381F00E948EE134
:1054D00020E030E040E752E40F94ED5460932E1644
:1054E00070932F16809330169093311682E50F94A7
:1054F000FF2C882381F00E948EE120E030E040E71D
:1055000052E40F94ED5460933A1670933B168093D7
:105510003C1690933D1687E50F94FF2C882309F4E1
:105520003DC40E948EE160933616709337168093C7
:1055300038169093391632C483E50F94FF2C8823D4
:1055400009F42CC40E947AE180931D160E9490D524
:1055500025C40E946ADE22C483E50E9406E48823F3
:1055600031F00E948AE190933F0280933E02809145
:10557000AF169091B016A091B116B091B216892BCA
:105580008A2B8B2B09F00AC460913E0270913F0276
:105590008FE39AE00E949EB585E20E94D9348AE0AA
:1055A0000E94D934FBC30E94FDD5F82E87FDF6C3B7
:1055B00083E50E9406E40F2D0F2C000C110B8823AD
:1055C00061F10E948AE1F801EE0FFF1FE05CFD4FE0
:1055D00091838083000F111F000F111F9801225A21
:1055E0003D4F7901BC01990F880B990B0F946D4DBC
:1055F0002AE037ED43E25CE30F94CC4DF801E95D1E
:10560000F84F20813181428153810F94CC4DF701B5
:105610006083718382839383C1C30E948EB685E4C5
:105620000E94D93480E38F0D0E94D934000F111FDE
:10563000F801E05CFD4F6081718183E49AE00E9493
:105640009EB585E20E94D9348AE00E94D934A6C36F
:1056500080E50F94FF2C882309F4A0C30E948AE1FF
:105660008C01892B09F07FC083E50F94FF2C8823E0
:1056700089F00E948AE18F3FFFEF9F0729F488E2BB
:1056800091E10E94D0328AC3BC0188E291E10E947C
:10569000903384C30E948EB660E070E08BE49AE0A1
:1056A0000E949EB580912A1128E532E06901C81A4E
:1056B000D10887FDD394CC0CDD1CCC0CDD1C0D2C4B
:1056C000000CEE08FF088091291128E830E049011C
:1056D000881A910887FD9394880C991C880C991C52
:1056E000092C000CAA08BB08809128118F3FC1F03B
:1056F00090E0FC01EE0FFF1F8E0F9F1FFC01E15297
:10570000FF4E21813281B3E0220F331FBA95E1F7BA
:1057100014E0369527951A95E1F72E5F3F4F02C0AA
:1057200020E030E02F5F3F4FC901330FAA0BBB0BC6
:105730009C01AD01281939094A095B09A4EBB0E0C5
:105740000F94FD53A7019601281939094A095B09ED
:105750000F94DE53B9018EE89AE00E949EB58AE06C
:105760000E94D9341BC30E94BEB5B8018CE49AE0F4
:105770000E949EB584E097E00E94CCB40FC38AE5F6
:105780000E9406E4811105C083E50E9406E4882397
:1057900031F10E948EE120E030E040E050EC0F94C7
:1057A000664D87FDD9C40E948EE120E030E040E0E4
:1057B00050E40F94ED5518160CF4C9C40E948EE104
:1057C0002091130D3091140D4091150D5091160D2F
:1057D0000F94CC4D0F945F55CB010F943E3E8091BA
:1057E000B11687FDBEC48091B216837009F0B9C4AA
:1057F0000E948EB660914317709144178EE897E12E
:105800000E949EB58AE00E94D934C8C264E071E06B
:1058100083E50E94BEDC8C0168EE73E080E50E94A7
:10582000BEDC893823E1920710F088E893E1B801E3
:105830000E948F84B3C260E085E40E9483E48111FA
:1058400073C080E50F94FF2C882351F00E948EE1F5
:105850006093A7107093A8108093A9109093AA103A
:1058600089E40F94FF2C882381F00E948EE12CEABA
:1058700035EC47E25EE30F94CC4D6093AB10709330
:10588000AC108093AD109093AE1084E40F94FF2C75
:10589000882381F00E948EE12CEA35EC47E25EE33A
:1058A0000F94ED546093AF107093B0108093B110CB
:1058B0009093B2100E948EB64091A7105091A810FC
:1058C0006091A9107091AA108BE59AE00E948DB5A5
:1058D0002CEA35EC47E25EE36091AB107091AC10BE
:1058E0008091AD109091AE100F94ED54AB01BC01BE
:1058F00087E59AE00E948DB52CEA35EC47E25EE33D
:105900006091AF107091B0108091B1109091B21071
:105910000F94CC4DAB01BC0183E59AE00E948DB59C
:105920008AE00E94D9343AC20E94BEB58FE59AE05F
:105930000E94CCB433C20E94FC4030C280918C14CF
:10594000882309F468CD80E064CD8091AF1683FD93
:105950000EC48091B116867009F009C40E948EB6FB
:1059600081E99AE00E94CCB4809162020E9466B5FF
:105970008AE00E94D9344091900250919102609146
:1059800092027091930281E79AE00E948DB58AE0BD
:105990000E94D93403C26FEF7FEF89E40E9474E460
:1059A000082F6FEF7FEF8AE40E9474E4182F8AE5D6
:1059B0000E9406E4811108C081E50E9406E4D82E09
:1059C000882309F4F9C301C0D12CC02E81E0800FD7
:1059D000853008F04CC0912E81E0810F853008F0B1
:1059E00046C00E948EE12B013C01F02E07FDF12CF8
:1059F00007FF02C0F3E0CF2E812E17FD812C17FF89
:105A000002C0E3E09E2ECF1408F4C8C1E82C34E0B5
:105A1000F39E500111249E1440F10E2D10E0DD2064
:105A200071F0F501E00FF11FEE0FFF1FEE0FFF1FEA
:105A3000E15BF94E208131814281538103C020E036
:105A400030E0A9010A0D1B1D000F111F000F111FCF
:105A5000015B194EC301B2010F946A54F8016083CF
:105A6000718382839383E394D6CFF394CCCF0E9447
:105A7000BEB58AEF96E00E94CCB490C10F94C624C4
:105A800081118CC10CE414E12FE632E03DA32CA37C
:105A9000CE0101961C014AE5C42E45E2D42E7C01BC
:105AA000F8016591759185919491ECA1FDA181908A
:105AB0009190A190B190FDA3ECA3A50194010F9446
:105AC00069542B013C01F7016083718382839383C6
:105AD00020E030E040EA51EC0F94ED5587FD0AC01C
