:100000000C94BC1F0C94ED1F0C94ED1F0C94ED1F71
:100010000C94ED1F0C94ED1F0C94ED1F0C94ED1F30
:100020000C94ED1F0C94ED1F0C94ED1F0C94ED1F20
:100030000C94ED1F0C94039A0C94ED1F0C94ED1F7F
:100040000C94ED1F0C9442E00C94ED1F0C94ED1FEA
:100050000C94ED1F0C94ED1F0C94039D0C94B99916
:100060000C94ED1F0C94A83C0C949E3C0C94ED1F3A
:100070000C94ED1F0C94ED1F0C94ED1F0C94ED1FD0
:100080000C94ED1F0C94ED1F0C94ED1F0C94ED1FC0
:100090000C94ED1F0C94ED1F0C94ED1F0C94ED1FB0
:1000A0000C94ED1F0C94ED1F0C94ED1F0C94ED1FA0
:1000B0000C94ED1F0C94ED1F0C94ED1F0C94ED1F90
:1000C0000C94ED1F0C94ED1F0C94ED1F0C94ED1F80
:1000D0000C94ED1F0C94ED1F0C94ED1F0C94ED1F70
:1000E0000C94ED1F1A3A1F3A243A2E3A383AB13A94
:1000F000423A4A3A523A5C3A663A703A7F3A893A18
:10010000B13A933A9D3AA73AE03FFE3D373E1C4054
:10011000373E373E373E373E373E373E373E373E37
:10012000373E373E373E373E373E373E373E373E27
:10013000373E373E373E373E373E373E373E373E17
:10014000373E373E1640373E373E373E373E373E26
:10015000373E373E373EEF3F373E373E373E373E3E
:10016000373E373E373E373E373E373E3340343EEC
:1001700005EA12EA27EA34EA51EA66EA73EA84EA0F
:1001800095EAAEEAC7EAE0EAF9EA16EB33EBA90131
:1001900065023D0239011F016D02F3000D011702D6
:1001A000BF01B30133015F015F028502D301EF009C
:1001B0004902DD01BB010B0111022D015B01F900B8
:1001C000250149028701B90163020C94E3480C94AC
:1001D000EF480C94BD480C94E8AF0C94667E0D94E7
:1001E0007F280C94B15E0D942F200C946E7E0C949D
:1001F0004D5E0D94A8280C94343E0C941C400C9435
:10020000D7480C94617F0C94567E0D94EC070C94A7
:10021000EF3F0C9481D80D9496280D943B200C94BC
:1002200082830C94DA440C944F610C946D780C9496
:100230007FD80C9403750C94A3570C9483D80D9419
:1002400029200C948B3D0C948E3D0D94AC280C947D
:10025000917B0C9448600C9495440D949E280C94CA
:10026000933A0C948E5E0D9438200C9473EA0C949F
:1002700082440D9423200C942E3A0C947DD80C9437
:10028000855F0C94FE800C9433EB0C9491490C9494
:1002900033400C94BDEC0C94DD710C94DB460C9453
:1002A00084EA0C94D0490C94FE3D0C94FB430C94CE
:1002B000FA740C941A3A0D94A4280C944A3A0D94AA
:1002C00085280D94F50A0C947A5E0C94FD740C94B8
:1002D000C3620C94B13A0D94F30A0C9416EB0C948F
:1002E0006C5F0C94F23C0C9406750C94A73A0C9439
:1002F000383A0C94DF560D947B060C9416400C94FF
:1003000012EA0D9402090C94398E0C94CC460D948B
:10031000B2280C942B720C94AB5E0C9483400C941A
:100320008D480C94B75E0C94727E0C9425720C94DC
:10033000ADA40D94A30B0C941F3A0C94E7560C94A7
:10034000523A0C9401490C94C1490C94A3540C9456
:1003500096A40D9440200C94E9480C94627E0C9471
:10036000715F0C94DD480D9435200C945E7E0C94E6
:100370008A3D0D94B6280D9490280C945F720D94CC
:100380004D200C94A0760C947B5F0C9422440C942A
:1003900081580C94663A0C94AEEA0C9478DC0C9478
:1003A000FA490C94DF490D947B280C94E5800C9459
:1003B0007A7E0C94E84C0C94F1F50D948C280C94F6
:1003C00027EA0C94765F0C9437720C947F3A0C9465
:1003D000423A0C94AE440C947E7B0C9434EA0C9418
:1003E00054440C946A7E0C943BDC0C94D6560C94CA
:1003F00086990C94824C0D94F10A0C9486830C948B
:100400005A7E0C94914C0C94CB480C940D720C9425
:10041000F8800C945C990C945C3A0C94B2490C945E
:10042000715E0D949A280D94F70A0C94EF3C0D948C
:1004300032200C946F440C942B490C94E7850C9457
:10044000F3440C940C410C94D9800C94805F0C9470
:10045000AA400C9405EA0C947C5E0C94EB490C9435
:10046000EF710C94EF560D9414430C94D1480C94F6
:100470009C480C944F600C94A65C0D9426200C9420
:10048000625F0C94675F0C947E830C9478730C9479
:100490004E7C0D94BF280C9444640C94F5480C9445
:1004A00063560D9432430C947FA40C9419720C94EF
:1004B0004FDA0C94E9590C94C4A40C9420560D9472
:1004C00088280C94AA7B0D94BA280D9420200C94B3
:1004D000C5480C945C5F0C9482560D942C200C94AF
:1004E00001720C947E5E0C94F9EA0C94767E0C9466
:1004F000893A0C946D8E0C94373E0C94FB480C9406
:100500007E7E0C9400750C9404810D9477280C94D5
:1005100095EA0C9497830C94565F0C94C1440C9408
:1005200051EA0C9431720C94703A0C943B440C9444
:1005300050AA0C9422560C9480720C9409440C948A
:10054000BD5E0C9469720C94C3460C949D3A0C9455
:10055000C7EA0C9466EA0C94C8F50C94705E0D948E
:10056000D20A0C94E03F0C947BD80C94243A0C945F
:100570000C490C94C35E0C94E0EA0C9456724E4104
:100580004E494E495459494E46CDCCCC3D0AD7230D
:100590003C17B7D13877CC2B329595E6241FB14F55
:1005A0000A000020410000C84200401C4620BCBE9A
:1005B0004CCA1B0E5AAEC59D7400407A10F35A0007
:1005C000A0724E18090010A5D4E80000E87648177C
:1005D0000000E40B54020000CA9A3B000000E1F561
:1005E00005000080969800000040420F000000A027
:1005F0008601000000102700000000E80300000052
:10060000006400000000000A00000000000100007B
:100610000000002C76D888DC674F0823DFC1DFAEEE
:1006200059E1B1B796E5E3E453C63AE651997696B7
:10063000E8E6C28426EB898C9B62ED407C6FFCEF80
:10064000BC9C9F40F2BAA56FA5F490055A2AF75CAE
:10065000936B6CF9676DC11BFCE0E40D47FEF52060
:10066000E6B500D0ED902E03009435770500808428
:100670001E080000204E0A000000C80C333333333C
:100680000F986E12831141EF8D2114893BE65516A8
:10069000CFFEE6DB18D1844B381BF77C1D901DA4E0
:1006A000BBE424203284725E228100C9F124ECA1D3
:1006B000E53D27434F4D4D554E49434154494F4E1B
:1006C0000044525952554E004552524F5253004920
:1006D0004E464F004543484F005265706F736F2E72
:1006E0002E2E004D65736820706F696E74206F75D3
:1006F00074206F662072616E67650A0050756C73B6
:1007000061722070617261205265616E7564617200
:100710000053696E206D6F76696D69656E746F0048
:10072000456E642066696C65206C6973740A0042CA
:100730006567696E2066696C65206C6973740A0070
:100740004E6F206D656469610A00286E6F206669CE
:100750006C65290043757272656E742066696C65FC
:100760003A20005344207072696E74696E6720628B
:1007700079746520004E6F74205344207072696E46
:1007800074696E670A0025697920256964202569E6
:10079000682025696D20256973005072696E742088
:1007A00074696D653A2000456E667269616E646FAA
:1007B0002E2E2E0043616C656E74616E646F2E2E5A
:1007C0002E0045202553006F66660044454255477C
:1007D0003A004D3131322053687574646F776E0082
:1007E0004D3131332053005A38545F4D33204F463A
:1007F000462E004348414D4245525F54454D5045B9
:10080000524154555245004241425953544550506B
:10081000494E470041524353004D4F54494F4E5F9C
:100820004D4F44455300544845524D414C5F505242
:100830004F54454354494F4E004C4F4E475F464935
:100840004C454E414D45004155544F5245504F5235
:10085000545F53445F5354415455530053444341F0
:1008600052440050524F4D50545F535550504F52C8
:100870005400454D455247454E43595F50415253F0
:10088000455200434153455F4C494748545F4252EB
:10089000494748544E45535300544F47474C455FD2
:1008A0004C494748545300534F4654574152455FB3
:1008B000504F574552004255494C445F50455243B2
:1008C000454E54004C4556454C494E475F444154B3
:1008D00041005A5F50524F42450052554E4F5554B9
:1008E000004155544F4C4556454C005052494E54CA
:1008F0005F4A4F420050524F4752455353004155B3
:10090000544F5245504F52545F54454D5000564F2E
:100910004C554D45545249430042494E4152595F4E
:1009200046494C455F5452414E534645520053454B
:100930005249414C5F584F4E5F584F46460046491A
:10094000524D574152455F4E414D453A4D61726C93
:10095000696E206D61726C696E2D322E302E3820DA
:10096000284E6F7620203920323032302031373A0D
:1009700032343A32332920534F555243455F434F67
:1009800044455F55524C3A68747470733A2F2F6720
:1009900069746875622E636F6D2F4D61726C696E3C
:1009A0004669726D776172652F4D61726C696E2058
:1009B00050524F544F434F4C5F56455253494F4E40
:1009C0003A312E30204D414348494E455F545950ED
:1009D000453A5A38545F4D33204558545255444592
:1009E000525F434F554E543A3120555549443A636E
:1009F000656465326132662D343161322D343734AD
:100A0000382D396231322D633535633632663336EF
:100A10003766660A002F2F20004D31343520533CB5
:100A2000696E6465783E206F7574206F6620726110
:100A30006E67652028302D31290A00416363656C9B
:100A400065726174696F6E00416363656C657261A4
:100A500074696F6E3A20500046523A0020466C6F1F
:100A6000773A20004261627973746570205A0020E1
:100A7000643A0020693A0020703A00496E76616C51
:100A800069642065787472756465720A0046696CE1
:100A9000616D656E742072756E6F75742064697314
:100AA00074616E636520286D6D293A200046696C7B
:100AB000616D656E742072756E6F757420004D34B3
:100AC000323120696E636F72726563742070617277
:100AD000616D657465722075736167650A004465B0
:100AE00073666173652061706C6963616461004560
:100AF00072723A20546F6F206661722100546F6FDA
:100B0000206661722066726F6D207265666572651F
:100B10006E636520706F696E740A00454550524FD0
:100B20004D204F4B0A00205A323A004475616C2028
:100B3000456E6473746F702041646A7573746D657B
:100B40006E7420286D6D293A2000506F7765722DE4
:100B50006C6F7373207265636F76657279200044E1
:100B60006F6E65207072696E74696E672066696C5D
:100B7000650A004D3737004D333100D406CF06C823
:100B800006C106B3064572726F7220777269746986
:100B90006E6720746F20454550524F4D210A004D1D
:100BA000323930004D343130004D313132004D3169
:100BB0003038005072696E7465722073746F707093
:100BC00065642064756520746F206572726F72733E
:100BD0002E2046697820746865206572726F7220D5
:100BE000616E6420757365204D39393920746F202A
:100BF000726573746172742E202854656D7065720D
:100C000061747572652069732072657365742E2036
:100C1000536574206974206166746572207265730F
:100C200074617274696E67290A004E6F20436865AB
:100C3000636B73756D2077697468206C696E6520CD
:100C40006E756D6265722C204C617374204C696EF8
:100C5000653A2000636865636B73756D206D697319
:100C60006D617463682C204C617374204C696E65EF
:100C70003A20004C696E65204E756D626572206980
:100C800073206E6F74204C617374204C696E652004
:100C90004E756D6265722B312C204C617374204C43
:100CA000696E653A20004D31313000534420726541
:100CB0006164206572726F720A002121204B494CD9
:100CC0004C20636175736564206279204B494C4CFC
:100CD00020627574746F6E2F70696E0A0021212076
:100CE0004B494C4C206361757365642062792074B4
:100CF0006F6F206D75636820696E616374697665D6
:100D00002074696D65202D2063757272656E742084
:100D1000636F6D6D616E643A2000627573793A207D
:100D200070617573656420666F7220696E7075748A
:100D30000A00627573793A20706175736564206684
:100D40006F7220757365720A00627573793A20704C
:100D5000726F63657373696E670A0053442F55534E
:100D60004220726574697261646F0053442F555359
:100D70004220696E7365727461646F004D3130306A
:100D80003053004D36303020543137004572723ABE
:100D9000207574663820666F6E74206E6F742069DB
:100DA0006E697469616C697A65642E00000C0F00CD
:100DB000FE07022503BB01FFFE0AFE08FE05080828
:100DC00006000040F0C888889878100508080600DA
:100DD00000C0F88888888888F80505050600012085
:100DE00030F830200508080600002070F820202088
:100DF00020E00509090600FF2070A8A8B8888870BF
:100E000020070505070001D86C366CD805090906CE
:100E100000FFF8A88888888888A8F8050A0A0600CC
:100E2000FE205050505088A8A88870030303060085
:100E30000340A040FFFFFFFFFFFFFFFFFFFFFFFF9B
:100E4000FFFFFFFFFFFFFFFFFFFF0000000605FFA2
:100E50000107070602008080808080008003030372
:100E6000060105A0A0A005060606000050F8505097
:100E7000F8500509090600FF2070A8A07028A87086
:100E800020050707060000C8C810204098980507ED
:100E90000706000040A0A040A890680103030602D6
:100EA000058080800309090601FF20404080808082
:100EB0004040200309090601FF80404020202040D7
:100EC000408005070706000020A8702070A82005B4
:100ED00005050600012020F820200203030601FF7B
:100EE000C04080050101060003F80202020601006D
:100EF000C0C005070706000008101020404080050C
:100F00000707060000708898A8C8887003070706BE
:100F1000010040C040404040E00507070600007067
:100F20008808102040F8050707060000F808103070
:100F300008887005070706000010305090F8101060
:100F4000050707060000F880F00808887005070705
:100F5000060000304080F088887005070706000012
:100F6000F808101020202005070706000070888868
:100F70007088887005070706000070888878081058
:100F800060020505060100C0C000C0C002060606DA
:100F900001FFC0C000C040800305050601012040DC
:100FA000804020050303060002F800F8030505064B
:100FB000010180402040800507070600007088106E
:100FC000202000200507070600007088B8A8B88018
:100FD00070050707060000708888F888888805076C
:100FE00007060000F04848704848F005070706006B
:100FF0000070888080808870050707060000F04830
:1010000048484848F0050707060000F88080F0804F
:1010100080F8050707060000F88080F080808005D2
:10102000070706000070888080988870050707060B
:101030000000888888F8888888030707060100E090
:101040004040404040E005070706000038101010FF
:101050001090600507070600008890A0C0A0908847
:10106000050707060000808080808080F80507075C
:1010700006000088D8A88888888805070706000029
:101080008888C8A89888880507070600007088889F
:1010900088888870050707060000F08888F080803F
:1010A0008005070706000070888888A890680507F3
:1010B00007060000F08888F0A09088050707060062
:1010C0000070888070088870050707060000F82007
:1010D00020202020200507070600008888888888AF
:1010E000887005070706000088888888505020050A
:1010F000070706000088888888A8A8500507070603
:10110000000088885020508888050707060000885E
:10111000885020202020050707060000F80810202E
:101120004080F80309090601FFE08080808080800C
:1011300080E00507070600008040402010100803EB
:1011400009090601FFE020202020202020E00503DF
:10115000030600052050880501010600FEF8030380
:10116000030601058040200505050600007008788B
:1011700088780507070600008080F0888888F005D9
:1011800005050600007080808870050707060000CE
:10119000080878888888780505050600007088F0BA
:1011A0008070050707060000304840E040404005D9
:1011B00007070600FE70888888780870050707060C
:1011C00000008080F08888888803070706010040B7
:1011D00000C0404040E00409090601FE1000301044
:1011E000101010906005070706000080808890E0CE
:1011F0009088030707060100C04040404040E005DA
:101200000505060000D0A8A8A8A805050506000049
:10121000B0C8888888050505060000708888887031
:101220000507070600FEF0888888F080800507071C
:101230000600FE78888888780808050505060000FD
:10124000B0C880808005050506000078807008F031
:101250000507070600002020F820202018050505B6
:1012600006000088888898680505050600008888BB
:101270008850200505050600008888A8A8500505A7
:101280000506000088502050880507070600FE88E4
:10129000888850204080050505060000F810204091
:1012A000F80309090601FF204040408040404020EB
:1012B0000109090602FF8080808080808080800391
:1012C00009090601FF80404040204040408005035E
:1012D0000306000248A890FFFFFFFFFFFFFFFFFF8C
:1012E000FFFFFFFFFFFFFFFFFFFFFFFFFFFFFFFF0E
:1012F000FFFFFFFFFFFFFFFF0000000605FF0107E4
:1013000007060200800080808080800507070600B5
:10131000FF2070A8A0A8702005070706000030482D
:1013200040E04048B0050505060000A8508850A8D8
:101330000507070600008850F820F820200107075D
:10134000060200808080008080800408080601007A
:1013500070806090906010E0030101060107A00614
:1013600007070600007884B4A4B484780305050652
:10137000010460A06000E00505050600002850A0FB
:101380005028050303060001F808080301010601BF
:1013900003E00607070600007884B4A4A484780557
:1013A0000101060007F8040404060105609090603E
:1013B0000507070600002020F8202000F803050597
:1013C00006010440A02040E0030505060104C020FA
:1013D0004020C003030306010520408005070706DF
:1013E00000FE88888898E880800508080600007854
:1013F000E8E8E868282828020202060203C0C003C1
:1014000002020601FE20C003050506010440C0409B
:1014100040E003050506010540A04000E005050584
:10142000060000A0502850A0050A0A06000040C08F
:1014300048506050B0507810050A0A06000040C0BD
:1014400048506050A8081038050A0A060000C0205D
:101450004830E050B0507810050707060000200023
:101460002020408870050A0A06000040200070888D
:1014700088F8888888050A0A06000010200070880D
:1014800088F8888888050A0A0600002050007088BD
:1014900088F8888888050A0A06000068B000708805
:1014A00088F8888888050909060000500070888837
:1014B000F8888888050A0A0600002050207088886D
:1014C000F888888805070706000078A0A0F0A0A08B
:1014D000B80509090600FE70888080808870106059
:1014E000050A0A060000402000F88080F08080F89D
:1014F000050A0A060000102000F88080F08080F8BD
:10150000050A0A060000205000F88080F08080F86C
:101510000509090600005000F88080F08080F8037B
:101520000A0A060100804000E04040404040E003DD
:101530000A0A060100204000E04040404040E0032D
:101540000A0A06010040A000E04040404040E0039D
:101550000909060100A000E04040404040E00507C6
:1015600007060000704848E8484870050A0A060067
:101570000068B0008888C8A8988888050A0A06000C
:101580000040200070888888888870050A0A060054
:101590000010200070888888888870050A0A060074
:1015A0000020500070888888888870050A0A060024
:1015B0000068B0007088888888887005090906006E
:1015C000005000708888888888700505050600012D
:1015D00088502050880509090600FF087098A8A8BF
:1015E000A8C87080050A0A06000040200088888884
:1015F00088888870050A0A060000102000888888FC
:1016000088888870050A0A060000205000888888AB
:101610008888887005090906000050008888888835
:10162000888870050A0A060000102000888850206B
:1016300020202004070706010080E0909090E080C1
:10164000050707060000708890A09088B00508087C
:101650000600004020007008788878050808060019
:10166000001020007008788878050808060000201F
:101670005000700878887805080806000068B000F7
:101680007008788878050707060000500070087811
:1016900088780508080600002050207008788878AF
:1016A000050505060000702870A0780507070600EC
:1016B000FE708880887010600508080600004020D1
:1016C000007088F080700508080600001020007087
:1016D00088F080700508080600002050007088F02F
:1016E000807005070706000050007088F0807003C6
:1016F0000808060100804000C0404040E0030808A0
:10170000060100204000C0404040E00308080601F8
:101710000040A000C0404040E0030707060100A0D1
:1017200000C0404040E00509090600005020500874
:10173000788888887005080806000068B000B0C87E
:10174000888888050808060000402000708888887E
:101750007005080806000010200070888888700551
:101760000808060000205000708888887005080866
:1017700006000068B00070888888700507070600BA
:10178000005000708888887005050506000120005B
:10179000F800200505050600007898A8C8F005089F
:1017A0000806000040200088888888700508080620
:1017B000000010200088888888700508080600004E
:1017C00020500088888888700507070600005000B0
:1017D0008888888870050A0A0600FE10200088881C
:1017E00088502040800509090600FE8080F0888826
:1017F00088F080800509090600FE5000888888501E
:1018000020408053696775656E74652045737175F6
:10181000696E61004C6973746F0053696775696E16
:101820007465004F726967656E2058595A00436F9E
:101830006D70656E2E20416C74757261004E697614
:10184000656C61722043616D61004732380A47322E
:1018500039004361746368205A204F66667365746B
:1018600000473239204E004E6976656C6172204522
:10187000737175696E6173004465735265742056A7
:1018800000446573526574206D6D004C6576616E21
:10189000746172206D6D00526574726165722020F2
:1018A000560052657472616572206D6D00526574E8
:1018B0007261636369C3B36E204175746F2E005605
:1018C000656E74696C61646F7200426F7175696CEA
:1018D0006C610056656C6F6369646164004D656E90
:1018E000C3BA207072696E636970616C004D696380
:1018F000726F7061736F205A00466C756A6F0025B5
:1019000068753A2530326875002568756420253081
:101910003268753A2530326875002020202020205A
:1019200020001FE020102010201010201020201078
:10193000201030300840048003001FE03FF03FF0EB
:101940003FF01FE01FE03FF03FF03FF00FC0078087
:1019500003003FFFF038007030FC3020FC1020788E
:10196000102030102C00D02E31D02F7BD02F7BD0E8
:101970002E31D02C00D020301020781020FC1030D8
:10198000FC303800703FFFF03FFFF03800703186C8
:10199000302387102787902F87D02F03D020301037
:1019A0002078102078102030102F03D02F87D027D8
:1019B00087902387103186303800703FFFF01FFF7B
:1019C000F81FFFF80410400208200208200410400D
:1019D00008208010410010410008208004104000C1
:1019E00000001FFFF81FFFF83300CC00CC120048A6
:1019F00000481200480048120048004813FFCFFF7B
:101A0000C810000000081FFF83FFF8000FC7E000A8
:101A1000000FEFE0000003EF80000001EF00000086
:101A2000006C000000000000005265632E2046613B
:101A30006C6C6F20656C6563747269636F00436FD3
:101A40006E6669677572616369C3B36E00447561E0
:101A50006C205A20454E4453544F50004455414C3D
:101A6000205A2044524956455200544D4332323098
:101A700058204150504C4945442058595A00544927
:101A800054414E204558545255444552004E6976B3
:101A9000656C616E646F2042696C696E65616C0093
:101AA0004578747275736F726573007777772E7AE5
:101AB0006F6E657374617233642E636F6D005A3894
:101AC000545F4D3300323032302D31312D303900FA
:101AD0006D61726C696E2D322E302E380056312EAB
:101AE000372E33005465726D6973746F72657300BD
:101AF000496E666F2E20436F6E74726F6C61646FF7
:101B00007200496E666F2E20496D707265736F7238
:101B100061004D3130303000446574656E6572206F
:101B2000696D7072657369C3B36E005265616E75DD
:101B300064617220696D7072657369C3B36E004130
:101B40007472C3A1730050617261720053442F55C7
:101B50005342206E6F2070726573656E746500432A
:101B6000616D626961722053442F555342004D32BA
:101B70003100417061676172204675656E74650061
:101B80004D38310043616D626961722066696C6134
:101B90006D656E746F00416A757374617200506197
:101BA0007573617220696D7072657369C3B36E007D
:101BB00050616E74616C6C6120646520496E662EA4
:101BC00000496E696369617220696D70726573693D
:101BD000C3B36E00496D7072696D69720043616EC6
:101BE0006E6F7420656E74657220737562646972BD
:101BF0003A2000022E2E00416374697661722048FB
:101C00006572722E56004D6F76696D69656E746FE0
:101C1000004D3834004E6976656C616E646F204308
:101C2000616D61004C6C6576617220616C206F7231
:101C30006967656E0054656D706572617475726177
:101C40000041425300504C41004170616761722075
:101C50006D6F746F726573004F726967656E205A9D
:101C6000004732385A004F726967656E2059004745
:101C7000323859004F726967656E20580047323814
:101C800058004732380050726563616C2E20242062
:101C90004675736F720050726563616C2E2024204C
:101CA00043616D6100456E667269617200507265D4
:101CB00063616C2E202400546F74616C00451C41DC
:101CC0001C0000A0C1000000000000000000009BFC
:101CD0004300009B430000C84353657474696E67FA
:101CE000732053746F726564002062797465733B6E
:101CF00020637263200053657474696E67732053A8
:101D0000746F726564202800454550524F4D206421
:101D100061746173697A65206572726F722E0A0050
:101D20002073746F7265642073657474696E677371
:101D300020726574726965766564202800202863C6
:101D4000616C63756C6174656429210A0020213D12
:101D50002000454550524F4D20435243206D69733A
:101D60006D61746368202D202873746F7265642917
:101D70002000496E6465783A200044494749504F35
:101D80005453204C6F616465640A004449474950CC
:101D90004F5453204C6F6164696E670A00204D6197
:101DA000726C696E3D563833290A00454550524FD2
:101DB0004D2076657273696F6E206D69736D617405
:101DC00063682028454550524F4D3D004D69657A66
:101DD000636C61646F72003F0043616E63656C61A8
:101DE000720044656772616461646F20696E766534
:101DF00072736F0020202046696E20486572722E33
:101E00005600496E6963696F20486572722E5600EC
:101E100020202046696E205A3A002534642E25641D
:101E2000206D6D00496E6963696F205A3A004D65F7
:101E30007A636C612043C3AD636C69636100436F77
:101E40006D65746572206D657A632E2048657272C7
:101E50002E5600436F6D706F6E656E7465203D0089
:101E6000486572722E56207265696E696369616495
:101E70006F73005265696E69636961720052616EC9
:101E8000646F6D204D6978003A64697361626C65B6
:101E9000003A20656E61626C65004465677261643A
:101EA00061646F005265696E69636961722048659B
:101EB00072722E56004D657A636C610043617267E1
:101EC000617220454550524F4D0047756172646103
:101ED0007220454550524F4D00446573662E205385
:101EE0006F6E6461205A00416A7573746573206176
:101EF00076616E7A61646F730041706700456E634E
:101F0000004445534341524741522046494C414DBC
:101F1000454E544F0043414D424941522046494CA1
:101F2000414D454E544F00526573742E2066C3A137
:101F300062726963610050726563616C2E202420B7
:101F4000416A757374650053656E732E2066696C03
:101F5000616D656E746F0052657472616572004DDB
:101F600036303020423020542569004D3730312042
:101F7000542569004D37303220542569004465737B
:101F80006361726761722066696C2E202A00446565
:101F90007363617267617220746F646F004D3730D4
:101FA00032004361726761722066696C616D656EB3
:101FB000746F202A0043616D626961722066696CEA
:101FC000616D656E746F202A0050757267617220B2
:101FD0006DC3A17300436F6E74696E756172206981
:101FE0006D702E004F50432E205245494E494349B3
:101FF0004F3A00494D5052455349C3934E205041EA
:102000005553414441002020426F7175696C6C61E9
:102010003A20005669672E20467567612054C3A98F
:10202000726D2E3A204F464600313330004245440F
:102030003A203130306B207769746820342E376B4A
:102040002070756C6C2D7570005669672E20467572
:1020500067612054C3A9726D2E3A204F4E0054651B
:102060006D702E204DC3A178696D61003237350047
:1020700054656D702E204DC3AD6E696D61004531A4
:102080003A203130306B207769746820342E376BFA
:102090002070756C6C2D757000462E20416C696D3A
:1020A000656E742E0047656E657269630050726FCD
:1020B000746F636F6C6F00312E300042617564691C
:1020C0006F73003131353230300068747470733A98
:1020D0002F2F7777772E616C6965787072657373CF
:1020E0002E636F6D2F6974656D2F33323936353439
:1020F00030363339362E68746D6C005A4F4E455366
:10210000544152205A5249425F5636004170617222
:1021100063616E646F2E2E2E000000457370657231
:10212000616E646F207061726100696E69636961DC
:102130007220656C2063616D62696F006465206662
:10214000696C616D656E746F0045737065726520B2
:1021500070617261006C69626572617220656C20E9
:1021600066696C616D656E746F000043616C656ECD
:1021700074616E646F20626F7175696C6C6100458B
:10218000737065726520706F72206661766F722E53
:102190002E2E000050756C736520656C20626F7484
:1021A000C3B36E20706172610063616C656E7461AF
:1021B00072206C6120626F7175696C6C61000049FE
:1021C0006E736572746520656C2066696C616D65FF
:1021D0006E746F00792070756C736520656C206279
:1021E0006F74C3B36E007061726120636F6E746947
:1021F0006E7561722E2E2E004573706572652070AB
:102200006172610063617267617220656C2066694A
:102210006C616D656E746F000050756C7361722037
:10222000656C20626F74C3B36E207061726100725E
:1022300065616E7564617220696D7072657369C3E2
:10224000B36E00004573706572616E646F20696DD6
:10225000707265736F726100706172612072656186
:102260006E756461722E2E2E000045737065726566
:1022700020706172610070757267617220656C20F8
:1022800066696C616D656E746F0000496D70726592
:102290007369C3B36E2063616E63656C61646100D2
:1022A0004D323520500A4D32340050617573696EDD
:1022B000672E2E2E006F70656E00545249474745B9
:1022C0005245440066696C616D656E74007A5F709A
:1022D000726F6265007A325F6D696E007A5F6D6958
:1022E0006E00795F6D696E00785F6D696E00526592
:1022F000706F7274696E6720656E6473746F70209E
:102300007374617475730A007C3C3E5E2B3D3F2FF5
:102310005B5D3B2C2A225C000200000000000000F4
:1023200000000000000000000000000000000000AD
:10233000000000000000000000000000000000009D
:1023400000000000000000000007FFC3FF870187B6
:10235000FF0FFCFFFC1E01FF8007FFC3FF87018FFB
:10236000FF1FFCFFFC1E03FFC00000C600C7018C5E
:102370000018000300618300C00001C600C7C18CC3
:102380000018000300618300C000038600C6C18CF2
:102390000018000301806300C000070600C6618CBE
:1023A0000018000301806300C0000E0600C6618CA7
:1023B0000018000301806300C0001C0600C6318FB6
:1023C000FE1FF803018063FFC000380600C6318F8E
:1023D000FE0FFC03018063FF8000700600C6198CAD
:1023E00000000C0301FFE30C0000E00600C6198C9E
:1023F00000000C0301FFE3070001C00600C60D8CBE
:1024000000000C03018063018003800600C60D8C70
:1024100000000C03018063018007000600C6078CE2
:1024200000000C03018063018006000600C6078CD3
:1024300000000C03018063018007FFC3FF86038F48
:10244000FF1FFC03018063018007FFC3FF86038732
:10245000FF1FF803018063018000000000000000FE
:10246000000000000000000000000000000000006C
:10247000000000000000000000000000000000005C
:10248000000000000000000000000000000000004C
:10249000000000000000000000F0004A0110013BB5
:1024A0000130012C01400127015001220170011D62
:1024B0000190011801B0011301C0010E01F00109E2
:1024C00001100204013002FF006002FA009002F5E0
:1024D00000C002F0000003EB004003E6008003E1CF
:1024E00000D003DC002004D700E004D200C005CDFA
:1024F000004006C800D006C3008007BE00F008B93F
:10250000004009B400C009AF00B00AAA00B00BA592
:1025100000D00CA000000E9B00C01096005012913D
:102520000000148C00C0158700B0178200B0197D20
:1025300000D01B7800001E730040206E00902269BE
:1025400000F024640040275F0090295A00E02B55DA
:1025500000102E500020304B0010324600E0334176
:102560000090353C001037370070383200A0392D0C
:1025700000B03A2800A03B2300603C1E00103D192B
:1025800000903D1400103E0F00703E0A00C03E0552
:1025900000003F0000403FFBFF803FF6FFC03FF1DF
:1025A000FF2020506C616E6E6572427566666572C2
:1025B00042797465733A20002046726565204D6546
:1025C0006D6F72793A2000436F6D70696C65643A83
:1025D000204E6F7620203920323032300A00204CD5
:1025E00061737420557064617465643A20323032CE
:1025F000302D31312D3039207C20417574686F7257
:102600003A20285A4F4E45535441522C2048616C71
:102610006C79290A006D61726C696E2D322E302E34
:10262000380A004D61726C696E0020536F667477D2
:102630006172652052657365740A00205761746386
:1026400068646F672052657365740A002042726F78
:10265000776E206F75742052657365740A0020458B
:10266000787465726E616C2052657365740A0050EF
:102670006F77657255700A006175746F25632E67F8
:10268000004732385859004D313030310065727290
:102690006F722077726974696E6720746F20666943
:1026A0006C650A00446F6E6520736176696E672001
:1026B00066696C652E0A004D323900456E6473748C
:1026C0006F70730025532025632025632025632028
:1026D00025630020503A00656E6473746F70732038
:1026E0006869743A200020436F756E7420583A0070
:1026F000453100626564002C2073797374656D2028
:1027000073746F7070656421204865617465725FD1
:1027100049443A2000465547412054C389524D4907
:10272000434100546865726D616C2052756E61772B
:1027300061790043616C656E742E2066616C6C6912
:10274000646F0048656174696E67206661696C65D5
:102750006400202D20496E76616C69642065787470
:102760007275646572206E756D62657220210A0053
:102770004572723A54454D502E204DC38158004D3C
:10278000415854454D50207472696767657265649D
:10279000004572723A54454D502E204D494E004D21
:1027A000494E54454D50207472696767657265647F
:1027B00000202F002042403A0020403A0000100044
:1027C000AA038000400100012C01B0012201400257
:1027D0001001F00202018003F8004004F500E0045B
:1027E000ED009005E4003006DD00E006D70080072C
:1027F000D1003008CC00D008C7007009C300100A0F
:10280000BE00B00ABB00500BB700900CB300D00D57
:10281000AA00B00FA5005010A0001014960090164A
:10282000900010198C00501A8500301C8200702214
:102830007800B023750040256E0020276900A0298C
:102840006400502A5F00902B5A00D02C5500702D48
:102850004F00E02E48005031450030334100D03564
:1028600039006036370010373300F0382D00A039BA
:102870002700803C1C00403D1700F03D1100703ED9
:102880000A00C03E0500003F0000403FFBFF803FC4
:10289000F6FFC03FF1FF526563696E746F004469D3
:1028A00073742E2066696C616D656E746F206D6D3A
:1028B000004361726761206D6D00446573636172EE
:1028C0006761206D6D004469C3A16D6574726F20EE
:1028D00046696C2E004520656E206D6DC2B30057B1
:1028E00061726E696E673A20486F6D696E6720424B
:1028F000756D702044697669736F72203C20310ACF
:1029000000206C696D6974656420746F2000204D2F
:1029100061782000000048420000484200008040EA
:102920000202040000A0400000A04000000040009F
:1029300000A54300009B430000C843FFFFFF436125
:10294000703A003F5A206F7574206F662072616E76
:1029500067652028003F59206F7574206F662072CC
:10296000616E676520282D003F58206F7574206FB9
:10297000662072616E676520282D0050726F626557
:10298000204F6666736574205800656E71756575B5
:1029900065696E672022006F6B00526573656E6417
:1029A0003A2000456E667269616E646F2043616D06
:1029B000612E2E2E0043616C656E74616E646F2013
:1029C00043616D612E2E2E0023646566696E65205D
:1029D00044454641554C545F004B6420004B6920F0
:1029E000004B702000504944204175746F74756E1F
:1029F000652066696E69736865642120507574206E
:102A0000746865206C617374204B702C204B6920B6
:102A1000616E64204B6420636F6E7374616E7473B7
:102A20002066726F6D2062656C6F7720696E746FBF
:102A300020436F6E66696775726174696F6E2E6888
:102A40000A00504944204175746F74756E652066A4
:102A500061696C6564212074696D656F75740A0025
:102A60000A20436C617373696320504944200A0053
:102A7000204B643A2000204B693A2000204B703AEA
:102A800020002054753A2000204B753A2000206D1C
:102A900061783A2000206D696E3A200020643A2067
:102AA0000020626961733A200050494420417574E6
:102AB0006F74756E652073746172740A00504944B6
:102AC000204175746F74756E65206661696C65640C
:102AD000212054656D706572617475726520746F24
:102AE0006F20686967680A00504944204175746F17
:102AF0002D616A7573746500504944204175746F87
:102B000074756E65206661696C656421204261643C
:102B1000206578747275646572206E756D62657279
:102B20000A0020746F6F206C6F6E67206578747276
:102B30007573696F6E2070726576656E7465640A70
:102B4000004D333033205531204525692053256908
:102B500000504944204175746F2D616A7573746526
:102B6000202A005049442D44202A005049442D4930
:102B7000202A005049442D50202A0056656C2E20F2
:102B80007669616A65206D696E00566D696E0056E2
:102B90006D6178204500566D6178205A00566D6150
:102BA00078205900566D61782058004163656C2E7D
:102BB000206D617845004163656C2E206D61785A07
:102BC000004163656C2E206D617859004163656C2E
:102BD0002E206D617858004163656C2E2056696126
:102BE0006A65004163656C2E207265747261632EA4
:102BF000004163656C6572616369C3B36E0024F460
:102C0000D43050C38E20C2A24017828B7011127A2A
:102C1000910D816CD90AA861E108C7586607615116
:102C200043061E4B5D05C145A7041A411104093D29
:102C30009803713931034036DB0265339102D43099
:102C40005402802E1D02632CEE01752AC501B028A6
:102C5000A001102781018F2564012B244B01E02264
:102C60003401AC211F018D200D01801FFC00841E4A
:102C7000ED00971DDF00B81CD200E61BC600201B2C
:102C8000BC00641AB200B219A8000A19A0006A18A0
:102C90009900D117910040178B00B51684003116AA
:102CA0007E00B31579003A157300C7146F005814ED
:102CB0006A00EE1366008813630025135E00C712D6
:102CC0005B006C12570015125400C11151007011B5
:102CD0004F0021114B00D61049008D1047004610BF
:102CE000440002104200C00F4000800F3E00420F1F
:102CF0003C00060F3B00CB0E3800930E37005C0EF5
:102D00003500270E3400F30D3200C10D3100900D57
:102D10003000600D2E00320D2D00050D2C00D90C59
:102D20002B00AE0C2900850C29005C0C2700350C0B
:102D300027000E0C2600E80B2400C40B2400A00B77
:102D400023007D0B23005A0B2100390B2100180BA7
:102D50002000F80A1F00D90A1E00BB0A1E009D0AA7
:102D60001D00800A1D00630A1C00470A1B002C0A74
:102D70001B00110A1A00F7091A00DD091900C4091D
:102D80001900AB091900920917007B0918006309A3
:102D900017004C09160036091600200916000A090A
:102DA0001500F5081500E0081400CC081400B80858
:102DB0001400A4081400900813007D0812006B088A
:102DC00013005808120046081200340811002308A6
:102DD00011001208110001081100F0071000E007AF
:102DE0001000D0071000C0071000B0070F00A107A7
:102DF000100091070E0083070F0074070F0065078E
:102E00000E0057070E0049070E003B070D002E0766
:102E10000E0020070D0013070D0006070D00F90630
:102E20000C00ED060D00E0060C00D4060C00C806F0
:102E30000C00BC060C00B0060C00A4060B009906A2
:102E40000C008D060B0082060B0077060B006C064B
:102E50000B0061060A0057060B004C060A004206EA
:102E60000A0038060A002E060A0024060A001A067E
:102E70000A001006090007060A00FD050900F4050E
:102E80000900EB050900E2050900D9050900D00594
:102E90000900C7050900BE050900B5050800AD0514
:102EA0000800A50509009C050800940508008C058C
:102EB0000800840508007C050800740508006C05FE
:102EC0000700650508005D050700560508004E056A
:102ED00007004705070040050800380507003105D1
:102EE00007002A050700230507001C050600160534
:102EF00007000F0507000805060002050700FB0490
:102F00000600F5040700EE040600E8040600E204EB
:102F10000700DB040600D5040600CF040600C90440
:102F20000600C3040600BD040600B7040600B10491
:102F30000500AC040600A6040600A00405009B04DE
:102F4000060095040500900406008A040500850427
:102F50000500800406007A0405007504050070046D
:102F600005006B04050066040500610405005C04AF
:102F7000050057040500520405004D0405004804EF
:102F80000500430405003E0404003A04050035042E
:102F90000500300404002C04050027040400230469
:102FA00005001E0404001A040400160405001104A0
:102FB00004000D04040009040500040404000004D6
:102FC0000400FC030400F8030400F4030400F0030D
:102FD0000400EC030400E8030400E4030400E0033D
:102FE0000400DC030400D8030400D4030400D0036D
:102FF0000400CC030400C8030300C503030024F449
:1030000004D9201BC40C5C0E9804C4095F02650738
:103010007101F405F900FB04B30048048700C10303
:1030200069005803550003034500BE023A008402BC
:10303000310053022A002902250004022000E40185
:103040001C00C8011900AF01170098011400840189
:103050001300710110006101100051010E004301C5
:103060000D0036010B002B010B0020010B00150198
:1030700009000C01090003010800FB000800F3002F
:103080000800EB000700E4000600DE000600D800A0
:103090000600D2000600CC000500C7000500C200F3
:1030A0000500BD000400B9000400B5000400B10033
:1030B0000400AD000400A9000400A5000300A20064
:1030C00003009F0004009B0003009800030095008C
:1030D000020093000300900003008D0002008B00AB
:1030E00003008800020086000200840003008100C3
:1030F00002007F0002007D0002007B0002007900D8
:1031000002007700010076000200740002007200E5
:103110000100710002006F0002006D0001006C00F0
:1031200002006A00010069000200670001006600F9
:1031300001006500010064000200620001006100FE
:103140000100600001005F0002005D0001005C0002
:1031500001005B0001005A00010059000100580005
:103160000100570001005600010055000100540005
:103170000100530000005300010052000100510003
:103180000100500001004F0001004E0000004E0001
:1031900001004D0001004C0001004B0000004B00FD
:1031A00001004A00010049000100480000004800F9
:1031B00001004700010046000000460001004500F4
:1031C00000004500010044000100430000004300EE
:1031D00001004200000042000100410000004100E7
:1031E0000100400001003F0000003F0001003E00E0
:1031F00000003E0001003D0000003D0001003C00D9
:1032000000003C0000003C0001003B0000003B00CF
:1032100001003A0000003A000100390000003900C6
:1032200001003800000038000000380001003700BD
:1032300000003700010036000000360000003600B4
:1032400001003500000035000000350001003400A9
:10325000000034000000340001003300000033009F
:103260000000330001003200000032000000320094
:103270000100310000003100000031000100300089
:10328000000030000000300001002F0000002F007F
:1032900000002F0000002F0001002E0000002E0073
:1032A00000002E0001002D0000002D0000002D0068
:1032B00000002D0001002C0000002C0000002C005C
:1032C00000002C0001002B0000002B0000002B0050
:1032D00000002B0001002A0000002A0000002A0044
:1032E00000002A0001002900000029000000290038
:1032F000000029000000290001002800000028002B
:10330000000028000000280000002800010027001D
:103310000000270000002700000027000000270011
:103320000100260000002600000026000000260004
:1033300000002600010025000000250000002500F7
:1033400000002500000025000000250001002400E9
:1033500000002400000024000000240000002400DD
:1033600001002300000023000000230000002300D0
:1033700000002300000023000000230001002200C1
:1033800000002200000022000000220000002200B5
:1033900000002200010021000000210000002100A7
:1033A0000000210000002100000021000000210099
:1033B000010020000000200000002000000020008C
:1033C000000020000000200000002000000020007D
:1033D00001001F0000001F0000001F0000001F0070
:1033E00000001F0000001F0000001F0001001E0061
:1033F00000001E0000001E0000001E000000A42CA3
:103400000000841E0000B0120000870A00009E0524
:103410000000E90200007B010000BF000000506FC7
:1034200072206661766F722C207265696E696369BD
:103430006500494D505245534F5241204445544533
:103440004E4944410025533A202553004D554552DD
:103450005441005072696E7465722068616C7465C5
:10346000642E206B696C6C28292063616C6C656428
:10347000210A006563686F3A004572726F723A0004
:1034800042696C696E656172204C6576656C696E27
:103490006720477269643A0A002053697A653A20C6
:1034A0000043616E6E6F74206F70656E207375627D
:1034B0006469722000534420496E69742046616932
:1034C0006C0053442063617264206F6B0A006F705C
:1034D000656E526F6F74206661696C65640A007670
:1034E0006F6C756D652E696E6974206661696C65B7
:1034F000640A004E6F20534420636172640A004DD9
:1035000032332025730046696C652073656C6563F2
:103510007465640A0046696C65206F70656E656449
:103520003A2000454E4420535542524F5554494E7F
:10353000450A002220706F73002220706172656E50
:10354000743A2200535542524F5554494E45204338
:10355000414C4C207461726765743A220053756265
:1035600063616C6C204F766572666C6F770045788E
:10357000636565646564206D617820535542524FE0
:103580005554494E452064657074683A310A0044C8
:10359000656C6574696F6E206661696C65642C206A
:1035A00046696C653A200046696C652064656C6507
:1035B0007465643A006F70656E206661696C65645D
:1035C0002C2046696C653A200057726974696E67F1
:1035D00020746F2066696C653A20006672657368B6
:1035E00000646F696E67004E6F7720002529002503
:1035F0007C00203B2043757272656E74205A002057
:103600003B20456E6400203B205374617274004778
:1036100072616469656E74204D6978200052616E34
:10362000646F6D204D697820004D32342053256C35
:10363000642054256C64004739322E3920452573A7
:1036400000473120462564004739322E39205A255B
:1036500073004731205A3020463230300047312045
:1036600058257320592573204633303030004731B8
:10367000204525642046323030004D313036205010
:10368000256920532569004D3130392053256900C3
:103690004D31393020532569004D323030204425DA
:1036A000730047323852305859004739322E39208A
:1036B0004530205A300A47315A2573004D34323094
:1036C000205330205A300020496E76616C696420A6
:1036D0006578747275646572200020496E76616C3D
:1036E0006964204520737465707065722000204500
:1036F0002073746570706572206E6F7420737065CE
:103700006369666965640A0056652D4A65726B00D7
:10371000565A2D4A65726B0056592D4A65726B00D8
:1037200056582D4A65726B00446573662E20536FA0
:103730006E6461205900446573662E20536F6E6479
:103740006120580045207061736F732F6D6D005AB2
:10375000207061736F732F6D6D0059207061736FEE
:10376000732F6D6D0058207061736F732F6D6D0036
:10377000496E6963696172004D34323800496E697F
:103780006369616C697A617220454550524F4D0002
:1037900046696C616D656E746F005061736F732F55
:1037A0006D6D00446573662E20536F6E6461004139
:1037B0006363656C6572616369C3B36E00416A756A
:1037C000737461722064657366617365730050720F
:1037D00065737320627574746F6E20746F207265E8
:1037E00073756D650A005072657373206275747429
:1037F0006F6E20746F2068656174206E6F7A7A6CCA
:10380000650A004F46460A004661646520486569BE
:103810006768742000426564204C6576656C696E4B
:103820006720004661696C656420746F20656E6175
:10383000626C6520426564204C6576656C696E67D4
:103840000A00496E76616C6964206D6573682E0AA2
:1038500000536F6E646561722050756E746F002541
:10386000532025692F25690050726F62696E6720A9
:103870006D65736820706F696E7420004F666673A3
:103880006574206361746368656420210066616902
:103890006C2C206D616E75616C206C6576656C00BA
:1038A0004661696C21204D6F766520646F776E20CC
:1038B00050726F62652E00546F20636174636820DC
:1038C0006F666673657400202844525952554E291C
:1038D00000473239204175746F20426564204C6581
:1038E00076656C696E67003F20284C2C522C462C64
:1038F0004229206F7574206F6620626F756E647345
:103900002E0A003F2856296572626F7365206C6528
:1039100076656C20696D706C61757369626C652089
:1039200028302D34292E0A00426164205A20766105
:103930006C75650A004E6F2062696C696E65617214
:1039400020677269640A00204D3932205800202017
:103950004D61783A200020204D696E3A2000536F67
:10396000667420656E6473746F70733A2000205A19
:103970003A200020593A200042656420583A20003D
:10398000496D7072657369C3B36E20506175736160
:1039900064610050726F62696E67204661696C6590
:1039A000640A00536F6E64656F2046616C6C6164DD
:1039B0006F004F726967656E20257325732573202C
:1039C0005072696D2E00496E736572742066696C61
:1039D000616D656E7420616E642070726573732012
:1039E000627574746F6E0A0020573A005A38545F3B
:1039F0004D33204C6973746100496D7072696D6953
:103A0000656E646F2E2E2E00220A00556E6B6E6F4F
:103A1000776E20636F6D6D616E643A202200496D90
:103A20007072696D2E2064657364652053442F5550
:103A30005342004D6F7665722025736D6D004D6F9A
:103A400076657220302E316D6D004D6F7665722077
:103A5000316D6D004D6F7665722031306D6D004DAA
:103A60006F76657220656A65730045787472757348
:103A70006F72004D6F766572205A004D6F766572D9
:103A80002059004D6F76657220580000000A0B0225
:103A9000090C0D0E080703040100000000000000DF
:103AA0000000000000000000000000000000000016
:103AB00000000000000000121110000000000000D3
:103AC00000000000000000000000000000000000F6
:103AD0000000002200250028002B002E00310034B9
:103AE0000002010000050108010B01000021002473
:103AF0000027002A002D00300033000101000004DF
:103B00000107010A0105050505070508080808025F
:103B10000202020A0A080804040404010101010166
:103B20000101010303030303030303040707070C55
:103B30000C0C0C0C0C0C0C0202020206060606060B
:103B40000606060B0B0B0B0B0B0B0B0102102020B8
:103B500008081020401020408002010201080402E1
:103B60000101020408102040808040201008040257
:103B700001800402018040201008040201080402B0
:103B800001010204081020408001020408102040B6
:103B90008020453A0020593A0020520045455052B5
:103BA0004F4D20496E697469616C697A65640A00D9
:103BB00048617264636F6465642044656661756C16
:103BC000742053657474696E6773204C6F6164650B
:103BD000640A003B200020204D3630332000202096
:103BE0004D34313220530046696C616D656E74202E
:103BF00072756E6F75742073656E736F723A002004
:103C0000550046696C616D656E74206C6F61642F40
:103C1000756E6C6F6164206C656E677468733A00D2
:103C200020204D3835312058005A2D50726F626572
:103C3000204F66667365740020204D323039205362
:103C4000004175746F2D526574726163743A20532C
:103C50003D3020746F2064697361626C652C203183
:103C600020746F20696E7465727072657420452DC2
:103C70006F6E6C79206D6F7665732061732072654D
:103C800074726163742F7265636F766572002020B1
:103C90004D3230382053005265636F7665723A209A
:103CA000533C6C656E6774683E20463C756E697463
:103CB000732F6D3E0020570020204D3230372053A7
:103CC00000526574726163743A20533C6C656E6790
:103CD00074683E20463C756E6974732F6D3E205AA1
:103CE0003C6C6966743E0020204D34313320530013
:103CF000506F7765722D4C6F7373205265636F76CA
:103D00006572793A0020204D3330312050005049FF
:103D1000442073657474696E67733A00204600200E
:103D2000480020204D3134352053004D61746572B8
:103D300069616C2068656174757020706172616D75
:103D400065746572733A0020204D36363600456E34
:103D50006473746F702061646A7573746D656E74DA
:103D60003A00204A002020473239205720490020BD
:103D7000204D3432302053004175746F2042656409
:103D8000204C6576656C696E673A0020204D3230B4
:103D900036205800486F6D65206F66667365743A0B
:103DA0000020204D323035204200416476616E6340
:103DB00065643A20423C6D696E5F7365676D656E40
:103DC000745F74696D655F75733E20533C6D696EF9
:103DD0005F66656564726174653E20543C6D696E12
:103DE0005F74726176656C5F666565647261746547
:103DF0003E20583C6D61785F785F6A65726B3E204B
:103E0000593C6D61785F795F6A65726B3E205A3C00
:103E10006D61785F7A5F6A65726B3E20453C6D61CB
:103E2000785F655F6A65726B3E0020540020204D0C
:103E3000323034205000416363656C65726174698F
:103E40006F6E2028756E6974732F7332293A205073
:103E50003C7072696E745F616363656C3E20523CB6
:103E6000726574726163745F616363656C3E205454
:103E70003C74726176656C5F616363656C3E0020C3
:103E8000204D3230312058004D6178696D756D20BC
:103E9000416363656C65726174696F6E2028756E2D
:103EA0006974732F7332293A0020204D3230332049
:103EB00058004D6178696D756D2066656564726145
:103EC0007465732028756E6974732F73293A0053D3
:103ED000746570732070657220756E69743A002085
:103EE000440020204D32303020530020446973615B
:103EF000626C65640A0046696C616D656E7420735E
:103F0000657474696E67733A0020204D313439202E
:103F100043203B20556E69747320696E2043656CA5
:103F2000736975730A0020286D6D290020204732BF
:103F300031202020203B20556E69747320696E204B
:103F40006D6D000000FA430000FA430000A040003D
:103F500000C8420000A0420000A0420000C8430088
:103F600000C843B80B0000B80B000064000000104C
:103F7000270000005102330211241FBECFEFD1E20F
:103F8000DEBFCDBF00E00CBF13E0A0E0B2E0E2E88E
:103F9000F6EA02E00BBF02C007900D92AE34B10703
:103FA000D9F726E1AEE4B3E001C01D92AC3FB20701
:103FB000E1F71FE1CBEBDFE100E006C0219701094B
:103FC000802FFE010F949750CA3BD10780E008076D
:103FD000A9F70F94273B0D942F530C9400002F92B8
:103FE0003F924F925F926F927F928F929F92AF9289
:103FF000BF92CF92DF92EF92FF920F931F93CF93D6
:10400000DF93CDB7DEB7A7970FB6F894DEBF0FBE2C
:10401000CDBF8FA32091300F2EA321E02093300F2E
:10402000809143078D3409F4D0C3843511F40C9486
:104030008531873411F00C94B03180914107909113
:1040400042078B31910509F463C1F4F4883091057E
:10405000D1F14CF497FDB5C382309105A4F10497DA
:1040600009F412C1AEC38B30910509F44CC18531FE
:10407000910511F40C94B2310A9709F0A2C381E0C2
:104080000E9494ED0C94B2318A32910509F4B9C2C0
:1040900054F48D31910509F465C10CF453C14E9768
:1040A00009F47EC18EC38B35910509F4F4C18C35BA
:1040B000910509F4F5C18A35910509F082C3109282
:1040C000600F0C94B23180917606813011F00C941F
:1040D000B23119821A821B821C82CE0101965C01C8
:1040E0002AE0E22E27E0F22E04E712E033E9C32EA5
:1040F00032E1D32E912C88E5890D0F94900FF501B4
:1041000081935F01882311F10F94350D2B013C0140
:10411000892D0E9437FE882351F0F80120813181DA
:1041200042815381C301B2010F94A05009C0F6012E
:104130002081318142815381C301B2010F949F508C
:10414000F70160837183828393830AC0F8018081C1
:104150009181A281B381F70180839183A283B3838C
:104160009394F4E0EF0EF11C0C5F1F4F24E0C20E9D
:10417000D11C33E09312BFCF85E40F94900F8C8352
:10418000882301F10F94350D6B017C0183E00E94BF
:1041900037FE882371F02091800230918102409196
:1041A000820250918302C701B6010F94A0506B01A7
:1041B0007C01C0921607D0921707E0921807F09280
:1041C000190710C08091800290918102A091820213
:1041D000B09183028093160790931707A093180756
:1041E000B093190780916116882381F0809167133D
:1041F00082FF0CC08C81882349F08981811103C022
:104200008A81882319F080E00F94E11E40E050E09D
:10421000BA0186E40E9405BE20E030E0A9010F94B7
:104220002352181684F40F94350D20E030E040E757
:1042300052E40F9423516093670270936802809355
:10424000690290936A0280914016882311F40C94BD
:10425000ED3185E40F946C0D882311F40C94ED314D
:1042600088E50F946C0D81110C94ED3189E50F9464
:104270006C0D81110C94ED318AE50F946C0D811158
:104280000C94ED310C94BB3180E50F94900F882392
:1042900029F00F94E5166B017C0103C0C12CD12CD1
:1042A000760183E50F94900F882361F00F94350D0C
:1042B00020E030E04AE754E40F94024A0F949C5106
:1042C0006B017C010E94BAB180912004811105C06C
:1042D00060E089ED96E00E94028E0F940E29C60ED2
:1042E000D71EE81EF91E0F940E29DC01CB018C1994
:1042F0009D09AE09BF09B7FD02C00C94B23180E040
:104300000E94DC36F0CF80E00E9494ED0C94B23134
:104310000F94DD2281110C94B2318CE0ECE9F2E0D3
:10432000DE01119601900D928A95E1F760E070E050
:1043300080E50F94CF04BE016F5F7F4F0E945D89BF
:104340000C94B23180912E0F8770873011F00C944D
:10435000183260E08FE40F949D0F81110C94B231FC
:104360000C9418320F940E296093B2167093B31602
:104370008093B4169093B5160F94DD2281110C949E
:10438000B2318091650F882311F40C94883260E07B
:104390008FE40F949D0F81110C94B2310C948832EC
:1043A0002091220F3091230F4091240F5091250F1F
:1043B00060917402709175028091760290917702FB
:1043C0000F94A050AB01BC0188E50E9405BE698333
:1043D0007A838B839C832091260F3091270F409105
:1043E000280F5091290F6091780270917902809185
:1043F0007A0290917B020F94A050AB01BC0189E539
:104400000E9405BE6D837E838F839887BE016B5F9C
:104410007F4FCE0101960F946017882311F40C94FE
:10442000B23180E00E94BEF00E9498BB61E085E45A
:104430000F949D0F01E021E0482FBE016B5F7F4F7D
:10444000CE0101960F9495236B017C019B01AC0179
:104450000F94A152811119C049815A816B817C81CD
:1044600088E799E30E9403F54D815E816F8178852D
:1044700083E799E30E9403F5B701A6018EE699E36D
:104480000E9403F58AE00E94B0350E947FBB0E9423
:104490004D840C94B2318FE08093600F0C94B23154
:1044A00080914007882349F1893009F0A6C08FED3B
:1044B000A82E82E0B82E94E7E92E92E0F92ED12CB6
:1044C00000E010E0F50181915F010F94900F8823C7
:1044D00069F00F94350DF7016083718382839383B4
:1044E000133011F401E002C0DD24D3941F5FF4E027
:1044F000EF0EF11C143031F775C0BFED2B2EB2E07A
:104500003B2E16E7E12E1FE0F12E24E732E03DA31B
:104510002CA303E9C02E02E1D02E00E010E0F1014F
:1045200081911F010F94900F882309F44AC00F94C2
:10453000350D2B013C01133049F0F601208131810A
:10454000428153810F949F502B013C01ECA1FDA1AE
:104550002081318142815381C301B2010F949F5068
:104560004B015C012DEB37E346E855EB0F942352EA
:1045700087FD0AC02DEB37E346E855E3C501B401DA
:104580000F949C491816ECF4133051F440928002B9
:1045900050928102609282027092830201E011C007
:1045A000A5019401F70160817181828193810F944B
:1045B000A050F7016083718382839383812F0E94CF
:1045C000ABB61F5FF4E0EF0EF11C2CA13DA12C5FF8
:1045D0003F4F3DA32CA334E0C30ED11C143009F08F
:1045E0009ECF05C0DD2019F00E944B8406C0002339
:1045F00021F080E892E00E945DB40E944D840C940A
:10460000B23180917606813011F00C94B23189E498
:104610000F94900FE82E882321F00F94310D082F6E
:1046200001C000E08AE40F94900FF82E882321F057
:104630000F94310D182F01C010E0EE2011F004305E
:1046400020F4FF2041F0143030F083EE96E00E9419
:1046500042F40C94B23180E1E4E7F2E0AAE0B7E082
:1046600001900D928A95E1F7EE2019F1602F000F6D
:10467000770B880B990B0F94A3492091301630913A
:10468000311640913216509133160F94024A209100
:1046900006043091070440910804509109040F94D6
:1046A000A05060930A0770930B0780930C079093B8
:1046B0000D07FF2019F1612F110F770B880B990B54
:1046C0000F94A34920913416309135164091361637
:1046D000509137160F94024A20910A0430910B042E
:1046E00040910C0450910D040F94A05060930E075C
:1046F00070930F07809310079093110760E080E597
:104700000F949D0F8823C1F1EE20D1F02091220F4C
:104710003091230F4091240F5091250F60910A078B
:1047200070910B0780910C0790910D070F949F508B
:1047300060930A0770930B0780930C0790930D0703
:10474000FF20D1F02091260F3091270F4091280FA4
:104750005091290F60910E0770910F0780911007FB
:10476000909111070F949F5060930E0770930F075D
:10477000809310079093110740E050E0BA0186E45F
:104780000E9405BE6B017C0120E030E0A9010F947E
:10479000235218164CF420E030E040E752E4C70101
:1047A000B6010F94235103C060E070E0CB01698330
:1047B0007A838B839C83CE0101960E94B7BB0C94B5
:1047C000B2310F94FE1F0C94B23180914107909149
:1047D00042078B39910509F4F0C50CF015C18335FA
:1047E000910509F429C60CF082C08A31910509F4BB
:1047F00046C3BCF58431910509F499C27CF481313A
:10480000910509F480C22CF4029708F444C20C9478
:104810008231429709F417C60C9482318731910591
:1048200009F4BAC294F48531910509F4B1C24697EE
:1048300011F00C9482310E9447F880916713877FB2
:104840008062809367130C94B2318831910509F42A
:10485000B8C2499711F00C9482310F94F5030C946F
:10486000B2318032910509F482C3F4F48D3191059F
:1048700009F466C384F48B31910509F40EC34C9797
:1048800011F00C94823180913E0790913F070E9475
:10489000ACF90C94B2318E31910509F458C34F979D
:1048A00009F48EC30C9482318D34910509F437C418
:1048B0006CF48B34910509F42EC48C34910511F0FD
:1048C0000C9482310E94FD850C94B23181359105A2
:1048D00009F49CC58235910511F00C9482318091C8
:1048E000600F8F7D80618093600F0C94B2318037B0
:1048F000910509F410C5E4F58A36910509F46AC4F6
:10490000CCF48C35910509F4F7C554F48435910540
:1049100009F499C58535910509F4CBC50C9482310C
:104920008836910509F4FFC38936910509F43EC420
:104930000C9482318D36910509F416C47CF48B36C3
:10494000910509F485C48C36910511F00C948231DF
:1049500010922F0F109265020C94B2318E36910591
:1049600009F481C48F36910509F490C40C94823106
:104970008737910509F423C73CF58337910509F47E
:1049800059C68CF48137910509F4CEC4823791055C
:1049900011F00C9482310F94452B84EF92E10E9428
:1049A00017A40C94B2318537910509F4C5C6863732
:1049B000910511F00C94823100913E0710913F0750
:1049C00094E0F12C40E0DFC68D37910509F41BC55A
:1049D0008CF48837910509F4F5C68937910511F0F3
:1049E0000C9482311092A2041092A1040E94658559
:1049F0000C94B2318C38910509F4BBC4813991050E
:104A000009F4E8C60C9482318139E1E09E0711F483
:104A10000C947D2F0CF087C08E3C910511F40C9402
:104A2000662DD4F58E3B910509F4C4C4C4F4843AD0
:104A3000910509F45FC734F4833A910509F43EC740
:104A40000C948231863A910509F467C7873A91053B
:104A500011F00C9482310F94E2040C94B2318B3C2F
:104A6000910509F4E3C754F4883C910509F458C74B
:104A7000893C910509F499C70C9482318C3C9105CD
:104A800011F40C94352D8D3C910511F00C9482316C
:104A90000F94F5160C94B2318D3D910511F40C94E0
:104AA000492EF4F4813D910511F40C94122E64F416
:104AB0008F3C910511F40C94842D803D910511F4E7
:104AC0000C94C82D0C948231833D910511F40C9403
:104AD0001F2E8C3D910511F40C94222E0C948231E2
:104AE0008D3221E0920711F40C94FA2E6CF482328C
:104AF000E1E09E0711F40C949E2E8C32914011F44B
:104B00000C94E52E0C9482318F3221E0920711F43F
:104B10000C947A2F8039914011F00C9482310E94CC
:104B2000BAB10C94B231883FE1E09E0711F40C94C5
:104B300085300CF057C0853A21E0920711F40C94AF
:104B4000AF2F2CF58C39E1E09E0711F40C94892FDE
:104B50007CF4823921E0920711F40C94832F8A3976
:104B6000914011F00C9482310E94D0340C94B231F7
:104B70008D39E1E09E0711F40C944731843A91405D
:104B800011F00C9482310F94BA0D0C94B231853F20
:104B900021E0920711F40C947F307CF48C3AE1E030
:104BA0009E0711F40C942230843F914011F00C9434
:104BB00082310E947A650C94B231863F21E09207DF
:104BC00011F40C948230873F914011F00C948231A3
:104BD00061E083E50F949D0F91E089270F94B73032
:104BE0000C94B2318E3BE2E09E0711F40C94333109
:104BF0002CF58B3522E0920711F40C94A2307CF452
:104C00008C30E2E09E0711F40C9495308835924088
:104C100011F00C9482310F94E3020C94B2318A3972
:104C200022E0920711F40C941A318D3B924011F05E
:104C30000C9482310F9492010C94B231873EE3E0E0
:104C40009E0711F40C943931CCF4833523E092079C
:104C500011F40C943631803A934011F00C94823167
:104C600020913E0730913F07909167139260909397
:104C70006713C9010E94ACF90C94B231883EE3E09D
:104C80009E0711F40C946131893E934011F40C9409
:104C900064310C94823180E50F94900F882329F0C1
:104CA0000F94E5166B017C0103C0C12CD12C760159
:104CB00083E50F94900F882361F00F94350D20E069
:104CC00030E04AE754E40F94024A0F949C516B0180
:104CD0007C010E94BAB180913E0790913F070097F6
:104CE00021F061E00E94988E05C060E08CEF96E0B4
:104CF0000E94028E40E0C701B6010E94603C0F9402
:104D00004F200C94B2318091440784FF02C00C9470
:104D10008B328091460787FF02C00C948B328091C2
:104D20004707837011F00C948B320C94A932809158
:104D3000671383FF25C08FE297E00E9442F48091C1
:104D4000671383FF17C086E893E10E9477968BE193
:104D5000E6E8F3E1DE01119601900D928A95E1F704
:104D600060E070E0CE0101960E94ADFCCE0101969C
:104D70000F94CA0F80E297E00E9442F40C94B23183
:104D80000E9438F580E497E00E9442F40C94B2311E
:104D90000E9448FC0C94B231E0913E07F0913F072D
:104DA0008081882329F0803209F410823196F8CF6F
:104DB00060E080913E0790913F070E94F4F90C94C7
:104DC000B23183E50F94900F882321F00F94FD0CEE
:104DD0000E9433C484E50F94900F8823A9F00F94A8
:104DE000FD0C6B017C010E94A885C0925604D092F4
:104DF0005704E0925804F0925904CD28CE28CF28C9
:104E000019F081E08093590F80916B0E8823F9F09F
:104E100080E090E0A8E4B2E488A399A3AAA3BBA38E
:104E20001C8E1D8E1E8E1F8E19821A821B821C8262
:104E300000E010E020E0AE01405E5F4FBE01645E26
:104E40007F4FCE0101960F9471100C94B2310E94E5
:104E5000F534882381F00E9458F80E94C38585EFBD
:104E60009FE00E94FDF710924807109249071092A8
:104E70004A0710924B070F944F200C94B231809147
:104E8000671383FD02C00C94B23183E50F94900F39
:104E900081110C94B9320C94B23183E40F946C0DEF
:104EA000882319F184E597E00E9442F48091CD14A3
:104EB000882391F0BE016F5F7F4F8AEC94E10E94DE
:104EC00043968E010F5F1F4FF80181918F01882358
:104ED00039F00E94B035F8CF8AE497E00E9442F49E
:104EE0008AE00E94B0350C94B2318091671382FF42
:104EF00021C083E697E00E9442F4609163137091B1
:104F0000641380916513909166134AE00E94B7354F
:104F10008FE20E94B03560915F13709160138091B1
:104F20006113909162134AE00E94B7350E94B53632
:104F30000C94B23185E797E00E9442F40C94B231B0
:104F4000809167138E7F809367130C94B2318091A8
:104F5000671383FD02C00C94B2310F94E71F809158
:104F60003E0790913F070E94D2FB0C94B231809192
:104F7000671382FD0E94BAB18091671383FD02C05E
:104F80000C94B23160E080E50F949D0F182F682FCC
:104F900080913E0790913F070E94F4F983E50F94BA
:104FA000900F882321F00F94FD0C0E9433C40E94BF
:104FB00058F811110C94B2310E94C3850C94B2318F
:104FC0000E9474857B018C0120E831E541E050E0CE
:104FD0000F94F24FC9016DE671E00F946F504B01D1
:104FE0005C01C801B70120E13EE040E050E00F94D1
:104FF000F24FCA01B90128E130E040E050E00F94DF
:10500000F24F762E672EC62ED72EACE32A2E312CE9
:10501000412C512CC801B701A20191010F94F24F0C
:10502000F62EE72ECA01B901A20191010F94F24FA9
:10503000CB018E010F5F1F4F8114910499F0EF9205
:10504000FF927F936F936F927F92BF92AF929F92E6
:105050008F9286E897E09F938F931F930F930F94FF
:10506000344913C0A114B104B1F0EF92FF927F93C1
:105070006F936F927F92BF92AF928AE897E09F936F
:105080008F931F930F930F9434490FB6F894DEBF9C
:105090000FBECDBF30C0CD2879F0EF92FF927F9345
:1050A0006F936F927F928EE897E09F938F931F93F9
:1050B0000F930F943449E9CF892B69F0EF92FF9257
:1050C0007F936F9382E997E09F938F931F930F9342
:1050D0000F943449DACFEF92FF9286E997E09F93DD
:1050E0008F931F930F930F9434490F900F900F904D
:1050F0000F900F900F9060E0C8010E94988E0E9460
:1051000038F5B8018AE997E00E9421F58AE00E940B
:10511000B0350C94B2310E94C3850C94B2310E9418
:1051200012860C94B23180918F0D83FF02C00C94D3
:10513000B23189E40F94900F882311F40C94BE329D
:105140000F940D0D90E01816190614F481E090E00C
:1051500026E0289FF001299FF00D1124EE59F94E09
:10516000808191810C94C93280918F0D83FF02C0A0
:105170000C94B23189E40F94900F882311F40C94AD
:10518000D0320F940D0D90E01816190614F481E03A
:1051900090E026E0289FF001299FF00D1124EE59A0
:1051A000F94E8081918110E00C94E1320E940EFE54
:1051B000182F87FD0AC087E999E20E9442F4812FE7
:1051C0000E94919C8AE00E94B0353EA13093300F3E
:1051D0000C946D3460E080E50F941F1981110C94DC
:1051E000B23181E40F946C0D882329F06091250879
:1051F000062F10E002C00FEF10E089E40F94900F2B
:10520000882399F00F940D0D90E01816190614F4E8
:1052100081E090E026E0289FF001299FF00D112405
:10522000EE59F94E0481158108C083E50F94900F63
:10523000882319F00F94FD0C8B01B8010F3F110565
:1052400019F010F06FEF70E0609325080C94B23104
:1052500060E080E50F941F1981110C94B231109217
:1052600025080C94B2318EE40F94900F882311F42A
:105270000C94B2310F94FD0C6093D0077093D1075A
:105280008093D2079093D3070C94B23183E50F94A7
:105290006C0D882331F060E083E50F941F19809333
:1052A0008F0D0E9438F58BEC97E00E9442F48091BC
:1052B0008F0D882369F1FBE7EF2EFBE0FF2E00E066
:1052C00010E020E080918F0D90E0A0E0B0E0002E93
:1052D00004C0B695A795979587950A94D2F780FF55
:1052E0000EC0DD24D394D20E222319F08CE20E944A
:1052F000B035F701859194910E9442F42D2D0F5FF6
:105300001F4F82E0E80EF11C05301105D9F6E8CDFB
:1053100087EC97E0E3CD41E060E070E082ED97E05C
:105320000E943CF50C94B23183E50F94900F8823D2
:1053300081F00F940D0D282F30E02D33310524F42A
:10534000809300020C94B2318CE3809300020C94A1
:10535000B2310E9438F54091000250E060E070E008
:1053600080EE97E00E94E5F48AE00E94B0350C944C
:10537000B23180918F0D83FF02C00C94B23189E469
:105380000F94900F882311F40C9422330F940D0D79
:1053900090E01816190614F481E090E026E0289FAA
:1053A000F001299FF00D1124EE59F94E62817381AD
:1053B0000C942C330E943DC2D5C783E50F94900F07
:1053C000882309F4CFC70F940D0D182F90E0CD97C7
:1053D0000CF01CE3109353030F940E296B017C0116
:1053E000212F30E0A8EEB3E00F944650C60ED71E32
:1053F000E81EF91EC0924F03D0925003E092510371
:10540000F0925203AFC70F94F503ACC70E94549DAE
:105410000E9412860E94CBB10E94193568EE73E09B
:1054200080E090E00E941EF40E941C3560E087EE50
:1054300097E00E94028E96C78091600F8F7E8062F7
:105440008093600F8FC783E50F94900F8823E9F056
:105450000F940E296093B2167093B3168093B4160E
:105460009093B5160F94350D20E030E04AE754E4F0
:105470000F94024A0F949C516093010270930202B0
:1054800080930302909304026DC78091440784FFC8
:1054900002C00C943D338091460787FF02C00C94F4
:1054A0003D3380914707837011F00C943D330C9489
:1054B0006F3383E50F946C0D882309F453C70F9461
:1054C0000E296093B2167093B3168093B41690931E
:1054D000B5160F94350D20E030E04AE754E40F9400
:1054E000024A0F949C516093540370935503809328
:1054F00056039093570336C70E940EFE87FD32C7AE
:105500009091440794FD04C09091460797FF0AC00C
:105510007FEDC72E72E0D72EE0E9EE2EEDE0FE2EF5
:1055200010E009C090914707937091F7682F81E0D0
:105530000F94AA1617C7F60181916F010F94900F6F
:10554000882309F46DC0133009F063C00F94350D42
:105550004B015C0120E030E040EA51E40F949C49AB
:1055600087FF4EC0A50194016091B00D7091B10DFF
:105570008091B20D9091B30D0F9423512B013C01FA
:105580009B01AC016091090870910A0880910B0899
:1055900090910C080F94024A6093090870930A08CE
:1055A00080930B0890930C08A30192016091C00DA9
:1055B0007091C10D8091C20D9091C30D0F94024A5C
:1055C0006093C00D7093C10D8093C20D9093C30D75
:1055D0006091190870911A0880911B0890911C081D
:1055E0000F94A149A30192010F94024A0F949C5178
:1055F0006093190870931A0880931B0890931C08F5
:105600008092B00D9092B10DA092B20DB092B30DF8
:1056100007C00F94350DF701648B758B868B978BC4
:105620001F5FF4E0EF0EF11C143009F084CF0E94EC
:1056300096B198C68EE399E00E9442F460E08EE253
:1056400099E00E940EC860E089E199E00E940EC8CE
:1056500061E082ED9EE10E940EC861E08EE099E07B
:105660000E940EC861E08EEF98E00E940EC860E0D4
:1056700085EF98E00E940EC861E08BEE98E00E94F2
:105680000EC861E081EE98E00E940EC861E08AEDEC
:1056900098E00E940EC861E082ED98E00E940EC87A
:1056A00061E084EC98E00E940EC860E086EB98E030
:1056B0000E940EC860E087EA98E00E940EC860E091
:1056C00089E998E00E940EC860E083E898E00E94B3
:1056D0000EC860E082E798E00E940EC860E083E6B2
:1056E00098E00E940EC861E08CE598E00E940EC828
:1056F00060E087E498E00E940EC860E089E398E0EB
:105700000E940EC860E086E298E00E940EC860E049
:1057100089E198E00E940EC860E084E198E00E9470
:105720000EC861E087E098E00E940EC860E083EF59
:1057300097E00E940EC816C680913E0790913F07E1
:10574000009709F498CBFC012081222309F493CB24
:1057500060E00E94988E06C6F8018081282F2B7F7A
:105760002134A1F08035F1F4F801818180538A3031
:10577000C8F498012E5F3F4F89012F5F3F4FF8011A
:1057800080818032C9F3915039F70CC021812133D7
:1057900049F4813421F0853461F741E0EACFFF24F8
:1057A000F394E7CF41110E9438F5FF2021F085E105
:1057B0009AE00E9442F4C8010E94BB36D3C50E9401
:1057C0002A85D0C581E08093A2048093A1040E9421
:1057D0006585C8C560E070E083E50F9410198230DC
:1057E00038F00E9434F589E19AE00E9442F4BAC58B
:1057F0008C01112788E40F94900F8823E1F00F9417
:10580000310D8A3A910544F00F94310D8530914065
:1058100034F40F94310D05C08AEA90E002C084E0B0
:1058200091E026E0209FF001219FF00D1124EE5918
:10583000F94E9183808382E40F94900F8823D9F0EE
:105840000F94310D059744F00F94310D8937910570
:1058500034F40F94310D05C085E090E002C088E774
:1058600090E026E0209FF001219FF00D1124EE59D9
:10587000F94E9383828386E40F94900F882309F472
:1058800071C50F94310D97FD09C00F94310D8F3FF5
:10589000910509F034F40F94310D05C080E090E0DB
:1058A00002C08FEF90E026E0209FF001219FF00DD5
:1058B0001124EE59F94E9583848354C560E070E05D
:1058C00083E50F9410198C01833091056CF460E02E
:1058D00070E080E50F9410191127F801E253FC4F96
:1058E00080830F941B153EC541970CF43BC50F9464
:1058F000B31538C56FEF7FEF83E50F94101997FD4F
:1059000007C0803191050CF02DC50E9437ED2AC5E6
:1059100080916C080E9437ED25C50F949B0522C528
:105920000E940EFE182F87FD1DC50091750F84E49F
:105930000F94900F882309F4D5C60F94350D6B0191
:105940007C0120E030E0A9010F949C49882339F1C3
:1059500024E01202F0011124EF58F04FC082D182EE
:10596000E282F38220E030E0A9016091710F709132
:10597000720F8091730F9091740F0F949C49811155
:105980000CC080E090E0A0EEBFE38093710F909395
:10599000720FA093730FB093740F01E0A3C680E061
:1059A0008093750F0E94E8AFDDC40E940EFE87FD54
:1059B000D9C45FEDC52E52E0D52E60E9E62E6DE02C
:1059C000F62E10E0F60181916F010F946C0D882383
:1059D00031F10F94350D6C8F7D8F8E8F9F8F80E10D
:1059E000E8EAF2E0DE01119601900D928A95E1F766
:1059F0009E012F5F3F4F4BE35AE0612FCE014C9643
:105A00000E9486B06C8D7D8D8E8D9F8D0F949C51E4
:105A1000F70160837183828393830E944FB11F5F7C
:105A2000F4E0EF0EF11C143069F69CC40E940EFEE7
:105A300087FD98C44FEDE42E42E0F42E00E91DE00E
:105A4000F70181917F010F946C0D882339F00F9439
:105A5000350DF80164A375A386A397A30C5F1F4FB0
:105A6000FDE0003A1F0761F77DC48091450787FD7F
:105A70003EC6809146078E7009F039C64091C40D2C
:105A80005091C50D6091C60D7091C70D88E49AE0E4
:105A90000E9403F54091C80D5091C90D6091CA0D47
:105AA0007091CB0D89E99BE30E9403F54091CC0DE9
:105AB0005091CD0D6091CE0D7091CF0D8AE29EE395
:105AC0000E9403F58AE00E94B0354CC432E8E32E10
:105AD0003FE0F32E10E088E5810F0F946C0D8823D2
