:100000000C94A81F0C94D91F0C94D91F0C94D91FC1
:100010000C94D91F0C94D91F0C94D91F0C94D91F80
:100020000C94D91F0C94D91F0C94D91F0C94D91F70
:100030000C94D91F0C94D2770C94D91F0C94D91F0F
:100040000C94D91F0D94D82F0C94D91F0C94D91F40
:100050000C94D91F0C94D91F0C9436AB0C94887750
:100060000C94D91F0C94683C0C945E3C0C94D91FE2
:100070000C94D91F0C94D91F0C94D91F0C94D91F20
:100080000C94D91F0C94D91F0C94D91F0C94D91F10
:100090000C94D91F0C94D91F0C94D91F0C94D91F00
:1000A0000C94D91F0C94D91F0C94D91F0C94D91FF0
:1000B0000C94D91F0C94D91F0C94D91F0C94D91FE0
:1000C0000C94D91F0C94D91F0C94D91F0C94D91FD0
:1000D0000C94D91F0C94D91F0C94D91F0C94D91FC0
:1000E0000C94D91F063A0B3A103A1A3A243A9D3A20
:1000F0002E3A363A3E3A483A523A5C3A6B3A753AB8
:100100009D3A7F3A893A933AA03FBE3DF73DDC3FA6
:10011000F73DF73DF73DF73DF73DF73DF73DF73D3F
:10012000F73DF73DF73DF73DF73DF73DF73DF73D2F
:10013000F73DF73DF73DF73DF73DF73DF73DF73D1F
:10014000F73DF73DD63FF73DF73DF73DF73DF73D2E
:10015000F73DF73DF73DAF3FF73DF73DF73DF73D45
:10016000F73DF73DF73DF73DF73DF73DF33FF43DF4
:10017000CCDAD9DAEEDAFBDA18DB2DDB3ADB4BDB53
:100180005CDB75DB8EDBA7DBC0DBDDDBFADB9D0137
:10019000EF017902770223010B022F01FF01090110
:1001A0002B013D02AB01BD01ED00010151024702EF
:1001B000CD01A1016D0169019101B702FF00A50206
:1001C0009501CD015301E901E5010C946A900C946D
:1001D00080DA0C9417D40C9485D40D946F370C945A
:1001E000063A0C945C3A0C9473D40D941C210C9434
:1001F000753A0C94A6D30C9464500C94354C0D9421
:100200008B370D945E370D94B4040C94EE4B0C9424
:100210005F900D94461A0C94F33F0C9490980C94B4
:1002200078880C947F3A0C94893A0C94104F0C9473
:100230002E770C94AED40C940B3A0C9418DB0C94DF
:10024000718C0C9472D50D943D1A0C9454D50C9469
:10025000FED30C944A3D0D94611A0C94159A0D949A
:10026000431A0C94DC4B0C9475DB0C94103A0C94F0
:10027000A7DB0C94CCDA0C9466910C9478D30C9494
:10028000A03F0C941D9A0C94119A0C94AD540C94AC
:10029000D9DA0C947FD40C9434990C9467D40C94D0
:1002A0000D9A0C949DD40D9499370D94AE040C9432
:1002B0000F910C943B900C948EDB0C94B23C0C94FC
:1002C000DDDB0C94594C0C94395A0C949A510C94D3
:1002D0003E3A0D947D370D94B2040D9477370C940B
:1002E0003ED40C9481D50C94274F0C94F8D70C94E1
:1002F0007B460C94DE4E0C94474C0C943ADB0C94E9
:10030000933A0C945FD40C94FBDA0D94BD020C94D8
:10031000243A0C94A3D40C947F540C94CE430C94A4
:1003200002970D9481370C94D8960D9493370C94C2
:100330002D9A0C94CD4E0D94FF230D94541A0C94C9
:10034000E7430D9473370C9468900D945A220D94E2
:10035000660F0C94523A0D944C1A0C94FD4E0C946A
:100360004E3D0D9460220C9479D40C94EEDA0C94EA
:100370000C4C0D946A0F0D9410210D946C370C9455
:10038000634C0D944D0F0C946F460C942DD30C942C
:1003900057950D94A7010C9491D40D94A6370D9404
:1003A000550F0C94684C0C94DC3F0C94F43D0C9469
:1003B0002FD40C947C880C9493D30C9476880C9452
:1003C00096540D94CC250C944BDB0D94A1370C94D2
:1003D00050460D949D370C94199A0C94124C0D9420
:1003E000341A0C94BE3D0C94483A0C9497D40C9457
:1003F000D2D30C94219A0C94E3930C94488A0D94D4
:100400004F1A0C9420D40C944B480C943C900C94B0
:10041000F79C0C9461500D94401A0D94FC230C949D
:10042000C0DB0C948DD50C94BB430C945C460C94AF
:10043000414C0C94359A0C94F73D0C9484DD0C944B
:10044000184C0D94C23F0D945C140C94319A0C948A
:10045000E5D30C9474880C947C900C9476B20C9434
:1004600058770C9446D30C9434530C94259A0C94DE
:100470006C900D94A43F0C9475460D94491A0C94FD
:10048000CC400C948FDA0C943B4C0C94363A0D947F
:1004900066370C946A400D9490140C94BE970C949B
:1004A0005FD30D9462370C944B3D0C94AF3F0C948A
:1004B000C84E0C947A880D94B4220C946D4C0C9414
:1004C000348C0C94AF3C0C945E4C0D94B0040C94A2
:1004D0004D4C0C9446D60C94F9960C94C34E0D9446
:1004E0008D040C946B3A0C948BD40C949D3A0D941F
:1004F000371A0D943A1A0C944AB20C9433D50C94D2
:1005000066920C941A3A0D94AC040C94D63F0C9459
:10051000534C0C94F5430C94DA960C94064F0C94BF
:10052000D8440C942DDB0C94FADB0C946DD40C9411
:10053000004C0C94D24E0D945D220C945F910C945F
:100540002E3A0C94C9EF0C9463D50D948F370D940B
:10055000510F0C9468540D9463000C94CDD40C94FA
:1005600043400D94B7270C941F500C940A970D9498
:1005700085370C945CDB0C94299A0C94B9D34E41CA
:100580004E494E495459494E46CDCCCC3D0AD7230D
:100590003C17B7D13877CC2B329595E6241FB14F55
:1005A0000A000020410000C84200401C4620BCBE9A
:1005B0004CCA1B0E5AAEC59D7400407A10F35A0007
:1005C000A0724E18090010A5D4E80000E87648177C
:1005D0000000E40B54020000CA9A3B000000E1F561
:1005E00005000080969800000040420F000000A027
:1005F0008601000000102700000000E80300000052
:10060000006400000000000A00000000000100007B
:100610000000002C76D888DC674F0823DFC1DFAEEE
:1006200059E1B1B796E5E3E453C63AE651997696B7
:10063000E8E6C28426EB898C9B62ED407C6FFCEF80
:10064000BC9C9F40F2BAA56FA5F490055A2AF75CAE
:10065000936B6CF9676DC11BFCE0E40D47FEF52060
:10066000E6B500D0ED902E03009435770500808428
:100670001E080000204E0A000000C80C333333333C
:100680000F986E12831141EF8D2114893BE65516A8
:10069000CFFEE6DB18D1844B381BF77C1D901DA4E0
:1006A000BBE424203284725E228100C9F124ECA1D3
:1006B000E53D27434F4D4D554E49434154494F4E1B
:1006C0000044525952554E004552524F5253004920
:1006D0004E464F004543484F005265706F736F2E72
:1006E0002E2E004D65736820706F696E74206F75D3
:1006F00074206F662072616E67650A0050756C73B6
:1007000061722070617261205265616E7564617200
:100710000053696E206D6F76696D69656E746F0048
:10072000456E642066696C65206C6973740A0042CA
:100730006567696E2066696C65206C6973740A0070
:100740004E6F206D656469610A00286E6F206669CE
:100750006C65290043757272656E742066696C65FC
:100760003A20005344207072696E74696E6720628B
:1007700079746520004E6F74205344207072696E46
:1007800074696E670A0025697920256964202569E6
:10079000682025696D20256973005072696E742088
:1007A00074696D653A2000456E667269616E646FAA
:1007B0002E2E2E0043616C656E74616E646F2E2E5A
:1007C0002E0045202553006F66660044454255477C
:1007D0003A004D3131322053687574646F776E0082
:1007E0004D3131332053005A38545F4D33204F463A
:1007F000462E004348414D4245525F54454D5045B9
:10080000524154555245004241425953544550506B
:10081000494E470041524353004D4F54494F4E5F9C
:100820004D4F44455300544845524D414C5F505242
:100830004F54454354494F4E004C4F4E475F464935
:100840004C454E414D45004155544F5245504F5235
:10085000545F53445F5354415455530053444341F0
:1008600052440050524F4D50545F535550504F52C8
:100870005400454D455247454E43595F50415253F0
:10088000455200434153455F4C494748545F4252EB
:10089000494748544E45535300544F47474C455FD2
:1008A0004C494748545300534F4654574152455FB3
:1008B000504F574552004255494C445F50455243B2
:1008C000454E54004C4556454C494E475F444154B3
:1008D00041005A5F50524F42450052554E4F5554B9
:1008E000004155544F4C4556454C005052494E54CA
:1008F0005F4A4F420050524F4752455353004155B3
:10090000544F5245504F52545F54454D5000564F2E
:100910004C554D45545249430042494E4152595F4E
:1009200046494C455F5452414E534645520053454B
:100930005249414C5F584F4E5F584F46460046491A
:10094000524D574152455F4E414D453A4D61726C93
:10095000696E206D61726C696E2D322E302E3820DA
:10096000284E6F7620203220323032302032323A18
:1009700031303A34342920534F555243455F434F69
:1009800044455F55524C3A68747470733A2F2F6720
:1009900069746875622E636F6D2F4D61726C696E3C
:1009A0004669726D776172652F4D61726C696E2058
:1009B00050524F544F434F4C5F56455253494F4E40
:1009C0003A312E30204D414348494E455F545950ED
:1009D000453A5A38545F4D33204558545255444592
:1009E000525F434F554E543A3120555549443A636E
:1009F000656465326132662D343161322D343734AD
:100A0000382D396231322D633535633632663336EF
:100A10003766660A002F2F20004D31343520533CB5
:100A2000696E6465783E206F7574206F6620726110
:100A30006E67652028302D31290A00416363656C9B
:100A400065726174696F6E00416363656C657261A4
:100A500074696F6E3A20500046523A0020466C6F1F
:100A6000773A20004261627973746570205A0020E1
:100A7000643A0020693A0020703A00496E76616C51
:100A800069642065787472756465720A0046696CE1
:100A9000616D656E742072756E6F75742064697314
:100AA00074616E636520286D6D293A200046696C7B
:100AB000616D656E742072756E6F757420004D34B3
:100AC000323120696E636F72726563742070617277
:100AD000616D657465722075736167650A004465B0
:100AE00073666173652061706C6963616461004560
:100AF00072723A20546F6F206661722100546F6FDA
:100B0000206661722066726F6D207265666572651F
:100B10006E636520706F696E740A00454550524FD0
:100B20004D204F4B0A00205A323A004475616C2028
:100B3000456E6473746F702041646A7573746D657B
:100B40006E7420286D6D293A2000506F7765722DE4
:100B50006C6F7373207265636F76657279200044E1
:100B60006F6E65207072696E74696E672066696C5D
:100B7000650A004D3737004D333100D406CF06C823
:100B800006C106B3064572726F7220777269746986
:100B90006E6720746F20454550524F4D210A004D1D
:100BA000323930004D343130004D313132004D3169
:100BB0003038005072696E7465722073746F707093
:100BC00065642064756520746F206572726F72733E
:100BD0002E2046697820746865206572726F7220D5
:100BE000616E6420757365204D39393920746F202A
:100BF000726573746172742E202854656D7065720D
:100C000061747572652069732072657365742E2036
:100C1000536574206974206166746572207265730F
:100C200074617274696E67290A004E6F20436865AB
:100C3000636B73756D2077697468206C696E6520CD
:100C40006E756D6265722C204C617374204C696EF8
:100C5000653A2000636865636B73756D206D697319
:100C60006D617463682C204C617374204C696E65EF
:100C70003A20004C696E65204E756D626572206980
:100C800073206E6F74204C617374204C696E652004
:100C90004E756D6265722B312C204C617374204C43
:100CA000696E653A20004D31313000534420726541
:100CB0006164206572726F720A002121204B494CD9
:100CC0004C20636175736564206279204B494C4CFC
:100CD00020627574746F6E2F70696E0A0021212076
:100CE0004B494C4C206361757365642062792074B4
:100CF0006F6F206D75636820696E616374697665D6
:100D00002074696D65202D2063757272656E742084
:100D1000636F6D6D616E643A2000627573793A207D
:100D200070617573656420666F7220696E7075748A
:100D30000A00627573793A20706175736564206684
:100D40006F7220757365720A00627573793A20704C
:100D5000726F63657373696E670A004D31303030AE
:100D6000530053442F55534220696E73657274616A
:100D7000646F004D36303020543137004572723A7E
:100D8000207574663820666F6E74206E6F742069EB
:100D90006E697469616C697A65642E00000C0F00DD
:100DA000FE07022503BB01FFFE0AFE08FE05080838
:100DB00006000040F0C888889878100508080600EA
:100DC00000C0F88888888888F80505050600012095
:100DD00030F830200508080600002070F820202098
:100DE00020E00509090600FF2070A8A8B8888870CF
:100DF00020070505070001D86C366CD805090906DF
:100E000000FFF8A88888888888A8F8050A0A0600DC
:100E1000FE205050505088A8A88870030303060095
:100E20000340A040FFFFFFFFFFFFFFFFFFFFFFFFAB
:100E3000FFFFFFFFFFFFFFFFFFFF0000000605FFB2
:100E40000107070602008080808080008003030382
:100E5000060105A0A0A005060606000050F85050A7
:100E6000F8500509090600FF2070A8A07028A87096
:100E700020050707060000C8C810204098980507FD
:100E80000706000040A0A040A890680103030602E6
:100E9000058080800309090601FF20404080808092
:100EA0004040200309090601FF80404020202040E7
:100EB000408005070706000020A8702070A82005C4
:100EC00005050600012020F820200203030601FF8B
:100ED000C04080050101060003F80202020601007D
:100EE000C0C005070706000008101020404080051C
:100EF0000707060000708898A8C8887003070706CF
:100F0000010040C040404040E00507070600007077
:100F10008808102040F8050707060000F808103080
:100F200008887005070706000010305090F8101070
:100F3000050707060000F880F00808887005070715
:100F4000060000304080F088887005070706000022
:100F5000F808101020202005070706000070888878
:100F60007088887005070706000070888878081068
:100F700060020505060100C0C000C0C002060606EA
:100F800001FFC0C000C040800305050601012040EC
:100F9000804020050303060002F800F8030505065B
:100FA000010180402040800507070600007088107E
:100FB000202000200507070600007088B8A8B88028
:100FC00070050707060000708888F888888805077C
:100FD00007060000F04848704848F005070706007B
:100FE0000070888080808870050707060000F04840
:100FF00048484848F0050707060000F88080F08060
:1010000080F8050707060000F88080F080808005E2
:10101000070706000070888080988870050707061B
:101020000000888888F8888888030707060100E0A0
:101030004040404040E0050707060000381010100F
:101040001090600507070600008890A0C0A0908857
:10105000050707060000808080808080F80507076C
:1010600006000088D8A88888888805070706000039
:101070008888C8A8988888050707060000708888AF
:1010800088888870050707060000F08888F080804F
:101090008005070706000070888888A89068050703
:1010A00007060000F08888F0A09088050707060072
:1010B0000070888070088870050707060000F82017
:1010C00020202020200507070600008888888888BF
:1010D000887005070706000088888888505020051A
:1010E000070706000088888888A8A8500507070613
:1010F000000088885020508888050707060000886F
:10110000885020202020050707060000F80810203E
:101110004080F80309090601FFE08080808080801C
:1011200080E00507070600008040402010100803FB
:1011300009090601FFE020202020202020E00503EF
:10114000030600052050880501010600FEF8030390
:10115000030601058040200505050600007008789B
:1011600088780507070600008080F0888888F005E9
:1011700005050600007080808870050707060000DE
:10118000080878888888780505050600007088F0CA
:101190008070050707060000304840E040404005E9
:1011A00007070600FE70888888780870050707061C
:1011B00000008080F08888888803070706010040C7
:1011C00000C0404040E00409090601FE1000301054
:1011D000101010906005070706000080808890E0DE
:1011E0009088030707060100C04040404040E005EA
:1011F0000505060000D0A8A8A8A80505050600005A
:10120000B0C8888888050505060000708888887041
:101210000507070600FEF0888888F080800507072C
:101220000600FE788888887808080505050600000D
:10123000B0C880808005050506000078807008F041
:101240000507070600002020F820202018050505C6
:1012500006000088888898680505050600008888CB
:101260008850200505050600008888A8A8500505B7
:101270000506000088502050880507070600FE88F4
:10128000888850204080050505060000F8102040A1
:10129000F80309090601FF204040408040404020FB
:1012A0000109090602FF80808080808080808003A1
:1012B00009090601FF80404040204040408005036E
:1012C0000306000248A890FFFFFFFFFFFFFFFFFF9C
:1012D000FFFFFFFFFFFFFFFFFFFFFFFFFFFFFFFF1E
:1012E000FFFFFFFFFFFFFFFF0000000605FF0107F4
:1012F00007060200800080808080800507070600C6
:10130000FF2070A8A0A8702005070706000030483D
:1013100040E04048B0050505060000A8508850A8E8
:101320000507070600008850F820F820200107076D
:10133000060200808080008080800408080601008A
:1013400070806090906010E0030101060107A00624
:1013500007070600007884B4A4B484780305050662
:10136000010460A06000E00505050600002850A00B
:101370005028050303060001F808080301010601CF
:1013800003E00607070600007884B4A4A484780567
:101390000101060007F8040404060105609090604E
:1013A0000507070600002020F8202000F8030505A7
:1013B00006010440A02040E0030505060104C0200A
:1013C0004020C003030306010520408005070706EF
:1013D00000FE88888898E880800508080600007864
:1013E000E8E8E868282828020202060203C0C003D1
:1013F00002020601FE20C003050506010440C040AC
:1014000040E003050506010540A04000E005050594
:10141000060000A0502850A0050A0A06000040C09F
:1014200048506050B0507810050A0A06000040C0CD
:1014300048506050A8081038050A0A060000C0206D
:101440004830E050B0507810050707060000200033
:101450002020408870050A0A06000040200070889D
:1014600088F8888888050A0A06000010200070881D
:1014700088F8888888050A0A0600002050007088CD
:1014800088F8888888050A0A06000068B000708815
:1014900088F8888888050909060000500070888847
:1014A000F8888888050A0A0600002050207088887D
:1014B000F888888805070706000078A0A0F0A0A09B
:1014C000B80509090600FE70888080808870106069
:1014D000050A0A060000402000F88080F08080F8AD
:1014E000050A0A060000102000F88080F08080F8CD
:1014F000050A0A060000205000F88080F08080F87D
:101500000509090600005000F88080F08080F8038B
:101510000A0A060100804000E04040404040E003ED
:101520000A0A060100204000E04040404040E0033D
:101530000A0A06010040A000E04040404040E003AD
:101540000909060100A000E04040404040E00507D6
:1015500007060000704848E8484870050A0A060077
:101560000068B0008888C8A8988888050A0A06001C
:101570000040200070888888888870050A0A060064
:101580000010200070888888888870050A0A060084
:101590000020500070888888888870050A0A060034
:1015A0000068B0007088888888887005090906007E
:1015B000005000708888888888700505050600013D
:1015C00088502050880509090600FF087098A8A8CF
:1015D000A8C87080050A0A06000040200088888894
:1015E00088888870050A0A0600001020008888880C
:1015F00088888870050A0A060000205000888888BC
:101600008888887005090906000050008888888845
:10161000888870050A0A060000102000888850207B
:1016200020202004070706010080E0909090E080D1
:10163000050707060000708890A09088B00508088C
:101640000600004020007008788878050808060029
:10165000001020007008788878050808060000202F
:101660005000700878887805080806000068B00007
:101670007008788878050707060000500070087821
:1016800088780508080600002050207008788878BF
:10169000050505060000702870A0780507070600FC
:1016A000FE708880887010600508080600004020E1
:1016B000007088F080700508080600001020007097
:1016C00088F080700508080600002050007088F03F
:1016D000807005070706000050007088F0807003D6
:1016E0000808060100804000C0404040E0030808B0
:1016F000060100204000C0404040E0030808060109
:101700000040A000C0404040E0030707060100A0E1
:1017100000C0404040E00509090600005020500884
:10172000788888887005080806000068B000B0C88E
:10173000888888050808060000402000708888888E
:101740007005080806000010200070888888700561
:101750000808060000205000708888887005080876
:1017600006000068B00070888888700507070600CA
:10177000005000708888887005050506000120006B
:10178000F800200505050600007898A8C8F00508AF
:101790000806000040200088888888700508080630
:1017A000000010200088888888700508080600005E
:1017B00020500088888888700507070600005000C0
:1017C0008888888870050A0A0600FE10200088882C
:1017D00088502040800509090600FE8080F0888836
:1017E00088F080800509090600FE5000888888502E
:1017F00020408043617267617220454550524F4DD1
:10180000004775617264617220454550524F4D002A
:10181000446573662E20536F6E6461205A00416ADE
:101820007573746573206176616E7A61646F73009D
:1018300041706700456E6300444553434152474140
:10184000522046494C414D454E544F0043414D4274
:101850004941522046494C414D454E544F00526536
:1018600073742E2066C3A162726963610050726551
:1018700063616C2E202420416A7573746500536582
:101880006E732E2066696C616D656E746F005265B3
:101890007472616572004D3630302042302054251C
:1018A00069004D37303120542569004D37303220E2
:1018B00054256900446573636172676172206669CB
:1018C0006C2E202A00446573636172676172207414
:1018D0006F646F004D373032004361726761722070
:1018E00066696C616D656E746F202A0043616D627C
:1018F0006961722066696C616D656E746F202A0083
:10190000436F6E74696E75617220696D702E005040
:101910007572676172206DC3A173004F50432E2012
:101920005245494E4943494F3A00494D505245535B
:1019300049C3934E20504155534144410020204219
:101940006F7175696C6C613A20004D69657A636CE2
:1019500061646F72003F0043616E63656C61720089
:101960004D6F76696D69656E746F00202020466941
:101970006E205A3A002534642E2564206D6D00498E
:101980006E6963696F205A3A004D657A636C612015
:1019900043C3AD636C69636100436F6D65746572C9
:1019A000206D657A632E20486572722E5600436F53
:1019B0006D706F6E656E7465203D00486572722EA5
:1019C00056207265696E69636961646F7300526560
:1019D000696E69636961720052616E646F6D204D5A
:1019E0006978003A64697361626C65003A20656EDB
:1019F00061626C650044656772616461646F005286
:101A000065696E696369617220486572722E56005D
:101A10004D657A636C610041637469766172204838
:101A20006572722E5600526563696E746F00446968
:101A300073742E2066696C616D656E746F206D6DB8
:101A4000004361726761206D6D004465736361726C
:101A50006761206D6D004469C3A16D6574726F206C
:101A600046696C2E004520656E206D6DC2B3004343
:101A700061703A003F5A206F7574206F6620726162
:101A80006E67652028003F59206F7574206F6620AF
:101A900072616E676520282D003F58206F75742095
:101AA0006F662072616E676520282D0050726F622C
:101AB00065204F6666736574205800656E717565A4
:101AC0007565696E672022006F6B00526573656EE5
:101AD000643A2000456E667269616E646F204361EE
:101AE0006D612E2E2E0043616C656E74616E646FA5
:101AF0002043616D612E2E2E0023646566696E653C
:101B00002044454641554C545F004B6420004B69CE
:101B100020004B702000504944204175746F74754B
:101B20006E652066696E69736865642120507574FE
:101B300020746865206C617374204B702C204B6995
:101B400020616E64204B6420636F6E7374616E74E9
:101B5000732066726F6D2062656C6F7720696E749A
:101B60006F20436F6E66696775726174696F6E2E60
:101B7000680A00504944204175746F74756E652081
:101B80006661696C6564212074696D656F75740A9E
:101B9000000A20436C617373696320504944200A32
:101BA00000204B643A2000204B693A2000204B7003
:101BB0003A20002054753A2000204B753A2000202E
:101BC0006D61783A2000206D696E3A200020643AF9
:101BD000200020626961733A200050494420417519
:101BE000746F74756E652073746172740A00504965
:101BF00044204175746F74756E65206661696C650B
:101C000064212054656D706572617475726520740D
:101C10006F6F20686967680A0050494420417574F5
:101C20006F2D616A75737465005049442041757465
:101C30006F74756E65206661696C65642120426110
:101C400064206578747275646572206E756D626566
:101C5000720A000000A0C1000000000000000000A7
:101C6000009B4300009B430000C8435365747469A4
:101C70006E67732053746F726564002062797465B7
:101C8000733B20637263200053657474696E6773DD
:101C90002053746F726564202800454550524F4DA3
:101CA000206461746173697A65206572726F722E47
:101CB0000A002073746F7265642073657474696EB2
:101CC00067732072657472696576656420280020E8
:101CD0002863616C63756C6174656429210A002056
:101CE000213D2000454550524F4D20435243206D29
:101CF00069736D61746368202D202873746F726539
:101D000064292000496E6465783A200044494749B7
:101D1000504F5453204C6F616465640A0044494736
:101D200049504F5453204C6F6164696E670A00201C
:101D30004D61726C696E3D563832290A0045455036
:101D4000524F4D2076657273696F6E206D69736DA9
:101D5000617463682028454550524F4D3D00020094
:101D60000000000000000000000000000000000073
:101D70000000000000000000000000000000000063
:101D8000000000000000000000000000000000074C
:101D9000FFC3FF870187FF0FFCFFFC1E01FF8007C9
:101DA000FFC3FF87018FFF1FFCFFFC1E03FFC00066
:101DB00000C600C7018C0018000300618300C0004A
:101DC00001C600C7C18C0018000300618300C00079
:101DD000038600C6C18C0018000301806300C000A8
:101DE000070600C6618C0018000301806300C00074
:101DF0000E0600C6618C0018000301806300C0005D
:101E00001C0600C6318FFE1FF803018063FFC0006F
:101E1000380600C6318FFE0FFC03018063FF80008F
:101E2000700600C6198C00000C0301FFE30C0000D3
:101E3000E00600C6198C00000C0301FFE307000157
:101E4000C00600C60D8C00000C03018063018003F6
:101E5000800600C60D8C00000C0301806301800722
:101E6000000600C6078C00000C0301806301800699
:101E7000000600C6078C00000C0301806301800788
:101E8000FFC3FF86038FFF1FFC03018063018007F0
:101E9000FFC3FF860387FF1FF803018063018000F3
:101EA0000000000000000000000000000000000032
:101EB0000000000000000000000000000000000022
:101EC0000000000000000000000000000000000012
:101ED000000000000000000000000000000000F012
:101EE000004A0110013B0130012C01400127015043
:101EF00001220170011D0190011801B0011301C000
:101F0000010E01F0010901100204013002FF00601E
:101F100002FA009002F500C002F0000003EB00405E
:101F200003E6008003E100D003DC002004D700E0DA
:101F300004D200C005CD004006C800D006C3008012
:101F400007BE00F008B9004009B400C009AF00B0F6
:101F50000AAA00B00BA500D00CA000000E9B00C088
:101F60001096005012910000148C00C0158700B02C
:101F7000178200B0197D00D01B7800001E7300404E
:101F8000206E0090226900F024640040275F0090DA
:101F9000295A00E02B5500102E500020304B001025
:101FA000324600E033410090353C00103737007076
:101FB000383200A0392D00B03A2800A03B23006041
:101FC0003C1E00103D1900903D1400103E0F0070A3
:101FD0003E0A00C03E0500003F0000403FFBFF807E
:101FE0003FF6FFC03FF1FF2020506C616E6E6572BE
:101FF00042756666657242797465733A20002046C0
:10200000726565204D656D6F72793A2000436F6D82
:1020100070696C65643A204E6F7620203220323031
:1020200032300A00204C617374205570646174650D
:10203000643A20323032302D31312D3032207C2044
:10204000417574686F723A20285A4F4E4553544177
:10205000522C2048616C6C79290A006D61726C69A0
:102060006E2D322E302E380A004D61726C696E0072
:1020700020536F6674776172652052657365740AC8
:1020800000205761746368646F67205265736574DC
:102090000A002042726F776E206F7574205265734C
:1020A00065740A002045787465726E616C20526513
:1020B0007365740A00506F77657255700A00617518
:1020C000746F25632E67004732385859004D313000
:1020D0003031006572726F722077726974696E6751
:1020E00020746F2066696C650A00446F6E6520730A
:1020F0006176696E672066696C652E0A004D32391B
:1021000000456E6473746F7073002553202563203F
:1021100025632025632025630020503A00656E6406
:1021200073746F7073206869743A200020746F6F45
:10213000206C6F6E6720657874727573696F6E209E
:1021400070726576656E7465640A004D33303320B5
:1021500055312045256920532569005049442041C7
:1021600075746F2D616A75737465202A0050494437
:102170002D44202A005049442D49202A005049442A
:102180002D50202A0056656C2E207669616A6520E4
:102190006D696E00566D696E00566D617820450060
:1021A000566D6178205A00566D6178205900566D41
:1021B00061782058004163656C2E206D6178450080
:1021C0004163656C2E206D61785A004163656C2E09
:1021D000206D617859004163656C2E206D617858DF
:1021E000004163656C2E205669616A650041636534
:1021F0006C2E207265747261632E004163656C659C
:1022000072616369C3B36E004D3834004E69766500
:102210006C616E646F2043616D61004C6C6576612A
:102220007220616C206F726967656E0054656D7015
:10223000657261747572610041425300504C4100F7
:1022400056656E74696C61646F7200426F71756976
:102250006C6C610056656C6F6369646164004D6508
:102260006EC3BA207072696E636970616C004170F0
:1022700061676172206D6F746F726573004F726970
:1022800067656E205A004732385A004F7269676599
:102290006E20590047323859004F726967656E20C9
:1022A0005800473238580047323800507265636131
:1022B0006C2E2024204675736F7200507265636126
:1022C0006C2E20242043616D6100456E6672696149
:1022D000720050726563616C2E202400546F74612B
:1022E0006C004D6963726F7061736F205A00466CA9
:1022F000756A6F003C2238225265632E2046616C5D
:102300006C6F20656C6563747269636F00436F6EF8
:102310006669677572616369C3B36E005669672E3B
:1023200020467567612054C3A9726D2E3A204F462E
:102330004600313330004245443A203130306B2082
:102340007769746820342E376B2070756C6C2D752E
:1023500070005669672E20467567612054C3A972C4
:102360006D2E3A204F4E0054656D702E204DC3A146
:1023700078696D61003237350054656D702E204DDF
:10238000C3AD6E696D610045313A203130306B204C
:102390007769746820342E376B2070756C6C2D75DE
:1023A0007000462E20416C696D656E742E00476585
:1023B0006E657269630050726F746F636F6C6F004B
:1023C000312E300042617564696F730031313532EE
:1023D00030300068747470733A2F2F7777772E61DE
:1023E0006C69657870726573732E636F6D2F697495
:1023F000656D2F33323936353430363339362E6801
:10240000746D6C005A4F4E4553544152205A5249F4
:10241000425F5636004475616C205A20454E445345
:10242000544F50004455414C205A2044524956457F
:102430005200544954414E20455854525544455237
:10244000004E6976656C616E646F2042696C696EDE
:1024500065616C004578747275736F72657300778F
:1024600077772E7A6F6E657374617233642E636F43
:102470006D005A38545F4D3300323032302D3131D7
:102480002D3032006D61726C696E2D322E302E3817
:102490000056312E372E31005465726D6973746F9A
:1024A00072657300496E666F2E20436F6E74726F93
:1024B0006C61646F7200496E666F2E20496D707298
:1024C00065736F7261004D31303030004465746562
:1024D0006E657220696D7072657369C3B36E005268
:1024E00065616E7564617220696D7072657369C330
:1024F000B36E00417472C3A17300506172617200C7
:10250000496E69636961722053442F555342004DEF
:102510003231004C616E7A61722053442F55534220
:10252000004D323200417061676172204675656E00
:102530007465004D38310043616D626961722066D7
:10254000696C616D656E746F00416A757374617258
:102550000050617573617220696D7072657369C333
:10256000B36E0050616E74616C6C612064652049CB
:102570006E662E004170617263616E646F2E2E2E46
:102580000000004573706572616E646F2070617247
:102590006100696E696369617220656C2063616DB9
:1025A00062696F0064652066696C616D656E746F49
:1025B000004573706572652070617261006C6962BC
:1025C0006572617220656C2066696C616D656E7400
:1025D0006F000043616C656E74616E646F20626FA2
:1025E0007175696C6C610045737065726520706F00
:1025F00072206661766F722E2E2E000050756C73FD
:102600006520656C20626F74C3B36E207061726167
:102610000063616C656E746172206C6120626F7121
:1026200075696C6C610000496E7365727465206534
:102630006C2066696C616D656E746F0079207075D1
:102640006C736520656C20626F74C3B36E0070613B
:10265000726120636F6E74696E7561722E2E2E002A
:1026600045737065726520706172610063617267A5
:10267000617220656C2066696C616D656E746F00B7
:102680000050756C73617220656C20626F74C3B307
:102690006E2070617261007265616E756461722096
:1026A000696D7072657369C3B36E000045737065C0
:1026B00072616E646F20696D707265736F72610014
:1026C00070617261207265616E756461722E2E2E6A
:1026D00000004573706572652070617261007075ED
:1026E0007267617220656C2066696C616D656E74DD
:1026F0006F00006F70656E00545249474745524560
:10270000440066696C616D656E74007A5F70726F0B
:102710006265007A325F6D696E007A5F6D696E0086
:10272000795F6D696E00785F6D696E005265706FDC
:102730007274696E6720656E6473746F7020737451
:10274000617475730A00453100626564002C207362
:10275000797374656D2073746F707065642120489F
:1027600065617465725F49443A20004655474120CF
:1027700054C389524D49434100546865726D616C80
:102780002052756E617761790043616C656E742EBD
:102790002066616C6C69646F0048656174696E677E
:1027A000206661696C656400202D20496E76616C3D
:1027B0006964206578747275646572206E756D62E7
:1027C000657220210A004572723A54454D502E2000
:1027D0004DC38158004D415854454D502074726985
:1027E000676765726564004572723A54454D502EB4
:1027F000204D494E004D494E54454D50207472694C
:1028000067676572656400202F002042403A00200F
:10281000403A00001000AA038000400100012C0192
:10282000B001220140021001F00202018003F80011
:102830004004F500E004ED009005E4003006DD0002
:10284000E006D7008007D1003008CC00D008C700D0
:102850007009C300100ABE00B00ABB00500BB700DD
:10286000900CB300D00DAA00B00FA5005010A0002E
:10287000101496009016900010198C00501A8500C4
:10288000301C820070227800B023750040256E0055
:1028900020276900A0296400502A5F00902B5A006D
:1028A000D02C5500702D4F00E02E480050314500CF
:1028B00030334100D03539006036370010373300EF
:1028C000F0382D00A0392700803C1C00403D170047
:1028D000F03D1100703E0A00C03E0500003F0000C0
:1028E000403FFBFF803FF6FFC03FF1FF2053697A76
:1028F000653A200043616E6E6F74206F70656E20C4
:1029000073756264697220005344206361726420AD
:102910006F6B0A006F70656E526F6F74206661692D
:102920006C65640A00766F6C756D652E696E6974EE
:10293000206661696C65640A004E6F205344206311
:102940006172640A004D32332025730046696C655C
:102950002073656C65637465640A0046696C652064
:102960006F70656E65643A2000454E4420535542B1
:10297000524F5554494E450A002220706F73002271
:1029800020706172656E743A2200535542524F5561
:1029900054494E452043414C4C2074617267657424
:1029A0003A220053756263616C6C204F76657266E3
:1029B0006C6F77004578636565646564206D617848
:1029C00020535542524F5554494E4520646570740A
:1029D000683A310A0044656C6574696F6E206661FF
:1029E000696C65642C2046696C653A200046696C08
:1029F000652064656C657465643A006F70656E206F
:102A00006661696C65642C2046696C653A200057E4
:102A1000726974696E6720746F2066696C653A200C
:102A200000667265736800646F696E67004E6F7749
:102A300020007C3C3E5E2B3D3F2F5B5D3B2C2A22E1
:102A40005C0000002200250028002B002E00310031
:102A5000340002010000050108010B010000210003
:102A6000240027002A002D0030003300010100005F
:102A7000040107010A0105050505070508080808FE
:102A8000020202020A0A0808040404040101010106
:102A90000101010103030303030303030407070701
:102AA0000C0C0C0C0C0C0C0C0202020206060606A6
:102AB000060606060B0B0B0B0B0B0B0B0102102073
:102AC0002008081020401020408002010201080464
:102AD00002010102040810204080804020100804F8
:102AE0000201800402018040201008040201080451
:102AF0000201010204081020408001020408102095
:102B0000408020453A0020593A0024F4D43050C384
:102B10008E20C2A24017828B7011127A910D816CA7
:102B2000D90AA861E108C7586607615143061E4BE0
:102B30005D05C145A7041A411104093D9803713987
:102B400031034036DB0265339102D4305402802ECB
:102B50001D02632CEE01752AC501B028A0011027C3
:102B600081018F2564012B244B01E0223401AC212B
:102B70001F018D200D01801FFC00841EED00971D9C
:102B8000DF00B81CD200E61BC600201BBC00641A84
:102B9000B200B219A8000A19A0006A189900D1174A
:102BA000910040178B00B516840031167E00B315D6
:102BB00079003A157300C7146F0058146A00EE13B9
:102BC00066008813630025135E00C7125B006C1259
:102BD000570015125400C111510070114F002111FE
:102BE0004B00D61049008D104700461044000210DB
:102BF0004200C00F4000800F3E00420F3C00060F15
:102C00003B00CB0E3800930E37005C0E3500270ECC
:102C10003400F30D3200C10D3100900D3000600D15
:102C20002E00320D2D00050D2C00D90C2B00AE0C02
:102C30002900850C29005C0C2700350C27000E0CA0
:102C40002600E80B2400C40B2400A00B23007D0BFE
:102C500023005A0B2100390B2100180B2000F80A21
:102C60001F00D90A1E00BB0A1E009D0A1D00800A13
:102C70001D00630A1C00470A1B002C0A1B00110AD6
:102C80001A00F7091A00DD091900C4091900AB0977
:102C90001900920917007B091800630917004C09F5
:102CA000160036091600200916000A091500F50855
:102CB0001500E0081400CC081400B8081400A4089B
:102CC0001400900813007D0812006B0813005808C8
:102CD00012004608120034081100230811001208DF
:102CE000110001081100F0071000E0071000D007E4
:102CF0001000C0071000B0070F00A10710009107D7
:102D00000E0083070F0074070F0065070E005707BA
:102D10000E0049070E003B070D002E070E0020078E
:102D20000D0013070D0006070D00F9060C00ED0657
:102D30000D00E0060C00D4060C00C8060C00BC0612
:102D40000C00B0060C00A4060B0099060C008D06C2
:102D50000B0082060B0077060B006C060B00610669
:102D60000A0057060B004C060A0042060A00380605
:102D70000A002E060A0024060A001A060A00100697
:102D8000090007060A00FD050900F4050900EB0526
:102D90000900E2050900D9050900D0050900C705A9
:102DA0000900BE050900B5050800AD050800A50528
:102DB00009009C050800940508008C05080084059E
:102DC00008007C050800740508006C05070065050F
:102DD00008005D050700560508004E050700470579
:102DE00007004005080038050700310507002A05DF
:102DF0000700230507001C050600160507000F0540
:102E000007000805060002050700FB040600F5049C
:102E10000700EE040600E8040600E2040700DB04F5
:102E20000600D5040600CF040600C9040600C3044A
:102E30000600BD040600B7040600B1040500AC049A
:102E40000600A6040600A00405009B0406009504E5
:102E50000500900406008A0405008504050080042E
:102E600006007A04050075040500700405006B0473
:102E7000050066040500610405005C0405005704B4
:102E80000500520405004D040500480405004304F4
:102E900005003E0404003A04050035040500300432
:102EA00004002C04050027040400230405001E046C
:102EB00004001A04040016040500110404000D04A3
:102EC0000400090405000404040000040400FC03D9
:102ED0000400F8030400F4030400F0030400EC030E
:102EE0000400E8030400E4030400E0030400DC033E
:102EF0000400D8030400D4030400D0030400CC036E
:102F00000400C8030300C503030024F404D9201BF4
:102F1000C40C5C0E9804C4095F0265077101F405D6
:102F2000F900FB04B30048048700C103690058039B
:102F3000550003034500BE023A00840231005302EB
:102F40002A002902250004022000E4011C00C80117
:102F50001900AF01170098011400840113007101DA
:102F600010006101100051010E0043010D003601F7
:102F70000B002B010B0020010B00150109000C01B7
:102F8000090003010800FB000800F3000800EB0043
:102F90000700E4000600DE000600D8000600D200AC
:102FA0000600CC000500C7000500C2000500BD00FA
:102FB0000400B9000400B5000400B1000400AD0035
:102FC0000400A9000400A5000300A20003009F0064
:102FD00004009B000300980003009500020093008A
:102FE0000300900003008D0002008B0003008800A6
:102FF00002008600020084000300810002007F00BE
:1030000002007D0002007B000200790002007700D0
:1030100001007600020074000200720001007100DD
:1030200002006F0002006D0001006C0002006A00E7
:1030300001006900020067000100660001006500F0
:1030400001006400020062000100610001006000F4
:1030500001005F0002005D0001005C0001005B00F8
:1030600001005A00010059000100580001005700FA
:1030700001005600010055000100540001005300FA
:1030800000005300010052000100510001005000F7
:1030900001004F0001004E0000004E0001004D00F5
:1030A00001004C0001004B0000004B0001004A00F1
:1030B00001004900010048000000480001004700ED
:1030C00001004600000046000100450000004500E8
:1030D00001004400010043000000430001004200E1
:1030E00000004200010041000000410001004000DA
:1030F00001003F0000003F0001003E0000003E00D4
:1031000001003D0000003D0001003C0000003C00CB
:1031100000003C0001003B0000003B0001003A00C1
:1031200000003A00010039000000390001003800B9
:1031300000003800000038000100370000003700B0
:1031400001003600000036000000360001003500A6
:10315000000035000000350001003400000034009C
:103160000000340001003300000033000000330091
:103170000100320000003200000032000100310086
:10318000000031000000310001003000000030007C
:103190000000300001002F0000002F0000002F0071
:1031A00000002F0001002E0000002E0000002E0065
:1031B00001002D0000002D0000002D0000002D005A
:1031C00001002C0000002C0000002C0000002C004E
:1031D00001002B0000002B0000002B0000002B0042
:1031E00001002A0000002A0000002A0000002A0036
:1031F000010029000000290000002900000029002A
:10320000000029000100280000002800000028001C
:10321000000028000000280001002700000027000F
:103220000000270000002700000027000100260002
:1032300000002600000026000000260000002600F6
:1032400001002500000025000000250000002500E9
:1032500000002500000025000100240000002400DB
:1032600000002400000024000000240001002300CE
:1032700000002300000023000000230000002300C2
:1032800000002300000023000100220000002200B3
:1032900000002200000022000000220000002200A6
:1032A0000100210000002100000021000000210099
:1032B000000021000000210000002100010020008A
:1032C000000020000000200000002000000020007E
:1032D00000002000000020000000200001001F006E
:1032E00000001F0000001F0000001F0000001F0062
:1032F00000001F0000001F0001001E0000001E0053
:1033000000001E0000001E000000A42C0000841E0F
:103310000000B0120000870A00009E050000E902CC
:1033200000007B010000BF00000020436F756E7439
:1033300020583A0053696775656E7465204573714E
:1033400075696E61004C6973746F005369677569C4
:103350006E7465004F726967656E2058595A004354
:103360006F6D70656E2E20416C74757261004E69D0
:1033700076656C61722043616D61004732380A479F
:103380003239004361746368205A204F6666736562
:103390007400473239204E004E6976656C617220A8
:1033A00045737175696E617300446573526574206D
:1033B0005600446573526574206D6D004C657661EE
:1033C0006E746172206D6D00526574726165722059
:1033D00020560052657472616572206D6D005265F1
:1033E000747261636369C3B36E204175746F2E009C
:1033F000506F72206661766F722C207265696E69FB
:1034000063696500494D505245534F524120444530
:1034100054454E4944410025533A202553004D550B
:1034200045525441005072696E7465722068616C37
:103430007465642E206B696C6C28292063616C6C48
:103440006564210A006563686F3A004572726F72A5
:103450003A0042696C696E656172204C6576656CF4
:10346000696E6720477269643A0A00252900257C45
:1034700000203B2043757272656E74205A00203B19
:1034800020456E6400203B205374617274004772C3
:10349000616469656E74204D6978200052616E64C4
:1034A0006F6D204D697820004D32342053256C64B7
:1034B0002054256C64004739322E3920452573008D
:1034C000473120462564004739322E39205A25736A
:1034D000004731205A3020463230300047312058E2
:1034E000257320592573204633303030004D343257
:1034F0003020532569205A2573004D313036205035
:10350000256920532569004D313039205325690044
:103510004D31393020532569004D3230302044255B
:10352000730047323852305859004739322E39200B
:103530004530205A300A47315A2573004D34323015
:10354000205330205A300020496E76616C69642027
:103550006578747275646572200020496E76616CBE
:103560006964204520737465707065722000204581
:103570002073746570706572206E6F74207370654F
:103580006369666965640A001FE02010201020103E
:10359000102010202010201030300840048003003C
:1035A0001FE03FF03FF03FF01FE01FE03FF03FF033
:1035B0003FF00FC0078003003FFFF038007030FC81
:1035C0003020FC102078102030102C00D02E31D06C
:1035D0002F7BD02F7BD02E31D02C00D0203010204C
:1035E000781020FC1030FC303800703FFFF03FFFB7
:1035F000F03800703186302387102787902F87D0CE
:103600002F03D02030102078102078102030102F79
:1036100003D02F87D027879023871031863038003A
:10362000703FFFF01FFFF81FFFF804104002082052
:1036300002082004104008208010410010410008BA
:1036400020800410400000001FFFF81FFFF8330027
:10365000CC00CC1200480048120048004812004834
:10366000004813FFCFFFC810000000081FFF83FFB2
:10367000F8000FC7E000000FEFE0000003EF80004C
:103680000001EF000000006C0000000000000025B9
:1036900068753A25303268750025687564202530D4
:1036A0003268753A253032687500202020202020AD
:1036B0002000507265737320627574746F6E20748D
:1036C0006F20726573756D650A00507265737320A3
:1036D000627574746F6E20746F2068656174206EFB
:1036E0006F7A7A6C650A004F46460A004661646547
:1036F000204865696768742000426564204C6576DF
:10370000656C696E6720004661696C656420746F42
:1037100020656E61626C6520426564204C6576654B
:103720006C696E670A00496E76616C6964206D652C
:1037300073682E0A0056652D4A65726B00565A2D25
:103740004A65726B0056592D4A65726B0056582DAA
:103750004A65726B00446573662E20536F6E646118
:10376000205900446573662E20536F6E64612058A3
:103770000045207061736F732F6D6D005A2070616A
:10378000736F732F6D6D0059207061736F732F6DA0
:103790006D0058207061736F732F6D6D00496E69F5
:1037A00063696172004D34323800496E6963696142
:1037B0006C697A617220454550524F4D0046696CE4
:1037C000616D656E746F005061736F732F6D6D0066
:1037D000446573662E20536F6E64610041636365B8
:1037E0006C6572616369C3B36E00416A757374611D
:1037F0007220646573666173657300536F6E6465F0
:1038000061722050756E746F0025532025692F2535
:10381000690050726F62696E67206D657368207011
:103820006F696E7420004F666673657420636174FF
:10383000636865642021006661696C2C206D616E8F
:1038400075616C206C6576656C004661696C212041
:103850004D6F766520646F776E2050726F62652EB3
:1038600000546F206361746368206F6666736574CB
:1038700000202844525952554E29004732392041E0
:1038800075746F20426564204C6576656C696E675F
:10389000003F20284C2C522C462C4229206F757456
:1038A000206F6620626F756E64732E0A003F285683
:1038B000296572626F7365206C6576656C20696D31
:1038C000706C61757369626C652028302D34292E07
:1038D0000A00426164205A2076616C75650A004EC8
:1038E0006F2062696C696E65617220677269640A33
:1038F00000204D393220580020204D61783A2000B8
:1039000020204D696E3A2000536F667420656E6406
:1039100073746F70733A2000496D7072657369C378
:10392000B36E2063616E63656C616461004D323516
:1039300020500A4D32340050617573696E672E2E27
:103940002E00205A3A200020593A20004265642077
:10395000583A2000496D7072657369C3B36E205088
:103960006175736164610050726F62696E672046B1
:1039700061696C65640A00536F6E64656F2046610F
:103980006C6C61646F004F726967656E20257325EA
:10399000732573205072696D2E00496E73657274C1
:1039A0002066696C616D656E7420616E6420707252
:1039B00065737320627574746F6E0A0020573A0045
:1039C0005A38545F4D33204C6973746100496D70EF
:1039D00072696D69656E646F2E2E2E00220A005585
:1039E0006E6B6E6F776E20636F6D6D616E643A20E3
:1039F0002200496E696369617220696D7072657336
:103A000069C3B36E00496D7072696D69720043617C
:103A10006E6E6F7420656E74657220737562646972
:103A2000723A2000022E2E000152656361726761B6
:103A3000720044656772616461646F20696E7665C7
:103A400072736F0020202046696E20486572722EC6
:103A50005600496E6963696F20486572722E560080
:103A60005761726E696E673A20486F6D696E6720A4
:103A700042756D702044697669736F72203C203105
:103A80000A00206C696D6974656420746F200020E1
:103A90004D6178200000004842000048420000804C
:103AA000400202040000A0400000A04000000040CE
:103AB0000000A54300009B430000C843FFFFFF2018
:103AC0005200454550524F4D20496E697469616CF2
:103AD000697A65640A0048617264636F6465642092
:103AE00044656661756C742053657474696E6773A0
:103AF000204C6F616465640A003B200020204D3635
:103B00003033200020204D34313220530046696C80
:103B1000616D656E742072756E6F75742073656E5D
:103B2000736F723A0020550046696C616D656E7462
:103B3000206C6F61642F756E6C6F6164206C656EB4
:103B4000677468733A0020204D3835312058005A88
:103B50002D50726F6265204F666673657400202079
:103B60004D3230392053004175746F2D5265747297
:103B70006163743A20533D3020746F20646973612F
:103B8000626C652C203120746F20696E74657270D0
:103B900072657420452D6F6E6C79206D6F7665733C
:103BA00020617320726574726163742F7265636F34
:103BB0007665720020204D32303820530052656304
:103BC0006F7665723A20533C6C656E6774683E2070
:103BD000463C756E6974732F6D3E0020570020209F
:103BE0004D323037205300526574726163743A204D
:103BF000533C6C656E6774683E20463C756E697414
:103C0000732F6D3E205A3C6C6966743E0020204D37
:103C1000343133205300506F7765722D4C6F7373BE
:103C2000205265636F766572793A0020204D3330FB
:103C3000312050005049442073657474696E677375
:103C40003A0020460020480020204D3134352053D2
:103C5000004D6174657269616C206865617475708E
:103C600020706172616D65746572733A0020204D39
:103C700036363600456E6473746F702061646A7501
:103C800073746D656E743A00204A00202047323903
:103C9000205720490020204D3432302053004175F8
:103CA000746F20426564204C6576656C696E673A76
:103CB0000020204D323036205800486F6D65206F4F
:103CC00066667365743A0020204D3230352042001C
:103CD000416476616E6365643A20423C6D696E5F53
:103CE0007365676D656E745F74696D655F75733E4E
:103CF00020533C6D696E5F66656564726174653EF4
:103D000020543C6D696E5F74726176656C5F6665A8
:103D10006564726174653E20583C6D61785F785FC0
:103D20006A65726B3E20593C6D61785F795F6A65A8
:103D3000726B3E205A3C6D61785F7A5F6A65726B88
:103D40003E20453C6D61785F655F6A65726B3E0041
:103D500020540020204D32303420500041636365F0
:103D60006C65726174696F6E2028756E6974732F4B
:103D70007332293A20503C7072696E745F616363DC
:103D8000656C3E20523C726574726163745F61635E
:103D900063656C3E20543C74726176656C5F616350
:103DA00063656C3E0020204D3230312058004D615B
:103DB00078696D756D20416363656C6572617469C6
:103DC0006F6E2028756E6974732F7332293A002044
:103DD000204D3230332058004D6178696D756D206B
:103DE0006665656472617465732028756E697473A5
:103DF0002F73293A005374657073207065722075B3
:103E00006E69743A0020440020204D323030205337
:103E1000002044697361626C65640A0046696C61E4
:103E20006D656E742073657474696E67733A0020F3
:103E3000204D3134392043203B20556E6974732066
:103E4000696E2043656C736975730A0020286D6D77
:103E500029002020473231202020203B20556E6948
:103E6000747320696E206D6D000000FA430000FA43
:103E7000430000A0400000C8420000A0420000A093
:103E8000420000C8430000C843B80B0000B80B0054
:103E9000006400000010270000496D7072696D2EEB
:103EA0002064657364652053442F555342004D6F61
:103EB0007665722025736D6D004D6F7665722030CA
:103EC0002E316D6D004D6F76657220316D6D004D38
:103ED0006F7665722031306D6D004D6F76657220A2
:103EE000656A6573004578747275736F72004D6F03
:103EF000766572205A004D6F7665722059004D6FBD
:103F000076657220580000000A0B02090C0D0E089D
:103F10000703040100000000000000000000000092
:103F20000000000000000000000000000000000091
:103F3000000012111000000000000000000000004E
:103F40000000000000000000000000002102390213
:103F500011241FBECFEFD1E2DEBFCDBF00E00CBF0A
:103F600013E0A0E0B2E0ECE3F4EA02E00BBF02C031
:103F700007900D92A434B107D9F726E1A4E4B3E089
:103F800001C01D92AC3BB207E1F71FE1C7EADFE1D8
:103F900000E006C021970109802FFE010F94744FA5
:103FA000C63AD10780E00807A9F70F94143A0D9498
:103FB0000C520C9400002F923F924F925F926F929E
:103FC0007F928F929F92AF92BF92CF92DF92EF92A9
:103FD000FF920F931F93CF93DF93CDB7DEB7A797D1
:103FE0000FB6F894DEBF0FBECDBF8FA32091C514CE
:103FF0002EA321E02093C514809127048D3409F469
:10400000D0C3843511F40C947131873411F00C94C1
:104010009C3180912504909126048B31910509F4FF
:1040200063C1F4F488309105D1F14CF497FDB5C328
:1040300082309105A4F1049709F412C1AEC38B300C
:10404000910509F44CC18531910511F40C949E3110
:104050000A9709F0A2C381E00E945BDE0C949E31B6
:104060008A32910509F4B9C254F48D31910509F4ED
:1040700065C10CF453C14E9709F47EC18EC38B35D4
:10408000910509F4F4C18C35910509F4F5C18A351F
:10409000910509F082C31092F5140C949E31809121
:1040A000B406813011F00C949E3119821A821B8261
:1040B0001C82CE0101965C012BEFE22E25E1F22E4F
:1040C00006E512E033E0C32E30E1D32E912C88E5D3
:1040D000890D0E9433FAF50181935F01882311F164
:1040E0000E94D8F72B013C01892D0E9425E78823E7
:1040F00051F0F8012081318142815381C301B20125
:104100000F947D4F09C0F601208131814281538196
:10411000C301B2010F947C4FF701608371838283E6
:1041200093830AC0F80180819181A281B381F70154
:1041300080839183A283B3839394F4E0EF0EF11C08
:104140000C5F1F4F24E0C20ED11C33E09312BFCF8F
:1041500085E40E9433FA8C83882301F10E94D8F70A
:104160006B017C0183E00E9425E7882371F0209198
:104170006202309163024091640250916502C7016E
:10418000B6010F947D4F6B017C01C0920716D0924F
:104190000816E0920916F0920A1610C08091620289
:1041A00090916302A0916402B0916502809307161A
:1041B00090930816A0930916B0930A16809145169D
:1041C000882381F08091D71082FF0CC08C818823D6
:1041D00049F08981811103C08A81882319F080E028
:1041E0000F94FE1840E050E0BA0186E40E948D6012
:1041F00020E030E0A9010F940051181684F40E94C9
:10420000D8F720E030E040E752E40F94005060938C
:104210008D0270938E0280938F0290939002809112
:104220002416882311F40C94D93185E40E940FF8E8
:10423000882311F40C94D93188E50E940FF881117C
:104240000C94D93189E50E940FF881110C94D93171
:104250008AE50E940FF881110C94D9310C94A73192
:1042600080E50E9433FA882329F00F9448076B01F8
:104270007C0103C0C12CD12C760183E50E9433FA66
:10428000882361F00E94D8F720E030E04AE754E448
:104290000F94DF480F9479506B017C010F942E2A04
:1042A00080915414811105C060E089ED96E00F946F
:1042B00025140F94F537C60ED71EE81EF91E0F946D
:1042C000F537DC01CB018C199D09AE09BF09B7FD9B
:1042D00002C00C949E3180E00E94C836F0CF80E08E
:1042E0000E945BDE0C949E310F94F11C81110C94A2
:1042F0009E318CE0ECE9F2E0DE01119601900D9226
:104300008A95E1F760E070E080E50E94CFEDBE01A4
:104310006F5F7F4F0F94800F0C949E318091C31478
:104320008770873011F00C94043260E08FE40E94B3
:1043300040FA81110C949E310C9404320F94F5379D
:104340006093B40C7093B50C8093B60C9093B70C3B
:104350000F94F11C81110C949E318091FA148823E2
:1043600011F40C94743260E08FE40E9440FA8111E1
:104370000C949E310C9474322091B7143091B8147F
:104380004091B9145091BA1460915602709157023D
:1043900080915802909159020F947D4FAB01BC015E
:1043A00088E50E948D6069837A838B839C8320914A
:1043B000BB143091BC144091BD145091BE14609157
:1043C0005A0270915B0280915C0290915D020F94A1
:1043D0007D4FAB01BC0189E50E948D606D837E83BA
:1043E0008F839887BE016B5F7F4FCE0101960F943C
:1043F000C307882311F40C949E3180E00E9485E16C
:104400000E9407A261E085E40E9440FA01E021E0F9
:10441000482FBE016B5F7F4FCE0101960F94A91DFF
:104420006B017C019B01AC010F947E51811119C07D
:1044300049815A816B817C818CE499E30E94CAE5B1
:104440004D815E816F81788587E499E30E94CAE59A
:10445000B701A60182E499E30E94CAE58AE00E94BE
:104460009C350E94EEA10E946AA40C949E318FE0BC
:104470008093F5140C949E3180912404882349F193
:10448000893009F0A6C083E1A82E83E0B82E96E516
:10449000E92E92E0F92ED12C00E010E0F501819197
:1044A0005F010E9433FA882369F00E94D8F7F70170
:1044B0006083718382839383133011F401E002C01F
:1044C000DD24D3941F5FF4E0EF0EF11C143031F7BC
:1044D00075C0B3E12B2EB3E03B2E1BE0E12E15E1BE
:1044E000F12E26E532E03DA32CA303E0C02E00E12F
:1044F000D02E00E010E0F10181911F010E9433FAFB
:10450000882309F44AC00E94D8F72B013C011330DC
:1045100049F0F60120813181428153810F947C4F13
:104520002B013C01ECA1FDA120813181428153810D
:10453000C301B2010F947C4F4B015C012DEB37E3BB
:1045400046E855EB0F94005187FD0AC02DEB37E389
:1045500046E855E3C501B4010F9479481816ECF408
:10456000133051F4409262025092630260926402EE
:104570007092650201E011C0A5019401F70160810C
:104580007181828193810F947D4FF70160837183E4
:1045900082839383812F0F94642E1F5FF4E0EF0ECC
:1045A000F11C2CA13DA12C5F3F4F3DA32CA334E077
:1045B000C30ED11C143009F09ECF05C0DD2019F0C8
:1045C0000E9468A406C0002321F082E692E00F94C6
:1045D000D12C0E946AA40C949E318091B406813043
:1045E00011F00C949E3189E40E9433FAE82E88235E
:1045F00021F00E94D4F7082F01C000E08AE40E9455
:1046000033FAF82E882321F00E94D4F7182F01C026
:1046100010E0EE2011F0043020F4FF2041F01430BF
:1046200030F083EE96E00E9409E50C949E3180E123
:10463000E6E5F2E0ABEFB5E101900D928A95E1F786
:10464000EE2019F1602F000F770B880B990B0F9458
:1046500080482091141630911516409116165091ED
:1046600017160F94DF482091B8043091B904409197
:10467000BA045091BB040F947D4F6093FB15709367
:10468000FC158093FD159093FE15FF2019F1612F05
:10469000110F770B880B990B0F94804820911816F7
:1046A0003091191640911A1650911B160F94DF483D
:1046B0002091BC043091BD044091BE045091BF04D0
:1046C0000F947D4F6093FF15709300168093011631
:1046D0009093021660E080E50E9440FA8823C1F1C1
:1046E000EE20D1F02091B7143091B8144091B91454
:1046F0005091BA146091FB157091FC158091FD15D5
:104700009091FE150F947C4F6093FB157093FC15F0
:104710008093FD159093FE15FF20D1F02091BB14DE
:104720003091BC144091BD145091BE146091FF159E
:104730007091001680910116909102160F947C4F93
:104740006093FF15709300168093011690930216E4
:1047500040E050E0BA0186E40E948D606B017C016C
:1047600020E030E0A9010F94005118164CF420E02D
:1047700030E040E752E4C701B6010F94005003C097
:1047800060E070E0CB0169837A838B839C83CE01E8
:1047900001960E9426A20C949E310F94121A0C943A
:1047A0009E3180912504909126048B39910509F45E
:1047B000F0C50CF015C18335910509F429C60CF03C
:1047C00082C08A31910509F446C3BCF58431910554
:1047D00009F499C27CF48131910509F480C22CF46A
:1047E000029708F444C20C946E31429709F417C63C
:1047F0000C946E318731910509F4BAC294F4853175
:10480000910509F4B1C2469711F00C946E310E94E3
:1048100024B58091D710877F80628093D7100C9445
:104820009E318831910509F4B8C2499711F00C9472
:104830006E310E94F5EC0C949E318032910509F4A2
:1048400082C3F4F48D31910509F466C384F48B318D
:10485000910509F40EC34C9711F00C946E318091C0
:104860002204909123040E945DB80C949E318E31F5
:10487000910509F458C34F9709F48EC30C946E3117
:104880008D34910509F437C46CF48B34910509F427
:104890002EC48C34910511F00C946E310E9404A644
:1048A0000C949E318135910509F49CC582359105A2
:1048B00011F00C946E318091F5148F7D806180939E
:1048C000F5140C949E318037910509F410C5E4F578
:1048D0008A36910509F46AC4CCF48C35910509F443
:1048E000F7C554F48435910509F499C585359105CA
:1048F00009F4CBC50C946E318836910509F4FFC3D9
:104900008936910509F43EC40C946E318D369105BB
:1049100009F416C47CF48B36910509F485C48C36F1
:10492000910511F00C946E311092C41410928B0208
:104930000C949E318E36910509F481C48F36910511
:1049400009F490C40C946E318737910509F423C79C
:104950003CF58337910509F459C68CF481379105EC
:1049600009F4CEC48237910511F00C946E310E9487
:1049700051C484E690E10E94B1C90C949E31853700
:10498000910509F4C5C68637910511F00C946E3176
:10499000009122041091230494E0F12C40E0DFC642
:1049A0008D37910509F41BC58CF48837910509F4FE
:1049B000F5C68937910511F00C946E311092E00420
:1049C0001092DF040E9482A50C949E318C389105D0
:1049D00009F4BBC48139910509F4E8C60C946E3121
:1049E0008139E1E09E0711F40C94692F0CF087C027
:1049F0008E3C910511F40C94522DD4F58E3B91050B
:104A000009F4C4C4C4F4843A910509F45FC734F4CA
:104A1000833A910509F43EC70C946E31863A9105AC
:104A200009F467C7873A910511F00C946E310E9422
:104A3000E2ED0C949E318B3C910509F4E3C754F4EC
:104A4000883C910509F458C7893C910509F499C738
:104A50000C946E318C3C910511F40C94212D8D3CFD
:104A6000910511F00C946E310F9458070C949E31FF
:104A70008D3D910511F40C94352EF4F4813D910592
:104A800011F40C94FE2D64F48F3C910511F40C94F8
:104A9000702D803D910511F40C94B42D0C946E3161
:104AA000833D910511F40C940B2E8C3D910511F46E
:104AB0000C940E2E0C946E318D3221E0920711F47D
:104AC0000C94E62E6CF48232E1E09E0711F40C9413
:104AD0008A2E8C32914011F40C94D12E0C946E31AC
:104AE0008F3221E0920711F40C94662F80399140A7
:104AF00011F00C946E310F942E2A0C949E31883F45
:104B0000E1E09E0711F40C9471300CF057C0853A27
:104B100021E0920711F40C949B2F2CF58C39E1E0E5
:104B20009E0711F40C94752F7CF4823921E09207D2
:104B300011F40C946F2F8A39914011F00C946E315E
:104B40000E94BC340C949E318D39E1E09E0711F433
:104B50000C943331843A914011F00C946E310E94E0
:104B60005DF80C949E31853F21E0920711F40C947E
:104B70006B307CF48C3AE1E09E0711F40C940E301B
:104B8000843F914011F00C946E310E94706B0C9434
:104B90009E31863F21E0920711F40C946E30873FDE
:104BA000914011F00C946E3161E083E50E9440FA6F
:104BB00091E089270F9408320C949E318E3BE2E0FD
:104BC0009E0711F40C941F312CF58B3522E09207CF
:104BD00011F40C948E307CF48C30E2E09E0711F4DA
:104BE0000C9481308835924011F00C946E310E9403
:104BF000E3EB0C949E318A3922E0920711F40C9475
:104C000006318D3B924011F00C946E310E9492EA75
:104C10000C949E31873EE3E09E0711F40C942531FD
:104C2000CCF4833523E0920711F40C942231803ABE
:104C3000934011F00C946E312091220430912304A2
:104C40009091D71092609093D710C9010E945DB8DF
:104C50000C949E31883EE3E09E0711F40C944D3194
:104C6000893E934011F40C9450310C946E3180E5E0
:104C70000E9433FA882329F00F9448076B017C01C6
:104C800003C0C12CD12C760183E50E9433FA88231E
:104C900061F00E94D8F720E030E04AE754E40F9436
:104CA000DF480F9479506B017C010F942E2A80917C
:104CB000220490912304009721F061E00F94BB142B
:104CC00005C060E08CEF96E00F94251440E0C7012A
:104CD000B6010E94203C0F94631A0C949E3180917F
:104CE000280484FF02C00C94773280912A0487FF45
:104CF00002C00C94773280912B04837011F00C94D5
:104D000077320C9495328091D71083FF25C08FE2C3
:104D100097E00E9409E58091D71083FF17C084EFC8
:104D200090E10E94EDC08BE1E4EFF0E1DE0111962D
:104D300001900D928A95E1F760E070E0CE01019656
:104D40000E9481B9CE0101960E946DFA80E297E03F
:104D50000E9409E50C949E310E94FFE580E497E0F3
:104D60000E9409E50C949E310E94E3B50C949E319B
:104D7000E0912204F09123048081882329F080327D
:104D800009F410823196F8CF60E08091220490916E
:104D900023040E94A5B80C949E3183E50E9433FA47
:104DA000882321F00E94A0F70E94BB6684E50E9440
:104DB00033FA8823A9F00E94A0F76B017C010E94BE
:104DC000C5A5C0921E0DD0921F0DE092200DF0924D
:104DD000210DCD28CE28CF2819F081E08093EE1444
:104DE0008091690D8823F9F080E090E0A8E4B2E4B6
:104DF00088A399A3AAA3BBA31C8E1D8E1E8E1F8EF3
:104E000019821A821B821C8200E010E020E0AE01B1
:104E1000405E5F4FBE01645E7F4FCE0101960E94EF
:104E200014FB0C949E310E94E134882381F00E948F
:104E300035B50E94E0A58EE795E10E94DAB41092A4
:104E40002C0410922D0410922E0410922F040F9413
:104E5000631A0C949E318091D71083FD02C00C948C
:104E60009E3183E50E9433FA81110C94A5320C9493
:104E70009E3183E40E940FF8882319F184E597E0BE
:104E80000E9409E580913B12882391F0BE016F5F7B
:104E90007F4F88E392E10E94B9C08E010F5F1F4FE0
:104EA000F80181918F01882339F00E949C35F8CF59
:104EB0008AE497E00E9409E58AE00E949C350C9400
:104EC0009E318091D71082FF21C083E697E00E9437
:104ED00009E56091D3107091D4108091D510909114
:104EE000D6104AE00E94A3358FE20E949C35609163
:104EF000CF107091D0108091D1109091D2104AE0D3
:104F00000E94A3350E94A1360C949E3185E797E05C
:104F10000E9409E50C949E318091D7108E7F80937A
:104F2000D7100C949E318091D71083FD02C00C9451
:104F30009E310F94FB1980912204909123040E94CA
:104F4000BBB70C949E318091D71082FD0F942E2A0E
:104F50008091D71083FD02C00C949E3160E080E503
:104F60000E9440FA182F682F809122049091230408
:104F70000E94A5B883E50E9433FA882321F00E949D
:104F8000A0F70E94BB660E9435B511110C949E31AA
:104F90000E94E0A50C949E310E9491A57B018C019A
:104FA00020E831E541E050E00F94CF4EC9016DE6B5
:104FB00071E00F944C4F4B015C01C801B70120E137
:104FC0003EE040E050E00F94CF4ECA01B90128E125
:104FD00030E040E050E00F94CF4E762E672EC62E84
:104FE000D72EACE32A2E312C412C512CC801B7010D
:104FF000A20191010F94CF4EF62EE72ECA01B901FE
:10500000A20191010F94CF4ECB018E010F5F1F4F74
:105010008114910499F0EF92FF927F936F936F92B6
:105020007F92BF92AF929F928F9286E897E09F9374
:105030008F931F930F930F94114813C0A114B104C1
:10504000B1F0EF92FF927F936F936F927F92BF9236
:10505000AF928AE897E09F938F931F930F930F94DB
:1050600011480FB6F894DEBF0FBECDBF30C0CD28BB
:1050700079F0EF92FF927F936F936F927F928EE819
:1050800097E09F938F931F930F930F941148E9CF4D
:10509000892B69F0EF92FF927F936F9382E997E0FB
:1050A0009F938F931F930F930F941148DACFEF9232
:1050B000FF9286E997E09F938F931F930F930F942E
:1050C00011480F900F900F900F900F900F9060E08D
:1050D000C8010F94BB140E94FFE5B8018AE997E06C
:1050E0000E94E8E58AE00E949C350C949E310E9463
:1050F000E0A50C949E310E9419A60C949E318091DB
:105100006B0C83FF02C00C949E3189E40E9433FA39
:10511000882311F40C94AA320E94B0F790E018167C
:10512000190614F481E090E026E0289FF001299F01
:10513000F00D1124EA5BF94E808191810C94B53217
:1051400080916B0C83FF02C00C949E3189E40E9415
:1051500033FA882311F40C94BC320E94B0F790E02B
:105160001816190614F481E090E026E0289FF0015B
:10517000299FF00D1124EA5BF94E8081918110E0A6
:105180000C94CD320E94FCE6182F87FD0AC088ECF3
:105190009AE10E9409E5812F0E94C4AA8AE00E9438
:1051A0009C353EA13093C5140C94593460E080E5E1
:1051B0000F94840981110C949E3181E40E940FF8B0
:1051C000882329F060910107062F10E002C00FEF3D
:1051D00010E089E40E9433FA882399F00E94B0F726
:1051E00090E01816190614F481E090E026E0289F5C
:1051F000F001299FF00D1124EA5BF94E048115811D
:1052000008C083E50E9433FA882319F00E94A0F7B2
:105210008B01B8010F3F110519F010F06FEF70E02E
:10522000609301070C949E3160E080E50F9484093F
:1052300081110C949E31109201070C949E318EE4E2
:105240000E9433FA882311F40C949E310E94A0F737
:105250006093B4047093B5048093B6049093B7043C
:105260000C949E3183E50E940FF8882331F060E0B2
:1052700083E50F94840980936B0C0E94FFE58BEC0F
:1052800097E00E9409E580916B0C882369F1FBE7A8
:10529000EF2EFBE0FF2E00E010E020E080916B0C91
:1052A00090E0A0E0B0E0002E04C0B695A7959795D9
:1052B00087950A94D2F780FF0EC0DD24D394D20ED6
:1052C000222319F08CE20E949C35F701859194917C
:1052D0000E9409E52D2D0F5F1F4F82E0E80EF11CA3
:1052E00005301105D9F6E8CD87EC97E0E3CD41E034
:1052F00060E070E082ED97E00E9403E60C949E313E
:1053000083E50E9433FA882381F00E94B0F7282FAA
:1053100030E02D33310524F4809300020C949E314B
:105320008CE3809300020C949E310E94FFE5409133
:10533000000250E060E070E080EE97E00E94ACE593
:105340008AE00E949C350C949E3180916B0C83FF07
:1053500002C00C949E3189E40E9433FA882311F430
:105360000C940E330E94B0F790E01816190614F44E
:1053700081E090E026E0289FF001299FF00D1124A4
:10538000EA5BF94E628173810C9418330E94C56404
:10539000D5C783E50E9433FA882309F4CFC70E945A
:1053A000B0F7182F90E0CD970CF01CE31093490351
:1053B0000F94F5376B017C01212F30E0A8EEB3E0AC
:1053C0000F94234FC60ED71EE81EF91EC092450348
:1053D000D0924603E0924703F0924803AFC70E9481
:1053E000F5ECACC70E9487AB0E9419A60F943F2A28
:1053F0000E94053568EE73E080E090E00E94E5E4ED
:105400000E94083560E087EE97E00F94251496C758
:105410008091F5148F7E80628093F5148FC783E5A9
:105420000E9433FA8823E9F00F94F5376093B40CA7
:105430007093B50C8093B60C9093B70C0E94D8F77C
:1054400020E030E04AE754E40F94DF480F947950AD
:10545000609301027093020280930302909304020E
:105460006DC78091280484FF02C00C942933809179
:105470002A0487FF02C00C94293380912B04837087
:1054800011F00C9429330C945B3383E50E940FF8E0
:10549000882309F453C70F94F5376093B40C7093C5
:1054A000B50C8093B60C9093B70C0E94D8F720E00F
:1054B00030E04AE754E40F94DF480F94795060934A
:1054C0004A0370934B0380934C0390934D0336C76C
:1054D0000E94FCE687FD32C79091280494FD04C029
:1054E00090912A0497FF0AC073E1C72E73E0D72E6C
:1054F000ECE6EE2EECE0FE2E10E009C090912B04BD
:10550000937091F7682F81E00F940D0717C7F6018C
:1055100081916F010E9433FA882309F46DC0133022
:1055200009F063C00E94D8F74B015C0120E030E035
:1055300040EA51E40F94794887FF4EC0A5019401D9
:1055400060918C0C70918D0C80918E0C90918F0CD1
:105550000F9400502B013C019B01AC016091E506CA
:105560007091E6068091E7069091E8060F94DF4877
:105570006093E5067093E6068093E7069093E8064D
:10558000A301920160919C0C70919D0C80919E0CE6
:1055900090919F0C0F94DF4860939C0C70939D0C2E
:1055A00080939E0C90939F0C6091F5067091F60687
:1055B0008091F7069091F8060F947E48A30192011E
:1055C0000F94DF480F9479506093F5067093F606B8
:1055D0008093F7069093F80680928C0C90928D0C35
:1055E000A0928E0CB0928F0C07C00E94D8F7F701E2
:1055F000648B758B868B978B1F5FF4E0EF0EF11C2D
:10560000143009F084CF0F940A2A98C68EE399E0EB
:105610000E9409E560E08EE299E00E94966A60E0EF
:1056200089E199E00E94966A61E089E098E10E9430
:10563000966A61E08EE099E00E94966A61E08EEFE2
:1056400098E00E94966A60E085EF98E00E94966A72
:1056500061E08BEE98E00E94966A61E081EE98E04E
:105660000E94966A61E08AED98E00E94966A61E085
:1056700082ED98E00E94966A61E084EC98E00E94D6
:10568000966A60E086EB98E00E94966A60E087EA9E
:1056900098E00E94966A60E089E998E00E94966A24
:1056A00060E083E898E00E94966A60E082E798E014
:1056B0000E94966A60E083E698E00E94966A61E044
:1056C0008CE598E00E94966A60E087E498E00E948A
:1056D000966A60E089E398E00E94966A60E086E25C
:1056E00098E00E94966A60E089E198E00E94966ADC
:1056F00060E084E198E00E94966A61E087E098E0CB
:105700000E94966A60E083EF97E00E94966A16C650
:105710008091220490912304009709F498CBFC0116
:105720002081222309F493CB60E00F94BB1406C6BA
:10573000F8018081282F2B7F2134A1F08035F1F4EE
:10574000F801818180538A30C8F498012E5F3F4F61
:1057500089012F5F3F4FF80180818032C9F391505A
:1057600039F70CC02181213349F4813421F085348B
:1057700061F741E0EACFFF24F394E7CF41110E94A3
:10578000FFE5FF2021F085E19AE00E9409E5C801CC
:105790000E94A736D3C50E9447A5D0C581E080935B
:1057A000E0048093DF040E9482A5C8C560E070E039
:1057B00083E50F947509823038F00E94FBE589E19A
:1057C0009AE00E9409E5BAC58C01112788E40E947D
:1057D00033FA8823E1F00E94D4F78A3A910544F025
:1057E0000E94D4F78530914034F40E94D4F705C06C
:1057F0008AEA90E002C084E091E026E0209FF00178
:10580000219FF00D1124EA5BF94E9183808382E49D
:105810000E9433FA8823D9F00E94D4F7059744F008
:105820000E94D4F78937910534F40E94D4F705C05B
:1058300085E090E002C088E790E026E0209FF0013C
:10584000219FF00D1124EA5BF94E9383828386E455
:105850000E9433FA882309F471C50E94D4F797FD9A
:1058600009C00E94D4F78F3F910509F034F40E94DB
:10587000D4F705C080E090E002C08FEF90E026E012
:10588000209FF001219FF00D1124EA5BF94E9583D2
:10589000848354C560E070E083E50F9475098C0142
:1058A000833091056CF460E070E080E50F94750939
:1058B0001127F801E450FC4E80830E94BCFF3EC5D6
:1058C00041970CF43BC50F94540038C56FEF7FEF40
:1058D00083E50F94750997FD07C0803191050CF0A1
:1058E0002DC50E94FEDD2AC5809148070E94FEDD7D
:1058F00025C50E949BEE22C50E94FCE6182F87FD5D
:105900001DC500910A1584E40E9433FA882309F426
:10591000D5C60E94D8F76B017C0120E030E0A901D8
:105920000F947948882339F124E01202F001112400
:10593000EA5FFA4EC082D182E282F38220E030E058
:10594000A901609106157091071580910815909135
:1059500009150F94794881110CC080E090E0A0EE09
:10596000BFE38093061590930715A0930815B09395
:10597000091501E0A3C680E080930A150F94B727AC
:10598000DDC40E94FCE687FDD9C453E1C52E53E077
:10599000D52E6CE6E62E6CE0F62E10E0F601819135
:1059A0006F010E940FF8882331F10E94D8F76C8FA5
:1059B0007D8F8E8F9F8F80E1E8EAF2E0DE01119605
:1059C00001900D928A95E1F79E012F5F3F4F4BE3C7
:1059D0005AE0612FCE014C960F94FA286C8D7D8D84
:1059E0008E8D9F8D0F947950F70160837183828330
:1059F00093830F94C3291F5FF4E0EF0EF11C143062
:105A000069F69CC40E94FCE687FD98C443E1E42E3D
:105A100043E0F42E0CE61CE0F70181917F010E9427
:105A20000FF8882339F00E94D8F7F80164A375A312
:105A300086A397A30C5F1F4FFCE00C371F0761F78D
:105A40007DC48091290487FD3EC680912A048E7012
:105A500009F039C64091A00C5091A10C6091A20CA4
:105A60007091A30C88E49AE00E94CAE54091A40CCE
:105A70005091A50C6091A60C7091A70C8FEB9AE346
:105A80000E94CAE54091A80C5091A90C6091AA0C03
:105A90007091AB0C80E59DE30E94CAE58AE00E940C
:105AA0009C354CC437E1E32E35E1F32E10E088E558
:105AB000810F0E940FF8882351F00E94D8F7F70158
:105AC0006083718382839383812F0F94642E1F5F81
:105AD000F4E0EF0EF11C133051F70E946AA42EC4BB
